:02000002B0004C
:1040000000400B0070850B00000006000C0005024C
:084010000401800C0000000017
:044018006C730B00BA
:10401C0009480A49884208B505D0094A824202D0AB
:10402C00121A03F08FF80748074A0021121A03F0FE
:10403C0097F8014808BD00BF98E50320C4840B0025
:10404C001CE603201CE60320EDE7032070B5074EA9
:10405C00074C02F047FFA41BA4080025AC4200D17A
:10406C0070BD56F8043B98470135F7E790840B0078
:10407C00B4840B0000F086B908B500F0D1F9BDE8A6
:10408C00084002F0E7BE02F0D3B902F0D9B9000043
:10409C0008B5034A00210C2002F02EF9FEE700BF00
:1040AC0055600B000078B0FA80F04009704701238E
:1040BC00037070470EB403B503AB002153F8042B07
:1040CC00019302F034FC02B05DF804EB03B07047CE
:1040DC000EB403B503AB012153F8042B019302F08A
:1040EC0026FC02B05DF804EB03B0704730B50378E2
:1040FC002D2B0CBF01220022134603440A2400205E
:10410C0013F8011B3039CDB2092D02D804FB001075
:10411C00F6E702B1404230BD70B514460D4603F0CF
:10412C005DF8261F40B1FFF7E1FF294646F8040F62
:10413C00002003F053F8F5E7236813B9014B012273
:10414C001A7070BDA4E6032038B501460D4A0E481E
:10415C000E4D102301F0EFFD0128287011D002F054
:10416C00F3FD0B4902F0A8FB02F0EEFD29780446A2
:10417C00054801F0B5FA01462046BDE8384002F08A
:10418C00AEBB38BD99E50320ABE60320C3E60320A4
:10419C0080730B0037B58DF807200DF107030A4625
:1041AC0001460D480D4D01F02BFD0128287010D053
:1041BC0002F0CAFD0A4902F07FFB02F0C5FD297826
:1041CC000446054801F08CFA0146204602F087FBB4
:1041DC00002003B030BD00BFABE60320C3E60320D4
:1041EC0098730B00F0B58DB0204D214A0095214BF2
:1041FC001278214F06466021284601F022FD012845
:10420C0038700FD002F0A0FD1C4902F055FB02F0F3
:10421C009BFD39780446284601F062FA0146204697
:10422C0002F05DFB164C2078FFF78EFF20781222EF
:10423C0007A9FFF7AFFFB0B107AC0FCC03AD0FC5AB
:10424C0023682B8002F080FD0E4903AAFFF740FF84
:10425C000D49324603A8FFF75FFF044801F0ABFCA1
:10426C00024801F008FB0DB0F0BD00BFABE6032027
:10427C00ACE50320A5E60320C3E60320AF730B00D7
:10428C0098E50320CB730B00A5E5032008B540B9D6
:10429C00294B1B68052B48D8DFE803F005101B26BB
:1042AC00313C264BF5E702F04FFD254902F004FBAB
:1042BC00214A244813680133136008BD02F044FD01
:1042CC00214902F0F9FA1C4A2048136801331360A3
:1042DC00F3E702F039FD1E4902F0EEFA164B1D48C9
:1042EC004FF0FF321A60E8E702F02EFD1A4902F097
:1042FC00E3FA124A1948136801331360DDE702F040
:10430C0023FD174902F0D8FA0C4A164813680133FA
:10431C001360D2E702F018FD134902F0CDFA074BF7
:10432C0012484FF0FF321A60C7E702F00DFD10493A
:10433C0002F0C2FA0F48C0E7BCE60320A8E5032050
:10434C00E9730B00D7730B0000740B00DA730B00CE
:10435C0017740B00DD730B002E740B00E0730B0055
:10436C0045740B00E3730B005C740B00E6730B00DD
:10437C0073740B009A740B004278037802B101330A
:10438C001846704710B5204C88B002F0DDFC4FF495
:10439C00165102F0CDFC2178BFF35B8F11F00101B7
:1043AC000BD120460391FFF77DFE039928B11748E6
:1043BC0002F0FAFA2046FFF77AFE144802F0FEFAF1
:1043CC00002405A8CDE90544ADF81C4002F06CF8BA
:1043DC000F48234622462146406801F0F1FF012395
:1043EC0000933C2202210B4800F052FE0A4801F0D7
:1043FC00A6FA0A4BFF221A705A709A70DA701A7168
:10440C005A7108B010BD00BF1CE6032020E6032043
:10441C0018E7032034E60320ABE60320A5E60320CF
:10442C0070B5324886B001F0B5FB002858D02F4843
:10443C0001F0F0FD002853D02D4C2E4E2E4D204671
:10444C0000F018FE0121204600F06FFC4FF0011324
:10445C000022C4E9042302F077FC044627482849CB
:10446C00FFF78AFF02462046FFF732FE6846FFF749
:10447C00B9FE02F069FC234B009900290CBF3146B0
:10448C00194602F02CFA02F05FFC1F4B019900292F
:10449C000CBF2946194602F022FA0198FFF7F6FEE6
:1044AC00044602F051FC19492246FFF711FE23780D
:1044BC0033B1009BB3B902F047FC314602F00FFA5E
:1044CC000E4C02F041FC22781149FFF701FE02F07C
:1044DC003BFC62780F49FFF7FBFD054801F032F811
:1044EC0006B070BD02F030FC2946E7E7ABE60320CE
:1044FC0034E603209B740B00B1740B00C0E6032060
:10450C00C9740B00A5740B00BE740B00E2740B0095
:10451C00ED740B0000750B0010B5104C10484FF0EB
:10452C00FF3100F0B3FC0F49204602F02DFB0D4982
:10453C0004F1100002F028FB08220B48102101F0B6
:10454C00B7F80A4B0022C3E90022A2F580329A6028
:10455C00BDE81040022001F0D7BE00BF84E6032066
:10456C0034E6032013750B00ABE6032028E603208A
:10457C002DE9F04F85B01F46BDF93880BDF83C30B1
:10458C00A8EB0209A7EB010AB9F1000FB8BFC9F1FA
:10459C000009BAF1000FB8BFCAF1000AD145834631
:1045AC000C46154604DD3A462C4647460D469046C9
:1045BC00BC4205DD2A464546904622463C461746F7
:1045CC003E1BB2B20092A8EB050282EAE271A1EBAB
:1045DC00E271C6F3C03202FA86F64545B4BF012239
:1045EC004FF0FF32019176100292BC421CDCDBF8DA
:1045FC0000200393D145D2F81880C7BF2946224624
:10460C002A4621465846C047019A039BB61AB1B2B6
:10461C0036B2002E05DA029A1544009A56182DB2BD
:10462C0036B2013424B2E0E705B0BDE8F08F704734
:10463C0010B404682469A4465DF8044B604730B498
:10464C000468BDF808500295A46BA44630BC6047C2
:10465C0030B40468BDF808500295E46BA44630BC35
:10466C00604770B4BDF90C50BDF810600468CDE91A
:10467C000356246CA44670BC60472DE9F3411C46DC
:10468C000368BDF820805B6905461646013C34443E
:10469C000F4624B298472B68CDF8048000949C6A8E
:1046AC0028463B4632463946A0472B68DB6A2846EB
:1046BC0002B0BDE8F04118472DE9F3411D460368EF
:1046CC00BDF820805B69044617460E469847CDE935
:1046DC00007822686B1E3344956A20461BB23A461A
:1046EC003146A8472368DB6A204602B0BDE8F0419A
:1046FC0018472DE9F3471E460368BDF928905B69FE
:10470C00BDF82C800C460546174698472644B44203
:10471C002B680BDACDF80080D3F820A021464B464D
:10472C003A4628460134D04724B2F0E7DB6A2846E3
:10473C0002B0BDE8F047184713B502680191B0F913
:10474C000E100091146CB0F90C3000221146A047E9
:10475C0002B010BD2DE9F74399421646BDF92870F9
:10476C00BDF82C90026880460D461C4613D1BE4203
:10477C00C8BF3346CDF82890C4BF3E461F467B1CAD
:10478C00946B9B1B1BB2324629464046A44603B091
:10479C00BDE8F0436047BE420AD19942C2BF0B4606
:1047AC0025461C46631CCDF82890D46B5B1BE9E7AF
:1047BC0053699847CDE90079D8F8003040469F6A94
:1047CC00324623462946B847D8F80030DB6A4046C3
:1047DC0003B0BDE8F04318472DE9F3471D460368C5
:1047EC00BDF82C805B69BDF9289004460F4616462F
:1047FC0098472368CDF80080D3F824A032462B4686
:10480C0039462046D0472368CDF8008009F1FF32A5
:10481C003244D3F824A039462B46204612B2D04756
:10482C002368CDF80080D3F820A032464B46394699
:10483C002046D0476B1ED9192368CDF800801D6A1D
:10484C0020464B46324609B2A8472368DB6A20460D
:10485C0002B0BDE8F0471847704701F00303B0F908
:10486C000A208376C907B0F9083059BF8381C28109
:10487C008281C3817047000030B54281C281074AF2
:10488C00074D0181002481814FF0FF31C0E90512F1
:10489C004460056004610477046230BD01010001CD
:1048AC00207A0B002DE9F04F89B0CDE90212026895
:1048BC00BDF948800493BDF94C3052690593BDF89D
:1048CC0050A00446904718F107024FF0000648BF6D
:1048DC0008F10E024FEAE20B01963546039B019A52
:1048EC00BDF904109A18059B8B4212B227DD049B6C
:1048FC0033444FF0000906930FFA89F080451FFAF4
:10490C0089F117DD4F0705BF069BC0106D001D5CBC
:10491C0018BFEDB22B060AD5029B206807921944EA
:10492C00836909B21F4620465346B847079A09F1D6
:10493C000109E1E7019B013301935E44CEE7236853
:10494C00DB6A204609B0BDE8F04F18472DE9F04F5F
:10495C002DED028B91B01646026ABDF874809DF85D
:10496C0078509DF87C4003911F46BDF8703004933D
:10497C008346002A40F0C580B0F90C308B4240F3DE
:10498C004C81B0F90E30B34240F34781062313FB40
:10499C000513002B40F3418106EBC403002B40F3BD
:1049AC003C81037F1BB9AF2F84BF0137FFB2DBF80B
:1049BC00003058465B6998470522099200220592FF
:1049CC00984A07EB8703D3180C93B3B20693059A56
:1049DC000C9B9B5C0793ABB20B93BDF80C3008930C
:1049EC00039B02FB05F919FA83F90FFA89F308EE18
:1049FC00103A08230A93039B02EB030A4FF00009B9
:104A0C000FFA8AFA079ADBF80030D20752D5012D3B
:104A1C001FFA89F23ED1012C3CD19B6906991F46A5
:104A2C00049B0A4412B251465846B84709F1010397
:104A3C004FFA83F9079B5B0807930A9B013B13F022
:104A4C00FF030A93DED1059F01377BB20593099BC7
:104A5C00013B13F0FF030993B9D1049B43450FD0DD
:104A6C00012DDBF800303BD1012C39D10899CDF860
:104A7C00008005311C6A3246082309B25846A0470B
:104A8C00DBF80030DB6A584611B0BDEC028BBDE898
:104A9C00F04F1847069914FB02F20A44049901914D
:104AAC000094DB6918EE101A1F4612B22B465846BA
:104ABC00B847BBE7049A4245B8D0012D1FFA89F2DA
:104ACC0007D1012C05D19B6906991F460A44434620
:104ADC00A8E70699CDF8048014FB02F20A44DFE73C
:104AEC000B9ACDF8048002EB8201089AE4000A4488
:104AFC0011460094DC6932462B4609B25846A04751
:104B0C00BEE7137A516812680B92FF1AFFB201EBE1
:104B1C00C70331F8372006929A780992DA780C920A
:104B2C00012D93F9052093F906A00A9201D8012CC6
:104B3C0057D9BDF9283008930FFA8AF30793DBF89D
:104B4C00003058465B699847B3B24FF000080E939B
:104B5C001AFA86F3C14647460F930C9B9F428FD29D
:104B6C00079B0E9A3B4403FB0423002205920F9AE9
:104B7C001BB202EB070A08EE103A0FFA8AFA434608
:104B8C00099A0599914241D25A1CD2B25B070D92F7
:104B9C0007D1069B06990B9A01339BB212F8019030
:104BAC00069319F0800F12D0012DDBF80030BDF800
:104BBC000C101AD1012C18D10A9A9B691144059A30
:104BCC0011441E465246049B09B25846B047059EF6
:104BDC000136F3B24FEA490905935FFA89F90D9B47
:104BEC00CEE70023CDE90733A9E70598089A0244DC
:104BFC0002FB0511049ACDE90042DB6918EE102A7C
:104C0C001E4609B22B465846B047E0E7099B0137D0
:104C1C0098445FFA88F8FFB29FE711B0BDEC028BA5
:104C2C00BDE8F08F15750B00F0B5026A85B004462F
:104C3C000B46002A34D10A2908D1438A0282427ECB
:104C4C0003EBC2036382012005B0F0BD0D29FAD03D
:104C5C00E17E007E657E71B1B4F91060062111FB16
:104C6C000061B4F90C60B142C1BFB4F912102282D8
:104C7C0001EBC5026282E28A0192A28A0092CDE91E
:104C8C000205B4F91220B4F910102046FFF75EFEAD
:104C9C00237E228A03EB430302EB43032382D2E7F6
:104CAC000A2907D100230382417E927A438A01FBB1
:104CBC000233C7E70D29C6D0157AA942C3D3517A5E
:104CCC009942C0D351685D1BEDB201EBC505A878C4
:104CDC0028B3E97819B3E17E267E677E91B195F908
:104CEC0005100844B4F9101006FB0011B4F90C00BF
:104CFC00814207DD00202082B4F91210927A02FB67
:104D0C0007126282E28A0192A28A0092CDE90267BE
:104D1C00B4F91220B4F910102046FFF717FE2979C8
:104D2C00227E238A01FB0233B8E7012938BF012117
:104D3C00017641767047704710B510210446FFF795
:104D4C00A4F9204610BD000073B50446084622792C
:104D5C00A36832B1A3B90B4902B0BDE8704001F0B1
:104D6C00ABBD094A267B094D0949647B012E18BF4E
:104D7C002946CDE900140749FFF79CF902B070BD34
:104D8C00054AEFE7817A0B009A740B007D7A0B00D1
:104D9C00797A0B00977A0B00707A0B0010B5044BE4
:104DAC0003600446C06A08B101F04AFB204610BDFE
:104DBC00B0800B0010B50446FFF7F0FF20465021E1
:104DCC00FFF763F9204610BD002910B54BDBB0F995
:104DDC000C408C4247DD002A45DBB0F90E40944272
:104DEC0041DD847E022C1FD0032C26D0012C04D153
:104DFC000489D24314440A4621B2012B23D0022B3E
:104E0C0032D083BB002A13460489C06AB8BFD31DB5
:104E1C00DB1013FB041102F0070201239340425CE8
:104E2C0022EA030242541EE00489013C611A4489BF
:104E3C00D243224409B212B2DFE74489013C641A1E
:104E4C00114622B2D9E7002A04891346B8BFD31DF4
:104E5C00DB1013FB0411C36A02F00700012282402D
:104E6C00585C02435A5410BD002A13460489C06A88
:104E7C00B8BFD31DDB1013FB041102F00702012392
:104E8C0003FA02F2435C5A40CCE7000070B54022B2
:104E9C0004460E468021FFF7EFFC00250D4B2360E6
:104EAC00656202F0E3F8FF2384F8333084F836307F
:104EBC00094BA3634FF6FF720123C4E90A05A286CE
:104ECC0084F8376084F83C302564A4F844502046BC
:104EDC0070BD00BFB0800B00BC7A0B00F8B5044667
:104EEC00806A0D4690B194F9301001F081FBA06AF4
:104EFC00036800219B689847A06A036829469B6851
:104F0C009847A06ABDE8F84001F079BB94F93530B8
:104F1C00014698B202F067F8606A20B12946BDE8F4
:104F2C00F84001F0E7BD0826802794F9330005EA24
:104F3C00070180B202F057F894F93400012180B2D5
:104F4C0002F051F894F93400002180B202F04BF8D1
:104F5C00013E4FEA5707E8D1F8BD38B50446806AE0
:104F6C000D4680B1A16C01F035FB002D204614BF1D
:104F7C00A721A621FFF7B2FFA06A88B1E16CBDE8BA
:104F8C00384001F027BB606A18B104F1380101F018
:104F9C0043FD94F93600002180B202F024F8E4E7D6
:104FAC0094F93600012180B202F01DF8606A18B144
:104FBC00BDE8384001F016BD38BD2DE9F843044674
:104FCC00806A0D468F1840B394F9301001F010FB35
:104FDC00A06A036800219B6898470126AF42A06A2B
:104FEC0017D01F2E0CD901F00AFB94F93010A06ACF
:104FFC0001F0FEFAA06A036800219B68984701261D
:10500C00A06A15F8011B036801369B689847F6B235
:10501C00E4E7BDE8F84301F0F2BA94F93530014603
:10502C0098B201F0E0FFBD4222D0606A15F8019BF6
:10503C0018B1494601F05EFDF5E708264FF08008EF
:10504C0094F9330009EA080180B201F0CCFF94F91D
:10505C003400012180B201F0C6FF94F93400002124
:10506C0080B201F0C0FF013E4FEA5808E8D1DAE700
:10507C00BDE8F883B0F90A30DA1D48BF03F10E021F
:10508C00B0F90830C06AD2105A43002102F068B857
:10509C002DE9FF411E46C36A9DF8288004460F4641
:1050AC001546D3B12046FFF7E5FFB4F90A20202AB4
:1050BC0025DCB4F908102023203A73390120CDE9FE
:1050CC00013002EBD272732301EBD171009342F3E6
:1050DC004F02854B41F34F011BE0B0F90A30D81D4C
:1050EC0048BF03F10E00B4F90830C010584301F06A
:1050FC009FF9E0620028D5D104B0BDE8F0814023CF
:10510C004FF0010CCDE9013C802300930022774B3A
:10511C0011462046FFF7C6FBA06A84F831700028C0
:10512C0078D0002D74D1B4F90A30202B0CBF3C255B
:10513C003D2584F83050B8F1000F01D001F04EFA43
:10514C00FEB194F9370000281BDB012180B201F07D
:10515C0039FF94F93700012180B201F044FF01209E
:10516C0001F096F994F93700002180B201F03BFF71
:10517C000A2001F08DF994F93700012180B201F079
:10518C0032FFA06A002874D0A16C01F023FA04222B
:10519C0057492046FFF711FF61890139C9B22046F2
:1051AC00FFF79CFE534904222046FFF706FF94F9B3
:1051BC003130012B0CBF102114212046FFF78EFE3D
:1051CC0004224D492046FFF7F8FEA3684B4A934250
:1051DC005CD14B4904222046FFF7EFFED921204633
:1051EC00FFF77CFE94F93130012B0CBF2221F12109
:1051FC002046FFF773FE204642490622FFF7DDFEEC
:10520C00A06A002863D0E16C01F0E4F9012073E797
:10521C006DB28EE794F93500012180B201F0D2FE17
:10522C0094F93600012180B201F0CCFE94F93600DD
:10523C00012180B201F0D7FE656A3DB1B8F1000FD3
:10524C003FF47EAF284601F0B9FB79E794F93300BF
:10525C00012180B201F0B6FE94F93400012180B234
:10526C0001F0B0FE94F93400294680B201F0BBFE87
:10527C0066E7606A18B104F1380101F0CDFB94F9CE
:10528C003600002180B201F0AEFE80E71E4A934248
:10529C000ED11E4903222046FFF78FFE94F93130C0
:1052AC00012B0CBF9F21CF212046FFF717FE95E75E
:1052BC00174A934292D1174903222046FFF77DFEED
:1052CC0094F93130012B0CBF1021AF21ECE794F98C
:1052DC003600012180B201F086FE606A002895D06C
:1052EC0001F080FB92E700BFC87A0B00A87C0B0092
:1052FC0010810B0014810B0018810B008000200022
:10530C0022810B001C810B008000400026810B00C9
:10531C006000100029810B0070B5002ABDF81050F8
:10532C003DDBB0F90A40944239DD0029BEBF5B1861
:10533C001BB20021B0F90840CE18A642C4BF631AB4
:10534C001BB2002B2BDDC06AD61014FB06110144D6
:10535C0002F0070001228240012DD2B216D0022D9C
:10536C000BD0E5B9D243D2B20B44994217D011F805
:10537C00010B104001F8010CF7E70B4499420ED0D9
:10538C0011F8010B504001F8010CF7E70B4499425E
:10539C0005D011F8010B104301F8010CF7E770BDB3
:1053AC00F0B50029BDF8145076DBB0F90860B142B5
:1053BC0072DA002ABEBF9B181BB20022B0F90A4059
:1053CC00D718A742C4BFA31A1BB2002B64DDC2F3CB
:1053DC00C404C76A16FB041612F00702DBB207EB13
:1053EC00060423D0C2F10802D2B22D4993423CBF2D
:1053FC004FF0FF0CA2EB030E895C3CBF4CFA0EFC89
:10540C000CEA0101012D07D0022D2ED04DB917F851
:10541C0006C02CEA010103E017F806C041EA0C01B2
:10542C00B955934238D3B0F908100C449A1AD2B239
:10543C00072A0ED9022D1DD113462178C94321709C
:10544C00083BB0F90810DBB2072B0C44F5D802F07E
:10545C0007020AB3134B012D9B5C1AD0022D1CD0F2
:10546C00D5B9227822EA030315E017F806C081EAC1
:10547C000C01D5E7291E18BF01214942C9B21346B8
:10548C002170083BB0F90860DBB2072B3444F7D825
:10549C00DDE7227813432370F0BD22785340FAE7FE
:1054AC0000810B0008810B0070B41446827EBDF89D
:1054BC000C60022A0DD0032A18D0012A11D10289BE
:1054CC00E443144424B203960A46214670BCFFF709
:1054DC0067BF42890589E44319441444691A24B20C
:1054EC0009B20396224670BCFFF716BF45891944D2
:1054FC00691A09B2E7E730B41446827EBDF8085049
:10550C00022A0DD0032A18D0012A11D1E2180489DD
:10551C00A41A24B202950A46214630BCFFF7FCBE01
:10552C000289C9431144E2184489A41A09B224B26D
:10553C000295224630BCFFF733BF4289C943114460
:10554C0009B2E7E72DE9F8430446806A002842D007
:10555C00A16C01F03FF8474905222046FFF72DFDCD
:10556C00218901392046C9B2FFF7B8FCB4F90A30D9
:10557C00DE1D48BF03F10E06D4E90A052389F61097
:10558C0013FB06F615FA86F600283AD094F930107B
:10559C0001F02EF8A06A036840219B689847012708
:1055AC00B542A06A24D01F2F0CD901F028F894F929
:1055BC003010A06A01F01CF8A06A036840219B68B7
:1055CC0098470127A06A15F8011B036801379B68EF
:1055DC009847FFB2E4E7606A18B104F1380101F0B2
:1055EC001BFA94F93600002180B201F0FCFCB2E702
:1055FC0001F005F8A06A78B3E16CBDE8F84300F05F
:10560C00E9BF94F93500012180B201F0ECFCAE4207
:10561C00F0D0606A15F8019B18B1494601F06AFA9E
:10562C00F5E708274FF0800894F9330009EA0801E0
:10563C0080B201F0D8FC94F93400012180B201F061
:10564C00D2FC94F93400002180B201F0CCFC013F73
:10565C004FEA5808E8D1DAE794F93600012180B214
:10566C0001F0C1FC606A18B1BDE8F84301F0BAB9A9
:10567C00BDE8F8832C810B0013B50B4C2178BFF3DC
:10568C005B8F11F001010BD120460191FEF70AFD51
:10569C00019928B1054801F087F92046FEF707FD6E
:1056AC00024802B010BD00BF1CE6032020E6032018
:1056BC0038B50446084621730121154601F082FCD9
:1056CC00207B012101F08FFC28466573012101F03C
:1056DC0079FC607B002101F086FC204638BD00007F
:1056EC000139C9B208299ABF024B53F8210002486C
:1056FC00704700BF28820B0031810B0007B5019069
:10570C00FFF7BAFF019903B05DF804EB01F0F2B9B1
:10571C002DE9F74F07469DF830801E461546002AA6
:10572C0042D001F07E01007B41F08009002101F0A4
:10573C005AFC4846FFF7E2FF013DEDB24FF0000B7B
:10574C004FF0010A5FFA8BF4A54222D9DCB9B8F10B
:10575C00000F18D04246D3B2072B61B205D80AFA13
:10576C0002F40C43E4B20132F5E748460191FFF72D
:10577C00C5FF33780199044023EA01031C433470BC
:10578C000BF1010BDEE74846FFF7B8FF06F80B00FC
:10579C00F6E70020FFF7B2FF7055387B012103B00C
:1057AC00BDE8F04F01F01FBC03B0BDE8F08F38B579
:1057BC000C4605460021007B04F07E0401F013FC2E
:1057CC0044F08000FFF79AFF0020FFF797FF0121BC
:1057DC000446287B01F007FC204638BDF8B50F467F
:1057EC0006460021007B15461C4601F0FCFB07F029
:1057FC007E00FFF783FF2544AC4204D014F8010B64
:10580C00FFF77CFFF8E7307B0121BDE8F84001F0A1
:10581C00EABB70B504460E46007B0021154601F02C
:10582C00E2FB06F07E00FFF769FF2846FFF766FFF4
:10583C00207B0121BDE8704001F0D5BB70B5164648
:10584C0004460D46FFF7B3FF3043C2B2294620464B
:10585C00BDE87040FFF7DDBF70B5164604460D4637
:10586C00FFF7A5FF20EA0600C2B229462046BDE894
:10587C007040FFF7CEBF08221021FFF7EDBFF8B53F
:10588C00044615460F46002202211E46FFF7C1FFB3
:10589C0004220A212046FFF7BCFF80221421204657
:1058AC00FFF7CCFF2A463B4612212046FFF796FF16
:1058BC00032202212046FFF7ACFF41F288350A2172
:1058CC002046FFF774FF430705D4013DADB2002D10
:1058DC00F5D104200FE0002202212046FFF799FFAA
:1058EC0044212046FFF763FF422130702046FFF72A
:1058FC005EFF70700120F8BD10B50F220221044626
:10590C00FFF787FF322000F0C3FD02212046FFF78E
:10591C004EFFC306F9D410BD10B528210446FFF77D
:10592C0046FF00F00303032B08D040F00302D2B271
:10593C0020462821BDE81040FFF76BBF10BD10B505
:10594C000446407B01F068FB48BB607B012101F001
:10595C004AFB322000F09CFD204680225421FFF7A8
:10596C0058FF2046A9225621FFF753FF2046032259
:10597C005821FFF74EFF2046E8225A21FFF749FF36
:10598C00204640222A21FFF744FF20463D222221B7
:10599C00FFF73FFF2046BDE81040FFF7BDBF204694
:1059AC00FFF7AAFFD8E72DE9F04F89B0DDE91356D0
:1059BC00DDF8549003929DF85C209DF858B0049249
:1059CC0004468A460027B9F1000F3ED099F80080B2
:1059DC000593002202212046FFF71BFF7F2208219E
:1059EC002046FFF716FF08EB0B18802214212046E7
:1059FC00FFF724FF5FFA88F8059B9DF848201221D9
:105A0C002046FFF7EBFE42461A212046FFF701FF26
:105A1C00524602212046FFF7FCFEBAF10C0F04D1CE
:105A2C0080221A212046FFF709FF4FF4FA6808215B
:105A3C002046FFF7BCFE039B184208D1C30702D4D3
:105A4C00B8F10108F3D104204DE0C846C0E70C21A1
:105A5C002046FFF7ACFE10F0130F804646D1DDB1A7
:105A6C00D6B114212046FFF7A2FE337883420246BA
:105A7C003ED330702B4612212046CDF800B0FFF7F4
:105A8C0047FE18212046FFF792FE00F00707B9F1F8
:105A9C00000F01D089F8007018F0080F2AD15DB3FF
:105AAC0056B3049B43B33278012A03D1042F25D17A
:105ABC00092018E022D90FBB023A07ABD2B2294613
:105ACC002046FFF7DCFE01280DD133781D449DF8EC
:105ADC001C3015F8022C9A4210D115F8012C9DF8A7
:105AEC001D309A420AD109B0BDE8F08F0220FAE7C6
:105AFC000520F8E70320F6E70120F4E70820F2E799
:105B0C0010B586B09DF82C4005949DF8284004945F
:105B1C00099C0394089C0092CDE9013430220B4679
:105B2C000C21FFF740FF06B010BD70B588B00646DB
:105B3C001C468DF8171015461AB31B78012B20D96B
:105B4C0080221C21FFF788FE07238DF81F300023CD
:105B5C00CDE902330DF11F03CDE9004301222B46A1
:105B6C000DF117013046FFF7CBFF012807D1237841
:105B7C00022B08D19DF81F30002B18BF022008B053
:105B8C0070BD0520FBE70220F9E713460A462621E3
:105B9C00FFF7CBBF07B502230DF1030201A98DF866
:105BAC000330FFF7F2FF00F0FD00431E584258414E
:105BBC0003B05DF804FB70B586B050238DF814303B
:105BCC0000240DF11603022205A906468DF8154096
:105BDC00FFF755FE012805460FD1CDE90244CDE96A
:105BEC0000442346042205A93046FFF789FF042808
:105BFC0003D0012814BF05460225284606B070BD07
:105C0C007FB506461D461446CAB11B78112B16D912
:105C1C00302313705170931C21460222FFF72FFE84
:105C2C0001280AD10023CDE90133039000952346C6
:105C3C00042221463046FFF763FF04B070BD0520F7
:105C4C00FBE710B58AB00C9C8DF81D201A689B8858
:105C5C00ADF8223063788DF82430A3788DF8253098
:105C6C00E3788DF8263023798DF827300023CDE9A1
:105C7C000433CDE9023301930C238DF81C10CDF8BD
:105C8C001E200093102207AB0E21FFF78CFE0AB0EA
:105C9C0010BD2DE9F0418CB007AE1546804630465C
:105CAC001F4601F04FFA73192A4631464046FFF75A
:105CBC00E6FD012804462AD112238DF81A30002360
:105CCC00CDE904338DF81B3002350DF11B03039322
:105CDC00EDB20DF11A03CDE9016300953346302284
:105CEC000C214046FFF75FFE0FB104280FD00128AE
:105CFC0011D19DF81A40012C0FD19DF81B30042BAB
:105D0C000BD19DF81C300A2B0CBF044609242046ED
:105D1C000CB0BDE8F0810446F9E70224F7E710B4B3
:105D2C0029B1102A03D85DF8044BFFF7B2BF072046
:105D3C005DF8044B704773B506461D461446AAB170
:105D4C000F2B13D9A0238DF804308DF805100023E8
:105D5C00022201A9FFF79DFF012805D100232A4645
:105D6C0021463046FFF7DBFF02B070BD0720FBE792
:105D7C002DE9F04F502A8BB082460F46904600F228
:105D8C00408180221C21FFF767FD93238DF81C3086
:105D9C00B8F1000F00F0BC803C78042C94BF0023B9
:105DAC000123012500260BE095238DF81C30B8F15A
:105DBC00000F00F0AF803C78072C94BF0023012328
:105DCC00A8EBC60464B224EAE474002B00F0A480AF
:105DDC0088228DF81E20032114F0070218BF01221F
:105DEC0002EBE40212F0FF02E0B21DD0002B14BF54
:105DFC004FF003094FF0040906F1010C914594BFD3
:105E0C0001EB090E01EB020E57FA8CFC5FFA8EFEC9
:105E1C000A460DF1280B0131C9B25A441CF8019BFA
:105E2C0002F80C9C7145F3D10BB1083044B21F2C15
:105E3C0074DD4FF070039DF81F208DF81D309DF818
:105E4C001E3053409DF8202053409DF82120534094
:105E5C008DF8223007220DF1230307A95046FFF7D6
:105E6C000EFD0128814640F0C88000238DF81A30C1
:105E7C0003238DF81B3004940DF1220B4FF009090C
:105E8C009DF81A30059303EB0312D2B21A21504637
:105E9C00FFF7BFFC059B02930DF11A03002201933F
:105EAC000DF11B03039200934A465B4607A950462B
:105EBC00FFF726FE032881464CD11C215046FFF7E4
:105ECC0076FC810600F1998010F01F0008BF20209D
:105EDC00A04240F38780431E03F0070244B213F044
:105EEC0007034FEAD00018BF0123013018440AAB56
:105EFC001844012303FA02F210F80C3C134300F887
:105F0C000C3C94E797238DF81C300626234657E764
:105F1C00434646E7434653E702215DE7E31002336D
:105F2C00DBB204F0070214F007098DF81A2002EB1B
:105F3C0003128DF81D2018BF4FF0010907AA9944D0
:105F4C0002EB030BC3F109035FFA89F98DF81B30DF
:105F5C00049495E7012850D1049B1F2B4FF020048B
:105F6C007FF767AF9DF81E30882B3ED103231A466E
:105F7C0001361A4457FA86F6D2B219460AA80133EA
:105F8C000144DBB211F80C1C06F8011B9342F4D14E
:105F9C009DF81B60032E37D19DF81A40A4BB0DF160
:105FAC001E03012259465046FFF769FC0128814621
:105FBC0023D19DF81E209BF801309A4227D19DF8E1
:105FCC001F209BF802309A4221D19BF800305A07CF
:105FDC000ED50135EDB2032D94D0042D02D0022D37
:105FEC003FF4E2AE4FF0060907E002230422BFE7BC
:105FFC0005EB45050135FB723D7048460BB0BDE81D
:10600C00F08F4FF00709F8E74FF00209F5E74FF072
:10601C000809F2E708B501460022FFF7A9FE431E66
:10602C005842584108BD000008B5024B1B685B6C18
:10603C00019308BD4802030008B5024B1B685B685E
:10604C00019308BD1802030008B5024B1B68DB68FE
:10605C00019308BD1802030008B5024B1B685B696D
:10606C00019308BD1802030008B5024B1B689B681E
:10607C00019308BD2C02030008B5024B1B68DB68BA
:10608C00019308BD2C02030008B5024B1B681B6969
:10609C00019308BD2C02030008B5024B1B685B6919
:1060AC00019308BD2C02030008B5024B1B681B684A
:1060BC00019308BD2802030008B5024B1B68DB687E
:1060CC00019308BD2802030008B5024B1B689B69AD
:1060DC00019308BD2802030008B5024B1B68DB695D
:1060EC00019308BD2802030008B5024B1B681B6A0C
:1060FC00019308BD2802030008B5024B1B685B6ABC
:10610C00019308BD2802030008B5024B1B689B6A6B
:10611C00019308BD2802030008B5024B1B68DB6A1B
:10612C00019308BD2802030008B5024B1B681B6BCA
:10613C00019308BD2802030008B5024B1B685B6B7A
:10614C00019308BD2802030008B5024B1B681B6CA9
:10615C00019308BD2802030008B5024B1B685B695C
:10616C00019308BD6402030008B5024B1B689B68D1
:10617C00019308BD6802030008B5024B1B68DB687D
:10618C00019308BD6802030008B5024B1B681B682D
:10619C00019308BD3002030008B5024B1B685B6914
:1061AC00019308BD3002030008B5024B1B68DB6984
:1061BC00019308BD3002030008B5024B1B681B6A33
:1061CC00019308BD3002030008B5024B1B685B6AE3
:1061DC00019308BD3002030008B5024B1B68DB6B52
:1061EC00019308BD3002030008B5024B1B681B6C01
:1061FC00019308BD3002030008B5024B1B685B6CB1
:10620C00019308BD3002030008B5024B1B68DB6824
:10621C00019308BD3C02030008B5024B1B681B69C7
:10622C00019308BD3C02030008B5024B1B685B6977
:10623C00019308BD3C02030008B5024B1B689B6927
:10624C00019308BD3C02030008B5024B1B68DB69D7
:10625C00019308BD3C02030008B5024B1B681B6A86
:10626C00019308BD3C02030008B5024B1B689B6AF6
:10627C00019308BD3C02030008B5024B1B681B6C64
:10628C00019308BD3C02030008B5024B1B681B6858
:10629C00019308BD4C02030008B5024B1B685B68F8
:1062AC00019308BD4C02030008B5024B1B681B6927
:1062BC00019308BD4C02030008B5024B1B685B69D7
:1062CC00019308BD4C02030008B5024B1B689B6987
:1062DC00019308BD4C02030008B5024B1B68DB6937
:1062EC00019308BD4C02030008B5024B1B681B6AE6
:1062FC00019308BD4C02030008B5024B1B685B6B95
:10630C00019308BD6002030008B5024B1B685B6873
:10631C00019308BD2002030008B5024B1B685B69A2
:10632C00019308BD2002030008B5034B1B68D3F88A
:10633C008830019308BD00002002030008B5034B10
:10634C001B68D3F89430019308BD000020020300B1
:10635C0008B5024B1B68DB6B019308BD44020300BC
:10636C0008B5024B1B685B6C019308BD440203002B
:10637C0008B5024B1B685B68019308BD4002030023
:10638C0008B5024B1B689B68019308BD40020300D3
:10639C0008B5024B1B68DB68019308BD4002030083
:1063AC0008B5024B1B681B69019308BD4002030032
:1063BC0008B5024B1B685B69019308BD40020300E2
:1063CC0008B5024B1B689B69019308BD4002030092
:1063DC0008B5024B1B68DB69019308BD4002030042
:1063EC0008B5024B1B681B6A019308BD40020300F1
:1063FC0008B5024B1B681B6B019308BD40020300E0
:10640C0008B5024B1B685B6B019308BD400203008F
:10641C0008B5024B1B681B6C019308BD40020300BE
:10642C0008B5024B1B685B6C019308BD400203006E
:10643C0008B5024B1B681B68019308BD1C020300C6
:10644C0008B5024B1B685B68019308BD1C02030076
:10645C0008B5024B1B689B68019308BD1C02030026
:10646C0008B5024B1B685B6A019308BD1C02030054
:10647C0008B5024B1B681B6C019308BD1C02030082
:10648C0008B5024B1B685B6C019308BD1C02030032
:10649C000021FFF741BF0000024800230360FFF713
:1064AC00C3BD00BFC4E603201FB50C23ADF80430F8
:1064BC0003688DF80630037A8DF807304368029331
:1064CC000021437AADF80D1001A88DF80F108DF84E
:1064DC000C30FFF745FF05B05DF804FB0022406867
:1064EC001146FFF77DBF002240681146FFF788BFB9
:1064FC0040680022FFF77CBF4068002281F0010158
:10650C00FFF766BF002340681A461946FFF758BFCD
:10651C00002340681A461946FFF74ABF002240681C
:10652C001146FFF73DBF002240681146FFF728BF18
:10653C00406800220221FFF72BBF002340681A4657
:10654C00FFF716BF024B03225A60024A1A607047CB
:10655C00C8E6032054820B007047F8B50646154672
:10656C000C468F18BC4206D0336814F8011B9B688C
:10657C0030469847F6E72846F8BD007C0022FFF726
:10658C00B3BD007C0021FFF7B7BD007C0021FFF7F5
:10659C00BBBD007C0021FFF7BFBD007C0021FFF7D5
:1065AC00C3BD10B514210446FDF76FFD204610BD88
:1065BC0010B54FF47A73044608460021C4E9011360
:1065CC00034B236020741146FFF7BEFD204610BD1F
:1065DC0090820B00007C0022FFF766BD0023007C3C
:1065EC001A461946FFF768BD007C0022FFF76CBD08
:1065FC00C9B2FFF7F9BF007C0022FFF76DBD012186
:10660C00FFF7F9BF704710B518210446FDF73DFDA3
:10661C00204610BDF0B5037D062B8DB00E4600F163
:10662C0004074FF0000412D000F1080515F8011D05
:10663C000A22304600F05DF9AF42044419D0002C18
:10664C00F4D02E21304600F03BF90444EEE72F2322
:10665C006A4639460A208DF80040FFF77DFD6846F2
:10666C0000F0B4FD33680246DB6869463046984753
:10667C00044620460DB0F0BD10B5054B0446112262
:10668C0040F8043B002100F06BFD204610BD00BF1C
:10669C00B8820B000346074A10B543F8042B01F1EE
:1066AC00100251F8044B43F8044B9142F9D10A788B
:1066BC001A7010BDB8820B0010B59DF8084044EA62
:1066CC00032343EA024242EA016104234160037559
:1066DC0010BD000007B5064B0360CB7800938B7898
:1066EC004A780978FFF7E8FF03B05DF804FB00BFB8
:1066FC00B8820B00014B024A1A607047D0E60320A7
:10670C00C4820B00002340681A46FFF731BE406874
:10671C0000220221FFF73CBE002240681146FFF721
:10672C002FBE002240681146FFF73ABE0023406896
:10673C001A461946FFF73CBE002340681A46194614
:10674C00FFF73EBE40680021FFF762BE40680021A3
:10675C00FFF766BE4068002281F00101FFF738BEEA
:10676C0040680022FFF744BE002240681146FFF744
:10677C0047BE002240681146FFF732BE2DE9F043B8
:10678C0095B014460D460746FFF776FF00211C22F4
:10679C000DA8009100F0E4FC40230C9320466B46BE
:1067AC000CAA0021FFF7E8FC044600284BD1024656
:1067BC0001216868FFF7F4FD0221804622466868D3
:1067CC00FFF7EEFD009E81462146002E3BD00029AE
:1067DC0039D17368022B03D00A2B11D0F669F4E778
:1067EC00B8F1000FFAD0716906A8043107ADFFF7B4
:1067FC0071FF0FCD3C1D0FC42B6823704146EDE794
:10680C00B9F1000FEAD07469102201A800F0A8FCBD
:10681C0006238DF8143001AD04F108031834186800
:10682C0059682A4603C20833A3421546F7D101A979
:10683C0006A807ADFFF72EFF0FCD3C1D0FC42B682C
:10684C0023704946CAE70098FFF78EFC384615B00E
:10685C00BDE8F083024B034A1A6000225A6070476D
:10686C00D4E60320D0820B00F8B506460D468F18EF
:10687C000024BD420CD0336815F8011B9B683046D0
:10688C009847031E01DB1C44F3E7002C08BF1C4691
:10689C002046F8BD13B50446084659B1019100F0E5
:1068AC0095FC23680199DB680246204602B0BDE8DE
:1068BC001040184702B010BD08B5FFF7EBFF08BD3C
:1068CC0003689B68184738B50D210546FFF7F8FF9C
:1068DC000A2104462846FFF7F3FF204438BD38B59B
:1068EC000546FFF7D7FF04462846FFF7ECFF204488
:1068FC0038BD30B58BB00023012A8DF8243098BFF9
:10690C000A2209AC0D46B1FBF2F101FB125303F064
:10691C00FF03092B94BF30333733DBB2AA4204F8A0
:10692C00013DEFD92146FFF7B5FF0BB030BD2DE986
:10693C00F04186B000AF05460E46381D14211446B2
:10694C003B60FFF78DFD13280ED8391D2846FFF745
:10695C00A1FF04461EB12846FFF7B5FF04442046AC
:10696C001837BD46BDE8F08100F1080323F007039A
:10697C00E846ADEB030D2246411C3B686846FFF729
:10698C006FFD69462846FFF785FF0446C546E1E7DB
:10699C00014B00229A607047DCE603200021FFF7D0
:1069AC002BBC0021FFF720BC10B504460846217013
:1069BC00FFF7FAFB00236360204610BD13B50446B5
:1069CC000078FFF7EEFF58B9207801904FF6FF7171
:1069DC00FFF7DAFB019802B0BDE81040FFF7DEBF0D
:1069EC0002B010BD0078FFF7D9BF0000400830B5E9
:1069FC001860002418688842E5B206D90134082CC6
:106A0C0002D040081860F5E70725024B5B5D137058
:106A1C0030BD00BF04830B002DE9F04306468FB058
:106A2C0000780C46FFF7BDFF00281BDB35781422DD
:106A3C00002109A800F094FB0B23002209A9284689
:106A4C00ADF82430FFF7C0FB9DF82D3013B19DF845
:106A5C002C5055B10027B946B846012523795DB1B4
:106A6C00C3B100200FB0BDE8F083DDF830809DF895
:106A7C0034909DF83570F1E7002B35D1A368434570
:106A8C0008D18DF820908DF82170BDF82020A389B5
:106A9C009A42E6D00023A1688DF80F300A9804AB17
:106AAC000DF10F02FFF7A2FF217985B989B9A3680F
:106ABC0043450ED38DF820908DF82170BDF8202021
:106ACC00A3899A4205D1049B434502D1C9E7002909
:106ADC00F9D100230193637B00939DF80F20237B56
:106AEC003078FFF779FBBCE7CDE900552B462A46F9
:106AFC000121F5E708B50078FFF74EFBC0B208BDE1
:106B0C0010B50446006808B1FFF79AFC0023C4E9ED
:106B1C000133236010BD38B504460D4600680131C1
:106B2C00FFF796FC10B1C4E90005012038BD10B583
:106B3C000368044623B143688B4201D3012010BD86
:106B4C002046FFF7E8FF0028F9D0A368002BF5D109
:106B5C0022681370F2E737B50D46114601920446D0
:106B6C00FFF7E5FF019A28B92046FFF7C9FF204639
:106B7C0003B030BDA2602946206800F0E3FA226819
:106B8C00A3680021D154F2E7002313B5C0E9003308
:106B9C0004468360037341B10846019100F016FB73
:106BAC00019902462046FFF7D6FF204602B010BDE1
:106BBC00054B02221A60054B054A9A600020C3E976
:106BCC000000FFF7A1BB00BFF8E60320ECE60320B2
:106BDC000000FFFF024B1A68024B1A60704700BF9F
:106BEC00B0E50320FCE6032070474174704708B5FC
:106BFC00007CFFF739FB20EAE07008BD08B5007C8B
:106C0C00FFF70AFB20EAE07008BD08B5007CFFF72F
:106C1C0013FB40EAE07008BD08B5007CFFF704FBED
:106C2C0040EAE07008BD007CFFF70EBB37B5457C31
:106C3C0004462DB1207C03B0BDE83040FFF7E4BA28
:106C4C00007C0191FFF710FB00280199F2DC28462B
:106C5C0003B030BD10B514210446FDF716FA2046DA
:106C6C0010BD000010B54FF47A7304460846114667
:106C7C000022C4E90123044B2360012320746374B4
:106C8C00FFF7FAFA204610BD30830B0041747047B1
:106C9C007047704708B50021007CFFF715FB40EAF0
:106CAC00E07008BD08B50121007CFFF70DFB40EA40
:106CBC00E07008BD08B5007CFFF7FEFA20EAE07032
:106CCC0008BD08B5007CFFF7EFFA20EAE07008BDBC
:106CDC0013B50446007C0191FFF7EEFA00280199E8
:106CEC0001DC607C20B1207CFFF7F6FA20EAE07032
:106CFC0002B010BD007CFFF7F7BA10B514210446A2
:106D0C00FDF7C3F9204610BD10B54FF47A73044655
:106D1C0008460021C4E90113044B236001232074AD
:106D2C0063741146FFF7B0FA204610BD60830B0068
:106D3C00007C0022FFF7B0BA10B5142204460021E3
:106D4C0000F00EFA204610BD10B50F4C88B003A809
:106D5C00FFF7F2FF2178BFF35B8F11F001010FD128
:106D6C0020460191FDF79EF9019948B103AA074805
:106D7C00FFF7CAFF2046FDF79AF9054800F0DCF949
:106D8C00024808B010BD00BF00E7032004E7032051
:106D9C009D6C0B00002240681146FFF701BB0022DE
:106DAC0040681146FFF71CBB002240681146FFF7F4
:106DBC0027BB40680022FFF71BBB4068002281F014
:106DCC000101FFF705BB002340681A461946FFF77F
:106DDC00F7BA002340681A461946FFF7E9BA0022B1
:106DEC0040681146FFF7CCBA406800220221FFF739
:106DFC00CFBA002340681A46FFF7BABA024B0422F6
:106E0C005A60024A1A60704718E7032090830B00FF
:106E1C00014B1860704700BFB4E5032008B50B4B5D
:106E2C0043B1FFF791FF03681B699847002801DD08
:106E3C00AFF30080064B43B100F058F903681B69AF
:106E4C009847002801DDAFF3008008BD000000006A
:106E5C000000000008B5FFF7E1FFFFF7FDF8014B5C
:106E6C00186008BD28E703200548064A064908B5FE
:106E7C00121A00F067F9054B054A1A6008BD00BFED
:106E8C0000F4032004F40320C0840B0000F403205E
:106E9C001E1C279A07B5002300931A466FF0770142
:106EAC00FFF74CFA03B05DF804FB000007B543880C
:106EBC000A2B08D0502B0BD1094B1B684BB103B0DC
:106ECC005DF804EB1847FFF7E5FF03B05DF804FB32
:106EDC00002300931A466FF07701FFF72FFAF4E7BF
:106EEC0024E7032010B512480021FFF7C9FA114B13
:106EFC001A68114B9A42114B0CBF012200221A70D6
:106F0C0001D0FFF7B1FFFFF797F8044600F030F916
:106F1C000B4B13B12046AFF3008000210848FFF75C
:106F2C0017FABDE8104007480021FFF7FDB900BF74
:106F3C001D6E0B0000F403201E1C279A20E7032073
:106F4C0000000000B96E0B00232813B502D90020F5
:106F5C0002B010BDA0F10B03022B1AD8174C2178EC
:106F6C00BFF35B8F11F001010BD120460191FDF7AE
:106F7C0099F8019928B11248FFF716FD2046FDF744
:106F8C0096F80F4B1878FFF717F90028DFD101207E
:106F9C00DEE7012809D800F069F80021007CFFF732
:106FAC00CBF880F00100C0B2D2E709380128EED846
:106FBC0000F09CF8007CFFF74FF9F2E71CE6032089
:106FCC0020E60320232838B504460D460AD8FF29AD
:106FDC0008D0FFF7B9FF28B129462046BDE8384054
:106FEC00FFF742B838BD38B504460D46FFF744F8F4
:106FFC00FF2810D0062804D84D2323FA00F0C3072D
:10700C0009D42046FFF7A0FF28B129462046BDE849
:10701C003840FFF739B838BD10B50446FFF72CF8E7
:10702C00031FDBB2012B08D92046FFF78DFF20B1DF
:10703C002046BDE81040FFF72FB8002010BD704768
:10704C0038B5202514230446036085600561064984
:10705C00284600F06FF804496060284600F06AF892
:10706C00E060204638BD00BFC4830B0030B50E4D28
:10707C002978BFF35B8F11F0010487B011D128463A
:10708C00FDF710F868B101A8FFF7DAFF01AA214655
:10709C000648FFF78DFA2846FDF709F8044800F07A
:1070AC004BF8024807B030BD2CE7032030E7032033
:1070BC004B700B007047000038B5044614252A4667
:1070CC00002100F04DF825804025074925812846F0
:1070DC00258200F02FF804496060284600F02AF859
:1070EC00E060204638BD00BFC4830B0030B50E4DA8
:1070FC002978BFF35B8F11F0010487B011D12846BA
:10710C00FCF7D0FF68B101A8FFF7D6FF01AA214612
:10711C000648FFF7A7FD2846FCF7C9FF044800F016
:10712C000BF8024807B030BD44E7032048E70320C2
:10713C00C1700B00FCF7A7BF002301461A46184686
:10714C0000F0A8B80A44914200F1FF3300D1704717
:10715C0010B511F8014B03F8014F9142F9D110BD54
:10716C0002440346934200D1704703F8011BF9E730
:10717C0038B5104B1D68AB6B0446B3B91820FFF73C
:10718C0057F90246A86320B90B4B0C484221FFF774
:10719C006FF90B490B4BC0E900130B4B83600B23AE
:1071AC00838100210120C2E90401AB6B00221C6128
:1071BC005A6138BDB4E50320C5830B00DC830B009A
:1071CC000E33CDAB34126DE6ECDE0500034613F83E
:1071DC00012B002AFBD1181A01387047164B73B5D6
:1071EC001E68B46D0546FCB950200191FFF720F9DB
:1071FC000199B065024620B9104B11485721FFF791
:10720C0037F9C0E90044C0E90244C0E90444C0E9CC
:10721C000A44C0E90C44C0E90E44C0E91044C0E97A
:10722C001244846104774462B26D0123284602B093
:10723C00BDE8704000F006B8B4E50320C5830B0030
:10724C0035840B00F0B508B9106888B104462046A7
:10725C0014F8015B0F4617F8016B1EB965B9156080
:10726C00284605E0B542F6D1002BF0D1146003702E
:10727C00F0BD1C460CE015B914F8013B0E4616F88F
:10728C00015BAB42F7D1002BF3D0002304F8013C97
:10729C001460EDE72DE9F843DFF8B8800646D8F81E
:1072AC0000001F460D46914600F056F8254B1C6811
:1072BC0034B9254C1C60254B13B11B68C4F88830BD
:1072CC0063681F2B07DDD8F8000000F047F84FF07B
:1072DC00FF30BDE8F8834EB3D4F8880088B91C4B56
:1072EC0023B9D8F8000000F038F8F0E74FF48470B8
:1072FC00FFF79EF80028F4D00023C0E94033C4F80F
:10730C008800636840F8239001229A4000EB8301C7
:10731C00D0F800311343C0F80031022EC1F8807050
:10732C0002BFD0F804311343C0F804316368D8F8B5
:10733C0000005A1C0233626044F8235000F00EF82F
:10734C000020C6E7E8E703205CE70320000000000C
:10735C003D640B0018E6032070477047704700002F
:10736C001D400B0059400B0081400B0085400B0069
:10737C00000000004D49464152455F5772697465E3
:10738C002829206661696C65643A20004D494641A4
:10739C0052455F526561642829206661696C656499
:1073AC003A20005043445F41757468656E7469639C
:1073BC006174652829206661696C65643A20005403
:1073CC006167496E666F3A20257300413000413287
:1073DC0000413400443200443400443600436F6EA4
:1073EC00656374617220616C2070756572746F20B6
:1073FC0041300A00436F6E656374617220616C20CA
:10740C0070756572746F2041320A00436F6E65634C
:10741C0074617220616C2070756572746F204134D8
:10742C000A00436F6E656374617220616C20707525
:10743C006572746F2044320A00436F6E6563746129
:10744C007220616C2070756572746F2044340A0070
:10745C00436F6E656374617220616C207075657228
:10746C00746F2044360A004572726F723A204E6F68
:10747C0020686179206D61732070756572746F730B
:10748C0020646973706F6E69626C6573200A0045C5
:10749C00732053656E736F7200457320416374756E
:1074AC0061646F7200457320416E616C6F67696334
:1074BC006F004573204469676974616C000A5365F9
:1074CC006E736F72657320636F6E65637461646F46
:1074DC00733A2025640050756572746F3A202573D9
:1074EC00000A53656E736F72537461746520303A81
:1074FC00202564000A53656E736F72537461746552
:10750C0020313A202564002D0000000000003E5B75
:10751C004F5B3E3E6B4F6B3E1C3E7C3E1C183C7ED4
:10752C003C181C577D571C1C5E7F5E1C00183C18B9
:10753C0000FFE7C3E7FF0018241800FFE7DBE7FFB5
:10754C0030483A060E2629792926407F0505074042
:10755C007F05253F5A3CE73C5A7F3E1C1C08081C03
:10756C001C3E7F14227F22145F5F005F5F06097F41
:10757C00017F006689956A606060606094A2FFA2DA
:10758C009408047E040810207E201008082A1C0889
:10759C00081C2A08081E101010100C1E0C1E0C3093
:1075AC00383E3830060E3E0E06000000000000008B
:1075BC005F00000007000700147F147F14242A7F4B
:1075CC002A12231308646236495620500008070318
:1075DC0000001C2241000041221C002A1C7F1C2A96
:1075EC0008083E08080080703000080808080800E9
:1075FC000060600020100804023E5149453E0042E4
:10760C007F400072494949462141494D33181412B3
:10761C007F1027454545393C4A49493141211109DB
:10762C00073649494936464949291E0000140000CD
:10763C0000403400000008142241141414141400E7
:10764C004122140802015909063E415D594E7C1233
:10765C0011127C7F494949363E414141227F4141CB
:10766C00413E7F494949417F090909013E41415148
:10767C00737F0808087F00417F41002040413F0193
:10768C007F081422417F404040407F021C027F7FD4
:10769C000408107F3E4141413E7F090909063E41E5
:1076AC0051215E7F09192946264949493203017F38
:1076BC0001033F4040403F1F2040201F3F403840C7
:1076CC003F631408146303047804036159494D4360
:1076DC00007F4141410204081020004141417F04D8
:1076EC0002010204404040404000030708002054BF
:1076FC005478407F2844443838444444283844441F
:10770C00287F385454541800087E090218A4A49CED
:10771C00787F0804047800447D40002040403D0000
:10772C007F1028440000417F40007C047804787C62
:10773C00080404783844444438FC182424181824C9
:10774C002418FC7C08040408485454542404043FB2
:10775C0044243C4040207C1C2040201C3C403040B9
:10776C003C44281028444C9090907C4464544C44E5
:10777C000008364100000077000000413608000286
:10778C00010204023C2623263C1EA1A161123A40B0
:10779C0040207A3854545559215555794122545426
:1077AC007842215554784020545579400C1E527221
:1077BC0012395555555939545454593955545458FE
:1077CC000000457C410002457D420001457C407D26
:1077DC001211127DF0282528F07C545545002054B8
:1077EC00547C547C0A097F4932494949323A444411
:1077FC00443A324A4848303A4141217A3A42402090
:10780C0078009DA0A07D3D4242423D3D4040403D20
:10781C003C24FF2424487E4943662B2FFC2F2BFF4E
:10782C000929F620C0887E090320545479410000B0
:10783C00447D413048484A32384040227A007A0A26
:10784C000A727D0D19317D2629292F2826292929EF
:10785C002630484D40203808080808080808083821
:10786C002F10C8ACBA2F102834FA00007B00000887
:10787C00142A142222142A14085500550055AA550E
:10788C00AA55AAFF55FF55FF000000FF001010106D
:10789C00FF00141414FF001010FF00FF1010F01064
:1078AC00F0141414FC001414F700FF0000FF00FF88
:1078BC001414F404FC141417101F10101F101F14B0
:1078CC0014141F00101010F0000000001F101010F6
:1078DC00101F10101010F010000000FF10101010EE
:1078EC001010101010FF10000000FF140000FF001B
:1078FC00FF00001F10170000FC04F41414171017DD
:10790C001414F404F40000FF00F7141414141414E9
:10791C0014F700F7141414171410101F101F14145C
:10792C0014F4141010F010F000001F101F000000D1
:10793C001F14000000FC140000F010F01010FF10D9
:10794C00FF141414FF141010101F00000000F0108E
:10795C00FFFFFFFFFFF0F0F0F0F0FFFFFF00000073
:10796C000000FFFF0F0F0F0F0F3844443844FC4A40
:10797C004A4A347E02020606027E027E02635549A2
:10798C0041633844443C04407E201E2006027E02A3
:10799C000299A5E7A5991C2A492A1C4C7201724C24
:1079AC00304A4D4D303048784830BC625A463D3EE6
:1079BC00494949007E0101017E2A2A2A2A2A444487
:1079CC005F444440514A444040444A51400000FF07
:1079DC000103E080FF000008086B6B0836123624A8
:1079EC0036060F090F0600001818000000101000D2
:1079FC003040FF0101001F01011E00191D1712006C
:107A0C003C3C3C3C0000000000000000000000007A
:107A1C00000000000000000000000000354C0B00CE
:107A2C0075680B009D400B003B460B003D460B0060
:107A3C006F460B004B460B005D460B007D450B0063
:107A4C003B460B0067480B0065480B0087460B0054
:107A5C00C5460B00FF460B0045470B0061470B006A
:107A6C00E5470B0064656661756C7420004D5342EC
:107A7C00004C5342003C53504953657474696E6713
:107A8C00732064656661756C743E003C53504953B9
:107A9C00657474696E6773202573257520257320B2
:107AAC004D4F444525753E000000000000000000CD
:107ABC00554D0B00434D0B00454D0B000000600075
:107ACC0000000000000000000000000000E00000CA
:107ADC00000000000000000000000001E0000000B9
:107AEC000000000000000000000001F00000000099
:107AFC0000000000000000000003F0000000000087
:107B0C00000000000000000007F000000000000072
:107B1C000000000000000007F8000000000000005A
:107B2C000000000000000FF800000003C0007E0001
:107B3C000001E0007F0FF800000003C000FE000011
:107B4C0001E000FFEFF800000003C000FE000001A0
:107B5C00E000FFFFF800000003C000F00000000F81
:107B6C00007FFE7FC0000003C000F00000000F008B
:107B7C003FFE7FF83FF1FBCFFCFEF3BC3DEFE01F77
:107B8C00FE7FFF7FFBFFDFFEFEFFBC3DEFE01FC66D
:107B9C00FFFF7FFBFFDFFEFEFFBC3DEFE00FE3C707
:107BAC00FE787BC3DE1EF0FFBC3DEF0007FF87FCB9
:107BBC00787BC3DE1EF0F83C3DEF0001FFFFF000C8
:107BCC007BC3C01EF0F03C3DEF0001F37FE03FFBB8
:107BDC00C3CFFEF0F03C3DEF0003E33F807FFBC3DF
:107BEC00DFFEF0F03C3DEF0007E73C00787BC3DEA6
:107BFC001EF0F03C3DEF0007FFBE00787BC3DE1E9D
:107C0C00F0F03C3DEF0007FFFE00787BC3DE1EF07A
:107C1C00F03C3DEF000FFFFE007FFBFFDFFEF0F0BE
:107C2C003FFDEFE00FFFFF007FFBFFDFFEF0F03FBB
:107C3C00FDEFE00FF9FF003E79F9CF9EF0F01F3D0C
:107C4C00E7E01FF1FF000000000000000000000052
:107C5C00001F80FF007FFFFFFFFFFFFFFFFFFFE024
:107C6C001C007F007FFFFFFFFEB46D888D18E000C5
:107C7C00001F007FFFFFFFFE95AD7DB577E0000094
:107C8C000F007FFFFFFFFEA5AD9D8D19E0000006E4
:107C9C00007FFFFFFFFEB5ADEDB57EE0FFFFFFFF00
:107CAC00FFFFFFFFFFFFFFFFFFFFFFFFFFFFFFFFD8
:107CBC00FFFFFFFFFFFFFFFFFFFFFFFFFFFFFFFFC8
:107CCC00FFFFF8FFFFFFFFFFFFFFFFFFFFFFFFFFBF
:107CDC00FFFFC07FFFFFFFFFFFFFFFFFFFFFFFFF67
:107CEC00FFFE007FFFFFFFFFFFFFFFFFFFFFFFFF18
:107CFC00FFFE007FFFFFFFFFFFFFFFFFFFFFFFFF08
:107D0C00FFFE003FFFFFFFFFFFFFFFFFFFFFFFFF37
:107D1C00FFFE003FFFFFFFFFFFFFFFFFFFFFFFFF27
:107D2C00FC3F003FFFFFFFFFFFFFFFFFFFFFFFFFD9
:107D3C00FC0F001FFFFFFFFFFFFFFFFFFFFFFFFF19
:107D4C00FC07001FFFFFFFFFFFFFFFFFFFFFFFFF11
:107D5C00F807003FFFFFFFFFFFFFFFFFFFFFFFFFE5
:107D6C00F80783FFFFFFFFFFFFFFFFFFFFFFFFFF92
:107D7C00F00FCFFFFFFFFFFFFFFFFFFFFFFFFFFF36
:107D8C00F80FFFFFFFFFFFFFFFFFFFFFFFFFFFFFEE
:107D9C00FE0FFFFFFFFFFFFFFFFFFFFFFFFFFFFFD8
:107DAC00FF9FFFFFFFFFFFFFFFFFFFFFFFFFFFFF37
:107DBC00FFFFFFFFFFFFFFFFFFFFFFFFFFFFFFFFC7
:107DCC00FFFC1FFFFFFFFFFFFFFFFFFFFFFFC07F59
:107DDC00FFFC0DFFE03FEF03FFC07FFFFFFE003F06
:107DEC00F3F809FF8007E401FF001FFFFFFC3F1FB2
:107DFC00F3F809FF1FC3E0F8FC3F87FFFFF8FFFF14
:107E0C00F3F809FE3FF1E1FCF8FFE3FFFFF1FFFFA0
:107E1C00F3F819FC7FF8E3FFF1FFE3FFFFE3FFFF4B
:107E2C00F3FF19F8FFFCE7FFE3FFC7FFFFE7FFFFD6
:107E3C00F3FFF9F1FFFEE7FFE7FF8FFFFFC7FFFF3F
:107E4C00F3E7F9F3FFFFE7FFE7FF1FFFFFCFFFFFAC
:107E5C00F3C3F9F3FFFFE7FFC7FE3FFFFFCFFFFFC1
:107E6C00F381F9F3FFFFE7FFCFFC7FFFFFC00000BA
:107E7C00F300F9E3FFFFE7FFCFF8FFFFFFC00000BF
:107E8C00720079E3FFFFE7FFCFF1FFFFFFFE000079
:107E9C00720079E3FFFFE7FFCFE3FFFFFFFFFFFC7B
:107EAC00F300F9F3FFFFE7FFC7C7FFFFFFFFFFFC7E
:107EBC00F381F9F3FFFFE7FFC78FFFFFFFFFFFF829
:107ECC00F3C3F9F1FFFFE7FFE71FFFFFFFFFFFF928
:107EDC00F1E7F1F9FFFCE7FFE23FFBFFFFFFFFF1EA
:107EEC00F8FFF1F8FFFCE7FFF07FF3FFFFFFFFE384
:107EFC00FCFFE1FC7FF8E7FFF8FFE3FFFFFE7FC725
:107F0C00FC3F81FE3FE1E7FFFC7FC7FFFFFE1E0F3A
:107F1C00FE0E09FF0783E7FFFE0E0FFFFFFF001F9A
:107F2C00FF8039FFC00FE7FFFF001FFFFFFFE0FFDF
:107F3C00FFE0FFFFF07FFFFFFFE0FFFFFFFFFFFF12
:107F4C00FFFFFFFFFFFFFFFFFFFFFFFFFFFFFFFF35
:107F5C00FFFFFFFFFFFFFFFFFFFFFFFFFFFFFFFF25
:107F6C00FFFFFFFFFFFFFFFFFFFFFFFFFFFFFFFF15
:107F7C00FFFFFFFFFFFFFFFFFFFFFFFFFFFFFFFF05
:107F8C00FFFFFFFFFFFFFFFFFFFFFFFFFFFFFFFFF5
:107F9C00FFFFFFFFFFFFFFFFFFFFFFFFFFFFFFFFE5
:107FAC00FFFFFFFFFFCFFFFFFFFFFFFFFFFFFFFF05
:107FBC00FFFFFFFFFF9FFFFFFFFFFFFFFFFFFFFF25
:107FCC00FFFFFFFFFF3FFFFEF67CFFFFFFFFFFFF02
:107FDC00FFFFFFFFFF7CFFFEE7FCE7FFFFFFFFFF5C
:107FEC00FFFFFFFFFF787CFECFFCC7FFFFFFFFFF0B
:107FFC00FFFFFFFFFF3931FEDFE19FFFFFFFFFFFB8
:10800C00FFFFFFFFFE0393FE3E418FFFFFFFFFFFCD
:10801C00FFFFFFFFFF33B7FE1E9CE3FFFFFFFFFFD9
:10802C00FFFFFFFFFF7337FEC61DBBFFFFFFFFFF08
:10803C00FFFFFFFFFF3827FEF29D39FFFFFFFFFF19
:10804C00FFFFFFFFFF3C67FE7A4193FFFFFFFFFF3F
:10805C00FFFFFFFFFF3FE7FFFE6187FFFFFFFFFF13
:10806C00FFFFFFFFFFFFFFFFFFFDFFFFFFFFFFFF16
:10807C00FFFFFFFFFFFFFFFFFFFDFFFFFFFFFFFF06
:10808C00FFFFFFFFFFFFFFFFFFFFFFFFFFFFFFFFF4
:10809C00FFFFFFFFFFFFFFFFFFFFFFFF00000000E0
:1080AC0000000000A94D0B00C14D0B00354C0B001E
:1080BC0075680B00D54D0B003B460B003D460B0085
:1080CC006F460B004B460B005D460B007D450B00CD
:1080DC003B460B0067480B00674F0B0003550B002A
:1080EC00B5540B00FF460B0045470B0061470B00D6
:1080FC00E5470B000080C0E0F0F8FCFE0001030730
:10810C000F1F3F7FAED580A8D300408D2000A1C8A3
:10811C00DB40A4A62EAFDA02818FDA1281DA02815B
:10812C002200FF2100556E6B6E6F776E20657272A8
:10813C006F7200537563636573732E004572726FB3
:10814C007220696E20636F6D6D756E696361746901
:10815C006F6E2E00436F6C6C697373696F6E206465
:10816C00657465637465642E0054696D656F757410
:10817C0020696E20636F6D6D756E69636174696FD4
:10818C006E2E004120627566666572206973206EE2
:10819C006F742062696720656E6F7567682E004981
:1081AC006E7465726E616C206572726F7220696E8E
:1081BC002074686520636F64652E2053686F756C3E
:1081CC0064206E6F742068617070656E2E00496E4D
:1081DC0076616C696420617267756D656E742E00D2
:1081EC00546865204352435F4120646F6573206E71
:1081FC006F74206D617463682E0041204D494641B7
:10820C005245205049434320726573706F6E64650C
:10821C00642077697468204E414B2E003F810B001F
:10822C0048810B0060810B0075810B008F810B0066
:10823C00AB810B00DA810B00EC810B0006820B008A
:10824C00000000000000000047650B003D650B00BE
:10825C0033650B0029650B001D650B0011650B00C8
:10826C0051670B0059670B0005650B00FD640B0093
:10827C00F3640B00E9640B0089670B00000000003D
:10828C000000000065650B00AF650B0087650B00F7
:10829C0067650B008F650B0097650B009F650B00E6
:1082AC00A7650B00000000000000000021660B0019
:1082BC0011660B0013660B0061707000000000006B
:1082CC000000000011670B001B670B0025670B00FB
:1082DC002F670B0039670B0045670B0051670B00CC
:1082EC0059670B0061670B006D670B0075670B001E
:1082FC007F670B0089670B000008101820283038A6
:10830C0025592D256D2D25645425483A254D3A25A2
:10831C0053257A0061736374696D65000000000079
:10832C0000000000F56B0B00616C0B00396C0B004E
:10833C0075680B00096C0B00256C0B00176C0B009F
:10834C00336C0B00F76B0B00FB6B0B000000000099
:10835C00000000009F6C0B00076D0B00DD6C0B0028
:10836C0075680B00CF6C0B00A16C0B00B16C0B0093
:10837C00016D0B00C16C0B00996C0B000000000030
:10838C0000000000FF6D0B00F56D0B00EB6D0B009A
:10839C00A16D0B00DF6D0B00D36D0B0051670B0053
:1083AC0059670B00C76D0B00BF6D0B00B56D0B0053
:1083BC00AB6D0B0089670B00005245454E54206D88
:1083CC00616C6C6F632073756363656564656400D1
:1083DC002F746D702F6A656E6B696E732D474343F6
:1083EC002D31302D706970656C696E652D34385F78
:1083FC0032303230313132345F3136303631383020
:10840C003633392F7372632F6E65776C69622F6EFA
:10841C0065776C69622F6C6962632F7374646C6925
:10842C00622F72616E642E63002F746D702F6A65FB
:10843C006E6B696E732D4743432D31302D7069700F
:10844C00656C696E652D34385F32303230313132C3
:10845C00345F313630363138303633392F737263FE
:10846C002F6E65776C69622F6E65776C69622F6C05
:10847C006962632F737472696E672F737472746F91
:10848C006B2E630025450B00A5640B0051650B009A
:10849C0001670B0061680B009D690B00BD6B0B0045
:1084AC00E16B0B00096E0B000000000000000000E7
:0484BC0000000000BC
:0484C00000000000B8
:1084C40004302331233423312330233100230000AB
:1084D400030000000700000020830B00B8E5032020
:1084E4000000000000000000000000000000000088
:1084F4000000000000000000000000000000000078
:108504000000000000000000000000000000000067
:108514000000000000000000000000000000000057
:108524000000000000000000000000000000000047
:108534000000000000000000000000000000000037
:04854400ECE703203D
:10854800FFFFFFFF00000102030405060708090AF0
:108558000B0C0D0E0F101112131415161718191AEB
:088568001B1C1D1E1F20280032
:0485700078563412F3
:040000052003E6C22C
:00000001FF
