:02000002B0004C
:1040000000400B00509A0B00000006000C00050257
:084010000401810C0000000016
:0440180044860B00CF
:10401C0009480A49884208B505D0094A824202D0AB
:10402C00121A04F0E3F90748074A0021121A04F0A7
:10403C00EBF9014808BD00BF44E1032074990B0063
:10404C00F8E10320F8E10320EDE7032070B5074EFB
:10405C00074C03F0BDFEA41BA4080025AC4200D104
:10406C0070BD56F8043B98470135F7E740990B00B3
:10407C0064990B0000F0B8BD08B500F003FEBDE874
:10408C00084003F05DBE03F06BB803F071B800009C
:10409C0008B5034A00210C2002F0C6FFFEE700BF62
:1040AC00356D0B000078B0FA80F0400970470123A1
:1040BC00037070470EB403B503AB002153F8042B07
:1040CC00019303F0E0FA02B05DF804EB03B0704723
:1040DC000EB403B503AB012153F8042B019303F089
:1040EC00D2FA02B05DF804EB03B07047F0B50746A6
:1040FC0089B053480E4615461C4601F0E3FC002FD0
:10410C0077D0013D062D6CD8DFE805F004404B500C
:10411C00555A6600002C37D14A494B4803F015FC20
:10412C004949684603F006FC484B49496846002E4D
:10413C0008BF194603F051FC0E9904460A2204A844
:10414C0003F015FC04A9204603F03BFC4021026857
:10415C0040483B4C03F01CF804A803F07DFB684678
:10416C0003F07AFB3B49204603F065FA3A4B394899
:10417C001A68402103F00CF83649204603F05BFA2C
:10418C000023236109B0F0BD3449C6E703F006FDF6
:10419C0033492246FFF79CFF0CB93249BDE732493F
:1041AC00BBE70CB93149B8E73149B6E70CB931492D
:1041BC00B3E73149B1E70CB93049AEE73049ACE768
:1041CC00012C05D0022C05D0002CA9D12D49A4E737
:1041DC002D49A2E72D49A0E74CB92D491A4803F007
:1041EC00B4FB03F0DBFC2B4903F025FA98E72A49D2
:1041FC00F4E72DB1012D1FD003F0D0FC2749F3E7D4
:10420C00052C0FD8DFE804F0030A10121416244909
:10421C00114803F09AFB23490F487FE722490E48C7
:10422C0003F093FB2149F7E72149F8E72149F6E729
:10423C002149F4E72149F2E7002CECD0F2E700BF6A
:10424C00D8E403205E860B0038E503205B860B0068
:10425C0058860B0098E4032028E5032074860B0095
:10426C008B860B00A2860B00B0860B00BE860B0063
:10427C00CE860B00DE860B00EE860B00FE860B0056
:10428C0011870B0024870B0035870B004A870B0026
:10429C005C870B008A870B0073870B0012880B005E
:1042AC009E870B00F3870B00AD870B0003880B0078
:1042BC00C1870B00D2870B00DC870B00E8870B0053
:1042CC0030B503782D2B0CBF01220022134603447A
:1042DC000A24002013F8011B3039CDB2092D02D865
:1042EC0004FB0010F6E702B1404230BD70B5144635
:1042FC000D4604F0DFF8261F40B1FFF7E1FF294619
:10430C0046F8040F002004F0D5F8F5E7236813B93C
:10431C00014B01221A7070BD48E5032037B58DF8AA
:10432C0007200DF107030A4601460D480D4D02F01A
:10433C005BFA0128287010D003F030FC0A4903F016
:10434C0067F903F02BFC29780446054801F0BCFF03
:10435C000146204603F06FF9002003B030BD00BFCA
:10436C0058E50320C1E6032028880B00F0B58DB07A
:10437C001E4D1F4A00951F4B12781F4F0646602199
:10438C00284602F052FA012838700FD003F006FCD0
:10439C001A4903F03DF903F001FC3978044628462C
:1043AC0001F092FF0146204603F045F9144B12220E
:1043BC00187807A9FFF7B2FFB0B107AC0FCC03AD6B
:1043CC000FC523682B8003F0E9FB0E4903AAFFF706
:1043DC007FFE0D49324603A8FFF788FF034802F021
:1043EC00DEF9024802F03BF80DB0F0BD58E50320B1
:1043FC0088E1032049E50320C1E603203F880B0038
:10440C0044E103205B880B0050E1032010B540B958
:10441C00264B1C68052C40D8DFE804F0050F1A2643
:10442C002D34234BF5E703F0B9FB224903F0F0F8E8
:10443C001E4A13680133136014E003F0AFFB1E49EE
:10444C0003F0E6F8194A136801331360022409E0FB
:10445C0003F0A4FB194903F0DBF8144B4FF0FF32C7
:10446C001A600424204610BD03F098FB144903F095
:10447C00CFF80F4AE7E703F091FB124903F0C8F8B5
:10448C000B4AD6E703F08AFB0F4903F0C1F8084B3F
:10449C004FF0FF321A600624E4E703F07FFB0B4970
:1044AC0003F0B6F84FF0FF34DCE700BF78E50320EB
:1044BC0064E1032067880B007E880B0095880B0055
:1044CC00AC880B00C3880B00DA880B00F1880B005A
:1044DC004278037802B10133184670470346013025
:1044EC001A78002AFAD101221A70704707B50023F6
:1044FC00044800931A46194601F06CFE03B05DF8AF
:10450C0004FB00BF50E5032007B5002304480093CB
:10451C00FF22194601F05EFE03B05DF804FB00BFFC
:10452C0050E5032007B50A23002200930348FF231C
:10453C00114601F04FFE03B05DF804FB50E503207B
:10454C0007B5FF230093002303481A46194601F0D0
:10455C0041FE03B05DF804FB50E5032007B50021D4
:10456C0004480091E923FF2201F034FE03B05DF80A
:10457C0004FB00BF50E5032007B5752300930448E6
:10458C0046236C22002101F025FE03B05DF804FBEC
:10459C0050E5032007B50021044800918023FF2239
:1045AC0001F018FE03B05DF804FB00BF50E50320DA
:1045BC0007B5FF23044800931A46002101F00AFEB8
:1045CC0003B05DF804FB00BF50E5032008B1FFF712
:1045DC00B7BFFFF7DFBF08B1FFF7CEBFFFF7BEBF16
:1045EC0008B1FFF791BFFFF79DBF08B560B1FFF7AA
:1045FC00DFFF4FF4C87002F0F3FDFFF777FFBDE863
:10460C000840C82002F0ECBDBDE80840FFF76EBFC3
:10461C0008B1FFF7CDBFFFF769BF08B5F8B1FFF7D9
:10462C0073FFC82002F0DCFDFFF7B4FFC82002F0D6
:10463C00D7FDFFF793FFC82002F0D2FDFFF772FF02
:10464C00C82002F0CDFDFFF797FFC82002F0C8FD8F
:10465C00FFF776FFBDE80840C82002F0C1BDBDE8F9
:10466C000840FFF743BF13B584B22046012103F085
:10467C0030FC2046012103F02CFC601C80B201218F
:10468C00019003F026FC0198012102B0BDE8104016
:10469C0003F01FBC13B584B22046002103F019FCB3
:1046AC002046002103F015FC601C80B20021019013
:1046BC0003F00FFC0198002102B0BDE8104003F09C
:1046CC0008BC10B50446FFF7CEFF642002F088FD4D
:1046DC002046FFF7DFFFBDE81040642002F080BDEC
:1046EC00034608460BB1FFF7ECBFFFF7D3BF0346F9
:1046FC0008460BB1FFF7B7BFFFF7CCBF2DE9F3416D
:10470C00DFF8A48098F8003005461446ABB1C9B266
:10471C004A1C6E460523D2B2304601F0F1FC96E8F5
:10472C0003001F4F87E80300304601F0F6FC3846C3
:10473C0001F098FD002388F80030052D28D8DFE81B
:10474C0005F003090F151B21204602B0BDE8F0410E
:10475C00FFF746BF204602B0BDE8F041FFF73BBF74
:10476C00204602B0BDE8F041FFF730BF204602B052
:10477C00BDE8F041FFF739BF204602B0BDE8F0417B
:10478C00FFF74BBF204602B0BDE8F041FFF740BF3A
:10479C0003F004FA034902B0BDE8F04102F04BBF4C
:1047AC0050E5032019890B005CE1032070B50C4621
:1047BC0006460121A0B2154603F07AFB46B1012E44
:1047CC000CD003F0EBF9BDE87040074902F033BFA1
:1047DC0021462846BDE87040FFF789BF2146284690
:1047EC00BDE87040FFF77CBF28890B0013B501466C
:1047FC0001A802F063FA01A802F062FA044603F081
:10480C00CDF905492246FFF763FC092C8CBF00202B
:10481C00012002B010BD00BF38890B0013B5014652
:10482C0001A802F04BFA01A802F04AFA044603F080
:10483C00B5F905492246FFF74BFC0A2CD4BF0020E2
:10484C00012002B010BD00BF38890B00022808B54A
:10485C000BD004280BD060B9132003F066FBB0F525
:10486C007A7FB4BF0020012008BD1120F5E70F208E
:10487C00F3E70020F8E7022808B50BD004280BD08A
:10488C0060B9132003F051FBB0F57A7FCCBF002048
:10489C00012008BD1120F5E70F20F3E70020F8E711
:1048AC0008B580B203F041FBB0F52F7FB4BF0020F8
:1048BC00012008BD08B580B203F037FBB0F52F7F9F
:1048CC00CCBF0020012008BD07B580B200210190AB
:1048DC0003F0EEFA019803F015FB431E58425841C1
:1048EC0003B05DF804FB07B580B20021019003F022
:1048FC00DFFA019803F006FBB0FA80F0400903B030
:10490C005DF804FB08B580B203F00FFB07EE900ACC
:10491C00F8EEE77AF1EE046A67EEA67A9FED096A83
:10492C0087EE867ADFED087A67EE277A87EEA67A2D
:10493C00DFED067AB4EEE77AF1EE10FAACBF0120A7
:10494C00002008BD00C07F440000964300002A44AC
:10495C0008B580B203F0E9FA07EE900AF8EEE77AB0
:10496C00F1EE046A67EEA67A9FED096A87EE867A05
:10497C00DFED087A67EE277A87EEA67ADFED067A06
:10498C00B4EEE77AF1EE10FA94BF0120002008BDD6
:10499C0000C07F440000964300002A4430B52DED42
:1049AC00028B87B0C1B206230B2201A802F0C0F81B
:1049BC0001A802F0C4F801A802F07EF9B5EE400A95
:1049CC00F1EE10FAB4EE400A0CBF01240024F1EE13
:1049DC0010FA68BF44F00104B0EE408A002CEAD112
:1049EC0003F0DCF8054618EE100A03F099FC0246B9
:1049FC000B4628460A49FFF76BFBB5EEC08AF1EE71
:104A0C0010FA08DDF2EE007AB4EEE78AF1EE10FA55
:104A1C004CBF01240024204607B0BDEC028B30BDF6
:104A2C0046890B0030B52DED028B87B0C1B2062341
:104A3C000B2201A802F07CF801A802F080F801A872
:104A4C0002F03AF9B5EE400AF1EE10FAB4EE400A73
:104A5C000CBF01240024F1EE10FA68BF44F00104ED
:104A6C00B0EE408A002CEAD103F098F8054618EE17
:104A7C00100A03F055FC02460B4628460B49FFF77B
:104A8C0027FBF1EE0C7AB4EEE78AF1EE10FA08DDB2
:104A9C00F3EE0A7AB4EEE78AF1EE10FA4CBF012479
:104AAC000024204607B0BDEC028B30BD46890B00BC
:104ABC0030B52DED028B87B0C1B206230B2201A8B5
:104ACC0002F036F801A802F03AF801A802F0F4F866
:104ADC00B5EE400AF1EE10FAB4EE400A0CBF012418
:104AEC000024F1EE10FA68BF44F00104B0EE408AE5
:104AFC00002CEAD103F052F8054618EE100A03F028
:104B0C000FFC02460B4628460B49FFF7E1FAF3EE81
:104B1C00097AB4EEE78AF1EE10FA08DDDFED077AD8
:104B2C00B4EEE78AF1EE10FA4CBF012400242046C3
:104B3C0007B0BDEC028B30BD46890B00000048422B
:104B4C0008B50346013B1046062B43D8DFE803F0BB
:104B5C000409121B242D0400C1BBBDE80840FFF75B
:104B6C0045BE19B9BDE80840FFF785BEBDE8084051
:104B7C00FFF76CBE19B9BDE80840FFF79BBEBDE856
:104B8C000840FFF78DBE19B9BDE80840FFF7ABBE72
:104B9C00BDE80840FFF798BE19B9BDE80840FFF71B
:104BAC00D7BEBDE80840FFF7ADBE012906D00229EB
:104BBC0008D059B9BDE80840FFF7F0BEBDE8084081
:104BCC00FFF730BFBDE80840FFF772BFBDE80840F3
:104BDC00FFF724BE02F0E2FF024902F02CFD002098
:104BEC0008BD00BF4F890B0010B588B0002405A884
:104BFC00CDE90544ADF81C4002F0FEFA1B482346F3
:104C0C002246214640681A4C02F072FA02F0C6FFA6
:104C1C004FF4165102F0B6FF2178BFF35B8F11F001
:104C2C0001010BD120460391FFF73CFA039928B1FF
:104C3C00104802F065FD2046FFF739FA0D4802F0E6
:104C4C0069FD012300933C2202210B4800F048FF30
:104C5C000A4801F068FC0A4BFF221A705A709A70CD
:104C6C00DA701A715A7108B010BD00BF18E7032032
:104C7C00F8E10320FCE10320D8E4032058E50320ED
:104C8C0049E503202DE9F04195488AB001F076FD05
:104C9C00B0B1934801F043FF002800F01D81914C06
:104CAC00204600F00FFF2046012100F066FD4FF07A
:104CBC00000C4FF00113C4E904C38B48FFF756FBFB
:104CCC00894C23685F1C3CD0012B00F0A48005DCD0
:104CDC00002B63D002F062FF84496BE0023B032B94
:104CEC00F8D821688248FFF7F3FB002940F0DD80FB
:104CFC00012800F3D4806068FFF788FB411C05464F
:104D0C001CD07B487B49FFF7E9FB7948FFF7E0FBB8
:104D1C00794BA268013843F82020E36841F8203031
:104D2C00764941F82050D4E900010095B1FA81F19F
:104D3C00B0FA80F049094009FFF7D8F94FF0FF337A
:104D4C0023606B48FFF7C4FB051E21DDDFF8AC8147
:104D5C00684F694ED8F8002039683068FFF7F0FECC
:104D6C00022D024607D130B1D8F80420796870685A
:104D7C00FFF7E6FE0246624B19684B1C08D0A3688D
:104D8C00E06802F00102002B40F0A380FFF7B6FCB4
:104D9C0054480AB0BDE8F04101F0FCB8594B5A4DEB
:104DAC001B785A4E63B32A6833689A4205D002F0D6
:104DBC00F5FE574902F03FFC93E76068FFF726FBCE
:104DCC00461C8ED05349544FD1F800C0296807EBCC
:104DDC0001164FEA011E0131D4E902232960D4E9FE
:104DEC000051F060C6E9013C47F80E20B1FA81F1A0
:104DFC000090B5FA85F049094009FFF777F970E79B
:104E0C0002F0CCFE454902F016FC2A6833689A423F
:104E1C003FF467AFCBE7424B1B78002B3FF461AFFD
:104E2C00404B1B78002B7FF45CAF6068FFF7EEFA09
:104E3C000546681C3FF455AF3B493C4E06A802F0B2
:104E4C0056FD344B3A4819683368D4F808C0E76803
:104E5C00CDF808C05A0100EB431340F802C01032E1
:104E6C00C3E90171CDE90415DD6006A9104403976F
:104E7C0002F051FDD4E90001336801333360B1FA1B
:104E8C0081F1059B0093B0FA80F0DDE9022349091A
:104E9C004009FFF72BF906A802F0DEFC21E702F02F
:104EAC007DFE244902F0C7FB48E700280DDD606851
:104EBC00FFF7ACFA124B421C18BF18601B68D4E900
:104ECC0000010093D4E9022330E702F067FE1A498F
:104EDC00E8E7FFF76BFC5BE70AB0BDE8F08100BFC9
:104EEC0058E50320D8E4032070E1032022880B004E
:104EFC007CE5032048E1032054E1032068E1032012
:104F0C0060E1032005E2032074E5032070E5032033
:104F1C0062890B006CE5032080E503207A890B0085
:104F2C0014E2032004E2032018890B0068E5032037
:104F3C0018E203208D890B00A0890B0070B54FF08F
:104F4C00FF311548154D164E00F0C8FC1549164892
:104F5C0002F0CDFC1349154802F0C9FC08221021BF
:104F6C00134801F099F9002211460523114801F06C
:104F7C00C7F8114B114A9A600024C3E9004402207F
:104F8C0002F05AF828193146203402F0B0FCB4F57E
:104F9C00207FF7D170BD00BFD8E4032028E20320A6
:104FAC0018890B00C4890B0028E5032038E5032081
:104FBC0058E5032050E5032008E203200000FFFF22
:104FCC002DE9F04F85B01F46BDF93880BDF83C3057
:104FDC00A8EB0209A7EB010AB9F1000FB8BFC9F1A0
:104FEC000009BAF1000FB8BFCAF1000AD1458346D7
:104FFC000C46154604DD3A462C4647460D4690466F
:10500C00BC4205DD2A464546904622463C4617469C
:10501C003E1BB2B20092A8EB050282EAE271A1EB50
:10502C00E271C6F3C03202FA86F64545B4BF0122DE
:10503C004FF0FF32019176100292BC421CDCDBF87F
:10504C0000200393D145D2F81880C7BF29462246C9
:10505C002A4621465846C047019A039BB61AB1B25C
:10506C0036B2002E05DA029A1544009A56182DB263
:10507C0036B2013424B2E0E705B0BDE8F08F7047DA
:10508C0010B404682469A4465DF8044B604730B43E
:10509C000468BDF808500295A46BA44630BC604768
:1050AC0030B40468BDF808500295E46BA44630BCDB
:1050BC00604770B4BDF90C50BDF810600468CDE9C0
:1050CC000356246CA44670BC60472DE9F3411C4682
:1050DC000368BDF820805B6905461646013C3444E4
:1050EC000F4624B298472B68CDF8048000949C6A34
:1050FC0028463B4632463946A0472B68DB6A284691
:10510C0002B0BDE8F04118472DE9F3411D46036894
:10511C00BDF820805B69044617460E469847CDE9DA
:10512C00007822686B1E3344956A20461BB23A46BF
:10513C003146A8472368DB6A204602B0BDE8F0413F
:10514C0018472DE9F3471E460368BDF928905B69A3
:10515C00BDF82C800C460546174698472644B442A9
:10516C002B680BDACDF80080D3F820A021464B46F3
:10517C003A4628460134D04724B2F0E7DB6A284689
:10518C0002B0BDE8F047184713B502680191B0F9B9
:10519C000E100091146CB0F90C3000221146A0478F
:1051AC0002B010BD2DE9F74399421646BDF928709F
:1051BC00BDF82C90026880460D461C4613D1BE42A9
:1051CC00C8BF3346CDF82890C4BF3E461F467B1C53
:1051DC00946B9B1B1BB2324629464046A44603B037
:1051EC00BDE8F0436047BE420AD19942C2BF0B46AC
:1051FC0025461C46631CCDF82890D46B5B1BE9E755
:10520C0053699847CDE90079D8F8003040469F6A39
:10521C00324623462946B847D8F80030DB6A404668
:10522C0003B0BDE8F04318472DE9F3471D4603686A
:10523C00BDF82C805B69BDF9289004460F461646D4
:10524C0098472368CDF80080D3F824A032462B462B
:10525C0039462046D0472368CDF8008009F1FF324B
:10526C003244D3F824A039462B46204612B2D047FC
:10527C002368CDF80080D3F820A032464B4639463F
:10528C002046D0476B1ED9192368CDF800801D6AC3
:10529C0020464B46324609B2A8472368DB6A2046B3
:1052AC0002B0BDE8F0471847704701F00303B0F9AE
:1052BC000A208376C907B0F9083059BF8381C281AF
:1052CC008281C3817047000030B54281C281074A98
:1052DC00074D0181002481814FF0FF31C0E9051297
:1052EC004460056004610477046230BD0101000173
:1052FC00D08E0B002DE9F04F89B0CDE90212026877
:10530C00BDF948800493BDF94C3052690593BDF842
:10531C0050A00446904718F107024FF0000648BF12
:10532C0008F10E024FEAE20B01963546039B019AF7
:10533C00BDF904109A18059B8B4212B227DD049B11
:10534C0033444FF0000906930FFA89F080451FFA99
:10535C0089F117DD4F0705BF069BC0106D001D5C62
:10536C0018BFEDB22B060AD5029B20680792194490
:10537C00836909B21F4620465346B847079A09F17C
:10538C000109E1E7019B013301935E44CEE72368F9
:10539C00DB6A204609B0BDE8F04F18472DE9F04F05
:1053AC002DED028B91B01646026ABDF874809DF803
:1053BC0078509DF87C4003911F46BDF870300493E3
:1053CC008346002A40F0C580B0F90C308B4240F384
:1053DC004C81B0F90E30B34240F34781062313FBE6
:1053EC000513002B40F3418106EBC403002B40F363
:1053FC003C81037F1BB9AF2F84BF0137FFB2DBF8B1
:10540C00003058465B6998470522099200220592A4
:10541C00984A07EB8703D3180C93B3B20693059AFB
:10542C000C9B9B5C0793ABB20B93BDF80C300893B1
:10543C00039B02FB05F919FA83F90FFA89F308EEBD
:10544C00103A08230A93039B02EB030A4FF000095E
:10545C000FFA8AFA079ADBF80030D20752D5012DE1
:10546C001FFA89F23ED1012C3CD19B6906991F464B
:10547C00049B0A4412B251465846B84709F101033D
:10548C004FFA83F9079B5B0807930A9B013B13F0C8
:10549C00FF030A93DED1059F01377BB20593099B6D
:1054AC00013B13F0FF030993B9D1049B43450FD083
:1054BC00012DDBF800303BD1012C39D10899CDF806
:1054CC00008005311C6A3246082309B25846A047B1
:1054DC00DBF80030DB6A584611B0BDEC028BBDE83E
:1054EC00F04F1847069914FB02F20A4404990191F3
:1054FC000094DB6918EE101A1F4612B22B46584660
:10550C00B847BBE7049A4245B8D0012D1FFA89F27F
:10551C0007D1012C05D19B6906991F460A444346C5
:10552C00A8E70699CDF8048014FB02F20A44DFE7E1
:10553C000B9ACDF8048002EB8201089AE4000A442D
:10554C0011460094DC6932462B4609B25846A047F6
:10555C00BEE7137A516812680B92FF1AFFB201EB87
:10556C00C70331F8372006929A780992DA780C92B0
:10557C00012D93F9052093F906A00A9201D8012C6C
:10558C0057D9BDF9283008930FFA8AF30793DBF843
:10559C00003058465B699847B3B24FF000080E9341
:1055AC001AFA86F3C14647460F930C9B9F428FD243
:1055BC00079B0E9A3B4403FB0423002205920F9A8F
:1055CC001BB202EB070A08EE103A0FFA8AFA4346AE
:1055DC00099A0599914241D25A1CD2B25B070D929D
:1055EC0007D1069B06990B9A01339BB212F80190D6
:1055FC00069319F0800F12D0012DDBF80030BDF8A6
:10560C000C101AD1012C18D10A9A9B691144059AD5
:10561C0011441E465246049B09B25846B047059E9B
:10562C000136F3B24FEA490905935FFA89F90D9BEC
:10563C00CEE70023CDE90733A9E70598089A024481
:10564C0002FB0511049ACDE90042DB6918EE102A21
:10565C001E4609B22B465846B047E0E7099B013776
:10566C0098445FFA88F8FFB29FE711B0BDEC028B4B
:10567C00BDE8F08FC6890B00F0B5026A85B0044610
:10568C000B46002A34D10A2908D1438A0282427E71
:10569C0003EBC2036382012005B0F0BD0D29FAD0E3
:1056AC00E17E007E657E71B1B4F91060062111FBBC
:1056BC000061B4F90C60B142C1BFB4F9121022827E
:1056CC0001EBC5026282E28A0192A28A0092CDE9C4
:1056DC000205B4F91220B4F910102046FFF75EFE53
:1056EC00237E228A03EB430302EB43032382D2E79C
:1056FC000A2907D100230382417E927A438A01FB57
:10570C000233C7E70D29C6D0157AA942C3D3517A03
:10571C009942C0D351685D1BEDB201EBC505A87869
:10572C0028B3E97819B3E17E267E677E91B195F9AD
:10573C0005100844B4F9101006FB0011B4F90C0064
:10574C00814207DD00202082B4F91210927A02FB0C
:10575C0007126282E28A0192A28A0092CDE9026764
:10576C00B4F91220B4F910102046FFF717FE29796E
:10577C00227E238A01FB0233B8E7012938BF0121BD
:10578C00017641767047704710B510210446FEF73C
:10579C007CFC204610BD000073B5044608462279F7
:1057AC00A36832B1A3B90B4902B0BDE8704001F057
:1057BC002FBF094A267B094D0949647B012E18BF6E
:1057CC002946CDE900140749FEF774FC02B070BD00
:1057DC00054AEFE7318F0B0018890B002D8F0B005A
:1057EC00298F0B00478F0B00208F0B0010B5044B3B
:1057FC0003600446C06A08B101F0BAFC204610BD33
:10580C0060950B0010B50446FFF7F0FF20465021C1
:10581C00FEF73BFC204610BD002910B54BDBB0F960
:10582C000C408C4247DD002A45DBB0F90E40944217
:10583C0041DD847E022C1FD0032C26D0012C04D1F8
:10584C000489D24314440A4621B2012B23D0022BE3
:10585C0032D083BB002A13460489C06AB8BFD31D5B
:10586C00DB1013FB041102F0070201239340425C8E
:10587C0022EA030242541EE00489013C611A448965
:10588C00D243224409B212B2DFE74489013C641AC4
:10589C00114622B2D9E7002A04891346B8BFD31D9A
:1058AC00DB1013FB0411C36A02F0070001228240D3
:1058BC00585C02435A5410BD002A13460489C06A2E
:1058CC00B8BFD31DDB1013FB041102F00702012338
:1058DC0003FA02F2435C5A40CCE7000070B5402258
:1058EC0004460E468021FFF7EFFC00250D4B23608C
:1058FC00656202F04BFBFF2384F8333084F83630BA
:10590C00094BA3634FF6FF720123C4E90A05A28673
:10591C0084F8376084F83C302564A4F84450204661
:10592C0070BD00BF60950B006C8F0B00F8B5044682
:10593C00806A0D4690B194F9301001F001FDA06A17
:10594C00036800219B689847A06A036829469B68F6
:10595C009847A06ABDE8F84001F0F9BC94F93530DD
:10596C00014698B202F0B5FA606A20B12946BDE84A
:10597C00F84001F06BBF0826802794F9330005EA44
:10598C00070180B202F0A5FA94F93400012180B22B
:10599C0002F09FFA94F93400002180B202F099FAD7
:1059AC00013E4FEA5707E8D1F8BD38B50446806A86
:1059BC000D4680B1A16C01F0B5FC002D204614BF42
:1059CC00A721A621FFF7B2FFA06A88B1E16CBDE860
:1059DC00384001F0A7BC606A18B104F1380101F03D
:1059EC00C7FE94F93600002180B202F072FAE4E7A7
:1059FC0094F93600012180B202F06BFA606A18B19A
:105A0C00BDE8384001F09ABE38BD2DE9F843044694
:105A1C00806A0D468F1840B394F9301001F090FC59
:105A2C00A06A036800219B6898470126AF42A06AD0
:105A3C0017D01F2E0CD901F08AFC94F93010A06AF3
:105A4C0001F07EFCA06A036800219B689847012640
:105A5C00A06A15F8011B036801369B689847F6B2DB
:105A6C00E4E7BDE8F84301F072BC94F93530014627
:105A7C0098B202F02EFABD4222D0606A15F8019B52
:105A8C0018B1494601F0E2FEF5E708264FF0800810
:105A9C0094F9330009EA080180B202F01AFA94F979
:105AAC003400012180B202F014FA94F93400002180
:105ABC0080B202F00EFA013E4FEA5808E8D1DAE75C
:105ACC00BDE8F883B0F90A30DA1D48BF03F10E02C5
:105ADC00B0F90830C06AD2105A43002102F094BCCD
:105AEC002DE9FF411E46C36A9DF8288004460F46E7
:105AFC001546D3B12046FFF7E5FFB4F90A20202A5A
:105B0C0025DCB4F908102023203A73390120CDE9A3
:105B1C00013002EBD272732301EBD171009342F38B
:105B2C004F02854B41F34F011BE0B0F90A30D81DF1
:105B3C0048BF03F10E00B4F90830C010584301F00F
:105B4C000FFBE0620028D5D104B0BDE8F081402302
:105B5C004FF0010CCDE9013C802300930022774BE0
:105B6C0011462046FFF7C6FBA06A84F83170002866
:105B7C0078D0002D74D1B4F90A30202B0CBF3C2501
:105B8C003D2584F83050B8F1000F01D001F0CEFB68
:105B9C00FEB194F9370000281BDB012180B202F022
:105BAC0087F994F93700012180B202F092F90120B3
:105BBC0001F016FB94F93700002180B202F089F94C
:105BCC000A2001F00DFB94F93700012180B202F09C
:105BDC0080F9A06A002874D0A16C01F0A3FB042208
:105BEC0057492046FFF711FF61890139C9B2204698
:105BFC00FFF79CFE534904222046FFF706FF94F959
:105C0C003130012B0CBF102114212046FFF78EFEE2
:105C1C0004224D492046FFF7F8FEA3684B4A9342F5
:105C2C005CD14B4904222046FFF7EFFED9212046D8
:105C3C00FFF77CFE94F93130012B0CBF2221F121AE
:105C4C002046FFF773FE204642490622FFF7DDFE91
:105C5C00A06A002863D0E16C01F064FB012073E7BB
:105C6C006DB28EE794F93500012180B202F020F973
:105C7C0094F93600012180B202F01AF994F9360039
:105C8C00012180B202F025F9656A3DB1B8F1000F2F
:105C9C003FF47EAF284601F03DFD79E794F93300DF
:105CAC00012180B202F004F994F93400012180B290
:105CBC0002F0FEF894F93400294680B202F009F99A
:105CCC0066E7606A18B104F1380101F051FD94F9EE
:105CDC003600002180B202F0FCF880E71E4A9342A5
:105CEC000ED11E4903222046FFF78FFE94F9313066
:105CFC00012B0CBF9F21CF212046FFF717FE95E704
:105D0C00174A934292D1174903222046FFF77DFE92
:105D1C0094F93130012B0CBF1021AF21ECE794F931
:105D2C003600012180B202F0D4F8606A002895D0C8
:105D3C0001F004FD92E700BF788F0B0058910B0027
:105D4C00C0950B00C4950B00C8950B00800020007B
:105D5C00D2950B00CC950B0080004000D6950B0023
:105D6C0060001000D9950B0070B5002ABDF81050DA
:105D7C003DDBB0F90A40944239DD0029BEBF5B1807
:105D8C001BB20021B0F90840CE18A642C4BF631A5A
:105D9C001BB2002B2BDDC06AD61014FB061101447C
:105DAC0002F0070001228240012DD2B216D0022D42
:105DBC000BD0E5B9D243D2B20B44994217D011F8AB
:105DCC00010B104001F8010CF7E70B4499420ED07F
:105DDC0011F8010B504001F8010CF7E70B44994204
:105DEC0005D011F8010B104301F8010CF7E770BD59
:105DFC00F0B50029BDF8145076DBB0F90860B1425B
:105E0C0072DA002ABEBF9B181BB20022B0F90A40FE
:105E1C00D718A742C4BFA31A1BB2002B64DDC2F370
:105E2C00C404C76A16FB041612F00702DBB207EBB8
:105E3C00060423D0C2F10802D2B22D4993423CBFD2
:105E4C004FF0FF0CA2EB030E895C3CBF4CFA0EFC2E
:105E5C000CEA0101012D07D0022D2ED04DB917F8F7
:105E6C0006C02CEA010103E017F806C041EA0C0158
:105E7C00B955934238D3B0F908100C449A1AD2B2DF
:105E8C00072A0ED9022D1DD113462178C943217042
:105E9C00083BB0F90810DBB2072B0C44F5D802F024
:105EAC0007020AB3134B012D9B5C1AD0022D1CD098
:105EBC00D5B9227822EA030315E017F806C081EA67
:105ECC000C01D5E7291E18BF01214942C9B213465E
:105EDC002170083BB0F90860DBB2072B3444F7D8CB
:105EEC00DDE7227813432370F0BD22785340FAE7A4
:105EFC00B0950B00B8950B0070B41446827EBDF8BB
:105F0C000C60022A0DD0032A18D0012A11D1028963
:105F1C00E443144424B203960A46214670BCFFF7AE
:105F2C0067BF42890589E44319441444691A24B2B1
:105F3C0009B20396224670BCFFF716BF4589194477
:105F4C00691A09B2E7E730B41446827EBDF80850EE
:105F5C00022A0DD0032A18D0012A11D1E218048983
:105F6C00A41A24B202950A46214630BCFFF7FCBEA7
:105F7C000289C9431144E2184489A41A09B224B213
:105F8C000295224630BCFFF733BF4289C943114406
:105F9C0009B2E7E72DE9F8430446806A002842D0AD
:105FAC00A16C01F0BFF9474905222046FFF72DFDF2
:105FBC00218901392046C9B2FFF7B8FCB4F90A307F
:105FCC00DE1D48BF03F10E06D4E90A052389F6103D
:105FDC0013FB06F615FA86F600283AD094F9301021
:105FEC0001F0AEF9A06A036840219B68984701272D
:105FFC00B542A06A24D01F2F0CD901F0A8F994F94E
:10600C003010A06A01F09CF9A06A036840219B68DB
:10601C0098470127A06A15F8011B036801379B6894
:10602C009847FFB2E4E7606A18B104F1380101F057
:10603C009FFB94F93600002180B201F04AFFB2E7D1
:10604C0001F085F9A06A78B3E16CBDE8F84301F082
:10605C0069B994F93500012180B201F03AFFAE42E2
:10606C00F0D0606A15F8019B18B1494601F0EEFBBF
:10607C00F5E708274FF0800894F9330009EA080186
:10608C0080B201F026FF94F93400012180B201F0B6
:10609C0020FF94F93400002180B201F01AFF013F77
:1060AC004FEA5808E8D1DAE794F93600012180B2BA
:1060BC0001F00FFF606A18B1BDE8F84301F03EBB78
:1060CC00BDE8F883DC950B0013B50B4C2178BFF3BE
:1060DC005B8F11F001010BD120460191FDF7E2FF1E
:1060EC00019928B1054801F00BFB2046FDF7DFFFB5
:1060FC00024802B010BD00BFF8E10320FCE1032010
:10610C0010B50446017042708370012103EB43000B
:10611C0002F064F96060204610BD10B5044640687A
:10612C0001F026F8204610BD10B500210446007879
:10613C0001F0CFFE142000F0F7FD2078012101F0D2
:10614C00C8FEBDE81040142000F0EEBD70B5064648
:10615C000C46082523064CBF01210021707801F064
:10616C00B8FE013D3046FFF7DFFF640015F0FF0578
:10617C00E4B2EFD170BD73B513F0800F1E460C4620
:10618C00154614BFC021E021730658BF41F0100121
:10619C002A0658BF41F008016B0658BF41F00401B4
:1061AC00220658BF41F00201630658BF41F00101BD
:1061BC000190FFF7CBFF01983146FFF7C7FF01981D
:1061CC002946FFF7C3FF0198214602B0BDE8704095
:1061DC00FFF7BCBF2DE9F04704460F46002190465F
:1061EC0099469DF820A0FFF7B1FF00212046FFF74C
:1061FC00ADFF00212046FFF7A9FF00212046FFF745
:10620C00A5FF0026A378F5B2AB4219D905EB4500E2
:10621C00AF4200F1010200F1020308D1616801F8FC
:10622C000080616801F80290616801F803A0616860
:10623C00CB5C8A5C095C2046FFF79DFF0136E1E7E9
:10624C0020460021FFF782FF20460021FFF77EFF4A
:10625C0020460021FFF77AFF20460021BDE8F047D9
:10626C00FFF774BF73B504460121007801F020FEDE
:10627C006078012101F01CFE00252E46A378E9B2BE
:10628C008B4207D9002300961A462046FFF7A2FF3F
:10629C000135F3E702B070BD38B5044608462173EA
:1062AC000121154601F004FE207B012101F011FEB5
:1062BC0028466573012101F0FBFD607B002101F094
:1062CC0008FE204638BD00000139C9B208299ABF22
:1062DC00024B53F821000248704700BFD8960B00C0
:1062EC00E1950B0007B50190FFF7EEFE019903B0A5
:1062FC005DF804EB01F0AABA2DE9F74F07469DF8BB
:10630C0030801E461546002A42D001F07E01007BEB
:10631C0041F08009002101F0DCFD4846FFF7E2FF67
:10632C00013DEDB24FF0000B4FF0010A5FFA8BF418
:10633C00A54222D9DCB9B8F1000F18D04246D3B22D
:10634C00072B61B205D80AFA02F40C43E4B201320D
:10635C00F5E748460191FFF7C5FF337801990440F2
:10636C0023EA01031C4334700BF1010BDEE74846B2
:10637C00FFF7B8FF06F80B00F6E70020FFF7B2FFB7
:10638C007055387B012103B0BDE8F04F01F0A1BD81
:10639C0003B0BDE8F08F38B50C4605460021007BF4
:1063AC0004F07E0401F095FD44F08000FFF79AFFA5
:1063BC000020FFF797FF01210446287B01F089FD9F
:1063CC00204638BDF8B50F4606460021007B154621
:1063DC001C4601F07EFD07F07E00FFF783FF25448D
:1063EC00AC4204D014F8010BFFF77CFFF8E7307BCC
:1063FC000121BDE8F84001F06CBD70B504460E46B5
:10640C00007B0021154601F064FD06F07E00FFF7CD
:10641C0069FF2846FFF766FF207B0121BDE870402D
:10642C0001F057BD70B5164604460D46FFF7B3FF95
:10643C003043C2B229462046BDE87040FFF7DDBFAD
:10644C0070B5164604460D46FFF7A5FF20EA060078
:10645C00C2B229462046BDE87040FFF7CEBF0822E5
:10646C001021FFF7EDBFF8B5044615460F46002284
:10647C0002211E46FFF7C1FF04220A212046FFF726
:10648C00BCFF802214212046FFF7CCFF2A463B4656
:10649C0012212046FFF796FF032202212046FFF728
:1064AC00ACFF41F288350A212046FFF774FF430701
:1064BC0005D4013DADB2002DF5D104200FE0002232
:1064CC0002212046FFF799FF44212046FFF763FF86
:1064DC00422130702046FFF75EFF70700120F8BD3E
:1064EC0010B50F2202210446FFF787FF322000F07F
:1064FC0077FE02212046FFF74EFFC306F9D410BDEC
:10650C0010B528210446FFF746FF00F00303032BC8
:10651C0008D040F00302D2B220462821BDE810403A
:10652C00FFF76BBF10BD10B50446407B01F0EAFCD1
:10653C0048BB607B012101F0CCFC322000F050FE06
:10654C00204680225421FFF758FF2046A9225621CD
:10655C00FFF753FF204603225821FFF74EFF20463A
:10656C00E8225A21FFF749FF204640222A21FFF753
:10657C0044FF20463D222221FFF73FFF2046BDE885
:10658C001040FFF7BDBF2046FFF7AAFFD8E72DE963
:10659C00F04F89B0DDE91356DDF8549003929DF865
:1065AC005C209DF858B0049204468A460027B9F145
:1065BC00000F3ED099F8008005930022022120465E
:1065CC00FFF71BFF7F2208212046FFF716FF08EB81
:1065DC000B18802214212046FFF724FF5FFA88F85D
:1065EC00059B9DF8482012212046FFF7EBFE424602
:1065FC001A212046FFF701FF524602212046FFF7E1
:10660C00FCFEBAF10C0F04D180221A212046FFF7B0
:10661C0009FF4FF4FA6808212046FFF7BCFE039BE4
:10662C00184208D1C30702D4B8F10108F3D10420F1
:10663C004DE0C846C0E70C212046FFF7ACFE10F039
:10664C00130F804646D1DDB1D6B114212046FFF799
:10665C00A2FE3378834202463ED330702B46122181
:10666C002046CDF800B0FFF747FE18212046FFF773
:10667C0092FE00F00707B9F1000F01D089F8007005
:10668C0018F0080F2AD15DB356B3049B43B332788C
:10669C00012A03D1042F25D1092018E022D90FBBE0
:1066AC00023A07ABD2B229462046FFF7DCFE01289E
:1066BC000DD133781D449DF81C3015F8022C9A42EC
:1066CC0010D115F8012C9DF81D309A420AD109B051
:1066DC00BDE8F08F0220FAE70520F8E70320F6E783
:1066EC000120F4E70820F2E710B586B09DF82C40A5
:1066FC0005949DF828400494099C0394089C0092EE
:10670C00CDE9013430220B460C21FFF740FF06B0D7
:10671C0010BD70B588B006461C468DF8171015468E
:10672C001AB31B78012B20D980221C21FFF788FE7D
:10673C0007238DF81F300023CDE902330DF11F0321
:10674C00CDE9004301222B460DF117013046FFF72E
:10675C00CBFF012807D12378022B08D19DF81F30DD
:10676C00002B18BF022008B070BD0520FBE70220EB
:10677C00F9E713460A462621FFF7CBBF07B50223DC
:10678C000DF1030201A98DF80330FFF7F2FF00F0C1
:10679C00FD00431E5842584103B05DF804FB70B530
:1067AC0086B050238DF8143000240DF1160302220C
:1067BC0005A906468DF81540FFF755FE012805463C
:1067CC000FD1CDE90244CDE900442346042205A9AA
:1067DC003046FFF789FF042803D0012814BF054673
:1067EC000225284606B070BD7FB506461D461446E8
:1067FC00CAB11B78112B16D9302313705170931C0E
:10680C0021460222FFF72FFE01280AD10023CDE9F1
:10681C000133039000952346042221463046FFF7AE
:10682C0063FF04B070BD0520FBE710B58AB00C9C6B
:10683C008DF81D201A689B88ADF8223063788DF88E
:10684C002430A3788DF82530E3788DF82630237921
:10685C008DF827300023CDE90433CDE902330193C1
:10686C000C238DF81C10CDF81E200093102207ABC2
:10687C000E21FFF78CFE0AB010BD2DE9F04F502A07
:10688C008BB082460F46904600F2408180221C213C
:10689C00FFF7D6FD93238DF81C30B8F1000F00F0F4
:1068AC00BC803C78042C94BF0023012301250026D6
:1068BC000BE095238DF81C30B8F1000F00F0AF8081
:1068CC003C78072C94BF00230123A8EBC60464B2C8
:1068DC0024EAE474002B00F0A48088228DF81E209A
:1068EC00032114F0070218BF012202EBE40212F09C
:1068FC00FF02E0B21DD0002B14BF4FF003094FF084
:10690C00040906F1010C914594BF01EB090E01EB52
:10691C00020E57FA8CFC5FFA8EFE0A460DF1280B1C
:10692C000131C9B25A441CF8019B02F80C9C714508
:10693C00F3D10BB1083044B21F2C74DD4FF070034F
:10694C009DF81F208DF81D309DF81E3053409DF88A
:10695C00202053409DF8212053408DF822300722EF
:10696C000DF1230307A95046FFF77DFD0128814651
:10697C0040F0C88000238DF81A3003238DF81B30AB
:10698C0004940DF1220B4FF009099DF81A30059370
:10699C0003EB0312D2B21A215046FFF72EFD059BD2
:1069AC0002930DF11A03002201930DF11B030392C4
:1069BC0000934A465B4607A95046FFF795FE03280D
:1069CC0081464CD11C215046FFF7E5FC810600F1B5
:1069DC00998010F01F0008BF2020A04240F3878050
:1069EC00431E03F0070244B213F007034FEAD00032
:1069FC0018BF0123013018440AAB1844012303FAD1
:106A0C0002F210F80C3C134300F80C3C94E797236B
:106A1C008DF81C300626234657E7434646E7434687
:106A2C0053E702215DE7E3100233DBB204F0070207
:106A3C0014F007098DF81A2002EB03128DF81D20B3
:106A4C0018BF4FF0010907AA994402EB030BC3F1DD
:106A5C0009035FFA89F98DF81B30049495E7012836
:106A6C0050D1049B1F2B4FF020047FF767AF9DF88C
:106A7C001E30882B3ED103231A4601361A4457FA8E
:106A8C0086F6D2B219460AA801330144DBB211F8DA
:106A9C000C1C06F8011B9342F4D19DF81B60032ECD
:106AAC0037D19DF81A40A4BB0DF11E0301225946A3
:106ABC005046FFF7D8FC0128814623D19DF81E20B3
:106ACC009BF801309A4227D19DF81F209BF8023089
:106ADC009A4221D19BF800305A070ED50135EDB200
:106AEC00032D94D0042D02D0022D3FF4E2AE4FF0D2
:106AFC00060907E002230422BFE705EB4505013533
:106B0C00FB723D7048460BB0BDE8F08F4FF00709A3
:106B1C00F8E74FF00209F5E74FF00809F2E708B57E
:106B2C0001460022FFF7A9FE431E5842584108BDFA
:106B3C0010B5037201238171C271037410BD10B5BD
:106B4C0004460021807901F0B3F9A079012101F00C
:106B5C00C0F90023E36010BD2DE9F843044600F0B2
:106B6C00EBF8E368834284BF0023E360237C23B902
:106B7C00E368C01AB0F5FA6F67D30025257400F0EE
:106B8C00DBF80121E0602560A079257101F0A1F905
:106B9C00FA2000F025FBA079012101F089F92946A2
:106BAC00A07901F096F9142000F01AFB00F0D2FB4A
:106BBC000121A07901F08DF9282000F0B5F8A07919
:106BCC00294601F075F92E4601274FF00008A079EF
:106BDC0001F098F9B8425FFA88F908D1012008F160
:106BEC00010800F0A1F8B8F1FF0FF0D1C146A0796F
:106BFC0001F088F9B9F1FF0FC7B214D0032D0ED9EB
:106C0C00EA070CD4F2080136A35C5B00DBB2A35498
:106C1C00217A49453CBF43F00103A354F6B2013538
:106C2C00EDB2552DD1D100F097FB272E0FD96378FB
:106C3C0020781844A3781844E37818442379C0B218
:106C4C00C31A58425841BDE8F8830120FBE70020E5
:106C5C00F9E7000010B50446FFF77EFF20B3E37997
:106C6C000B2B1BD0153B012B1ED8A378DFED106A24
:106C7C0003F07F0207EE102AE27807EE902AB8EEB6
:106C8C00C77AF8EEE77A1B06E7EE267AB2EE047ABC
:106C9C0087EE870A07D5B1EE400A04E0A37800EE30
:106CAC00103AB8EE400A10BD9FED020AFBE700BF98
:106CBC00000080430000C07FFFF7CCBF016070472D
:106CCC0010B504460121008801F0F2F8208800215B
:106CDC0001F0FFF8022000F027F82088012101F0D4
:106CEC00F8F8052000F020F82088002101F0F1F8D8
:106CFC002088002101F0DCF82088012101F02CF91A
:106D0C003A2390FBF3F010BD08B5024B1B685B6C8B
:106D1C00019308BD4802030008B5024B1B685B6871
:106D2C00019308BD1802030008B5024B1B68DB6811
:106D3C00019308BD1802030008B5024B1B685B6980
:106D4C00019308BD1802030008B5024B1B685B6871
:106D5C00019308BD2C02030008B5024B1B689B680D
:106D6C00019308BD2C02030008B5024B1B68DB68BD
:106D7C00019308BD2C02030008B5024B1B681B696C
:106D8C00019308BD2C02030008B5024B1B685B691C
:106D9C00019308BD2C02030008B5024B1B681B6A4B
:106DAC00019308BD2C02030008B5024B1B685B6AFB
:106DBC00019308BD2C02030008B5024B1B681B6B2A
:106DCC00019308BD2C02030008B5024B1B68DB6C59
:106DDC00019308BD2C02030008B5024B1B681B680D
:106DEC00019308BD2802030008B5024B1B68DB6841
:106DFC00019308BD2802030008B5024B1B689B6970
:106E0C00019308BD2802030008B5024B1B68DB691F
:106E1C00019308BD2802030008B5024B1B681B6ACE
:106E2C00019308BD2802030008B5024B1B685B6A7E
:106E3C00019308BD2802030008B5024B1B689B6A2E
:106E4C00019308BD2802030008B5024B1B68DB6ADE
:106E5C00019308BD2802030008B5024B1B681B6B8D
:106E6C00019308BD2802030008B5024B1B685B6B3D
:106E7C00019308BD2802030008B5024B1B681B6C6C
:106E8C00019308BD2802030008B5024B1B685B691F
:106E9C00019308BD6402030008B5024B1B689B6894
:106EAC00019308BD6802030008B5024B1B68DB6840
:106EBC00019308BD6802030008B5024B1B681B68F0
:106ECC00019308BD3002030008B5024B1B685B69D7
:106EDC00019308BD3002030008B5024B1B68DB6947
:106EEC00019308BD3002030008B5024B1B681B6AF6
:106EFC00019308BD3002030008B5024B1B685B6AA6
:106F0C00019308BD3002030008B5024B1B68DB6B14
:106F1C00019308BD3002030008B5024B1B681B6CC3
:106F2C00019308BD3002030008B5024B1B685B6C73
:106F3C00019308BD3002030008B5024B1B68DB68E7
:106F4C00019308BD3C02030008B5024B1B681B698A
:106F5C00019308BD3C02030008B5024B1B685B693A
:106F6C00019308BD3C02030008B5024B1B689B69EA
:106F7C00019308BD3C02030008B5024B1B68DB699A
:106F8C00019308BD3C02030008B5024B1B681B6A49
:106F9C00019308BD3C02030008B5024B1B689B6AB9
:106FAC00019308BD3C02030008B5024B1B681B6C27
:106FBC00019308BD3C02030008B5024B1B681B681B
:106FCC00019308BD4C02030008B5024B1B685B68BB
:106FDC00019308BD4C02030008B5024B1B681B69EA
:106FEC00019308BD4C02030008B5024B1B685B699A
:106FFC00019308BD4C02030008B5024B1B689B694A
:10700C00019308BD4C02030008B5024B1B68DB69F9
:10701C00019308BD4C02030008B5024B1B681B6AA8
:10702C00019308BD4C02030008B5024B1B685B6B57
:10703C00019308BD6002030008B5024B1B685B6836
:10704C00019308BD2002030008B5024B1B685B6965
:10705C00019308BD2002030008B5034B1B68D3F84D
:10706C008830019308BD00002002030008B5034BD3
:10707C001B68D3F89430019308BD00002002030074
:10708C0008B5024B1B68DB6B019308BD440203007F
:10709C0008B5024B1B685B6C019308BD44020300EE
:1070AC0008B5024B1B685B68019308BD40020300E6
:1070BC0008B5024B1B689B68019308BD4002030096
:1070CC0008B5024B1B68DB68019308BD4002030046
:1070DC0008B5024B1B681B69019308BD40020300F5
:1070EC0008B5024B1B685B69019308BD40020300A5
:1070FC0008B5024B1B689B69019308BD4002030055
:10710C0008B5024B1B68DB69019308BD4002030004
:10711C0008B5024B1B681B6A019308BD40020300B3
:10712C0008B5024B1B681B6B019308BD40020300A2
:10713C0008B5024B1B685B6B019308BD4002030052
:10714C0008B5024B1B681B6C019308BD4002030081
:10715C0008B5024B1B685B6C019308BD4002030031
:10716C0008B5024B1B681B68019308BD1C02030089
:10717C0008B5024B1B685B68019308BD1C02030039
:10718C0008B5024B1B689B68019308BD1C020300E9
:10719C0008B5024B1B68DB69019308BD1C02030098
:1071AC0008B5024B1B685B6A019308BD1C02030007
:1071BC0008B5024B1B681B6B019308BD1C02030036
:1071CC0008B5024B1B681B6C019308BD1C02030025
:1071DC0008B5024B1B685B6C019308BD1C020300D5
:1071EC000021FFF731BF0000024800230360FFF7C6
:1071FC008BBD00BFC4E603201FB50C23ADF80430D3
:10720C0003688DF80630037A8DF8073043680293D3
:10721C000021437AADF80D1001A88DF80F108DF8F0
:10722C000C30FFF735FF05B05DF804FB0022406819
:10723C001146FFF76DBF002240681146FFF778BF7B
:10724C0040680022FFF76CBF4068002281F001010A
:10725C00FFF756BF002340681A461946FFF748BF90
:10726C00002340681A461946FFF73ABF00224068CF
:10727C001146FFF72DBF002240681146FFF718BFDB
:10728C00406800220221FFF71BBF002340681A460A
:10729C00FFF706BF024B03225A60024A1A6070477E
:1072AC00C8E6032004970B007047F8B50646154650
:1072BC000C468F18BC4206D0336814F8011B9B682F
:1072CC0030469847F6E72846F8BD007C0022FFF7C9
:1072DC00A3BD007C0021FFF7A7BD007C0021FFF7B8
:1072EC00ABBD007C0021FFF7AFBD007C0021FFF798
:1072FC00B3BD10B514210446FCF7C7FE204610BDE3
:10730C0010B54FF47A73044608460021C4E9011302
:10731C00034B236020741146FFF7AEFD204610BDD1
:10732C0040970B00007C0022FFF756BD0023007C29
:10733C001A461946FFF758BD007C0022FFF75CBDCA
:10734C00C9B2FFF7F9BF007C0022FFF75DBD012138
:10735C00FFF7F9BFFFF728BDFFF71EBD704710B54B
:10736C0018210446FCF791FE204610BDF0B5037DB4
:10737C00062B8DB00E4600F104074FF0000412D01E
:10738C0000F1080515F8011D0A22304600F05DF9E0
:10739C00AF42044419D0002CF4D02E21304600F01A
:1073AC003BF90444EEE72F236A4639460A208DF850
:1073BC000040FFF769FD684601F074F83368024637
:1073CC00DB68694630469847044620460DB0F0BD50
:1073DC0010B5054B0446112240F8043B002101F086
:1073EC0013F8204610BD00BF68970B000346074AF0
:1073FC0010B543F8042B01F1100251F8044B43F87B
:10740C00044B9142F9D10A781A7010BD68970B00A1
:10741C0010B59DF8084044EA032343EA024242EACD
:10742C00016104234160037510BD000007B5064BD4
:10743C000360CB7800938B784A780978FFF7E8FFE4
:10744C0003B05DF804FB00BF68970B00014B024AC8
:10745C001A607047D0E6032074970B000023406835
:10746C001A46FFF71DBE406800220221FFF728BE16
:10747C00002240681146FFF71BBE002240681146EF
:10748C00FFF726BE002340681A461946FFF728BEB0
:10749C00002340681A461946FFF72ABE40680021AF
:1074AC00FFF74EBE40680021FFF752BE4068002235
:1074BC0081F00101FFF724BE40680022FFF730BEC7
:1074CC00002240681146FFF733BE00224068114687
:1074DC00FFF71EBE2DE9F04395B014460D46074646
:1074EC00FFF776FF00211C220DA8009100F08CFF05
:1074FC0040230C9320466B460CAA0021FFF7D4FCCA
:10750C00044600284BD1024601216868FFF7E0FDD4
:10751C000221804622466868FFF7DAFD009E81460C
:10752C002146002E3BD0002939D17368022B03D0A1
:10753C000A2B11D0F669F4E7B8F1000FFAD0716993
:10754C0006A8043107ADFFF771FF0FCD3C1D0FC42A
:10755C002B6823704146EDE7B9F1000FEAD074694E
:10756C00102201A800F050FF06238DF8143001AD55
:10757C0004F108031834186859682A4603C2083302
:10758C00A3421546F7D101A906A807ADFFF72EFFB8
:10759C000FCD3C1D0FC42B6823704946CAE70098D9
:1075AC00FFF77AFC384615B0BDE8F083024B034A6E
:1075BC001A6000225A607047D4E6032080970B00B3
:1075CC00F8B506460D468F180024BD420CD0336822
:1075DC0015F8011B9B6830469847031E01DB1C44C1
:1075EC00F3E7002C08BF1C462046F8BD13B5044633
:1075FC00084659B1019100F055FF23680199DB68E9
:10760C000246204602B0BDE81040184702B010BD3B
:10761C0008B5FFF7EBFF08BD03689B68184738B542
:10762C000D210546FFF7F8FF0A2104462846FFF70F
:10763C00F3FF204438BD38B50546FFF7D7FF0446A5
:10764C002846FFF7ECFF204438BD30B58BB0002343
:10765C00012A8DF8243098BF0A2209AC0D46B1FBE3
:10766C00F2F101FB125303F0FF03092B94BF3033EB
:10767C003733DBB2AA4204F8013DEFD92146FFF7BC
:10768C00B5FF0BB030BD2DE9F04186B000AF05461B
:10769C000E46381D142114463B60FFF781FD13285C
:1076AC000ED8391D2846FFF7A1FF04461EB1284607
:1076BC00FFF7B5FF044420461837BD46BDE8F081FE
:1076CC0000F1080323F00703E846ADEB030D224657
:1076DC00411C3B686846FFF763FD69462846FFF787
:1076EC0085FF0446C546E1E7014B00229A607047CE
:1076FC00DCE603200021FFF717BC0021FFF70CBCD0
:10770C0010B5044608462170FFF7E6FB00236360C2
:10771C00204610BD13B504460078FFF7EEFF58B9AC
:10772C00207801904FF6FF71FFF7C6FB019802B06D
:10773C00BDE81040FFF7DEBF02B010BD0078FFF7C8
:10774C00D9BF0000400830B5186000241868884282
:10775C00E5B206D90134082C02D040081860F5E7D0
:10776C000725024B5B5D137030BD00BFB4970B0057
:10777C002DE9F04306468FB000780C46FFF7BDFFAD
:10778C0000281BDB35781422002109A800F03CFEF0
:10779C000B23002209A92846ADF82430FFF7ACFBD7
:1077AC009DF82D3013B19DF82C5055B10027B946DA
:1077BC00B846012523795DB1C3B100200FB0BDE8F7
:1077CC00F083DDF830809DF834909DF83570F1E74A
:1077DC00002B35D1A368434508D18DF820908DF846
:1077EC002170BDF82020A3899A42E6D00023A1681D
:1077FC008DF80F300A9804AB0DF10F02FFF7A2FFC2
:10780C00217985B989B9A36843450ED38DF82090A9
:10781C008DF82170BDF82020A3899A4205D1049BD4
:10782C00434502D1C9E70029F9D100230193637BB9
:10783C0000939DF80F20237B3078FFF765FBBCE7A6
:10784C00CDE900552B462A460121F5E708B500780D
:10785C00FFF73AFBC0B208BD10B504460068FFF74D
:10786C0087FC204610BD10B50446006808B1FFF730
:10787C007FFC0023C4E90133236010BD38B50446F6
:10788C000D4600680131FFF77BFC10B1C4E900051F
:10789C00012038BD10B50368044623B143688B4200
:1078AC0001D3012010BD2046FFF7E8FF0028F9D0D6
:1078BC00A368002BF5D122681370F2E737B50D469B
:1078CC00114601920446FFF7E5FF019A28B92046BC
:1078DC00FFF7C9FF204603B030BDA26029462068DF
:1078EC0000F084FD2268A3680021D154F2E7002344
:1078FC0013B5C0E9003304468360037341B10846F5
:10790C00019100F0CFFD019902462046FFF7D6FF0A
:10791C00204602B010BD884210B5044605D00B6855
:10792C002BB18A681946FFF7C9FF204610BDFFF737
:10793C009AFFFAE710B500230446C0E900338360D0
:10794C000373FFF7E8FF204610BD13B5044659B189
:10795C000846019100F0A6FD019902462046FFF76A
:10796C00ADFF204602B010BDFFF77DFFF9E710B563
:10797C0004468AB00023C4E90033A360237308468D
:10798C0001A900F0A5F901A92046FFF7DEFF20466A
:10799C000AB010BD70B505460E4609B9002070BD81
:1079AC006AB1846814442146FFF774FF0028F5D0AF
:1079BC002868AB683146184400F06CFDAC600120BF
:1079CC00EDE710B58A6809680446FFF7E3FF10B9C4
:1079DC002046FFF748FF204610BD13B5044629B9D1
:1079EC002046FFF740FF204602B010BD084601912B
:1079FC0000F058FD019902462046FFF7CBFF002806
:107A0C00EED0F0E7054B02221A60054B054A9A604E
:107A1C000020C3E90000FFF70FBB00BFF8E603200E
:107A2C00ECE603200000FFFF024B1A68024B1A60C1
:107A3C00704700BF8CE10320FCE6032070474174C3
:107A4C00704708B5007CFFF7A7FA20EAE07008BD84
:107A5C0008B5007CFFF778FA20EAE07008BD08B59D
:107A6C00007CFFF781FA40EAE07008BD08B5007CA5
:107A7C00FFF772FA40EAE07008BD007CFFF77CBAB1
:107A8C0037B5457C04462DB1207C03B0BDE83040B1
:107A9C00FFF752BA007C0191FFF77EFA002801999A
:107AAC00F2DC284603B030BD10B514210446FCF7B7
:107ABC00ECFA204610BD000010B54FF47A73044662
:107ACC00084611460022C4E90123044B236001231C
:107ADC0020746374FFF768FA204610BDE0970B0022
:107AEC00417470477047704708B50021007CFFF760
:107AFC0083FA40EAE07008BD08B50121007CFFF76D
:107B0C007BFA40EAE07008BD08B5007CFFF76CFA20
:107B1C0020EAE07008BD08B5007CFFF75DFA20EAAA
:107B2C00E07008BD13B50446007C0191FFF75CFAC8
:107B3C000028019901DC607C20B1207CFFF764FAFD
:107B4C0020EAE07002B010BD007CFFF765BA10B5FA
:107B5C0014210446FCF799FA204610BD10B54FF4D9
:107B6C007A73044608460021C4E90113044B2360D0
:107B7C000123207463741146FFF71EFA204610BDD2
:107B8C0010980B00007C0022FFF71EBA10B51422CF
:107B9C000446002100F038FC204610BD10B50F4CF7
:107BAC0088B003A8FFF7F2FF2178BFF35B8F11F0C9
:107BBC0001010FD120460191FCF774FA019948B1EB
:107BCC0003AA0748FFF7CAFF2046FCF770FA0548DE
:107BDC0000F0FEFB024808B010BD00BF00E7032018
:107BEC0004E70320F17A0B00002240681146FFF7EE
:107BFC006FBA002240681146FFF78ABA002240682B
:107C0C001146FFF795BA40680022FFF789BA406821
:107C1C00002281F00101FFF773BA002340681A4675
:107C2C001946FFF765BA002340681A461946FFF754
:107C3C0057BA002240681146FFF73ABA4068002252
:107C4C000221FFF73DBA002340681A46FFF728BA15
:107C5C00024B04225A60024A1A60704718E703204C
:107C6C0040980B0010B5044600F01CFC013823189A
:107C7C002046834206D90278197800F8011B03F8D4
:107C8C000129F6E710BD70B50C46911E22291DD8AE
:107C9C00254630B9234430229D4210D205F8012BE1
:107CAC00FAE7B0FBF2F602FB1600C1B2092894BF4A
:107CBC0030315731C9B205F8011B3046E9E70023D2
:107CCC0020462B70FFF7CEFF204670BD0020FCE74E
:107CDC0038B5031E0C4615460EDAB3F1004F4FF0C3
:107CEC002D0214BF5842184601230A702A46194423
:107CFC00FFF7C9FF204638BD0123F9E7014B186097
:107D0C00704700BF90E1032008B50B4B43B1FFF760
:107D1C0045FF03681B699847002801DDAFF300801D
:107D2C00064B43B100F072F903681B6998470028B1
:107D3C0001DDAFF3008008BD000000000000000072
:107D4C0008B5FFF7E1FFFEF7F7FF014B186008BD20
:107D5C0028E703200548064A064908B5121A00F020
:107D6C0045FB054B054A1A6008BD00BF00F4032013
:107D7C0004F4032070990B0000F403201E1C279AB6
:107D8C0007B5002300931A466FF07701FFF76EF9E1
:107D9C0003B05DF804FB000007B543880A2B08D03C
:107DAC00502B0BD1094B1B684BB103B05DF804EBA6
:107DBC001847FFF7E5FF03B05DF804FB00230093C1
:107DCC001A466FF07701FFF751F9F4E724E7032027
:107DDC0010B512480021FFF7FBF9114B1A68114B33
:107DEC009A42114B0CBF012200221A7001D0FFF7EE
:107DFC00B1FFFEF791FF044600F01EFB0B4B13B1D5
:107E0C002046AFF3008000210848FFF739F9BDE8A0
:107E1C00104007480021FFF71FB900BF097D0B0078
:107E2C0000F403201E1C279A20E70320000000000A
:107E3C00A57D0B00232813B502D9002002B010BD7C
:107E4C00A0F10B03022B1AD8174C2178BFF35B8FD0
:107E5C0011F001010BD120460191FCF723F9019996
:107E6C0028B11248FFF74CFC2046FCF720F90F4BC9
:107E7C001878FFF739F80028DFD10120DEE7012858
:107E8C0009D800F083F80021007CFEF7EDFF80F0AC
:107E9C000100C0B2D2E709380128EED800F0B6F8DC
:107EAC00007CFFF771F8F2E7F8E10320FCE1032016
:107EBC00232838B504460D460AD8FF2908D0FFF709
:107ECC00B9FF28B129462046BDE83840FEF744BF2B
:107EDC0038BD38B504460D46FEF746FFFF2810D0D6
:107EEC00062804D84D2323FA00F0C30709D42046F2
:107EFC00FFF7A0FF28B129462046BDE83840FEF721
:107F0C003BBF38BD10B50446FEF72EFF031FDBB296
:107F1C00012B08D92046FFF78DFF20B12046BDE884
:107F2C001040FEF731BF002010BD0D2810B50446DF
:107F3C009CBF0E34A4B22046FFF77CFF50B1032146
:107F4C002046FEF701FF032804D12046BDE810406F
:107F5C00FEF732BF002010BDFEF736BF70470000A1
:107F6C0038B5202514230446036085600561064955
:107F7C00284600F06FF804496060284600F06AF863
:107F8C00E060204638BD00BF74980B0030B50E4D34
:107F9C002978BFF35B8F11F0010487B011D128460B
:107FAC00FCF780F868B101A8FFF7DAFF01AA2146B7
:107FBC000648FFF7A5F92846FCF779F8044800F0C5
:107FCC0007FA024807B030BD2CE7032030E7032046
:107FDC00697F0B007047000038B5044614252A460B
:107FEC00002100F011FA25804025074925812846FB
:107FFC00258200F02FF804496060284600F02AF82A
:10800C00E060204638BD00BF74980B0030B50E4DB3
:10801C002978BFF35B8F11F0010487B011D128468A
:10802C00FCF740F868B101A8FFF7D6FF01AA21467A
:10803C000648FFF741FD2846FCF739F8044800F0E4
:10804C00C7F9024807B030BD44E7032048E70320D6
:10805C00E17F0B00FCF717B881F0004102E000BF94
:10806C0083F0004330B54FEA41044FEA430594EAEC
:10807C00050F08BF90EA020F1FBF54EA000C55EA27
:10808C00020C7FEA645C7FEA655C00F0E2804FEAF8
:10809C005454D4EB5555B8BF6D420CDD2C4480EADA
:1080AC00020281EA030382EA000083EA010180EA0A
:1080BC00020281EA0303362D88BF30BD11F0004F58
:1080CC004FEA01314FF4801C4CEA113102D040428E
:1080DC0061EB410113F0004F4FEA03334CEA1333C9
:1080EC0002D0524263EB430394EA050F00F0A780E1
:1080FC00A4F10104D5F1200E0DDB02FA0EFC22FADC
:10810C0005F2801841F1000103FA0EF2801843FACF
:10811C0005F359410EE0A5F120050EF1200E012AC0
:10812C0003FA0EFC28BF4CF0020C43FA05F3C018FE
:10813C0051EBE37101F0004507D54FF0000EDCF177
:10814C00000C7EEB00006EEB0101B1F5801F1BD320
:10815C00B1F5001F0CD349085FEA30004FEA3C0C24
:10816C0004F101044FEA445212F5800F80F09A801A
:10817C00BCF1004F08BF5FEA500C50F1000041EB1E
:10818C00045141EA050130BD5FEA4C0C404141EB22
:10819C000101013C28BFB1F5801FE9D291F0000F1D
:1081AC0004BF01460020B1FA81F308BF2033A3F1CC
:1081BC000B03B3F120020CDA0C3208DD02F1140CC3
:1081CC00C2F10C0201FA0CF021FA02F10CE002F1FE
:1081DC001402D8BFC2F1200C01FA02F120FA0CFCF7
:1081EC00DCBF41EA0C019040E41AA2BF01EB045140
:1081FC00294330BD6FEA04041F3C1CDA0C340EDC3E
:10820C0004F11404C4F1200220FA04F001FA02F380
:10821C0040EA030021FA04F345EA030130BDC4F13E
:10822C000C04C4F1200220FA02F001FA04F340EA33
:10823C000300294630BD21FA04F0294630BD94F0E4
:10824C00000F83F4801306BF81F480110134013DCB
:10825C004EE77FEA645C18BF7FEA655C29D094EA3C
:10826C00050F08BF90EA020F05D054EA000C04BFBA
:10827C001946104630BD91EA030F1EBF00210020A5
:10828C0030BD5FEA545C05D14000494128BF41F044
:10829C00004130BD14F580043CBF01F5801130BDA8
:1082AC0001F0004545F0FE4141F470014FF0000033
:1082BC0030BD7FEA645C1ABF194610467FEA655CE4
:1082CC001CBF0B46024650EA013406BF52EA033586
:1082DC0091EA030F41F4002130BD00BF90F0000F74
:1082EC0004BF0021704730B54FF4806404F13204B0
:1082FC004FF000054FF0000150E700BF90F0000F69
:10830C0004BF0021704730B54FF4806404F132048F
:10831C0010F0004548BF40424FF000013EE700BF5F
:10832C0042004FEAE2014FEA31014FEA02701FBFEF
:10833C0012F07F4393F07F4F81F06051704732F021
:10834C007F4208BF704793F07F4F04BF41F4002178
:10835C00704730B54FF4607401F0004521F00041D6
:10836C001CE700BF50EA010208BF704730B54FF060
:10837C0000050AE050EA010208BF704730B511F061
:10838C00004502D5404261EB41014FF4806404F199
:10839C0032045FEA915C3FF4D8AE4FF003025FEA1F
:1083AC00DC0C18BF03325FEADC0C18BF033202EBA3
:1083BC00DC02C2F1200300FA03FC20FA02F001FAFD
:1083CC0003FE40EA0E0021FA02F11444BDE600BFA0
:1083DC00002301461A46184600F0C8B8024B0A465C
:1083EC000146186800F018B890E103200A44914245
:1083FC0000F1FF3300D1704710B511F8014B03F8B1
:10840C00014F9142F9D110BD02440346934200D171
:10841C00704703F8011BF9E713B54A431146019263
:10842C00FEF7C6FE044618B1019A0021FFF7ECFFD7
:10843C00204602B010BD000038B5104B1D68AB6B68
:10844C000446B3B91820FEF78BFE0246A86320B988
:10845C000B4B0C484221FEF7B3FE0B490B4BC0E90A
:10846C0000130B4B83600B23838100210120C2E995
:10847C000401AB6B00221C615A6138BD90E10320F2
:10848C0075980B008C980B000E33CDAB34126DE647
:10849C00ECDE0500034611F8012B03F8012B002A32
:1084AC00F9D17047034613F8012B002AFBD1181A97
:1084BC0001387047164B73B51E68B46D0546FCB990
:1084CC0050200191FEF74CFE0199B065024620B98F
:1084DC00104B11485721FEF773FEC0E90044C0E968
:1084EC000244C0E90444C0E90A44C0E90C44C0E9B0
:1084FC000E44C0E91044C0E912448461047744621C
:10850C00B26D0123284602B0BDE8704000F006B8F9
:10851C0090E1032075980B00E5980B00F0B508B9B5
:10852C00106888B10446204614F8015B0F4617F812
:10853C00016B1EB965B91560284605E0B542F6D148
:10854C00002BF0D114600370F0BD1C460CE015B983
:10855C0014F8013B0E4616F8015BAB42F7D1002B29
:10856C00F3D0002304F8013C1460EDE72DE9F84347
:10857C00DFF8B8800646D8F800001F460D46914635
:10858C0000F056F8254B1C6834B9254C1C60254B63
:10859C0013B11B68C4F8883063681F2B07DDD8F84B
:1085AC00000000F047F84FF0FF30BDE8F8834EB301
:1085BC00D4F8880088B91C4B23B9D8F8000000F017
:1085CC0038F8F0E74FF48470FEF7CAFD0028F4D0B9
:1085DC000023C0E94033C4F88800636840F8239056
:1085EC0001229A4000EB8301D0F800311343C0F80C
:1085FC000031022EC1F8807002BFD0F80431134351
:10860C00C0F804316368D8F800005A1C0233626069
:10861C0044F8235000F00EF80020C6E7E8E70320EA
:10862C005CE70320000000006D710B00F4E10320F7
:10863C0070477047704700001D400B0059400B00FD
:10864C0081400B0085400B00000000002041002001
:10865C00440053656E736F7220506F6361204469E0
:10866C007374616E6369610053656E736F72204D34
:10867C00756368612044697374616E636961004F4E
:10868C004C45443A2053656E736F72204C757A20BA
:10869C002D3E2025640053656E736F72204E6F2043
:1086AC004C757A0053656E736F72205369204C754C
:1086BC007A0053656E736F72204E6F205275696429
:1086CC006F0053656E736F72205369205275696425
:1086DC006F0053656E736F72204E6F20426F746F14
:1086EC006E0053656E736F7220536920426F746F06
:1086FC006E0053656E736F72204E6F20526F7461F3
:10870C007469766F0053656E736F722053692052D3
:10871C006F74617469766F0053656E736F72205459
:10872C00656D702E4672696F0053656E736F7220A3
:10873C0054656D702E54656D706C61646F0053657B
:10874C006E736F722054656D702E43616C6F720086
:10875C0053656E736F722044697374616E636961E3
:10876C002043657263610053656E736F72204469B8
:10877C007374616E636961204C656A6F7300536535
:10878C006E736F724E6F56616C69646F4572726F67
:10879C0072005247422D56657264652D526F6A6F96
:1087AC00005247422D416D6172696C6C6F2D4D6F9B
:1087BC007261646F005247422D417A756C2D4E6187
:1087CC0072616E6A61005247422D426C696E6B0099
:1087DC005247422D5261696E426F77005247422DCB
:1087EC004F6E2D4F6666005A756D6261646F722014
:1087FC004F6E2D4F6666005A756D6261646F722004
:10880C00426C696E6B004163747561646F724E6F7C
:10881C0056616C69646F4572726F72004D494641C6
:10882C0052455F526561642829206661696C6564F4
:10883C003A20005043445F41757468656E746963F7
:10884C006174652829206661696C65643A2000545E
:10885C006167496E666F3A20257300436F6E6563DE
:10886C0074617220616C2070756572746F20413078
:10887C000A00436F6E656374617220616C207075C1
:10888C006572746F2041320A00436F6E65637461C8
:10889C007220616C2070756572746F2041340A000F
:1088AC00436F6E656374617220616C2070756572C4
:1088BC00746F2044320A00436F6E656374617220DA
:1088CC00616C2070756572746F2044340A00436FBC
:1088DC006E656374617220616C2070756572746F63
:1088EC002044360A004572726F723A204E6F20682F
:1088FC006179206D61732070756572746F7320647B
:10890C006973706F6E69626C6573200A004C6564E4
:10891C004572726F724F7074696F6E0056616C6F36
:10892C0072206E6F2076616C69646F004469737499
:10893C00616E6369613A2025640054656D703A205C
:10894C00256600496E76616C696453656E736F724F
:10895C004572726F72005365206573706572616247
:10896C006120636F6E646963696F6E616C0053653F
:10897C00206573706572616261204946207461677D
:10898C000053652065737065726120616374756155
:10899C00646F72004572726F723A206E6563657314
:1089AC006172696F20616C206D656E6F7320756EDE
:1089BC002073656E736F72002D0000000000003E86
:1089CC005B4F5B3E3E6B4F6B3E1C3E7C3E1C183C33
:1089DC007E3C181C577D571C1C5E7F5E1C00183C8F
:1089EC001800FFE7C3E7FF0018241800FFE7DBE7D8
:1089FC00FF30483A060E2629792926407F050507BF
:108A0C00407F05253F5A3CE73C5A7F3E1C1C08081A
:108A1C001C1C3E7F14227F22145F5F005F5F0609DF
:108A2C007F017F006689956A606060606094A2FF38
:108A3C00A29408047E040810207E201008082A1C2A
:108A4C0008081C2A08081E101010100C1E0C1E0CF6
:108A5C0030383E3830060E3E0E0600000000000096
:108A6C00005F00000007000700147F147F14242A05
:108A7C007F2A1223130864623649562050000807D7
:108A8C000300001C2241000041221C002A1C7F1CF8
:108A9C002A08083E080800807030000808080808FA
:108AAC00000060600020100804023E5149453E0061
:108ABC00427F400072494949462141494D331814BF
:108ACC00127F1027454545393C4A4949314121110E
:108ADC0009073649494936464949291E0000140000
:108AEC000000403400000008142241141414141423
:108AFC00004122140802015909063E415D594E7C81
:108B0C001211127C7F494949363E414141227F4135
:108B1C0041413E7F494949417F090909013E414193
:108B2C0051737F0808087F00417F41002040413F7E
:108B3C00017F081422417F404040407F021C027F8D
:108B4C007F0408107F3E4141413E7F090909063EE2
:108B5C004151215E7F0919294626494949320301B1
:108B6C007F01033F4040403F1F2040201F3F4038C3
:108B7C00403F631408146303047804036159494D9E
:108B8C0043007F4141410204081020004141417FD4
:108B9C00040201020440404040400003070800204A
:108BAC00545478407F28444438384444442838444A
:108BBC0044287F385454541800087E090218A4A481
:108BCC009C787F0804047800447D40002040403DA0
:108BDC00007F1028440000417F40007C047804781A
:108BEC007C080404783844444438FC1824241818AD
:108BFC00242418FC7C080404084854545424040409
:108C0C003F44243C4040207C1C2040201C3C4030F5
:108C1C00403C44281028444C9090907C4464544C24
:108C2C00440008364100000077000000413608007F
:108C3C0002010204023C2623263C1EA1A161123A29
:108C4C004040207A38545455592155557941225475
:108C5C00547842215554784020545579400C1E527A
:108C6C00721239555555593954545459395554541F
:108C7C00580000457C410002457D420001457C4086
:108C8C007D1211127DF0282528F07C5455450020CA
:108C9C0054547C547C0A097F4932494949323A443C
:108CAC0044443A324A4848303A4141217A3A4240A7
:108CBC002078009DA0A07D3D4242423D3D40404079
:108CCC003D3C24FF2424487E4943662B2FFC2F2B4C
:108CDC00FF0929F620C0887E0903205454794100ED
:108CEC0000447D413048484A32384040227A007A6C
:108CFC000A0A727D0D19317D2629292F282629294A
:108D0C00292630484D40203808080808080808086B
:108D1C00382F10C8ACBA2F102834FA00007B000092
:108D2C0008142A142222142A14085500550055AA96
:108D3C0055AA55AAFF55FF55FF000000FF00101063
:108D4C0010FF00141414FF001010FF00FF1010F09F
:108D5C0010F0141414FC001414F700FF0000FF00B2
:108D6C00FF1414F404FC141417101F10101F101F00
:108D7C001414141F00101010F0000000001F10102D
:108D8C0010101F10101010F010000000FF10101029
:108D9C00101010101010FF10000000FF140000FF46
:108DAC0000FF00001F10170000FC04F4141417102F
:108DBC00171414F404F40000FF00F7141414141422
:108DCC001414F700F7141414171410101F101F1498
:108DDC001414F4141010F010F000001F101F0000F9
:108DEC00001F14000000FC140000F010F01010FF25
:108DFC0010FF141414FF141010101F00000000F0CA
:108E0C0010FFFFFFFFFFF0F0F0F0F0FFFFFF00009E
:108E1C00000000FFFF0F0F0F0F0F3844443844FCC5
:108E2C004A4A4A347E02020606027E027E026355DC
:108E3C004941633844443C04407E201E2006027E97
:108E4C00020299A5E7A5991C2A492A1C4C720172A9
:108E5C004C304A4D4D303048784830BC625A463D13
:108E6C003E494949007E0101017E2A2A2A2A2A44C8
:108E7C00445F444440514A444040444A51400000FD
:108E8C00FF0103E080FF000008086B6B0836123608
:108E9C002436060F090F06000018180000001010E9
:108EAC00003040FF0101001F01011E00191D1712A7
:108EBC00003C3C3C3C0000000000000000000000B6
:108ECC0000000000000000000000000085560B00B0
:108EDC00CD750B009D400B008B500B008D500B0083
:108EEC00BF500B009B500B00AD500B00CD4F0B0037
:108EFC008B500B00B7520B00B5520B00D7500B0028
:108F0C0015510B004F510B0095510B00B1510B003B
:108F1C0035520B0064656661756C7420004D5342CC
:108F2C00004C5342003C53504953657474696E674E
:108F3C00732064656661756C743E003C53504953F4
:108F4C00657474696E6773202573257520257320ED
:108F5C004D4F444525753E00000000000000000008
:108F6C00A5570B0093570B0095570B0000006000A2
:108F7C0000000000000000000000000000E0000005
:108F8C00000000000000000000000001E0000000F4
:108F9C000000000000000000000001F000000000D4
:108FAC0000000000000000000003F00000000000C2
:108FBC00000000000000000007F0000000000000AE
:108FCC000000000000000007F80000000000000096
:108FDC000000000000000FF800000003C0007E003D
:108FEC000001E0007F0FF800000003C000FE00004D
:108FFC0001E000FFEFF800000003C000FE000001DC
:10900C00E000FFFFF800000003C000F00000000FBC
:10901C00007FFE7FC0000003C000F00000000F00C6
:10902C003FFE7FF83FF1FBCFFCFEF3BC3DEFE01FB2
:10903C00FE7FFF7FFBFFDFFEFEFFBC3DEFE01FC6A8
:10904C00FFFF7FFBFFDFFEFEFFBC3DEFE00FE3C742
:10905C00FE787BC3DE1EF0FFBC3DEF0007FF87FCF4
:10906C00787BC3DE1EF0F83C3DEF0001FFFFF00003
:10907C007BC3C01EF0F03C3DEF0001F37FE03FFBF3
:10908C00C3CFFEF0F03C3DEF0003E33F807FFBC31A
:10909C00DFFEF0F03C3DEF0007E73C00787BC3DEE1
:1090AC001EF0F03C3DEF0007FFBE00787BC3DE1ED8
:1090BC00F0F03C3DEF0007FFFE00787BC3DE1EF0B6
:1090CC00F03C3DEF000FFFFE007FFBFFDFFEF0F0FA
:1090DC003FFDEFE00FFFFF007FFBFFDFFEF0F03FF7
:1090EC00FDEFE00FF9FF003E79F9CF9EF0F01F3D48
:1090FC00E7E01FF1FF00000000000000000000008E
:10910C00001F80FF007FFFFFFFFFFFFFFFFFFFE05F
:10911C001C007F007FFFFFFFFEB46D888D18E00000
:10912C00001F007FFFFFFFFE95AD7DB577E00000CF
:10913C000F007FFFFFFFFEA5AD9D8D19E00000061F
:10914C00007FFFFFFFFEB5ADEDB57EE0FFFFFFFF3B
:10915C00FFFFFFFFFFFFFFFFFFFFFFFFFFFFFFFF13
:10916C00FFFFFFFFFFFFFFFFFFFFFFFFFFFFFFFF03
:10917C00FFFFF8FFFFFFFFFFFFFFFFFFFFFFFFFFFA
:10918C00FFFFC07FFFFFFFFFFFFFFFFFFFFFFFFFA2
:10919C00FFFE007FFFFFFFFFFFFFFFFFFFFFFFFF53
:1091AC00FFFE007FFFFFFFFFFFFFFFFFFFFFFFFF43
:1091BC00FFFE003FFFFFFFFFFFFFFFFFFFFFFFFF73
:1091CC00FFFE003FFFFFFFFFFFFFFFFFFFFFFFFF63
:1091DC00FC3F003FFFFFFFFFFFFFFFFFFFFFFFFF15
:1091EC00FC0F001FFFFFFFFFFFFFFFFFFFFFFFFF55
:1091FC00FC07001FFFFFFFFFFFFFFFFFFFFFFFFF4D
:10920C00F807003FFFFFFFFFFFFFFFFFFFFFFFFF20
:10921C00F80783FFFFFFFFFFFFFFFFFFFFFFFFFFCD
:10922C00F00FCFFFFFFFFFFFFFFFFFFFFFFFFFFF71
:10923C00F80FFFFFFFFFFFFFFFFFFFFFFFFFFFFF29
:10924C00FE0FFFFFFFFFFFFFFFFFFFFFFFFFFFFF13
:10925C00FF9FFFFFFFFFFFFFFFFFFFFFFFFFFFFF72
:10926C00FFFFFFFFFFFFFFFFFFFFFFFFFFFFFFFF02
:10927C00FFFC1FFFFFFFFFFFFFFFFFFFFFFFC07F94
:10928C00FFFC0DFFE03FEF03FFC07FFFFFFE003F41
:10929C00F3F809FF8007E401FF001FFFFFFC3F1FED
:1092AC00F3F809FF1FC3E0F8FC3F87FFFFF8FFFF4F
:1092BC00F3F809FE3FF1E1FCF8FFE3FFFFF1FFFFDC
:1092CC00F3F819FC7FF8E3FFF1FFE3FFFFE3FFFF87
:1092DC00F3FF19F8FFFCE7FFE3FFC7FFFFE7FFFF12
:1092EC00F3FFF9F1FFFEE7FFE7FF8FFFFFC7FFFF7B
:1092FC00F3E7F9F3FFFFE7FFE7FF1FFFFFCFFFFFE8
:10930C00F3C3F9F3FFFFE7FFC7FE3FFFFFCFFFFFFC
:10931C00F381F9F3FFFFE7FFCFFC7FFFFFC00000F5
:10932C00F300F9E3FFFFE7FFCFF8FFFFFFC00000FA
:10933C00720079E3FFFFE7FFCFF1FFFFFFFE0000B4
:10934C00720079E3FFFFE7FFCFE3FFFFFFFFFFFCB6
:10935C00F300F9F3FFFFE7FFC7C7FFFFFFFFFFFCB9
:10936C00F381F9F3FFFFE7FFC78FFFFFFFFFFFF864
:10937C00F3C3F9F1FFFFE7FFE71FFFFFFFFFFFF963
:10938C00F1E7F1F9FFFCE7FFE23FFBFFFFFFFFF125
:10939C00F8FFF1F8FFFCE7FFF07FF3FFFFFFFFE3BF
:1093AC00FCFFE1FC7FF8E7FFF8FFE3FFFFFE7FC760
:1093BC00FC3F81FE3FE1E7FFFC7FC7FFFFFE1E0F76
:1093CC00FE0E09FF0783E7FFFE0E0FFFFFFF001FD6
:1093DC00FF8039FFC00FE7FFFF001FFFFFFFE0FF1B
:1093EC00FFE0FFFFF07FFFFFFFE0FFFFFFFFFFFF4E
:1093FC00FFFFFFFFFFFFFFFFFFFFFFFFFFFFFFFF71
:10940C00FFFFFFFFFFFFFFFFFFFFFFFFFFFFFFFF60
:10941C00FFFFFFFFFFFFFFFFFFFFFFFFFFFFFFFF50
:10942C00FFFFFFFFFFFFFFFFFFFFFFFFFFFFFFFF40
:10943C00FFFFFFFFFFFFFFFFFFFFFFFFFFFFFFFF30
:10944C00FFFFFFFFFFFFFFFFFFFFFFFFFFFFFFFF20
:10945C00FFFFFFFFFFCFFFFFFFFFFFFFFFFFFFFF40
:10946C00FFFFFFFFFF9FFFFFFFFFFFFFFFFFFFFF60
:10947C00FFFFFFFFFF3FFFFEF67CFFFFFFFFFFFF3D
:10948C00FFFFFFFFFF7CFFFEE7FCE7FFFFFFFFFF97
:10949C00FFFFFFFFFF787CFECFFCC7FFFFFFFFFF46
:1094AC00FFFFFFFFFF3931FEDFE19FFFFFFFFFFFF3
:1094BC00FFFFFFFFFE0393FE3E418FFFFFFFFFFF09
:1094CC00FFFFFFFFFF33B7FE1E9CE3FFFFFFFFFF15
:1094DC00FFFFFFFFFF7337FEC61DBBFFFFFFFFFF44
:1094EC00FFFFFFFFFF3827FEF29D39FFFFFFFFFF55
:1094FC00FFFFFFFFFF3C67FE7A4193FFFFFFFFFF7B
:10950C00FFFFFFFFFF3FE7FFFE6187FFFFFFFFFF4E
:10951C00FFFFFFFFFFFFFFFFFFFDFFFFFFFFFFFF51
:10952C00FFFFFFFFFFFFFFFFFFFDFFFFFFFFFFFF41
:10953C00FFFFFFFFFFFFFFFFFFFFFFFFFFFFFFFF2F
:10954C00FFFFFFFFFFFFFFFFFFFFFFFF000000001B
:10955C0000000000F9570B0011580B0085560B004A
:10956C00CD750B0025580B008B500B008D500B004C
:10957C00BF500B009B500B00AD500B00CD4F0B00A0
:10958C008B500B00B7520B00B7590B00535F0B00FD
:10959C00055F0B004F510B0095510B00B1510B00A7
:1095AC0035520B000080C0E0F0F8FCFE0001030710
:1095BC000F1F3F7FAED580A8D300408D2000A1C8DF
:1095CC00DB40A4A62EAFDA02818FDA1281DA028197
:1095DC002200FF2100556E6B6E6F776E20657272E4
:1095EC006F7200537563636573732E004572726FEF
:1095FC007220696E20636F6D6D756E69636174693D
:10960C006F6E2E00436F6C6C697373696F6E2064A0
:10961C00657465637465642E0054696D656F75744B
:10962C0020696E20636F6D6D756E69636174696F0F
:10963C006E2E004120627566666572206973206E1D
:10964C006F742062696720656E6F7567682E0049BC
:10965C006E7465726E616C206572726F7220696EC9
:10966C002074686520636F64652E2053686F756C79
:10967C0064206E6F742068617070656E2E00496E88
:10968C0076616C696420617267756D656E742E000D
:10969C00546865204352435F4120646F6573206EAC
:1096AC006F74206D617463682E0041204D494641F2
:1096BC005245205049434320726573706F6E646548
:1096CC00642077697468204E414B2E00EF950B0097
:1096DC00F8950B0010960B0025960B003F960B008F
:1096EC005B960B008A960B009C960B00B6960B00B3
:1096FC00000000000000000097720B008D720B0040
:10970C0083720B0079720B006D720B0061720B008F
:10971C00A9740B00B1740B0055720B004D720B0049
:10972C0043720B0039720B00E1740B000000000057
:10973C0000000000B5720B00FF720B00D7720B001B
:10974C00B7720B00DF720B00E7720B00EF720B00AD
:10975C00F7720B00000000000000000079730B0092
:10976C0069730B006B730B006170700000000000DC
:10977C000000000069740B0073740B007D740B0007
:10978C0087740B0091740B009D740B00A9740B0073
:10979C00B1740B00B9740B00C5740B00CD740B00C5
:1097AC00D7740B00E1740B00000810182028303817
:1097BC0025592D256D2D25645425483A254D3A25DE
:1097CC0053257A0061736374696D650000000000B5
:1097DC0000000000497A0B00B57A0B008D7A0B0063
:1097EC00CD750B005D7A0B00797A0B006B7A0B0050
:1097FC00877A0B004B7A0B004F7A0B0000000000AD
:10980C0000000000F37A0B005B7B0B00317B0B003C
:10981C00CD750B00237B0B00F57A0B00057B0B0041
:10982C00557B0B00157B0B00ED7A0B000000000044
:10983C0000000000537C0B00497C0B003F7C0B00AC
:10984C00F57B0B00337C0B00277C0B00A9740B0001
:10985C00B1740B001B7C0B00137C0B00097C0B0000
:10986C00FF7B0B00E1740B00005245454E54206DFC
:10987C00616C6C6F6320737563636565646564000C
:10988C002F746D702F6A656E6B696E732D47434331
:10989C002D31302D706970656C696E652D34385FB3
:1098AC0032303230313132345F313630363138305B
:1098BC003633392F7372632F6E65776C69622F6E36
:1098CC0065776C69622F6C6962632F7374646C6961
:1098DC00622F72616E642E63002F746D702F6A6537
:1098EC006E6B696E732D4743432D31302D7069704B
:1098FC00656C696E652D34385F32303230313132FF
:10990C00345F313630363138303633392F73726339
:10991C002F6E65776C69622F6E65776C69622F6C40
:10992C006962632F737472696E672F737472746FCC
:10993C006B2E6300494F0B00F5710B00A1720B00ED
:10994C0059740B00B9750B00F5760B00117A0B00EE
:10995C00357A0B005D7C0B0000000000000000005D
:04996C0000000000F7
:0499700000000000F3
:1099740004000000FFFFFFFFFFFFFFFF23000000C4
:10998400FFFFFFFFFFFFFFFF01000000FFFFFFFFDE
:1099940003000000FFFFFFFFFFFFFFFFFFFFFFFFCC
:1099A400FFFFFFFFFFFFFFFFFFFFFFFFFFFFFFFFC3
:1099B400FFFFFFFF07000000D0970B0094E1032096
:1099C4000000000000000000000000000000000093
:1099D4000000000000000000000000000000000083
:1099E4000000000000000000000000000000000073
:1099F4000000000000000000000000000000000063
:109A04000000000000000000000000000000000052
:109A14000000000000000000000000000000000042
:049A2400ECE7032048
:109A2800FFFFFFFF00000102030405060708090AFB
:109A38000B0C0D0E0F101112131415161718191AF6
:089A48001B1C1D1E1F2028003D
:049A500078563412FE
:040000052003E6C02E
:00000001FF
