:02000002B0004C
:1040000000400B00AC8D0B00000006000C00050208
:084010000401810C0000000016
:04401800AC7A0B0073
:10401C0009480A49884208B505D0094A824202D0AB
:10402C00121A03F01FFC0748074A0021121A03F06A
:10403C0027FC014808BD00BF6CE50320D48C0B00A5
:10404C001CE603201CE60320EDE7032070B5074EA9
:10405C00074C03F0B7FAA41BA4080025AC4200D10E
:10406C0070BD56F8043B98470135F7E7A08C0B0060
:10407C00C48C0B0000F01CBC08B500F067FCBDE85C
:10408C00084003F057BA02F03BBD02F041BD0000FE
:10409C0008B5034A00210C2002F096FCFEE700BF95
:1040AC0005670B000078B0FA80F0400970470123D7
:1040BC00037070470EB403B503AB002153F8042B07
:1040CC00019302F0A4FF02B05DF804EB03B070475B
:1040DC000EB403B503AB012153F8042B019302F08A
:1040EC0096FF02B05DF804EB03B0704730B503786F
:1040FC002D2B0CBF01220022134603440A2400205E
:10410C0013F8011B3039CDB2092D02D804FB001075
:10411C00F6E702B1404230BD70B514460D4603F0CF
:10412C00FDFB261F40B1FFF7E1FF294646F8040FBF
:10413C00002003F0F3FBF5E7236813B9014B0122D0
:10414C001A7070BDA4E6032037B58DF807200DF169
:10415C0007030A4601460D480D4D02F019F90128D6
:10416C00287010D003F060F90A4902F015FF03F033
:10417C005BF929780446054801F07AFE0146204691
:10418C0002F01DFF002003B030BD00BFABE60320E2
:10419C00C3E60320C07A0B00F0B58DB01E4D1F4A4C
:1041AC0000951F4B12781F4F06466021284602F0DF
:1041BC0010F9012838700FD003F036F91A4902F0C3
:1041CC00EBFE03F031F939780446284601F050FE35
:1041DC000146204602F0F3FE144B1222187807A970
:1041EC00FFF7B2FFB0B107AC0FCC03AD0FC523681E
:1041FC002B8003F019F90E4903AAFFF769FF0D494B
:10420C00324603A8FFF788FF034802F09CF80248E7
:10421C0001F0F9FE0DB0F0BDABE60320ACE50320D8
:10422C00A5E60320C3E60320D77A0B006CE5032038
:10423C00F37A0B0078E5032010B540B9264B1C68C7
:10424C00052C40D8DFE804F0050F1A262D34234B3B
:10425C00F5E703F0E9F8224902F09EFE1E4A1368C6
:10426C000133136014E003F0DFF81E4902F094FEF2
:10427C00194A136801331360022409E003F0D4F8DF
:10428C00194902F089FE144B4FF0FF321A600424D6
:10429C00204610BD03F0C8F8144902F07DFE0F4A09
:1042AC00E7E703F0C1F8124902F076FE0B4AD6E7B5
:1042BC0003F0BAF80F4902F06FFE084B4FF0FF32D3
:1042CC001A600624E4E703F0AFF80B4902F064FE31
:1042DC004FF0FF34DCE700BFBCE6032088E5032089
:1042EC00FF7A0B00167B0B002D7B0B00447B0B0025
:1042FC005B7B0B00727B0B00897B0B004278037895
:10430C0002B1013318467047034601301A78002A6F
:10431C00FAD101221A70704707B5002300931A4690
:10432C00194601F02BFD03B05DF804FB07B5002323
:10433C000093FF22194601F021FD03B05DF804FB48
:10434C0007B50A23002200931146FF2301F016FD46
:10435C0003B05DF804FB07B5FF23009300231A4656
:10436C00194601F00BFD03B05DF804FB07B5002105
:10437C000091E923FF2201F001FD03B05DF804FB7D
:10438C0007B5752300936C224623002101F0F6FC3F
:10439C0003B05DF804FB07B5002100918023FF22D8
:1043AC0001F0ECFC03B05DF804FB000013B504460F
:1043BC0003F03AF8084902F002FEFF2300931A4674
:1043CC000021204601F0DAFC03F02EF8034902B07C
:1043DC00BDE8104002F0F3BDB17B0B00C17B0B00BC
:1043EC0013B56C4650B103C984E803002046FFF7AF
:1043FC00B2FF204601F065FC02B010BD03C984E891
:10440C0003002046FFF7C7FFF3E713B56C4650B126
:10441C0003C984E803002046FFF7B2FF204601F0F1
:10442C0050FC02B010BD03C984E803002046FFF71E
:10443C009DFFF3E713B56C4650B103C984E8030044
:10444C002046FFF773FF204601F03BFC02B010BD85
:10445C0003C984E803002046FFF772FFF3E737B582
:10446C000D466C46E8B1D1E9000184E80300204612
:10447C00FFF79CFF204601F024FC4FF4C87002F0BB
:10448C0077FB95E8030084E803002046FFF744FF20
:10449C00204601F016FCC82003B0BDE8304002F005
:1044AC0067BBD1E9000184E803002046FFF734FF25
:1044BC00204601F006FC03B030BD13B56C4650B17C
:1044CC0003C984E803002046FFF770FF204601F083
:1044DC00F8FB02B010BD03C984E803002046FFF7C7
:1044EC001BFFF3E737B50D466C46002850D0D1E9D9
:1044FC00000184E803002046FFF718FF204601F076
:10450C00E0FBC82002F034FB95E8030084E80300CC
:10451C002046FFF740FF204601F0D3FBC82002F0F5
:10452C0027FB95E8030084E803002046FFF71EFFF5
:10453C00204601F0C6FBC82002F01AFB95E80300E8
:10454C0084E803002046FFF7FBFE204601F0B9FB90
:10455C00C82002F00DFB95E8030084E80300204618
:10456C00FFF70EFF204601F0ACFBC82002F000FB69
:10457C0095E8030084E803002046FFF7ECFE204694
:10458C0001F09FFBC82003B0BDE8304002F0F0BA48
:10459C00D1E9000184E803002046FFF7BDFE204668
:1045AC0001F08FFB03B030BD13B50446A4B202F08A
:1045BC003BFF0C4902F003FD2046012103F083F878
:1045CC002046012103F07FF8601C80B2012101908C
:1045DC0003F079F80198012102B0BDE8104003F016
:1045EC0072B800BFD37B0B0013B584B220460021F8
:1045FC0003F069F82046002103F065F8601C80B2D6
:10460C000021019003F05FF80198002102B0BDE891
:10461C00104003F058B810B50446FFF7C5FF6420EE
:10462C0002F0A6FA2046FFF7DFFFBDE81040642039
:10463C0002F09EBA034608460BB1FFF7ECBFFFF73A
:10464C00D3BF034608460BB1FFF7AEBFFFF7CCBF95
:10465C002DE9FF4101F101086C4605230E46074682
:10466C00C9B2154620465FFA88F201F01DFB2046C0
:10467C0001F0CCFB02F0D8FE2F4943463246FFF73F
:10468C0027FD052F52D8DFE807F0031A242E3842F5
:10469C0094E8030002AE86E8030031462846FFF793
:1046AC00C9FE304601F00DFB02F0BEFE234902F0BC
:1046BC0086FC204601F005FB04B0BDE8F08194E8CF
:1046CC00030002AE86E8030031462846FFF79DFE44
:1046DC00E7E794E8030002AE86E80300314628467B
:1046EC00FFF77EFEDDE794E8030002AE86E80300E8
:1046FC0031462846FFF7B3FED3E794E8030002AE39
:10470C0086E8030031462846FFF7ECFEC9E702F0C5
:10471C008BFE0B49FFF7DCFC94E8030002AE86E845
:10472C00030031462846FFF7C8FEBAE702F07CFECC
:10473C00044902F044FCB7E7DF7B0B001D7C0B0047
:10474C00FE7B0B000D7C0B0070B506460C46154627
:10475C0002F06AFE16493246FFF7ACFC02F064FE2A
:10476C00144B154A1549002D08BF1A46FFF7A2FC39
:10477C0002F05AFE12492246FFF7AAFC0121A0B210
:10478C0002F090FF46B1012E0CD002F04DFEBDE8B8
:10479C0070400C4902F013BC21462846BDE870401D
:1047AC00FFF74FBF21462846BDE87040FFF742BFD8
:1047BC00337C0B002D7C0B00287C0B00527C0B00F7
:1047CC005F7C0B000D7C0B0008B580B202F0A7FFDC
:1047DC0040F6C3139842D4BF0020012008BD07B592
:1047EC0080B20021019002F05DFF019802F084FF7D
:1047FC00431E5842584103B05DF804FB08B580B223
:10480C0002F08DFF07EE900AF8EEE77AF1EE046AFB
:10481C0067EEA67A9FED096A87EE867ADFED087A55
:10482C0067EE277A87EEA67ADFED067AB4EEE77AA2
:10483C00F1EE10FAACBF0120002008BD00C07F448F
:10484C000000964300002A4408B580B202F067FFCE
:10485C00B0F52F7FB4BF0020012008BD023810B581
:10486C00144603281BD8DFE800F002070C15BDE83E
:10487C0010401046FFF7A8BFBDE810401046FFF7E8
:10488C00E3BF90B2002102F00DFF2046BDE81040BE
:10489C00FFF7A5BFBDE810401046FFF7AFBF02F011
:1048AC00C3FD024902F08BFB002010BD737C0B0092
:1048BC0010B588B0002405A8CDE90544ADF81C401E
:1048CC0002F062F91B4823462246214640681A4CE6
:1048DC0002F0DEF802F0A8FD4FF4165102F098FD3C
:1048EC002178BFF35B8F11F001010BD120460391AE
:1048FC00FFF7D8FB039928B1104802F0C5FB2046FE
:10490C00FFF7D5FB0D4802F0C9FB012300933C22B5
:10491C0002210B4800F0B8FE0A4801F0D8FB0A4B04
:10492C00FF221A705A709A70DA701A715A7108B0A4
:10493C0010BD00BF18E703201CE6032020E603206F
:10494C0034E60320ABE60320A5E603202DE9F8436B
:10495C005D4801F0E7FCA8B15B4801F0B4FE00280B
:10496C0000F0B080594C204600F080FE204601211A
:10497C0000F0D7FC00204FF00113C4E904035448A5
:10498C00FFF70AFC524C2368013358D002F04CFD5F
:10499C00504A514B216800290CBF1146194602F0B0
:1049AC000EFB02F041FD4D4B61684D4A00290CBFD6
:1049BC001146194602F003FB23684A48002B6ED1BE
:1049CC00FFF79CFC012864DC6068FFF735FC411C98
:1049DC00064631D04348444FFFF796FC02F024FDC5
:1049EC00054640484149FFF789FC02462846FFF737
:1049FC006FFB3C48FFF782FC451EA36847F8253047
:104A0C0002F012FD57F8252039493A4FFFF752FBB7
:104A1C00E36847F8253002F007FD57F82520364F9C
:104A2C003649FFF747FB47F8256002F0FDFC57F8C5
:104A3C0025203349FFF74CFB4FF0FF332360294807
:104A4C00FFF75CFC061E1FDDDFF8AC90DFF8A480DE
:104A5C00254FD9F80020D8F800103868FFF7FEFE73
:104A6C00022E054606D1D9F80420D8F8041078682F
:104A7C00FFF7F4FE234B19684B1C05D0D4E9023028
:104A8C002A46E3B9FFF7E4FDBDE8F8430F4801F00F
:104A9C0055B802F0C9FC1C4902F091FACCE7FFF7BB
:104AAC002DFC002807DD6068FFF7C6FB421CC3D055
:104ABC00144B1860C0E702F0B7FC1449ECE7FFF7A1
:104ACC0043FEE1E7BDE8F883ABE6032034E60320C0
:104ADC0094E50320867C0B00907C0B00A97C0B00DA
:104AEC009C7C0B00C0E603207CE50320B47C0B000F
:104AFC00CD7C0B0070E503208CE50320D57C0B00EE
:104B0C00E47C0B0084E50320EF7C0B00027D0B00A2
:104B1C0010B5104C10484FF0FF3100F0B3FC0F49AA
:104B2C00204602F0A1FB0D4904F1100002F09CFBA1
:104B3C0008220B48102101F083F90A4B0022C3E92B
:104B4C000022A2F580329A60BDE81040022001F0EC
:104B5C0043BF00BF84E6032034E60320267D0B0010
:104B6C00ABE6032028E603202DE9F04F85B01F4665
:104B7C00BDF93880BDF83C30A8EB0209A7EB010A5F
:104B8C00B9F1000FB8BFC9F10009BAF1000FB8BFF5
:104B9C00CAF1000AD14583460C46154604DD3A4657
:104BAC002C4647460D469046BC4205DD2A464546F6
:104BBC00904622463C4617463E1BB2B20092A8EBEA
:104BCC00050282EAE271A1EBE271C6F3C03202FA8D
:104BDC0086F64545B4BF01224FF0FF3201917610A5
:104BEC000292BC421CDCDBF800200393D145D2F8C6
:104BFC001880C7BF294622462A4621465846C04738
:104C0C00019A039BB61AB1B236B2002E05DA029A9B
:104C1C001544009A56182DB236B2013424B2E0E78E
:104C2C0005B0BDE8F08F704710B404682469A44641
:104C3C005DF8044B604730B40468BDF80850029529
:104C4C00A46BA44630BC604730B40468BDF808506F
:104C5C000295E46BA44630BC604770B4BDF90C50AF
:104C6C00BDF810600468CDE90356246CA44670BCF2
:104C7C0060472DE9F3411C460368BDF820805B6951
:104C8C0005461646013C34440F4624B298472B681F
:104C9C00CDF8048000949C6A28463B46324639463F
:104CAC00A0472B68DB6A284602B0BDE8F0411847E4
:104CBC002DE9F3411D460368BDF820805B6904466D
:104CCC0017460E469847CDE9007822686B1E334490
:104CDC00956A20461BB23A463146A8472368DB6AE0
:104CEC00204602B0BDE8F04118472DE9F3471E46B7
:104CFC000368BDF928905B69BDF82C800C4605460D
:104D0C00174698472644B4422B680BDACDF800803E
:104D1C00D3F820A021464B463A4628460134D047CA
:104D2C0024B2F0E7DB6A284602B0BDE8F04718472A
:104D3C0013B502680191B0F90E100091146CB0F922
:104D4C000C3000221146A04702B010BD2DE9F743EC
:104D5C0099421646BDF92870BDF82C900268804621
:104D6C000D461C4613D1BE42C8BF3346CDF8289021
:104D7C00C4BF3E461F467B1C946B9B1B1BB232462A
:104D8C0029464046A44603B0BDE8F0436047BE4206
:104D9C000AD19942C2BF0B4625461C46631CCDF86E
:104DAC002890D46B5B1BE9E753699847CDE90079F0
:104DBC00D8F8003040469F6A324623462946B84709
:104DCC00D8F80030DB6A404603B0BDE8F043184722
:104DDC002DE9F3471D460368BDF82C805B69BDF9CE
:104DEC00289004460F46164698472368CDF8008055
:104DFC00D3F824A032462B4639462046D0472368A8
:104E0C00CDF8008009F1FF323244D3F824A03946A2
:104E1C002B46204612B2D0472368CDF80080D3F839
:104E2C0020A032464B4639462046D0476B1ED91936
:104E3C002368CDF800801D6A20464B46324609B2E5
:104E4C00A8472368DB6A204602B0BDE8F047184744
:104E5C00704701F00303B0F90A208376C907B0F953
:104E6C00083059BF8381C2818281C38170470000A1
:104E7C0030B54281C281074A074D018100248181EE
:104E8C004FF0FF31C0E905124460056004610477FE
:104E9C00046230BD0101000130820B002DE9F04F9E
:104EAC0089B0CDE902120268BDF948800493BDF9BE
:104EBC004C3052690593BDF850A00446904718F148
:104ECC0007024FF0000648BF08F10E024FEAE20B52
:104EDC0001963546039B019ABDF904109A18059B5F
:104EEC008B4212B227DD049B33444FF0000906932A
:104EFC000FFA89F080451FFA89F117DD4F0705BFBE
:104F0C00069BC0106D001D5C18BFEDB22B060AD5B8
:104F1C00029B206807921944836909B21F462046F8
:104F2C005346B847079A09F10109E1E7019B0133A0
:104F3C0001935E44CEE72368DB6A204609B0BDE8E6
:104F4C00F04F18472DE9F04F2DED028B91B016461E
:104F5C00026ABDF874809DF878509DF87C400391EE
:104F6C001F46BDF8703004938346002A40F0C5807C
:104F7C00B0F90C308B4240F34C81B0F90E30B34297
:104F8C0040F34781062313FB0513002B40F34181AB
:104F9C0006EBC403002B40F33C81037F1BB9AF2FFE
:104FAC0084BF0137FFB2DBF8003058465B69984785
:104FBC000522099200220592984A07EB8703D31821
:104FCC000C93B3B20693059A0C9B9B5C0793ABB204
:104FDC000B93BDF80C300893039B02FB05F919FAEF
:104FEC0083F90FFA89F308EE103A08230A93039B0E
:104FFC0002EB030A4FF000090FFA8AFA079ADBF862
:10500C000030D20752D5012D1FFA89F23ED1012C66
:10501C003CD19B6906991F46049B0A4412B2514627
:10502C005846B84709F101034FFA83F9079B5B080F
:10503C0007930A9B013B13F0FF030A93DED1059FF4
:10504C0001377BB20593099B013B13F0FF030993D6
:10505C00B9D1049B43450FD0012DDBF800303BD177
:10506C00012C39D10899CDF8008005311C6A3246E3
:10507C00082309B25846A047DBF80030DB6A5846D3
:10508C0011B0BDEC028BBDE8F04F1847069914FB2C
:10509C0002F20A44049901910094DB6918EE101A8B
:1050AC001F4612B22B465846B847BBE7049A4245F6
:1050BC00B8D0012D1FFA89F207D1012C05D19B69BB
:1050CC0006991F460A444346A8E70699CDF8048082
:1050DC0014FB02F20A44DFE70B9ACDF8048002EBD2
:1050EC008201089AE4000A4411460094DC693246B5
:1050FC002B4609B25846A047BEE7137A516812688E
:10510C000B92FF1AFFB201EBC70331F8372006925E
:10511C009A780992DA780C92012D93F9052093F97B
:10512C0006A00A9201D8012C57D9BDF92830089352
:10513C000FFA8AF30793DBF8003058465B699847FF
:10514C00B3B24FF000080E931AFA86F3C1464746E5
:10515C000F930C9B9F428FD2079B0E9A3B4403FBF1
:10516C000423002205920F9A1BB202EB070A08EEE9
:10517C00103A0FFA8AFA4346099A0599914241D29C
:10518C005A1CD2B25B070D9207D1069B06990B9A5B
:10519C0001339BB212F80190069319F0800F12D0D4
:1051AC00012DDBF80030BDF80C101AD1012C18D1F0
:1051BC000A9A9B691144059A11441E465246049B57
:1051CC0009B25846B047059E0136F3B24FEA490979
:1051DC0005935FFA89F90D9BCEE70023CDE90733E0
:1051EC00A9E70598089A024402FB0511049ACDE937
:1051FC000042DB6918EE102A1E4609B22B465846AF
:10520C00B047E0E7099B013798445FFA88F8FFB292
:10521C009FE711B0BDEC028BBDE8F08F287D0B0031
:10522C00F0B5026A85B004460B46002A34D10A292F
:10523C0008D1438A0282427E03EBC20363820120BF
:10524C0005B0F0BD0D29FAD0E17E007E657E71B10E
:10525C00B4F91060062111FB0061B4F90C60B14285
:10526C00C1BFB4F91210228201EBC5026282E28A3C
:10527C000192A28A0092CDE90205B4F91220B4F988
:10528C0010102046FFF75EFE237E228A03EB4303B9
:10529C0002EB43032382D2E70A2907D100230382BE
:1052AC00417E927A438A01FB0233C7E70D29C6D0AF
:1052BC00157AA942C3D3517A9942C0D351685D1B68
:1052CC00EDB201EBC505A87828B3E97819B3E17EF6
:1052DC00267E677E91B195F905100844B4F910103B
:1052EC0006FB0011B4F90C00814207DD002020827E
:1052FC00B4F91210927A02FB07126282E28A0192CE
:10530C00A28A0092CDE90267B4F91220B4F9101008
:10531C002046FFF717FE2979227E238A01FB0233F0
:10532C00B8E7012938BF01210176417670477047F3
:10533C0010B510210446FEF7A8FE204610BD000053
:10534C0073B5044608462279A36832B1A3B90B4958
:10535C0002B0BDE8704001F01FBE094A267B094D22
:10536C000949647B012E18BF2946CDE90014074971
:10537C00FEF7A0FE02B070BD054AEFE791820B006C
:10538C00B07B0B008D820B0089820B00A7820B0077
:10539C0080820B0010B5044B03600446C06A08B150
:1053AC0001F0B6FB204610BDC0880B0010B50446BA
:1053BC00FFF7F0FF20465021FEF767FE204610BD98
:1053CC00002910B54BDBB0F90C408C4247DD002AAC
:1053DC0045DBB0F90E40944241DD847E022C1FD097
:1053EC00032C26D0012C04D10489D24314440A4640
:1053FC0021B2012B23D0022B32D083BB002A1346BF
:10540C000489C06AB8BFD31DDB1013FB041102F072
:10541C00070201239340425C22EA030242541EE03D
:10542C000489013C611A4489D243224409B212B264
:10543C00DFE74489013C641A114622B2D9E7002AFD
:10544C0004891346B8BFD31DDB1013FB0411C36AC8
:10545C0002F0070001228240585C02435A5410BDEE
:10546C00002A13460489C06AB8BFD31DDB1013FB96
:10547C00041102F00702012303FA02F2435C5A40C2
:10548C00CCE7000070B5402204460E468021FFF7A1
:10549C00EFFC00250D4B2360656202F06FF9FF23D2
:1054AC0084F8333084F83630094BA3634FF6FF721F
:1054BC000123C4E90A05A28684F8376084F83C30DD
:1054CC002564A4F84450204670BD00BFC0880B0072
:1054DC00CC820B00F8B50446806A0D4690B194F965
:1054EC00301001F0F5FBA06A036800219B68984717
:1054FC00A06A036829469B689847A06ABDE8F840F3
:10550C0001F0EDBB94F93530014698B202F0DBF8AE
:10551C00606A20B12946BDE8F84001F05BBE082660
:10552C00802794F9330005EA070180B202F0CBF82A
:10553C0094F93400012180B202F0C5F894F93400DA
:10554C00002180B202F0BFF8013E4FEA5707E8D1C4
:10555C00F8BD38B50446806A0D4680B1A16C01F0E7
:10556C00A9FB002D204614BFA721A621FFF7B2FFEF
:10557C00A06A88B1E16CBDE8384001F09BBB606A61
:10558C0018B104F1380101F0B7FD94F9360000218F
:10559C0080B202F098F8E4E794F93600012180B269
:1055AC0002F091F8606A18B1BDE8384001F08ABD8C
:1055BC0038BD2DE9F8430446806A0D468F1840B378
:1055CC0094F9301001F084FBA06A036800219B68F9
:1055DC0098470126AF42A06A17D01F2E0CD901F0B4
:1055EC007EFB94F93010A06A01F072FBA06A03688C
:1055FC0000219B6898470126A06A15F8011B0368D7
:10560C0001369B689847F6B2E4E7BDE8F84301F031
:10561C0066BB94F93530014698B202F054F8BD429D
:10562C0022D0606A15F8019B18B1494601F0D2FDF1
:10563C00F5E708264FF0800894F9330009EA0801D1
:10564C0080B202F040F894F93400012180B202F0EB
:10565C003AF894F93400002180B202F034F8013E9B
:10566C004FEA5808E8D1DAE7BDE8F883B0F90A3018
:10567C00DA1D48BF03F10E02B0F90830C06AD2102F
:10568C005A43002102F0FCB82DE9FF411E46C36AC3
:10569C009DF8288004460F461546D3B12046FFF7E7
:1056AC00E5FFB4F90A20202A25DCB4F908102023E0
:1056BC00203A73390120CDE9013002EBD272732309
:1056CC0001EBD171009342F34F02854B41F34F0133
:1056DC001BE0B0F90A30D81D48BF03F10E00B4F935
:1056EC000830C010584301F00BFAE0620028D5D105
:1056FC0004B0BDE8F08140234FF0010CCDE9013C32
:10570C00802300930022774B11462046FFF7C6FBFF
:10571C00A06A84F83170002878D0002D74D1B4F9C7
:10572C000A30202B0CBF3C253D2584F83050B8F1B5
:10573C00000F01D001F0C2FAFEB194F93700002835
:10574C001BDB012180B201F0ADFF94F93700012180
:10575C0080B201F0B8FF012001F00AFA94F9370089
:10576C00002180B201F0AFFF0A2001F001FA94F998
:10577C003700012180B201F0A6FFA06A002874D086
:10578C00A16C01F097FA042257492046FFF711FF4C
:10579C0061890139C9B22046FFF79CFE53490422A6
:1057AC002046FFF706FF94F93130012B0CBF102176
:1057BC0014212046FFF78EFE04224D492046FFF7A8
:1057CC00F8FEA3684B4A93425CD14B490422204615
:1057DC00FFF7EFFED9212046FFF77CFE94F931301C
:1057EC00012B0CBF2221F1212046FFF773FE20462E
:1057FC0042490622FFF7DDFEA06A002863D0E16C67
:10580C0001F058FA012073E76DB28EE794F9350078
:10581C00012180B201F046FF94F93600012180B2DB
:10582C0001F040FF94F93600012180B201F04BFFEA
:10583C00656A3DB1B8F1000F3FF47EAF284601F028
:10584C002DFC79E794F93300012180B201F02AFF95
:10585C0094F93400012180B201F024FF94F9340052
:10586C00294680B201F02FFF66E7606A18B104F197
:10587C00380101F041FC94F93600002180B201F0AE
:10588C0022FF80E71E4A93420ED11E490322204676
:10589C00FFF78FFE94F93130012B0CBF9F21CF21E4
:1058AC002046FFF717FE95E7174A934292D1174906
:1058BC0003222046FFF77DFE94F93130012B0CBFFB
:1058CC001021AF21ECE794F93600012180B201F0F0
:1058DC00FAFE606A002895D001F0F4FB92E700BF55
:1058EC00D8820B00B8840B0020890B0024890B0094
:1058FC0028890B008000200032890B002C890B00BA
:10590C008000400036890B006000100039890B00C4
:10591C0070B5002ABDF810503DDBB0F90A40944236
:10592C0039DD0029BEBF5B181BB20021B0F908405D
:10593C00CE18A642C4BF631A1BB2002B2BDDC06A63
:10594C00D61014FB0611014402F00700012282401C
:10595C00012DD2B216D0022D0BD0E5B9D243D2B262
:10596C000B44994217D011F8010B104001F8010CAF
:10597C00F7E70B4499420ED011F8010B504001F897
:10598C00010CF7E70B44994205D011F8010B1043B9
:10599C0001F8010CF7E770BDF0B50029BDF8145003
:1059AC0076DBB0F90860B14272DA002ABEBF9B18F0
:1059BC001BB20022B0F90A40D718A742C4BFA31AE1
:1059CC001BB2002B64DDC2F3C404C76A16FB0416B9
:1059DC0012F00702DBB207EB060423D0C2F1080277
:1059EC00D2B22D4993423CBF4FF0FF0CA2EB030EF9
:1059FC00895C3CBF4CFA0EFC0CEA0101012D07D06E
:105A0C00022D2ED04DB917F806C02CEA010103E087
:105A1C0017F806C041EA0C01B955934238D3B0F9D6
:105A2C0008100C449A1AD2B2072A0ED9022D1DD195
:105A3C0013462178C9432170083BB0F90810DBB23A
:105A4C00072B0C44F5D802F007020AB3134B012DB7
:105A5C009B5C1AD0022D1CD0D5B9227822EA030304
:105A6C0015E017F806C081EA0C01D5E7291E18BF0E
:105A7C0001214942C9B213462170083BB0F90860B4
:105A8C00DBB2072B3444F7D8DDE7227813432370BD
:105A9C00F0BD22785340FAE710890B0018890B00EF
:105AAC0070B41446827EBDF80C60022A0DD0032A15
:105ABC0018D0012A11D10289E443144424B203966C
:105ACC000A46214670BCFFF767BF42890589E4434B
:105ADC0019441444691A24B209B20396224670BCC4
:105AEC00FFF716BF45891944691A09B2E7E730B4C4
:105AFC001446827EBDF80850022A0DD0032A18D015
:105B0C00012A11D1E2180489A41A24B202950A467A
:105B1C00214630BCFFF7FCBE0289C9431144E21890
:105B2C004489A41A09B224B20295224630BCFFF76C
:105B3C0033BF4289C943114409B2E7E72DE9F84361
:105B4C000446806A002842D0A16C01F0B3F84749A2
:105B5C0005222046FFF72DFD218901392046C9B2C7
:105B6C00FFF7B8FCB4F90A30DE1D48BF03F10E068E
:105B7C00D4E90A052389F61013FB06F615FA86F606
:105B8C0000283AD094F9301001F0A2F8A06A03680A
:105B9C0040219B6898470127B542A06A24D01F2F4B
:105BAC000CD901F09CF894F93010A06A01F090F82F
:105BBC00A06A036840219B6898470127A06A15F8E2
:105BCC00011B036801379B689847FFB2E4E7606AE2
:105BDC0018B104F1380101F08FFA94F93600002164
:105BEC0080B201F070FDB2E701F079F8A06A78B3E9
:105BFC00E16CBDE8F84301F05DB894F93500012182
:105C0C0080B201F060FDAE42F0D0606A15F8019BE5
:105C1C0018B1494601F0DEFAF5E708274FF0800885
:105C2C0094F9330009EA080180B201F04CFD94F9B3
:105C3C003400012180B201F046FD94F934000021BA
:105C4C0080B201F040FD013F4FEA5808E8D1DAE795
:105C5C0094F93600012180B201F035FD606A18B16B
:105C6C00BDE8F84301F02EBABDE8F8833C890B007F
:105C7C0013B50B4C2178BFF35B8F11F001010BD1E5
:105C8C0020460191FEF70EFA019928B1054801F062
:105C9C00FBF92046FEF70BFA024802B010BD00BF1C
:105CAC001CE6032020E6032010B504460170427068
:105CBC008370012103EB430001F0CCFD60602046B2
:105CCC0010BD10B50446406800F022FF204610BD00
:105CDC0010B500210446007801F0F5FC142000F00A
:105CEC000BFD2078012101F0EEFCBDE810401420E2
:105CFC0000F002BD70B506460C46082523064CBFC5
:105D0C0001210021707801F0DEFC013D3046FFF7E7
:105D1C00DFFF640015F0FF05E4B2EFD170BD73B581
:105D2C0013F0800F1E460C46154614BFC021E0210F
:105D3C00730658BF41F010012A0658BF41F0080104
:105D4C006B0658BF41F00401220658BF41F0020116
:105D5C00630658BF41F001010190FFF7CBFF01989A
:105D6C003146FFF7C7FF01982946FFF7C3FF01989B
:105D7C00214602B0BDE87040FFF7BCBF2DE9F047EB
:105D8C0004460F460021904699469DF820A0FFF747
:105D9C00B1FF00212046FFF7ADFF00212046FFF7A1
:105DAC00A9FF00212046FFF7A5FF0026A378F5B236
:105DBC00AB4219D905EB4500AF4200F1010200F1ED
:105DCC00020308D1616801F80080616801F8029053
:105DDC00616801F803A06168CB5C8A5C095C2046B1
:105DEC00FFF79DFF0136E1E720460021FFF782FF18
:105DFC0020460021FFF77EFF20460021FFF77AFFA7
:105E0C0020460021BDE8F047FFF774BF73B5044688
:105E1C000121007801F046FC6078012101F042FC80
:105E2C0000252E46A378E9B28B4207D900230096B1
:105E3C001A462046FFF7A2FF0135F3E702B070BD0A
:105E4C0038B50446084621730121154601F02AFC99
:105E5C00207B012101F037FC28466573012101F0FC
:105E6C0021FC607B002101F02EFC204638BD000097
:105E7C000139C9B208299ABF024B53F821000248D4
:105E8C00704700BF388A0B0041890B0007B50190A1
:105E9C00FFF7EEFE019903B05DF804EB01F09AB93F
:105EAC002DE9F74F07469DF830801E461546002A0F
:105EBC0042D001F07E01007B41F08009002101F00D
:105ECC0002FC4846FFF7E2FF013DEDB24FF0000B3C
:105EDC004FF0010A5FFA8BF4A54222D9DCB9B8F174
:105EEC00000F18D04246D3B2072B61B205D80AFA7C
:105EFC0002F40C43E4B20132F5E748460191FFF796
:105F0C00C5FF33780199044023EA01031C43347024
:105F1C000BF1010BDEE74846FFF7B8FF06F80B0064
:105F2C00F6E70020FFF7B2FF7055387B012103B074
:105F3C00BDE8F04F01F0C7BB03B0BDE8F08F38B53A
:105F4C000C4605460021007B04F07E0401F0BBFBEF
:105F5C0044F08000FFF79AFF0020FFF797FF012124
:105F6C000446287B01F0AFFB204638BDF8B50F4640
:105F7C0006460021007B15461C4601F0A4FB07F0E9
:105F8C007E00FFF783FF2544AC4204D014F8010BCC
:105F9C00FFF77CFFF8E7307B0121BDE8F84001F00A
:105FAC0092BB70B504460E46007B0021154601F0ED
:105FBC008AFB06F07E00FFF769FF2846FFF766FFB5
:105FCC00207B0121BDE8704001F07DBB70B5164609
:105FDC0004460D46FFF7B3FF3043C2B229462046B4
:105FEC00BDE87040FFF7DDBF70B5164604460D46A0
:105FFC00FFF7A5FF20EA0600C2B229462046BDE8FD
:10600C007040FFF7CEBF08221021FFF7EDBFF8B5A7
:10601C00044615460F46002202211E46FFF7C1FF1B
:10602C0004220A212046FFF7BCFF802214212046BF
:10603C00FFF7CCFF2A463B4612212046FFF796FF7E
:10604C00032202212046FFF7ACFF41F288350A21DA
:10605C002046FFF774FF430705D4013DADB2002D78
:10606C00F5D104200FE0002202212046FFF799FF12
:10607C0044212046FFF763FF422130702046FFF792
:10608C005EFF70700120F8BD10B50F22022104468E
:10609C00FFF787FF322000F06BFD02212046FFF74F
:1060AC004EFFC306F9D410BD10B528210446FFF7E6
:1060BC0046FF00F00303032B08D040F00302D2B2DA
:1060CC0020462821BDE81040FFF76BBF10BD10B56E
:1060DC000446407B01F010FB48BB607B012101F0C2
:1060EC00F2FA322000F044FD204680225421FFF7C2
:1060FC0058FF2046A9225621FFF753FF20460322C2
:10610C005821FFF74EFF2046E8225A21FFF749FF9E
:10611C00204640222A21FFF744FF20463D2222211F
:10612C00FFF73FFF2046BDE81040FFF7BDBF2046FC
:10613C00FFF7AAFFD8E72DE9F04F89B0DDE9135638
:10614C00DDF8549003929DF85C209DF858B00492B1
:10615C0004468A460027B9F1000F3ED099F800801A
:10616C000593002202212046FFF71BFF7F22082106
:10617C002046FFF716FF08EB0B188022142120464F
:10618C00FFF724FF5FFA88F8059B9DF84820122141
:10619C002046FFF7EBFE42461A212046FFF701FF8F
:1061AC00524602212046FFF7FCFEBAF10C0F04D137
:1061BC0080221A212046FFF709FF4FF4FA680821C4
:1061CC002046FFF7BCFE039B184208D1C30702D43C
:1061DC00B8F10108F3D104204DE0C846C0E70C210A
:1061EC002046FFF7ACFE10F0130F804646D1DDB110
:1061FC00D6B114212046FFF7A2FE33788342024623
:10620C003ED330702B4612212046CDF800B0FFF75C
:10621C0047FE18212046FFF792FE00F00707B9F160
:10622C00000F01D089F8007018F0080F2AD15DB367
:10623C0056B3049B43B33278012A03D1042F25D1E2
:10624C00092018E022D90FBB023A07ABD2B229467B
:10625C002046FFF7DCFE01280DD133781D449DF854
:10626C001C3015F8022C9A4210D115F8012C9DF80F
:10627C001D309A420AD109B0BDE8F08F0220FAE72E
:10628C000520F8E70320F6E70120F4E70820F2E701
:10629C0010B586B09DF82C4005949DF828400494C8
:1062AC00099C0394089C0092CDE9013430220B46E2
:1062BC000C21FFF740FF06B010BD70B588B0064644
:1062CC001C468DF8171015461AB31B78012B20D9D4
:1062DC0080221C21FFF788FE07238DF81F30002336
:1062EC00CDE902330DF11F03CDE9004301222B460A
:1062FC000DF117013046FFF7CBFF012807D12378AA
:10630C00022B08D19DF81F30002B18BF022008B0BB
:10631C0070BD0520FBE70220F9E713460A4626214B
:10632C00FFF7CBBF07B502230DF1030201A98DF8CE
:10633C000330FFF7F2FF00F0FD00431E58425841B6
:10634C0003B05DF804FB70B586B050238DF81430A3
:10635C0000240DF11603022205A906468DF81540FE
:10636C00FFF755FE012805460FD1CDE90244CDE9D2
:10637C0000442346042205A93046FFF789FF042870
:10638C0003D0012814BF05460225284606B070BD6F
:10639C007FB506461D461446CAB11B78112B16D97B
:1063AC00302313705170931C21460222FFF72FFEED
:1063BC0001280AD10023CDE901330390009523462F
:1063CC00042221463046FFF763FF04B070BD052060
:1063DC00FBE710B58AB00C9C8DF81D201A689B88C1
:1063EC00ADF8223063788DF82430A3788DF8253001
:1063FC00E3788DF8263023798DF827300023CDE90A
:10640C000433CDE9023301930C238DF81C10CDF825
:10641C001E200093102207AB0E21FFF78CFE0AB052
:10642C0010BD2DE9F04F502A8BB082460F46904696
:10643C0000F2408180221C21FFF7D6FD93238DF8BA
:10644C001C30B8F1000F00F0BC803C78042C94BFD9
:10645C0000230123012500260BE095238DF81C3029
:10646C00B8F1000F00F0AF803C78072C94BF0023EC
:10647C000123A8EBC60464B224EAE474002B00F0F8
:10648C00A48088228DF81E20032114F0070218BF67
:10649C00012202EBE40212F0FF02E0B21DD0002B4D
:1064AC0014BF4FF003094FF0040906F1010C91459C
:1064BC0094BF01EB090E01EB020E57FA8CFC5FFA4C
:1064CC008EFE0A460DF1280B0131C9B25A441CF854
:1064DC00019B02F80C9C7145F3D10BB1083044B20E
:1064EC001F2C74DD4FF070039DF81F208DF81D30AC
:1064FC009DF81E3053409DF8202053409DF82120DC
:10650C0053408DF8223007220DF1230307A9504682
:10651C00FFF77DFD0128814640F0C88000238DF8EF
:10652C001A3003238DF81B3004940DF1220B4FF01D
:10653C0009099DF81A30059303EB0312D2B21A2104
:10654C005046FFF72EFD059B02930DF11A03002216
:10655C0001930DF11B03039200934A465B4607A976
:10656C005046FFF795FE032881464CD11C2150461E
:10657C00FFF7E5FC810600F1998010F01F0008BFC1
:10658C002020A04240F38780431E03F0070244B250
:10659C0013F007034FEAD00018BF01230130184451
:1065AC000AAB1844012303FA02F210F80C3C134313
:1065BC0000F80C3C94E797238DF81C3006262346F4
:1065CC0057E7434646E7434653E702215DE7E310AE
:1065DC000233DBB204F0070214F007098DF81A201D
:1065EC0002EB03128DF81D2018BF4FF0010907AA0A
:1065FC00994402EB030BC3F109035FFA89F98DF897
:10660C001B30049495E7012850D1049B1F2B4FF0AD
:10661C0020047FF767AF9DF81E30882B3ED10323F3
:10662C001A4601361A4457FA86F6D2B219460AA807
:10663C0001330144DBB211F80C1C06F8011B934228
:10664C00F4D19DF81B60032E37D19DF81A40A4BBE2
:10665C000DF11E03012259465046FFF7D8FC0128C4
:10666C00814623D19DF81E209BF801309A4227D1F8
:10667C009DF81F209BF802309A4221D19BF80030E4
:10668C005A070ED50135EDB2032D94D0042D02D04E
:10669C00022D3FF4E2AE4FF0060907E0022304227C
:1066AC00BFE705EB45050135FB723D7048460BB065
:1066BC00BDE8F08F4FF00709F8E74FF00209F5E756
:1066CC004FF00809F2E708B501460022FFF7A9FED2
:1066DC00431E5842584108BD08B5024B1B685B6C01
:1066EC00019308BD4802030008B5024B1B685B68A8
:1066FC00019308BD1802030008B5024B1B68DB6848
:10670C00019308BD1802030008B5024B1B685B69B6
:10671C00019308BD1802030008B5024B1B685B68A7
:10672C00019308BD2C02030008B5024B1B689B6843
:10673C00019308BD2C02030008B5024B1B68DB68F3
:10674C00019308BD2C02030008B5024B1B681B69A2
:10675C00019308BD2C02030008B5024B1B685B6952
:10676C00019308BD2C02030008B5024B1B681B6B80
:10677C00019308BD2C02030008B5024B1B681B6873
:10678C00019308BD2802030008B5024B1B68DB68A7
:10679C00019308BD2802030008B5024B1B689B69D6
:1067AC00019308BD2802030008B5024B1B68DB6986
:1067BC00019308BD2802030008B5024B1B681B6A35
:1067CC00019308BD2802030008B5024B1B685B6AE5
:1067DC00019308BD2802030008B5024B1B689B6A95
:1067EC00019308BD2802030008B5024B1B68DB6A45
:1067FC00019308BD2802030008B5024B1B681B6BF4
:10680C00019308BD2802030008B5024B1B685B6BA3
:10681C00019308BD2802030008B5024B1B681B6CD2
:10682C00019308BD2802030008B5024B1B685B6985
:10683C00019308BD6402030008B5024B1B689B68FA
:10684C00019308BD6802030008B5024B1B68DB68A6
:10685C00019308BD6802030008B5024B1B681B6856
:10686C00019308BD3002030008B5024B1B685B693D
:10687C00019308BD3002030008B5024B1B68DB69AD
:10688C00019308BD3002030008B5024B1B681B6A5C
:10689C00019308BD3002030008B5024B1B685B6A0C
:1068AC00019308BD3002030008B5024B1B68DB6B7B
:1068BC00019308BD3002030008B5024B1B681B6C2A
:1068CC00019308BD3002030008B5024B1B685B6CDA
:1068DC00019308BD3002030008B5024B1B68DB684E
:1068EC00019308BD3C02030008B5024B1B681B69F1
:1068FC00019308BD3C02030008B5024B1B685B69A1
:10690C00019308BD3C02030008B5024B1B689B6950
:10691C00019308BD3C02030008B5024B1B68DB6900
:10692C00019308BD3C02030008B5024B1B681B6AAF
:10693C00019308BD3C02030008B5024B1B689B6A1F
:10694C00019308BD3C02030008B5024B1B681B6C8D
:10695C00019308BD3C02030008B5024B1B681B6881
:10696C00019308BD4C02030008B5024B1B685B6821
:10697C00019308BD4C02030008B5024B1B681B6950
:10698C00019308BD4C02030008B5024B1B685B6900
:10699C00019308BD4C02030008B5024B1B689B69B0
:1069AC00019308BD4C02030008B5024B1B68DB6960
:1069BC00019308BD4C02030008B5024B1B681B6A0F
:1069CC00019308BD4C02030008B5024B1B685B6BBE
:1069DC00019308BD6002030008B5024B1B685B689D
:1069EC00019308BD2002030008B5024B1B685B69CC
:1069FC00019308BD2002030008B5034B1B68D3F8B4
:106A0C008830019308BD00002002030008B5034B39
:106A1C001B68D3F89430019308BD000020020300DA
:106A2C0008B5024B1B68DB6B019308BD44020300E5
:106A3C0008B5024B1B685B6C019308BD4402030054
:106A4C0008B5024B1B685B68019308BD400203004C
:106A5C0008B5024B1B689B68019308BD40020300FC
:106A6C0008B5024B1B68DB68019308BD40020300AC
:106A7C0008B5024B1B681B69019308BD400203005B
:106A8C0008B5024B1B685B69019308BD400203000B
:106A9C0008B5024B1B689B69019308BD40020300BB
:106AAC0008B5024B1B68DB69019308BD400203006B
:106ABC0008B5024B1B681B6A019308BD400203001A
:106ACC0008B5024B1B681B6B019308BD4002030009
:106ADC0008B5024B1B685B6B019308BD40020300B9
:106AEC0008B5024B1B681B6C019308BD40020300E8
:106AFC0008B5024B1B685B6C019308BD4002030098
:106B0C0008B5024B1B681B68019308BD1C020300EF
:106B1C0008B5024B1B685B68019308BD1C0203009F
:106B2C0008B5024B1B689B68019308BD1C0203004F
:106B3C0008B5024B1B685B6A019308BD1C0203007D
:106B4C0008B5024B1B681B6B019308BD1C020300AC
:106B5C0008B5024B1B681B6C019308BD1C0203009B
:106B6C0008B5024B1B685B6C019308BD1C0203004B
:106B7C000021FFF739BF0000024800230360FFF734
:106B8C00ABBD00BFC4E603201FB50C23ADF8043029
:106B9C0003688DF80630037A8DF80730436802934A
:106BAC000021437AADF80D1001A88DF80F108DF867
:106BBC000C30FFF73DFF05B05DF804FB0022406888
:106BCC001146FFF775BF002240681146FFF780BFE2
:106BDC0040680022FFF774BF4068002281F0010179
:106BEC00FFF75EBF002340681A461946FFF750BFF7
:106BFC00002340681A461946FFF742BF002240683E
:106C0C001146FFF735BF002240681146FFF720BF41
:106C1C00406800220221FFF723BF002340681A4678
:106C2C00FFF70EBF024B03225A60024A1A607047EC
:106C3C00C8E60320648A0B007047F8B50646154673
:106C4C000C468F18BC4206D0336814F8011B9B68A5
:106C5C0030469847F6E72846F8BD007C0022FFF73F
:106C6C00ABBD007C0021FFF7AFBD007C0021FFF71E
:106C7C00B3BD007C0021FFF7B7BD007C0021FFF7FE
:106C8C00BBBD10B514210446FDF7FFF9204610BD1D
:106C9C0010B54FF47A73044608460021C4E9011379
:106CAC00034B236020741146FFF7B6FD204610BD40
:106CBC00A08A0B00007C0022FFF75EBD0023007C45
:106CCC001A461946FFF760BD007C0022FFF764BD31
:106CDC00C9B2FFF7F9BF007C0022FFF765BD0121A7
:106CEC00FFF7F9BF704710B518210446FDF7CDF931
:106CFC00204610BDF0B5037D062B8DB00E4600F17D
:106D0C0004074FF0000412D000F1080515F8011D1E
:106D1C000A22304600F05DF9AF42044419D0002C31
:106D2C00F4D02E21304600F03BF90444EEE72F233B
:106D3C006A4639460A208DF80040FFF775FD684613
:106D4C0000F0E4FD33680246DB686946304698473C
:106D5C00044620460DB0F0BD10B5054B044611227B
:106D6C0040F8043B002100F08BFD204610BD00BF15
:106D7C00C88A0B000346074A10B543F8042B01F1EF
:106D8C00100251F8044B43F8044B9142F9D10A78A4
:106D9C001A7010BDC88A0B0010B59DF8084044EA63
:106DAC00032343EA024242EA016104234160037572
:106DBC0010BD000007B5064B0360CB7800938B78B1
:106DCC004A780978FFF7E8FF03B05DF804FB00BFD1
:106DDC00C88A0B00014B024A1A607047D0E60320A8
:106DEC00D48A0B00002340681A46FFF729BE40687E
:106DFC0000220221FFF734BE002240681146FFF743
:106E0C0027BE002240681146FFF732BE00234068BF
:106E1C001A461946FFF734BE002340681A46194635
:106E2C00FFF736BE40680021FFF75ABE40680021CC
:106E3C00FFF75EBE4068002281F00101FFF730BE13
:106E4C0040680022FFF73CBE002240681146FFF765
:106E5C003FBE002240681146FFF72ABE2DE9F043E1
:106E6C0095B014460D460746FFF776FF00211C220D
:106E7C000DA8009100F004FD40230C9320466B46B6
:106E8C000CAA0021FFF7E0FC044600284BD1024677
:106E9C0001216868FFF7ECFD0221804622466868F4
:106EAC00FFF7E6FD009E81462146002E3BD00029CF
:106EBC0039D17368022B03D00A2B11D0F669F4E791
:106ECC00B8F1000FFAD0716906A8043107ADFFF7CD
:106EDC0071FF0FCD3C1D0FC42B6823704146EDE7AD
:106EEC00B9F1000FEAD07469102201A800F0C8FCB7
:106EFC0006238DF8143001AD04F10803183418681A
:106F0C0059682A4603C20833A3421546F7D101A992
:106F1C0006A807ADFFF72EFF0FCD3C1D0FC42B6845
:106F2C0023704946CAE70098FFF786FC384615B02F
:106F3C00BDE8F083024B034A1A6000225A60704786
:106F4C00D4E60320E08A0B00F8B506460D468F18F0
:106F5C000024BD420CD0336815F8011B9B683046E9
:106F6C009847031E01DB1C44F3E7002C08BF1C46AA
:106F7C002046F8BD13B50446084659B1019100F0FE
:106F8C00C5FC23680199DB680246204602B0BDE8C7
:106F9C001040184702B010BD08B5FFF7EBFF08BD55
:106FAC0003689B68184738B50D210546FFF7F8FFB5
:106FBC000A2104462846FFF7F3FF204438BD38B5B4
:106FCC000546FFF7D7FF04462846FFF7ECFF2044A1
:106FDC0038BD30B58BB00023012A8DF8243098BF12
:106FEC000A2209AC0D46B1FBF2F101FB125303F07E
:106FFC00FF03092B94BF30333733DBB2AA4204F8BA
:10700C00013DEFD92146FFF7B5FF0BB030BD2DE99F
:10701C00F04186B000AF05460E46381D14211446CB
:10702C003B60FFF785FD13280ED8391D2846FFF766
:10703C00A1FF04461EB12846FFF7B5FF04442046C5
:10704C001837BD46BDE8F08100F1080323F00703B3
:10705C00E846ADEB030D2246411C3B686846FFF742
:10706C0067FD69462846FFF785FF0446C546E1E7FC
:10707C00014B00229A607047DCE603200021FFF7E9
:10708C0023BC0021FFF718BC10B50446084621703C
:10709C00FFF7F2FB00236360204610BD13B50446D6
:1070AC000078FFF7EEFF58B9207801904FF6FF718A
:1070BC00FFF7D2FB019802B0BDE81040FFF7DEBF2E
:1070CC0002B010BD0078FFF7D9BF0000400830B502
:1070DC001860002418688842E5B206D90134082CDF
:1070EC0002D040081860F5E70725024B5B5D137072
:1070FC0030BD00BF148B0B002DE9F04306468FB05A
:10710C0000780C46FFF7BDFF00281BDB35781422F6
:10711C00002109A800F0B4FB0B23002209A9284682
:10712C00ADF82430FFF7B8FB9DF82D3013B19DF866
:10713C002C5055B10027B946B846012523795DB1CD
:10714C00C3B100200FB0BDE8F083DDF830809DF8AE
:10715C0034909DF83570F1E7002B35D1A368434589
:10716C0008D18DF820908DF82170BDF82020A389CE
:10717C009A42E6D00023A1688DF80F300A9804AB30
:10718C000DF10F02FFF7A2FF217985B989B9A36828
:10719C0043450ED38DF820908DF82170BDF820203A
:1071AC00A3899A4205D1049B434502D1C9E7002922
:1071BC00F9D100230193637B00939DF80F20237B6F
:1071CC003078FFF771FBBCE7CDE900552B462A461A
:1071DC000121F5E708B50078FFF746FBC0B208BD02
:1071EC0010B50446006808B1FFF792FC0023C4E90F
:1071FC000133236010BD38B504460D4600680131DB
:10720C00FFF78EFC10B1C4E90005012038BD10B5A4
:10721C000368044623B143688B4201D3012010BD9F
:10722C002046FFF7E8FF0028F9D0A368002BF5D122
:10723C0022681370F2E737B50D46114601920446E9
:10724C00FFF7E5FF019A28B92046FFF7C9FF204652
:10725C0003B030BDA2602946206800F003FB226811
:10726C00A3680021D154F2E7002313B5C0E9003321
:10727C0004468360037341B10846019100F046FB5C
:10728C00019902462046FFF7D6FF204602B010BDFA
:10729C00054B02221A60054B054A9A600020C3E98F
:1072AC000000FFF799BB00BFF8E60320ECE60320D3
:1072BC000000FFFF024B1A68024B1A60704700BFB8
:1072CC00B0E50320FCE6032070474174704708B515
:1072DC00007CFFF731FB20EAE07008BD08B5007CAC
:1072EC00FFF702FB20EAE07008BD08B5007CFFF751
:1072FC000BFB40EAE07008BD08B5007CFFF7FCFA18
:10730C0040EAE07008BD007CFFF706BB37B5457C52
:10731C0004462DB1207C03B0BDE83040FFF7DCBA49
:10732C00007C0191FFF708FB00280199F2DC28464C
:10733C0003B030BD10B514210446FCF7A6FE204660
:10734C0010BD000010B54FF47A7304460846114680
:10735C000022C4E90123044B2360012320746374CD
:10736C00FFF7F2FA204610BD408B0B0041747047BA
:10737C007047704708B50021007CFFF70DFB40EA11
:10738C00E07008BD08B50121007CFFF705FB40EA61
:10739C00E07008BD08B5007CFFF7F6FA20EAE07053
:1073AC0008BD08B5007CFFF7E7FA20EAE07008BDDD
:1073BC0013B50446007C0191FFF7E6FA0028019909
:1073CC0001DC607C20B1207CFFF7EEFA20EAE07053
:1073DC0002B010BD007CFFF7EFBA10B514210446C3
:1073EC00FCF753FE204610BD10B54FF47A730446DB
:1073FC0008460021C4E90113044B236001232074C7
:10740C0063741146FFF7A8FA204610BD708B0B0071
:10741C00007C0022FFF7A8BA10B514220446002104
:10742C0000F02EFA204610BD10B50F4C88B003A802
:10743C00FFF7F2FF2178BFF35B8F11F001010FD141
:10744C0020460191FCF72EFE019948B103AA07488A
:10745C00FFF7CAFF2046FCF72AFE054800F0F4F9B6
:10746C00024808B010BD00BF00E7032004E703206A
:10747C007D730B00002240681146FFF7F9BA002219
:10748C0040681146FFF714BB002240681146FFF715
:10749C001FBB40680022FFF713BB4068002281F03D
:1074AC000101FFF7FDBA002340681A461946FFF7A1
:1074BC00EFBA002340681A461946FFF7E1BA0022DA
:1074CC0040681146FFF7C4BA406800220221FFF75A
:1074DC00C7BA002340681A46FFF7B2BA024B04221F
:1074EC005A60024A1A60704718E70320A08B0B0001
:1074FC00014B1860704700BFB4E5032008B50B4B77
:10750C0043B1FFF791FF03681B699847002801DD21
:10751C00AFF30080064B43B100F070F903681B69B0
:10752C009847002801DDAFF3008008BD0000000083
:10753C000000000008B5FFF7E1FFFFF7E5F8014B8D
:10754C00186008BD28E703200548064A064908B517
:10755C00121A00F087F9054B054A1A6008BD00BFE6
:10756C0000F4032004F40320D08C0B0000F403205F
:10757C001E1C279A07B5002300931A466FF077015B
:10758C00FFF744FA03B05DF804FB000007B543882D
:10759C000A2B08D0502B0BD1094B1B684BB103B0F5
:1075AC005DF804EB1847FFF7E5FF03B05DF804FB4B
:1075BC00002300931A466FF07701FFF727FAF4E7E0
:1075CC0024E7032010B512480021FFF7C9FA114B2C
:1075DC001A68114B9A42114B0CBF012200221A70EF
:1075EC0001D0FFF7B1FFFFF77FF8044600F060F918
:1075FC000B4B13B12046AFF3008000210848FFF776
:10760C000FFABDE8104007480021FFF7F5B900BF9D
:10761C00FD740B0000F403201E1C279A20E70320A6
:10762C000000000099750B00232813B502D9002027
:10763C0002B010BDA0F10B03022B1AD8174C217805
:10764C00BFF35B8F11F001010BD120460191FCF7C8
:10765C0029FD019928B11248FFF716FD2046FCF7C9
:10766C0026FD0F4B1878FFF70FF90028DFD101200A
:10767C00DEE7012809D800F081F80021007CFFF733
:10768C00C3F880F00100C0B2D2E709380128EED867
:10769C0000F0B4F8007CFFF747F9F2E71CE6032092
:1076AC0020E60320232838B504460D460AD8FF29C6
:1076BC0008D0FFF7B9FF28B129462046BDE838406D
:1076CC00FFF732B838BD38B504460D46FFF734F82D
:1076DC00FF2810D0062804D84D2323FA00F0C30746
:1076EC0009D42046FFF7A0FF28B129462046BDE863
:1076FC003840FFF729B838BD10B50446FFF71CF821
:10770C00031FDBB2012B08D92046FFF78DFF20B1F8
:10771C002046BDE81040FFF71FB8002010BD0D2813
:10772C0010B504469CBF0E34A4B22046FFF77CFF74
:10773C0050B103212046FEF7EFFF032804D1204669
:10774C00BDE81040FFF710B8002010BD70470000D6
:10775C0038B520251423044603608560056106496D
:10776C00284600F06FF804496060284600F06AF87B
:10777C00E060204638BD00BFD48B0B0030B50E4DF9
:10778C002978BFF35B8F11F0010487B011D1284623
:10779C00FCF788FC68B101A8FFF7DAFF01AA2146C3
:1077AC000648FFF775FA2846FCF781FC044800F000
:1077BC004BF8024807B030BD2CE7032030E703201C
:1077CC0059770B007047000038B5044614252A463B
:1077DC00002100F055F825804025074925812846D1
:1077EC00258200F02FF804496060284600F02AF842
:1077FC00E060204638BD00BFD48B0B0030B50E4D79
:10780C002978BFF35B8F11F0010487B011D12846A2
:10781C00FCF748FC68B101A8FFF7D6FF01AA214686
:10782C000648FFF78FFD2846FCF741FC044800F0A2
:10783C000BF8024807B030BD44E7032048E70320AB
:10784C00D1770B00FCF71FBC002301461A461846E3
:10785C0000F0C0B8024B0A460146186800F018B890
:10786C00B4E503200A44914200F1FF3300D1704784
:10787C0010B511F8014B03F8014F9142F9D110BD2D
:10788C0002440346934200D1704703F8011BF9E709
:10789C0013B54A4311460192FFF752F9044618B149
:1078AC00019A0021FFF7ECFF204602B010BD00004A
:1078BC0038B5104B1D68AB6B0446B3B91820FFF7F5
:1078CC001FF90246A86320B90B4B0C484221FFF765
:1078DC003FF90B490B4BC0E900130B4B83600B2397
:1078EC00838100210120C2E90401AB6B00221C61E1
:1078FC005A6138BDB4E50320D58B0B00EC8B0B0023
:10790C000E33CDAB34126DE6ECDE0500034613F8F6
:10791C00012B002AFBD1181A01387047164B73B58E
:10792C001E68B46D0546FCB950200191FFF7E8F8CC
:10793C000199B065024620B9104B11485721FFF749
:10794C0007F9C0E90044C0E90244C0E90444C0E9B5
:10795C000A44C0E90C44C0E90E44C0E91044C0E933
:10796C001244846104774462B26D0123284602B04C
:10797C00BDE8704000F006B8B4E50320D58B0B00D1
:10798C00458C0B00F0B508B9106888B10446204648
:10799C0014F8015B0F4617F8016B1EB965B9156039
:1079AC00284605E0B542F6D1002BF0D114600370E7
:1079BC00F0BD1C460CE015B914F8013B0E4616F848
:1079CC00015BAB42F7D1002BF3D0002304F8013C50
:1079DC001460EDE72DE9F843DFF8B8800646D8F8D7
:1079EC0000001F460D46914600F056F8254B1C68CA
:1079FC0034B9254C1C60254B13B11B68C4F8883076
:107A0C0063681F2B07DDD8F8000000F047F84FF033
:107A1C00FF30BDE8F8834EB3D4F8880088B91C4B0E
:107A2C0023B9D8F8000000F038F8F0E74FF4847070
:107A3C00FFF766F80028F4D00023C0E94033C4F8FF
:107A4C008800636840F8239001229A4000EB830180
:107A5C00D0F800311343C0F80031022EC1F8807009
:107A6C0002BFD0F804311343C0F804316368D8F86E
:107A7C0000005A1C0233626044F8235000F00EF8E8
:107A8C000020C6E7E8E703205CE7032000000000C5
:107A9C000D6B0B0018E60320704770477047000011
:107AAC001D400B0059400B0081400B0085400B0022
:107ABC00000000004D49464152455F526561642803
:107ACC0029206661696C65643A20005043445F412B
:107ADC00757468656E7469636174652829206661C4
:107AEC00696C65643A2000546167496E666F3A2090
:107AFC00257300436F6E656374617220616C207036
:107B0C00756572746F2041300A00436F6E65637443
:107B1C00617220616C2070756572746F2041320A3D
:107B2C0000436F6E656374617220616C20707565C3
:107B3C0072746F2041340A00436F6E656374617216
:107B4C0020616C2070756572746F2044320A00439A
:107B5C006F6E656374617220616C207075657274F0
:107B6C006F2044340A00436F6E6563746172206148
:107B7C006C2070756572746F2044360A0045727201
:107B8C006F723A204E6F20686179206D617320709E
:107B9C00756572746F7320646973706F6E69626C53
:107BAC006573200A00456E747261206C6564426CCA
:107BBC00616E636F005465726D696E61206C6564F3
:107BCC00426C616E636F005A756D6261646F7220F6
:107BDC004F4E0041637469766172205247422065B2
:107BEC006E2070756572746F3A20256420262025EE
:107BFC006400456E747261204C4544204F4E4F46D4
:107C0C000056616C6F72206E6F2076616C69646FC8
:107C1C000053616C652073776974680054727565E4
:107C2C000046616C7365004163747561646F723AF0
:107C3C00205A756D6261646F723B205469706F3AA3
:107C4C00202564203B004163747561203A20257324
:107C5C00203B0050756572746F205A756D626164BB
:107C6C006F723A20256400496E76616C69645365C5
:107C7C006E736F724572726F720045732053656E2E
:107C8C00736F72004573204163747561646F720089
:107C9C00457320416E616C6F6769636F004573209B
:107CAC004469676974616C000A53656E736F726521
:107CBC007320636F6E65637461646F733A2025641F
:107CCC000049443A2025642000436F6E646963695F
:107CDC006F6E3A202564200050756572746F3A20DF
:107CEC00256400536520657370657261206163744F
:107CFC007561646F72004572726F723A206E6563C3
:107D0C0065736172696F20616C206D656E6F732095
:107D1C00756E2073656E736F72002D00000000008D
:107D2C00003E5B4F5B3E3E6B4F6B3E1C3E7C3E1CF5
:107D3C00183C7E3C181C577D571C1C5E7F5E1C003B
:107D4C00183C1800FFE7C3E7FF0018241800FFE7F2
:107D5C00DBE7FF30483A060E2629792926407F05B5
:107D6C000507407F05253F5A3CE73C5A7F3E1C1CCB
:107D7C0008081C1C3E7F14227F22145F5F005F5F8B
:107D8C0006097F017F006689956A60606060609477
:107D9C00A2FFA29408047E040810207E201008087C
:107DAC002A1C08081C2A08081E101010100C1E0C87
:107DBC001E0C30383E3830060E3E0E060000000019
:107DCC000000005F00000007000700147F147F1400
:107DDC00242A7F2A12231308646236495620500045
:107DEC0008070300001C2241000041221C002A1C31
:107DFC007F1C2A08083E080800807030000808081C
:107E0C000808000060600020100804023E5149453B
:107E1C003E00427F400072494949462141494D3359
:107E2C001814127F1027454545393C4A49493141C0
:107E3C00211109073649494936464949291E00008E
:107E4C0014000000403400000008142241141414E3
:107E5C001414004122140802015909063E415D59CF
:107E6C004E7C1211127C7F494949363E41414122D8
:107E7C007F4141413E7F494949417F090909013E02
:107E8C00414151737F0808087F00417F4100204029
:107E9C00413F017F081422417F404040407F021C3B
:107EAC00027F7F0408107F3E4141413E7F09090952
:107EBC00063E4151215E7F0919294626494949321E
:107ECC0003017F01033F4040403F1F2040201F3FE4
:107EDC004038403F63140814630304780403615969
:107EEC00494D43007F4141410204081020004141AB
:107EFC00417F040201020440404040400003070857
:107F0C000020545478407F28444438384444442852
:107F1C00384444287F385454541800087E090218F9
:107F2C00A4A49C787F0804047800447D4000204081
:107F3C00403D007F1028440000417F40007C0478C5
:107F4C0004787C080404783844444438FC1824240D
:107F5C001818242418FC7C0804040848545454248D
:107F6C0004043F44243C4040207C1C2040201C3C0A
:107F7C004030403C44281028444C9090907C446401
:107F8C00544C440008364100000077000000413694
:107F9C00080002010204023C2623263C1EA1A1611A
:107FAC00123A4040207A385454555921555579414C
:107FBC002254547842215554784020545579400C21
:107FCC001E52721239555555593954545459395504
:107FDC005454580000457C410002457D4200014547
:107FEC007C407D1211127DF0282528F07C545545DB
:107FFC00002054547C547C0A097F49324949493247
:10800C003A4444443A324A4848303A4141217A3A57
:10801C0042402078009DA0A07D3D4242423D3D4023
:10802C0040403D3C24FF2424487E4943662B2FFCD2
:10803C002F2BFF0929F620C0887E09032054547980
:10804C00410000447D413048484A32384040227A51
:10805C00007A0A0A727D0D19317D2629292F2826CE
:10806C002929292630484D402038080808080808D6
:10807C000808382F10C8ACBA2F102834FA00007B2F
:10808C00000008142A142222142A14085500550042
:10809C0055AA55AA55AAFF55FF55FF000000FF0031
:1080AC00101010FF00141414FF001010FF00FF102C
:1080BC0010F010F0141414FC001414F700FF00005E
:1080CC00FF00FF1414F404FC141417101F10101FDD
:1080DC00101F1414141F00101010F0000000001FCB
:1080EC00101010101F10101010F010000000FF10D6
:1080FC001010101010101010FF10000000FF1400D2
:10810C0000FF00FF00001F10170000FC04F4141403
:10811C001710171414F404F40000FF00F7141414CF
:10812C0014141414F700F7141414171410101F104F
:10813C001F141414F4141010F010F000001F101F72
:10814C000000001F14000000FC140000F010F010E0
:10815C0010FF10FF141414FF141010101F00000057
:10816C0000F010FFFFFFFFFFF0F0F0F0F0FFFFFF5B
:10817C000000000000FFFF0F0F0F0F0F38444438B2
:10818C0044FC4A4A4A347E02020606027E027E0201
:10819C0063554941633844443C04407E201E20060C
:1081AC00027E020299A5E7A5991C2A492A1C4C7249
:1081BC0001724C304A4D4D303048784830BC625AD0
:1081CC00463D3E494949007E0101017E2A2A2A2A60
:1081DC002A44445F444440514A444040444A51403C
:1081EC000000FF0103E080FF000008086B6B0836FD
:1081FC0012362436060F090F06000018180000006E
:10820C001010003040FF0101001F01011E00191D5C
:10821C001712003C3C3C3C00000000000000000039
:10822C000000000000000000000000002D520B00B8
:10823C00556F0B009D400B00334C0B00354C0B0065
:10824C00674C0B00434C0B00554C0B00754B0B0053
:10825C00334C0B005F4E0B005D4E0B007F4C0B0044
:10826C00BD4C0B00F74C0B003D4D0B00594D0B005A
:10827C00DD4D0B0064656661756C7420004D5342D6
:10828C00004C5342003C53504953657474696E67FB
:10829C00732064656661756C743E003C53504953A1
:1082AC00657474696E67732025732575202573209A
:1082BC004D4F444525753E000000000000000000B5
:1082CC004D530B003B530B003D530B000000600063
:1082DC0000000000000000000000000000E00000B2
:1082EC00000000000000000000000001E0000000A1
:1082FC000000000000000000000001F00000000081
:10830C0000000000000000000003F000000000006E
:10831C00000000000000000007F00000000000005A
:10832C000000000000000007F80000000000000042
:10833C000000000000000FF800000003C0007E00E9
:10834C000001E0007F0FF800000003C000FE0000F9
:10835C0001E000FFEFF800000003C000FE00000188
:10836C00E000FFFFF800000003C000F00000000F69
:10837C00007FFE7FC0000003C000F00000000F0073
:10838C003FFE7FF83FF1FBCFFCFEF3BC3DEFE01F5F
:10839C00FE7FFF7FFBFFDFFEFEFFBC3DEFE01FC655
:1083AC00FFFF7FFBFFDFFEFEFFBC3DEFE00FE3C7EF
:1083BC00FE787BC3DE1EF0FFBC3DEF0007FF87FCA1
:1083CC00787BC3DE1EF0F83C3DEF0001FFFFF000B0
:1083DC007BC3C01EF0F03C3DEF0001F37FE03FFBA0
:1083EC00C3CFFEF0F03C3DEF0003E33F807FFBC3C7
:1083FC00DFFEF0F03C3DEF0007E73C00787BC3DE8E
:10840C001EF0F03C3DEF0007FFBE00787BC3DE1E84
:10841C00F0F03C3DEF0007FFFE00787BC3DE1EF062
:10842C00F03C3DEF000FFFFE007FFBFFDFFEF0F0A6
:10843C003FFDEFE00FFFFF007FFBFFDFFEF0F03FA3
:10844C00FDEFE00FF9FF003E79F9CF9EF0F01F3DF4
:10845C00E7E01FF1FF00000000000000000000003A
:10846C00001F80FF007FFFFFFFFFFFFFFFFFFFE00C
:10847C001C007F007FFFFFFFFEB46D888D18E000AD
:10848C00001F007FFFFFFFFE95AD7DB577E000007C
:10849C000F007FFFFFFFFEA5AD9D8D19E0000006CC
:1084AC00007FFFFFFFFEB5ADEDB57EE0FFFFFFFFE8
:1084BC00FFFFFFFFFFFFFFFFFFFFFFFFFFFFFFFFC0
:1084CC00FFFFFFFFFFFFFFFFFFFFFFFFFFFFFFFFB0
:1084DC00FFFFF8FFFFFFFFFFFFFFFFFFFFFFFFFFA7
:1084EC00FFFFC07FFFFFFFFFFFFFFFFFFFFFFFFF4F
:1084FC00FFFE007FFFFFFFFFFFFFFFFFFFFFFFFF00
:10850C00FFFE007FFFFFFFFFFFFFFFFFFFFFFFFFEF
:10851C00FFFE003FFFFFFFFFFFFFFFFFFFFFFFFF1F
:10852C00FFFE003FFFFFFFFFFFFFFFFFFFFFFFFF0F
:10853C00FC3F003FFFFFFFFFFFFFFFFFFFFFFFFFC1
:10854C00FC0F001FFFFFFFFFFFFFFFFFFFFFFFFF01
:10855C00FC07001FFFFFFFFFFFFFFFFFFFFFFFFFF9
:10856C00F807003FFFFFFFFFFFFFFFFFFFFFFFFFCD
:10857C00F80783FFFFFFFFFFFFFFFFFFFFFFFFFF7A
:10858C00F00FCFFFFFFFFFFFFFFFFFFFFFFFFFFF1E
:10859C00F80FFFFFFFFFFFFFFFFFFFFFFFFFFFFFD6
:1085AC00FE0FFFFFFFFFFFFFFFFFFFFFFFFFFFFFC0
:1085BC00FF9FFFFFFFFFFFFFFFFFFFFFFFFFFFFF1F
:1085CC00FFFFFFFFFFFFFFFFFFFFFFFFFFFFFFFFAF
:1085DC00FFFC1FFFFFFFFFFFFFFFFFFFFFFFC07F41
:1085EC00FFFC0DFFE03FEF03FFC07FFFFFFE003FEE
:1085FC00F3F809FF8007E401FF001FFFFFFC3F1F9A
:10860C00F3F809FF1FC3E0F8FC3F87FFFFF8FFFFFB
:10861C00F3F809FE3FF1E1FCF8FFE3FFFFF1FFFF88
:10862C00F3F819FC7FF8E3FFF1FFE3FFFFE3FFFF33
:10863C00F3FF19F8FFFCE7FFE3FFC7FFFFE7FFFFBE
:10864C00F3FFF9F1FFFEE7FFE7FF8FFFFFC7FFFF27
:10865C00F3E7F9F3FFFFE7FFE7FF1FFFFFCFFFFF94
:10866C00F3C3F9F3FFFFE7FFC7FE3FFFFFCFFFFFA9
:10867C00F381F9F3FFFFE7FFCFFC7FFFFFC00000A2
:10868C00F300F9E3FFFFE7FFCFF8FFFFFFC00000A7
:10869C00720079E3FFFFE7FFCFF1FFFFFFFE000061
:1086AC00720079E3FFFFE7FFCFE3FFFFFFFFFFFC63
:1086BC00F300F9F3FFFFE7FFC7C7FFFFFFFFFFFC66
:1086CC00F381F9F3FFFFE7FFC78FFFFFFFFFFFF811
:1086DC00F3C3F9F1FFFFE7FFE71FFFFFFFFFFFF910
:1086EC00F1E7F1F9FFFCE7FFE23FFBFFFFFFFFF1D2
:1086FC00F8FFF1F8FFFCE7FFF07FF3FFFFFFFFE36C
:10870C00FCFFE1FC7FF8E7FFF8FFE3FFFFFE7FC70C
:10871C00FC3F81FE3FE1E7FFFC7FC7FFFFFE1E0F22
:10872C00FE0E09FF0783E7FFFE0E0FFFFFFF001F82
:10873C00FF8039FFC00FE7FFFF001FFFFFFFE0FFC7
:10874C00FFE0FFFFF07FFFFFFFE0FFFFFFFFFFFFFA
:10875C00FFFFFFFFFFFFFFFFFFFFFFFFFFFFFFFF1D
:10876C00FFFFFFFFFFFFFFFFFFFFFFFFFFFFFFFF0D
:10877C00FFFFFFFFFFFFFFFFFFFFFFFFFFFFFFFFFD
:10878C00FFFFFFFFFFFFFFFFFFFFFFFFFFFFFFFFED
:10879C00FFFFFFFFFFFFFFFFFFFFFFFFFFFFFFFFDD
:1087AC00FFFFFFFFFFFFFFFFFFFFFFFFFFFFFFFFCD
:1087BC00FFFFFFFFFFCFFFFFFFFFFFFFFFFFFFFFED
:1087CC00FFFFFFFFFF9FFFFFFFFFFFFFFFFFFFFF0D
:1087DC00FFFFFFFFFF3FFFFEF67CFFFFFFFFFFFFEA
:1087EC00FFFFFFFFFF7CFFFEE7FCE7FFFFFFFFFF44
:1087FC00FFFFFFFFFF787CFECFFCC7FFFFFFFFFFF3
:10880C00FFFFFFFFFF3931FEDFE19FFFFFFFFFFF9F
:10881C00FFFFFFFFFE0393FE3E418FFFFFFFFFFFB5
:10882C00FFFFFFFFFF33B7FE1E9CE3FFFFFFFFFFC1
:10883C00FFFFFFFFFF7337FEC61DBBFFFFFFFFFFF0
:10884C00FFFFFFFFFF3827FEF29D39FFFFFFFFFF01
:10885C00FFFFFFFFFF3C67FE7A4193FFFFFFFFFF27
:10886C00FFFFFFFFFF3FE7FFFE6187FFFFFFFFFFFB
:10887C00FFFFFFFFFFFFFFFFFFFDFFFFFFFFFFFFFE
:10888C00FFFFFFFFFFFFFFFFFFFDFFFFFFFFFFFFEE
:10889C00FFFFFFFFFFFFFFFFFFFFFFFFFFFFFFFFDC
:1088AC00FFFFFFFFFFFFFFFFFFFFFFFF00000000C8
:1088BC0000000000A1530B00B9530B002D520B000C
:1088CC00556F0B00CD530B00334C0B00354C0B008C
:1088DC00674C0B00434C0B00554C0B00754B0B00BD
:1088EC00334C0B005F4E0B005F550B00FB5A0B001B
:1088FC00AD5A0B00F74C0B003D4D0B00594D0B00C6
:10890C00DD4D0B000080C0E0F0F8FCFE0001030719
:10891C000F1F3F7FAED580A8D300408D2000A1C88B
:10892C00DB40A4A62EAFDA02818FDA1281DA028143
:10893C002200FF2100556E6B6E6F776E2065727290
:10894C006F7200537563636573732E004572726F9B
:10895C007220696E20636F6D6D756E6963617469E9
:10896C006F6E2E00436F6C6C697373696F6E20644D
:10897C00657465637465642E0054696D656F7574F8
:10898C0020696E20636F6D6D756E69636174696FBC
:10899C006E2E004120627566666572206973206ECA
:1089AC006F742062696720656E6F7567682E004969
:1089BC006E7465726E616C206572726F7220696E76
:1089CC002074686520636F64652E2053686F756C26
:1089DC0064206E6F742068617070656E2E00496E35
:1089EC0076616C696420617267756D656E742E00BA
:1089FC00546865204352435F4120646F6573206E59
:108A0C006F74206D617463682E0041204D4946419E
:108A1C005245205049434320726573706F6E6465F4
:108A2C00642077697468204E414B2E004F890B00EF
:108A3C0058890B0070890B0085890B009F890B00EE
:108A4C00BB890B00EA890B00FC890B00168A0B0012
:108A5C000000000000000000276C0B001D6C0B00D8
:108A6C00136C0B00096C0B00FD6B0B00F16B0B0016
:108A7C00316E0B00396E0B00E56B0B00DD6B0B00E0
:108A8C00D36B0B00C96B0B00696E0B000000000070
:108A9C0000000000456C0B008F6C0B00676C0B002A
:108AAC00476C0B006F6C0B00776C0B007F6C0B0032
:108ABC00876C0B000000000000000000016D0B0033
:108ACC00F16C0B00F36C0B00617070000000000087
:108ADC0000000000F16D0B00FB6D0B00056E0B0030
:108AEC000F6E0B00196E0B00256E0B00316E0B0018
:108AFC00396E0B00416E0B004D6E0B00556E0B006A
:108B0C005F6E0B00696E0B000008101820283038BF
:108B1C0025592D256D2D25645425483A254D3A258A
:108B2C0053257A0061736374696D65000000000061
:108B3C0000000000D5720B0041730B0019730B0081
:108B4C00556F0B00E9720B0005730B00F7720B00ED
:108B5C0013730B00D7720B00DB720B0000000000CC
:108B6C00000000007F730B00E7730B00BD730B005C
:108B7C00556F0B00AF730B0081730B0091730B00DF
:108B8C00E1730B00A1730B0079730B000000000064
:108B9C0000000000DF740B00D5740B00CB740B00CD
:108BAC0081740B00BF740B00B3740B00316E0B009F
:108BBC00396E0B00A7740B009F740B0095740B009F
:108BCC008B740B00696E0B00005245454E54206DA2
:108BDC00616C6C6F632073756363656564656400B9
:108BEC002F746D702F6A656E6B696E732D474343DE
:108BFC002D31302D706970656C696E652D34385F60
:108C0C0032303230313132345F3136303631383007
:108C1C003633392F7372632F6E65776C69622F6EE2
:108C2C0065776C69622F6C6962632F7374646C690D
:108C3C00622F72616E642E63002F746D702F6A65E3
:108C4C006E6B696E732D4743432D31302D706970F7
:108C5C00656C696E652D34385F32303230313132AB
:108C6C00345F313630363138303633392F737263E6
:108C7C002F6E65776C69622F6E65776C69622F6CED
:108C8C006962632F737472696E672F737472746F79
:108C9C006B2E63001D4B0B00856B0B00316C0B00B6
:108CAC00E16D0B00416F0B007D700B009D720B0092
:108CBC00C1720B00E9740B00000000000000000002
:048CCC0000000000A4
:048CD00000000000A0
:108CD40004000000FFFFFFFFFFFFFFFF2300000071
:108CE400FFFFFFFFFFFFFFFFFFFFFFFF0300000089
:108CF400FFFFFFFFFFFFFFFFFFFFFFFFFFFFFFFF80
:108D0400FFFFFFFFFFFFFFFFFFFFFFFFFFFFFFFF6F
:108D140007000000308B0B00B8E5032000000000C2
:108D2400000000000000000000000000000000003F
:108D3400000000000000000000000000000000002F
:108D4400000000000000000000000000000000001F
:108D5400000000000000000000000000000000000F
:108D640000000000000000000000000000000000FF
:108D7400000000000000000000000000ECE70320F9
:108D8400FFFFFFFF00000102030405060708090AAC
:108D94000B0C0D0E0F101112131415161718191AA7
:088DA4001B1C1D1E1F202800EE
:048DAC0078563412AF
:040000052003E6C22C
:00000001FF
