:02000002B0004C
:1040000000400B00D0990B00000006000C000502D8
:084010000401810C0000000016
:0440180038850B00DC
:10401C0009480A49884208B505D0094A824202D0AB
:10402C00121A04F05DF90748074A0021121A04F02D
:10403C0065F9014808BD00BF64DF032014990B002B
:10404C00F8DF0320F8DF0320EDE7032070B5074EFF
:10405C00074C03F037FEA41BA4080025AC4200D18A
:10406C0070BD56F8043B98470135F7E7E8980B000C
:10407C000C990B0000F0EEBD08B500F039FEBDE860
:10408C00084003F0D7BD02F0E5BF02F0EBBF000023
:10409C0008B5034A00210C2002F040FFFEE700BFE8
:1040AC00296C0B000078B0FA80F0400970470123AE
:1040BC00037070470EB403B503AB002153F8042B07
:1040CC00019303F05AFA02B05DF804EB03B07047A9
:1040DC000EB403B503AB012153F8042B019303F089
:1040EC004CFA02B05DF804EB03B07047F0B507462C
:1040FC0089B053480E4615461C4601F0F7FC002FBC
:10410C0077D0013D062D6CD8DFE805F004404B500C
:10411C00555A6600002C37D14A494B4803F08FFBA7
:10412C004949684603F080FB484B49496846002ED4
:10413C0008BF194603F0CBFB0E9904460A2204A8CB
:10414C0003F08FFB04A9204603F0B5FB4021026865
:10415C0040483B4C02F096FF04A803F0F7FA68467F
:10416C0003F0F4FA3B49204603F0DFF93A4B3948A7
:10417C001A68402102F086FF3649204603F0D5F933
:10418C000023236109B0F0BD3449C6E703F080FC7D
:10419C0033492246FFF79CFF0CB93249BDE732493F
:1041AC00BBE70CB93149B8E73149B6E70CB931492D
:1041BC00B3E73149B1E70CB93049AEE73049ACE768
:1041CC00012C05D0022C05D0002CA9D12D49A4E737
:1041DC002D49A2E72D49A0E74CB92D491A4803F007
:1041EC002EFB03F055FC2B4903F09FF998E72A4965
:1041FC00F4E72DB1012D1FD003F04AFC2749F3E75A
:10420C00052C0FD8DFE804F0030A10121416244909
:10421C00114803F014FB23490F487FE722490E484D
:10422C0003F00DFB2149F7E72149F8E72149F6E7AF
:10423C002149F4E72149F2E7002CECD0F2E700BF6A
:10424C0020E6032052850B0080E603204F850B00EF
:10425C004C850B00E0E5032070E6032068850B001D
:10426C007F850B0096850B00A4850B00B2850B0097
:10427C00C2850B00D2850B00E2850B00F2850B008A
:10428C0005860B0018860B0029860B003E860B005A
:10429C0050860B007E860B0067860B0006870B0092
:1042AC0092860B00E7860B00A1860B00F7860B00AD
:1042BC00B5860B00C6860B00D0860B00DC860B0087
:1042CC0030B503782D2B0CBF01220022134603447A
:1042DC000A24002013F8011B3039CDB2092D02D865
:1042EC0004FB0010F6E702B1404230BD70B5144635
:1042FC000D4604F059F8261F40B1FFF7E1FF29469F
:10430C0046F8040F002004F04FF8F5E7236813B9C2
:10431C00014B01221A7070BD90E6032037B58DF861
:10432C0007200DF107030A4601460D480D4D02F01A
:10433C00D5F90128287010D003F0AAFB0A4903F024
:10434C00E1F803F0A5FB29780446054801F036FF97
:10435C000146204603F0E9F8002003B030BD00BF51
:10436C00A0E60320C0E603201C870B00F0B58DB03F
:10437C001E4D1F4A00951F4B12781F4F0646602199
:10438C00284602F0CCF9012838700FD003F080FBDE
:10439C001A4903F0B7F803F07BFB3978044628463A
:1043AC0001F00CFF0146204603F0BFF8144B12221B
:1043BC00187807A9FFF7B2FFB0B107AC0FCC03AD6B
:1043CC000FC523682B8003F063FB0E4903AAFFF78C
:1043DC007FFE0D49324603A8FFF788FF034802F021
:1043EC0058F9024801F0B5FF0DB0F0BDA0E603206E
:1043FC0088DF032091E60320C0E6032033870B00FF
:10440C0064DF03204F870B0065DF032010B540B934
:10441C00264B1C68052C40D8DFE804F0050F1A2643
:10442C002D34234BF5E703F033FB224903F06AF8F4
:10443C001E4A13680133136014E003F029FB1E4974
:10444C0003F060F8194A136801331360022409E081
:10445C0003F01EFB194903F055F8144B4FF0FF32D3
:10446C001A600424204610BD03F012FB144903F01B
:10447C0049F80F4AE7E703F00BFB124903F042F847
:10448C000B4AD6E703F004FB0F4903F03BF8084B4B
:10449C004FF0FF321A600624E4E703F0F9FA0B49F7
:1044AC0003F030F84FF0FF34DCE700BFBCE603202C
:1044BC006CDF03205B870B0072870B0089870B0076
:1044CC00A0870B00B7870B00CE870B00E5870B008E
:1044DC0007B50023044800931A46194601F0F4FD71
:1044EC0003B05DF804FB00BF98E6032007B500237A
:1044FC0004480093FF22194601F0E6FD03B05DF875
:10450C0004FB00BF98E6032007B50A2300220093A2
:10451C000348FF23114601F0D7FD03B05DF804FBFF
:10452C0098E6032007B5FF230093002303481A469F
:10453C00194601F0C9FD03B05DF804FB98E60320B1
:10454C0007B5002104480091E923FF2201F0BCFDCE
:10455C0003B05DF804FB00BF98E6032007B5752394
:10456C000093044846236C22002101F0ADFD03B0FA
:10457C005DF804FB98E6032007B500210448009180
:10458C008023FF2201F0A0FD03B05DF804FB00BF07
:10459C0098E6032007B5FF23044800931A46002130
:1045AC0001F092FD03B05DF804FB00BF98E6032018
:1045BC0008B5FFF7EFFF4FF4C87002F08BFDFFF763
:1045CC0087FFBDE80840C82002F084BD08B5FFF79E
:1045DC008DFFC82002F07EFDFFF7CEFFC82002F051
:1045EC0079FDFFF7ADFFC82002F074FDFFF78CFFDB
:1045FC00C82002F06FFDFFF7B1FFC82002F06AFD82
:10460C00FFF790FFBDE80840C82002F063BD13B56A
:10461C0084B22046012103F0D6FB2046012103F091
:10462C00D2FB601C80B20121019003F0CCFB0198FD
:10463C00012102B0BDE8104003F0C5BB13B584B234
:10464C002046002103F0BFFB2046002103F0BBFBFA
:10465C00601C80B20021019003F0B5FB0198002191
:10466C0002B0BDE8104003F0AEBB10B50446FFF736
:10467C00CEFF642002F02EFD2046FFF7DFFFBDE8E1
:10468C001040642002F026BDF7B5284F3B78044655
:10469C00A3B1C9B24A1C6D460523D2B2284601F01B
:1046AC00A9FC95E80300224E86E80300284601F099
:1046BC00AEFC304601F050FD00233B70072C2DD88A
:1046CC00DFE804F004090E13181D222703B0BDE81F
:1046DC00F040FFF719BF03B0BDE8F040FFF706BF8D
:1046EC0003B0BDE8F040FFF72BBF03B0BDE8F040CE
:1046FC00FFF734BF03B0BDE8F040FFF713BF03B0C2
:10470C00BDE8F040FFF738BF03B0BDE8F040FFF75D
:10471C004FBF03B0BDE8F040FFF758BF03F0B8F946
:10472C00044903B0BDE8F04002F0FFBE67DF032090
:10473C0098E603200D880B0038B50C460546012180
:10474C00A0B203F02FFB45B1012D0BD003F0A0F963
:10475C00BDE83840064902F0E8BE2046BDE83840C6
:10476C00FFF755BF2046BDE83840FFF77EBF00BFBE
:10477C001C880B0007B580B20021019003F023FBCD
:10478C000198002103B05DF804EB03F01CBB034659
:10479C00012B0846114604DC0BB9FFF775BFFFF778
:1047AC00CBBF1046FFF7E6BF13B5014601A802F0D8
:1047BC00FFF901A802F0FEF9044603F069F9054976
:1047CC002246FFF785FC092C8CBF0020012002B08B
:1047DC0010BD00BF2C880B0013B5014601A802F0D8
:1047EC00E7F901A802F0E6F9044603F051F905498E
:1047FC002246FFF76DFC0A2CD4BF0020012002B02A
:10480C0010BD00BF2C880B00022808B50BD0042863
:10481C000BD060B9132003F002FBB0F57A7FB4BF64
:10482C000020012008BD1120F5E70F20F3E7002040
:10483C00F8E7022808B50BD004280BD060B9132078
:10484C0003F0EDFAB0F57A7FCCBF0020012008BD53
:10485C001120F5E70F20F3E70020F8E708B580B248
:10486C0003F0DDFAB0F52F7FB4BF0020012008BDA6
:10487C0008B580B203F0D3FAB0F52F7FCCBF00207F
:10488C00012008BD07B580B20021019003F08AFA1F
:10489C00019803F0B1FA431E5842584103B05DF839
:1048AC0004FB07B580B20021019003F07BFA01985C
:1048BC0003F0A2FAB0FA80F0400903B05DF804FBF3
:1048CC0008B580B203F0ABFA07EE900AF8EEE77A7F
:1048DC00F1EE046A67EEA67A9FED096A87EE867A96
:1048EC00DFED087A67EE277A87EEA67ADFED067A97
:1048FC00B4EEE77AF1EE10FAACBF0120002008BD4F
:10490C0000C07F440000964300002A4408B580B2E2
:10491C0003F085FA07EE900AF8EEE77AF1EE046AF6
:10492C0067EEA67A9FED096A87EE867ADFED087A44
:10493C0067EE277A87EEA67ADFED067AB4EEE77A91
:10494C00F1EE10FA94BF0120002008BD00C07F4496
:10495C000000964300002A4430B52DED028B87B041
:10496C00C1B206230B2201A802F05CF801A802F0E8
:10497C0060F801A802F01AF9B5EE400AF1EE10FA4F
:10498C00B4EE400A0CBF01240024F1EE10FA68BF0B
:10499C0044F00104B0EE408A002CEAD103F078F820
:1049AC00054618EE100A03F035FC02460B46284665
:1049BC000A49FFF78DFBB5EEC08AF1EE10FA08DD5F
:1049CC00F2EE007AB4EEE78AF1EE10FA4CBF012455
:1049DC000024204607B0BDEC028B30BD3A880B009A
:1049EC0030B52DED028B87B0C1B206230B2201A886
:1049FC0002F018F801A802F01CF801A802F0D6F891
:104A0C00B5EE400AF1EE10FAB4EE400A0CBF0124E8
:104A1C000024F1EE10FA68BF44F00104B0EE408AB5
:104A2C00002CEAD103F034F8054618EE100A03F016
:104A3C00F1FB02460B4628460B49FFF749FBF1EE0A
:104A4C000C7AB4EEE78AF1EE10FA08DDF3EE0A7A8E
:104A5C00B4EEE78AF1EE10FA4CBF01240024204694
:104A6C0007B0BDEC028B30BD3A880B0030B52DED94
:104A7C00028B87B0C1B206230B2201A801F0D2FF32
:104A8C0001A801F0D6FF01A802F090F8B5EE400A9B
:104A9C00F1EE10FAB4EE400A0CBF01240024F1EE42
:104AAC0010FA68BF44F00104B0EE408A002CEAD141
:104ABC0002F0EEFF054618EE100A03F0ABFB0246BF
:104ACC000B4628460B49FFF703FBF3EE097AB4EECD
:104ADC00E78AF1EE10FA08DDDFED077AB4EEE78A2B
:104AEC00F1EE10FA4CBF01240024204607B0BDECB7
:104AFC00028B30BD3A880B000000484208B50346D3
:104B0C00013B1046062B43D8DFE803F00409121BC7
:104B1C00242D0400C1BBBDE80840FFF745BE19B900
:104B2C00BDE80840FFF785BEBDE80840FFF76CBE46
:104B3C0019B9BDE80840FFF79BBEBDE80840FFF778
:104B4C008DBE19B9BDE80840FFF7ABBEBDE8084003
:104B5C00FFF798BE19B9BDE80840FFF7D7BEBDE80E
:104B6C000840FFF7ADBE012906D0022908D059B97B
:104B7C00BDE80840FFF7F0BEBDE80840FFF730BFC6
:104B8C00BDE80840FFF772BFBDE80840FFF724BE40
:104B9C0002F07EFF024902F0C8FC002008BD00BFF5
:104BAC0043880B0038B50446C268D0E90001FFF712
:104BBC00A5FF04F150051034AC4206D054E90401B1
:104BCC0054F8042CFFF79AFFF5E7012038BD0000DC
:104BDC00F0B50E4B0E4D1C684FF4397600239C42F9
:104BEC0010DB06FB0352D2F8407192F85021B3F55A
:104BFC00C87F05D2824201D18F4205D00133F6E73E
:104C0C000133ECE70120F0BD0020FCE768DF032056
:104C1C0018E0032070B50D4B0D4C19684FF4397525
:104C2C00002399420EDB05FB0342D2F84061D2F817
:104C3C004C21B3F5C87F03D2864205D00133F8E787
:104C4C000133EEE74FF0FF32104670BD68DF0320F2
:104C5C0018E0032010B588B0002405A8CDE9054460
:104C6C00ADF81C4002F042FA1B482346224621466E
:104C7C0040681A4C02F0B6F902F00AFF4FF41651D4
:104C8C0002F0FAFE2178BFF35B8F11F001010BD11A
:104C9C0020460391FFF706FA039928B1104802F059
:104CAC00A9FC2046FFF703FA0D4802F0ADFC0123E6
:104CBC0000933C2202210B4800F026FF0A4801F029
:104CCC00ACFB0A4BFF221A705A709A70DA701A7188
:104CDC005A7108B010BD00BF18E70320F8DF03209D
:104CEC00FCDF032020E60320A0E6032091E603204E
:104CFC00F7B58F4801F0BCFCA8B18D4801F089FED6
:104D0C00002800F013818B4C204600F0EFFE20466B
:104D1C00012100F046FD00204FF00113C4E904030B
:104D2C008548FFF723FB844C844E2368591C65D0BF
:104D3C00052B00F2F780DFE813F006001F00A4003B
:104D4C00C100DE00EE007E4B1B7823B902F0A0FE02
:104D5C007C4902F0EAFB7C4B1A687C4B1B689A423C
:104D6C0004D002F095FE7A4902F0DFFB02F090FECF
:104D7C00784902F0DAFB3EE0774B1B78002B58D0D9
:104D8C00764BA5681B782946002B4ED10120FFF7E6
:104D9C001FFF00284DD02846FFF73CFF421C04D1D2
:104DAC002846FFF733FB431C25D0DFF8C0C1D6F8EB
:104DBC0000E0DCF80070E3684FF4397202FB0EF28D
:104DCC00142101FB0721664A0A44C2E95053C2E987
:104DDC0052E0012182F850110F44CCF80070D4E954
:104DEC0000710090B1FA81F1B7FA87F02A464909AF
:104DFC004009FFF77BF94FF0FF3323603368002B3A
:104E0C00C0F294805749564CA1F53470FFF7CAFE96
:104E1C00054694F85031AB4205D1D4E95001D4F891
:104E2C004C21FFF7B4FC1434F3E70020FFF7D0FE5D
:104E3C0018B902F02DFE4C499BE72846FFF7EAFE15
:104E4C00471C04D12846FFF7E1FA411CD3D0DFF808
:104E5C001CC1D6F800E0DCF80070E3684FF439723E
:104E6C0002FB0EF2142101FB07213D4A0A4402F514
:104E7C00A071C2E95053C2E952E000220A74013712
:104E8C00ABE733685A1C04D0A3B9384A1268002A1D
:104E9C0010DD013333602A4B01221A702E4A002395
:104EAC0013702E4A1370294A1360274A13602F4A35
:104EBC001360A0E702F0ECFD2D495AE72348224A83
:104ECC0003681268934212DA284A12687AB9316878
:104EDC00234A4FF4397505FB012261681A440039E5
:104EEC0018BF0121013382F8D012036083E702F06E
:104EFC00CFFD20493DE7144B1B68002B07DD134AFF
:104F0C001268934203DD144B01221A7073E702F00E
:104F1C00BFFD19492DE7154B1B68002B7FF76BAFB5
:104F2C000E4BF1E702F0B4FD144922E703B0F0BDDB
:104F3C00A0E6032020E6032070DF032068DF0320B7
:104F4C0005E0032056880B00B8E60320B4E60320E6
:104F5C0069880B009E880B0014E0032004E00320FA
:104F6C0018E00320E8E20320BB880B00B0E6032026
:104F7C00CC880B001E890B0050890B0016870B0088
:104F8C0010B5134C13484FF0FF3100F0BBFC124925
:104F9C00204602F026FC104904F1100002F021FC1E
:104FAC00082210210D4801F0F1F8002205231146CA
:104FBC000B4801F01FF80B4B0022C3E90022A2F5AD
:104FCC0080329A60BDE81040022001F0AFBF00BFF4
:104FDC0070E6032020E603206F890B00A0E6032077
:104FEC0098E6032008E003202DE9F04F85B01F461A
:104FFC00BDF93880BDF83C30A8EB0209A7EB010ADB
:10500C00B9F1000FB8BFC9F10009BAF1000FB8BF70
:10501C00CAF1000AD14583460C46154604DD3A46D2
:10502C002C4647460D469046BC4205DD2A46454671
:10503C00904622463C4617463E1BB2B20092A8EB65
:10504C00050282EAE271A1EBE271C6F3C03202FA08
:10505C0086F64545B4BF01224FF0FF320191761020
:10506C000292BC421CDCDBF800200393D145D2F841
:10507C001880C7BF294622462A4621465846C047B3
:10508C00019A039BB61AB1B236B2002E05DA029A17
:10509C001544009A56182DB236B2013424B2E0E70A
:1050AC0005B0BDE8F08F704710B404682469A446BD
:1050BC005DF8044B604730B40468BDF808500295A5
:1050CC00A46BA44630BC604730B40468BDF80850EB
:1050DC000295E46BA44630BC604770B4BDF90C502B
:1050EC00BDF810600468CDE90356246CA44670BC6E
:1050FC0060472DE9F3411C460368BDF820805B69CD
:10510C0005461646013C34440F4624B298472B689A
:10511C00CDF8048000949C6A28463B4632463946BA
:10512C00A0472B68DB6A284602B0BDE8F04118475F
:10513C002DE9F3411D460368BDF820805B690446E8
:10514C0017460E469847CDE9007822686B1E33440B
:10515C00956A20461BB23A463146A8472368DB6A5B
:10516C00204602B0BDE8F04118472DE9F3471E4632
:10517C000368BDF928905B69BDF82C800C46054688
:10518C00174698472644B4422B680BDACDF80080BA
:10519C00D3F820A021464B463A4628460134D04746
:1051AC0024B2F0E7DB6A284602B0BDE8F0471847A6
:1051BC0013B502680191B0F90E100091146CB0F99E
:1051CC000C3000221146A04702B010BD2DE9F74368
:1051DC0099421646BDF92870BDF82C90026880469D
:1051EC000D461C4613D1BE42C8BF3346CDF828909D
:1051FC00C4BF3E461F467B1C946B9B1B1BB23246A6
:10520C0029464046A44603B0BDE8F0436047BE4281
:10521C000AD19942C2BF0B4625461C46631CCDF8E9
:10522C002890D46B5B1BE9E753699847CDE900796B
:10523C00D8F8003040469F6A324623462946B84784
:10524C00D8F80030DB6A404603B0BDE8F04318479D
:10525C002DE9F3471D460368BDF82C805B69BDF949
:10526C00289004460F46164698472368CDF80080D0
:10527C00D3F824A032462B4639462046D047236823
:10528C00CDF8008009F1FF323244D3F824A039461E
:10529C002B46204612B2D0472368CDF80080D3F8B5
:1052AC0020A032464B4639462046D0476B1ED919B2
:1052BC002368CDF800801D6A20464B46324609B261
:1052CC00A8472368DB6A204602B0BDE8F0471847C0
:1052DC00704701F00303B0F90A208376C907B0F9CF
:1052EC00083059BF8381C2818281C381704700001D
:1052FC0030B54281C281074A074D0181002481816A
:10530C004FF0FF31C0E90512446005600461047779
:10531C00046230BD010100017C8E0B002DE9F04FC1
:10532C0089B0CDE902120268BDF948800493BDF939
:10533C004C3052690593BDF850A00446904718F1C3
:10534C0007024FF0000648BF08F10E024FEAE20BCD
:10535C0001963546039B019ABDF904109A18059BDA
:10536C008B4212B227DD049B33444FF000090693A5
:10537C000FFA89F080451FFA89F117DD4F0705BF39
:10538C00069BC0106D001D5C18BFEDB22B060AD534
:10539C00029B206807921944836909B21F46204674
:1053AC005346B847079A09F10109E1E7019B01331C
:1053BC0001935E44CEE72368DB6A204609B0BDE862
:1053CC00F04F18472DE9F04F2DED028B91B016469A
:1053DC00026ABDF874809DF878509DF87C4003916A
:1053EC001F46BDF8703004938346002A40F0C580F8
:1053FC00B0F90C308B4240F34C81B0F90E30B34213
:10540C0040F34781062313FB0513002B40F3418126
:10541C0006EBC403002B40F33C81037F1BB9AF2F79
:10542C0084BF0137FFB2DBF8003058465B69984700
:10543C000522099200220592984A07EB8703D3189C
:10544C000C93B3B20693059A0C9B9B5C0793ABB27F
:10545C000B93BDF80C300893039B02FB05F919FA6A
:10546C0083F90FFA89F308EE103A08230A93039B89
:10547C0002EB030A4FF000090FFA8AFA079ADBF8DD
:10548C000030D20752D5012D1FFA89F23ED1012CE2
:10549C003CD19B6906991F46049B0A4412B25146A3
:1054AC005846B84709F101034FFA83F9079B5B088B
:1054BC0007930A9B013B13F0FF030A93DED1059F70
:1054CC0001377BB20593099B013B13F0FF03099352
:1054DC00B9D1049B43450FD0012DDBF800303BD1F3
:1054EC00012C39D10899CDF8008005311C6A32465F
:1054FC00082309B25846A047DBF80030DB6A58464F
:10550C0011B0BDEC028BBDE8F04F1847069914FBA7
:10551C0002F20A44049901910094DB6918EE101A06
:10552C001F4612B22B465846B847BBE7049A424571
:10553C00B8D0012D1FFA89F207D1012C05D19B6936
:10554C0006991F460A444346A8E70699CDF80480FD
:10555C0014FB02F20A44DFE70B9ACDF8048002EB4D
:10556C008201089AE4000A4411460094DC69324630
:10557C002B4609B25846A047BEE7137A5168126809
:10558C000B92FF1AFFB201EBC70331F837200692DA
:10559C009A780992DA780C92012D93F9052093F9F7
:1055AC0006A00A9201D8012C57D9BDF928300893CE
:1055BC000FFA8AF30793DBF8003058465B6998477B
:1055CC00B3B24FF000080E931AFA86F3C146474661
:1055DC000F930C9B9F428FD2079B0E9A3B4403FB6D
:1055EC000423002205920F9A1BB202EB070A08EE65
:1055FC00103A0FFA8AFA4346099A0599914241D218
:10560C005A1CD2B25B070D9207D1069B06990B9AD6
:10561C0001339BB212F80190069319F0800F12D04F
:10562C00012DDBF80030BDF80C101AD1012C18D16B
:10563C000A9A9B691144059A11441E465246049BD2
:10564C0009B25846B047059E0136F3B24FEA4909F4
:10565C0005935FFA89F90D9BCEE70023CDE907335B
:10566C00A9E70598089A024402FB0511049ACDE9B2
:10567C000042DB6918EE102A1E4609B22B4658462A
:10568C00B047E0E7099B013798445FFA88F8FFB20E
:10569C009FE711B0BDEC028BBDE8F08F71890B0058
:1056AC00F0B5026A85B004460B46002A34D10A29AB
:1056BC0008D1438A0282427E03EBC203638201203B
:1056CC0005B0F0BD0D29FAD0E17E007E657E71B18A
:1056DC00B4F91060062111FB0061B4F90C60B14201
:1056EC00C1BFB4F91210228201EBC5026282E28AB8
:1056FC000192A28A0092CDE90205B4F91220B4F904
:10570C0010102046FFF75EFE237E228A03EB430334
:10571C0002EB43032382D2E70A2907D10023038239
:10572C00417E927A438A01FB0233C7E70D29C6D02A
:10573C00157AA942C3D3517A9942C0D351685D1BE3
:10574C00EDB201EBC505A87828B3E97819B3E17E71
:10575C00267E677E91B195F905100844B4F91010B6
:10576C0006FB0011B4F90C00814207DD00202082F9
:10577C00B4F91210927A02FB07126282E28A019249
:10578C00A28A0092CDE90267B4F91220B4F9101084
:10579C002046FFF717FE2979227E238A01FB02336C
:1057AC00B8E7012938BF012101764176704770476F
:1057BC0010B510210446FEF768FC204610BD000011
:1057CC0073B5044608462279A36832B1A3B90B49D4
:1057DC0002B0BDE8704001F095BE094A267B094D28
:1057EC000949647B012E18BF2946CDE900140749ED
:1057FC00FEF760FC02B070BD054AEFE7DD8E0B00D2
:10580C000C880B00D98E0B00D58E0B00F38E0B0081
:10581C00CC8E0B0010B5044B03600446C06A08B173
:10582C0001F020FC204610BD0C950B0010B5044671
:10583C00FFF7F0FF20465021FEF727FC204610BD55
:10584C00002910B54BDBB0F90C408C4247DD002A27
:10585C0045DBB0F90E40944241DD847E022C1FD012
:10586C00032C26D0012C04D10489D24314440A46BB
:10587C0021B2012B23D0022B32D083BB002A13463A
:10588C000489C06AB8BFD31DDB1013FB041102F0EE
:10589C00070201239340425C22EA030242541EE0B9
:1058AC000489013C611A4489D243224409B212B2E0
:1058BC00DFE74489013C641A114622B2D9E7002A79
:1058CC0004891346B8BFD31DDB1013FB0411C36A44
:1058DC0002F0070001228240585C02435A5410BD6A
:1058EC00002A13460489C06AB8BFD31DDB1013FB12
:1058FC00041102F00702012303FA02F2435C5A403E
:10590C00CCE7000070B5402204460E468021FFF71C
:10591C00EFFC00250D4B2360656202F0B1FAFF230A
:10592C0084F8333084F83630094BA3634FF6FF729A
:10593C000123C4E90A05A28684F8376084F83C3058
:10594C002564A4F84450204670BD00BF0C950B0094
:10595C00188F0B00F8B50446806A0D4690B194F987
:10596C00301001F067FCA06A036800219B6898471F
:10597C00A06A036829469B689847A06ABDE8F8406E
:10598C0001F05FBC94F93530014698B202F01BFA75
:10599C00606A20B12946BDE8F84001F0D1BE082666
:1059AC00802794F9330005EA070180B202F00BFA64
:1059BC0094F93400012180B202F005FA94F9340014
:1059CC00002180B202F0FFF9013E4FEA5707E8D1FF
:1059DC00F8BD38B50446806A0D4680B1A16C01F063
:1059EC001BFC002D204614BFA721A621FFF7B2FFF8
:1059FC00A06A88B1E16CBDE8384001F00DBC606A6A
:105A0C0018B104F1380101F02DFE94F93600002193
:105A1C0080B202F0D8F9E4E794F93600012180B2A3
:105A2C0002F0D1F9606A18B1BDE8384001F000BE4F
:105A3C0038BD2DE9F8430446806A0D468F1840B3F3
:105A4C0094F9301001F0F6FBA06A036800219B6802
:105A5C0098470126AF42A06A17D01F2E0CD901F02F
:105A6C00F0FB94F93010A06A01F0E4FBA06A036823
:105A7C0000219B6898470126A06A15F8011B036852
:105A8C0001369B689847F6B2E4E7BDE8F84301F0AD
:105A9C00D8BB94F93530014698B202F094F9BD4266
:105AAC0022D0606A15F8019B18B1494601F048FEF6
:105ABC00F5E708264FF0800894F9330009EA08014D
:105ACC0080B202F080F994F93400012180B202F026
:105ADC007AF994F93400002180B202F074F9013E95
:105AEC004FEA5808E8D1DAE7BDE8F883B0F90A3094
:105AFC00DA1D48BF03F10E02B0F90830C06AD210AB
:105B0C005A43002102F0FABB2DE9FF411E46C36A3D
:105B1C009DF8288004460F461546D3B12046FFF762
:105B2C00E5FFB4F90A20202A25DCB4F9081020235B
:105B3C00203A73390120CDE9013002EBD272732384
:105B4C0001EBD171009342F34F02854B41F34F01AE
:105B5C001BE0B0F90A30D81D48BF03F10E00B4F9B0
:105B6C000830C010584301F075FAE0620028D5D116
:105B7C0004B0BDE8F08140234FF0010CCDE9013CAD
:105B8C00802300930022774B11462046FFF7C6FB7B
:105B9C00A06A84F83170002878D0002D74D1B4F943
:105BAC000A30202B0CBF3C253D2584F83050B8F131
:105BBC00000F01D001F034FBFEB194F9370000283E
:105BCC001BDB012180B202F0EDF894F937000121C2
:105BDC0080B202F0F8F8012001F07CFA94F9370059
:105BEC00002180B202F0EFF80A2001F073FA94F968
:105BFC003700012180B202F0E6F8A06A002874D0C8
:105C0C00A16C01F009FB042257492046FFF711FF54
:105C1C0061890139C9B22046FFF79CFE5349042221
:105C2C002046FFF706FF94F93130012B0CBF1021F1
:105C3C0014212046FFF78EFE04224D492046FFF723
:105C4C00F8FEA3684B4A93425CD14B490422204690
:105C5C00FFF7EFFED9212046FFF77CFE94F9313097
:105C6C00012B0CBF2221F1212046FFF773FE2046A9
:105C7C0042490622FFF7DDFEA06A002863D0E16CE2
:105C8C0001F0CAFA012073E76DB28EE794F9350082
:105C9C00012180B202F086F894F93600012180B21D
:105CAC0002F080F894F93600012180B202F08BF8F2
:105CBC00656A3DB1B8F1000F3FF47EAF284601F0A4
:105CCC00A3FC79E794F93300012180B202F06AF861
:105CDC0094F93400012180B202F064F894F9340094
:105CEC00294680B202F06FF866E7606A18B104F1D9
:105CFC00380101F0B7FC94F93600002180B202F0B3
:105D0C0062F880E71E4A93420ED11E4903222046B8
:105D1C00FFF78FFE94F93130012B0CBF9F21CF215F
:105D2C002046FFF717FE95E7174A934292D1174981
:105D3C0003222046FFF77DFE94F93130012B0CBF76
:105D4C001021AF21ECE794F93600012180B202F06A
:105D5C003AF8606A002895D001F06AFC92E700BF1F
:105D6C00248F0B0004910B006C950B0070950B00AD
:105D7C0074950B00800020007E950B0078950B002D
:105D8C008000400082950B006000100085950B0090
:105D9C0070B5002ABDF810503DDBB0F90A409442B2
:105DAC0039DD0029BEBF5B181BB20021B0F90840D9
:105DBC00CE18A642C4BF631A1BB2002B2BDDC06ADF
:105DCC00D61014FB0611014402F007000122824098
:105DDC00012DD2B216D0022D0BD0E5B9D243D2B2DE
:105DEC000B44994217D011F8010B104001F8010C2B
:105DFC00F7E70B4499420ED011F8010B504001F813
:105E0C00010CF7E70B44994205D011F8010B104334
:105E1C0001F8010CF7E770BDF0B50029BDF814507E
:105E2C0076DBB0F90860B14272DA002ABEBF9B186B
:105E3C001BB20022B0F90A40D718A742C4BFA31A5C
:105E4C001BB2002B64DDC2F3C404C76A16FB041634
:105E5C0012F00702DBB207EB060423D0C2F10802F2
:105E6C00D2B22D4993423CBF4FF0FF0CA2EB030E74
:105E7C00895C3CBF4CFA0EFC0CEA0101012D07D0E9
:105E8C00022D2ED04DB917F806C02CEA010103E003
:105E9C0017F806C041EA0C01B955934238D3B0F952
:105EAC0008100C449A1AD2B2072A0ED9022D1DD111
:105EBC0013462178C9432170083BB0F90810DBB2B6
:105ECC00072B0C44F5D802F007020AB3134B012D33
:105EDC009B5C1AD0022D1CD0D5B9227822EA030380
:105EEC0015E017F806C081EA0C01D5E7291E18BF8A
:105EFC0001214942C9B213462170083BB0F9086030
:105F0C00DBB2072B3444F7D8DDE722781343237038
:105F1C00F0BD22785340FAE75C950B0064950B00BA
:105F2C0070B41446827EBDF80C60022A0DD0032A90
:105F3C0018D0012A11D10289E443144424B20396E7
:105F4C000A46214670BCFFF767BF42890589E443C6
:105F5C0019441444691A24B209B20396224670BC3F
:105F6C00FFF716BF45891944691A09B2E7E730B43F
:105F7C001446827EBDF80850022A0DD0032A18D090
:105F8C00012A11D1E2180489A41A24B202950A46F6
:105F9C00214630BCFFF7FCBE0289C9431144E2180C
:105FAC004489A41A09B224B20295224630BCFFF7E8
:105FBC0033BF4289C943114409B2E7E713B50B4C0F
:105FCC002178BFF35B8F11F001010BD120460191B9
:105FDC00FEF768F8019928B1054801F00BFB204643
:105FEC00FEF765F8024802B010BD00BFF8DF0320D1
:105FFC00FCDF032010B50446017042708370012150
:10600C0003EB430002F064F96060204610BD10B54C
:10601C000446406801F026F8204610BD10B500215A
:10602C000446007801F0CFFE142000F0F7FD207834
:10603C00012101F0C8FEBDE81040142000F0EEBDB7
:10604C0070B506460C46082523064CBF01210021DD
:10605C00707801F0B8FE013D3046FFF7DFFF6400B9
:10606C0015F0FF05E4B2EFD170BD73B513F0800FDE
:10607C001E460C46154614BFC021E021730658BFBE
:10608C0041F010012A0658BF41F008016B0658BFB9
:10609C0041F00401220658BF41F00201630658BFCB
:1060AC0041F001010190FFF7CBFF01983146FFF75A
:1060BC00C7FF01982946FFF7C3FF0198214602B09C
:1060CC00BDE87040FFF7BCBF2DE9F04704460F4612
:1060DC000021904699469DF820A0FFF7B1FF0021C2
:1060EC002046FFF7ADFF00212046FFF7A9FF002156
:1060FC002046FFF7A5FF0026A378F5B2AB4219D9CD
:10610C0005EB4500AF4200F1010200F1020308D19A
:10611C00616801F80080616801F80290616801F81B
:10612C0003A06168CB5C8A5C095C2046FFF79DFF8D
:10613C000136E1E720460021FFF782FF20460021CF
:10614C00FFF77EFF20460021FFF77AFF2046002153
:10615C00BDE8F047FFF774BF73B504460121007822
:10616C0001F020FE6078012101F01CFE00252E4676
:10617C00A378E9B28B4207D9002300961A46204631
:10618C00FFF7A2FF0135F3E702B070BD38B5044646
:10619C00084621730121154601F004FE207B0121E4
:1061AC0001F011FE28466573012101F0FBFD607BB7
:1061BC00002101F008FE204638BD00000139C9B2AB
:1061CC0008299ABF024B53F821000248704700BFC0
:1061DC0080960B0088950B0007B50190FFF7EEFE3B
:1061EC00019903B05DF804EB01F0AABA2DE9F74F61
:1061FC0007469DF830801E461546002A42D001F015
:10620C007E01007B41F08009002101F0DCFD484655
:10621C00FFF7E2FF013DEDB24FF0000B4FF0010A2A
:10622C005FFA8BF4A54222D9DCB9B8F1000F18D073
:10623C004246D3B2072B61B205D80AFA02F40C43DA
:10624C00E4B20132F5E748460191FFF7C5FF337818
:10625C000199044023EA01031C4334700BF1010B38
:10626C00DEE74846FFF7B8FF06F80B00F6E700201C
:10627C00FFF7B2FF7055387B012103B0BDE8F04F3A
:10628C0001F0A1BD03B0BDE8F08F38B50C46054652
:10629C000021007B04F07E0401F095FD44F08000A9
:1062AC00FFF79AFF0020FFF797FF01210446287B98
:1062BC0001F089FD204638BDF8B50F460646002191
:1062CC00007B15461C4601F07EFD07F07E00FFF7B3
:1062DC0083FF2544AC4204D014F8010BFFF77CFF7C
:1062EC00F8E7307B0121BDE8F84001F06CBD70B5DA
:1062FC0004460E46007B0021154601F064FD06F0B5
:10630C007E00FFF769FF2846FFF766FF207B01211F
:10631C00BDE8704001F057BD70B5164604460D46F9
:10632C00FFF7B3FF3043C2B229462046BDE87040A8
:10633C00FFF7DDBF70B5164604460D46FFF7A5FF07
:10634C0020EA0600C2B229462046BDE87040FFF79D
:10635C00CEBF08221021FFF7EDBFF8B50446154655
:10636C000F46002202211E46FFF7C1FF04220A211C
:10637C002046FFF7BCFF802214212046FFF7CCFFFC
:10638C002A463B4612212046FFF796FF03220221A4
:10639C002046FFF7ACFF41F288350A212046FFF773
:1063AC0074FF430705D4013DADB2002DF5D1042097
:1063BC000FE0002202212046FFF799FF44212046DE
:1063CC00FFF763FF422130702046FFF75EFF7070CD
:1063DC000120F8BD10B50F2202210446FFF787FFFC
:1063EC00322000F077FE02212046FFF74EFFC30655
:1063FC00F9D410BD10B528210446FFF746FF00F074
:10640C000303032B08D040F00302D2B2204628210C
:10641C00BDE81040FFF76BBF10BD10B50446407BC4
:10642C0001F0EAFC48BB607B012101F0CCFC32207E
:10643C0000F050FE204680225421FFF758FF2046E2
:10644C00A9225621FFF753FF204603225821FFF7BC
:10645C004EFF2046E8225A21FFF749FF20464022F2
:10646C002A21FFF744FF20463D222221FFF73FFF60
:10647C002046BDE81040FFF7BDBF2046FFF7AAFF3E
:10648C00D8E72DE9F04F89B0DDE91356DDF85490CB
:10649C0003929DF85C209DF858B0049204468A46FD
:1064AC000027B9F1000F3ED099F800800593002227
:1064BC0002212046FFF71BFF7F2208212046FFF711
:1064CC0016FF08EB0B18802214212046FFF724FF3F
:1064DC005FFA88F8059B9DF8482012212046FFF7AB
:1064EC00EBFE42461A212046FFF701FF52460221DD
:1064FC002046FFF7FCFEBAF10C0F04D180221A21C2
:10650C002046FFF709FF4FF4FA6808212046FFF7F1
:10651C00BCFE039B184208D1C30702D4B8F1010892
:10652C00F3D104204DE0C846C0E70C212046FFF70C
:10653C00ACFE10F0130F804646D1DDB1D6B114215C
:10654C002046FFF7A2FE3378834202463ED33070DA
:10655C002B4612212046CDF800B0FFF747FE18213C
:10656C002046FFF792FE00F00707B9F1000F01D0AB
:10657C0089F8007018F0080F2AD15DB356B3049B4C
:10658C0043B33278012A03D1042F25D1092018E016
:10659C0022D90FBB023A07ABD2B229462046FFF7ED
:1065AC00DCFE01280DD133781D449DF81C3015F804
:1065BC00022C9A4210D115F8012C9DF81D309A42EC
:1065CC000AD109B0BDE8F08F0220FAE70520F8E700
:1065DC000320F6E70120F4E70820F2E710B586B0B7
:1065EC009DF82C4005949DF828400494099C039434
:1065FC00089C0092CDE9013430220B460C21FFF7A8
:10660C0040FF06B010BD70B588B006461C468DF82C
:10661C00171015461AB31B78012B20D980221C2188
:10662C00FFF788FE07238DF81F300023CDE90233D6
:10663C000DF11F03CDE9004301222B460DF117018B
:10664C003046FFF7CBFF012807D12378022B08D166
:10665C009DF81F30002B18BF022008B070BD05201C
:10666C00FBE70220F9E713460A462621FFF7CBBFCA
:10667C0007B502230DF1030201A98DF80330FFF7D2
:10668C00F2FF00F0FD00431E5842584103B05DF884
:10669C0004FB70B586B050238DF8143000240DF136
:1066AC001603022205A906468DF81540FFF755FE84
:1066BC00012805460FD1CDE90244CDE9004423461B
:1066CC00042205A93046FFF789FF042803D00128CE
:1066DC0014BF05460225284606B070BD7FB5064698
:1066EC001D461446CAB11B78112B16D930231370D2
:1066FC005170931C21460222FFF72FFE01280AD16C
:10670C000023CDE901330390009523460422214652
:10671C003046FFF763FF04B070BD0520FBE710B5F2
:10672C008AB00C9C8DF81D201A689B88ADF822301D
:10673C0063788DF82430A3788DF82530E3788DF8C4
:10674C00263023798DF827300023CDE90433CDE9A9
:10675C00023301930C238DF81C10CDF81E200093EE
:10676C00102207AB0E21FFF78CFE0AB010BD2DE9ED
:10677C00F04F502A8BB082460F46904600F2408173
:10678C0080221C21FFF7D6FD93238DF81C30B8F125
:10679C00000F00F0BC803C78042C94BF0023012334
:1067AC00012500260BE095238DF81C30B8F1000F65
:1067BC0000F0AF803C78072C94BF00230123A8EB9A
:1067CC00C60464B224EAE474002B00F0A48088228E
:1067DC008DF81E20032114F0070218BF012202EBD2
:1067EC00E40212F0FF02E0B21DD0002B14BF4FF0F8
:1067FC0003094FF0040906F1010C914594BF01EB1C
:10680C00090E01EB020E57FA8CFC5FFA8EFE0A465B
:10681C000DF1280B0131C9B25A441CF8019B02F846
:10682C000C9C7145F3D10BB1083044B21F2C74DDB4
:10683C004FF070039DF81F208DF81D309DF81E3011
:10684C0053409DF8202053409DF8212053408DF853
:10685C00223007220DF1230307A95046FFF77DFDD7
:10686C000128814640F0C88000238DF81A3003239C
:10687C008DF81B3004940DF1220B4FF009099DF893
:10688C001A30059303EB0312D2B21A215046FFF7CC
:10689C002EFD059B02930DF11A03002201930DF1BD
:1068AC001B03039200934A465B4607A95046FFF729
:1068BC0095FE032881464CD11C215046FFF7E5FC80
:1068CC00810600F1998010F01F0008BF2020A04223
:1068DC0040F38780431E03F0070244B213F0070312
:1068EC004FEAD00018BF0123013018440AAB1844FA
:1068FC00012303FA02F210F80C3C134300F80C3C91
:10690C0094E797238DF81C300626234657E7434619
:10691C0046E7434653E702215DE7E3100233DBB25F
:10692C0004F0070214F007098DF81A2002EB031289
:10693C008DF81D2018BF4FF0010907AA994402EBEE
:10694C00030BC3F109035FFA89F98DF81B3004942A
:10695C0095E7012850D1049B1F2B4FF020047FF7A3
:10696C0067AF9DF81E30882B3ED103231A460136A3
:10697C001A4457FA86F6D2B219460AA801330144D2
:10698C00DBB211F80C1C06F8011B9342F4D19DF8F4
:10699C001B60032E37D19DF81A40A4BB0DF11E03CA
:1069AC00012259465046FFF7D8FC0128814623D1D5
:1069BC009DF81E209BF801309A4227D19DF81F208C
:1069CC009BF802309A4221D19BF800305A070ED521
:1069DC000135EDB2032D94D0042D02D0022D3FF4DD
:1069EC00E2AE4FF0060907E002230422BFE705EBF5
:1069FC0045050135FB723D7048460BB0BDE8F08F84
:106A0C004FF00709F8E74FF00209F5E74FF00809D6
:106A1C00F2E708B501460022FFF7A9FE431E5842D3
:106A2C00584108BD10B5037201238171C271037402
:106A3C0010BD10B504460021807901F0B3F9A0799E
:106A4C00012101F0C0F90023E36010BD2DE9F843EA
:106A5C00044600F0EBF8E368834284BF0023E36054
:106A6C00237C23B9E368C01AB0F5FA6F67D300250D
:106A7C00257400F0DBF80121E0602560A079257118
:106A8C0001F0A1F9FA2000F025FBA079012101F019
:106A9C0089F92946A07901F096F9142000F01AFB27
:106AAC0000F0D2FB0121A07901F08DF9282000F033
:106ABC00B5F8A079294601F075F92E4601274FF05B
:106ACC000008A07901F098F9B8425FFA88F908D16A
:106ADC00012008F1010800F0A1F8B8F1FF0FF0D186
:106AEC00C146A07901F088F9B9F1FF0FC7B214D0F3
:106AFC00032D0ED9EA070CD4F2080136A35C5B0017
:106B0C00DBB2A354217A49453CBF43F00103A354A3
:106B1C00F6B20135EDB2552DD1D100F097FB272EF1
:106B2C000FD9637820781844A3781844E378184474
:106B3C002379C0B2C31A58425841BDE8F8830120EA
:106B4C00FBE70020F9E7000010B50446FFF77EFFD5
:106B5C0020B3E3790B2B1BD0153B012B1ED8A3784C
:106B6C00DFED106A03F07F0207EE102AE27807EEE1
:106B7C00902AB8EEC77AF8EEE77A1B06E7EE267A8B
:106B8C00B2EE047A87EE870A07D5B1EE400A04E02C
:106B9C00A37800EE103AB8EE400A10BD9FED020A41
:106BAC00FBE700BF000080430000C07FFFF7CCBFB5
:106BBC000160704710B504460121008801F0F2F81D
:106BCC002088002101F0FFF8022000F027F820882F
:106BDC00012101F0F8F8052000F020F820880021B0
:106BEC0001F0F1F82088002101F0DCF82088012167
:106BFC0001F02CF93A2390FBF3F010BD08B5024BD1
:106C0C001B685B6C019308BD4802030008B5024B7E
:106C1C001B685B68019308BD1802030008B5024BA2
:106C2C001B68DB68019308BD1802030008B5024B12
:106C3C001B685B69019308BD1802030008B5024B81
:106C4C001B685B68019308BD2C02030008B5024B5E
:106C5C001B689B68019308BD2C02030008B5024B0E
:106C6C001B68DB68019308BD2C02030008B5024BBE
:106C7C001B681B69019308BD2C02030008B5024B6D
:106C8C001B685B69019308BD2C02030008B5024B1D
:106C9C001B681B6A019308BD2C02030008B5024B4C
:106CAC001B685B6A019308BD2C02030008B5024BFC
:106CBC001B681B6B019308BD2C02030008B5024B2B
:106CCC001B68DB6C019308BD2C02030008B5024B5A
:106CDC001B681B68019308BD2802030008B5024B12
:106CEC001B68DB68019308BD2802030008B5024B42
:106CFC001B689B69019308BD2802030008B5024B71
:106D0C001B68DB69019308BD2802030008B5024B20
:106D1C001B681B6A019308BD2802030008B5024BCF
:106D2C001B685B6A019308BD2802030008B5024B7F
:106D3C001B689B6A019308BD2802030008B5024B2F
:106D4C001B68DB6A019308BD2802030008B5024BDF
:106D5C001B681B6B019308BD2802030008B5024B8E
:106D6C001B685B6B019308BD2802030008B5024B3E
:106D7C001B681B6C019308BD2802030008B5024B6D
:106D8C001B685B69019308BD6402030008B5024BE4
:106D9C001B689B68019308BD6802030008B5024B91
:106DAC001B68DB68019308BD6802030008B5024B41
:106DBC001B681B68019308BD3002030008B5024B29
:106DCC001B685B69019308BD3002030008B5024BD8
:106DDC001B68DB69019308BD3002030008B5024B48
:106DEC001B681B6A019308BD3002030008B5024BF7
:106DFC001B685B6A019308BD3002030008B5024BA7
:106E0C001B68DB6B019308BD3002030008B5024B15
:106E1C001B681B6C019308BD3002030008B5024BC4
:106E2C001B685B6C019308BD3002030008B5024B74
:106E3C001B68DB68019308BD3C02030008B5024BDC
:106E4C001B681B69019308BD3C02030008B5024B8B
:106E5C001B685B69019308BD3C02030008B5024B3B
:106E6C001B689B69019308BD3C02030008B5024BEB
:106E7C001B68DB69019308BD3C02030008B5024B9B
:106E8C001B681B6A019308BD3C02030008B5024B4A
:106E9C001B689B6A019308BD3C02030008B5024BBA
:106EAC001B681B6C019308BD3C02030008B5024B28
:106EBC001B681B68019308BD4C02030008B5024B0C
:106ECC001B685B68019308BD4C02030008B5024BBC
:106EDC001B681B69019308BD4C02030008B5024BEB
:106EEC001B685B69019308BD4C02030008B5024B9B
:106EFC001B689B69019308BD4C02030008B5024B4B
:106F0C001B68DB69019308BD4C02030008B5024BFA
:106F1C001B681B6A019308BD4C02030008B5024BA9
:106F2C001B685B6B019308BD6002030008B5024B44
:106F3C001B685B68019308BD2002030008B5024B77
:106F4C001B685B69019308BD2002030008B5034B65
:106F5C001B68D3F88830019308BD000020020300A1
:106F6C0008B5034B1B68D3F89430019308BD00009F
:106F7C002002030008B5024B1B68DB6B019308BDB4
:106F8C004402030008B5024B1B685B6C019308BDFF
:106F9C004402030008B5024B1B685B68019308BDF3
:106FAC004002030008B5024B1B689B68019308BDA7
:106FBC004002030008B5024B1B68DB68019308BD57
:106FCC004002030008B5024B1B681B69019308BD06
:106FDC004002030008B5024B1B685B69019308BDB6
:106FEC004002030008B5024B1B689B69019308BD66
:106FFC004002030008B5024B1B68DB69019308BD16
:10700C004002030008B5024B1B681B6A019308BDC4
:10701C004002030008B5024B1B681B6B019308BDB3
:10702C004002030008B5024B1B685B6B019308BD63
:10703C004002030008B5024B1B681B6C019308BD92
:10704C004002030008B5024B1B685B6C019308BD42
:10705C004002030008B5024B1B681B68019308BD76
:10706C001C02030008B5024B1B685B68019308BD4A
:10707C001C02030008B5024B1B689B68019308BDFA
:10708C001C02030008B5024B1B68DB69019308BDA9
:10709C001C02030008B5024B1B685B6A019308BD18
:1070AC001C02030008B5024B1B681B6B019308BD47
:1070BC001C02030008B5024B1B681B6C019308BD36
:1070CC001C02030008B5024B1B685B6C019308BDE6
:1070DC001C0203000021FFF731BF0000024800230F
:1070EC000360FFF78BBD00BFC4E603201FB50C2364
:1070FC00ADF8043003688DF80630037A8DF807304C
:10710C00436802930021437AADF80D1001A88DF865
:10711C000F108DF80C30FFF735FF05B05DF804FB50
:10712C00002240681146FFF76DBF002240681146EF
:10713C00FFF778BF40680022FFF76CBF4068002261
:10714C0081F00101FFF756BF002340681A4619462B
:10715C00FFF748BF002340681A461946FFF73ABFAD
:10716C00002240681146FFF72DBF002240681146EF
:10717C00FFF718BF406800220221FFF71BBF002356
:10718C0040681A46FFF706BF024B03225A60024AB8
:10719C001A607047C8E60320AC960B007047F8B530
:1071AC00064615460C468F18BC4206D0336814F8B8
:1071BC00011B9B6830469847F6E72846F8BD007CD3
:1071CC000022FFF7A3BD007C0021FFF7A7BD007CC8
:1071DC000021FFF7ABBD007C0021FFF7AFBD007CA9
:1071EC000021FFF7B3BD10B514210446FCF74DFF89
:1071FC00204610BD10B54FF47A73044608460021A2
:10720C00C4E90113034B236020741146FFF7AEFD54
:10721C00204610BDE8960B00007C0022FFF756BDFF
:10722C000023007C1A461946FFF758BD007C00224B
:10723C00FFF75CBDC9B2FFF7F9BF007C0022FFF776
:10724C005DBD0121FFF7F9BFFFF728BDFFF71EBD9C
:10725C00704710B518210446FCF717FF204610BDE7
:10726C00F0B5037D062B8DB00E4600F104074FF0F0
:10727C00000412D000F1080515F8011D0A22304651
:10728C0000F05DF9AF42044419D0002CF4D02E214B
:10729C00304600F03BF90444EEE72F236A463946AA
:1072AC000A208DF80040FFF769FD684601F074F87C
:1072BC0033680246DB6869463046984704462046E8
:1072CC000DB0F0BD10B5054B0446112240F8043B3F
:1072DC00002101F013F8204610BD00BF10970B00E1
:1072EC000346074A10B543F8042B01F1100251F87C
:1072FC00044B43F8044B9142F9D10A781A7010BD33
:10730C0010970B0010B59DF8084044EA032343EA9C
:10731C00024242EA016104234160037510BD000082
:10732C0007B5064B0360CB7800938B784A780978C5
:10733C00FFF7E8FF03B05DF804FB00BF10970B00EC
:10734C00014B024A1A607047D0E603201C970B00D1
:10735C00002340681A46FFF71DBE40680022022138
:10736C00FFF728BE002240681146FFF71BBE002223
:10737C0040681146FFF726BE002340681A4619469E
:10738C00FFF728BE002340681A461946FFF72ABEAD
:10739C0040680021FFF74EBE40680021FFF752BE47
:1073AC004068002281F00101FFF724BE40680022F2
:1073BC00FFF730BE002240681146FFF733BE0022B3
:1073CC0040681146FFF71EBE2DE9F04395B01446F8
:1073DC000D460746FFF776FF00211C220DA80091F1
:1073EC0000F08CFF40230C9320466B460CAA002126
:1073FC00FFF7D4FC044600284BD1024601216868F3
:10740C00FFF7E0FD0221804622466868FFF7DAFDAF
:10741C00009E81462146002E3BD0002939D173684D
:10742C00022B03D00A2B11D0F669F4E7B8F1000F48
:10743C00FAD0716906A8043107ADFFF771FF0FCDC3
:10744C003C1D0FC42B6823704146EDE7B9F1000FCA
:10745C00EAD07469102201A800F050FF06238DF8C1
:10746C00143001AD04F108031834186859682A4621
:10747C0003C20833A3421546F7D101A906A807ADEC
:10748C00FFF72EFF0FCD3C1D0FC42B682370494610
:10749C00CAE70098FFF77AFC384615B0BDE8F083D0
:1074AC00024B034A1A6000225A607047D4E603204C
:1074BC0028970B00F8B506460D468F180024BD42E0
:1074CC000CD0336815F8011B9B6830469847031E97
:1074DC0001DB1C44F3E7002C08BF1C462046F8BD1A
:1074EC0013B50446084659B1019100F055FF2368C5
:1074FC000199DB680246204602B0BDE810401847EF
:10750C0002B010BD08B5FFF7EBFF08BD03689B6820
:10751C00184738B50D210546FFF7F8FF0A21044638
:10752C002846FFF7F3FF204438BD38B50546FFF772
:10753C00D7FF04462846FFF7ECFF204438BD30B592
:10754C008BB00023012A8DF8243098BF0A2209AC95
:10755C000D46B1FBF2F101FB125303F0FF03092BB3
:10756C0094BF30333733DBB2AA4204F8013DEFD974
:10757C002146FFF7B5FF0BB030BD2DE9F04186B0C9
:10758C0000AF05460E46381D142114463B60FFF72C
:10759C0081FD13280ED8391D2846FFF7A1FF04469C
:1075AC001EB12846FFF7B5FF044420461837BD46E8
:1075BC00BDE8F08100F1080323F00703E846ADEBCA
:1075CC00030D2246411C3B686846FFF763FD694684
:1075DC002846FFF785FF0446C546E1E7014B00222C
:1075EC009A607047DCE603200021FFF717BC0021EE
:1075FC00FFF70CBC10B5044608462170FFF7E6FBFC
:10760C0000236360204610BD13B504460078FFF7D5
:10761C00EEFF58B9207801904FF6FF71FFF7C6FBCB
:10762C00019802B0BDE81040FFF7DEBF02B010BDFC
:10763C000078FFF7D9BF0000400830B5186000246F
:10764C0018688842E5B206D90134082C02D04008EB
:10765C001860F5E70725024B5B5D137030BD00BF6A
:10766C005C970B002DE9F04306468FB000780C4672
:10767C00FFF7BDFF00281BDB35781422002109A879
:10768C0000F03CFE0B23002209A92846ADF824305B
:10769C00FFF7ACFB9DF82D3013B19DF82C5055B174
:1076AC000027B946B846012523795DB1C3B1002046
:1076BC000FB0BDE8F083DDF830809DF834909DF874
:1076CC003570F1E7002B35D1A368434508D18DF80F
:1076DC0020908DF82170BDF82020A3899A42E6D025
:1076EC000023A1688DF80F300A9804AB0DF10F023E
:1076FC00FFF7A2FF217985B989B9A36843450ED359
:10770C008DF820908DF82170BDF82020A3899A4225
:10771C0005D1049B434502D1C9E70029F9D10023C7
:10772C000193637B00939DF80F20237B3078FFF748
:10773C0065FBBCE7CDE900552B462A460121F5E750
:10774C0008B50078FFF73AFBC0B208BD10B5044687
:10775C000068FFF787FC204610BD10B50446006892
:10776C0008B1FFF77FFC0023C4E90133236010BD8F
:10777C0038B504460D4600680131FFF77BFC10B1AB
:10778C00C4E90005012038BD10B50368044623B1D7
:10779C0043688B4201D3012010BD2046FFF7E8FF60
:1077AC000028F9D0A368002BF5D122681370F2E7FA
:1077BC0037B50D46114601920446FFF7E5FF019AD5
:1077CC0028B92046FFF7C9FF204603B030BDA260A0
:1077DC002946206800F084FD2268A3680021D1545A
:1077EC00F2E7002313B5C0E900330446836003734A
:1077FC0041B10846019100F0CFFD019902462046A7
:10780C00FFF7D6FF204602B010BD884210B50446E3
:10781C0005D00B682BB18A681946FFF7C9FF2046C3
:10782C0010BDFFF79AFFFAE710B500230446C0E934
:10783C00003383600373FFF7E8FF204610BD13B5D8
:10784C00044659B10846019100F0A6FD0199024683
:10785C002046FFF7ADFF204602B010BDFFF77DFFBD
:10786C00F9E710B504468AB00023C4E90033A360DD
:10787C002373084601A900F0A5F901A92046FFF7DA
:10788C00DEFF20460AB010BD70B505460E4609B99C
:10789C00002070BD6AB1846814442146FFF774FF60
:1078AC000028F5D02868AB683146184400F06CFD10
:1078BC00AC600120EDE710B58A6809680446FFF753
:1078CC00E3FF10B92046FFF748FF204610BD13B563
:1078DC00044629B92046FFF740FF204602B010BDF0
:1078EC000846019100F058FD019902462046FFF729
:1078FC00CBFF0028EED0F0E7054B02221A60054BB7
:10790C00054A9A600020C3E90000FFF70FBB00BFD7
:10791C00F8E60320ECE603200000FFFF024B1A6898
:10792C00024B1A60704700BF8CDF0320FCE603207B
:10793C0070474174704708B5007CFFF7A7FA20EA3E
:10794C00E07008BD08B5007CFFF778FA20EAE0701B
:10795C0008BD08B5007CFFF781FA40EAE07008BD6D
:10796C0008B5007CFFF772FA40EAE07008BD007CB5
:10797C00FFF77CBA37B5457C04462DB1207C03B0AB
:10798C00BDE83040FFF752BA007C0191FFF77EFA58
:10799C0000280199F2DC284603B030BD10B5142143
:1079AC000446FCF772FB204610BD000010B54FF4E6
:1079BC007A730446084611460022C4E90123044B9D
:1079CC002360012320746374FFF768FA204610BD0E
:1079DC0088970B00417470477047704708B50021B9
:1079EC00007CFFF783FA40EAE07008BD08B501217E
:1079FC00007CFFF77BFA40EAE07008BD08B5007C1C
:107A0C00FFF76CFA20EAE07008BD08B5007CFFF7C0
:107A1C005DFA20EAE07008BD13B50446007C0191C4
:107A2C00FFF75CFA0028019901DC607C20B1207C16
:107A3C00FFF764FA20EAE07002B010BD007CFFF79B
:107A4C0065BA10B514210446FCF71FFB204610BD87
:107A5C0010B54FF47A73044608460021C4E90113AB
:107A6C00044B23600123207463741146FFF71EFA44
:107A7C00204610BDB8970B00007C0022FFF71EBA01
:107A8C0010B514220446002100F038FC204610BD2D
:107A9C0010B50F4C88B003A8FFF7F2FF2178BFF3A5
:107AAC005B8F11F001010FD120460191FCF7FAFA1E
:107ABC00019948B103AA0748FFF7CAFF2046FCF713
:107ACC00F6FA054800F0FEFB024808B010BD00BFF6
:107ADC0000E7032004E70320E5790B00002240684F
:107AEC001146FFF76FBA002240681146FFF78ABAB9
:107AFC00002240681146FFF795BA40680022FFF754
:107B0C0089BA4068002281F00101FFF773BA0023A3
:107B1C0040681A461946FFF765BA002340681A46B2
:107B2C001946FFF757BA002240681146FFF73ABAD8
:107B3C00406800220221FFF73DBA002340681A4634
:107B4C00FFF728BA024B04225A60024A1A607047A7
:107B5C0018E70320E8970B0010B5044600F01CFC56
:107B6C00013823182046834206D90278197800F888
:107B7C00011B03F80129F6E710BD70B50C46911EE8
:107B8C0022291DD8254630B9234430229D4210D2DB
:107B9C0005F8012BFAE7B0FBF2F602FB1600C1B2B6
:107BAC00092894BF30315731C9B205F8011B304652
:107BBC00E9E7002320462B70FFF7CEFF204670BD6F
:107BCC000020FCE738B5031E0C4615460EDAB3F15F
:107BDC00004F4FF02D0214BF5842184601230A7073
:107BEC002A461944FFF7C9FF204638BD0123F9E79F
:107BFC00014B1860704700BF90DF032008B50B4B9A
:107C0C0043B1FFF745FF03681B699847002801DD66
:107C1C00AFF30080064B43B100F072F903681B69A7
:107C2C009847002801DDAFF3008008BD000000007C
:107C3C000000000008B5FFF7E1FFFEF7F7FF014B6E
:107C4C00186008BD28E703200548064A064908B510
:107C5C00121A00F045FB054B054A1A6008BD00BF1F
:107C6C0000F4032004F4032010990B0000F403200B
:107C7C001E1C279A07B5002300931A466FF0770154
:107C8C00FFF76EF903B05DF804FB000007B54388FD
:107C9C000A2B08D0502B0BD1094B1B684BB103B0EE
:107CAC005DF804EB1847FFF7E5FF03B05DF804FB44
:107CBC00002300931A466FF07701FFF751F9F4E7B0
:107CCC0024E7032010B512480021FFF7FBF9114BF4
:107CDC001A68114B9A42114B0CBF012200221A70E8
:107CEC0001D0FFF7B1FFFEF791FF044600F01EFB39
:107CFC000B4B13B12046AFF3008000210848FFF76F
:107D0C0039F9BDE8104007480021FFF71FB900BF43
:107D1C00FD7B0B0000F403201E1C279A20E7032098
:107D2C0000000000997C0B00232813B502D9002019
:107D3C0002B010BDA0F10B03022B1AD8174C2178FE
:107D4C00BFF35B8F11F001010BD120460191FCF7C1
:107D5C00A9F9019928B11248FFF74CFC2046FCF711
:107D6C00A6F90F4B1878FFF739F80028DFD101205E
:107D7C00DEE7012809D800F083F80021007CFEF72B
:107D8C00EDFF80F00100C0B2D2E709380128EED82F
:107D9C0000F0B6F8007CFFF771F8F2E7F8DF03208B
:107DAC00FCDF0320232838B504460D460AD8FF29EA
:107DBC0008D0FFF7B9FF28B129462046BDE8384066
:107DCC00FEF744BF38BD38B504460D46FEF746FFF6
:107DDC00FF2810D0062804D84D2323FA00F0C3073F
:107DEC0009D42046FFF7A0FF28B129462046BDE85C
:107DFC003840FEF73BBF38BD10B50446FEF72EFFEA
:107E0C00031FDBB2012B08D92046FFF78DFF20B1F1
:107E1C002046BDE81040FEF731BF002010BD0D28F4
:107E2C0010B504469CBF0E34A4B22046FFF77CFF6D
:107E3C0050B103212046FEF701FF032804D1204650
:107E4C00BDE81040FEF732BF002010BDFEF736BF74
:107E5C007047000038B52025142304460360856064
:107E6C0005610649284600F06FF804496060284611
:107E7C0000F06AF8E060204638BD00BF1C980B008B
:107E8C0030B50E4D2978BFF35B8F11F0010487B02C
:107E9C0011D12846FCF706F968B101A8FFF7DAFF03
:107EAC0001AA21460648FFF7A5F92846FCF7FFF87A
:107EBC00044800F007FA024807B030BD2CE7032055
:107ECC0030E703205D7E0B007047000038B5044698
:107EDC0014252A46002100F011FA25804025074977
:107EEC0025812846258200F02FF804496060284639
:107EFC0000F02AF8E060204638BD00BF1C980B004B
:107F0C0030B50E4D2978BFF35B8F11F0010487B0AB
:107F1C0011D12846FCF7C6F868B101A8FFF7D6FFC7
:107F2C0001AA21460648FFF741FD2846FCF7BFF899
:107F3C00044800F0C7F9024807B030BD44E70320FD
:107F4C0048E70320D57E0B00FCF79DB881F000417B
:107F5C0002E000BF83F0004330B54FEA41044FEA22
:107F6C00430594EA050F08BF90EA020F1FBF54EABD
:107F7C00000C55EA020C7FEA645C7FEA655C00F059
:107F8C00E2804FEA5454D4EB5555B8BF6D420CDD2A
:107F9C002C4480EA020281EA030382EA000083EAAD
:107FAC00010180EA020281EA0303362D88BF30BD4D
:107FBC0011F0004F4FEA01314FF4801C4CEA1131A3
:107FCC0002D0404261EB410113F0004F4FEA033302
:107FDC004CEA133302D0524263EB430394EA050F8D
:107FEC0000F0A780A4F10104D5F1200E0DDB02FAFC
:107FFC000EFC22FA05F2801841F1000103FA0EF290
:10800C00801843FA05F359410EE0A5F120050EF155
:10801C00200E012A03FA0EFC28BF4CF0020C43FA86
:10802C0005F3C01851EBE37101F0004507D54FF093
:10803C00000EDCF1000C7EEB00006EEB0101B1F5E3
:10804C00801F1BD3B1F5001F0CD349085FEA300029
:10805C004FEA3C0C04F101044FEA445212F5800F34
:10806C0080F09A80BCF1004F08BF5FEA500C50F1D1
:10807C00000041EB045141EA050130BD5FEA4C0CB4
:10808C00404141EB0101013C28BFB1F5801FE9D211
:10809C0091F0000F04BF01460020B1FA81F308BF34
:1080AC002033A3F10B03B3F120020CDA0C3208DD00
:1080BC0002F1140CC2F10C0201FA0CF021FA02F1DB
:1080CC000CE002F11402D8BFC2F1200C01FA02F14B
:1080DC0020FA0CFCDCBF41EA0C019040E41AA2BF70
:1080EC0001EB0451294330BD6FEA04041F3C1CDA38
:1080FC000C340EDC04F11404C4F1200220FA04F058
:10810C0001FA02F340EA030021FA04F345EA030101
:10811C0030BDC4F10C04C4F1200220FA02F001FAC3
:10812C0004F340EA0300294630BD21FA04F0294645
:10813C0030BD94F0000F83F4801306BF81F48011DE
:10814C000134013D4EE77FEA645C18BF7FEA655C51
:10815C0029D094EA050F08BF90EA020F05D054EA23
:10816C00000C04BF1946104630BD91EA030F1EBF28
:10817C000021002030BD5FEA545C05D1400049412C
:10818C0028BF41F0004130BD14F580043CBF01F51F
:10819C00801130BD01F0004545F0FE4141F4700105
:1081AC004FF0000030BD7FEA645C1ABF19461046E0
:1081BC007FEA655C1CBF0B46024650EA013406BFE1
:1081CC0052EA033591EA030F41F4002130BD00BFA0
:1081DC0090F0000F04BF0021704730B54FF480645D
:1081EC0004F132044FF000054FF0000150E700BFDE
:1081FC0090F0000F04BF0021704730B54FF480643D
:10820C0004F1320410F0004548BF40424FF0000129
:10821C003EE700BF42004FEAE2014FEA31014FEA6C
:10822C0002701FBF12F07F4393F07F4F81F06051BB
:10823C00704732F07F4208BF704793F07F4F04BF06
:10824C0041F40021704730B54FF4607401F00045E3
:10825C0021F000411CE700BF50EA010208BF704743
:10826C0030B54FF000050AE050EA010208BF704734
:10827C0030B511F0004502D5404261EB41014FF49D
:10828C00806404F132045FEA915C3FF4D8AE4FF0A5
:10829C0003025FEADC0C18BF03325FEADC0C18BF88
:1082AC00033202EBDC02C2F1200300FA03FC20FAD9
:1082BC0002F001FA03FE40EA0E0021FA02F1144426
:1082CC00BDE600BF002301461A46184600F0C8B8A8
:1082DC00024B0A460146186800F018B890DF0320DC
:1082EC000A44914200F1FF3300D1704710B511F8E8
:1082FC00014B03F8014F9142F9D110BD02440346E2
:10830C00934200D1704703F8011BF9E713B54A43B8
:10831C0011460192FEF7C6FE044618B1019A0021DF
:10832C00FFF7ECFF204602B010BD000038B5104B33
:10833C001D68AB6B0446B3B91820FEF78BFE0246E2
:10834C00A86320B90B4B0C484221FEF7B3FE0B4936
:10835C000B4BC0E900130B4B83600B238381002173
:10836C000120C2E90401AB6B00221C615A6138BDCB
:10837C0090DF03201D980B0034980B000E33CDAB0F
:10838C0034126DE6ECDE0500034611F8012B03F800
:10839C00012B002AF9D17047034613F8012B002A50
:1083AC00FBD1181A01387047164B73B51E68B46DA3
:1083BC000546FCB950200191FEF74CFE0199B065C1
:1083CC00024620B9104B11485721FEF773FEC0E945
:1083DC000044C0E90244C0E90444C0E90A44C0E9CD
:1083EC000C44C0E90E44C0E91044C0E91244846155
:1083FC0004774462B26D0123284602B0BDE8704098
:10840C0000F006B890DF03201D980B008D980B0030
:10841C00F0B508B9106888B10446204614F8015B21
:10842C000F4617F8016B1EB965B91560284605E0B3
:10843C00B542F6D1002BF0D114600370F0BD1C4690
:10844C000CE015B914F8013B0E4616F8015BAB4273
:10845C00F7D1002BF3D0002304F8013C1460EDE7B6
:10846C002DE9F843DFF8B8800646D8F800001F461F
:10847C000D46914600F056F8254B1C6834B9254C36
:10848C001C60254B13B11B68C4F8883063681F2B24
:10849C0007DDD8F8000000F047F84FF0FF30BDE8DA
:1084AC00F8834EB3D4F8880088B91C4B23B9D8F89C
:1084BC00000000F038F8F0E74FF48470FEF7CAFDC6
:1084CC000028F4D00023C0E94033C4F88800636866
:1084DC0040F8239001229A4000EB8301D0F8003140
:1084EC001343C0F80031022EC1F8807002BFD0F8DF
:1084FC0004311343C0F804316368D8F800005A1CE7
:10850C000233626044F8235000F00EF80020C6E7F6
:10851C00E8E703205CE703200000000061700B001B
:10852C00F4DF032070477047704700001D400B00BC
:10853C0059400B0081400B0085400B0000000000EF
:10854C0020410020440053656E736F7220506F639E
:10855C00612044697374616E6369610053656E7365
:10856C006F72204D756368612044697374616E632A
:10857C006961004F4C45443A2053656E736F72200D
:10858C004C757A202D3E2025640053656E736F72F6
:10859C00204E6F204C757A0053656E736F722053AA
:1085AC0069204C757A0053656E736F72204E6F2084
:1085BC00527569646F0053656E736F722053692036
:1085CC00527569646F0053656E736F72204E6F2025
:1085DC00426F746F6E0053656E736F722053692017
:1085EC00426F746F6E0053656E736F72204E6F2006
:1085FC00526F74617469766F0053656E736F72207D
:10860C00536920526F74617469766F0053656E7391
:10861C006F722054656D702E4672696F0053656ED3
:10862C00736F722054656D702E54656D706C61643F
:10863C006F0053656E736F722054656D702E4361BD
:10864C006C6F720053656E736F7220446973746142
:10865C006E6369612043657263610053656E736F6D
:10866C00722044697374616E636961204C656A6F32
:10867C00730053656E736F724E6F56616C69646FE5
:10868C004572726F72005247422D56657264652DA9
:10869C00526F6A6F005247422D416D6172696C6C6A
:1086AC006F2D4D6F7261646F005247422D417A7588
:1086BC006C2D4E6172616E6A61005247422D426CA4
:1086CC00696E6B005247422D5261696E426F7700A2
:1086DC005247422D4F6E2D4F6666005A756D626182
:1086EC00646F72204F6E2D4F6666005A756D626115
:1086FC00646F7220426C696E6B00416374756164C7
:10870C006F724E6F56616C69646F4572726F720056
:10871C004D49464152455F52656164282920666186
:10872C00696C65643A20005043445F417574686518
:10873C006E7469636174652829206661696C65646F
:10874C003A2000546167496E666F3A2025730043E6
:10875C006F6E656374617220616C207075657274E4
:10876C006F2041300A00436F6E6563746172206143
:10877C006C2070756572746F2041320A00436F6E05
:10878C00656374617220616C2070756572746F2002
:10879C0041340A00436F6E656374617220616C2012
:1087AC0070756572746F2044320A00436F6E656396
:1087BC0074617220616C2070756572746F20443422
:1087CC000A00436F6E656374617220616C20707572
:1087DC006572746F2044360A004572726F723A20CB
:1087EC004E6F20686179206D6173207075657274AD
:1087FC006F7320646973706F6E69626C6573200AA5
:10880C00004C65644572726F724F7074696F6E00C4
:10881C0056616C6F72206E6F2076616C69646F00AC
:10882C0044697374616E6369613A20256400546510
:10883C006D703A20256600496E76616C69645365EB
:10884C006E736F724572726F720053652065737030
:10885C0065726162612049462074616700446573EA
:10886C007075657320646520756E2073656E736F0B
:10887C00722073652065737065726120756E61205E
:10888C00636F6E63696F6E3A20414E442075204FC2
:10889C00520053656E736F722072657065746964F3
:1088AC006F20656E20656C20626C6F717565004978
:1088BC006E76616C6964204163747561646F7200DB
:1088CC004E756D65726F20646520626C6F71756595
:1088DC0073203E2032207C7C205365206E656365BE
:1088EC007369746120616C206D656E6F7320756E99
:1088FC00206163747561646F7220706172612074A1
:10890C0065726D696E617220656C20626C6F717539
:10891C006500556E6120636F6E636963696F6E20CD
:10892C00736F6C6F20707565646520697220736558
:10893C00677569646120646520756E2073656E735C
:10894C006F722E004E756D65726F206465207365B5
:10895C006E736F72657320696E66756369656E748C
:10896C006573002D0000000000003E5B4F5B3E3E37
:10897C006B4F6B3E1C3E7C3E1C183C7E3C181C57BF
:10898C007D571C1C5E7F5E1C00183C1800FFE7C363
:10899C00E7FF0018241800FFE7DBE7FF30483A0632
:1089AC000E2629792926407F050507407F05253F9E
:1089BC005A3CE73C5A7F3E1C1C08081C1C3E7F148A
:1089CC00227F22145F5F005F5F06097F017F0066D4
:1089DC0089956A606060606094A2FFA29408047E2E
:1089EC00040810207E201008082A1C08081C2A08DD
:1089FC00081E101010100C1E0C1E0C30383E383097
:108A0C00060E3E0E06000000000000005F00000095
:108A1C0007000700147F147F14242A7F2A122313C3
:108A2C0008646236495620500008070300001C22D7
:108A3C0041000041221C002A1C7F1C2A08083E0809
:108A4C00080080703000080808080800006060000A
:108A5C0020100804023E5149453E00427F400072FE
:108A6C00494949462141494D331814127F10274575
:108A7C004545393C4A494931412111090736494993
:108A8C004936464949291E000014000000403400B4
:108A9C000000081422411414141414004122140868
:108AAC0002015909063E415D594E7C1211127C7F20
:108ABC00494949363E414141227F4141413E7F492E
:108ACC004949417F090909013E414151737F080819
:108ADC00087F00417F41002040413F017F08142264
:108AEC00417F404040407F021C027F7F0408107F82
:108AFC003E4141413E7F090909063E4151215E7FBD
:108B0C0009192946264949493203017F01033F408F
:108B1C0040403F1F2040201F3F4038403F63140817
:108B2C00146303047804036159494D43007F4141A8
:108B3C00410204081020004141417F04020102045B
:108B4C004040404040000307080020545478407FC8
:108B5C00284444383844444428384444287F385402
:108B6C0054541800087E090218A4A49C787F0804A9
:108B7C00047800447D40002040403D007F10284494
:108B8C000000417F40007C047804787C0804047861
:108B9C003844444438FC1824241818242418FC7C29
:108BAC0008040408485454542404043F44243C400E
:108BBC0040207C1C2040201C3C4030403C44281071
:108BCC0028444C9090907C4464544C4400083641AA
:108BDC000000007700000041360800020102040288
:108BEC003C2623263C1EA1A161123A4040207A3833
:108BFC005454555921555579412254547842215594
:108C0C0054784020545579400C1E527212395555E7
:108C1C005559395454545939555454580000457CBD
:108C2C00410002457D420001457C407D1211127DC0
:108C3C00F0282528F07C545545002054547C547C55
:108C4C000A097F4932494949323A4444443A324A42
:108C5C004848303A4141217A3A42402078009DA060
:108C6C00A07D3D4242423D3D4040403D3C24FF24DE
:108C7C0024487E4943662B2FFC2F2BFF0929F62015
:108C8C00C0887E090320545479410000447D413052
:108C9C0048484A32384040227A007A0A0A727D0DDE
:108CAC0019317D2629292F28262929292630484D96
:108CBC004020380808080808080808382F10C8ACE5
:108CCC00BA2F102834FA00007B000008142A142252
:108CDC0022142A14085500550055AA55AA55AAFF66
:108CEC0055FF55FF000000FF00101010FF0014147A
:108CFC0014FF001010FF00FF1010F010F0141414EB
:108D0C00FC001414F700FF0000FF00FF1414F4041F
:108D1C00FC141417101F10101F101F1414141F0014
:108D2C00101010F0000000001F101010101F101079
:108D3C001010F010000000FF101010101010101088
:108D4C0010FF10000000FF140000FF00FF00001FC8
:108D5C0010170000FC04F414141710171414F40466
:108D6C00F40000FF00F714141414141414F700F793
:108D7C00141414171410101F101F141414F41410BE
:108D8C0010F010F000001F101F0000001F14000056
:108D9C0000FC140000F010F01010FF10FF1414145D
:108DAC00FF141010101F00000000F010FFFFFFFF59
:108DBC00FFF0F0F0F0F0FFFFFF0000000000FFFFFD
:108DCC000F0F0F0F0F3844443844FC4A4A4A347E84
:108DDC0002020606027E027E026355494163384454
:108DEC00443C04407E201E2006027E020299A5E728
:108DFC00A5991C2A492A1C4C7201724C304A4D4DC3
:108E0C00303048784830BC625A463D3E49494900AA
:108E1C007E0101017E2A2A2A2A2A44445F444440C6
:108E2C00514A444040444A51400000FF0103E08055
:108E3C00FF000008086B6B083612362436060F0943
:108E4C000F06000018180000001010003040FF0141
:108E5C0001001F01011E00191D1712003C3C3C3C77
:108E6C0000000000000000000000000000000000F6
:108E7C000000000000000000AD560B00C1740B0098
:108E8C009D400B00B3500B00B5500B00E7500B008E
:108E9C00C3500B00D5500B00F54F0B00B3500B001B
:108EAC00DF520B00DD520B00FF500B003D510B004D
:108EBC0077510B00BD510B00D9510B005D520B00CB
:108ECC0064656661756C7420004D5342004C5342CE
:108EDC00003C53504953657474696E677320646524
:108EEC006661756C743E003C5350495365747469EB
:108EFC006E67732025732575202573204D4F4445CF
:108F0C0025753E000000000000000000CD570B004E
:108F1C00BB570B00BD570B000000600000000000A9
:108F2C00000000000000000000E000000000000055
:108F3C000000000000000001E00000000000000044
:108F4C0000000000000001F0000000000000000024
:108F5C00000000000003F000000000000000000012
:108F6C000000000007F000000000000000000000FE
:108F7C0000000007F80000000000000000000000E6
:108F8C0000000FF800000003C0007E000001E000AC
:108F9C007F0FF800000003C000FE000001E000FF9E
:108FAC00EFF800000003C000FE000001E000FFFF2E
:108FBC00F800000003C000F00000000F007FFE7FEF
:108FCC00C0000003C000F00000000F003FFE7FF85F
:108FDC003FF1FBCFFCFEF3BC3DEFE01FFE7FFF7FBC
:108FEC00FBFFDFFEFEFFBC3DEFE01FC6FFFF7FFB7C
:108FFC00FFDFFEFEFFBC3DEFE00FE3C7FE787BC357
:10900C00DE1EF0FFBC3DEF0007FF87FC787BC3DE64
:10901C001EF0F83C3DEF0001FFFFF0007BC3C01ECB
:10902C00F0F03C3DEF0001F37FE03FFBC3CFFEF0DF
:10903C00F03C3DEF0003E33F807FFBC3DFFEF0F02D
:10904C003C3DEF0007E73C00787BC3DE1EF0F03CB4
:10905C003DEF0007FFBE00787BC3DE1EF0F03C3D09
:10906C00EF0007FFFE00787BC3DE1EF0F03C3DEF07
:10907C00000FFFFE007FFBFFDFFEF0F03FFDEFE097
:10908C000FFFFF007FFBFFDFFEF0F03FFDEFE00F77
:10909C00F9FF003E79F9CF9EF0F01F3DE7E01FF19C
:1090AC00FF0000000000000000000000001F80FF17
:1090BC00007FFFFFFFFFFFFFFFFFFFE01C007F00B3
:1090CC007FFFFFFFFEB46D888D18E000001F007F4E
:1090DC00FFFFFFFE95AD7DB577E000000F007FFF31
:1090EC00FFFFFEA5AD9D8D19E0000006007FFFFF80
:1090FC00FFFEB5ADEDB57EE0FFFFFFFFFFFFFFFF0D
:10910C00FFFFFFFFFFFFFFFFFFFFFFFFFFFFFFFF63
:10911C00FFFFFFFFFFFFFFFFFFFFFFFFFFFFF8FF5A
:10912C00FFFFFFFFFFFFFFFFFFFFFFFFFFFFC07F02
:10913C00FFFFFFFFFFFFFFFFFFFFFFFFFFFE007FB3
:10914C00FFFFFFFFFFFFFFFFFFFFFFFFFFFE007FA3
:10915C00FFFFFFFFFFFFFFFFFFFFFFFFFFFE003FD3
:10916C00FFFFFFFFFFFFFFFFFFFFFFFFFFFE003FC3
:10917C00FFFFFFFFFFFFFFFFFFFFFFFFFC3F003F75
:10918C00FFFFFFFFFFFFFFFFFFFFFFFFFC0F001FB5
:10919C00FFFFFFFFFFFFFFFFFFFFFFFFFC07001FAD
:1091AC00FFFFFFFFFFFFFFFFFFFFFFFFF807003F81
:1091BC00FFFFFFFFFFFFFFFFFFFFFFFFF80783FF2E
:1091CC00FFFFFFFFFFFFFFFFFFFFFFFFF00FCFFFD2
:1091DC00FFFFFFFFFFFFFFFFFFFFFFFFF80FFFFF8A
:1091EC00FFFFFFFFFFFFFFFFFFFFFFFFFE0FFFFF74
:1091FC00FFFFFFFFFFFFFFFFFFFFFFFFFF9FFFFFD3
:10920C00FFFFFFFFFFFFFFFFFFFFFFFFFFFFFFFF62
:10921C00FFFFFFFFFFFFFFFFFFFFFFFFFFFC1FFF35
:10922C00FFFFFFFFFFFFFFFFFFFFC07FFFFC0DFFF6
:10923C00E03FEF03FFC07FFFFFFE003FF3F809FFA5
:10924C008007E401FF001FFFFFFC3F1FF3F809FF3D
:10925C001FC3E0F8FC3F87FFFFF8FFFFF3F809FEA0
:10926C003FF1E1FCF8FFE3FFFFF1FFFFF3F819FC1E
:10927C007FF8E3FFF1FFE3FFFFE3FFFFF3FF19F8D4
:10928C00FFFCE7FFE3FFC7FFFFE7FFFFF3FFF9F189
:10929C00FFFEE7FFE7FF8FFFFFC7FFFFF3E7F9F3E1
:1092AC00FFFFE7FFE7FF1FFFFFCFFFFFF3C3F9F35C
:1092BC00FFFFE7FFC7FE3FFFFFCFFFFFF381F9F38F
:1092CC00FFFFE7FFCFFC7FFFFFC00000F300F9E3D7
:1092DC00FFFFE7FFCFF8FFFFFFC00000720079E34C
:1092EC00FFFFE7FFCFF1FFFFFFFE0000720079E305
:1092FC00FFFFE7FFCFE3FFFFFFFFFFFCF300F9F3F6
:10930C00FFFFE7FFC7C7FFFFFFFFFFFCF381F9F388
:10931C00FFFFE7FFC78FFFFFFFFFFFF8F3C3F9F174
:10932C00FFFFE7FFE71FFFFFFFFFFFF9F1E7F1F991
:10933C00FFFCE7FFE23FFBFFFFFFFFF1F8FFF1F857
:10934C00FFFCE7FFF07FF3FFFFFFFFE3FCFFE1FC17
:10935C007FF8E7FFF8FFE3FFFFFE7FC7FC3F81FECE
:10936C003FE1E7FFFC7FC7FFFFFE1E0FFE0E09FF6C
:10937C000783E7FFFE0E0FFFFFFF001FFF8039FF83
:10938C00C00FE7FFFF001FFFFFFFE0FFFFE0FFFF45
:10939C00F07FFFFFFFE0FFFFFFFFFFFFFFFFFFFF7F
:1093AC00FFFFFFFFFFFFFFFFFFFFFFFFFFFFFFFFC1
:1093BC00FFFFFFFFFFFFFFFFFFFFFFFFFFFFFFFFB1
:1093CC00FFFFFFFFFFFFFFFFFFFFFFFFFFFFFFFFA1
:1093DC00FFFFFFFFFFFFFFFFFFFFFFFFFFFFFFFF91
:1093EC00FFFFFFFFFFFFFFFFFFFFFFFFFFFFFFFF81
:1093FC00FFFFFFFFFFFFFFFFFFFFFFFFFFFFFFFF71
:10940C00FFCFFFFFFFFFFFFFFFFFFFFFFFFFFFFF90
:10941C00FF9FFFFFFFFFFFFFFFFFFFFFFFFFFFFFB0
:10942C00FF3FFFFEF67CFFFFFFFFFFFFFFFFFFFF8D
:10943C00FF7CFFFEE7FCE7FFFFFFFFFFFFFFFFFFE7
:10944C00FF787CFECFFCC7FFFFFFFFFFFFFFFFFF96
:10945C00FF3931FEDFE19FFFFFFFFFFFFFFFFFFF43
:10946C00FE0393FE3E418FFFFFFFFFFFFFFFFFFF59
:10947C00FF33B7FE1E9CE3FFFFFFFFFFFFFFFFFF65
:10948C00FF7337FEC61DBBFFFFFFFFFFFFFFFFFF94
:10949C00FF3827FEF29D39FFFFFFFFFFFFFFFFFFA5
:1094AC00FF3C67FE7A4193FFFFFFFFFFFFFFFFFFCB
:1094BC00FF3FE7FFFE6187FFFFFFFFFFFFFFFFFF9F
:1094CC00FFFFFFFFFFFDFFFFFFFFFFFFFFFFFFFFA2
:1094DC00FFFFFFFFFFFDFFFFFFFFFFFFFFFFFFFF92
:1094EC00FFFFFFFFFFFFFFFFFFFFFFFFFFFFFFFF80
:1094FC00FFFFFFFFFFFFFFFF000000000000000068
:10950C0021580B0039580B00AD560B00C1740B00E1
:10951C004D580B00B3500B00B5500B00E7500B002F
:10952C00C3500B00D5500B00F54F0B00B3500B0084
:10953C00DF520B00DF590B007B5F0B002D5F0B0024
:10954C0077510B00BD510B00D9510B005D520B0034
:10955C000080C0E0F0F8FCFE000103070F1F3F7F06
:10956C00AED580A8D300408D2000A1C8DB40A4A6B6
:10957C002EAFDA02818FDA1281DA0281556E6B6EB0
:10958C006F776E206572726F7200537563636573CB
:10959C00732E004572726F7220696E20636F6D6D51
:1095AC00756E69636174696F6E2E00436F6C6C69C4
:1095BC007373696F6E2064657465637465642E00E3
:1095CC0054696D656F757420696E20636F6D6D7570
:1095DC006E69636174696F6E2E00412062756666F8
:1095EC006572206973206E6F742062696720656EE6
:1095FC006F7567682E00496E7465726E616C2065BC
:10960C0072726F7220696E2074686520636F646576
:10961C002E2053686F756C64206E6F7420686170B7
:10962C0070656E2E00496E76616C6964206172679C
:10963C00756D656E742E00546865204352435F410E
:10964C0020646F6573206E6F74206D617463682E77
:10965C000041204D49464152452050494343207218
:10966C006573706F6E6465642077697468204E4111
:10967C004B2E000096950B009F950B00B7950B0099
:10968C00CC950B00E6950B0002960B0031960B0067
:10969C0043960B005D960B000000000000000000DC
:1096AC008B710B0081710B0077710B006D710B00CE
:1096BC0061710B0055710B009D730B00A5730B00B2
:1096CC0049710B0041710B0037710B002D710B00B0
:1096DC00D5730B000000000000000000A9710B0006
:1096EC00F3710B00CB710B00AB710B00D3710B0042
:1096FC00DB710B00E3710B00EB710B000000000041
:10970C00000000006D720B005D720B005F720B00AD
:10971C006170700000000000000000005D730B0021
:10972C0067730B0071730B007B730B0085730B005D
:10973C0091730B009D730B00A5730B00AD730B00A5
:10974C00B9730B00C1730B00CB730B00D5730B00FB
:10975C00000810182028303825592D256D2D25642A
:10976C005425483A254D3A2553257A006173637484
:10977C00696D650000000000000000003D790B00E1
:10978C00A9790B0081790B00C1740B0051790B0086
:10979C006D790B005F790B007B790B003F790B0027
:1097AC0043790B000000000000000000E7790B007B
:1097BC004F7A0B00257A0B00C1740B00177A0B0043
:1097CC00E9790B00F9790B00497A0B00097A0B0047
:1097DC00E1790B000000000000000000477B0B004B
:1097EC003D7B0B00337B0B00E97A0B00277B0B00D6
:1097FC001B7B0B009D730B00A5730B000F7B0B00E9
:10980C00077B0B00FD7A0B00F37A0B00D5730B0072
:10981C00005245454E54206D616C6C6F632073751E
:10982C0063636565646564002F746D702F6A656E83
:10983C006B696E732D4743432D31302D7069706504
:10984C006C696E652D34385F3230323031313234E0
:10985C005F313630363138303633392F7372632FEF
:10986C006E65776C69622F6E65776C69622F6C69B7
:10987C0062632F7374646C69622F72616E642E6301
:10988C00002F746D702F6A656E6B696E732D474374
:10989C00432D31302D706970656C696E652D3438CF
:1098AC005F32303230313132345F3136303631382C
:1098BC00303633392F7372632F6E65776C69622F74
:1098CC006E65776C69622F6C6962632F7374726951
:1098DC006E672F737472746F6B2E63008D4F0B0059
:1098EC00E9700B0095710B004D730B00AD740B0000
:1098FC00E9750B0005790B0029790B00517B0B00E6
:04990C000000000057
:049910000000000053
:1099140004230001FFFFFFFF03000000FFFFFFFF20
:10992400FFFFFFFFFFFFFFFFFFFFFFFFFFFFFFFF43
:10993400FFFFFFFF0700000078970B0094DF032070
:109944000000000000000000000000000000000013
:109954000000000000000000000000000000000003
:1099640000000000000000000000000000000000F3
:1099740000000000000000000000000000000000E3
:1099840000000000000000000000000000000000D3
:1099940000000000000000000000000000000000C3
:0499A400ECE70320C9
:1099A800FFFFFFFF00000102030405060708090A7C
:1099B8000B0C0D0E0F101112131415161718191A77
:0899C8001B1C1D1E1F202800BE
:0499D000785634127F
:04000003B000401CED
:00000001FF
