:02000002B0004C
:1040000000400B009ACD0B00000006000C000502DA
:084010000401B41400000000DB
:0440180020AE0B00CB
:1040200081F0004102E000BF83F0004330B54FEA69
:1040300041044FEA430594EA050F08BF90EA020FD6
:104040001FBF54EA000C55EA020C7FEA645C7FEA69
:10405000655C00F0E2804FEA5454D4EB5555B8BF8C
:104060006D420CDD2C4480EA020281EA030382EAFD
:10407000000083EA010180EA020281EA0303362D8F
:1040800088BF30BD11F0004F4FEA01314FF4801C62
:104090004CEA113102D0404261EB410113F0004F74
:1040A0004FEA03334CEA133302D0524263EB43032B
:1040B00094EA050F00F0A780A4F10104D5F1200EC9
:1040C0000DDB02FA0EFC22FA05F2801841F1000124
:1040D00003FA0EF2801843FA05F359410EE0A5F1F8
:1040E00020050EF1200E012A03FA0EFC28BF4CF029
:1040F000020C43FA05F3C01851EBE37101F00045DF
:1041000007D54FF0000EDCF1000C7EEB00006EEBEB
:104110000101B1F5801F1BD3B1F5001F0CD3490875
:104120005FEA30004FEA3C0C04F101044FEA4452CC
:1041300012F5800F80F09A80BCF1004F08BF5FEA53
:10414000500C50F1000041EB045141EA050130BD33
:104150005FEA4C0C404141EB0101013C28BFB1F545
:10416000801FE9D291F0000F04BF01460020B1FA90
:1041700081F308BF2033A3F10B03B3F120020CDA63
:104180000C3208DD02F1140CC2F10C0201FA0CF041
:1041900021FA02F10CE002F11402D8BFC2F1200CA6
:1041A00001FA02F120FA0CFCDCBF41EA0C0190405C
:1041B000E41AA2BF01EB0451294330BD6FEA0404A5
:1041C0001F3C1CDA0C340EDC04F11404C4F1200290
:1041D00020FA04F001FA02F340EA030021FA04F3A2
:1041E00045EA030130BDC4F10C04C4F1200220FAF9
:1041F00002F001FA04F340EA0300294630BD21FA37
:1042000004F0294630BD94F0000F83F4801306BFFC
:1042100081F480110134013D4EE77FEA645C18BFF0
:104220007FEA655C29D094EA050F08BF90EA020F87
:1042300005D054EA000C04BF1946104630BD91EA7F
:10424000030F1EBF0021002030BD5FEA545C05D182
:104250004000494128BF41F0004130BD14F58004C1
:104260003CBF01F5801130BD01F0004545F0FE4135
:1042700041F470014FF0000030BD7FEA645C1ABF6A
:10428000194610467FEA655C1CBF0B46024650EAA1
:10429000013406BF52EA033591EA030F41F40021CD
:1042A00030BD00BF90F0000F04BF0021704730B553
:1042B0004FF4806404F132044FF000054FF0000128
:1042C00050E700BF90F0000F04BF0021704730B5E9
:1042D0004FF4806404F1320410F0004548BF4042BE
:1042E0004FF000013EE700BF42004FEAE2014FEA13
:1042F00031014FEA02701FBF12F07F4393F07F4FEE
:1043000081F06051704732F07F4208BF704793F0F0
:104310007F4F04BF41F40021704730B54FF4607403
:1043200001F0004521F000411CE700BF50EA010206
:1043300008BF704730B54FF000050AE050EA0102AF
:1043400008BF704730B511F0004502D5404261EB1F
:1043500041014FF4806404F132045FEA915C3FF460
:10436000D8AE4FF003025FEADC0C18BF03325FEAFD
:10437000DC0C18BF033202EBDC02C2F1200300FAAE
:1043800003FC20FA02F001FA03FE40EA0E0021FAD3
:1043900002F11444BDE600BF70B54FF0FF0C4CF4C1
:1043A000E06C1CEA11541DBF1CEA135594EA0C0F73
:1043B00095EA0C0F00F0DEF82C4481EA030621EAAE
:1043C0004C5123EA4C5350EA013518BF52EA0335E9
:1043D00041F4801143F4801338D0A0FB02CE4FF09B
:1043E0000005E1FB02E506F00042E0FB03E54FF0CB
:1043F0000006E1FB03569CF0000F18BF4EF0010EC3
:10440000A4F1FF04B6F5007F64F5407404D25FEABE
:104410004E0E6D4146EB060642EAC62141EA555171
:104420004FEAC52040EA5E504FEACE2EB4F1FD0CB3
:1044300088BFBCF5E06F1ED8BEF1004F08BF5FEA31
:10444000500E50F1000041EB045170BD06F00046E3
:1044500046EA010140EA020081EA0301B4EB5C0490
:10446000C2BFD4EB0C0541EA045170BD41F4801188
:104470004FF0000E013C00F3AB8014F1360FDEBFAD
:10448000002001F0004170BDC4F10004203C35DA89
:104490000C341BDC04F11404C4F1200500FA05F30C
:1044A00020FA04F001FA05F240EA020001F00042AD
:1044B00021F0004110EBD37021FA04F642EB060123
:1044C0005EEA430E08BF20EAD37070BDC4F10C044D
:1044D000C4F1200500FA04F320FA05F001FA04F211
:1044E00040EA020001F0004110EBD37041F10001FD
:1044F0005EEA430E08BF20EAD37070BDC4F1200508
:1045000000FA05F24EEA020E20FA04F301FA05F26F
:1045100043EA020321FA04F001F0004121FA04F217
:1045200020EA020000EBD3705EEA430E08BF20EAE7
:10453000D37070BD94F0000F0FD101F00046400021
:1045400041EB010111F4801F08BF013CF7D041EAA3
:10455000060195F0000F18BF704703F000465200A7
:1045600043EB030313F4801F08BF013DF7D043EA78
:104570000603704794EA0C0F0CEA135518BF95EA2E
:104580000C0F0CD050EA410618BF52EA4306D1D1B5
:1045900081EA030101F000414FF0000070BD50EAD4
:1045A000410606BF1046194652EA430619D094EA5E
:1045B0000C0F02D150EA013613D195EA0C0F05D148
:1045C00052EA03361CBF104619460AD181EA03019C
:1045D00001F0004141F0FE4141F470014FF0000054
:1045E00070BD41F0FE4141F4780170BD70B54FF0EF
:1045F000FF0C4CF4E06C1CEA11541DBF1CEA13556F
:1046000094EA0C0F95EA0C0F00F0A7F8A4EB050450
:1046100081EA030E52EA03354FEA013100F0888047
:104620004FEA03334FF0805545EA131343EA126310
:104630004FEA022245EA111545EA10654FEA0026C5
:104640000EF000419D4208BF964244F1FD0404F57E
:10465000407402D25B084FEA3202B61A65EB0305DA
:104660005B084FEA32024FF480104FF4002CB6EB97
:10467000020E75EB030E22BFB61A754640EA0C0017
:104680005B084FEA3202B6EB020E75EB030E22BF57
:10469000B61A754640EA5C005B084FEA3202B6EB98
:1046A000020E75EB030E22BFB61A754640EA9C0057
:1046B0005B084FEA3202B6EB020E75EB030E22BF27
:1046C000B61A754640EADC0055EA060E18D04FEAE5
:1046D000051545EA16754FEA06164FEAC30343EA85
:1046E00052734FEAC2025FEA1C1CC0D111F4801F52
:1046F0000BD141EA00014FF000004FF0004CB6E74B
:1047000011F4801F04BF01430020B4F1FD0C88BFE9
:10471000BCF5E06F3FF6AFAEB5EB030C04BFB6EBF4
:10472000020C5FEA500C50F1000041EB045170BDE7
:104730000EF0004E4EEA113114EB5C04C2BFD4EB14
:104740000C0541EA045170BD41F480114FF0000E98
:10475000013C90E645EA060E8DE60CEA135594EA14
:104760000C0F08BF95EA0C0F3FF43BAF94EA0C0F17
:104770000AD150EA01347FF434AF95EA0C0F7FF48C
:1047800025AF104619462CE795EA0C0F06D152EAE0
:1047900003353FF4FDAE1046194622E750EA4106C4
:1047A00018BF52EA43067FF4C5AE50EA41047FF4D5
:1047B0000DAF52EA43057FF4EBAE12E74FEA410238
:1047C000B2F1E04324BFB3F5001CDCF1FE5C0DD96F
:1047D00001F0004C4FEAC0024CEA5070B2F1004FB9
:1047E00040EB830008BF20F00100704711F0804FBC
:1047F00021D113F13872BCBF01F00040704741F481
:1048000080114FEA5252C2F11802C2F1200C10FA84
:104810000CF320FA02F018BF40F001004FEAC12368
:104820004FEAD32303FA0CFC40EA0C0023FA02F30C
:104830004FEA4303CCE77FEA625307D150EA0133E2
:104840001EBF4FF0FE4040F44000704701F00040B2
:1048500040F0FE4040F40000704700BF034613F8EC
:10486000012B002AFBD1181A0138704709480A4960
:10487000884208B505D0094A824202D0121A06F0D1
:10488000B1F90748074A0021121A06F0B9F90148A0
:1048900008BD00BF5CCC0320B4CC0B0014CD0320BA
:1048A00014CD0320F0E7032070B5074E074C05F048
:1048B00029FDA41BA4080025AC4200D170BD56F808
:1048C000043B98470135F7E76CCC0B0090CC0B000C
:1048D00001F0D8B808B501F085FFBDE8084005F043
:1048E000C9BC05F089B905F08FB9000008B5034AC5
:1048F00003490C2005F0E4F8FEE700BF11980B0017
:1049000034AE0B000078B0FA80F040097047012304
:1049100003707047084A00231370084A1370084A4E
:104920001370084A4FF0FF311160074A03211160EC
:10493000064A1360704700BF21CD032030CD03200D
:1049400020CD032084CC032088CC032048DA032028
:104950000EB403B503AB002153F8042B019305F00B
:104960001AFC02B05DF804EB03B070470EB403B557
:1049700003AB012153F8042B019305F00CFC02B0AA
:104980005DF804EB03B0704707B5014601A804F0D9
:10499000B1F801A804F0B0F809288CBF002001206C
:1049A00003B05DF804FB07B5014601A804F0A2F8C6
:1049B00001A804F0A1F80A28D4BF0020012003B008
:1049C0005DF804FB022808B50BD004280BD060B9B1
:1049D000132006F02CF8B0F57A7FB4BF0020012038
:1049E00008BD1120F5E70F20F3E70020F8E70228C3
:1049F00008B50BD004280BD060B9132006F017F8C7
:104A0000B0F57A7FCCBF0020012008BD1120F5E76A
:104A10000F20F3E70020F8E708B580B206F007F8AA
:104A2000B0F52F7FB4BF0020012008BD08B580B2CB
:104A300005F0FDFFB0F52F7FCCBF0020012008BDA1
:104A400007B580B20021019005F0B4FF019805F090
:104A5000DBFF431E5842584103B05DF804FB07B525
:104A600080B20021019005F0A5FF019805F0CCFF70
:104A7000B0FA80F0400903B05DF804FB00000000CC
:104A8000022807B530D0042830D018B9132005F01B
:104A9000CEFF0190DDED017AF8EEE77A17EE900A8D
:104AA000FFF722FC14A3D3E90023FFF775FC14A33E
:104AB000D3E90023FFF79AFDFFF780FEDFED0C7AC4
:104AC00007EE100A67EE277AF1EE046A87EEA67AFF
:104AD000DFED087AB4EEE77AF1EE10FA94BF012028
:104AE000002003B05DF804FB1120D0E70F20CEE7D3
:104AF000000096430000B4436666666666660A4038
:104B00000000000000F88F40022807B530D00428CC
:104B100030D018B9132005F08AFF0190DDED017A3D
:104B2000F8EEE77A17EE900AFFF7DEFB14A3D3E95D
:104B30000023FFF731FC14A3D3E90023FFF756FD50
:104B4000FFF73CFEDFED0C7A07EE100A67EE277ADE
:104B5000F1EE046A87EEA67ADFED087AB4EEE77A22
:104B6000F1EE10FAACBF0120002003B05DF804FBA9
:104B70001120D0E70F20CEE7000096430000B44399
:104B80006666666666660A400000000000F88F40B0
:104B900038B584B2651C00212046ADB205F00AFF8D
:104BA0002846002105F006FF204605F02DFF30B90C
:104BB000284605F029FF431E5842584138BD0020C1
:104BC000FCE738B584B2651CADB20021284605F07B
:104BD000F1FE2046002105F0EDFE284605F014FF09
:104BE00030B9204605F010FF431E5842584138BDE9
:104BF0000020FCE738B584B2651C00212046ADB228
:104C000005F0D8FE2846002105F0D4FE204605F028
:104C1000FBFE30B9284605F0F7FEB0FA80F04009F7
:104C200038BD0020FCE738B584B2651C0021204661
:104C3000ADB205F0BFFE0021284605F0BBFE2046C0
:104C400005F0E2FE012806D1284605F0DDFE431EF0
:104C50005842584138BD0020FCE7022838B51CD026
:104C600004281CD018B9132005F0E1FE044605F015
:104C70006BFC002C054614DA2D2105F055FA614233
:104C80000A22284605F069FA284605F050FAB4F5DC
:104C9000FA6FACBF0020012038BD1120E4E70F20DF
:104CA000E2E72146ECE7022808B50CD004280CD036
:104CB00018B9132005F0BBFE0346B3F5FA6FB4BF75
:104CC0000020012008BD1120F4E70F20F2E70000CA
:104CD00030B52DED028B87B0C1B206230B2201A89F
:104CE00003F02EFF01A803F032FF01A803F0ECFF50
:104CF000B5EE400AF1EE10FAB4EE400A0CBF012402
:104D00000024F1EE10FA68BF44F00104B0EE408ACE
:104D1000002CEAD105F018FC054618EE100AFFF742
:104D2000E3FA02460B4628460A49FFF71FFEB5EE96
:104D3000C08AF1EE10FA08DDF2EE007AB4EEE78AEE
:104D4000F1EE10FA4CBF01240024204607B0BDEC60
:104D5000028B30BD49AE0B0010B52DED028B86B035
:104D6000C1B206230B2201A803F0EAFE01A803F05A
:104D7000EEFE01A803F0A8FFB4EE400AF1EE10FA2F
:104D8000B0EE408AF5D6B5EE400AF1EE10FAF0D05A
:104D900005F0DAFB044618EE100AFFF7A5FA024602
:104DA0000B4620460C49FFF7E1FDF1EE0C7AB4EE1C
:104DB000E78AF1EE10FA04DC002006B0BDEC028BAD
:104DC00010BDF3EE0A7AB4EEE78AF1EE10FA4CBFAA
:104DD00001200020F1E700BF49AE0B0030B52DEDFA
:104DE000028B87B0C1B206230B2201A803F0A8FEF4
:104DF00001A803F0ACFE01A803F066FFB5EE400A7F
:104E0000F1EE10FAB4EE400A0CBF01240024F1EEDA
:104E100010FA68BF44F00104B0EE408A002CEAD1D9
:104E200005F092FB054618EE100AFFF75DFA024600
:104E30000B4628460B49FFF799FDF3EE097AB4EECD
:104E4000E78AF1EE10FA08DDDFED077AB4EEE78AC3
:104E5000F1EE10FA4CBF01240024204607B0BDEC4F
:104E6000028B30BD49AE0B000000484208B5034636
:104E7000013B10460B2B65D8DFE803F0060B141D31
:104E8000222B06404653575BA1BBBDE80840FFF705
:104E90007BBD19B9BDE80840FFF7A9BDBDE80840D2
:104EA000FFF790BD19B9BDE80840FFF7BFBDBDE8E9
:104EB0000840FFF7B1BD19BBBDE80840FFF7CFBD03
:104EC00019B9BDE80840FFF71FBEBDE80840FFF76D
:104ED000D7BD012906D0022908D059B9BDE808403C
:104EE000FFF7F6BEBDE80840FFF736BFBDE8084053
:104EF000FFF774BFBDE80840FFF755BD0029DBD1BF
:104F0000BDE80840FFF79CBD012906D003290CD05D
:104F100039B9BDE80840FFF786BEBDE80840FFF795
:104F200037BEBDE80840FFF74CBEBDE80840FFF7BC
:104F300061BE19B9BDE80840FFF7B5BEBDE808403D
:104F4000FFF78BBE05F000FB024905F0FCF80020DE
:104F500008BD00BF52AE0B0007B500230448009304
:104F60001A46194604F08AFB03B05DF804FB00BF43
:104F7000F8D6032007B5002304480093FF22194602
:104F800004F07CFB03B05DF804FB00BFF8D60320FF
:104F900007B50A23002200930348FF23114604F0BB
:104FA0006DFB03B05DF804FBF8D6032007B5FF23C3
:104FB0000093002303481A46194604F05FFB03B030
:104FC0005DF804FBF8D6032007B5002104480091E2
:104FD000E923FF2204F052FB03B05DF804FB00BF9D
:104FE000F8D6032007B575230093044846236C22A6
:104FF000002104F043FB03B05DF804FBF8D6032066
:1050000007B50021044800918023FF2204F036FBFD
:1050100003B05DF804FB00BFF8D6032007B5FF23FB
:10502000044800931A46002104F028FB03B05DF801
:1050300004FB00BFF8D6032010B5114C2368052BE4
:1050400009D8DFE803F0030D10131619FFF792FFDC
:10505000236801332360BDE81040962005F0DEB8D8
:10506000FFF7CEFFF4E7FFF7AFFFF1E7FFF790FFA1
:10507000EEE7FFF7B7FFEBE7FFF798FF0023E9E75D
:1050800050D3032008B50121062005F0A4FC01211E
:10509000062005F0A0FC0121072005F09CFCBDE8DE
:1050A00008400121072005F096BC08B50021062024
:1050B00005F091FC0021062005F08DFC0021072061
:1050C00005F089FCBDE808400021072005F083BCFD
:1050D00008B5FFF7D7FF642005F0A0F8FFF7E5FF5C
:1050E000BDE80840642005F099B808B1FFF75EBF3D
:1050F000FFF786BF08B1FFF767BFFFF773BF08B1BF
:10510000FFF746BFFFF736BF08B560B1FFF786FF70
:105110004FF4C87005F082F8FFF71EFFBDE80840A5
:10512000C82005F07BB8BDE80840FFF715BF08B1FF
:10513000FFF774BFFFF710BF08B1FFF77DBFFFF7A0
:105140000BBF08B1FFF7C4BFFFF7AFBF08B1FFF750
:1051500099BFFFF7AABF0000012838B50D461446D5
:1051600027D00D283BD048BB052927D8DFE801F020
:1051700003080D12171CBDE838401046FFF7BFBFEB
:10518000BDE838401046FFF7B5BFBDE838401046CF
:10519000FFF7ABBFBDE838401046FFF7B5BFBDE82D
:1051A00038401046FFF7C8BFBDE838401046FFF74B
:1051B000BEBFFFF7D1FE45B1012D0BD005F0C4F9FC
:1051C000BDE838400F4904F0BEBF2046BDE8384076
:1051D000FFF7BCBF2046BDE83840FFF7B2BFFFF77E
:1051E00064FFFFF7B9FE0121112005F0E3FB34B1A4
:1051F00028223221BDE83840112005F02FBC22467C
:105200002146F7E765AE0B0008B5FFF707FF4FF43F
:10521000C87005F003F8FFF79FFEBDE80840C820FE
:1052200004F0FCBF13B584B22046012105F0D3FB86
:105230002046012105F0CFFB601C80B201210190C6
:1052400005F0C9FB0198012102B0BDE8104005F04E
:10525000C2BB13B584B22046002105F0BCFB20463A
:10526000002105F0B8FB601C80B20021019005F020
:10527000B2FB0198002102B0BDE8104005F0ABBBC5
:1052800010B50446FFF7CEFF642004F0C7FF2046A8
:10529000FFF7DFFFBDE81040642004F0BFBF00004F
:1052A00008B5072825D8DFE800F004080C1014180A
:1052B0001C20BDE80840FFF76BBEBDE80840FFF7C3
:1052C00059BEBDE80840FFF77FBEBDE80840FFF7C4
:1052D00089BEBDE80840FFF769BEBDE80840FFF79A
:1052E0008FBEBDE80840FFF78FBFBDE80840FFF75D
:1052F000A3BE05F029F9BDE80840014904F023BF29
:1053000075AE0B0038B50C4605460121A0B205F07C
:1053100051FB45B1012D0BD005F016F9BDE8384021
:10532000064904F010BF2046BDE83840FFF77ABFB9
:105330002046BDE83840FFF7A3BF00BF65AE0B00B5
:1053400037B50C460546FFF7B0FEFFF705FE042C07
:105350009ABF0D4B1B574FF0FF3398B201210190BC
:1053600005F028FB012D07D832220198114603B021
:10537000BDE8304005F072BB05F0E6F8034903B024
:10538000BDE8304004F0DFBE9DB80B0065AE0B00F9
:10539000042807B59ABF084B18564FF0FF3080B26B
:1053A0000121019005F006FB00220198114603B08F
:1053B0005DF804EB05F052BB9DB80B0038B50C4608
:1053C000054618B9BDE83840FFF7C6BD0021A0B2B8
:1053D00005F001FB0D2D04D12046BDE83840FFF754
:1053E000D7BF38BD0346012B0846114604DC0BB974
:1053F000FFF756BFFFF786BF0D2B01D1FFF7A0BF08
:105400007047000001280BD002280BD088B9094B47
:105410001860C3F84401084B1860084B18607047C7
:10542000FFF778BA064A00231360064A1370064A4B
:105430001360704734CD032038DA032030DA0320BC
:1054400040DA03200CD3032040DC03200E4A13680B
:10545000013B13600D4A52F823108A1C0C4A07D1F5
:10546000012111700B4A52F823200B4B1A60704730
:10547000013102D100231370704713781BB1064A23
:105480001368013B1360704740DA032010D70320F4
:105490000CD30320C8D3032040DC032008B5072821
:1054A00016D8DFE800F00407090B0D0F11130C4BA1
:1054B000186808BD0B4BFBE70B4BF9E70B4BF7E705
:1054C0000B4BF5E70B4BF3E70B4BF1E70B4BEFE720
:1054D00005F03AF80A4904F036FE4FF0FF30E8E7ED
:1054E0005CCC032070CC03206CCC032064CC032064
:1054F00078CC032068CC032074CC032060CC03203C
:1055000084AE0B00022808B503D8064B33F910000F
:1055100008BD05F019F8044904F015FE4FF0FF30FE
:10552000F6E700BFA2B80B0093AE0B0010B504461F
:10553000072919D8DFE801F0040A0C0E101214161E
:105540000A49204604F031FD204610BD0849F8E71D
:105550000849F6E70849F4E70849F2E70849F0E79F
:105560000849EEE70849ECE70849EAE7E5B20B002D
:10557000A2AE0B00A5AE0B00A8AE0B00ABAE0B00AD
:10558000AFAE0B00B2AE0B00A3B40B0084AE0B00A9
:10559000012910B5044607D0022907D041B90549B1
:1055A00004F003FD204610BD0349F9E70349F7E77E
:1055B0000349F5E7B5AE0B00B8AE0B00BBAE0B0070
:1055C00093AE0B0013B50C46FFF768FF0190204621
:1055D000FFF798FF019900220446062004F0DEFF41
:1055E000204604F01BFE062004F0EFFF1E2002B050
:1055F000BDE8104004F012BE10B50D4B1A680D4BFB
:105600004FF43B714A4399581344002291420DDDF7
:105610005C68844203F1100306D104F095FF06494B
:1056200004F091FD002010BD0132EFE70120FAE700
:1056300084CC032034CD0320BEAE0B00F0B5114B5B
:10564000114A1E68944600239E4217DB17681546D0
:1056500000218F420EDD6C68844205F1100507D1F0
:105660004FF43B72534303EB011363441869F0BDDD
:105670000131EEE7013302F53B72E5E74FF0FF3011
:10568000F5E700BF84CC032034CD03202DE9F041A1
:10569000194D1A4BD5F844E11F6884462B46002467
:1056A000A74223DB10D1D3F844811A460026B04527
:1056B0000ADDD2F84C01604503D1D2F84801884296
:1056C00017D001361432F2E7012F0BD12E460022FB
:1056D000964507DDD6F84801884206F1140608D041
:1056E0000132F5E7013403F53B73D9E70120BDE84A
:1056F000F0810020FBE700BF34CD032084CC0320E1
:10570000F0B5134B134A1E68944600239E421BDBE0
:10571000D2F84471154600218F4211DDD5F8484179
:10572000844205F1140509D14FF43B72534314220E
:1057300002FB01336344D3F85401F0BD0131EBE7C0
:10574000013302F53B72E1E74FF0FF30F5E700BFB0
:1057500084CC032034CD032030B50C4B4FF43B7286
:1057600002FB01310022D1F844411346944208DD86
:10577000D1F84851854201D12BB9012301321431AE
:10578000F4E7002030BD1846FCE700BF34CD03200D
:1057900084B0F8B506AC84E80F00DDE907010A9A89
:1057A000FFF764FB06AD0446BCAF0126069BB3427F
:1057B00012DDD5E905012A6AFFF758FB17F8013B0E
:1057C00033B1002C08BF0020013610350446EDE748
:1057D000002C18BF2046F7E72046BDE8F84004B08B
:1057E000704700002DE9F743164C4FF43B7303FB61
:1057F000014407460D460026A146D9F84431B3427C
:105800001CDD94F85831D4F84881D4F85421BB42B7
:1058100007D1D4F84C114046FFF7E4FD01361434AB
:10582000EBE7294640460192FFF796FF019A0028D0
:10583000F4D111464046FFF7C1FDEFE703B0BDE8E4
:10584000F08300BF34CD032030B503782D2B0CBF7F
:1058500001220022134603440A24002013F8011BEE
:105860003039CDB2092D02D804FB0010F6E702B1A1
:10587000404230BD38B514460D4605F00FFA043CE1
:1058800040B1FFF7E1FF294644F8040F002005F07E
:1058900005FAF5E738BD000037B58DF807200DF1A2
:1058A00007030A4601460D480D4D02F07FFF01280F
:1058B000287010D004F048FE0A4904F031FC04F0CE
:1058C00043FE29780446054802F0C4FC0146204600
:1058D00004F039FC002003B030BD00BF00D7032026
:1058E0003CDC0320EEAE0B00F0B58DB01E4D1F4A20
:1058F00000951F4B12781F4F06466021284602F084
:1059000076FF012838700FD004F01EFE1A4904F00B
:1059100007FC04F019FE39780446284602F09AFC88
:105920000146204604F00FFC144B1222187807A9F8
:10593000FFF7B2FFB0B107AC0FCC03AD0FC52368C2
:105940002B8004F001FE0E4903AAFFF70FF80D4962
:10595000324603A8FFF78EFF034802F002FF024819
:1059600002F05FFD0DB0F0BD00D70320A4CC0320F2
:10597000F1D603203CDC032005AF0B007CCC0320D8
:1059800021AF0B007DCC032010B540B9324B1C6811
:10599000052C58D8DFE804F0051322323D482F4B80
:1059A000F5E704F0D1FD2E4904F0BAFB2A4A13684A
:1059B000013313602B4A1368013313601CE004F0B9
:1059C000C3FD294904F0ACFB234A1368013313607B
:1059D000244A13680133136002240DE004F0B4FD7F
:1059E000224904F09DFB1C4B4FF0FF321A601D4A08
:1059F0001368013313600424204610BD04F0A4FD95
:105A00001B4904F08DFB154A136801331360194AD2
:105A1000DFE704F099FD184904F082FB0F4A136890
:105A200001331360134AC6E704F08EFD134904F0F6
:105A300077FB0A4B4FF0FF321A600E4A13680133AE
:105A400013600624D8E704F07FFD0D4904F068FBDD
:105A50004FF0FF34D0E700BF48DA032088CC0320A2
:105A60002DAF0B004CDA032044AF0B005BAF0B00F3
:105A700072AF0B0050DA032089AF0B00A0AF0B0010
:105A8000B7AF0B0070B58AB0002407A8CDE9074472
:105A9000ADF8244004F068FC4348234622462146E2
:105AA0004068424C04F060F804F04EFD4FF416518B
:105AB00004F03EFD2178BFF35B8F11F001010BD1A3
:105AC00020460591FEF71EFF059928B1384804F0DD
:105AD00017F92046FEF71BFF3548364C012504F028
:105AE00019F92B463C2202213348009503F068FA4D
:105AF000314803F057FA304803F0BCFC2F4802F05D
:105B0000F4FC2F4AFF21117051709170D170117106
:105B1000517105F001F8002003F092FEFF2820707B
:105B20000DD104F011FD0026264904F00CFB26706F
:105B300004F0F2FF2A462146304603F089FE24781D
:105B400054BB0121062004F035FF1F4803F0DEFDA1
:105B50001E4B01221A701E4A1368013313604FF462
:105B60003B711C4A4B43D118D450C1F844414023E7
:105B70000122CDE9013200228023114600930E4814
:105B8000154B02F007F90C4803F074FC03F048FED3
:105B9000124B18600AB070BD012CE8D0012106201C
:105BA00004F008FFE3E700BF10E7032014CD032053
:105BB00018CD032022CD032058D3032000D7032083
:105BC000F1D60320DFAF0B00F8D60320F0D6032078
:105BD00084CC032034CD0320A8B80B0038DC03208C
:105BE000052370B51A460421A948AA4DAA4E03F010
:105BF000DBFCAA4BAA4800241C60C3F84441C3F84C
:105C0000EC42C3F830444FF0FF3103F0D7F8A54918
:105C1000A54804F0CAF9A349A44804F0C6F9A44968
:105C2000A44804F0C2F9A449A44804F0BEF9A44968
:105C3000A44804F0BAF9A449A44804F0B6F9A44968
:105C4000A44804F0B2F9A449A44804F0AEF9A44968
:105C5000A44804F0AAF9A449A44804F0A6F9A44968
:105C6000A44804F0A2F9A449A44804F09EF9A44968
:105C7000A44804F09AF9A449A44804F096F9A44968
:105C8000A44804F092F9A449A44804F08EF982498A
:105C9000A34804F08AF98049A24804F086F9A24991
:105CA000A24804F082F9A249A24804F07EF9A24970
:105CB000A24804F07AF9A249A24804F076F9A24970
:105CC000A24804F072F9A249A24804F06EF9A24970
:105CD000A24804F06AF9A249A24804F066F9A24970
:105CE000A24804F062F9A249A24804F05EF9A24970
:105CF000A24804F05AF9A249A24804F056F9A24970
:105D0000A24804F052F9A249A24804F04EF9A2496F
:105D1000A24804F04AF9A249A24804F046F9A2496F
:105D2000A24804F042F9A249A24804F03EF9A2496F
:105D3000A24804F03AF9A249A24804F036F9A2496F
:105D4000A24804F032F9A249A24804F02EF9A2496F
:105D5000A24804F02AF9A249A24804F026F9A2496F
:105D6000A24804F022F9A249A24804F01EF9A2496F
:105D7000A24804F01AF9A249A24804F016F9A2496F
:105D8000A24804F012F9A249A24804F00EF9A2496F
:105D9000A24804F00AF9A249A24804F006F9A2496F
:105DA000A24804F002F9A249A24804F0FEF8A24970
:105DB000A24804F0FAF8A249A24804F0F6F8A24971
:105DC000A24804F0F2F8A249A24804F0EEF8A24971
:105DD000A24804F0EAF8A249A24804F0E6F8A24971
:105DE000A24804F0E2F8A249A24804F0DEF8A24971
:105DF000A24804F0DAF8A249A24804F0D6F8A24971
:105E0000A24804F0D2F8A249A24804F0CEF8A24970
:105E1000A24804F0CAF8A249A24804F0C6F8A24970
:105E2000A24804F0C2F8A249A24804F0BEF8A24970
:105E3000A24804F0BAF8A249A24804F0B6F8A24970
:105E4000A24804F0B2F8A249A24804F0AEF8A24970
:105E5000A24804F0AAF8A249A24804F0A6F8A24970
:105E6000A24804F0A2F8A249A24804F09EF8A24970
:105E7000A24804F09AF8A249A24804F096F8A24970
:105E8000A24804F092F8A249A24804F08EF843E137
:105E9000F8D6032094DC0320DEAF0B0034CD0320C2
:105EA00058D30320ECAF0B00A8D30320B8D30320B2
:105EB0005AB00B0084E303206EB00B0094E3032080
:105EC0009EB10B00A4E30320EEAF0B00B4E303206C
:105ED000F4AF0B00C4E30320FBAF0B00D4E30320BB
:105EE00002B00B00E4E303200AB00B00F4E303204C
:105EF00012B00B0004E403201AB00B0014E40320DA
:105F000022B00B0024E403202AB00B0034E4032069
:105F100032B00B0044E403203AB00B0054E40320F9
:105F200064E4032074E4032042B00B00C4E10320C6
:105F30004CB00B00D4E1032056B00B00E4E1032089
:105F400060B00B00F4E103206AB00B0004E2032010
:105F500074B00B0014E203207EB00B0024E2032097
:105F600088B00B0034E2032092B00B0044E203201F
:105F70009CB00B0054E20320A6B00B0064E20320A7
:105F8000B0B00B0074E20320BAB00B0084E203202F
:105F9000C4B00B0094E20320CEB00B00A4E20320B7
:105FA000D8B00B00B4E20320E2B00B00C4E203203F
:105FB000ECB00B00D4E20320F6B00B00E4E20320C7
:105FC00000B10B00F4E203200AB10B0004E303204C
:105FD00014B10B0014E303201EB10B0024E30320D3
:105FE00026B00B0034E3032028B10B0044E3032068
:105FF0002EB10B0054E3032036B00B0064E3032002
:106000003EB00B0074E3032034B10B0084E40320A2
:106010003CB10B0094E4032044B10B00A4E4032042
:106020004CB10B00B4E4032054B10B00C4E40320D2
:106030005CB10B00D4E4032064B10B00E4E4032062
:106040006CB10B00F4E4032074B10B0004E50320F1
:106050007CB10B0014E5032084B10B0024E5032080
:106060008CB10B0034E5032094B10B0044E5032010
:106070009CB10B0054E50320A4B10B0064E50320A0
:10608000ACB10B0074E50320B4B10B0084E5032030
:10609000BCB10B0094E50320C4B10B00A4E50320C0
:1060A000CCB10B00B4E50320D4B10B00C4E5032050
:1060B000DCB10B00D4E50320E4B10B00E4E50320E0
:1060C000ECB10B00F4E50320F4B10B0004E603206F
:1060D000FAB10B0014E6032000B20B0024E6032003
:1060E00006B20B0034E603200CB20B0044E603209A
:1060F00012B20B0054E6032018B20B0064E6032032
:106100001EB20B0074E6032024B20B0084E60320C9
:106110002AB20B0094E603202D492E4803F045FFD8
:106120002D492E4803F041FF2D492E4803F03DFF35
:106130002D492E4803F039FF2D492E4803F035FF35
:106140002D492E4803F031FF2D492E4803F02DFF35
:106150002D492E4803F029FF1D492D4803F025FF46
:106160002C492D4803F021FF2C492D4803F01DFF39
:106170002C492D4803F019FF2C492D4803F015FF39
:106180002C492D4803F011FF28193146103403F033
:106190000CFFB4F5966FF7D12848294D0C4E082214
:1061A000102102F040F8002428193146103403F081
:1061B000FCFEB4F5F07FF7D1224B0022C3E90022A8
:1061C000A2F580329A60BDE87040022003F080BCE6
:1061D000DEAF0B00A4E6032030B20B0044E1032045
:1061E00036B20B0054E103203CB20B0064E1032003
:1061F00042B20B0074E1032048B20B0084E103209B
:106200004EB20B0094E1032054B20B00A4E1032032
:10621000B4E103205AB20B0044DC032064B20B004B
:1062200054DC03206EB20B0064DC032078B20B0058
:1062300074DC032083B20B0084DC032000D703202E
:1062400058DA032024CD03202DE9F041984F88B07F
:10625000064638460C46154602F0A4FE00233B6174
:10626000944B01221A7003F0DBFA934B1860032E53
:1062700013D8DFE816F004002A00ED001301012C0A
:1062800007D0022C07D044B98C498D4804F0FEFC9D
:106290000CE08C49F9E78C49F7E78C49884804F011
:1062A000F5FC04F051F9894903F04DFF04F04CF975
:1062B000834903F048FF82497D4803F031FF7C4861
:1062C00008B0BDE8F04103F0D5B8062CE5D8DFE80A
:1062D00004F00437516C90B0BD00294604A803F0C7
:1062E00087FE7B4904A803F0D6FE4021026874486B
:1062F00003F09AFC04A803F00DFE142401253226B5
:1063000028224FF03C081146694833462827CDE93A
:106310000285CDE9004601F053FC23462246314672
:1063200063480195009701F0AAFA4621CDE902855C
:10633000CDE90071502322465D4801F041FCB5E7EC
:10634000294604A803F054FE614904A803F0A3FE03
:10635000402102685A4803F067FC04A803F0DAFD04
:1063600028230120CDE9003014221946504801F0BD
:1063700086FA9BE7294604A803F03AFE544904A88C
:1063800003F089FE402102684D4803F04DFC04A84B
:1063900003F0C0FD64235A220121CDE90032CDE98A
:1063A000023114221E233C21C6E7294604A803F02B
:1063B0001FFE474904A803F06EFE402102684048D2
:1063C00003F032FC28240126432504A803F0A2FD93
:1063D00034231422CDE90246CDE9004534483C215E
:1063E00001F0EEFBCDE90246CDE9004534233C2225
:1063F000D9E7294604A803F0FBFD354904A803F0BA
:106400004AFE402102682E4803F00EFC04A803F067
:1064100081FD0123009332220F233C21244801F007
:10642000A4FB28230022CDE900320A215A2332227C
:106430009CE72749224804F029FC012300931C48CB
:106440000F2328223C2101F090FB2FE721491CE774
:10645000062C3FF622AFDFE804F00406080A0C1D04
:106460001F001D4911E71D490FE71D490DE71D4993
:106470000BE71D4904A803F098FD294604A803F082
:10648000FEFD402102680E4803F0CEFB04A803F095
:1064900041FD0BE71549F8E61549F6E6002C7FF4B7
:1064A000FCAE2A680648402103F0BEFBFEE600BFB2
:1064B00058D3032031CD032038DC03208EB20B00EB
:1064C0000DD303209AB20B00A8B20B00B4B20B009C
:1064D000CAB20B00DBB20B00E8B20B0008B30B0032
:1064E00028B30B0043B30B0058B30B006BB30B0086
:1064F00089B30B001FB5244B9B684BBB022911D0FD
:10650000042916D0E1B92149684603F04EFD6A46D8
:1065100003210120FFF798FE684603F0FBFC05B05D
:106520005DF804FB1949684603F03FFD6A46042103
:10653000EFE71649684603F038FD6A460521E8E7AB
:106540001249684603F031FD6A4603210220E1E763
:1065500004290AD006290FD0022968460B49F1D137
:1065600003F023FD6A460021D3E70849684603F09B
:106570001CFD6A460121CCE70449684603F015FD7D
:106580006A460221C5E700BF8CCC0320DEAF0B00BA
:1065900001287FB503D002283CD004B070BD374B32
:1065A0001C6874B9FEF7B6F93549684603F0FDFC7E
:1065B0006A4600210320FFF747FE684603F0AAFC65
:1065C000EBE7012C1ED100221A602E492E4B0A70D7
:1065D0001C702E4A2E4B2F481C6013680068013334
:1065E00004BF032313602C4B1968013104BF06213B
:1065F00019601168091A116028491A680968521A45
:106600001A60D1E703F0A0FF254904B0BDE870404F
:1066100003F099BD234E244A34781368234D9CB16E
:10662000296801315B1A68462149136003F0BDFCFB
:106630006A4600210320FFF707FE684603F06AFC64
:10664000002333702B60A8E71A48591E50F8210028
:1066500002300CD1184850F8211002315B1A14494D
:106660001360684603F0A1FC6A462146E2E703F0A6
:106670006BFF124903F067FD1049F2E784CC032059
:10668000A9B30B0021CD032030CD032048DA03202D
:1066900030DA03204CDA032088CC032050DA0320C0
:1066A000C5B30B000CD3032040DA032040DC0320E9
:1066B000D5B30B0010D70320C8D30320EFB30B00D2
:1066C0002DE9FF471E4B1C7834BBDFF88CA01D4E14
:1066D0001D4FDAF80030A3422FDD03F035FF57F8E5
:1066E000242056F824301949FEF740F957F82400C1
:1066F000421C05D156F82480A14600250134E8E764
:10670000831C04D10135A845C8BF4C46F6E756F8AE
:106710002410FEF757FFF1E703F016FF0C4903F0D2
:1067200012FD0C49684603F040FC02206A46042131
:10673000FFF78AFD684603F0EDFB04B0BDE8F08783
:106740000CD30320C8D3032010D7032000B40B00C0
:1067500008B40B00DEAF0B0040DA03201FB504467F
:10676000E0B903F0F1FE184903F0EDFC174B1849AE
:106770001C70684603F019FC03206A460021FFF7ED
:1067800063FD684603F0C6FB04F0C6F90F49012219
:10679000002004B0BDE8104003F05AB8012808D129
:1067A00003F0D2FE0B4903F0CEFC084B0A491C70E3
:1067B000DFE70228E8D103F0C7FE084903F0C3FC75
:1067C000024B07491C70D4E72EB40B0022CD0320E6
:1067D00044B40B005DB40B0075B40B0090B40B0017
:1067E000A6B40B002DE9F04FDFF8DC8298F80030FA
:1067F000ADF5477D002B34D003F012F89B4FDFF846
:106800009492DFF894A23860D9F800203B689B1A74
:10681000DAF80020934203D203F002F83860F3E77D
:10682000934E304602F0BEFB0121304601F0F5FCEC
:1068300000244FF00113C6E904438E4B8E491D78A6
:10684000C2A8002D5DD103F0B0FBC2AA294628469C
:10685000FFF7FAFCC2A803F05DFB002388F80030C4
:1068600033618648864E01F06BFF90B103F06CFEF9
:10687000844903F055FC814802F033F98248FFF760
:1068800033F8002333707B4B1B78002B61D1FEF76C
:106890000CFC337823B97D4B1B780BB1FEF75CFB06
:1068A0007B4D2B78002B65D002F0BAFF6F4B186040
:1068B000784B1B68C01A784B1B6898425AD36C48B7
:1068C000764FDFF80882002404612C7002F06AFB26
:1068D0006748734D02F0CEFD3B68A3424ADD162C9B
:1068E00041DC704B22014021D258284603F09CF92C
:1068F00029465F4803F014FC5D4802F0BBFD0134FB
:10690000EAE7012D05D103F050FBC2AA2946204633
:106910009EE703F04AFBC2AA02212046FFF794FC3F
:10692000C2A803F0F7FA5A4B1C70D9F800203B6854
:106930009B1ADAF80020934203D202F071FF38600C
:10694000F3E75949C2A803F030FBC2AA0221012093
:106950007EE70220FEF77DFC0420FEF77AFC06208D
:10696000FEF777FC95E7172CC2D14146284604F084
:106970008DF9BDE73F4B444C1F782568002F40F050
:106980003B81DFF84C81002D00F0A480062D40F003
:106990001281FEF79DFB6568012D3FD0022D3FD08F
:1069A0002DB9A068FFF7DAFE404B1B6898472368B3
:1069B00001331CBF4FF0FF332360D8F80040002C98
:1069C00040F306813378002B00F01281384C394DAA
:1069D000226960680121FEF749FA374B287019686F
:1069E0000246D4F84801FEF7B7FB2B78002B00F0E5
:1069F000ED8032491E4C2A4804F048F9204602F046
:106A0000D1FA002326492361204603F089FB204662
:106A10000DF5477DBDE8F04F02F02CBD3570C6E79F
:106A2000A368012B0FD13846FEF7ECFC2449C2A81D
:106A300003F0BBFAC2AA39460320FFF705FCC2A83F
:106A400003F068FAB3E70C49C2A803F0AEFAC2AA91
:106A500001212846FFF7F8FBC2A803F05BFA03F018
:106A600073FD184903F06FFBA1E700BF54D3032067
:106A700058D3032022CD0320DEAF0B0000D7032024
:106A80003CDA0320C9B40B008CCC0320F0D60320E1
:106A900031CD032038DC032080CC032040DA0320F2
:106AA0000DD3032058DA0320BFB40B0054DA0320BF
:106AB00034CD0320B8E60320E8D60320AAB70B00A4
:106AC000DCB40B00F7B40B007FCC0320BBB40B008D
:106AD00030DA0320844FE368844DD4F804A03B608F
:106AE000A368DFF83C922B60BAF1000F23D103F0CA
:106AF0002BFD7F4903F027FB7E4A2B6839685160E4
:106B00001168002B01F1010118BF0223116013610C
:106B1000D9F8002078490132C9F80020C2A8002B1A
:106B20003BD103F042FAC2AA03210120FFF78CFBFC
:106B3000C2A803F0EFF9D9F80030002B38DDD4F803
:106B40000490B9F1010F7FF432AF03F0FDFC6B4903
:106B500003F0F9FA6A4B22691A602B683A68002B35
:106B6000644BC3F84821D3F844210CBF022104210F
:106B70000132C3F85411C3F84421D8F80030022977
:106B800003F101035C49C8F80030C2A80AD103F040
:106B90000CFAC2AA042148464FE703F006FAC2AA3B
:106BA0005146C2E703F001FAC2AA4946484644E703
:106BB000FEF7D2F9FBE601353FF4F9AE4E49C2A823
:106BC00003F0F3F9C2AA3946022036E74D4911E72E
:106BD0000ED1337863B14849C2A803F0E6F9C2AADE
:106BE00004210220FFF730FBC2A803F093F93470B0
:106BF0000DF5477DBDE8F08F012F40F07083012D2A
:106C000055D0062D40F00A836568012D28D0022D4D
:106C100028D02DB9A068FFF7A1FD3B4B1B68984712
:106C20004FF0FF3323603378002BE1D0374D2B68D2
:106C3000002B40F002832F4BD3F84431002B00F39C
:106C4000FF823349C2A803F0B0F9C2AA042102208E
:106C5000FFF7FAFAC2A803F05DF9002333700BE3E3
:106C60003570DDE7A368012B0ED1FDF753FEC2A8F6
:106C7000284903F09AF9C2AA00210320FFF7E4FA99
:106C8000C2A803F047F9CBE7022B03D13846FFF740
:106C90007FFCC5E703F058FC1F4903F054FA16497E
:106CA000C2A803F082F9C2AA39460220E6E70E4FD5
:106CB000E3683B6003F048FC18490E4DDFF8609034
:106CC000DFF86080DFF860A0DFF840B003F028FA5A
:106CD0006368052B6DD8DFE813F02900D0000802A7
:106CE0003E026F028A0200BFECD60320B4E6032006
:106CF0001BB50B0034CD0320DEAF0B002CB50B0011
:106D0000E8D60320B9B70B0054DA032084CC032063
:106D1000BFB70B00DCB40B00F7B40B003FB50B00A2
:106D200038DA032030DA032034DA0320DFF8B482C3
:106D300003F00AFC994903F006FA98F80030002B9A
:106D40005FD0D9F80020DAF800309A4276D138685E
:106D5000FEF752FC002851D03868DFF89082FEF729
:106D60006DFCC8F8000001304FD1A068FEF70CFEA2
:106D70000146C8F80000A068FFF7BCFBD8F8000087
:106D8000421C4FD0DBF80080D9F800103F684FF468
:106D90003B7202FB08F202EB01132B445F60276990
:106DA0001861C3E90278AB580133AB504B1CC9F8EA
:106DB000003003F0C9FB7A4903F0C5F903F0C4FBC6
:106DC000784903F0C0F903F0BFFB774B77491A68A5
:106DD0004FF43B7303FB0255D5F844310293744BD7
:106DE0001B680193734B1B680093734B1B68FDF783
:106DF000BDFD03F0A9FB03F09AF911E798F8003004
:106E0000B3B903F0A1FB6D491BE06D49C2A803F0C3
:106E1000CCF8C2AA06210120FFF716FAC2A803F097
:106E200079F8ABE703F090FB664903F08CF9C0E713
:106E3000D9F80020DAF800309A420CD003F084FB35
:106E4000614903F080F95E49C2A803F0AEF802215F
:106E5000C2AA08460BE003F077FB5C4903F073F924
:106E60005749C2A803F0A1F8C2AA05210220FFF7E2
:106E7000EBF9C2A803F04EF89BE703F065FB544919
:106E8000DFF86C9103F05FF9524AD4F810A0137840
:106E9000C9F800A0B993002B73D04F4A3968127813
:106EA0005046002A69D1FEF7F1FB002869D0D8F8D6
:106EB0000020002A65D10846FEF722FCDFF82CA14D
:106EC000CAF80000013047D1A068FEF75DFD014619
:106ED000CAF80000A068FFF70DFBDAF800104B1CA1
:106EE00047D03868DBF80070D8F800C0D9F800E067
:106EF0004FF43B7303FB07F2142303FB0C232B44D7
:106F0000C3E954710127C3E9520E83F858710CEBA1
:106F10000703C8F80030AB18D3F844213A44C3F84B
:106F2000442100287FF445AFC9B2CA190DF5427853
:106F30000523D2B2404602F037FB98E80300DFF8A1
:106F4000B49089E80300404602F03BFB484602F05B
:106F5000DDFB224B1F702CE71949C2A803F025F86E
:106F6000C2AA06210120FFF76FF9C2A802F0D2FFE2
:106F7000B3E703F0E9FA1A4957E7FEF787FB002861
:106F80003AD1184A1278002A3FF43BAFB99B002B44
:106F900040F0918003F0D8FA134952E71BB50B007B
:106FA0001FB70B0027B70B0084CC03205CB70B0086
:106FB00030DA032034DA032038DA03206BB50B0013
:106FC000DEAF0B0053B50B007EB50B00B3B50B0065
:106FD0002CB50B0030CD032020CD0320F0D60320AC
:106FE00043B30B0021CD0320C3B50B0044DA0320CB
:106FF000E8D60320F8D603200846FEF781FBDFF829
:10700000D0A3CAF80000013048D1A068FEF7BCFC4C
:107010000146CAF80000A068FFF76CFADAF8001021
:10702000481CA6D0DBF800C03868D8F80070D9F842
:1070300000E04FF43B7303FB0CF2142303FB072324
:107040002B4403F5A479C3E9520EC3E954C10023CC
:1070500089F81030AB180137D3F84421C8F8007014
:107060000132C3F8442100287FF4A3AEC9B24A1C00
:10707000C2AF0523D2B2384602F096FA97E8030071
:10708000DFF8508388E80300384602F09AFA404659
:1070900002F03CFBAB4B01221A708AE6AA49C2A857
:1070A00002F083FFC2AA06210120FFF7CDF8C2A893
:1070B00002F030FFB2E739685046FEF7E7FA58B9F8
:1070C00003F042FAA14903F03EF89F49C2A802F03A
:1070D0006CFFC2AA0621C9E69D4B1B78002B7FF4EA
:1070E00068AE03F031FA9B49ABE603F02DFA9A49FA
:1070F00003F029F8DBF800305A1C04D03BBBD8F869
:107100000020002A23DD954A01211170944A9549F7
:10711000002717708E4ACAF800701770924AC9F893
:1071200000701760914AC8F80070013317604FF47F
:107130003B72CBF800305343EA18EF50C2F8447169
:10714000C2A802F032FFC2AA002103208FE603F09A
:10715000FBF9874975E603F0F7F9864902F0F3FF7A
:107160007E4B1B78002B3FF44CAEDAF80030D9F898
:10717000002093421ADAD8F80070CFB9DBF800206B
:10718000D4F808804FF43B7101FB0252B8F1000FB4
:107190001A4414BF0121002103F1010382F8D8121F
:1071A000CAF800300CBF74497449C9E73FF701AE13
:1071B00003F0CAF9724944E603F0C6F9714902F0D6
:1071C000C2FF664B1B78002B3FF41BAED9F8003092
:1071D000002B08DDDAF80020934204DD604B6A4999
:1071E00001221A70ACE703F0AFF9684929E603F011
:1071F000ABF9674902F0A7FF584B1B78002B3FF40F
:1072000000AED8F80030002B04DD514B614901225B
:107210001A7095E703F098F95F4912E601353FF4DB
:10722000FFAC03F091F95D4902F08DFF4649C2A819
:1072300002F0BBFEC2AA002137E5012B7FF401ADAD
:10724000574C4FF4377204F11001684603F0CAFC42
:1072500094E80F00FEF79CFA524C00212070FEF7D4
:10726000C1FA2378002B34D04F49504803F00EFD6B
:107270004E494F4802F067FF2D68012D1FD1484C41
:10728000D4F83034002B28DD04F53F714FF4377209
:10729000684603F0A7FC04F53B730FCBFEF778FAC2
:1072A000404C29462070FEF79DFA23789BB1414956
:1072B0003E4803F0EBFC3D493D4802F031FF3C4CB9
:1072C000204602F0D7F8204601F06CFE002323612F
:1072D0008EE43949C9E73949EAE73949E8E7022D37
:1072E00000F08380062D40F0A2816068012814D050
:1072F000022820D028B9A068FFF730FA314B1B686C
:1073000098474FF0FF3323603378002B3FF470AC85
:10731000FFF7D6F9002333706AE42B493070C2A816
:1073200002F043FEC2AA00210320FEF78DFFC2A88F
:1073300002F0F0FDE5E7A568002D4DD1FEF786F8D7
:107340002249ECE7F0D60320DEAF0B00D8B50B00E6
:1073500020CD0320E9B50B00FEB50B0021CD0320A5
:1073600030CD03200BB60B004CDA032050DA03209B
:107370000EB60B0060B60B00B0B50B0071B60B007B
:1073800075B60B00A7B60B00B6B60B00BBB60B006C
:10739000DAB60B00E9B60B00EEB60B007FB70B00B8
:1073A00034CD0320B8E60320A0B70B000DD3032093
:1073B00058D30320D0B70B00AFB70B00DFB70B00DB
:1073C000EFB70B0054DA032009B80B0017B80B0015
:1073D00044DA0320F8D60320012D03D1FEF712F87A
:1073E0009A499CE7FFF7D4F88BE76368012B78D0C4
:1073F000022B00F0BC80002B83D1A168944D954FE7
:10740000BAA8FEF793F8BAA9C2A802F0F1FDE168A4
:10741000BEA8FEF7BDF8BEA9C2A802F030FE8E4994
:1074200002F039FE0146286807EB001002F0D1FD9A
:10743000BEA802F06FFDC2A802F06CFDBAA802F06F
:1074400069FD2B68162B45DC1B018448FA58402146
:1074500002F0EAFB8149824802F062FE804802F0B5
:1074600009F803F071F8A1680746BAA8FEF75EF8BC
:10747000BAA9C2A802F0BCFDE168BEA8FEF788F870
:10748000BEA9C2A802F0FBFD01683846FDF76EFAFE
:10749000BEA802F03FFDC2A802F03CFDBAA802F06F
:1074A00039FDD4E90201FEF78DF82B686D4AA16819
:1074B00042F823106C4AE16842F8231001332B6034
:1074C0006A4B1B78002B3FF41CAF694A13680133E9
:1074D000136016E7172BC4D16649604803F0D6FB4A
:1074E000B8E7624F3B78002B34D1594DDFF8648107
:1074F00003F02AF8604902F026FE28685F4908EB8D
:10750000001002F080FD2B68162B1CDC1B01534879
:1075100058F80320402102F087FB5049504802F000
:10752000FFFD4F4801F0A6FF2B684E4A4FF0FF3198
:1075300042F823104C4A002142F8231001332B60FB
:1075400001233B70DDE6172BEED14A49434803F097
:107550009DFBE2E702F0F8FF494902F0F4FD4949DA
:10756000C2A802F022FDC2AA02210220DDE63F4F9E
:107570003B78002B57D0DFF8F880D8F80030002B8C
:1075800051DD02F0E1FF4049314DDFF8C89002F0D3
:10759000DAFDA1680A220231BEA802F046FDBEA9AA
:1075A000C2A802F025FD3949C2A802F074FD0146C7
:1075B000286809EB001002F00CFDC2A802F0AAFC3A
:1075C000BEA802F0A7FC2B68162B25DC1B01234864
:1075D00059F80320402102F027FB2049204802F0FF
:1075E0009FFD1F4801F046FF2B681E4A1E486FF0A2
:1075F000010142F82310D8F8002040F82320A168A8
:1076000001329A1A013302312B60002340F8221014
:107610003B70C8F8003074E6172BE5D115490F48C8
:1076200003F034FBD9E702F08FFF194995E70135E4
:107630003FF467AE02F088FF164902F084FD11495D
:10764000C2A802F0B2FCC2AA00218EE7DCB40B0093
:1076500040DA032058DA032077B80B000DD303205B
:1076600058D3032010D70320C8D303200CD3032002
:1076700040DC0320BBB40B006FB80B002EB80B002E
:1076800036B80B00DEAF0B006BB80B0074B80B0004
:107690007BB80B007FB70B00704710B51021044674
:1076A000FDF721F9204610BD73B50446084622793E
:1076B000A36832B1A3B90B4902B0BDE8704002F033
:1076C0002FBD094A267B094D0949647B012E18BF4D
:1076D0002946CDE900140749FDF73AF902B070BD1B
:1076E000054AEFE7B9BC0B00DEAF0B00B5BC0B00E1
:1076F000B1BC0B00CFBC0B00A8BC0B002DE9F04FB8
:1077000085B01F46BDF93880BDF83C30A8EB0209B2
:10771000A7EB010AB9F1000FB8BFC9F10009BAF12E
:10772000000FB8BFCAF1000AD14583460C46154682
:1077300004DD3A462C4647460D469046BC4205DDE0
:107740002A464546904622463C4617463E1BB2B264
:107750000092A8EB050282EAE271A1EBE271C6F3A6
:10776000C03202FA86F64545B4BF01224FF0FF321F
:10777000019176100292BC421CDCDBF800200393DE
:10778000D145D2F81880C7BF294622462A4621464D
:107790005846C047019A039BB61AB1B236B2002EC2
:1077A00005DA029A1544009A56182DB236B2013401
:1077B00024B2E0E705B0BDE8F08F704710B404686C
:1077C0002469A4465DF8044B604730B40468BDF8F2
:1077D00008500295A46BA44630BC604730B40468DE
:1077E000BDF808500295E46BA44630BC604770B405
:1077F000BDF90C50BDF810600468CDE90356246C47
:10780000A44670BC60472DE9F3411C460368BDF8EF
:1078100020805B6905461646013C34440F4624B27D
:1078200098472B68CDF8048000949C6A28463B4614
:1078300032463946A0472B68DB6A284602B0BDE8CD
:10784000F04118472DE9F3411D460368BDF820803B
:107850005B69044617460E469847CDE900782268D2
:107860006B1E3344956A20461BB23A463146A84700
:107870002368DB6A204602B0BDE8F04118472DE9D5
:10788000F3471E460368BDF928905B69BDF82C805C
:107890000C460546174698472644B4422B680BDA37
:1078A000CDF80080D3F820A021464B463A46284622
:1078B0000134D04724B2F0E7DB6A284602B0BDE8C5
:1078C000F047184713B502680191B0F90E10009106
:1078D000146CB0F90C3000221146A04702B010BD64
:1078E0002DE9F74399421646BDF92870BDF82C9052
:1078F000026880460D461C4613D1BE42C8BF3346BF
:10790000CDF82890C4BF3E461F467B1C946B9B1B42
:107910001BB2324629464046A44603B0BDE8F043B8
:107920006047BE420AD19942C2BF0B4625461C465B
:10793000631CCDF82890D46B5B1BE9E7536998472B
:10794000CDE90079D8F8003040469F6A3246234698
:107950002946B847D8F80030DB6A404603B0BDE896
:10796000F04318472DE9F3471D460368BDF82C8006
:107970005B69BDF9289004460F4616469847236870
:10798000CDF80080D3F824A032462B463946204655
:10799000D0472368CDF8008009F1FF323244D3F894
:1079A00024A039462B46204612B2D0472368CDF892
:1079B0000080D3F820A032464B4639462046D047B7
:1079C0006B1ED9192368CDF800801D6A20464B46EE
:1079D000324609B2A8472368DB6A204602B0BDE8F8
:1079E000F0471847704701F00303B0F90A20837687
:1079F000C907B0F9083059BF8381C2818281C38130
:107A00007047000030B54281C281074A074D0181AD
:107A1000002481814FF0FF31C0E905124460056008
:107A200004610477046230BD01010001F4C10B0060
:107A30002DE9F04F8BB01C46BDF858300493A3B22B
:107A4000C3F10105C3EBC3335B001BB20793BDF960
:107A5000543001339BB2059393B206938846059B3D
:107A60009DF8501003930023029301F00103089343
:107A7000DDF818A001F0020383462DB20993029BA2
:107A8000A3426FDA002D6BDB079B0233661E1AB22E
:107A900015FA83F536B207922DB2029F01371FFA0D
:107AA00087F93BB205EB490501359E4202932DB2A1
:107AB00029DB089B93B104980090DBF8000006993D
:107AC000059B006AB2B203EB42038A1A09EB080174
:107AD00007461BB212B209B25846B847099B93B188
:107AE00006990498059B0090B2B2DBF8000003EB06
:107AF00042038A1AA8EB09011BB2D0F8209012B2F7
:107B000009B25846C847B44220D0089B73B1DBF88D
:107B10000030049A009208EB0401D3F82090BDF9DC
:107B20000C300FFA8AF209B25846C847099B6BB16C
:107B3000DBF80030049A0092A8EB04010FFA8AF2F5
:107B40001C6ABDF90C3009B25846A0470AF1FF3350
:107B50001FFA83FA039B02339BB2039334468EE7EA
:107B600026469AE70BB0BDE8F08F2DE9F0411E469E
:107B700086B00368059104465B69BDF83070154610
:107B80009847B2B22068009753000133AA1AD0F880
:107B90002080059920461BB212B2C0470323002261
:107BA000CDE9003220463346059902972A46FFF771
:107BB0003FFF2368DB6A204606B0BDE8F041184766
:107BC0002DE9F04F8DB01D46BDF95860BDF8643009
:107BD000BDF95C80BDF960700493B242834689466A
:107BE000144640F3CE80BA4217DDB7420FDA33466F
:107BF0003E4627461C462B464546C84699460CE05D
:107C0000234634461E464B46A9461D46EDE723460D
:107C10003C461F464B46C1469846DBF80030584666
:107C20005B699847BE4222D14D45C2BF2B464D46A7
:107C30009946454505DCC145B8BFC1460FFA89F9EB
:107C4000A846DBF800200499009109F10103A3EB99
:107C50000803546A1BB2324641465846A047DBF837
:107C60000030DB6A58460DB0BDE8F04F18471FFAE8
:107C700089F30393ABB20293DDE902239B1A1BB293
:107C80001FFA86FC0893A3B2A3EB0C0212B209926E
:107C9000029A1FFA88F1A1EB0208BAB2A2EB0C0C0F
:107CA0000FFA8CF006900398BC42A2EB0302A1EB02
:107CB000000118BF03F1FF3312B209B218BF1BB2A3
:107CC0004FF000090A920FFA88F8079114BF059344
:107CD00005943246CA46059B9A4224DC099B0298C9
:107CE0009AFBF3F1029B0B921944069B99FBF3F369
:107CF0000344089809B21BB2994282440498009048
:107D0000C8BF8C46DBF80000C4BF19466346406A12
:107D100001335B1A05461BB25846A8470B9A01323D
:107D2000C14412B2D7E7079B141B961B5C4308FBA8
:107D300006F6BA4293DC0A9B029894FBF3F1039B8C
:107D400005921944069B96FBF3F3034409B21BB258
:107D500099420798C8BF8C460444C8BF1946049886
:107D60000090C8BF6346DBF8000001335B1AD0F80F
:107D700024901BB25846C847059A0132464412B2B5
:107D8000D7E7BE423FF73CAF33461C4616462B466C
:107D90000D4633E72DE9F04F89B0CDE902120268B4
:107DA000BDF948800493BDF94C3052690593BDF884
:107DB00050A00446904718F107024FF0000648BF54
:107DC00008F10E024FEAE20B01963546039B019A39
:107DD000BDF904109A18059B8B4212B227DD049B53
:107DE00033444FF0000906930FFA89F080451FFADB
:107DF00089F117DD4F0705BF069BC0106D001D5CA4
:107E000018BFEDB22B060AD5029B206807921944D1
:107E1000836909B21F4620465346B847079A09F1BD
:107E20000109E1E7019B013301935E44CEE723683A
:107E3000DB6A204609B0BDE8F04F18472DE9F04F46
:107E40002DED028B91B01646026ABDF874809DF844
:107E500078509DF87C4003911F46BDF87030049324
:107E60008346002A40F0C580B0F90C308B4240F3C5
:107E70004C81B0F90E30B34240F34781062313FB27
:107E80000513002B40F3418106EBC403002B40F3A4
:107E90003C81037F1BB9AF2F84BF0137FFB2DBF8F2
:107EA000003058465B6998470522099200220592E6
:107EB000984A07EB8703D3180C93B3B20693059A3D
:107EC0000C9B9B5C0793ABB20B93BDF80C300893F3
:107ED000039B02FB05F919FA83F90FFA89F308EEFF
:107EE000103A08230A93039B02EB030A4FF00009A0
:107EF0000FFA8AFA079ADBF80030D20752D5012D23
:107F00001FFA89F23ED1012C3CD19B6906991F468C
:107F1000049B0A4412B251465846B84709F101037E
:107F20004FFA83F9079B5B0807930A9B013B13F009
:107F3000FF030A93DED1059F01377BB20593099BAE
:107F4000013B13F0FF030993B9D1049B43450FD0C4
:107F5000012DDBF800303BD1012C39D10899CDF847
:107F6000008005311C6A3246082309B25846A047F2
:107F7000DBF80030DB6A584611B0BDEC028BBDE87F
:107F8000F04F1847069914FB02F20A440499019134
:107F90000094DB6918EE101A1F4612B22B465846A1
:107FA000B847BBE7049A4245B8D0012D1FFA89F2C1
:107FB00007D1012C05D19B6906991F460A44434607
:107FC000A8E70699CDF8048014FB02F20A44DFE723
:107FD0000B9ACDF8048002EB8201089AE4000A446F
:107FE00011460094DC6932462B4609B25846A04738
:107FF000BEE7137A516812680B92FF1AFFB201EBC9
:10800000C70331F8372006929A780992DA780C92F1
:10801000012D93F9052093F906A00A9201D8012CAD
:1080200057D9BDF9283008930FFA8AF30793DBF884
:10803000003058465B699847B3B24FF000080E9382
:108040001AFA86F3C14647460F930C9B9F428FD284
:10805000079B0E9A3B4403FB0423002205920F9AD0
:108060001BB202EB070A08EE103A0FFA8AFA4346EF
:10807000099A0599914241D25A1CD2B25B070D92DE
:1080800007D1069B06990B9A01339BB212F8019017
:10809000069319F0800F12D0012DDBF80030BDF8E7
:1080A0000C101AD1012C18D10A9A9B691144059A17
:1080B00011441E465246049B09B25846B047059EDD
:1080C0000136F3B24FEA490905935FFA89F90D9B2E
:1080D000CEE70023CDE90733A9E70598089A0244C3
:1080E00002FB0511049ACDE90042DB6918EE102A63
:1080F0001E4609B22B465846B047E0E7099B0137B8
:1081000098445FFA88F8FFB29FE711B0BDEC028B8C
:10811000BDE8F08FECBC0B00F0B5026A85B00446F8
:108120000B46002A34D10A2908D1438A0282427EB2
:1081300003EBC2036382012005B0F0BD0D29FAD024
:10814000E17E007E657E71B1B4F91060062111FBFD
:108150000061B4F90C60B142C1BFB4F912102282BF
:1081600001EBC5026282E28A0192A28A0092CDE905
:108170000205B4F91220B4F910102046FFF75EFE94
:10818000237E228A03EB430302EB43032382D2E7DD
:108190000A2907D100230382417E927A438A01FB98
:1081A0000233C7E70D29C6D0157AA942C3D3517A45
:1081B0009942C0D351685D1BEDB201EBC505A878AB
:1081C00028B3E97819B3E17E267E677E91B195F9EF
:1081D00005100844B4F9101006FB0011B4F90C00A6
:1081E000814207DD00202082B4F91210927A02FB4E
:1081F00007126282E28A0192A28A0092CDE90267A6
:10820000B4F91220B4F910102046FFF717FE2979AF
:10821000227E238A01FB0233B8E7012938BF0121FE
:1082200001764176704738B504460846217301212E
:10823000154602F0BFFB207B012102F0CCFB284653
:108240006573012102F0B6FB607B002102F0C3FBE5
:10825000204638BD0139C9B208299ABF024B53F8EC
:1082600021000248704700BF3CC30B0044C20B0012
:1082700013B50B4C2178BFF35B8F11F001010BD1CB
:1082800020460191FCF73EFB019928B1054801F019
:1082900037FD2046FCF73BFB024802B010BD00BF93
:1082A00014CD032018CD032007B50190FFF7E0FFA0
:1082B000019903B05DF804EB01F0C8BD2DE9F74F5B
:1082C00007469DF830801E461546002A42D001F030
:1082D0007E01007B41F08009002102F07CFB4846D2
:1082E000FFF7E2FF013DEDB24FF0000B4FF0010A46
:1082F0005FFA8BF4A54222D9DCB9B8F1000F18D08F
:108300004246D3B2072B61B205D80AFA02F40C43F5
:10831000E4B20132F5E748460191FFF7C5FF337833
:108320000199044023EA01031C4334700BF1010B53
:10833000DEE74846FFF7B8FF06F80B00F6E7002037
:10834000FFF7B2FF7055387B012103B0BDE8F04F55
:1083500002F041BB03B0BDE8F08F38B50C460546CE
:108360000021007B04F07E0402F035FB44F0800025
:10837000FFF79AFF0020FFF797FF01210446287BB3
:1083800002F029FB204638BDF8B50F46064600210D
:10839000007B15461C4602F01EFB07F07E00FFF72F
:1083A00083FF2544AC4204D014F8010BFFF77CFF97
:1083B000F8E7307B0121BDE8F84002F00CBB70B556
:1083C00004460E46007B0021154602F004FB06F031
:1083D0007E00FFF769FF2846FFF766FF207B01213B
:1083E000BDE8704002F0F7BA70B5164604460D4677
:1083F000FFF7B3FF3043C2B229462046BDE87040C4
:10840000FFF7DDBF70B5164604460D46FFF7A5FF22
:1084100020EA0600C2B229462046BDE87040FFF7B8
:10842000CEBF08221021FFF7EDBFF8B50446154670
:108430000F46002202211E46FFF7C1FF04220A2137
:108440002046FFF7BCFF802214212046FFF7CCFF17
:108450002A463B4612212046FFF796FF03220221BF
:108460002046FFF7ACFF41F288350A212046FFF78E
:1084700074FF430705D4013DADB2002DF5D10420B2
:108480000FE0002202212046FFF799FF44212046F9
:10849000FFF763FF422130702046FFF75EFF7070E8
:1084A0000120F8BD10B50F2202210446FFF787FF17
:1084B000322001F0B3FE02212046FFF74EFFC30633
:1084C000F9D410BD10B528210446FFF746FF00F08F
:1084D0000303032B08D040F00302D2B22046282128
:1084E000BDE81040FFF76BBF10BD10B50446407BE0
:1084F00002F08AFA48BB607B012102F06CFA32205C
:1085000001F08CFE204680225421FFF758FF2046C0
:10851000A9225621FFF753FF204603225821FFF7D7
:108520004EFF2046E8225A21FFF749FF204640220D
:108530002A21FFF744FF20463D222221FFF73FFF7B
:108540002046BDE81040FFF7BDBF2046FFF7AAFF59
:10855000D8E72DE9F04F89B0DDE91356DDF85490E6
:1085600003929DF85C209DF858B0049204468A4618
:108570000027B9F1000F3ED099F800800593002242
:1085800002212046FFF71BFF7F2208212046FFF72C
:1085900016FF08EB0B18802214212046FFF724FF5A
:1085A0005FFA88F8059B9DF8482012212046FFF7C6
:1085B000EBFE42461A212046FFF701FF52460221F8
:1085C0002046FFF7FCFEBAF10C0F04D180221A21DD
:1085D0002046FFF709FF4FF4FA6808212046FFF70D
:1085E000BCFE039B184208D1C30702D4B8F10108AE
:1085F000F3D104204DE0C846C0E70C212046FFF728
:10860000ACFE10F0130F804646D1DDB1D6B1142177
:108610002046FFF7A2FE3378834202463ED33070F5
:108620002B4612212046CDF800B0FFF747FE182157
:108630002046FFF792FE00F00707B9F1000F01D0C6
:1086400089F8007018F0080F2AD15DB356B3049B67
:1086500043B33278012A03D1042F25D1092018E031
:1086600022D90FBB023A07ABD2B229462046FFF708
:10867000DCFE01280DD133781D449DF81C3015F81F
:10868000022C9A4210D115F8012C9DF81D309A4207
:108690000AD109B0BDE8F08F0220FAE70520F8E71B
:1086A0000320F6E70120F4E70820F2E710B586B0D2
:1086B0009DF82C4005949DF828400494099C03944F
:1086C000089C0092CDE9013430220B460C21FFF7C3
:1086D00040FF06B010BD70B588B006461C468DF848
:1086E000171015461AB31B78012B20D980221C21A4
:1086F000FFF788FE07238DF81F300023CDE90233F2
:108700000DF11F03CDE9004301222B460DF11701A6
:108710003046FFF7CBFF012807D12378022B08D181
:108720009DF81F30002B18BF022008B070BD052037
:10873000FBE70220F9E713460A462621FFF7CBBFE5
:1087400007B502230DF1030201A98DF80330FFF7ED
:10875000F2FF00F0FD00431E5842584103B05DF89F
:1087600004FB70B586B050238DF8143000240DF151
:108770001603022205A906468DF81540FFF755FE9F
:10878000012805460FD1CDE90244CDE90044234636
:10879000042205A93046FFF789FF042803D00128E9
:1087A00014BF05460225284606B070BD7FB50646B3
:1087B0001D461446CAB11B78112B16D930231370ED
:1087C0005170931C21460222FFF72FFE01280AD187
:1087D0000023CDE90133039000952346042221466E
:1087E0003046FFF763FF04B070BD0520FBE710B50E
:1087F0008AB00C9C8DF81D201A689B88ADF8223039
:1088000063788DF82430A3788DF82530E3788DF8DF
:10881000263023798DF827300023CDE90433CDE9C4
:10882000023301930C238DF81C10CDF81E20009309
:10883000102207AB0E21FFF78CFE0AB010BD2DE908
:10884000F04F502A8BB082460F46904600F240818E
:1088500080221C21FFF7D6FD93238DF81C30B8F140
:10886000000F00F0BC803C78042C94BF002301234F
:10887000012500260BE095238DF81C30B8F1000F80
:1088800000F0AF803C78072C94BF00230123A8EBB5
:10889000C60464B224EAE474002B00F0A4808822A9
:1088A0008DF81E20032114F0070218BF012202EBED
:1088B000E40212F0FF02E0B21DD0002B14BF4FF013
:1088C00003094FF0040906F1010C914594BF01EB37
:1088D000090E01EB020E57FA8CFC5FFA8EFE0A4677
:1088E0000DF1280B0131C9B25A441CF8019B02F862
:1088F0000C9C7145F3D10BB1083044B21F2C74DDD0
:108900004FF070039DF81F208DF81D309DF81E302C
:1089100053409DF8202053409DF8212053408DF86E
:10892000223007220DF1230307A95046FFF77DFDF2
:108930000128814640F0C88000238DF81A300323B7
:108940008DF81B3004940DF1220B4FF009099DF8AE
:108950001A30059303EB0312D2B21A215046FFF7E7
:108960002EFD059B02930DF11A03002201930DF1D8
:108970001B03039200934A465B4607A95046FFF744
:1089800095FE032881464CD11C215046FFF7E5FC9B
:10899000810600F1998010F01F0008BF2020A0423E
:1089A00040F38780431E03F0070244B213F007032D
:1089B0004FEAD00018BF0123013018440AAB184415
:1089C000012303FA02F210F80C3C134300F80C3CAC
:1089D00094E797238DF81C300626234657E7434635
:1089E00046E7434653E702215DE7E3100233DBB27B
:1089F00004F0070214F007098DF81A2002EB0312A5
:108A00008DF81D2018BF4FF0010907AA994402EB09
:108A1000030BC3F109035FFA89F98DF81B30049445
:108A200095E7012850D1049B1F2B4FF020047FF7BE
:108A300067AF9DF81E30882B3ED103231A460136BE
:108A40001A4457FA86F6D2B219460AA801330144ED
:108A5000DBB211F80C1C06F8011B9342F4D19DF80F
:108A60001B60032E37D19DF81A40A4BB0DF11E03E5
:108A7000012259465046FFF7D8FC0128814623D1F0
:108A80009DF81E209BF801309A4227D19DF81F20A7
:108A90009BF802309A4221D19BF800305A070ED53C
:108AA0000135EDB2032D94D0042D02D0022D3FF4F8
:108AB000E2AE4FF0060907E002230422BFE705EB10
:108AC00045050135FB723D7048460BB0BDE8F08F9F
:108AD0004FF00709F8E74FF00209F5E74FF00809F2
:108AE000F2E708B501460022FFF7A9FE431E5842EF
:108AF000584108BD0160704710B504460121008847
:108B000001F058FF2088002101F065FF022000F0ED
:108B10007FFE2088012101F05EFF052000F078FE35
:108B20002088002101F057FF2088002101F042FF3A
:108B30002088012101F0AEFF3A2390FBF3F010BD35
:108B400010B5037201238171C271037410BD10B599
:108B500004460021807901F02DFFA079012101F068
:108B60003AFF0023E36010BD2DE9F843044600F00E
:108B700057FEE368834284BF0023E360237C23B96C
:108B8000E368C01AB0F5FA6F67D30025257400F0CA
:108B900047FE0121E0602560A079257101F01BFFEF
:108BA000FA2001F03BFBA079012101F003FF2946E7
:108BB000A07901F010FF142001F030FB01F0EAFC75
:108BC0000121A07901F007FF282000F021FEA07903
:108BD000294601F0EFFE2E4601274FF00008A0794C
:108BE00001F012FFB8425FFA88F908D1012008F1BC
:108BF000010800F00DFEB8F1FF0FF0D1C146A079D9
:108C000001F002FFB9F1FF0FC7B214D0032D0ED946
:108C1000EA070CD4F2080136A35C5B00DBB2A35474
:108C2000217A49453CBF43F00103A354F6B2013514
:108C3000EDB2552DD1D101F0AFFC272E0FD96378BD
:108C400020781844A3781844E37818442379C0B2F4
:108C5000C31A58425841BDE8F8830120FBE70020C1
:108C6000F9E7000010B50446FFF77EFF20B3E37973
:108C70000B2B1BD0153B012B1ED8A378DFED106A00
:108C800003F07F0207EE102AE27807EE902AB8EE92
:108C9000C77AF8EEE77A1B06E7EE267AB2EE047A98
:108CA00087EE870A07D5B1EE400A04E0A37800EE0C
:108CB000103AB8EE400A10BD9FED020AFBE700BF74
:108CC000000080430000C07FFFF7CCBF10B5044B0D
:108CD00003600446C06A08B100F096FF204610BD4C
:108CE0005CC90B0010B50446FFF7F0FF2046502189
:108CF000FBF7F9FD204610BD002910B54BDBB0F99C
:108D00000C408C4247DD002A45DBB0F90E4094420E
:108D100041DD847E022C1FD0032C26D0012C04D1EF
:108D20000489D24314440A4621B2012B23D0022BDA
:108D300032D083BB002A13460489C06AB8BFD31D52
:108D4000DB1013FB041102F0070201239340425C85
:108D500022EA030242541EE00489013C611A44895C
:108D6000D243224409B212B2DFE74489013C641ABB
:108D7000114622B2D9E7002A04891346B8BFD31D91
:108D8000DB1013FB0411C36A02F0070001228240CA
:108D9000585C02435A5410BD002A13460489C06A25
:108DA000B8BFD31DDB1013FB041102F0070201232F
:108DB00003FA02F2435C5A40CCE7000070B540224F
:108DC00004460E468021FEF71DFE00250D4B236054
:108DD000656201F0D3FEFF2384F8333084F8363027
:108DE000094BA3634FF6FF720123C4E90A05A2866B
:108DF00084F8376084F83C302564A4F84450204659
:108E000070BD00BF5CC90B0068C30B00F8B5044619
:108E1000806A0D4690B194F9301001F093FCA06A7D
:108E2000036800219B689847A06A036829469B68ED
:108E30009847A06ABDE8F84001F08BBC94F9353042
:108E4000014698B201F0C7FD606A20B12946BDE82D
:108E5000F84000F0FBBF0826802794F9330005EAAC
:108E6000070180B201F0B7FD94F93400012180B20E
:108E700001F0B1FD94F93400002180B201F0ABFDA6
:108E8000013E4FEA5707E8D1F8BD38B50446806A7D
:108E90000D4680B1A16C01F047FC002D204614BFA7
:108EA000A721A621FFF7B2FFA06A88B1E16CBDE857
:108EB000384001F039BC606A18B104F1380100F0A3
:108EC00057FF94F93600002180B201F084FDE4E7F9
:108ED00094F93600012180B201F07DFD606A18B17D
:108EE000BDE8384000F02ABF38BD2DE9F8430446FC
:108EF000806A0D468F1840B394F9301001F022FCBF
:108F0000A06A036800219B6898470126AF42A06AC7
:108F100017D01F2E0CD901F01CFC94F93010A06A58
:108F200001F010FCA06A036800219B6898470126A5
:108F3000A06A15F8011B036801369B689847F6B2D2
:108F4000E4E7BDE8F84301F004BC94F9353001468C
:108F500098B201F040FDBD4222D0606A15F8019B35
:108F600018B1494600F072FFF5E708264FF0800877
:108F700094F9330009EA080180B201F02CFD94F95C
:108F80003400012180B201F026FD94F93400002163
:108F900080B201F020FD013E4FEA5808E8D1DAE73F
:108FA000BDE8F883B0F90A30DA1D48BF03F10E02BC
:108FB000B0F90830C06AD2105A43002101F020BE37
:108FC0002DE9FF411E46C36A9DF8288004460F46DE
:108FD0001546D3B12046FFF7E5FFB4F90A20202A51
:108FE00025DCB4F908102023203A73390120CDE99B
:108FF000013002EBD272732301EBD171009342F383
:109000004F02854B41F34F011BE0B0F90A30D81DE8
:1090100048BF03F10E00B4F90830C010584300F007
:10902000EBFDE0620028D5D104B0BDE8F08140231B
:109030004FF0010CCDE9013C802300930022774BD7
:1090400011462046FEF7A6FEA06A84F8317000287B
:1090500078D0002D74D1B4F90A30202B0CBF3C25F8
:109060003D2584F83050B8F1000F01D001F060FBCD
:10907000FEB194F9370000281BDB012180B201F01A
:1090800099FC94F93700012180B201F0A4FC012081
:1090900001F0C4F894F93700002180B201F09BFC84
:1090A0000A2001F0BBF894F93700012180B201F0E9
:1090B00092FCA06A002874D0A16C01F035FB042258
:1090C00057492046FFF711FF61890139C9B220468F
:1090D000FFF79CFE534904222046FFF706FF94F950
:1090E0003130012B0CBF102114212046FFF78EFEDA
:1090F00004224D492046FFF7F8FEA3684B4A9342ED
:109100005CD14B4904222046FFF7EFFED9212046CF
:10911000FFF77CFE94F93130012B0CBF2221F121A5
:109120002046FFF773FE204642490622FFF7DDFE88
:10913000A06A002863D0E16C01F0F6FA012073E721
:109140006DB28EE794F93500012180B201F032FC56
:1091500094F93600012180B201F02CFC94F936001C
:10916000012180B201F037FC656A3DB1B8F1000F12
:109170003FF47EAF284600F0CDFD79E794F9330047
:10918000012180B201F016FC94F93400012180B273
:1091900001F010FC94F93400294680B201F01BFC68
:1091A00066E7606A18B104F1380100F0E1FD94F956
:1091B0003600002180B201F00EFC80E71E4A934287
:1091C0000ED11E4903222046FFF78FFE94F931305D
:1091D000012B0CBF9F21CF212046FFF717FE95E7FB
:1091E000174A934292D1174903222046FFF77DFE8A
:1091F00094F93130012B0CBF1021AF21ECE794F929
:109200003600012180B201F0E6FB606A002895D0AB
:1092100000F094FD92E700BF74C30B0054C50B002F
:10922000BCC90B00C0C90B00C4C90B0080002000E2
:10923000CEC90B00C8C90B0080004000D2C90B008A
:1092400060001000D5C90B0070B5002ABDF81050A1
:109250003DDBB0F90A40944239DD0029BEBF5B18FE
:109260001BB20021B0F90840CE18A642C4BF631A51
:109270001BB2002B2BDDC06AD61014FB0611014473
:1092800002F0070001228240012DD2B216D0022D39
:109290000BD0E5B9D243D2B20B44994217D011F8A2
:1092A000010B104001F8010CF7E70B4499420ED076
:1092B00011F8010B504001F8010CF7E70B449942FB
:1092C00005D011F8010B104301F8010CF7E770BD50
:1092D000F0B50029BDF8145076DBB0F90860B14252
:1092E00072DA002ABEBF9B181BB20022B0F90A40F6
:1092F000D718A742C4BFA31A1BB2002B64DDC2F368
:10930000C404C76A16FB041612F00702DBB207EBAF
:10931000060423D0C2F10802D2B22D4993423CBFC9
:109320004FF0FF0CA2EB030E895C3CBF4CFA0EFC25
:109330000CEA0101012D07D0022D2ED04DB917F8EE
:1093400006C02CEA010103E017F806C041EA0C014F
:10935000B955934238D3B0F908100C449A1AD2B2D6
:10936000072A0ED9022D1DD113462178C943217039
:10937000083BB0F90810DBB2072B0C44F5D802F01B
:1093800007020AB3134B012D9B5C1AD0022D1CD08F
:10939000D5B9227822EA030315E017F806C081EA5E
:1093A0000C01D5E7291E18BF01214942C9B2134655
:1093B0002170083BB0F90860DBB2072B3444F7D8C2
:1093C000DDE7227813432370F0BD22785340FAE79B
:1093D000ACC90B00B4C90B0070B41446827EBDF852
:1093E0000C60022A0DD0032A18D0012A11D102895B
:1093F000E443144424B203960A46214670BCFFF7A6
:1094000067BF42890589E44319441444691A24B2A8
:1094100009B20396224670BCFFF716BF458919446E
:10942000691A09B2E7E730B41446827EBDF80850E5
:10943000022A0DD0032A18D0012A11D1E21804897A
:10944000A41A24B202950A46214630BCFFF7FCBE9E
:109450000289C9431144E2184489A41A09B224B20A
:109460000295224630BCFFF733BF4289C9431144FD
:1094700009B2E7E72DE9F8430446806A002842D0A4
:10948000A16C01F051F9474905222046FFF72DFD57
:10949000218901392046C9B2FFF7B8FCB4F90A3076
:1094A000DE1D48BF03F10E06D4E90A052389F61034
:1094B00013FB06F615FA86F600283AD094F9301018
:1094C00001F040F9A06A036840219B689847012792
:1094D000B542A06A24D01F2F0CD901F03AF994F9B3
:1094E0003010A06A01F02EF9A06A036840219B6841
:1094F00098470127A06A15F8011B036801379B688C
:109500009847FFB2E4E7606A18B104F1380100F04F
:109510002FFC94F93600002180B201F05CFAB2E72A
:1095200001F017F9A06A78B3E16CBDE8F84301F0E7
:10953000FBB894F93500012180B201F04CFAAE423B
:10954000F0D0606A15F8019B18B1494600F07EFC26
:10955000F5E708274FF0800894F9330009EA08017D
:1095600080B201F038FA94F93400012180B201F0A0
:1095700032FA94F93400002180B201F02CFA013F54
:109580004FEA5808E8D1DAE794F93600012180B2B1
:1095900001F021FA606A18B1BDE8F84300F0CEBBD3
:1095A000BDE8F883D8C90B0010B5044601704270BD
:1095B0008370012103EB430001F00CFB6060204647
:1095C00010BD10B50446406800F01EFB204610BDDB
:1095D00010B500210446007801F0FDF9142000F0D8
:1095E00017F92078012101F0F6F9BDE810401420A8
:1095F00000F00EB970B506460C46082523064CBF90
:1096000001210021707801F0E6F9013D3046FFF7B5
:10961000DFFF640015F0FF05E4B2EFD170BD73B554
:1096200013F0800F1E460C46154614BFC021E021E2
:10963000730658BF41F010012A0658BF41F00801D7
:109640006B0658BF41F00401220658BF41F00201E9
:10965000630658BF41F001010190FFF7CBFF01986D
:109660003146FFF7C7FF01982946FFF7C3FF01986E
:10967000214602B0BDE87040FFF7BCBF2DE9F047BE
:1096800004460F460021904699469DF820A0FFF71A
:10969000B1FF00212046FFF7ADFF00212046FFF774
:1096A000A9FF00212046FFF7A5FF0026A378F5B209
:1096B000AB4219D905EB4500AF4200F1010200F1C0
:1096C000020308D1616801F80080616801F8029026
:1096D000616801F803A06168CB5C8A5C095C204684
:1096E000FFF79DFF0136E1E720460021FFF782FFEB
:1096F00020460021FFF77EFF20460021FFF77AFF7A
:1097000020460021BDE8F047FFF774BF73B504465B
:109710000121007801F04EF96078012101F04AF949
:1097200000252E46A378E9B28B4207D90023009684
:109730001A462046FFF7A2FF0135F3E702B070BDDD
:1097400008B5024B1B689B68019308BD68020300C3
:1097500008B5024B1B68DB68019308BD6802030073
:1097600008B5024B1B685B68019308BD2C0203001F
:1097700008B5024B1B689B68019308BD2C020300CF
:1097800008B5024B1B68DB68019308BD2C0203007F
:1097900008B5024B1B681B69019308BD2C0203002E
:1097A00008B5024B1B685B69019308BD2C020300DE
:1097B00008B5024B1B681B6A019308BD2C0203000D
:1097C00008B5024B1B685B6A019308BD2C020300BD
:1097D00008B5024B1B681B6B019308BD2C020300EC
:1097E00008B5024B1B68DB6C019308BD2C0203001B
:1097F00008B5024B1B68DB6F019308BD2C02030008
:1098000008B5024B1B685B68019308BD1802030092
:1098100008B5024B1B68DB68019308BD1802030002
:1098200008B5024B1B685B69019308BD1802030071
:1098300008B5024B1B689B6A019308BD1802030020
:1098400008B5024B1B68DB6A019308BD18020300D0
:1098500008B5024B1B689B6C019308BD18020300FE
:1098600008B5024B1B685B6C019308BD48020300FE
:1098700008B5024B1B685B69019308BD64020300D5
:1098800008B5024B1B68DB68019308BD3C0203006E
:1098900008B5024B1B681B69019308BD3C0203001D
:1098A00008B5024B1B685B69019308BD3C020300CD
:1098B00008B5024B1B689B69019308BD3C0203007D
:1098C00008B5024B1B68DB69019308BD3C0203002D
:1098D00008B5024B1B681B6A019308BD3C020300DC
:1098E00008B5024B1B689B6A019308BD3C0203004C
:1098F00008B5024B1B681B6C019308BD3C020300BA
:1099000008B5024B1B681B68019308BD28020300C1
:1099100008B5024B1B68DB68019308BD28020300F1
:1099200008B5024B1B689B69019308BD2802030020
:1099300008B5024B1B68DB69019308BD28020300D0
:1099400008B5024B1B681B6A019308BD280203007F
:1099500008B5024B1B685B6A019308BD280203002F
:1099600008B5024B1B689B6A019308BD28020300DF
:1099700008B5024B1B68DB6A019308BD280203008F
:1099800008B5024B1B681B6B019308BD280203003E
:1099900008B5024B1B685B6B019308BD28020300EE
:1099A00008B5024B1B681B6C019308BD280203001D
:1099B00008B5024B1B681B68019308BD3002030009
:1099C00008B5024B1B685B69019308BD30020300B8
:1099D00008B5024B1B68DB69019308BD3002030028
:1099E00008B5024B1B681B6A019308BD30020300D7
:1099F00008B5024B1B685B6A019308BD3002030087
:109A000008B5024B1B68DB6B019308BD30020300F5
:109A100008B5024B1B681B6C019308BD30020300A4
:109A200008B5024B1B685B6C019308BD3002030054
:109A300008B5024B1B681B68019308BD2402030094
:109A400008B5024B1B685B68019308BD2402030044
:109A500008B5024B1B681B68019308BD4C0203004C
:109A600008B5024B1B685B68019308BD4C020300FC
:109A700008B5024B1B681B69019308BD4C0203002B
:109A800008B5024B1B685B69019308BD4C020300DB
:109A900008B5024B1B689B69019308BD4C0203008B
:109AA00008B5024B1B68DB69019308BD4C0203003B
:109AB00008B5024B1B681B6A019308BD4C020300EA
:109AC00008B5024B1B685B6B019308BD6002030085
:109AD00008B5024B1B685B68019308BD20020300B8
