:02000002B0004C
:1040000000400B00E2D40B00000006000C0005028B
:084010000401B41400000000DB
:04401800B8B40B002D
:1040200081F0004102E000BF83F0004330B54FEA69
:1040300041044FEA430594EA050F08BF90EA020FD6
:104040001FBF54EA000C55EA020C7FEA645C7FEA69
:10405000655C00F0E2804FEA5454D4EB5555B8BF8C
:104060006D420CDD2C4480EA020281EA030382EAFD
:10407000000083EA010180EA020281EA0303362D8F
:1040800088BF30BD11F0004F4FEA01314FF4801C62
:104090004CEA113102D0404261EB410113F0004F74
:1040A0004FEA03334CEA133302D0524263EB43032B
:1040B00094EA050F00F0A780A4F10104D5F1200EC9
:1040C0000DDB02FA0EFC22FA05F2801841F1000124
:1040D00003FA0EF2801843FA05F359410EE0A5F1F8
:1040E00020050EF1200E012A03FA0EFC28BF4CF029
:1040F000020C43FA05F3C01851EBE37101F00045DF
:1041000007D54FF0000EDCF1000C7EEB00006EEBEB
:104110000101B1F5801F1BD3B1F5001F0CD3490875
:104120005FEA30004FEA3C0C04F101044FEA4452CC
:1041300012F5800F80F09A80BCF1004F08BF5FEA53
:10414000500C50F1000041EB045141EA050130BD33
:104150005FEA4C0C404141EB0101013C28BFB1F545
:10416000801FE9D291F0000F04BF01460020B1FA90
:1041700081F308BF2033A3F10B03B3F120020CDA63
:104180000C3208DD02F1140CC2F10C0201FA0CF041
:1041900021FA02F10CE002F11402D8BFC2F1200CA6
:1041A00001FA02F120FA0CFCDCBF41EA0C0190405C
:1041B000E41AA2BF01EB0451294330BD6FEA0404A5
:1041C0001F3C1CDA0C340EDC04F11404C4F1200290
:1041D00020FA04F001FA02F340EA030021FA04F3A2
:1041E00045EA030130BDC4F10C04C4F1200220FAF9
:1041F00002F001FA04F340EA0300294630BD21FA37
:1042000004F0294630BD94F0000F83F4801306BFFC
:1042100081F480110134013D4EE77FEA645C18BFF0
:104220007FEA655C29D094EA050F08BF90EA020F87
:1042300005D054EA000C04BF1946104630BD91EA7F
:10424000030F1EBF0021002030BD5FEA545C05D182
:104250004000494128BF41F0004130BD14F58004C1
:104260003CBF01F5801130BD01F0004545F0FE4135
:1042700041F470014FF0000030BD7FEA645C1ABF6A
:10428000194610467FEA655C1CBF0B46024650EAA1
:10429000013406BF52EA033591EA030F41F40021CD
:1042A00030BD00BF90F0000F04BF0021704730B553
:1042B0004FF4806404F132044FF000054FF0000128
:1042C00050E700BF90F0000F04BF0021704730B5E9
:1042D0004FF4806404F1320410F0004548BF4042BE
:1042E0004FF000013EE700BF42004FEAE2014FEA13
:1042F00031014FEA02701FBF12F07F4393F07F4FEE
:1043000081F06051704732F07F4208BF704793F0F0
:104310007F4F04BF41F40021704730B54FF4607403
:1043200001F0004521F000411CE700BF50EA010206
:1043300008BF704730B54FF000050AE050EA0102AF
:1043400008BF704730B511F0004502D5404261EB1F
:1043500041014FF4806404F132045FEA915C3FF460
:10436000D8AE4FF003025FEADC0C18BF03325FEAFD
:10437000DC0C18BF033202EBDC02C2F1200300FAAE
:1043800003FC20FA02F001FA03FE40EA0E0021FAD3
:1043900002F11444BDE600BF70B54FF0FF0C4CF4C1
:1043A000E06C1CEA11541DBF1CEA135594EA0C0F73
:1043B00095EA0C0F00F0DEF82C4481EA030621EAAE
:1043C0004C5123EA4C5350EA013518BF52EA0335E9
:1043D00041F4801143F4801338D0A0FB02CE4FF09B
:1043E0000005E1FB02E506F00042E0FB03E54FF0CB
:1043F0000006E1FB03569CF0000F18BF4EF0010EC3
:10440000A4F1FF04B6F5007F64F5407404D25FEABE
:104410004E0E6D4146EB060642EAC62141EA555171
:104420004FEAC52040EA5E504FEACE2EB4F1FD0CB3
:1044300088BFBCF5E06F1ED8BEF1004F08BF5FEA31
:10444000500E50F1000041EB045170BD06F00046E3
:1044500046EA010140EA020081EA0301B4EB5C0490
:10446000C2BFD4EB0C0541EA045170BD41F4801188
:104470004FF0000E013C00F3AB8014F1360FDEBFAD
:10448000002001F0004170BDC4F10004203C35DA89
:104490000C341BDC04F11404C4F1200500FA05F30C
:1044A00020FA04F001FA05F240EA020001F00042AD
:1044B00021F0004110EBD37021FA04F642EB060123
:1044C0005EEA430E08BF20EAD37070BDC4F10C044D
:1044D000C4F1200500FA04F320FA05F001FA04F211
:1044E00040EA020001F0004110EBD37041F10001FD
:1044F0005EEA430E08BF20EAD37070BDC4F1200508
:1045000000FA05F24EEA020E20FA04F301FA05F26F
:1045100043EA020321FA04F001F0004121FA04F217
:1045200020EA020000EBD3705EEA430E08BF20EAE7
:10453000D37070BD94F0000F0FD101F00046400021
:1045400041EB010111F4801F08BF013CF7D041EAA3
:10455000060195F0000F18BF704703F000465200A7
:1045600043EB030313F4801F08BF013DF7D043EA78
:104570000603704794EA0C0F0CEA135518BF95EA2E
:104580000C0F0CD050EA410618BF52EA4306D1D1B5
:1045900081EA030101F000414FF0000070BD50EAD4
:1045A000410606BF1046194652EA430619D094EA5E
:1045B0000C0F02D150EA013613D195EA0C0F05D148
:1045C00052EA03361CBF104619460AD181EA03019C
:1045D00001F0004141F0FE4141F470014FF0000054
:1045E00070BD41F0FE4141F4780170BD70B54FF0EF
:1045F000FF0C4CF4E06C1CEA11541DBF1CEA13556F
:1046000094EA0C0F95EA0C0F00F0A7F8A4EB050450
:1046100081EA030E52EA03354FEA013100F0888047
:104620004FEA03334FF0805545EA131343EA126310
:104630004FEA022245EA111545EA10654FEA0026C5
:104640000EF000419D4208BF964244F1FD0404F57E
:10465000407402D25B084FEA3202B61A65EB0305DA
:104660005B084FEA32024FF480104FF4002CB6EB97
:10467000020E75EB030E22BFB61A754640EA0C0017
:104680005B084FEA3202B6EB020E75EB030E22BF57
:10469000B61A754640EA5C005B084FEA3202B6EB98
:1046A000020E75EB030E22BFB61A754640EA9C0057
:1046B0005B084FEA3202B6EB020E75EB030E22BF27
:1046C000B61A754640EADC0055EA060E18D04FEAE5
:1046D000051545EA16754FEA06164FEAC30343EA85
:1046E00052734FEAC2025FEA1C1CC0D111F4801F52
:1046F0000BD141EA00014FF000004FF0004CB6E74B
:1047000011F4801F04BF01430020B4F1FD0C88BFE9
:10471000BCF5E06F3FF6AFAEB5EB030C04BFB6EBF4
:10472000020C5FEA500C50F1000041EB045170BDE7
:104730000EF0004E4EEA113114EB5C04C2BFD4EB14
:104740000C0541EA045170BD41F480114FF0000E98
:10475000013C90E645EA060E8DE60CEA135594EA14
:104760000C0F08BF95EA0C0F3FF43BAF94EA0C0F17
:104770000AD150EA01347FF434AF95EA0C0F7FF48C
:1047800025AF104619462CE795EA0C0F06D152EAE0
:1047900003353FF4FDAE1046194622E750EA4106C4
:1047A00018BF52EA43067FF4C5AE50EA41047FF4D5
:1047B0000DAF52EA43057FF4EBAE12E74FF0FF3C3A
:1047C00006E000BF4FF0010C02E000BF4FF0010C0B
:1047D0004DF804CD4FEA410C7FEA6C5C4FEA430C84
:1047E00018BF7FEA6C5C1BD001B050EA410C0CBFD3
:1047F00052EA430C91EA030F02BF90EA020F002035
:10480000704710F1000F91EA030F58BF994208BF9B
:1048100090422CBFD8176FEAE37040F00100704758
:104820004FEA410C7FEA6C5C02D150EA013C07D1AF
:104830004FEA430C7FEA6C5CD6D152EA033CD3D0FA
:104840005DF8040B704700BF8446104662468C46F4
:104850001946634600E000BF01B5FFF7B7FF002827
:1048600048BF10F1000F01BD4DF808EDFFF7F4FF50
:104870000CBF012000205DF808FB00BF4DF808EDDB
:10488000FFF7EAFF34BF012000205DF808FB00BFFE
:104890004DF808EDFFF7E0FF94BF012000205DF820
:1048A00008FB00BF4DF808EDFFF7CEFF94BF0120D5
:1048B00000205DF808FB00BF4DF808EDFFF7C4FFCE
:1048C00034BF012000205DF808FB00BF4FEA410221
:1048D00012F5001215D211D56FF47873B3EB625252
:1048E00012D94FEAC12343F0004343EA505311F079
:1048F000004F23FA02F018BF404270474FF000000B
:10490000704750EA013005D111F0004008BF6FF048
:10491000004070474FF00000704700BF4FEA41026F
:10492000B2F1E04324BFB3F5001CDCF1FE5C0DD90D
:1049300001F0004C4FEAC0024CEA5070B2F1004F57
:1049400040EB830008BF20F00100704711F0804F5A
:1049500021D113F13872BCBF01F00040704741F41F
:1049600080114FEA5252C2F11802C2F1200C10FA23
:104970000CF320FA02F018BF40F001004FEAC12307
:104980004FEAD32303FA0CFC40EA0C0023FA02F3AB
:104990004FEA4303CCE77FEA625307D150EA013381
:1049A0001EBF4FF0FE4040F44000704701F0004051
:1049B00040F0FE4040F40000704700BF034613F88B
:1049C000012B002AFBD1181A0138704709480A49FF
:1049D000884208B505D0094A824202D0121A06F070
:1049E0004DFC0748074A0021121A06F055FC014801
:1049F00008BD00BF4CCC0320F8D30B0008CD03202A
:104A000008CD0320F0E7032070B5074E074C05F0F2
:104A1000C5FFA41BA4080025AC4200D170BD56F808
:104A2000043B98470135F7E7B0D30B00D4D30B0014
:104A300001F0F8B908B502F0BFF8BDE8084005F08C
:104A400065BF05F0E3BB05F0E9BB000008B5034A0C
:104A500003490C2005F03EFBFEE700BF259E0B003E
:104A6000CCB40B000078B0FA80F040097047012305
:104A700003707047084A00231370084A1370084AED
:104A80001370084A4FF0FF311160074A032111608B
:104A9000064A1360704700BF15CD032024CD0320C4
:104AA00014CD032074CC032078CC03203CDA0320FF
:104AB00070B505460C46164642B90368C9B29B68F4
:104AC00098472846BDE8704005F03BBE00290ADA49
:104AD0000A2A08D12D2105F031FE6142F2B22846A2
:104AE00005F045FEEDE72146F8E70EB403B503AB4C
:104AF000002153F8042B019305F057FE02B05DF836
:104B000004EB03B070470EB403B503AB012153F8B7
:104B1000042B019305F049FE02B05DF804EB03B0ED
:104B2000704707B5014601A804F0EEFA01A804F0A9
:104B3000EDFA09288CBF0020012003B05DF804FBCA
:104B400007B5014601A804F0DFFA01A804F0DEFA77
:104B50000A28D4BF0020012003B05DF804FB02281E
:104B600008B50BD004280BD060B9132006F0ABFABF
:104B7000B0F57A7FB4BF0020012008BD1120F5E711
:104B80000F20F3E70020F8E7022808B50BD004282F
:104B90000BD060B9132006F096FAB0F57A7FCCBF3F
:104BA0000020012008BD1120F5E70F20F3E70020C9
:104BB000F8E70000022810B519D0042819D0D0B9A0
:104BC000132006F080FA044606F00AF80A2221466D
:104BD000FFF76EFFB4F5C86F084AA4BF2023136027
:104BE0001368002B07DD013B1360012010BD11206D
:104BF000E7E70F20E5E70020F8E700BF4CDA0320E5
:104C000008B580B206F05FFAB0F52F7FCCBF002068
:104C1000012008BD07B580B20021019006F016FA08
:104C2000019806F03DFA431E5842584103B05DF822
:104C300004FB07B580B20021019006F007FA019845
:104C400006F02EFAB0FA80F0400903B05DF804FBDC
:104C5000022807B530D0042830D018B9132006F048
:104C600032FA0190DDED017AF8EEE77A17EE900A5C
:104C7000FFF73AFB14A3D3E90023FFF78DFB14A33E
:104C8000D3E90023FFF7B2FCFFF748FEDFED0C7A13
:104C900007EE100A67EE277AF1EE046A87EEA67A2D
:104CA000DFED087AB4EEE77AF1EE10FA94BF012056
:104CB000002003B05DF804FB1120D0E70F20CEE701
:104CC000000096430000B4436666666666660A4066
:104CD0000000000000F88F40022807B530D00428FB
:104CE00030D018B9132006F0EEF90190DDED017A0D
:104CF000F8EEE77A17EE900AFFF7F6FA14A3D3E975
:104D00000023FFF749FB14A3D3E90023FFF76EFC50
:104D1000FFF704FEDFED0C7A07EE100A67EE277A44
:104D2000F1EE046A87EEA67ADFED087AB4EEE77A50
:104D3000F1EE10FAACBF0120002003B05DF804FBD7
:104D40001120D0E70F20CEE7000096430000B443C7
:104D50006666666666660A400000000000F88F40DE
:104D600038B584B2651C00212046ADB206F06EF95C
:104D70002846002106F06AF9204606F091F930B97C
:104D8000284606F08DF9431E5842584138BD002090
:104D9000FCE738B584B2651CADB20021284606F0A8
:104DA00055F92046002106F051F9284606F078F919
:104DB00030B9204606F074F9431E5842584138BDB8
:104DC0000020FCE738B584B2651C00212046ADB256
:104DD00006F03CF92846002106F038F9204606F096
:104DE0005FF930B9284606F05BF9B0FA80F0400967
:104DF00038BD0020FCE738B584B2651C0021204690
:104E0000ADB206F023F90021284606F01FF920462E
:104E100006F046F9012806D1284606F041F9431E5E
:104E20005842584138BD0020FCE7022810B512D086
:104E3000042812D018B9132006F045F9044605F0ED
:104E4000CFFE0A222146FFF733FEB4F5FA6FACBF5E
:104E50000020012010BD1120EEE70F20ECE7022812
:104E600008B50DD004280DD018B9132006F02BF981
:104E7000034640F6C4108342D4BF0020012008BD81
:104E80001120F3E70F20F1E730B52DED028B87B04D
:104E9000C1B206230B2201A804F05CF901A804F0BA
:104EA00060F901A804F01AFAB5EE400AF1EE10FA22
:104EB000B4EE400A0CBF01240024F1EE10FA68BFE2
:104EC00044F00104B0EE408A002CEAD105F088FEDF
:104ED000054618EE100AFFF707FA02460B46284669
:104EE0000A49FFF710FEB5EEC08AF1EE10FA08DDB0
:104EF000F2EE007AB4EEE78AF1EE10FA4CBF01242C
:104F00000024204607B0BDEC028B30BDE1B40B009D
:104F100010B52DED028B86B0C1B206230B2201A87D
:104F200004F018F901A804F01CF901A804F0D6F95E
:104F3000B4EE400AF1EE10FAB0EE408AF5D6B5EEC6
:104F4000400AF1EE10FAF0D005F04AFE044618EEE1
:104F5000100AFFF7C9F902460B4620460C49FFF735
:104F6000D2FDF1EE0C7AB4EEE78AF1EE10FA04DC31
:104F7000002006B0BDEC028B10BDF3EE0A7AB4EE51
:104F8000E78AF1EE10FA4CBF01200020F1E700BFE4
:104F9000E1B40B0030B52DED028B87B0C1B2062312
:104FA0000B2201A804F0D6F801A804F0DAF801A851
:104FB00004F094F9B5EE400AF1EE10FAB4EE400AAE
:104FC0000CBF01240024F1EE10FA68BF44F0010484
:104FD000B0EE408A002CEAD105F002FE054618EE3C
:104FE000100AFFF781F902460B4628460B49FFF7E6
:104FF0008AFDF3EE097AB4EEE78AF1EE10FA08DDE5
:10500000DFED077AB4EEE78AF1EE10FA4CBF012427
:105010000024204607B0BDEC028B30BDE1B40B008C
:105020000000484207B5014601A804F06DF801A848
:1050300004F06CF803B05DF804FB000008B5132021
:1050400006F041F807EE900AF8EEE77AF1EE046A0E
:1050500067EEA67A9FED076A87EE867ADFED067A1D
:1050600067EE277A87EEA67AFDEEC77A17EE900AEA
:1050700008BD00BF00C07F4400009643132006F027
:1050800022B80000000000002DE9F04104F0D2FE3B
:105090004FF480650746002604F0CCFEC01B312883
:1050A00018D8132006F00FF8044605F099FD0A22DF
:1050B0008046214605F05BFB404605F042FBB4F517
:1050C000806FE9D2A64203D3A54228BF2546E3E775
:1050D0002646E1E7701BFFF7E5F89FED094B9FEDD2
:1050E0000A3B9FED0B2B9FED0C1B41EC100B05F0C9
:1050F0009FFB51EC100BFFF7E9FBBDE8F08100BF0F
:1051000000000000008056400000000000C0484041
:105110000000000000208C4000000000000034402F
:105120007FB5C1B206230B2201A804F013F801A831
:1051300004F017F801A804F0D1F8B5EE400AF1EE3A
:1051400010FAF7D0B4EE400AF1EE10FAF2D6FDEE06
:10515000C07A17EE900A07B05DF804FB022805D06C
:10516000042805D030B9132005F0ADBF1120FBE7AE
:105170000F20F9E70020704708B50346013B1046B1
:105180000B2B5FD8DFE803F0060B141D222B064023
:105190004653575BA1BBBDE80840FFF7C2BC19B935
:1051A000BDE80840FFF7F0BCBDE80840FFF7D7BCFA
:1051B00019B9BDE80840FFF723BDBDE80840FFF777
:1051C000F9BC19BBBDE80840FFF733BD19B9BDE80C
:1051D0000840FFF781BDBDE80840FFF739BD012950
:1051E00006D0022908D059B9BDE80840FFF74CBEE7
:1051F000BDE80840FFF78CBEBDE80840FFF7CABE17
:10520000BDE80840FFF79CBC0029DBD1BDE80840A1
:10521000FFF700BD012906D003290CD039B9BDE83C
:105220000840FFF7E8BDBDE80840FFF799BDBDE8BD
:105230000840FFF7AEBDBDE80840FFF7C3BD41B170
:1052400001290AD005F0CCFC064905F086FA0020B9
:1052500008BDBDE80840FFF7E8BDBDE80840FFF71E
:10526000FEBD00BFEAB40B0008B50346023B08468A
:105270000A2B1FD8DFE803F0060A1E0E12161E1EA8
:105280001E1E1A00BDE80840FFF7F8BEBDE8084042
:10529000FFF7FABEBDE80840FFF7D0BEBDE8084002
:1052A000FFF73EBFBDE80840FFF7BCBEBDE80840C1
:1052B000FFF754BF05F094FC024905F04EFA4FF099
:1052C000FF3008BDEAB40B0007B500230448009383
:1052D0001A46194604F0DCFC03B05DF804FB00BF7D
:1052E000ECD6032007B5002304480093FF2219469B
:1052F00004F0CEFC03B05DF804FB00BFECD6032045
:1053000007B50A23002200930348FF23114604F047
:10531000BFFC03B05DF804FBECD6032007B5FF2308
:105320000093002303481A46194604F0B1FC03B069
:105330005DF804FBECD6032007B50021044800917A
:10534000E923FF2204F0A4FC03B05DF804FB00BFD6
:10535000ECD6032007B575230093044846236C223E
:10536000002104F095FC03B05DF804FBECD60320AB
:1053700007B50021044800918023FF2204F088FC37
:1053800003B05DF804FB00BFECD6032007B5FF2394
:10539000044800931A46002104F07AFC03B05DF83B
:1053A00004FB00BFECD6032010B5114C2368052B7D
:1053B00009D8DFE803F0030D10131619FFF792FF69
:1053C000236801332360BDE81040962005F073BACE
:1053D000FFF7CEFFF4E7FFF7AFFFF1E7FFF790FF2E
:1053E000EEE7FFF7B7FFEBE7FFF798FF0023E9E7EA
:1053F00044D3032008B50121062005F038FE012121
:10540000062005F034FE0121072005F030FEBDE83E
:1054100008400121072005F02ABE08B5002106201A
:1054200005F025FE0021062005F021FE00210720C1
:1054300005F01DFEBDE808400021072005F017BE5D
:1054400008B5FFF7D7FF642005F035FAFFF7E5FF51
:10545000BDE80840642005F02EBA08B1FFF75EBF32
:10546000FFF786BF08B1FFF767BFFFF773BF08B14B
:10547000FFF746BFFFF736BF08B560B1FFF786FFFD
:105480004FF4C87005F017FAFFF71EFFBDE808409B
:10549000C82005F010BABDE80840FFF715BF08B1F5
:1054A000FFF774BFFFF710BF08B1FFF77DBFFFF72D
:1054B0000BBF08B1FFF7C4BFFFF7AFBF08B1FFF7DD
:1054C00099BFFFF7AABF0000012838B50D46144662
:1054D00027D00D283BD048BB052927D8DFE801F0AD
:1054E00003080D12171CBDE838401046FFF7BFBF78
:1054F000BDE838401046FFF7B5BFBDE8384010465C
:10550000FFF7ABBFBDE838401046FFF7B5BFBDE8B9
:1055100038401046FFF7C8BFBDE838401046FFF7D7
:10552000BEBFFFF7D1FE45B1012D0BD005F058FBF2
:10553000BDE838400F4905F010B92046BDE83840B5
:10554000FFF7BCBF2046BDE83840FFF7B2BFFFF70A
:1055500064FFFFF7B9FE0121112005F077FD34B19A
:1055600028223221BDE83840112005F0C3BD224673
:105570002146F7E7FDB40B0008B5FFF707FF4FF42E
:10558000C87005F098F9FFF79FFEBDE80840C820F5
:1055900005F091B913B584B22046012105F067FDED
:1055A0002046012105F063FD601C80B201210190BD
:1055B00005F05DFD0198012102B0BDE8104005F045
:1055C00056BD13B584B22046002105F050FD20469B
:1055D000002105F04CFD601C80B20021019005F017
:1055E00046FD0198002102B0BDE8104005F03FBD26
:1055F00010B50446FFF7CEFF642005F05CF92046A5
:10560000FFF7DFFFBDE81040642005F054B900004B
:1056100008B5072825D8DFE800F004080C10141896
:105620001C20BDE80840FFF76BBEBDE80840FFF74F
:1056300059BEBDE80840FFF77FBEBDE80840FFF750
:1056400089BEBDE80840FFF769BEBDE80840FFF726
:105650008FBEBDE80840FFF78FBFBDE80840FFF7E9
:10566000A3BE05F0BDFABDE80840014905F075B8D4
:105670000DB50B0038B50C4605460121A0B205F06A
:10568000E5FC45B1012D0BD005F0AAFABDE8384084
:10569000064905F062B82046BDE83840FFF77ABFFA
:1056A0002046BDE83840FFF7A3BF00BFFDB40B00A4
:1056B00037B50C460546FFF7B0FEFFF705FE042C94
:1056C0009ABF0D4B1B574FF0FF3398B20121019049
:1056D00005F0BCFC012D07D832220198114603B019
:1056E000BDE8304005F006BD05F07AFA034903B085
:1056F000BDE8304005F031B8E0BF0B00FDB40B0051
:10570000042807B59ABF084B18564FF0FF3080B2F7
:105710000121019005F09AFC00220198114603B086
:105720005DF804EB05F0E6BCE0BF0B0038B50C46B5
:10573000054618B9BDE83840FFF7C6BD0021A0B244
:1057400005F095FC0D2D04D12046BDE83840FFF74B
:10575000D7BF38BD0346012B0846114604DC0BB900
:10576000FFF756BFFFF786BF0D2B01D1FFF7A0BF94
:105770007047000001280BD002280BD088B9094BD4
:105780001860C3F84401084B1860084B1860704754
:10579000FFF770B9064A00231360064A1370064AE1
:1057A0001360704728CD03202CDA032024DA03206D
:1057B00034DA032000D3032038DC03200E4A1368B8
:1057C000013B13600D4A52F823108A1C0C4A07D182
:1057D000012111700B4A52F823200B4B1A607047BD
:1057E000013102D100231370704713781BB1064AB0
:1057F0001368013B1360704734DA032004D7032099
:1058000000D30320BCD3032038DC032008B50728CD
:1058100016D8DFE800F00407090B0D0F11130C4B2D
:10582000186808BD0B4BFBE70B4BF9E70B4BF7E791
:105830000B4BF5E70B4BF3E70B4BF1E70B4BEFE7AC
:1058400005F0CEF90A4904F088FF4FF0FF30E8E791
:105850004CCC032060CC03205CCC032054CC032030
:1058600068CC032058CC032064CC032050CC032008
:105870001CB50B00022808B503D8064B33F91000FD
:1058800008BD05F0ADF9044904F067FF4FF0FF30A3
:10589000F6E700BFE6BF0B002BB50B0010B50446C2
:1058A000072919D8DFE801F0040A0C0E10121416AB
:1058B0000A49204604F083FE204610BD0849F8E757
:1058C0000849F6E70849F4E70849F2E70849F0E72C
:1058D0000849EEE70849ECE70849EAE788B90B0010
:1058E0003AB50B003DB50B0040B50B0043B50B00BE
:1058F00047B50B004AB50B0046BB0B001CB50B00AF
:10590000012910B5044607D0022907D041B905493D
:1059100004F055FE204610BD0349F9E70349F7E7B7
:105920000349F5E74DB50B0050B50B0053B50B001F
:105930002BB50B0013B50C46FFF768FF019020460E
:10594000FFF798FF019900220446062005F072F93E
:10595000204604F0B0FF062005F083F91E2002B0B7
:10596000BDE8104004F0A7BF10B50D4B1A680D4BF1
:105970004FF43B714A4399581344002291420DDD84
:105980005C68844203F1100306D105F029F9064949
:1059900004F0E3FE002010BD0132EFE70120FAE73A
:1059A00074CC032028CD032056B50B00F0B5114B65
:1059B000114A1E68944600239E4217DB176815465D
:1059C00000218F420EDD6C68844205F1100507D17D
:1059D0004FF43B72534303EB011363441869F0BD6A
:1059E0000131EEE7013302F53B72E5E74FF0FF309E
:1059F000F5E700BF74CC032028CD03202DE9F0414A
:105A0000194D1A4BD5F844E11F6884462B460024F3
:105A1000A74223DB10D1D3F844811A460026B045B3
:105A20000ADDD2F84C01604503D1D2F84801884222
:105A300017D001361432F2E7012F0BD12E46002287
:105A4000964507DDD6F84801884206F1140608D0CD
:105A50000132F5E7013403F53B73D9E70120BDE8D6
:105A6000F0810020FBE700BF28CD032074CC032089
:105A7000F0B5134B134A1E68944600239E421BDB6D
:105A8000D2F84471154600218F4211DDD5F8484106
:105A9000844205F1140509D14FF43B72534314229B
:105AA00002FB01336344D3F85401F0BD0131EBE74D
:105AB000013302F53B72E1E74FF0FF30F5E700BF3D
:105AC00074CC032028CD032030B50C4B4FF43B722F
:105AD00002FB01310022D1F844411346944208DD13
:105AE000D1F84851854201D12BB90123013214313B
:105AF000F4E7002030BD1846FCE700BF28CD0320A6
:105B000084B0F8B506AC84E80F00DDE907010A9A15
:105B1000FFF732FB06AD0446BCAF0126069BB3423D
:105B200012DDD5E905012A6AFFF726FB17F8013BCC
:105B300033B1002C08BF0020013610350446EDE7D4
:105B4000002C18BF2046F7E72046BDE8F84004B017
:105B5000704700002DE9F743164C4FF43B7303FBED
:105B6000014407460D460026A146D9F84431B34208
:105B70001CDD94F85831D4F84881D4F85421BB4244
:105B800007D1D4F84C114046FFF7E4FD0136143438
:105B9000EBE7294640460192FFF796FF019A00285D
:105BA000F4D111464046FFF7C1FDEFE703B0BDE871
:105BB000F08300BF28CD032030B503782D2B0CBF18
:105BC00001220022134603440A24002013F8011B7B
:105BD0003039CDB2092D02D804FB0010F6E702B12E
:105BE000404230BD38B514460D4605F0A3FB043CD9
:105BF00040B1FFF7E1FF294644F8040F002005F00B
:105C000099FBF5E738BD000037B58DF807200DF199
:105C100007030A4601460D480D4D03F0D1F801284F
:105C2000287010D004F0DCFF0A4904F083FD04F072
:105C3000D7FF29780446054802F016FE01462046A3
:105C400004F08BFD002003B030BD00BFF4D603206C
:105C500034DC032086B50B00F0B58DB01E4D1F4A15
:105C600000951F4B12781F4F06466021284603F00F
:105C7000C8F8012838700FD004F0B2FF1A4904F0B8
:105C800059FD04F0ADFF39780446284602F0ECFDDA
:105C90000146204604F061FD144B1222187807A932
:105CA000FFF7B2FFB0B107AC0FCC03AD0FC523684F
:105CB0002B8004F095FF0E4903AAFEF724FF0D493F
:105CC000324603A8FFF78EFF034803F054F802485A
:105CD00002F0B1FE0DB0F0BDF4D6032098CC032045
:105CE000E5D6032034DC03209DB50B006CCC0320EB
:105CF000B9B50B006DCC032010B540B9324B1C6810
:105D0000052C58D8DFE804F0051322323D482F4B0C
:105D1000F5E704F065FF2E4904F00CFD2A4A1368EC
:105D2000013313602B4A1368013313601CE004F045
:105D300057FF294904F0FEFC234A1368013313601E
:105D4000244A13680133136002240DE004F048FF75
:105D5000224904F0EFFC1C4B4FF0FF321A601D4A41
:105D60001368013313600424204610BD04F038FF8B
:105D70001B4904F0DFFC154A136801331360194A0C
:105D8000DFE704F02DFF184904F0D4FC0F4A136834
:105D900001331360134AC6E704F022FF134904F0ED
:105DA000C9FC0A4B4FF0FF321A600E4A13680133E8
:105DB00013600624D8E704F013FF0D4904F0BAFC81
:105DC0004FF0FF34D0E700BF3CDA032078CC03204B
:105DD000C5B50B0040DA0320DCB50B00F3B50B00B2
:105DE0000AB60B0044DA032021B60B0038B60B00CC
:105DF0004FB60B0010B5094A0949136823B908606A
:105E000001231360086810BD0C68844203D1052B80
:105E100001DC0133F5E7013BF3E700BFACE603200B
:105E200094CC032070B58AB0002407A8CDE90744BC
:105E3000ADF8244004F0E4FD4348234622462146C1
:105E40004068424C04F09AF904F0CAFE4FF416512F
:105E500004F0BAFE2178BFF35B8F11F001010BD182
:105E600020460591FEF7FEFD059928B1384804F05B
:105E700051FA2046FEF7FBFD3548364C012504F06B
:105E800053FA2B463C2202213348009503F0A2FB33
:105E9000314803F091FB304803F0F6FD2F4802F043
:105EA0002EFE2F4AFF21117051709170D170117127
:105EB000517105F07DF9002003F0CCFFFF28207020
:105EC0000DD104F08DFE0026264904F046FC267014
:105ED00005F06EF92A462146304603F0C3FF2478C8
:105EE00054BB0121062005F0B1F81F4803F018FF4C
:105EF0001E4B01221A701E4A1368013313604FF4BF
:105F00003B711C4A4B43D118D450C1F84441402343
:105F10000122CDE9013200228023114600930E4870
:105F2000154B02F041FA0C4803F0AEFD03F082FF7E
:105F3000124B18600AB070BD012CE8D00121062078
:105F400005F084F8E3E700BF10E7032008CD032045
:105F50000CCD032016CD03204CD30320F4D6032010
:105F6000E5D6032077B60B00ECD60320E4D6032059
:105F700074CC032028CD0320ECBF0B0030DC0320C1
:105F8000052370B51A460421A948AA4DAA4E03F06C
:105F900015FEAA4BAA4800241C60C3F84441C3F86C
:105FA000EC42C3F830444FF0FF3103F011FAA54939
:105FB000A54804F004FBA349A44804F000FBA4494D
:105FC000A44804F0FCFAA449A44804F0F8FAA4494F
:105FD000A44804F0F4FAA449A44804F0F0FAA4494F
:105FE000A44804F0ECFAA449A44804F0E8FAA4494F
:105FF000A44804F0E4FAA449A44804F0E0FAA4494F
:10600000A44804F0DCFAA449A44804F0D8FAA4494E
:10601000A44804F0D4FAA449A44804F0D0FAA4494E
:10602000A44804F0CCFAA449A44804F0C8FA824970
:10603000A34804F0C4FA8049A24804F0C0FAA24977
:10604000A24804F0BCFAA249A24804F0B8FAA24956
:10605000A24804F0B4FAA249A24804F0B0FAA24956
:10606000A24804F0ACFAA249A24804F0A8FAA24956
:10607000A24804F0A4FAA249A24804F0A0FAA24956
:10608000A24804F09CFAA249A24804F098FAA24956
:10609000A24804F094FAA249A24804F090FAA24956
:1060A000A24804F08CFAA249A24804F088FAA24956
:1060B000A24804F084FAA249A24804F080FAA24956
:1060C000A24804F07CFAA249A24804F078FAA24956
:1060D000A24804F074FAA249A24804F070FAA24956
:1060E000A24804F06CFAA249A24804F068FAA24956
:1060F000A24804F064FAA249A24804F060FAA24956
:10610000A24804F05CFAA249A24804F058FAA24955
:10611000A24804F054FAA249A24804F050FAA24955
:10612000A24804F04CFAA249A24804F048FAA24955
:10613000A24804F044FAA249A24804F040FAA24955
:10614000A24804F03CFAA249A24804F038FAA24955
:10615000A24804F034FAA249A24804F030FAA24955
:10616000A24804F02CFAA249A24804F028FAA24955
:10617000A24804F024FAA249A24804F020FAA24955
:10618000A24804F01CFAA249A24804F018FAA24955
:10619000A24804F014FAA249A24804F010FAA24955
:1061A000A24804F00CFAA249A24804F008FAA24955
:1061B000A24804F004FAA249A24804F000FAA24955
:1061C000A24804F0FCF9A249A24804F0F8F9A24957
:1061D000A24804F0F4F9A249A24804F0F0F9A24957
:1061E000A24804F0ECF9A249A24804F0E8F9A24957
:1061F000A24804F0E4F9A249A24804F0E0F9A24957
:10620000A24804F0DCF9A249A24804F0D8F9A24956
:10621000A24804F0D4F9A249A24804F0D0F9A24956
:10622000A24804F0CCF9A249A24804F0C8F943E11D
:10623000ECD603208CDC032076B60B0028CD03209F
:106240004CD30320DEBF0B009CD30320ACD3032030
:10625000F0B60B007CE3032004B70B008CE30320B3
:1062600034B80B009CE3032084B60B00ACE303209E
:106270008AB60B00BCE3032091B60B00CCE30320ED
:1062800098B60B00DCE30320A0B60B00ECE3032080
:10629000A8B60B00FCE30320B0B60B000CE403200F
:1062A000B8B60B001CE40320C0B60B002CE403209E
:1062B000C8B60B003CE40320D0B60B004CE403202E
:1062C0005CE403206CE40320D8B60B00BCE103209F
:1062D000E2B60B00CCE10320ECB60B00DCE10320BE
:1062E000F6B60B00ECE1032000B70B00FCE1032045
:1062F0000AB70B000CE2032014B70B001CE20320CA
:106300001EB70B002CE2032028B70B003CE2032051
:1063100032B70B004CE203203CB70B005CE20320D9
:1063200046B70B006CE2032050B70B007CE2032061
:106330005AB70B008CE2032064B70B009CE20320E9
:106340006EB70B00ACE2032078B70B00BCE2032071
:1063500082B70B00CCE203208CB70B00DCE20320F9
:1063600096B70B00ECE20320A0B70B00FCE2032081
:10637000AAB70B000CE30320B4B70B001CE3032007
:10638000BCB60B002CE30320BEB70B003CE303209C
:10639000C4B70B004CE30320CCB60B005CE3032036
:1063A000D4B60B006CE30320CAB70B007CE40320D7
:1063B000D2B70B008CE40320DAB70B009CE4032077
:1063C000E2B70B00ACE40320EAB70B00BCE4032007
:1063D000F2B70B00CCE40320FAB70B00DCE4032097
:1063E00002B80B00ECE403200AB80B00FCE4032025
:1063F00012B80B000CE503201AB80B001CE50320B3
:1064000022B80B002CE503202AB80B003CE5032042
:1064100032B80B004CE503203AB80B005CE50320D2
:1064200042B80B006CE503204AB80B007CE5032062
:1064300052B80B008CE503205AB80B009CE50320F2
:1064400062B80B00ACE503206AB80B00BCE5032082
:1064500072B80B00CCE503207AB80B00DCE5032012
:1064600082B80B00ECE503208AB80B00FCE50320A2
:1064700090B80B000CE6032096B80B001CE6032036
:106480009CB80B002CE60320A2B80B003CE60320CE
:10649000A8B80B004CE60320AEB80B005CE6032066
:1064A000B4B80B006CE60320BAB80B007CE60320FE
:1064B000C0B80B008CE603202D492E4804F07FF86D
:1064C0002D492E4804F07BF82D492E4804F077F82A
:1064D0002D492E4804F073F82D492E4804F06FF82A
:1064E0002D492E4804F06BF82D492E4804F067F82A
:1064F0002D492E4804F063F81D492D4804F05FF83B
:106500002C492D4804F05BF82C492D4804F057F82D
:106510002C492D4804F053F82C492D4804F04FF82D
:106520002C492D4804F04BF828193146103404F05A
:1065300046F8B4F5966FF7D12848294D0C4E08223D
:10654000102102F07AF9002428193146103404F0A1
:1065500036F8B4F5F07FF7D1224B0022C3E90022D0
:10656000A2F580329A60BDE87040022003F0BABD07
:1065700076B60B009CE60320C6B80B003CE1032076
:10658000CCB80B004CE10320D2B80B005CE1032037
:10659000D8B80B006CE10320DEB80B007CE10320CF
:1065A000E4B80B008CE10320EAB80B009CE1032067
:1065B000ACE10320F0B80B003CDC0320FAB80B0080
:1065C0004CDC032004B90B005CDC03200EB90B008B
:1065D0006CDC032019B90B007CDC0320F4D603200B
:1065E00050DA032018CD03202DE9F041994F88B0EF
:1065F000064638460D46144602F0DEFF00233B6196
:10660000954B01221A7003F015FC944B1860032E71
:1066100016D8DFE816F004002D00F0001601032D57
:106620000ED8DFE805F00207090B8D498D4804F00C
:1066300079FE0EE08C49F9E78C49F7E78C49F5E7DC
:106640008C49884804F06EFE04F0CAFA894904F0C7
:1066500084F804F0C5FA834904F07FF881497D4845
:1066600004F068F87B4808B0BDE8F04103F00CBACC
:10667000062DE5D8DFE805F00437516C90B0BD0079
:10668000214604A803F0BEFF7B4904A804F00DF8DE
:1066900040210268734803F0D1FD04A803F044FFD1
:1066A00014240125322628224FF03C08114669485F
:1066B00033462827CDE90285CDE9004601F08AFD61
:1066C00023462246314663480195009701F0E1FBDD
:1066D0004621CDE90285CDE90071502322465D486F
:1066E00001F078FDB5E7214604A803F08BFF62496D
:1066F00004A803F0DAFF402102685A4803F09EFD27
:1067000004A803F011FF28230120CDE90030142252
:106710001946504801F0BDFB9BE7214604A803F051
:1067200071FF554904A803F0C0FF402102684D489D
:1067300003F084FD04A803F0F7FE64235A2201212C
:10674000CDE90032CDE9023114221E233C21C6E7F7
:10675000214604A803F056FF474904A803F0A5FF0B
:10676000402102683F4803F069FD282401264325A3
:1067700004A803F0D9FE34231422CDE90246CDE962
:10678000004534483C2101F025FDCDE90246CDE924
:10679000004534233C22D9E7214604A803F032FF08
:1067A000354904A803F081FF402102682D4803F019
:1067B00045FD04A803F0B8FE0123009332220F2305
:1067C0003C21244801F0DBFC28230022CDE90032E3
:1067D0000A215A2332229CE72749224804F0A2FDCD
:1067E000012300931B480F2328223C2101F0C7FC02
:1067F0002FE722491AE7062D3FF622AFDFE805F022
:106800000406080A0C1D1F001D490FE71D490DE76E
:106810001D490BE71D4909E71D4904A803F0CFFEF8
:10682000214604A803F035FF402102680D4803F01B
:1068300005FD04A803F078FE0BE71649F6E61649B5
:10684000F4E6002D7FF4FCAE22680648402103F0F8
:10685000F5FCFEE64CD3032025CD032030DC0320DD
:1068600024B90B0001D3032030B90B003EB90B0053
:106870004AB90B0057B90B006DB90B007EB90B007C
:106880008BB90B00ABB90B00CBB90B00E6B90B0011
:10689000FBB90B000EBA0B002CBA0B001FB5244B32
:1068A0009B684BBB022911D0042916D0E1B92149BC
:1068B000684603F084FE6A4603210120FFF794FE38
:1068C000684603F031FE05B05DF804FB19496846DF
:1068D00003F075FE6A460421EFE71649684603F0A7
:1068E0006EFE6A460521E8E71249684603F067FE36
:1068F0006A4603210220E1E704290AD006290FD0C5
:10690000022968460B49F1D103F059FE6A4600217D
:10691000D3E70849684603F052FE6A460121CCE7F6
:106920000449684603F04BFE6A460221C5E700BFF2
:106930007CCC032076B60B0001287FB503D002285B
:106940003CD004B070BD374B1C6874B9FEF792F8A8
:106950003549684603F033FE6A4600210320FFF7FD
:1069600043FE684603F0E0FDEBE7012C1ED1002258
:106970001A602E492E4B0A701C702E4A2E4B2F483F
:106980001C6013680068013304BF032313602C4BA1
:106990001968013104BF062119601168091A1160D4
:1069A00028491A680968521A1A60D1E704F018F9E0
:1069B000254904B0BDE8704003F0CFBE234E244A01
:1069C00034781368234D9CB1296801315B1A6846FD
:1069D0002149136003F0F3FD6A4600210320FFF70D
:1069E00003FE684603F0A0FD002333702B60A8E788
:1069F0001A48591E50F8210002300CD1184850F89E
:106A0000211002315B1A14491360684603F0D7FD68
:106A10006A462146E2E704F0E3F8124903F09DFEDE
:106A20001049F2E774CC03204CBA0B0015CD0320BB
:106A300024CD03203CDA032024DA032040DA0320AB
:106A400078CC032044DA032068BA0B0000D303207B
:106A500034DA032038DC032078BA0B0004D7032093
:106A6000BCD3032092BA0B002DE9FF471E4B1C78C4
:106A700034BBDFF88CA01D4E1D4FDAF80030A34266
:106A80002FDD04F0ADF857F8242056F824301949CA
:106A9000FEF739F857F82400421C05D156F8248037
:106AA000A14600250134E8E7831C04D10135A8453F
:106AB000C8BF4C46F6E756F82410FEF73BFFF1E757
:106AC00004F08EF80C4903F048FE0C49684603F0C8
:106AD00076FD02206A460421FFF786FD684603F032
:106AE00023FD04B0BDE8F08700D30320BCD303200E
:106AF00004D70320A3BA0B00ABBA0B0076B60B0089
:106B000034DA03201FB50446E0B904F069F82149DE
:106B100003F023FE204B21491C70684603F04FFD13
:106B20006A4600210320FFF75FFD684603F0FCFC86
:106B300004F03EFB18490122002004B0BDE81040DB
:106B400003F090B9012808D104F04AF8144903F081
:106B500004FE114B13491C70DFE7022808D104F032
:106B60003FF8114903F0F9FD0B4B10491C70D4E7B5
:106B70000328DDD104F034F80D4903F0EEFD064B97
:106B80000C491C70684603F01AFD6A460021204635
:106B9000C9E700BFD1BA0B0016CD0320E7BA0B003E
:106BA00000BB0B0018BB0B0033BB0B0049BB0B0039
:106BB00062BB0B0079BB0B002DE9F04FDFF8E082E0
:106BC00098F80030ADF5477D002B34D003F032F952
:106BD0009C4FDFF89892DFF898A23860D9F800202F
:106BE0003B689B1ADAF80020934203D203F022F9A3
:106BF0003860F3E7944E304602F0DEFC0121304667
:106C000001F015FE00254FF00113C6E904538F4B28
:106C10008F491C78C2A8002C5DD103F0D0FCC2AA19
:106C200021462046FFF7E0FCC2A803F07DFC0023CC
:106C300088F8003033618748874D02F08BF890B1B7
:106C400003F0CEFF854903F075FD824802F053FA48
:106C50008348FFF701F800232B707C4B1B78002B37
:106C600063D1FEF7DAFB2B7823B97E4B1B780BB18F
:106C7000FEF72AFB7C4E3378002B67D003F0DAF85E
:106C8000704B1860794B1B68C01A794B1B6898428F
:106C90005CD36D48774FDFF80C82002404613470B8
:106CA00002F08AFC6848744E02F0EEFE3B68A34294
:106CB0004CDD162C43DC714B22014021D25830466A
:106CC00003F0BCFA3146604803F034FD5E4802F040
:106CD000DBFE0134EAE7012C05D103F070FCC2AA07
:106CE000214628469EE7032CF7D003F068FCC2AA91
:106CF00002212846FFF778FCC2A803F015FC5A4B86
:106D00001D70D9F800203B689B1ADAF800209342E6
:106D100003D203F08FF83860F3E75949C2A803F0B3
:106D20004EFCC2AA022101207CE70220FEF749FCAA
:106D30000420FEF746FC0620FEF743FC93E7172CE1
:106D4000C0D14146304604F0EDFABBE73F4B444C1E
:106D50001F782668002F40F03B81DFF84C81002E21
:106D600000F0A480062E40F01281FEF769FB6668F1
:106D7000012E3FD0022E3FD02EB9A068FFF7C2FEF1
:106D8000404B1B689847236801331CBF4FF0FF330B
:106D90002360D8F80040002C40F306812B78002BAC
:106DA00000F01281384C394D226960680121FEF7EC
:106DB000E3F9374B287019680246D4F84801FEF70A
:106DC00083FB2B78002B00F0ED8032491E4C2A48C3
:106DD00004F0A8FA204602F0EFFB002326492361C5
:106DE000204603F0A7FC20460DF5477DBDE8F04F97
:106DF00002F04ABE2E70C6E7A368012B0FD13846B9
:106E0000FEF7B8FC2449C2A803F0D9FBC2AA394650
:106E10000320FFF7E9FBC2A803F086FBB3E70C49A8
:106E2000C2A803F0CCFBC2AA01213046FFF7DCFB6D
:106E3000C2A803F079FB03F0D3FE184903F08DFCE0
:106E4000A1E700BF48D303204CD3032016CD032075
:106E500076B60B00F4D6032030DA03209DBB0B007E
:106E60007CCC0320E4D6032025CD032030DC032096
:106E700070CC032034DA032001D3032050DA03203E
:106E800093BB0B0048DA032028CD0320B8E603208B
:106E9000DCD603207EBE0B00B0BB0B00CBBB0B00CF
:106EA0006FCC03205EBB0B0024DA0320844FE36821
:106EB000844ED4F804A03B60A368DFF83C923360B2
:106EC000BAF1000F23D103F08BFE7F4903F045FC9C
:106ED0007E4A3368396851601168002B01F1010165
:106EE00018BF022311601361D9F8002078490132DC
:106EF000C9F80020C2A8002B3BD103F060FBC2AA56
:106F000003210120FFF770FBC2A803F00DFBD9F8A5
:106F10000030002B38DDD4F80490B9F1010F7FF474
:106F200032AF03F05DFE6B4903F017FC6A4B226938
:106F30001A6033683A68002B644BC3F84821D3F8D1
:106F400044210CBF022104210132C3F85411C3F8BB
:106F50004421D8F80030022903F101035C49C8F844
:106F60000030C2A80AD103F02AFBC2AA0421484675
:106F70004FE703F024FBC2AA5146C2E703F01FFB10
:106F8000C2AA4946484644E7FEF79EF9FBE60136A9
:106F90003FF4F9AE4E49C2A803F011FBC2AA39462C
:106FA000022036E74D4911E70ED12B7863B14849ED
:106FB000C2A803F004FBC2AA04210220FFF714FBBD
:106FC000C2A803F0B1FA2C700DF5477DBDE8F08F33
:106FD000012F40F07083012E55D0062E40F00A8319
:106FE0006668012E28D0022E28D02EB9A068FFF79F
:106FF00089FD3B4B1B6898474FF0FF3323602B788C
:10700000002BE1D0374E3368002B40F002832F4B2A
:10701000D3F84431002B00F3FF823349C2A803F0B8
:10702000CEFAC2AA04210220FFF7DEFAC2A803F0BA
:107030007BFA00232B700BE32E70DDE7A368012B96
:107040000ED1FDF717FDC2A8284903F0B8FAC2AA6D
:1070500000210320FFF7C8FAC2A803F065FACBE7C6
:10706000022B03D13846FFF767FCC5E703F0B8FDF4
:107070001F4903F072FB1649C2A803F0A0FAC2AA86
:1070800039460220E6E70E4FE3683B6003F0A8FDB7
:1070900018490E4EDFF86090DFF86080DFF860A0DE
:1070A000DFF840B003F046FB6368052B6DD8DFE8DE
:1070B00013F02900D00008023E026F028A0200BFCE
:1070C000E0D60320B0E60320EFBB0B0028CD032061
:1070D00076B60B0000BC0B00DCD603208DBE0B0087
:1070E00048DA032074CC032093BE0B00B0BB0B0026
:1070F000CBBB0B0013BC0B002CDA032024DA0320DB
:1071000028DA0320DFF8B48203F06AFD994903F01E
:1071100024FB98F80030002B5FD0D9F80020DAF873
:1071200000309A4276D13868FEF71EFC002851D014
:107130003868DFF89082FEF739FCC8F800000130AB
:107140004FD1A068FEF7D8FD0146C8F80000A0683E
:10715000FFF7A4FBD8F80000421C4FD0DBF80080FA
:10716000D9F800103F684FF43B7202FB08F202EBC3
:10717000011333445F6027691861C3E90278B3588B
:107180000133B3504B1CC9F8003003F029FD7A4994
:1071900003F0E3FA03F024FD784903F0DEFA03F08C
:1071A0001FFD774B77491A684FF43B7303FB026668
:1071B000D6F844310293744B1B680193734B1B68E0
:1071C0000093734B1B68FDF79EFC03F009FD03F071
:1071D000B8FA11E798F80030B3B903F001FD6D4932
:1071E0001BE06D49C2A803F0EAF9C2AA06210120FA
:1071F000FFF7FAF9C2A803F097F9ABE703F0F0FC48
:10720000664903F0AAFAC0E7D9F80020DAF800309E
:107210009A420CD003F0E4FC614903F09EFA5E4907
:10722000C2A803F0CCF90221C2AA08460BE003F081
:10723000D7FC5C4903F091FA5749C2A803F0BFF9A3
:10724000C2AA05210220FFF7CFF9C2A803F06CF90A
:107250009BE703F0C5FC5449DFF86C9103F07DFA1D
:10726000524AD4F810A01378C9F800A0B993002BA3
:1072700073D04F4A396812785046002A69D1FEF718
:10728000BDFB002869D0D8F80020002A65D1084647
:10729000FEF7EEFBDFF82CA1CAF80000013047D161
:1072A000A068FEF729FD0146CAF80000A068FFF7B4
:1072B000F5FADAF800104B1C47D03868DBF800709C
:1072C000D8F800C0D9F800E04FF43B7303FB07F295
:1072D000142303FB0C233344C3E954710127C3E98E
:1072E000520E83F858710CEB0703C8F80030B3183E
:1072F000D3F844213A44C3F8442100287FF445AF31
:10730000C9B2CA190DF542780523D2B2404602F03F
:1073100055FC98E80300DFF8B49089E80300404684
:1073200002F059FC484602F0FBFC224B1F702CE790
:107330001949C2A803F043F9C2AA06210120FFF7A8
:1073400053F9C2A803F0F0F8B3E703F049FC1A4977
:1073500057E7FEF753FB00283AD1184A1278002A63
:107360003FF43BAFB99B002B40F0918003F038FC19
:10737000134952E7EFBB0B00F3BD0B00FBBD0B0045
:1073800074CC032030BE0B0024DA032028DA03205B
:107390002CDA03203FBC0B0076B60B0027BC0B0099
:1073A00052BC0B0087BC0B0000BC0B0024CD03209B
:1073B00014CD0320E4D60320E6B90B0015CD03203D
:1073C00097BC0B0038DA0320DCD60320ECD6032070
:1073D0000846FEF74DFBDFF8D8A3CAF800000130DD
:1073E00048D1A068FEF788FC0146CAF80000A068F2
:1073F000FFF754FADAF80010481CA6D0DBF800C0FA
:107400003868D8F80070D9F800E04FF43B7303FBFC
:107410000CF2142303FB0723334403F5A479C3E9D7
:10742000520EC3E954C1002389F81030B318013754
:10743000D3F84421C8F800700132C3F84421002871
:107440007FF4A3AEC9B24A1CC2AF0523D2B23846FC
:1074500002F0B4FB97E80300DFF8588388E80300E4
:10746000384602F0B8FB404602F05AFCAD4B012210
:107470001A708AE6AC49C2A803F0A1F8C2AA062194
:107480000120FFF7B1F8C2A803F04EF8B2E739685F
:107490005046FEF7B3FA58B903F0A2FBA34903F034
:1074A0005CF9A149C2A803F08AF8C2AA0621C9E67C
:1074B0009F4B1B78002B7FF468AE03F091FB9D4936
:1074C000ABE603F08DFB9C4903F047F9DBF8003095
:1074D0005A1C04D03BBBD8F80020002A23DD974A71
:1074E00001211170964A974900271770904ACAF8EF
:1074F00000701770944AC9F800701760934AC8F872
:107500000070013317604FF43B72CBF800305343E7
:10751000F218F750C2F84471C2A803F050F8C2AA9A
:10752000002103208FE603F05BFB894975E603F039
:1075300057FB884903F011F9804B1B78002B3FF46F
:107540004CAEDAF80030D9F8002093421ADAD8F8B5
:107550000070CFB9DBF80020D4F808804FF43B71FD
:1075600001FB0262B8F1000F1A4414BF012100218F
:1075700003F1010382F8D812CAF800300CBF764933
:107580007649C9E73FF701AE03F02AFB744944E6A8
:1075900003F026FB734903F0E0F8684B1B78002BDF
:1075A0003FF41BAED9F80030002B08DDDAF80020DC
:1075B000934204DD624B6C4901221A70ACE703F080
:1075C0000FFB6A4929E603F00BFB694903F0C5F894
:1075D0005A4B1B78002B3FF400AED8F80030002B3C
:1075E00004DD534B634901221A7095E703F0F8FA62
:1075F000614912E601363FF4FFAC03F0F1FA5F494E
:1076000003F0ABF84849C2A802F0D9FFC2AA002192
:1076100037E5012B7FF401AD594C4FF4377204F17B
:107620001001684603F02AFE94E80F00FEF768FA9E
:10763000544C00212070FEF78DFA2378002B34D0B3
:107640005149524803F06EFE5049514803F085F805
:107650003568012D1FD14A4CD4F83034002B28DD79
:1076600004F53F714FF43772684603F007FE04F5E6
:107670003B730FCBFEF744FA424C29462070FEF7CD
:1076800069FA23789BB14349404803F04BFE3F49D8
:107690003F4803F04FF83E4C204602F0F5F92046F3
:1076A00001F08AFF002323618EE43B49C9E73B498F
:1076B000EAE73B49E8E7022F40F0E081022E00F0C4
:1076C0008480062E40F0A3816068012814D002282F
:1076D00020D028B9A068FFF715FA324B1B689847ED
:1076E0004FF0FF3323602B78002B3FF46DACFFF796
:1076F000BBF900232B7067E42B492870C2A802F065
:107700005EFFC2AA00210320FEF76EFFC2A802F0AE
:107710000BFFE5E7A668002E4ED1FEF74FF8234990
:10772000ECE700BFE4D6032076B60B00ACBC0B0040
:1077300014CD0320BDBC0B00D2BC0B0015CD032023
:1077400024CD0320DFBC0B0040DA032044DA032001
:10775000E2BC0B0034BD0B0084BC0B0045BD0B002C
:1077600049BD0B007BBD0B008ABD0B008FBD0B001C
:10777000AEBD0B00BDBD0B00C2BD0B0053BE0B0068
:1077800028CD0320B8E6032074BE0B0001D30320EC
:107790004CD30320A4BE0B0083BE0B00B3BE0B0072
:1077A000C3BE0B0048DA0320DDBE0B00EBBE0B00AE
:1077B00038DA0320ECD60320012E03D1FDF7DAFFDF
:1077C0009B499BE7FFF7B8F88AE76368012B78D0FD
:1077D000022B00F0BC80002B82D1A168954E964F01
:1077E000BAA8FEF75BF8BAA9C2A802F00BFFE168DD
:1077F000BEA8FEF785F8BEA9C2A802F04AFF8F49CD
:1078000002F053FF0146306807EB001002F0EBFE78
:10781000BEA802F089FEC2A802F086FEBAA802F055
:1078200083FE3368162B45DC1B018548FA5840213E
:1078300002F004FD8249834802F07CFF814802F097
:1078400023F903F0CDF9A1680746BAA8FEF726F898
:10785000BAA9C2A802F0D6FEE168BEA8FEF750F8A9
:10786000BEA9C2A802F015FF01683846FDF74BF922
:10787000BEA802F059FEC2A802F056FEBAA802F055
:1078800053FED4E90201FEF755F833686E4AA16849
:1078900042F823106D4AE16842F823100133336047
:1078A0006B4B1B78002B3FF41BAF6A4A1368013304
:1078B000136015E7172BC4D16749614803F032FD07
:1078C000B8E7634F3B78002B34D15A4EDFF868811C
:1078D00003F086F9614902F040FF3068604908EB27
:1078E000001002F09AFE3368162B1CDC1B01544872
:1078F00058F80320402102F0A1FC5149514802F000
:1079000019FF504802F0C0F833684F4A4FF0FF317A
:1079100042F823104D4A002142F82310013333600E
:1079200001233B70DCE6172BEED14B49444803F0B2
:10793000F9FCE2E703F054F94A4902F00EFF4A4924
:10794000C2A802F03CFE0221C2AA0846DCE6404F73
:107950003B78002B57D0DFF8FC80D8F80030002BA4
:1079600051DD03F03DF94149324EDFF8CC9002F091
:10797000F4FEA1680A220231BEA802F060FEBEA990
:10798000C2A802F03FFE3A49C2A802F08EFE0146AC
:10799000306809EB001002F026FEC2A802F0C4FD18
:1079A000BEA802F0C1FD3368162B25DC1B0124485C
:1079B00059F80320402102F041FC2149214802F0FE
:1079C000B9FE204802F060F833681F4A1F486FF084
:1079D000010142F82310D8F8002040F82320A168C4
:1079E00001329A1A013302313360002340F8221029
:1079F0003B70C8F8003073E6172BE5D116491048E4
:107A000003F090FCD9E703F0EBF81A4995E701364B
:107A10003FF466AE03F0E4F8174902F09EFE124907
:107A2000C2A802F0CCFDC2AA002138466CE600BF15
:107A3000B0BB0B0034DA032050DA03204BBF0B003D
:107A400001D303204CD3032004D70320BCD303204D
:107A500000D3032038DC03205EBB0B0043BF0B00C8
:107A600002BF0B000ABF0B0076B60B003FBF0B0036
:107A700048BF0B004FBF0B0053BE0B00032E764FC9
:107A800058D0062E40F08980FDF7DAFC6668012E9A
:107A900029D0022E29D02EB9A068FFF733F86F4BFA
:107AA0001B68984723683E6801331CBF4FF0FF33C3
:107AB0002360002E40F3BB802B78002B3FF484AA78
:107AC000674B684D19695868FDF7CEFBE36828607D
:107AD000023B0A2B7CD8DFE803F06A6F7B7173A648
:107AE0007B7B7B7BA8002E70DCE7A368012B0FD18A
:107AF0000020FDF73FFE5C49C2A802F060FDC2AA6B
:107B000000210320FEF770FDC2A802F00DFDC9E7B9
:107B10005649C2A802F053FDC2AA01213046FEF721
:107B200063FDC2A802F000FD03F05AF8504902F0CC
:107B300014FEB7E7DFF86CA1E368DFF86C91D4F8C6
:107B40000480CAF80030A368C9F80030B8F1000F0B
:107B5000A8D103F045F8474902F0FFFD404AD9F8A3
:107B60000030DAF8001051601168002B01F10101BA
:107B700018BF0223116013613A683C4901323A6030
:107B8000C2A82BB902F01BFDC2AA31460120B9E7F9
:107B900002F015FDC2AA4146F8E7013682D033490A
:107BA000C2A802F00CFDC2AA00210220AAE73249B5
:107BB000324803F0B7FB0BE03149F9E73149F7E709
:107BC00031492E4803F0AEFB2868FEF713F9286010
:107BD0002E4C03F005F80A222968FCF769FF02F031
:107BE000FFFF2B4902F0B9FD204601F0E5FC002320
:107BF00023612249204602F09DFD264A2B681F483A
:107C0000402102F01BFB244B23612046042100F09D
:107C10000EFE1A49204602F08DFD0121204600F09B
:107C200006FEFFF7E0B81D49C2E71D49C0E77FF433
:107C3000CBA92B78002B3FF4C7A90C49C2A802F0AE
:107C4000BEFCC2AA04210220FEF7CEFCC2A802F0AC
:107C50006BFC2E70FFF7B8B92CDA032048DA03204A
:107C600028CD0320B4E60320B0BB0B0076B60B0092
:107C7000CBBB0B00EFBB0B0071BF0B0001D303208C
:107C800076BF0B008ABF0B009BBF0B004CD30320B9
:107C9000CDBF0B0050BE0B000A001900B1BF0B0096
:107CA000C1BF0B00E0D60320B0E60320704710B53B
:107CB00010210446FCF7C7FE204610BD73B50446EC
:107CC00008462279A36832B1A3B90B4902B0BDE8D6
:107CD000704002F02FBD094A267B094D0949647B9B
:107CE000012E18BF2946CDE900140749FCF7FDFE17
:107CF00002B070BD054AEFE7FDC30B0076B60B007E
:107D0000F9C30B00F5C30B0013C40B00ECC30B004D
:107D10002DE9F04F85B01F46BDF93880BDF83C30E5
:107D2000A8EB0209A7EB010AB9F1000FB8BFC9F12E
:107D30000009BAF1000FB8BFCAF1000AD145834665
:107D40000C46154604DD3A462C4647460D469046FD
:107D5000BC4205DD2A464546904622463C4617462B
:107D60003E1BB2B20092A8EB050282EAE271A1EBDF
:107D7000E271C6F3C03202FA86F64545B4BF01226D
:107D80004FF0FF32019176100292BC421CDCDBF80E
:107D900000200393D145D2F81880C7BF2946224658
:107DA0002A4621465846C047019A039BB61AB1B2EB
:107DB00036B2002E05DA029A1544009A56182DB2F2
:107DC00036B2013424B2E0E705B0BDE8F08F704769
:107DD00010B404682469A4465DF8044B604730B4CD
:107DE0000468BDF808500295A46BA44630BC6047F7
:107DF00030B40468BDF808500295E46BA44630BC6A
:107E0000604770B4BDF90C50BDF810600468CDE94E
:107E10000356246CA44670BC60472DE9F3411C4610
:107E20000368BDF820805B6905461646013C344472
:107E30000F4624B298472B68CDF8048000949C6AC2
:107E400028463B4632463946A0472B68DB6A28461F
:107E500002B0BDE8F04118472DE9F3411D46036823
:107E6000BDF820805B69044617460E469847CDE969
:107E7000007822686B1E3344956A20461BB23A464E
:107E80003146A8472368DB6A204602B0BDE8F041CE
:107E900018472DE9F3471E460368BDF928905B6932
:107EA000BDF82C800C460546174698472644B44238
:107EB0002B680BDACDF80080D3F820A021464B4682
:107EC0003A4628460134D04724B2F0E7DB6A284618
:107ED00002B0BDE8F047184713B502680191B0F948
:107EE0000E100091146CB0F90C3000221146A0471E
:107EF00002B010BD2DE9F74399421646BDF928702E
:107F0000BDF82C90026880460D461C4613D1BE4237
:107F1000C8BF3346CDF82890C4BF3E461F467B1CE1
:107F2000946B9B1B1BB2324629464046A44603B0C5
:107F3000BDE8F0436047BE420AD19942C2BF0B463A
:107F400025461C46631CCDF82890D46B5B1BE9E7E3
:107F500053699847CDE90079D8F8003040469F6AC8
:107F6000324623462946B847D8F80030DB6A4046F7
:107F700003B0BDE8F04318472DE9F3471D460368F9
:107F8000BDF82C805B69BDF9289004460F46164663
:107F900098472368CDF80080D3F824A032462B46BA
:107FA00039462046D0472368CDF8008009F1FF32DA
:107FB0003244D3F824A039462B46204612B2D0478B
:107FC0002368CDF80080D3F820A032464B463946CE
:107FD0002046D0476B1ED9192368CDF800801D6A52
:107FE00020464B46324609B2A8472368DB6A204642
:107FF00002B0BDE8F0471847704701F00303B0F93D
:108000000A208376C907B0F9083059BF8381C2813D
:108010008281C3817047000030B54281C281074A26
:10802000074D0181002481814FF0FF31C0E9051225
:108030004460056004610477046230BD0101000101
:1080400038C90B002DE9F04F8BB01C46BDF85830F5
:108050000493A3B2C3F10105C3EBC3335B001BB2AE
:108060000793BDF9543001339BB2059393B2069345
:108070008846059B9DF8501003930023029301F05E
:1080800001030893DDF818A001F0020383462DB226
:108090000993029BA3426FDA002D6BDB079B02332F
:1080A000661E1AB215FA83F536B207922DB2029FF8
:1080B00001371FFA87F93BB205EB490501359E42AE
:1080C00002932DB229DB089B93B104980090DBF852
:1080D00000000699059B006AB2B203EB42038A1ABC
:1080E00009EB080107461BB212B209B25846B8475D
:1080F000099B93B106990498059B0090B2B2DBF8F6
:10810000000003EB42038A1AA8EB09011BB2D0F866
:10811000209012B209B25846C847B44220D0089BFA
:1081200073B1DBF80030049A009208EB0401D3F835
:108130002090BDF90C300FFA8AF209B25846C847B0
:10814000099B6BB1DBF80030049A0092A8EB0401A4
:108150000FFA8AF21C6ABDF90C3009B25846A047E2
:108160000AF1FF331FFA83FA039B02339BB2039396
:1081700034468EE726469AE70BB0BDE8F08F2DE92E
:10818000F0411E4686B00368059104465B69BDF860
:10819000307015469847B2B22068009753000133FB
:1081A000AA1AD0F82080059920461BB212B2C04707
:1081B00003230022CDE90032204633460599029779
:1081C0002A46FFF73FFF2368DB6A204606B0BDE87A
:1081D000F04118472DE9F04F8DB01D46BDF95860AC
:1081E000BDF86430BDF95C80BDF960700493B242A3
:1081F00083468946144640F3CE80BA4217DDB74223
:108200000FDA33463E4627461C462B464546C846AF
:1082100099460CE0234634461E464B46A9461D4669
:10822000EDE723463C461F464B46C1469846DBF8E1
:10823000003058465B699847BE4222D14D45C2BFC7
:108240002B464D469946454505DCC145B8BFC1465C
:108250000FFA89F9A846DBF800200499009109F18A
:108260000103A3EB0803546A1BB232464146584649
:10827000A047DBF80030DB6A58460DB0BDE8F04F90
:1082800018471FFA89F30393ABB20293DDE9022387
:108290009B1A1BB21FFA86FC0893A3B2A3EB0C0235
:1082A00012B20992029A1FFA88F1A1EB0208BAB23F
:1082B000A2EB0C0C0FFA8CF006900398BC42A2EBD8
:1082C0000302A1EB000118BF03F1FF3312B209B2A0
:1082D00018BF1BB24FF000090A920FFA88F80791F5
:1082E00014BF059305943246CA46059B9A4224DC86
:1082F000099B02989AFBF3F1029B0B921944069B8F
:1083000099FBF3F30344089809B21BB299428244E3
:1083100004980090C8BF8C46DBF80000C4BF194623
:108320006346406A01335B1A05461BB25846A847AC
:108330000B9A0132C14412B2D7E7079B141B961B5C
:108340005C4308FB06F6BA4293DC0A9B029894FB56
:10835000F3F1039B05921944069B96FBF3F3034448
:1083600009B21BB299420798C8BF8C460444C8BFE3
:10837000194604980090C8BF6346DBF8000001333B
:108380005B1AD0F824901BB25846C847059A0132B0
:10839000464412B2D7E7BE423FF73CAF33461C46D5
:1083A00016462B460D4633E72DE9F04F89B0CDE94F
:1083B00002120268BDF948800493BDF94C3052693D
:1083C0000593BDF850A00446904718F107024FF0FE
:1083D000000648BF08F10E024FEAE20B019635464F
:1083E000039B019ABDF904109A18059B8B4212B2A7
:1083F00027DD049B33444FF0000906930FFA89F000
:1084000080451FFA89F117DD4F0705BF069BC01095
:108410006D001D5C18BFEDB22B060AD5029B2068CB
:1084200007921944836909B21F4620465346B8474C
:10843000079A09F10109E1E7019B013301935E44C9
:10844000CEE72368DB6A204609B0BDE8F04F184745
:108450002DE9F04F2DED028B91B01646026ABDF862
:1084600074809DF878509DF87C4003911F46BDF8BC
:10847000703004938346002A40F0C580B0F90C3078
:108480008B4240F34C81B0F90E30B34240F3478148
:10849000062313FB0513002B40F3418106EBC403B5
:1084A000002B40F33C81037F1BB9AF2F84BF013702
:1084B000FFB2DBF8003058465B6998470522099205
:1084C00000220592984A07EB8703D3180C93B3B2A6
:1084D0000693059A0C9B9B5C0793ABB20B93BDF87C
:1084E0000C300893039B02FB05F919FA83F90FFA84
:1084F00089F308EE103A08230A93039B02EB030A60
:108500004FF000090FFA8AFA079ADBF80030D20719
:1085100052D5012D1FFA89F23ED1012C3CD19B6925
:1085200006991F46049B0A4412B251465846B84762
:1085300009F101034FFA83F9079B5B0807930A9B34
:10854000013B13F0FF030A93DED1059F01377BB295
:108550000593099B013B13F0FF030993B9D1049BD9
:1085600043450FD0012DDBF800303BD1012C39D130
:108570000899CDF8008005311C6A3246082309B2FB
:108580005846A047DBF80030DB6A584611B0BDEC16
:10859000028BBDE8F04F1847069914FB02F20A441B
:1085A000049901910094DB6918EE101A1F4612B26B
:1085B0002B465846B847BBE7049A4245B8D0012D30
:1085C0001FFA89F207D1012C05D19B6906991F4634
:1085D0000A444346A8E70699CDF8048014FB02F24A
:1085E0000A44DFE70B9ACDF8048002EB8201089A77
:1085F000E4000A4411460094DC6932462B4609B275
:108600005846A047BEE7137A516812680B92FF1ACA
:10861000FFB201EBC70331F8372006929A7809922E
:10862000DA780C92012D93F9052093F906A00A92AD
:1086300001D8012C57D9BDF9283008930FFA8AF3D5
:108640000793DBF8003058465B699847B3B24FF0A8
:1086500000080E931AFA86F3C14647460F930C9B07
:108660009F428FD2079B0E9A3B4403FB04230022B8
:1086700005920F9A1BB202EB070A08EE103A0FFAA6
:108680008AFA4346099A0599914241D25A1CD2B2BC
:108690005B070D9207D1069B06990B9A01339BB29B
:1086A00012F80190069319F0800F12D0012DDBF81B
:1086B0000030BDF80C101AD1012C18D10A9A9B6910
:1086C0001144059A11441E465246049B09B258466D
:1086D000B047059E0136F3B24FEA490905935FFAA8
:1086E00089F90D9BCEE70023CDE90733A9E705986B
:1086F000089A024402FB0511049ACDE90042DB69A5
:1087000018EE102A1E4609B22B465846B047E0E73D
:10871000099B013798445FFA88F8FFB29FE711B0D0
:10872000BDEC028BBDE8F08F30C40B00F0B5026ADF
:1087300085B004460B46002A34D10A2908D1438A61
:108740000282427E03EBC2036382012005B0F0BDCA
:108750000D29FAD0E17E007E657E71B1B4F910601A
:10876000062111FB0061B4F90C60B142C1BFB4F93C
:108770001210228201EBC5026282E28A0192A28A71
:108780000092CDE90205B4F91220B4F91010204688
:10879000FFF75EFE237E228A03EB430302EB4303D3
:1087A0002382D2E70A2907D100230382417E927AED
:1087B000438A01FB0233C7E70D29C6D0157AA942C7
:1087C000C3D3517A9942C0D351685D1BEDB201EB1E
:1087D000C505A87828B3E97819B3E17E267E677EBF
:1087E00091B195F905100844B4F9101006FB001179
:1087F000B4F90C00814207DD00202082B4F9121088
:10880000927A02FB07126282E28A0192A28A0092A5
:10881000CDE90267B4F91220B4F910102046FFF731
:1088200017FE2979227E238A01FB0233B8E701294A
:1088300038BF012101764176704738B504460846B5
:1088400021730121154602F001FC207B012102F079
:108850000EFC28466573012102F0F8FB607B0021C5
:1088600002F005FC204638BD0139C9B208299ABF7B
:10887000024B53F821000248704700BF80CA0B002A
:1088800088C90B0013B50B4C2178BFF35B8F11F037
:1088900001010BD120460191FCF7E4F8019928B1C0
:1088A000054801F037FD2046FCF7E1F8024802B028
:1088B00010BD00BF08CD03200CCD032007B50190EB
:1088C000FFF7E0FF019903B05DF804EB01F0C8BDCC
:1088D0002DE9F74F07469DF830801E461546002AC1
:1088E00042D001F07E01007B41F08009002102F0BE
:1088F000BEFB4846FFF7E2FF013DEDB24FF0000B33
:108900004FF0010A5FFA8BF4A54222D9DCB9B8F125
:10891000000F18D04246D3B2072B61B205D80AFA2D
:1089200002F40C43E4B20132F5E748460191FFF747
:10893000C5FF33780199044023EA01031C433470D6
:108940000BF1010BDEE74846FFF7B8FF06F80B0016
:10895000F6E70020FFF7B2FF7055387B012103B026
:10896000BDE8F04F02F083BB03B0BDE8F08F38B52F
:108970000C4605460021007B04F07E0402F077FBE4
:1089800044F08000FFF79AFF0020FFF797FF0121D6
:108990000446287B02F06BFB204638BDF8B50F4635
:1089A00006460021007B15461C4602F060FB07F0DE
:1089B0007E00FFF783FF2544AC4204D014F8010B7E
:1089C000FFF77CFFF8E7307B0121BDE8F84002F0BB
:1089D0004EBB70B504460E46007B0021154602F0E2
:1089E00046FB06F07E00FFF769FF2846FFF766FFAB
:1089F000207B0121BDE8704002F039BB70B51646FE
:108A000004460D46FFF7B3FF3043C2B22946204665
:108A1000BDE87040FFF7DDBF70B5164604460D4651
:108A2000FFF7A5FF20EA0600C2B229462046BDE8AE
:108A30007040FFF7CEBF08221021FFF7EDBFF8B559
:108A4000044615460F46002202211E46FFF7C1FFCD
:108A500004220A212046FFF7BCFF80221421204671
:108A6000FFF7CCFF2A463B4612212046FFF796FF30
:108A7000032202212046FFF7ACFF41F288350A218C
:108A80002046FFF774FF430705D4013DADB2002D2A
:108A9000F5D104200FE0002202212046FFF799FFC4
:108AA00044212046FFF763FF422130702046FFF744
:108AB0005EFF70700120F8BD10B50F220221044640
:108AC000FFF787FF322001F0F6FE02212046FFF774
:108AD0004EFFC306F9D410BD10B528210446FFF798
:108AE00046FF00F00303032B08D040F00302D2B28C
:108AF00020462821BDE81040FFF76BBF10BD10B520
:108B00000446407B02F0CCFA48BB607B012102F0B6
:108B1000AEFA322001F0CFFE204680225421FFF72A
:108B200058FF2046A9225621FFF753FF2046032273
:108B30005821FFF74EFF2046E8225A21FFF749FF50
:108B4000204640222A21FFF744FF20463D222221D1
:108B5000FFF73FFF2046BDE81040FFF7BDBF2046AE
:108B6000FFF7AAFFD8E72DE9F04F89B0DDE91356EA
:108B7000DDF8549003929DF85C209DF858B0049263
:108B800004468A460027B9F1000F3ED099F80080CC
:108B90000593002202212046FFF71BFF7F220821B8
:108BA0002046FFF716FF08EB0B1880221421204601
:108BB000FFF724FF5FFA88F8059B9DF848201221F3
:108BC0002046FFF7EBFE42461A212046FFF701FF41
:108BD000524602212046FFF7FCFEBAF10C0F04D1E9
:108BE00080221A212046FFF709FF4FF4FA68082176
:108BF0002046FFF7BCFE039B184208D1C30702D4EE
:108C0000B8F10108F3D104204DE0C846C0E70C21BB
:108C10002046FFF7ACFE10F0130F804646D1DDB1C1
:108C2000D6B114212046FFF7A2FE337883420246D4
:108C30003ED330702B4612212046CDF800B0FFF70E
:108C400047FE18212046FFF792FE00F00707B9F112
:108C5000000F01D089F8007018F0080F2AD15DB319
:108C600056B3049B43B33278012A03D1042F25D194
:108C7000092018E022D90FBB023A07ABD2B229462D
:108C80002046FFF7DCFE01280DD133781D449DF806
:108C90001C3015F8022C9A4210D115F8012C9DF8C1
:108CA0001D309A420AD109B0BDE8F08F0220FAE7E0
:108CB0000520F8E70320F6E70120F4E70820F2E7B3
:108CC00010B586B09DF82C4005949DF8284004947A
:108CD000099C0394089C0092CDE9013430220B4694
:108CE0000C21FFF740FF06B010BD70B588B00646F6
:108CF0001C468DF8171015461AB31B78012B20D986
:108D000080221C21FFF788FE07238DF81F300023E7
:108D1000CDE902330DF11F03CDE9004301222B46BB
:108D20000DF117013046FFF7CBFF012807D123785B
:108D3000022B08D19DF81F30002B18BF022008B06D
:108D400070BD0520FBE70220F9E713460A462621FD
:108D5000FFF7CBBF07B502230DF1030201A98DF880
:108D60000330FFF7F2FF00F0FD00431E5842584168
:108D700003B05DF804FB70B586B050238DF8143055
:108D800000240DF11603022205A906468DF81540B0
:108D9000FFF755FE012805460FD1CDE90244CDE984
:108DA00000442346042205A93046FFF789FF042822
:108DB00003D0012814BF05460225284606B070BD21
:108DC0007FB506461D461446CAB11B78112B16D92D
:108DD000302313705170931C21460222FFF72FFE9F
:108DE00001280AD10023CDE90133039000952346E1
:108DF000042221463046FFF763FF04B070BD052012
:108E0000FBE710B58AB00C9C8DF81D201A689B8872
:108E1000ADF8223063788DF82430A3788DF82530B2
:108E2000E3788DF8263023798DF827300023CDE9BB
:108E30000433CDE9023301930C238DF81C10CDF8D7
:108E40001E200093102207AB0E21FFF78CFE0AB004
:108E500010BD2DE9F04F502A8BB082460F46904648
:108E600000F2408180221C21FFF7D6FD93238DF86C
:108E70001C30B8F1000F00F0BC803C78042C94BF8B
:108E800000230123012500260BE095238DF81C30DB
:108E9000B8F1000F00F0AF803C78072C94BF00239E
:108EA0000123A8EBC60464B224EAE474002B00F0AA
:108EB000A48088228DF81E20032114F0070218BF19
:108EC000012202EBE40212F0FF02E0B21DD0002BFF
:108ED00014BF4FF003094FF0040906F1010C91454E
:108EE00094BF01EB090E01EB020E57FA8CFC5FFAFE
:108EF0008EFE0A460DF1280B0131C9B25A441CF806
:108F0000019B02F80C9C7145F3D10BB1083044B2BF
:108F10001F2C74DD4FF070039DF81F208DF81D305D
:108F20009DF81E3053409DF8202053409DF821208D
:108F300053408DF8223007220DF1230307A9504634
:108F4000FFF77DFD0128814640F0C88000238DF8A1
:108F50001A3003238DF81B3004940DF1220B4FF0CF
:108F600009099DF81A30059303EB0312D2B21A21B6
:108F70005046FFF72EFD059B02930DF11A030022C8
:108F800001930DF11B03039200934A465B4607A928
:108F90005046FFF795FE032881464CD11C215046D0
:108FA000FFF7E5FC810600F1998010F01F0008BF73
:108FB0002020A04240F38780431E03F0070244B202
:108FC00013F007034FEAD00018BF01230130184403
:108FD0000AAB1844012303FA02F210F80C3C1343C5
:108FE00000F80C3C94E797238DF81C3006262346A6
:108FF00057E7434646E7434653E702215DE7E31060
:109000000233DBB204F0070214F007098DF81A20CE
:1090100002EB03128DF81D2018BF4FF0010907AABB
:10902000994402EB030BC3F109035FFA89F98DF848
:109030001B30049495E7012850D1049B1F2B4FF05F
:1090400020047FF767AF9DF81E30882B3ED10323A5
:109050001A4601361A4457FA86F6D2B219460AA8B9
:1090600001330144DBB211F80C1C06F8011B9342DA
:10907000F4D19DF81B60032E37D19DF81A40A4BB94
:109080000DF11E03012259465046FFF7D8FC012876
:10909000814623D19DF81E209BF801309A4227D1AA
:1090A0009DF81F209BF802309A4221D19BF8003096
:1090B0005A070ED50135EDB2032D94D0042D02D000
:1090C000022D3FF4E2AE4FF0060907E0022304222E
:1090D000BFE705EB45050135FB723D7048460BB017
:1090E000BDE8F08F4FF00709F8E74FF00209F5E708
:1090F0004FF00809F2E708B501460022FFF7A9FE84
:10910000431E5842584108BD0160704710B50446DF
:109110000121008801F09AFF2088002101F0A7FFBB
:10912000022000F07FFE2088012101F0A0FF052031
:1091300000F078FE2088002101F099FF20880021AE
:1091400001F084FF2088012101F0F0FF3A2390FB19
:10915000F3F010BD10B5037201238171C271037465
:1091600010BD10B504460021807901F06FFFA07991
:10917000012101F07CFF0023E36010BD2DE9F843DD
:10918000044600F057FEE368834284BF0023E36097
:10919000237C23B9E368C01AB0F5FA6F67D30025C2
:1091A000257400F047FE0121E0602560A07925715B
:1091B00001F05DFFFA2001F07EFBA079012101F0B2
:1091C00045FF2946A07901F052FF142001F073FBFE
:1091D00001F02CFD0121A07901F049FF282000F0C9
:1091E00021FEA079294601F031FF2E4601274FF0DC
:1091F0000008A07901F054FFB8425FFA88F908D15D
:10920000012008F1010800F00DFEB8F1FF0FF0D1C8
:10921000C146A07901F044FFB9F1FF0FC7B214D0E5
:10922000032D0ED9EA070CD4F2080136A35C5B00CB
:10923000DBB2A354217A49453CBF43F00103A35458
:10924000F6B20135EDB2552DD1D101F0F1FC272E4A
:109250000FD9637820781844A3781844E378184429
:109260002379C0B2C31A58425841BDE8F88301209F
:10927000FBE70020F9E7000010B50446FFF77EFF8A
:1092800020B3E3790B2B1BD0153B012B1ED8A37801
:10929000DFED106A03F07F0207EE102AE27807EE96
:1092A000902AB8EEC77AF8EEE77A1B06E7EE267A40
:1092B000B2EE047A87EE870A07D5B1EE400A04E0E1
:1092C000A37800EE103AB8EE400A10BD9FED020AF6
:1092D000FBE700BF000080430000C07FFFF7CCBF6A
:1092E00010B5044B03600446C06A08B100F096FF55
:1092F000204610BDA0D00B0010B50446FFF7F0FFCC
:1093000020465021FBF79FFB204610BD002910B5D9
:109310004BDBB0F90C408C4247DD002A45DBB0F94D
:109320000E40944241DD847E022C1FD0032C26D0B7
:10933000012C04D10489D24314440A4621B2012BE2
:1093400023D0022B32D083BB002A13460489C06A83
:10935000B8BFD31DDB1013FB041102F00702012379
:109360009340425C22EA030242541EE00489013C1D
:10937000611A4489D243224409B212B2DFE7448918
:10938000013C641A114622B2D9E7002A0489134627
:10939000B8BFD31DDB1013FB0411C36A02F0070032
:1093A00001228240585C02435A5410BD002A1346E1
:1093B0000489C06AB8BFD31DDB1013FB041102F08F
:1093C0000702012303FA02F2435C5A40CCE7000093
:1093D00070B5402204460E468021FEF71DFE002592
:1093E0000D4B2360656201F015FFFF2384F83330D5
:1093F00084F83630094BA3634FF6FF720123C4E9AA
:109400000A05A28684F8376084F83C302564A4F805
:109410004450204670BD00BFA0D00B00ACCA0B006A
:10942000F8B50446806A0D4690B194F9301001F009
:10943000D5FCA06A036800219B689847A06A03686E
:1094400029469B689847A06ABDE8F84001F0CDBC6A
:1094500094F93530014698B201F009FE606A20B1F6
:109460002946BDE8F84000F0FBBF0826802794F9A4
:10947000330005EA070180B201F0F9FD94F93400E8
:10948000012180B201F0F3FD94F93400002180B293
:1094900001F0EDFD013E4FEA5707E8D1F8BD38B5C0
:1094A0000446806A0D4680B1A16C01F089FC002D54
:1094B000204614BFA721A621FFF7B2FFA06A88B1FA
:1094C000E16CBDE8384001F07BBC606A18B104F182
:1094D000380100F057FF94F93600002180B201F006
:1094E000C6FDE4E794F93600012180B201F0BFFD2A
:1094F000606A18B1BDE8384000F02ABF38BD2DE9D8
:10950000F8430446806A0D468F1840B394F9301032
:1095100001F064FCA06A036800219B68984701265B
:10952000AF42A06A17D01F2E0CD901F05EFC94F94F
:109530003010A06A01F052FCA06A036800219B6809
:1095400098470126A06A15F8011B036801369B683D
:109550009847F6B2E4E7BDE8F84301F046BC94F959
:109560003530014698B201F082FDBD4222D0606ADA
:1095700015F8019B18B1494600F072FFF5E708267F
:109580004FF0800894F9330009EA080180B201F035
:109590006EFD94F93400012180B201F068FD94F968
:1095A0003400002180B201F062FD013E4FEA58080C
:1095B000E8D1DAE7BDE8F883B0F90A30DA1D48BF30
:1095C00003F10E02B0F90830C06AD2105A430021EC
:1095D00001F062BE2DE9FF411E46C36A9DF8288056
:1095E00004460F461546D3B12046FFF7E5FFB4F910
:1095F0000A20202A25DCB4F908102023203A7339E8
:109600000120CDE9013002EBD272732301EBD1715D
:10961000009342F34F02854B41F34F011BE0B0F939
:109620000A30D81D48BF03F10E00B4F90830C0104D
:10963000584300F0EBFDE0620028D5D104B0BDE84E
:10964000F08140234FF0010CCDE9013C80230093D1
:109650000022774B11462046FEF7A6FEA06A84F84A
:109660003170002878D0002D74D1B4F90A30202B45
:109670000CBF3C253D2584F83050B8F1000F01D0D7
:1096800001F0A2FBFEB194F9370000281BDB012199
:1096900080B201F0DBFC94F93700012180B201F0C7
:1096A000E6FC012001F007F994F93700002180B2AF
:1096B00001F0DDFC0A2001F0FEF894F937000121E9
:1096C00080B201F0D4FCA06A002874D0A16C01F033
:1096D00077FB042257492046FFF711FF61890139C2
:1096E000C9B22046FFF79CFE534904222046FFF7EB
:1096F00006FF94F93130012B0CBF102114212046B4
:10970000FFF78EFE04224D492046FFF7F8FEA368BE
:109710004B4A93425CD14B4904222046FFF7EFFEAF
:10972000D9212046FFF77CFE94F93130012B0CBF84
:109730002221F1212046FFF773FE204642490622EE
:10974000FFF7DDFEA06A002863D0E16C01F038FB72
:10975000012073E76DB28EE794F93500012180B2E4
:1097600001F074FC94F93600012180B201F06EFC26
:1097700094F93600012180B201F079FC656A3DB1AF
:10978000B8F1000F3FF47EAF284600F0CDFD79E739
:1097900094F93300012180B201F058FC94F93400AF
:1097A000012180B201F052FC94F93400294680B2C4
:1097B00001F05DFC66E7606A18B104F1380100F061
:1097C000E1FD94F93600002180B201F050FC80E701
:1097D0001E4A93420ED11E4903222046FFF78FFEF8
:1097E00094F93130012B0CBF9F21CF212046FFF788
:1097F00017FE95E7174A934292D117490322204654
:10980000FFF77DFE94F93130012B0CBF1021AF2101
:10981000ECE794F93600012180B201F028FC606A7F
:10982000002895D000F094FD92E700BFB8CA0B0065
:1098300098CC0B0000D10B0004D10B0008D10B0019
:109840008000200012D10B000CD10B0080004000E2
:1098500016D10B006000100019D10B0070B5002A62
:10986000BDF810503DDBB0F90A40944239DD0029C3
:10987000BEBF5B181BB20021B0F90840CE18A6424B
:10988000C4BF631A1BB2002B2BDDC06AD61014FBB9
:109890000611014402F0070001228240012DD2B2DC
:1098A00016D0022D0BD0E5B9D243D2B20B44994267
:1098B00017D011F8010B104001F8010CF7E70B4429
:1098C00099420ED011F8010B504001F8010CF7E756
:1098D0000B44994205D011F8010B104301F8010C1B
:1098E000F7E770BDF0B50029BDF8145076DBB0F98C
:1098F0000860B14272DA002ABEBF9B181BB2002278
:10990000B0F90A40D718A742C4BFA31A1BB2002B54
:1099100064DDC2F3C404C76A16FB041612F0070222
:10992000DBB207EB060423D0C2F10802D2B22D4904
:1099300093423CBF4FF0FF0CA2EB030E895C3CBF8F
:109940004CFA0EFC0CEA0101012D07D0022D2ED09D
:109950004DB917F806C02CEA010103E017F806C05C
:1099600041EA0C01B955934238D3B0F908100C44C0
:109970009A1AD2B2072A0ED9022D1DD11346217888
:10998000C9432170083BB0F90810DBB2072B0C4427
:10999000F5D802F007020AB3134B012D9B5C1AD0D5
:1099A000022D1CD0D5B9227822EA030315E017F85E
:1099B00006C081EA0C01D5E7291E18BF01214942E2
:1099C000C9B213462170083BB0F90860DBB2072B1F
:1099D0003444F7D8DDE7227813432370F0BD2278B2
:1099E0005340FAE7F0D00B00F8D00B0070B41446E7
:1099F000827EBDF80C60022A0DD0032A18D0012AFD
:109A000011D10289E443144424B203960A46214644
:109A100070BCFFF767BF42890589E44319441444C9
:109A2000691A24B209B20396224670BCFFF716BF2A
:109A300045891944691A09B2E7E730B41446827EB1
:109A4000BDF80850022A0DD0032A18D0012A11D1DE
:109A5000E2180489A41A24B202950A46214630BCB1
:109A6000FFF7FCBE0289C9431144E2184489A41AD5
:109A700009B224B20295224630BCFFF733BF4289B7
:109A8000C943114409B2E7E72DE9F8430446806A67
:109A9000002842D0A16C01F093F9474905222046E5
:109AA000FFF72DFD218901392046C9B2FFF7B8FC27
:109AB000B4F90A30DE1D48BF03F10E06D4E90A05E9
:109AC0002389F61013FB06F615FA86F600283AD01D
:109AD00094F9301001F082F9A06A036840219B6874
