:02000002B0004C
:1040000000400B0012D70B00000006000C00050258
:084010000401B41400000000DB
:04401800E0B60B0003
:1040200081F0004102E000BF83F0004330B54FEA69
:1040300041044FEA430594EA050F08BF90EA020FD6
:104040001FBF54EA000C55EA020C7FEA645C7FEA69
:10405000655C00F0E2804FEA5454D4EB5555B8BF8C
:104060006D420CDD2C4480EA020281EA030382EAFD
:10407000000083EA010180EA020281EA0303362D8F
:1040800088BF30BD11F0004F4FEA01314FF4801C62
:104090004CEA113102D0404261EB410113F0004F74
:1040A0004FEA03334CEA133302D0524263EB43032B
:1040B00094EA050F00F0A780A4F10104D5F1200EC9
:1040C0000DDB02FA0EFC22FA05F2801841F1000124
:1040D00003FA0EF2801843FA05F359410EE0A5F1F8
:1040E00020050EF1200E012A03FA0EFC28BF4CF029
:1040F000020C43FA05F3C01851EBE37101F00045DF
:1041000007D54FF0000EDCF1000C7EEB00006EEBEB
:104110000101B1F5801F1BD3B1F5001F0CD3490875
:104120005FEA30004FEA3C0C04F101044FEA4452CC
:1041300012F5800F80F09A80BCF1004F08BF5FEA53
:10414000500C50F1000041EB045141EA050130BD33
:104150005FEA4C0C404141EB0101013C28BFB1F545
:10416000801FE9D291F0000F04BF01460020B1FA90
:1041700081F308BF2033A3F10B03B3F120020CDA63
:104180000C3208DD02F1140CC2F10C0201FA0CF041
:1041900021FA02F10CE002F11402D8BFC2F1200CA6
:1041A00001FA02F120FA0CFCDCBF41EA0C0190405C
:1041B000E41AA2BF01EB0451294330BD6FEA0404A5
:1041C0001F3C1CDA0C340EDC04F11404C4F1200290
:1041D00020FA04F001FA02F340EA030021FA04F3A2
:1041E00045EA030130BDC4F10C04C4F1200220FAF9
:1041F00002F001FA04F340EA0300294630BD21FA37
:1042000004F0294630BD94F0000F83F4801306BFFC
:1042100081F480110134013D4EE77FEA645C18BFF0
:104220007FEA655C29D094EA050F08BF90EA020F87
:1042300005D054EA000C04BF1946104630BD91EA7F
:10424000030F1EBF0021002030BD5FEA545C05D182
:104250004000494128BF41F0004130BD14F58004C1
:104260003CBF01F5801130BD01F0004545F0FE4135
:1042700041F470014FF0000030BD7FEA645C1ABF6A
:10428000194610467FEA655C1CBF0B46024650EAA1
:10429000013406BF52EA033591EA030F41F40021CD
:1042A00030BD00BF90F0000F04BF0021704730B553
:1042B0004FF4806404F132044FF000054FF0000128
:1042C00050E700BF90F0000F04BF0021704730B5E9
:1042D0004FF4806404F1320410F0004548BF4042BE
:1042E0004FF000013EE700BF42004FEAE2014FEA13
:1042F00031014FEA02701FBF12F07F4393F07F4FEE
:1043000081F06051704732F07F4208BF704793F0F0
:104310007F4F04BF41F40021704730B54FF4607403
:1043200001F0004521F000411CE700BF50EA010206
:1043300008BF704730B54FF000050AE050EA0102AF
:1043400008BF704730B511F0004502D5404261EB1F
:1043500041014FF4806404F132045FEA915C3FF460
:10436000D8AE4FF003025FEADC0C18BF03325FEAFD
:10437000DC0C18BF033202EBDC02C2F1200300FAAE
:1043800003FC20FA02F001FA03FE40EA0E0021FAD3
:1043900002F11444BDE600BF70B54FF0FF0C4CF4C1
:1043A000E06C1CEA11541DBF1CEA135594EA0C0F73
:1043B00095EA0C0F00F0DEF82C4481EA030621EAAE
:1043C0004C5123EA4C5350EA013518BF52EA0335E9
:1043D00041F4801143F4801338D0A0FB02CE4FF09B
:1043E0000005E1FB02E506F00042E0FB03E54FF0CB
:1043F0000006E1FB03569CF0000F18BF4EF0010EC3
:10440000A4F1FF04B6F5007F64F5407404D25FEABE
:104410004E0E6D4146EB060642EAC62141EA555171
:104420004FEAC52040EA5E504FEACE2EB4F1FD0CB3
:1044300088BFBCF5E06F1ED8BEF1004F08BF5FEA31
:10444000500E50F1000041EB045170BD06F00046E3
:1044500046EA010140EA020081EA0301B4EB5C0490
:10446000C2BFD4EB0C0541EA045170BD41F4801188
:104470004FF0000E013C00F3AB8014F1360FDEBFAD
:10448000002001F0004170BDC4F10004203C35DA89
:104490000C341BDC04F11404C4F1200500FA05F30C
:1044A00020FA04F001FA05F240EA020001F00042AD
:1044B00021F0004110EBD37021FA04F642EB060123
:1044C0005EEA430E08BF20EAD37070BDC4F10C044D
:1044D000C4F1200500FA04F320FA05F001FA04F211
:1044E00040EA020001F0004110EBD37041F10001FD
:1044F0005EEA430E08BF20EAD37070BDC4F1200508
:1045000000FA05F24EEA020E20FA04F301FA05F26F
:1045100043EA020321FA04F001F0004121FA04F217
:1045200020EA020000EBD3705EEA430E08BF20EAE7
:10453000D37070BD94F0000F0FD101F00046400021
:1045400041EB010111F4801F08BF013CF7D041EAA3
:10455000060195F0000F18BF704703F000465200A7
:1045600043EB030313F4801F08BF013DF7D043EA78
:104570000603704794EA0C0F0CEA135518BF95EA2E
:104580000C0F0CD050EA410618BF52EA4306D1D1B5
:1045900081EA030101F000414FF0000070BD50EAD4
:1045A000410606BF1046194652EA430619D094EA5E
:1045B0000C0F02D150EA013613D195EA0C0F05D148
:1045C00052EA03361CBF104619460AD181EA03019C
:1045D00001F0004141F0FE4141F470014FF0000054
:1045E00070BD41F0FE4141F4780170BD70B54FF0EF
:1045F000FF0C4CF4E06C1CEA11541DBF1CEA13556F
:1046000094EA0C0F95EA0C0F00F0A7F8A4EB050450
:1046100081EA030E52EA03354FEA013100F0888047
:104620004FEA03334FF0805545EA131343EA126310
:104630004FEA022245EA111545EA10654FEA0026C5
:104640000EF000419D4208BF964244F1FD0404F57E
:10465000407402D25B084FEA3202B61A65EB0305DA
:104660005B084FEA32024FF480104FF4002CB6EB97
:10467000020E75EB030E22BFB61A754640EA0C0017
:104680005B084FEA3202B6EB020E75EB030E22BF57
:10469000B61A754640EA5C005B084FEA3202B6EB98
:1046A000020E75EB030E22BFB61A754640EA9C0057
:1046B0005B084FEA3202B6EB020E75EB030E22BF27
:1046C000B61A754640EADC0055EA060E18D04FEAE5
:1046D000051545EA16754FEA06164FEAC30343EA85
:1046E00052734FEAC2025FEA1C1CC0D111F4801F52
:1046F0000BD141EA00014FF000004FF0004CB6E74B
:1047000011F4801F04BF01430020B4F1FD0C88BFE9
:10471000BCF5E06F3FF6AFAEB5EB030C04BFB6EBF4
:10472000020C5FEA500C50F1000041EB045170BDE7
:104730000EF0004E4EEA113114EB5C04C2BFD4EB14
:104740000C0541EA045170BD41F480114FF0000E98
:10475000013C90E645EA060E8DE60CEA135594EA14
:104760000C0F08BF95EA0C0F3FF43BAF94EA0C0F17
:104770000AD150EA01347FF434AF95EA0C0F7FF48C
:1047800025AF104619462CE795EA0C0F06D152EAE0
:1047900003353FF4FDAE1046194622E750EA4106C4
:1047A00018BF52EA43067FF4C5AE50EA41047FF4D5
:1047B0000DAF52EA43057FF4EBAE12E74FF0FF3C3A
:1047C00006E000BF4FF0010C02E000BF4FF0010C0B
:1047D0004DF804CD4FEA410C7FEA6C5C4FEA430C84
:1047E00018BF7FEA6C5C1BD001B050EA410C0CBFD3
:1047F00052EA430C91EA030F02BF90EA020F002035
:10480000704710F1000F91EA030F58BF994208BF9B
:1048100090422CBFD8176FEAE37040F00100704758
:104820004FEA410C7FEA6C5C02D150EA013C07D1AF
:104830004FEA430C7FEA6C5CD6D152EA033CD3D0FA
:104840005DF8040B704700BF8446104662468C46F4
:104850001946634600E000BF01B5FFF7B7FF002827
:1048600048BF10F1000F01BD4DF808EDFFF7F4FF50
:104870000CBF012000205DF808FB00BF4DF808EDDB
:10488000FFF7EAFF34BF012000205DF808FB00BFFE
:104890004DF808EDFFF7E0FF94BF012000205DF820
:1048A00008FB00BF4DF808EDFFF7CEFF94BF0120D5
:1048B00000205DF808FB00BF4DF808EDFFF7C4FFCE
:1048C00034BF012000205DF808FB00BF4FEA410221
:1048D00012F5001215D211D56FF47873B3EB625252
:1048E00012D94FEAC12343F0004343EA505311F079
:1048F000004F23FA02F018BF404270474FF000000B
:10490000704750EA013005D111F0004008BF6FF048
:10491000004070474FF00000704700BF4FEA41026F
:10492000B2F1E04324BFB3F5001CDCF1FE5C0DD90D
:1049300001F0004C4FEAC0024CEA5070B2F1004F57
:1049400040EB830008BF20F00100704711F0804F5A
:1049500021D113F13872BCBF01F00040704741F41F
:1049600080114FEA5252C2F11802C2F1200C10FA23
:104970000CF320FA02F018BF40F001004FEAC12307
:104980004FEAD32303FA0CFC40EA0C0023FA02F3AB
:104990004FEA4303CCE77FEA625307D150EA013381
:1049A0001EBF4FF0FE4040F44000704701F0004051
:1049B00040F0FE4040F40000704700BF034613F88B
:1049C000012B002AFBD1181A0138704709480A49FF
:1049D000884208B505D0094A824202D0121A06F070
:1049E00061FD0748074A0021121A06F069FD0148D7
:1049F00008BD00BF74C6032028D60B0030C70320B3
:104A000030C70320F0E7032070B5074E074C06F0CF
:104A1000D9F8A41BA4080025AC4200D170BD56F8FB
:104A2000043B98470135F7E7E0D50B0004D60B00AF
:104A300001F070BA08B502F043F9BDE8084006F08D
:104A400079B805F0EBBC05F0F1BC000008B5034AED
:104A500003490C2005F046FCFEE700BF35A00B0023
:104A6000F4B60B000078B0FA80F0400970470123DB
:104A700003707047064A00231360C2F84431054AA8
:104A80001360C2F84431044A1360044A136070474B
:104A900028CD032050C703202CDA032024DA03207A
:104AA00070B505460C46164642B90368C9B29B6804
:104AB00098472846BDE8704005F04BBF00290ADA48
:104AC0000A2A08D12D2105F041FF6142F2B22846A1
:104AD00005F055FFEDE72146F8E70EB403B503AB4B
:104AE000002153F8042B019305F067FF02B05DF835
:104AF00004EB03B070470EB403B503AB012153F8C8
:104B0000042B019305F059FF02B05DF804EB03B0EC
:104B1000704707B5014601A804F0FEFB01A804F0A8
:104B2000FDFB09288CBF0020012003B05DF804FBC9
:104B300007B5014601A804F0EFFB01A804F0EEFB65
:104B40000A28D4BF0020012003B05DF804FB02282E
:104B500008B50BD004280BD060B9132006F0C7FBB2
:104B6000B0F57A7FB4BF0020012008BD1120F5E721
:104B70000F20F3E70020F8E7022808B50BD004283F
:104B80000BD060B9132006F0B2FBB0F57A7FCCBF32
:104B90000020012008BD1120F5E70F20F3E70020D9
:104BA000F8E70000022810B519D0042819D0D0B9B0
:104BB000132006F09CFB044606F026F90A22214643
:104BC000FFF76EFFB4F5C86F084AA4BF0C2313604B
:104BD0001368002B07DD013B1360012010BD11207D
:104BE000E7E70F20E5E70020F8E700BF4CDA0320F5
:104BF00008B580B206F07BFBB0F52F7FCCBF00205C
:104C0000012008BD07B580B20021019006F032FBFB
:104C1000019806F059FB431E5842584103B05DF815
:104C200004FB07B580B20021019006F023FB019838
:104C300006F04AFBB0FA80F0400903B05DF804FBCF
:104C4000022807B530D0042830D018B9132006F058
:104C50004EFB0190DDED017AF8EEE77A17EE900A4F
:104C6000FFF742FB14A3D3E90023FFF795FB14A33E
:104C7000D3E90023FFF7BAFCFFF750FEDFED0C7A13
:104C800007EE100A67EE277AF1EE046A87EEA67A3D
:104C9000DFED087AB4EEE77AF1EE10FA94BF012066
:104CA000002003B05DF804FB1120D0E70F20CEE711
:104CB000000096430000B4436666666666660A4076
:104CC0000000000000F88F40022807B530D004280B
:104CD00030D018B9132006F00AFB0190DDED017AFF
:104CE000F8EEE77A17EE900AFFF7FEFA14A3D3E97D
:104CF0000023FFF751FB14A3D3E90023FFF776FC51
:104D0000FFF70CFEDFED0C7A07EE100A67EE277A4C
:104D1000F1EE046A87EEA67ADFED087AB4EEE77A60
:104D2000F1EE10FAACBF0120002003B05DF804FBE7
:104D30001120D0E70F20CEE7000096430000B443D7
:104D40006666666666660A400000000000F88F40EE
:104D500038B584B2651C00212046ADB206F08AFA4F
:104D60002846002106F086FA204606F0ADFA30B952
:104D7000284606F0A9FA431E5842584138BD002083
:104D8000FCE738B584B2651CADB20021284606F0B8
:104D900071FA2046002106F06DFA284606F094FAD2
:104DA00030B9204606F090FA431E5842584138BDAB
:104DB0000020FCE738B584B2651C00212046ADB266
:104DC00006F058FA2846002106F054FA204606F06C
:104DD0007BFA30B9284606F077FAB0FA80F040093D
:104DE00038BD0020FCE738B584B2651C00212046A0
:104DF000ADB206F03FFA0021284606F03BFA204605
:104E000006F062FA012806D1284606F05DFA431E34
:104E10005842584138BD0020FCE7022810B512D096
:104E2000042812D018B9132006F061FA044605F0E0
:104E3000EBFF0A222146FFF733FEB4F5FA6FACBF51
:104E40000020012010BD1120EEE70F20ECE7022822
:104E500008B50DD004280DD018B9132006F047FA74
:104E6000034640F6C4108342D4BF0020012008BD91
:104E70001120F3E70F20F1E730B52DED028B87B05D
:104E8000C1B206230B2201A804F06CFA01A804F0B9
:104E900070FA01A804F02AFBB5EE400AF1EE10FA10
:104EA000B4EE400A0CBF01240024F1EE10FA68BFF2
:104EB00044F00104B0EE408A002CEAD105F0A4FFD2
:104EC000054618EE100AFFF70FFA02460B46284671
:104ED0000A49FFF710FEB5EEC08AF1EE10FA08DDC0
:104EE000F2EE007AB4EEE78AF1EE10FA4CBF01243C
:104EF0000024204607B0BDEC028B30BD09B70B0083
:104F000010B52DED028B86B0C1B206230B2201A88D
:104F100004F028FA01A804F02CFA01A804F0E6FA3B
:104F2000B4EE400AF1EE10FAB0EE408AF5D6B5EED6
:104F3000400AF1EE10FAF0D005F066FF044618EED4
:104F4000100AFFF7D1F902460B4620460C49FFF73D
:104F5000D2FDF1EE0C7AB4EEE78AF1EE10FA04DC41
:104F6000002006B0BDEC028B10BDF3EE0A7AB4EE61
:104F7000E78AF1EE10FA4CBF01200020F1E700BFF4
:104F800009B70B0030B52DED028B87B0C1B20623F7
:104F90000B2201A804F0E6F901A804F0EAF901A83F
:104FA00004F0A4FAB5EE400AF1EE10FAB4EE400AAD
:104FB0000CBF01240024F1EE10FA68BF44F0010494
:104FC000B0EE408A002CEAD105F01EFF054618EE2F
:104FD000100AFFF789F902460B4628460B49FFF7EE
:104FE0008AFDF3EE097AB4EEE78AF1EE10FA08DDF5
:104FF000DFED077AB4EEE78AF1EE10FA4CBF012438
:105000000024204607B0BDEC028B30BD09B70B0071
:105010000000484207B5014601A804F07DF901A847
:1050200004F07CF903B05DF804FB000010B52DED31
:10503000048B9FED1B9A3224B1EE048A132006F0F4
:1050400056F907EE900AF8EEE77A013C67EE887AA7
:1050500087EE897A78EE878AF0D19FED127A9FEDFC
:10506000126AC8EE877A9FED117A67EE877A87EE2B
:10507000887ABDEC048BDFED0E7A27EE277AC7EE37
:10508000066A77EEE67AF5EEC07AF1EE10FA48BFDE
:10509000DFED087AFDEEE77A17EE900A10BD00BF4B
:1050A00000C07F4400004842000096440000964340
:1050B000000087430000000037B53224002513208C
:1050C00006F015F9013C0544F9D16423009340F63C
:1050D000FF7223462146322095FBF0F005F0B0FC2C
:1050E00003B030BD000000002DE9F04104F0AAFF3C
:1050F0004FF480650746002604F0A4FFC01B31284A
:1051000018D8132006F0F3F8044605F07DFE0A22B5
:105110008046214605F033FC404605F01AFCB4F504
:10512000806FE9D2A64203D3A54228BF2546E3E714
:105130002646E1E7701BFFF7B5F89FED094B9FEDA1
:105140000A3B9FED0B2B9FED0C1B41EC100B05F068
:1051500083FC51EC100BFFF7B9FBBDE8F08100BFF9
:1051600000000000008056400000000000C04840E1
:105170000000000000208C400000000000003440CF
:105180007FB5C1B206230B2201A804F0EBF801A8F9
:1051900004F0EFF801A804F0A9F9B5EE400AF1EE29
:1051A00010FAF7D0B4EE400AF1EE10FAF2D6FDEEA6
:1051B000C07A17EE900A07B05DF804FB022805D00C
:1051C000042805D030B9132006F091B81120FBE770
:1051D0000F20F9E70020704708B50346013B104651
:1051E0000B2B5FD8DFE803F0060B141D222B0640C3
:1051F0004653575BA1BBBDE80840FFF78ABC19B90D
:10520000BDE80840FFF7B8BCBDE80840FFF79FBC09
:1052100019B9BDE80840FFF7EBBCBDE80840FFF74F
:10522000C1BC19BBBDE80840FFF7FBBC19B9BDE81C
:105230000840FFF749BDBDE80840FFF701BD01295F
:1052400006D0022908D059B9BDE80840FFF714BEBE
:10525000BDE80840FFF754BEBDE80840FFF792BE26
:10526000BDE80840FFF764BC0029DBD1BDE8084079
:10527000FFF7C8BC012906D003290CD039B9BDE815
:105280000840FFF7B0BDBDE80840FFF761BDBDE8CD
:105290000840FFF776BDBDE80840FFF78BBD41B180
:1052A00001290AD005F0B0FD064905F05EFB00209B
:1052B00008BDBDE80840FFF7B0BDBDE80840FFF7F6
:1052C000C6BD00BF12B70B0008B50346023B084637
:1052D0000A2B1FD8DFE803F0060A1E0E12161E1E48
:1052E0001E1E1A00BDE80840FFF7E6BEBDE80840F4
:1052F000FFF7FABEBDE80840FFF798BEBDE80840DA
:10530000FFF73EBFBDE80840FFF784BEBDE8084098
:10531000FFF754BF05F078FD024905F026FB4FF07A
:10532000FF3008BD12B70B0007B5002304480093F7
:105330001A46194604F0B4FD03B05DF804FB00BF43
:10534000ECD6032007B5002304480093FF2219463A
:1053500004F0A6FD03B05DF804FB00BFECD603200B
:1053600007B50A23002200930348FF23114604F0E7
:1053700097FD03B05DF804FBECD6032007B5FF23CF
:105380000093002303481A46194604F089FD03B030
:105390005DF804FBECD6032007B50021044800911A
:1053A000E923FF2204F07CFD03B05DF804FB00BF9D
:1053B000ECD6032007B575230093044846236C22DE
:1053C000002104F06DFD03B05DF804FBECD6032072
:1053D00007B50021044800918023FF2204F060FDFE
:1053E00003B05DF804FB00BFECD6032007B5FF2334
:1053F000044800931A46002104F052FD03B05DF802
:1054000004FB00BFECD6032010B5114C2368052B1C
:1054100009D8DFE803F0030D10131619FFF792FF08
:10542000236801332360BDE81040962005F057BB88
:10543000FFF7CEFFF4E7FFF7AFFFF1E7FFF790FFCD
:10544000EEE7FFF7B7FFEBE7FFF798FF0023E9E789
:1054500044D3032008B50121062005F01CFF0121DB
:10546000062005F018FF0121072005F014FFBDE814
:1054700008400121072005F00EBF08B500210620D5
:1054800005F009FF0021062005F005FF0021072097
:1054900005F001FFBDE808400021072005F0FBBE34
:1054A00008B5FFF7D7FF642005F019FBFFF7E5FF0C
:1054B000BDE80840642005F012BB08B1FFF75EBFED
:1054C000FFF786BF08B1FFF767BFFFF773BF08B1EB
:1054D000FFF746BFFFF736BF08B560B1FFF786FF9D
:1054E0004FF4C87005F0FBFAFFF71EFFBDE8084057
:1054F000C82005F0F4BABDE80840FFF715BF08B1B1
:10550000FFF774BFFFF710BF08B1FFF77DBFFFF7CC
:105510000BBF08B1FFF7C4BFFFF7AFBF08B1FFF77C
:1055200099BFFFF7AABF0000012838B50D46144601
:1055300027D00D283BD048BB052927D8DFE801F04C
:1055400003080D12171CBDE838401046FFF7BFBF17
:10555000BDE838401046FFF7B5BFBDE838401046FB
:10556000FFF7ABBFBDE838401046FFF7B5BFBDE859
:1055700038401046FFF7C8BFBDE838401046FFF777
:10558000BEBFFFF7D1FE45B1012D0BD005F03CFCAD
:10559000BDE838400F4905F0E8B92046BDE838407D
:1055A000FFF7BCBF2046BDE83840FFF7B2BFFFF7AA
:1055B00064FFFFF7B9FE0121112005F05BFE34B155
:1055C00028223221BDE83840112005F0A7BE22462E
:1055D0002146F7E725B70B0008B5FFF707FF4FF4A3
:1055E000C87005F07CFAFFF79FFEBDE80840C820B0
:1055F00005F075BA13B584B22046012105F04BFEC3
:105600002046012105F047FE601C80B20121019077
:1056100005F041FE0198012102B0BDE8104005F0FF
:105620003ABE13B584B22046002105F034FE204670
:10563000002105F030FE601C80B20021019005F0D1
:105640002AFE0198002102B0BDE8104005F023BEFB
:1056500010B50446FFF7CEFF642005F040FA20465F
:10566000FFF7DFFFBDE81040642005F038BA000006
:1056700008B5072825D8DFE800F004080C10141836
:105680001C20BDE80840FFF76BBEBDE80840FFF7EF
:1056900059BEBDE80840FFF77FBEBDE80840FFF7F0
:1056A00089BEBDE80840FFF769BEBDE80840FFF7C6
:1056B0008FBEBDE80840FFF78FBFBDE80840FFF789
:1056C000A3BE05F0A1FBBDE80840014905F04DB9B6
:1056D00035B70B0038B50C4605460121A0B205F0E0
:1056E000C9FD45B1012D0BD005F08EFBBDE838405A
:1056F000064905F03AB92046BDE83840FFF77ABFC1
:105700002046BDE83840FFF7A3BF00BF25B70B0018
:1057100037B50C460546FFF7B0FEFFF705FE042C33
:105720009ABF0D4B1B574FF0FF3398B201210190E8
:1057300005F0A0FD012D07D832220198114603B0D3
:10574000BDE8304005F0EABD05F05EFB034903B05B
:10575000BDE8304005F009B90FC20B0025B70B00BA
:10576000042807B59ABF084B18564FF0FF3080B297
:105770000121019005F07EFD00220198114603B041
:105780005DF804EB05F0CABD0FC20B0038B50C463E
:10579000054618B9BDE83840FFF7C6BD0021A0B2E4
:1057A00005F079FD0D2D04D12046BDE83840FFF706
:1057B000D7BF38BD0346012B0846114604DC0BB9A0
:1057C000FFF756BFFFF786BF0D2B01D1FFF7A0BF34
:1057D00070470000012804D0022813D088B9FFF7D1
:1057E00049B90C4A002313700B4A13700B4A13700B
:1057F0000B4A4FF0FF3111600A4A032111600A4A37
:1058000013607047094A00231360094A1370094A5C
:10581000F6E700BF3DC703204CC703203CC7032069
:105820009CC60320A0C603203CDA032034DA032000
:1058300000D3032038DC03200E4A1368013B1360B9
:105840000D4A52F823108A1C0C4A07D1012111700D
:105850000B4A52F823200B4B1A607047013102D1DA
:1058600000231370704713781BB1064A1368013B7D
:105870001360704734DA032004D7032000D30320D9
:10588000BCD3032038DC032008B5072816D8DFE88E
:1058900000F00407090B0D0F11130C4B186808BD1D
:1058A0000B4BFBE70B4BF9E70B4BF7E70B4BF5E724
:1058B0000B4BF3E70B4BF1E70B4BEFE705F0A4FACB
:1058C0000A4905F052F84FF0FF30E8E774C60320AC
:1058D00088C6032084C603207CC6032090C603200C
:1058E00080C603208CC6032078C6032044B70B0073
:1058F000022808B503D8064B33F9100008BD05F09F
:1059000083FA044905F031F84FF0FF30F6E700BFA5
:1059100014C20B0053B70B0010B50446072919D861
:10592000DFE801F0040A0C0E101214160A49204692
:1059300004F04DFF204610BD0849F8E70849F6E796
:105940000849F4E70849F2E70849F0E70849EEE7B3
:105950000849ECE70849EAE7B3BB0B0062B70B0064
:1059600065B70B0068B70B006BB70B006FB70B0088
:1059700072B70B0071BD0B0044B70B00012910B5C5
:10598000044607D0022907D041B9054904F01FFF9A
:10599000204610BD0349F9E70349F7E70349F5E756
:1059A00075B70B0078B70B007BB70B0053B70B0034
:1059B00013B50C46FFF768FF01902046FFF798FFEC
:1059C000019900220446062005F048FA204605F019
:1059D00086F8062005F059FA1E2002B0BDE81040F6
:1059E00005F07DB810B50D4B1A680D4B4FF43B71A7
:1059F0004A4399581344002291420DDD5C68844269
:105A000003F1100306D105F0FFF9064904F0ADFFDC
:105A1000002010BD0132EFE70120FAE79CC6032009
:105A200028CD03207EB70B00F0B5114B114A1E683C
:105A3000944600239E4217DB1768154600218F42CB
:105A40000EDD6C68844205F1100507D14FF43B72FE
:105A5000534303EB011363441869F0BD0131EEE7D2
:105A6000013302F53B72E5E74FF0FF30F5E700BF89
:105A70009CC6032028CD03202DE9F041194D1A4B77
:105A8000D5F844E11F6884462B460024A74223DB57
:105A900010D1D3F844811A460026B0450ADDD2F869
:105AA0004C01604503D1D2F84801884217D0013635
:105AB0001432F2E7012F0BD12E460022964507DD66
:105AC000D6F84801884206F1140608D00132F5E7FD
:105AD000013403F53B73D9E70120BDE8F0810020D4
:105AE000FBE700BF28CD03209CC60320F0B51D4B6B
:105AF0001D4A1E68944600239E4215DBD2F844716D
:105B0000154600218F4224DDD5F84841844205F135
:105B100014051CD14FF43B725343142202FB013392
:105B20006344D3F85401F0BD104BD3F84441002234
:105B30001946944213DDD3F84851A84203F11403E7
:105B40000BD1142303FB0212D2F85401EBE701310D
:105B5000D8E7013302F53B72CEE70132E9E74FF0B7
:105B6000FF30E0E79CC6032028CD032050C7032068
:105B700030B50C4B4FF43B7202FB01310022D1F8DF
:105B800044411346944208DDD1F84851854201D181
:105B90002BB9012301321431F4E7002030BD18463F
:105BA000FCE700BF28CD032084B0F8B506AC84E83C
:105BB0000F00DDE907010A9AFFF70EFB06AD044668
:105BC000BCAF0126069BB34212DDD5E905012A6A66
:105BD000FFF702FB17F8013B33B1002C08BF002090
:105BE000013610350446EDE7002C18BF2046F7E7D4
:105BF0002046BDE8F84004B0704700000F4BF7B5F1
:105C00004FF43B7404FB003400252746D7F8443199
:105C1000AB4204F114040FDDD4F84061D4F8340130
:105C2000D4F8381101903246FFF7C4FD019831468F
:105C3000FFF7ACFD0135E9E703B0F0BD50C7032025
:105C40002DE9F047174C4FF43B7303FB01448046AA
:105C50000D460027A246DAF84431BB421FDD94F816
:105C60005831D4F84861D4F8549143450ED13046A8
:105C7000D4F84C114A46FFF79DFD4FF47A7004F0BA
:105C80002EFF49463046FFF781FD05E029463046A4
:105C9000FFF76EFF0028F4D001371434DBE7BDE8CE
:105CA000F08700BF28CD032030B503782D2B0CBF23
:105CB00001220022134603440A24002013F8011B8A
:105CC0003039CDB2092D02D804FB0010F6E702B13D
:105CD000404230BD38B514460D4605F03FFC043C4B
:105CE00040B1FFF7E1FF294644F8040F002005F01A
:105CF00035FCF5E738BD000037B58DF807200DF10C
:105D000007030A4601460D480D4D03F061F90128CD
:105D1000287010D005F078F80A4904F013FE05F059
:105D200073F829780446054802F0A6FE014620468D
:105D300004F01BFE002003B030BD00BFF4D60320EA
:105D400034DC0320AEB70B00F0B58DB01E4D1F4AFA
:105D500000951F4B12781F4F06466021284603F01E
:105D600058F9012838700FD005F04EF81A4904F0A0
:105D7000E9FD05F049F839780446284602F07CFE32
:105D80000146204604F0F1FD144B1222187807A9B1
:105D9000FFF7B2FFB0B107AC0FCC03AD0FC523685E
:105DA0002B8005F031F80E4903AAFEF7A4FE0D4939
:105DB000324603A8FFF78EFF034803F0E4F80248D9
:105DC00002F041FF0DB0F0BDF4D60320C0C60320A1
:105DD000E5D6032034DC0320C5B70B0094C60320AE
:105DE000E1B70B0095C6032010B540B9324B1C68D3
:105DF000052C58D8DFE804F0051322323D482F4B1C
:105E0000F5E705F001F82E4904F09CFD2A4A1368D5
:105E1000013313602B4A1368013313601CE004F054
:105E2000F3FF294904F08EFD234A13680133136000
:105E3000244A13680133136002240DE004F0E4FFE8
:105E4000224904F07FFD1C4B4FF0FF321A601D4ABF
:105E50001368013313600424204610BD04F0D4FFFE
:105E60001B4904F06FFD154A136801331360194A8A
:105E7000DFE704F0C9FF184904F064FD0F4A136816
:105E800001331360134AC6E704F0BEFF134904F060
:105E900059FD0A4B4FF0FF321A600E4A1368013366
:105EA00013600624D8E704F0AFFF0D4904F04AFD63
:105EB0004FF0FF34D0E700BF3CDA0320A0C6032038
:105EC000EDB70B0040DA032004B80B001BB80B0041
:105ED00032B80B0044DA032049B80B0060B80B005D
:105EE00077B80B0010B5094A0949136823B908604F
:105EF00001231360086810BD0C68844203D1052B90
:105F000001DC0133F5E7013BF3E700BFACE603201A
:105F1000BCC6032070B58AB0002407A8CDE90744A9
:105F2000ADF8244004F080FE434823462246214633
:105F30004068424C04F02AFA04F066FF4FF4165110
:105F400004F056FF2178BFF35B8F11F001010BD1F4
:105F500020460591FEF786FD059928B1384804F0E2
:105F6000E1FA2046FEF783FD3548364C012504F062
:105F7000E3FA2B463C2202213348009503F032FC21
:105F8000314803F021FC304803F086FE2F4802F030
:105F9000BEFE2F4AFF21117051709170D1701171A6
:105FA000517105F019FA002004F05CF8FF28207008
:105FB0000DD104F029FF0026264904F0D6FC2670F6
:105FC00005F00AFA2A462146304604F053F82478B0
:105FD00054BB0121062005F04DF91F4803F0A8FF2E
:105FE0001E4B01221A701E4A1368013313604FF4CE
:105FF0003B711C4A4B43D118D450C1F84441402353
:106000000122CDE9013200228023114600930E487F
:10601000154B02F0D1FA0C4803F03EFE04F012F8E2
:10602000124B18600AB070BD012CE8D00121062087
:1060300005F020F9E3E700BF10E7032030C7032095
:1060400034C703203EC703204CD30320F4D60320DB
:10605000E5D603209FB80B00ECD60320E4D603203E
:106060009CC6032028CD03201AC20B0030DC03207D
:10607000052370B51A460421AA48AB4DAB4E03F078
:10608000A5FEAB4BAB4800241C60C3F84441C3F8E9
:10609000EC42C3F83044A84B4FF0FF311C60C3F80A
:1060A0004441C3F8EC42C3F8304403F099FAA349E1
:1060B000A34804F08CFBA149A24804F088FBA24944
:1060C000A24804F084FBA249A24804F080FBA24944
:1060D000A24804F07CFBA249A24804F078FBA24944
:1060E000A24804F074FBA249A24804F070FBA24944
:1060F000A24804F06CFBA249A24804F068FBA24944
:10610000A24804F064FBA249A24804F060FBA24943
:10611000A24804F05CFBA249A24804F058FBA24943
:10612000A24804F054FBA249A24804F050FB7F4966
:10613000A14804F04CFB7D49A04804F048FBA0496D
:10614000A04804F044FBA049A04804F040FBA0494B
:10615000A04804F03CFBA049A04804F038FBA0494B
:10616000A04804F034FBA049A04804F030FBA0494B
:10617000A04804F02CFBA049A04804F028FBA0494B
:10618000A04804F024FBA049A04804F020FBA0494B
:10619000A04804F01CFBA049A04804F018FBA0494B
:1061A000A04804F014FBA049A04804F010FBA0494B
:1061B000A04804F00CFBA049A04804F008FBA0494B
:1061C000A04804F004FBA049A04804F000FBA0494B
:1061D000A04804F0FCFAA049A04804F0F8FAA0494D
:1061E000A04804F0F4FAA049A04804F0F0FAA0494D
:1061F000A04804F0ECFAA049A04804F0E8FAA0494D
:10620000A04804F0E4FAA049A04804F0E0FAA0494C
:10621000A04804F0DCFAA049A04804F0D8FAA0494C
:10622000A04804F0D4FAA049A04804F0D0FAA0494C
:10623000A04804F0CCFAA049A04804F0C8FAA0494C
:10624000A04804F0C4FAA049A04804F0C0FAA0494C
:10625000A04804F0BCFAA049A04804F0B8FAA0494C
:10626000A04804F0B4FAA049A04804F0B0FAA0494C
:10627000A04804F0ACFAA049A04804F0A8FAA0494C
:10628000A04804F0A4FAA049A04804F0A0FAA0494C
:10629000A04804F09CFAA049A04804F098FAA0494C
:1062A000A04804F094FAA049A04804F090FAA0494C
:1062B000A04804F08CFAA049A04804F088FAA0494C
:1062C000A04804F084FAA049A04804F080FAA0494C
:1062D000A04804F07CFAA049A04804F078FAA0494C
:1062E000A04804F074FAA049A04804F070FAA0494C
:1062F000A04804F06CFAA049A04804F068FAA0494C
:10630000A04804F064FAA049A04804F060FAA0494B
:10631000A04804F05CFAA049A04804F058FAA0494B
:1063200040E100BFECD603208CDC03209EB80B00BC
:1063300028CD03204CD3032050C70320ACB80B005A
:106340009CD30320ACD303201AB90B007CE30320B9
:106350002EB90B008CE303205EBA0B009CE30320F4
:10636000AEB80B00ACE30320B4B80B00BCE30320D1
:10637000BBB80B00CCE30320C2B80B00DCE3032066
:10638000CAB80B00ECE30320D2B80B00FCE30320F7
:10639000DAB80B000CE40320E2B80B001CE4032085
:1063A000EAB80B002CE40320F2B80B003CE4032015
:1063B000FAB80B004CE403205CE403206CE40320F7
:1063C00002B90B00BCE103200CB90B00CCE10320A7
:1063D00016B90B00DCE1032020B90B00ECE103202F
:1063E0002AB90B00FCE1032034B90B000CE20320B6
:1063F0003EB90B001CE2032048B90B002CE203203D
:1064000052B90B003CE203205CB90B004CE20320C4
:1064100066B90B005CE2032070B90B006CE203204C
:106420007AB90B007CE2032084B90B008CE20320D4
:106430008EB90B009CE2032098B90B00ACE203205C
:10644000A2B90B00BCE20320ACB90B00CCE20320E4
:10645000B6B90B00DCE20320C0B90B00ECE203206C
:10646000CAB90B00FCE20320D4B90B000CE30320F3
:10647000DEB90B001CE30320E6B80B002CE303207D
:10648000E8B90B003CE30320EEB90B004CE303201A
:10649000F6B80B005CE30320FEB80B006CE30320AE
:1064A000F4B90B007CE40320FCB90B008CE403205E
:1064B00004BA0B009CE403200CBA0B00ACE40320EC
:1064C00014BA0B00BCE403201CBA0B00CCE403207C
:1064D00024BA0B00DCE403202CBA0B00ECE403200C
:1064E00034BA0B00FCE403203CBA0B000CE503209B
:1064F00044BA0B001CE503204CBA0B002CE503202A
:1065000054BA0B003CE503205CBA0B004CE50320B9
:1065100064BA0B005CE503206CBA0B006CE5032049
:1065200074BA0B007CE503207CBA0B008CE50320D9
:1065300084BA0B009CE503208CBA0B00ACE5032069
:1065400094BA0B00BCE503209CBA0B00CCE50320F9
:10655000A4BA0B00DCE50320ACBA0B00ECE5032089
:10656000B4BA0B00FCE50320BABA0B000CE603201A
:10657000C0BA0B001CE60320C6BA0B002CE60320B1
:10658000CCBA0B003CE60320D2BA0B004CE6032049
:10659000D8BA0B005CE60320DEBA0B006CE60320E1
:1065A000E4BA0B00314804F012F93149314804F0E3
:1065B0000EF93149314804F00AF93149314804F003
:1065C00006F93149314804F002F93149314804F003
:1065D000FEF83149314804F0FAF83149314804F005
:1065E000F6F83149314804F0F2F83149314804F005
:1065F000EEF82149304804F0EAF83049304804F018
:10660000E6F83049304804F0E2F83049304804F008
:10661000DEF83049304804F0DAF83049304804F008
:10662000D6F828193146103404F0D1F8B4F5966F35
:10663000F7D12C482C4D104E0822102102F005FAFB
:10664000002428193146103404F0C1F8B4F5F07F65
:10665000F7D1264B0022C3E90022A2F580329A60CE
:10666000BDE87040022003F045BE00BF7CE6032079
:10667000EABA0B008CE603209EB80B009CE60320D0
:10668000F0BA0B003CE10320F6BA0B004CE103200A
:10669000FCBA0B005CE1032002BB0B006CE10320A1
:1066A00008BB0B007CE103200EBB0B008CE1032038
:1066B00014BB0B009CE10320ACE103201ABB0B00D0
:1066C0003CDC032025BB0B004CDC03202FBB0B0064
:1066D0005CDC032039BB0B006CDC032044BB0B00EB
:1066E0007CDC0320F4D6032050DA032040C70320CB
:1066F0002DE9F041994F88B0064638460D461446BC
:1067000003F062F800233B61954B01221A7003F0FD
:1067100099FC944B1860032E16D8DFE816F004009D
:106720002D00F0001601032D0ED8DFE805F002075A
:10673000090B8D498D4804F009FF0EE08C49F9E7FB
:106740008C49F7E78C49F5E78C49884804F0FEFE50
:1067500004F05AFB894904F008F904F055FB834919
:1067600004F003F981497D4804F0ECF87B4808B057
:10677000BDE8F04103F090BA062DE5D8DFE805F05A
:106780000437516C90B0BD00214604A804F042F8D3
:106790007B4904A804F091F840210268734803F093
:1067A00055FE04A803F0C8FF142401253226282230
:1067B0004FF03C081146694833462827CDE9028549
:1067C000CDE9004601F00EFE2346224631466348DD
:1067D0000195009701F065FC4621CDE90285CDE9E0
:1067E0000071502322465D4801F0FCFDB5E72146CB
:1067F00004A804F00FF8624904A804F05EF84021F0
:1068000002685A4803F022FE04A803F095FF2823EB
:106810000120CDE9003014221946504801F041FC16
:106820009BE7214604A803F0F5FF554904A804F0AE
:1068300044F8402102684D4803F008FE04A803F024
:106840007BFF64235A220121CDE90032CDE90231D8
:1068500014221E233C21C6E7214604A803F0DAFFD8
:10686000474904A804F029F8402102683F4803F092
:10687000EDFD28240126432504A803F05DFF342301
:106880001422CDE90246CDE9004534483C2101F00F
:10689000A9FDCDE90246CDE9004534233C22D9E7E4
:1068A000214604A803F0B6FF354904A804F005F812
:1068B000402102682D4803F0C9FD04A803F03CFF05
:1068C0000123009332220F233C21244801F05FFD75
:1068D00028230022CDE900320A215A2332229CE7E4
:1068E0002749224804F032FE012300931B480F235E
:1068F00028223C2101F04BFD2FE722491AE7062D03
:106900003FF622AFDFE805F00406080A0C1D1F0061
:106910001D490FE71D490DE71D490BE71D4909E713
:106920001D4904A803F053FF214604A803F0B9FF52
:10693000402102680D4803F089FD04A803F0FCFE25
:106940000BE71649F6E61649F4E6002D7FF4FCAE97
:1069500022680648402103F079FDFEE64CD303206F
:106960004DC7032030DC03204FBB0B0001D30320B5
:106970005BBB0B0069BB0B0075BB0B0082BB0B0044
:1069800098BB0B00A9BB0B00B6BB0B00D6BB0B0022
:10699000F6BB0B0011BC0B0026BC0B0039BC0B0076
:1069A00057BC0B001FB5244B9B684BBB022911D071
:1069B000042916D0E1B92149684603F008FF6A4668
:1069C00003210120FFF794FE684603F0B5FE05B0F1
:1069D0005DF804FB1949684603F0F9FE6A46042194
:1069E000EFE71649684603F0F2FE6A460521E8E73C
:1069F0001249684603F0EBFE6A4603210220E1E7F4
:106A000004290AD006290FD0022968460B49F1D182
:106A100003F0DDFE6A460021D3E70849684603F02B
:106A2000D6FE6A460121CCE70449684603F0CFFE52
:106A30006A460221C5E700BFA4C603209EB80B002A
:106A400001287FB503D002283CD004B070BD374B7D
:106A50001C6874B9FEF7BEFE3549684603F0B7FE00
:106A60006A4600210320FFF743FE684603F064FEF8
:106A7000EBE7012C1ED100221A602E492E4B0A7022
:106A80001C702E4A2E4B2F481C601368006801337F
:106A900004BF032313602C4B1968013104BF062186
:106AA00019601168091A116028491A680968521A90
:106AB0001A60D1E704F0A8F9254904B0BDE8704098
:106AC00003F053BF234E244A34781368234D9CB1FE
:106AD000296801315B1A68462149136003F077FE8B
:106AE0006A4600210320FFF703FE684603F024FEF8
:106AF000002333702B60A8E71A48591E50F8210074
:106B000002300CD1184850F8211002315B1A144998
:106B10001360684603F05BFE6A462146E2E704F034
:106B200073F9124903F021FF1049F2E79CC60320D4
:106B300077BC0B003DC703204CC703203CDA032081
:106B400024DA032040DA0320A0C6032044DA03201D
:106B500093BC0B0000D3032034DA032038DC03207D
:106B6000A3BC0B0004D70320BCD30320BDBC0B0087
:106B70002DE9FF471E4B1C7834BBDFF88CA01D4E5F
:106B80001D4FDAF80030A3422FDD04F03DF957F82D
:106B9000242056F824301949FDF7ADFF57F824009A
:106BA000421C05D156F82480A14600250134E8E7AF
:106BB000831C04D10135A845C8BF4C46F6E756F8FA
:106BC0002410FEF7F5FEF1E704F01EF90C4903F07E
:106BD000CCFE0C49684603F0FAFD02206A46042107
:106BE000FFF786FD684603F0A7FD04B0BDE8F08717
:106BF00000D30320BCD3032004D70320CEBC0B005A
:106C0000D6BC0B009EB80B0034DA03201FB5044637
:106C1000E0B904F0F9F8214903F0A7FE204B21491F
:106C20001C70684603F0D3FD6A4600210320FFF77D
:106C30005FFD684603F080FD04F0CEFB1849012299
:106C4000002004B0BDE8104003F014BA012808D1B8
:106C500004F0DAF8144903F088FE114B13491C7054
:106C6000DFE7022808D104F0CFF8114903F07DFED8
:106C70000B4B10491C70D4E70328DDD104F0C4F895
:106C80000D4903F072FE064B0C491C70684603F078
:106C90009EFD6A4600212046C9E700BFFCBC0B00F0
:106CA0003EC7032012BD0B002BBD0B0043BD0B00E4
:106CB0005EBD0B0074BD0B008DBD0B00A4BD0B00B1
:106CC0002DE9F04FDFF8248398F80030ADF5457DCD
:106CD000002B34D003F0B6F9AD4FDFF8DC92DFF8CB
:106CE000DCA23860D9F800203B689B1ADAF8002053
:106CF000934203D203F0A6F93860F3E7A54E30467D
:106D000002F062FD0121304601F099FE00254FF0AE
:106D10000113C6E90453A04BA0491C78C0A8002C5D
:106D20005DD103F054FDC0AA21462046FFF7E0FCE8
:106D3000C0A803F001FD002388F8003033619848B3
:106D4000984D02F00FF990B104F05EF8964903F007
:106D5000F9FD934802F0D7FA9448FEF7F5FF0023B7
:106D60002B708D4B1B78002B63D1FEF786FB2B78A5
:106D700023B98F4B1B780BB1FEF7D6FA8D4E3378C3
:106D8000002B67D003F05EF9814B18608A4B1B68BB
:106D9000C01A8A4B1B6898425CD37E48884FDFF844
:106DA000508200240461347002F00EFD7948854E53
:106DB00002F072FF3B68A3424CDD162C43DC824B91
:106DC00022014021D258304603F040FB3146714841
:106DD00003F0B8FD6F4802F05FFF0134EAE7012CD1
:106DE00005D103F0F4FCC0AA214628469EE7032CF7
:106DF000F7D003F0ECFCC0AA02212846FFF778FC8C
:106E0000C0A803F099FC6B4B1D70D9F800203B68BB
:106E10009B1ADAF80020934203D203F013F938608A
:106E2000F3E76A49C0A803F0D2FCC0AA02210120FE
:106E30007CE70220FEF7F5FB0420FEF7F2FB0620BC
:106E4000FEF7EFFB93E7172CC0D14146304604F024
:106E50007DFBBBE7554C03F0D7FF21680A22FDF705
:106E60001FFE03F0D1FF61680A22FDF719FE03F04F
:106E7000CBFFA1680A22FDF713FE03F0C5FFE1680E
:106E80000A22FDF70DFE03F0BFFF21690A22FDF77C
:106E900007FE03F0B9FF61690A22FDF701FE3E4BD0
:106EA0001F78002F40F03A812368DFF84881002BDB
:106EB00000F0A280062B40F01081FEF7F1FA666820
:106EC000012E3FD0022E3FD02EB9A068FFF79EFEC4
:106ED0003F4B1B689847236801331CBF4FF0FF33BB
:106EE0002360D8F80040002C40F304812B78002B5D
:106EF00000F01081374C384D226960680121FEF79F
:106F00006BF9364B287019680246D4F84801FEF731
:106F10000BFB2B78002B00F0EB8031491D4C2948EE
:106F200004F014FB204602F04FFC002325492361A6
:106F3000204603F007FD20460DF5457DBDE8F04FE6
:106F400002F0AABE2E70C6E7A368012B0ED1254918
:106F5000C0A8FDF78FFD03F03AFCC0AA3946032014
:106F6000FFF7C6FBC0A803F0E7FBB4E70B49C0A8D6
:106F700003F02DFCC0AA01213046FFF7B9FBC0A8E1
:106F800003F0DAFB03F040FF174903F0EEFCA2E741
:106F900048D303204CD303203EC703209EB80B00E8
:106FA000F4D6032030DA0320C8BD0B00A4C60320AA
:106FB000E4D603204DC7032030DC032098C603200D
:106FC00034DA032001D3032050DA0320BEBD0B00C6
:106FD00048DA032028CD0320B8E60320DCD60320BE
:106FE000A9C00B00DBBD0B00F6BD0B0097C603204C
:106FF00089BD0B0024DA0320874FE368874ED4F85D
:1070000004A03B60A368DFF84C923360BAF1000F34
:1070100023D103F0F9FE824903F0A7FC814A3368CB
:10702000396851601168002B01F1010118BF02237A
:1070300011601361D9F800207B490132C9F80020A2
:10704000C0A8002B3BD103F0C2FBC0AA0321012042
:10705000FFF74EFBC0A803F06FFBD9F80030002B00
:1070600038DDD4F80490B9F1010F7FF434AF03F0A8
:10707000CBFE6E4903F079FC6D4B22691A603368D0
:107080003A68002B674BC3F84821D3F844210CBF62
:10709000022104210132C3F85411C3F84421D8F865
:1070A0000030022903F101035F49C8F80030C0A88D
:1070B0000AD103F08CFBC0AA0421484650E703F034
:1070C00086FBC0AA5146C2E703F081FBC0AA49462D
:1070D000484645E7FEF728F9FDE601333FF4FBAEED
:1070E0005149C0A803F073FBC0AA3946022037E714
:1070F000504913E70ED12B7863B14B49C0A803F078
:1071000066FBC0AA04210220FFF7F2FAC0A803F030
:1071100013FB2C700DF5457DBDE8F08F012F26681F
:1071200040F0C983012E5AD0062E40F06383666872
:10713000012E2BD0022E2BD02EB9A068FFF766FDB2
:107140003D4B1B6898474FF0FF3323602B78002B93
:10715000E0D03A4E0020FEF751FD3368002B40F09E
:107160005883304BD3F84431002B00F35583344916
:10717000C0A803F02CFBC0AA04210220FFF7B8FA34
:10718000C0A803F0D9FA00232B7061E32E70DAE770
:10719000A068012810D1FDF76DFCFEF71BFB294903
:1071A000C0A803F014FBC0AA00210320FFF7A0FA37
:1071B000C0A803F0C1FAC6E7022803D13846FFF79A
:1071C0003FFCC0E703F020FE1F4903F0CEFB164949
:1071D000C0A803F0FCFAC0AA39460220E6E7DFF8AF
:1071E0003880E368C8F8003003F00EFE17490D4EF2
:1071F000DFF86090164FDFF860A0DFF840B003F0D2
:10720000A1FB6368052B69D8DFE813F02800CB00E9
:1072100052028C02C302DE02E0D60320B0E6032055
:107220001ABE0B0028CD03209EB80B002BBE0B000E
:10723000DCD60320B8C00B0048DA03209CC603202C
:10724000BEC00B00DBBD0B00F6BD0B003EBE0B004D
:1072500024DA03202CDA032028DA0320BD4F03F0C0
:10726000D3FDBD4903F081FB3B78002B5DD0D9F8FD
:107270000020DAF800309A4274D1D8F80000FEF706
:10728000B1FB00284FD0D8F80000B44FFEF7CCFB7C
:10729000386001304DD1A068FEF7A6FD0146386088
:1072A000A068FFF77FFB3968481C4FD0DBF800006F
:1072B000D9F800C0D8F800704FF43B72424302EB9B
:1072C0000C1333445F6027691961C3E90270B35836
:1072D00001330CF10107B350C9F8007003F094FDBD
:1072E0009F4903F042FB03F08FFD9E4903F03DFBF5
:1072F00003F08AFD9C4B9D491A684FF43B7303FBD6
:107300000266D6F844310293994B1B680193994B5E
:107310001B680093984B1B68FDF7EDFB03F074FDB1
:1073200003F017FB0FE73B78B3B903F06DFD93490A
:107330001BE09349C0A803F04AFAC0AA0621012025
:10734000FFF7D6F9C0A803F0F7F9ACE703F05CFD4E
:107350008C4903F00AFBC1E7D9F80020DAF80030C5
:107360009A420CD003F050FD874903F0FEFA84499D
:10737000C0A803F02CFA0221C0AA08460BE003F0D3
:1073800043FD824903F0F1FA7D49C0A803F01FFADA
:10739000C0AA05210220FFF7ABF9C0A803F0CCF981
:1073A0009CE703F031FDDFF8F4A1794903F0DDFA41
:1073B0002369CAF80030674B1B78D3BBD8F80000AC
:1073C000DFF89891FEF792FBC9F80000013040F019
:1073D0009280A068FEF708FD0146C9F80000A06889
:1073E000FFF7E0FAD9F80000421C22D0D7F800C01D
:1073F000DFF8B491DBF80010D8F80020DAF800E0EC
:10740000142303FB0C93C3E95410012183F8581192
:10741000C3E9522ED9F844310B440CEB0102C9F8F0
:1074200044313A6003F0F0FCD9F844110A22FDF728
:1074300037FB584B93F80090B9F1000F7DD0564BB5
:10744000D8F800101B78DFF820A1002B6DD108467A
:10745000FEF74CFBDFF80491C9F80000013057D16A
:10746000A068FEF7C1FC0146C9F80000A068FFF75C
:1074700099FAD9F800104B1C00F0FA80474BDAF863
:1074800000E03868D8F800C0D3F800804FF43B73B0
:1074900003FB0EF2142303FB00233344C3E952C859
:1074A0004FF00108C3E954E183F85881B318404410
:1074B000D3F8442138604244C3F84421BCF1000FA2
:1074C0007FF40CAFC9B201EB0802C0AF0523D2B202
:1074D000384602F07BFC97E80300DFF8D09089E89B
:1074E0000300384602F07FFC484602F021FD2C4B99
:1074F00083F80080F2E62249C0A803F068F9C0AA28
:1075000006210120FFF7F4F8C0A803F015F969E798
:107510001B49C0A803F05BF9C0AA06210120FFF7B0
:10752000E7F8C0A803F008F9A3E7DFF870B0DBF8CC
:107530000000FEF7A1FA00283AD1064B1B78002B79
:107540003FF4CCAEB9F1000F40F0968003F05CFC44
:1075500014490AE73DC703201ABE0B0038DA03209E
:107560001EC00B0026C00B009CC603205BC00B0096
:1075700024DA032028DA03202CDA03206ABE0B0069
:107580009EB80B0052BE0B007DBE0B00B2BE0B00BE
:107590002BBE0B004CC703203CC70320DCD60320C6
:1075A000E4D60320C2BE0B0050C70320ECD6032054
:1075B0000846FEF79BFADFF8CC93C9F800000130CB
:1075C00049D1A068FEF710FC0146C9F80000A06888
:1075D000FFF7E8F9D9F80010481C49D0DAF800E0C4
:1075E000D7F800C0D8F80000DBF800804FF43B73F8
:1075F00003FB0EF2142303FB0C23334403F5A4799D
:10760000C3E95208C3E954E1002389F81030B318E4
:10761000D3F844210132C3F844210CF101033B604B
:1076200000287FF45BAEC9B24A1CC0AF0523D2B2BA
:10763000384602F0CBFB97E80300DFF84C8388E87C
:107640000300384602F0CFFB404602F071FCAA4B23
:1076500001221A7042E6A949C0A803F0B8F8C0AAEE
:1076600006210120FFF744F8C0A803F065F8B1E750
:1076700003F0CAFBA2496CE6A24BD8F800101868C8
:10768000FEF7FAF958B903F0BFFB9F4903F06DF913
:107690009A49C0A803F09BF8C0AA06217AE69B4B42
:1076A0001B78002B7FF41AAE03F0AEFB98495CE622
:1076B00003F0AAFB974903F058F9DBF800305A1C95
:1076C00003D05BBB3A68002A28DD934A0121117080
:1076D000924A93494FF0000882F800808B4ACAF81A
:1076E000008082F800808F4AC9F80080C2F80080CC
:1076F0008D4AC7F800800133C2F800804FF43B7216
:10770000CBF800305343F21846F80380C2F84481A6
:10771000C0A803F05CF8C0AA002132E003F074FBBB
:10772000824922E603F070FB814903F01EF97A4B8F
:107730001B78002B3FF4F9ADDAF80030D9F80020BF
:10774000934220DA3F6807BBDBF80020D4F80880BA
:107750004FF43B7101FB02621A44B8F1000F14BFF1
:107760000121002103F1010382F8D812CAF8003088
:1077700001D17049CCE77049C0A803F028F8C0AA2D
:107780003946032007E63FF7A9AD03F03DFB6B49FF
:10779000EBE503F039FB6A4903F0E7F85E4B1B7831
:1077A000002B3FF4C2ADD9F80030002B08DDDAF829
:1077B0000020934204DD594B624901221A70A7E769
:1077C00003F022FB6049D0E503F01EFB5F4903F0A4
:1077D000CCF8514B1B78002B3FF4A7AD3B68002B36
:1077E00004DD4A4B5A4901221A7091E703F00CFB61
:1077F0005849BAE501363FF4A6AC03F005FB5649FB
:1078000003F0B3F83D49C0A802F0E1FFC0AA00218F
:10781000E3E4012B7FF4ABAC504C4FF4377204F12E
:107820001001684603F03EFE94E80F00FEF7BCF935
:107830004B4C00212070FEF703FA2378002B34D044
:107840004849494803F082FE4749484803F08DF80B
:107850003568012D1FD1414CD4F83034002B28DD80
:1078600004F53F714FF43772684603F01BFE04F5D0
:107870003B730FCBFEF798F9394C29462070FEF781
:10788000DFF923789BB13A49374803F05FFE364968
:10789000364803F057F8354C204602F0FDF92046F3
:1078A00001F092FF0023236134E43249C9E73249F1
:1078B000EAE73249E8E7022F40F0E281022E00F0C9
:1078C0008280062E40F0A181606801285ED00228E7
:1078D0006AD028B9A068FFF799F9294B1B68984727
:1078E0004FF0FF3323602B78002B3FF413ACFFF7EE
:1078F0003FF900232B700DE4E4D603209EB80B0063
:1079000011BC0B00DCD60320D7BE0B003CC7032004
:10791000E8BE0B00FDBE0B003DC703204CC7032093
:107920000ABF0B0040DA032044DA03200DBF0B002E
:107930005FBF0B00AFBE0B0070BF0B0074BF0B002E
:10794000A6BF0B00B5BF0B00BABF0B00D9BF0B0021
:10795000E8BF0B00EDBF0B007EC00B0028CD03205D
:10796000B8E603209FC00B0001D303204CD30320B3
:10797000CFC00B00AEC00B00DEC00B00EEC00B0092
:1079800048DA032038DA0320ECD60320A749287010
:10799000C0A802F01CFFC0AA00210320FEF7A8FE29
:1079A000C0A802F0C9FE9BE7A6681EB9FDF744FF18
:1079B0009F49EDE7012E03D1FDF70CFF9D49E7E755
:1079C000FFF73EF88CE76368012B78D0022B00F0BC
:1079D000BC80002B84D1A168974E984FB8A8FDF7C2
:1079E0009BFFB8A9C0A802F015FFE168BCA8FDF78D
:1079F000C5FFBCA9C0A802F054FF914902F05DFF89
:107A00000146306807EB001002F0F5FEBCA802F05A
:107A100093FEC0A802F090FEB8A802F08DFE336875
:107A2000162B45DC1B018748FA58402102F00EFD59
:107A30008449854802F086FF834802F02DF903F05F
:107A4000E3F9A1680746B8A8FDF766FFB8A9C0A882
:107A500002F0E0FEE168BCA8FDF790FFBCA9C0A859
:107A600002F01FFF01683846FDF745F8BCA802F098
:107A700063FEC0A802F060FEB8A802F05DFED4E983
:107A80000201FDF795FF3368704AA16842F82310A0
:107A90006F4AE16842F82310013333606D4B1B7865
:107AA000002B3FF41DAF6C4A13680133136017E7D6
:107AB000172BC4D16949634803F048FDB8E7654F07
:107AC0003B78002B34D15C4EDFF8708103F09CF9D9
:107AD000634902F04AFF3068624908EB001002F087
:107AE000A4FE3368162B1CDC1B01564858F80320F3
:107AF000402102F0ABFC5349534802F023FF5248A7
:107B000002F0CAF83368514A4FF0FF3142F82310AF
:107B10004F4A002142F823100133336001233B70A8
:107B2000DEE6172BEED14D49464803F00FFDE2E7A4
:107B300003F06AF94C4902F018FF4C49C0A802F062
:107B400046FE0221C0AA084628E7424F3B78002B98
:107B500057D0DFF80481D8F80030002B51DD03F056
:107B600053F94349344EDFF8D49002F0FEFEA16889
:107B70000A220231BCA802F06AFEBCA9C0A802F029
:107B800049FE3C49C0A802F098FE0146306809EB66
:107B9000001002F030FEC0A802F0CEFDBCA802F03A
:107BA000CBFD3368162B25DC1B01264859F8032032
:107BB000402102F04BFC2349234802F0C3FE224837
:107BC00002F06AF83368214A21486FF0010142F857
:107BD0002310D8F8002040F82320A16801329A1A17
:107BE000013302313360002340F822103B70C8F8A3
:107BF000003075E6172BE5D11849124803F0A6FCB2
:107C0000D9E703F001F91C4995E701363FF468AE66
:107C100003F0FAF8194902F0A8FE1449C0A802F0CE
:107C2000D6FDC0AA00213846B8E600BF08C10B0047
:107C300016C10B00DBBD0B0034DA032050DA032041
:107C400076C10B0001D303204CD3032004D70320BB
:107C5000BCD3032000D3032038DC032089BD0B00F4
:107C60006EC10B002DC10B0035C10B009EB80B007F
:107C70006AC10B0073C10B007AC10B007EC00B0000
:107C8000032E774F57D0062E40F08880FDF708FC72
:107C90006668012E29D0022E29D02EB9A068FEF7E1
:107CA000B5FF704B1B68984723683E6801331CBFC3
:107CB0004FF0FF332360002E40F3BD802B78002B64
:107CC0003FF428AA684B694D19695868FDF7FCFA1A
:107CD000E3682860023B0A2B7BD8DFE803F0696E7B
:107CE0007A70729E7A7A7A7AA0002E70DCE7A368A6
:107CF000012B0ED15E49C0A8FCF7BCFE02F067FD67
:107D0000C0AA00210320FEF7F3FCC0A802F014FD76
:107D1000CAE75849C0A802F05AFDC0AA012130465E
:107D2000FEF7E6FCC0A802F007FD03F06DF852492B
:107D300002F01BFEB8E7DFF87CA1E368DFF878917A
:107D4000D4F80480CAF80030A368C9F80030B8F14C
:107D5000000FA9D103F058F8484902F006FE424A44
:107D6000D9F80030DAF8001051601168002B01F1E9
:107D7000010118BF0223116013613A683D490132C5
:107D80003A60C0A82BB902F022FDC0AA31460120FA
:107D9000B9E702F01CFDC0AA4146F8E7013683D0DE
:107DA0003449C0A802F013FDC0AA00210220AAE7AE
:107DB0003349344803F0CAFB0BE03349F9E7334950
:107DC000F7E733492F4803F0C1FB2868FEF78AF82C
:107DD0002860304C204601F0F7FC0023294923613C
:107DE000204602F0AFFD2B682B4A2648402102F0C6
:107DF0002DFB2B68092B14DC284B2361254804211B
:107E000000F01DFE1F49234802F09CFD214801217E
:107E100000F015FE1F48FFF78FB82149C9E7214937
:107E2000C7E7632B01DC204BE7E7B3F57A7FB4BFEC
:107E30001E4B1F4BE1E77FF46DA92B78002B3FF41D
:107E400069A90C49C0A802F0C2FCC0AA0421022002
:107E5000FEF74EFCC0A802F06FFC2E70FFF75AB977
:107E60002CDA032048DA032028CD0320B4E60320CF
:107E7000DBBD0B009EB80B00F6BD0B001ABE0B005D
:107E80009CC10B0001D30320AAC10B00C0C10B0091
:107E9000D4C10B004CD303207BC00B00350019006C
:107EA000ECC10B00FFC10B00280019001B001900DA
:107EB0000A001900E0D60320B0E60320704710B591
:107EC00010210446FCF7BFFD204610BD73B50446E3
:107ED00008462279A36832B1A3B90B4902B0BDE8C4
:107EE000704002F02FBD094A267B094D0949647B89
:107EF000012E18BF2946CDE900140749FCF7EDFD16
:107F000002B070BD054AEFE72BC60B009EB80B0010
:107F100027C60B0023C60B0041C60B001AC60B0078
:107F20002DE9F04F85B01F46BDF93880BDF83C30D3
:107F3000A8EB0209A7EB010AB9F1000FB8BFC9F11C
:107F40000009BAF1000FB8BFCAF1000AD145834653
:107F50000C46154604DD3A462C4647460D469046EB
:107F6000BC4205DD2A464546904622463C46174619
:107F70003E1BB2B20092A8EB050282EAE271A1EBCD
:107F8000E271C6F3C03202FA86F64545B4BF01225B
:107F90004FF0FF32019176100292BC421CDCDBF8FC
:107FA00000200393D145D2F81880C7BF2946224646
:107FB0002A4621465846C047019A039BB61AB1B2D9
:107FC00036B2002E05DA029A1544009A56182DB2E0
:107FD00036B2013424B2E0E705B0BDE8F08F704757
:107FE00010B404682469A4465DF8044B604730B4BB
:107FF0000468BDF808500295A46BA44630BC6047E5
:1080000030B40468BDF808500295E46BA44630BC57
:10801000604770B4BDF90C50BDF810600468CDE93C
:108020000356246CA44670BC60472DE9F3411C46FE
:108030000368BDF820805B6905461646013C344460
:108040000F4624B298472B68CDF8048000949C6AB0
:1080500028463B4632463946A0472B68DB6A28460D
:1080600002B0BDE8F04118472DE9F3411D46036811
:10807000BDF820805B69044617460E469847CDE957
:10808000007822686B1E3344956A20461BB23A463C
:108090003146A8472368DB6A204602B0BDE8F041BC
:1080A00018472DE9F3471E460368BDF928905B6920
:1080B000BDF82C800C460546174698472644B44226
:1080C0002B680BDACDF80080D3F820A021464B4670
:1080D0003A4628460134D04724B2F0E7DB6A284606
:1080E00002B0BDE8F047184713B502680191B0F936
:1080F0000E100091146CB0F90C3000221146A0470C
:1081000002B010BD2DE9F74399421646BDF928701B
:10811000BDF82C90026880460D461C4613D1BE4225
:10812000C8BF3346CDF82890C4BF3E461F467B1CCF
:10813000946B9B1B1BB2324629464046A44603B0B3
:10814000BDE8F0436047BE420AD19942C2BF0B4628
:1081500025461C46631CCDF82890D46B5B1BE9E7D1
:1081600053699847CDE90079D8F8003040469F6AB6
:10817000324623462946B847D8F80030DB6A4046E5
:1081800003B0BDE8F04318472DE9F3471D460368E7
:10819000BDF82C805B69BDF9289004460F46164651
:1081A00098472368CDF80080D3F824A032462B46A8
:1081B00039462046D0472368CDF8008009F1FF32C8
:1081C0003244D3F824A039462B46204612B2D04779
:1081D0002368CDF80080D3F820A032464B463946BC
:1081E0002046D0476B1ED9192368CDF800801D6A40
:1081F00020464B46324609B2A8472368DB6A204630
:1082000002B0BDE8F0471847704701F00303B0F92A
:108210000A208376C907B0F9083059BF8381C2812B
:108220008281C3817047000030B54281C281074A14
:10823000074D0181002481814FF0FF31C0E9051213
:108240004460056004610477046230BD01010001EF
:1082500068CB0B002DE9F04F8BB01C46BDF85830B1
:108260000493A3B2C3F10105C3EBC3335B001BB29C
:108270000793BDF9543001339BB2059393B2069333
:108280008846059B9DF8501003930023029301F04C
:1082900001030893DDF818A001F0020383462DB214
:1082A0000993029BA3426FDA002D6BDB079B02331D
:1082B000661E1AB215FA83F536B207922DB2029FE6
:1082C00001371FFA87F93BB205EB490501359E429C
:1082D00002932DB229DB089B93B104980090DBF840
:1082E00000000699059B006AB2B203EB42038A1AAA
:1082F00009EB080107461BB212B209B25846B8474B
:10830000099B93B106990498059B0090B2B2DBF8E3
:10831000000003EB42038A1AA8EB09011BB2D0F854
:10832000209012B209B25846C847B44220D0089BE8
:1083300073B1DBF80030049A009208EB0401D3F823
:108340002090BDF90C300FFA8AF209B25846C8479E
:10835000099B6BB1DBF80030049A0092A8EB040192
:108360000FFA8AF21C6ABDF90C3009B25846A047D0
:108370000AF1FF331FFA83FA039B02339BB2039384
:1083800034468EE726469AE70BB0BDE8F08F2DE91C
:10839000F0411E4686B00368059104465B69BDF84E
:1083A000307015469847B2B22068009753000133E9
:1083B000AA1AD0F82080059920461BB212B2C047F5
:1083C00003230022CDE90032204633460599029767
:1083D0002A46FFF73FFF2368DB6A204606B0BDE868
:1083E000F04118472DE9F04F8DB01D46BDF958609A
:1083F000BDF86430BDF95C80BDF960700493B24291
:1084000083468946144640F3CE80BA4217DDB74210
:108410000FDA33463E4627461C462B464546C8469D
:1084200099460CE0234634461E464B46A9461D4657
:10843000EDE723463C461F464B46C1469846DBF8CF
:10844000003058465B699847BE4222D14D45C2BFB5
:108450002B464D469946454505DCC145B8BFC1464A
:108460000FFA89F9A846DBF800200499009109F178
:108470000103A3EB0803546A1BB232464146584637
:10848000A047DBF80030DB6A58460DB0BDE8F04F7E
:1084900018471FFA89F30393ABB20293DDE9022375
:1084A0009B1A1BB21FFA86FC0893A3B2A3EB0C0223
:1084B00012B20992029A1FFA88F1A1EB0208BAB22D
:1084C000A2EB0C0C0FFA8CF006900398BC42A2EBC6
:1084D0000302A1EB000118BF03F1FF3312B209B28E
:1084E00018BF1BB24FF000090A920FFA88F80791E3
:1084F00014BF059305943246CA46059B9A4224DC74
:10850000099B02989AFBF3F1029B0B921944069B7C
:1085100099FBF3F30344089809B21BB299428244D1
:1085200004980090C8BF8C46DBF80000C4BF194611
:108530006346406A01335B1A05461BB25846A8479A
:108540000B9A0132C14412B2D7E7079B141B961B4A
:108550005C4308FB06F6BA4293DC0A9B029894FB44
:10856000F3F1039B05921944069B96FBF3F3034436
:1085700009B21BB299420798C8BF8C460444C8BFD1
:10858000194604980090C8BF6346DBF80000013329
:108590005B1AD0F824901BB25846C847059A01329E
:1085A000464412B2D7E7BE423FF73CAF33461C46C3
:1085B00016462B460D4633E72DE9F04F89B0CDE93D
:1085C00002120268BDF948800493BDF94C3052692B
:1085D0000593BDF850A00446904718F107024FF0EC
:1085E000000648BF08F10E024FEAE20B019635463D
:1085F000039B019ABDF904109A18059B8B4212B295
:1086000027DD049B33444FF0000906930FFA89F0ED
:1086100080451FFA89F117DD4F0705BF069BC01083
:108620006D001D5C18BFEDB22B060AD5029B2068B9
:1086300007921944836909B21F4620465346B8473A
:10864000079A09F10109E1E7019B013301935E44B7
:10865000CEE72368DB6A204609B0BDE8F04F184733
:108660002DE9F04F2DED028B91B01646026ABDF850
:1086700074809DF878509DF87C4003911F46BDF8AA
:10868000703004938346002A40F0C580B0F90C3066
:108690008B4240F34C81B0F90E30B34240F3478136
:1086A000062313FB0513002B40F3418106EBC403A3
:1086B000002B40F33C81037F1BB9AF2F84BF0137F0
:1086C000FFB2DBF8003058465B69984705220992F3
:1086D00000220592984A07EB8703D3180C93B3B294
:1086E0000693059A0C9B9B5C0793ABB20B93BDF86A
:1086F0000C300893039B02FB05F919FA83F90FFA72
:1087000089F308EE103A08230A93039B02EB030A4D
:108710004FF000090FFA8AFA079ADBF80030D20707
:1087200052D5012D1FFA89F23ED1012C3CD19B6913
:1087300006991F46049B0A4412B251465846B84750
:1087400009F101034FFA83F9079B5B0807930A9B22
:10875000013B13F0FF030A93DED1059F01377BB283
:108760000593099B013B13F0FF030993B9D1049BC7
:1087700043450FD0012DDBF800303BD1012C39D11E
:108780000899CDF8008005311C6A3246082309B2E9
:108790005846A047DBF80030DB6A584611B0BDEC04
:1087A000028BBDE8F04F1847069914FB02F20A4409
:1087B000049901910094DB6918EE101A1F4612B259
:1087C0002B465846B847BBE7049A4245B8D0012D1E
:1087D0001FFA89F207D1012C05D19B6906991F4622
:1087E0000A444346A8E70699CDF8048014FB02F238
:1087F0000A44DFE70B9ACDF8048002EB8201089A65
:10880000E4000A4411460094DC6932462B4609B262
:108810005846A047BEE7137A516812680B92FF1AB8
:10882000FFB201EBC70331F8372006929A7809921C
:10883000DA780C92012D93F9052093F906A00A929B
:1088400001D8012C57D9BDF9283008930FFA8AF3C3
:108850000793DBF8003058465B699847B3B24FF096
:1088600000080E931AFA86F3C14647460F930C9BF5
:108870009F428FD2079B0E9A3B4403FB04230022A6
:1088800005920F9A1BB202EB070A08EE103A0FFA94
:108890008AFA4346099A0599914241D25A1CD2B2AA
:1088A0005B070D9207D1069B06990B9A01339BB289
:1088B00012F80190069319F0800F12D0012DDBF809
:1088C0000030BDF80C101AD1012C18D10A9A9B69FE
:1088D0001144059A11441E465246049B09B258465B
:1088E000B047059E0136F3B24FEA490905935FFA96
:1088F00089F90D9BCEE70023CDE90733A9E7059859
:10890000089A024402FB0511049ACDE90042DB6992
:1089100018EE102A1E4609B22B465846B047E0E72B
:10892000099B013798445FFA88F8FFB29FE711B0BE
:10893000BDEC028BBDE8F08F5EC60B00F0B5026A9D
:1089400085B004460B46002A34D10A2908D1438A4F
:108950000282427E03EBC2036382012005B0F0BDB8
:108960000D29FAD0E17E007E657E71B1B4F9106008
:10897000062111FB0061B4F90C60B142C1BFB4F92A
:108980001210228201EBC5026282E28A0192A28A5F
:108990000092CDE90205B4F91220B4F91010204676
:1089A000FFF75EFE237E228A03EB430302EB4303C1
:1089B0002382D2E70A2907D100230382417E927ADB
:1089C000438A01FB0233C7E70D29C6D0157AA942B5
:1089D000C3D3517A9942C0D351685D1BEDB201EB0C
:1089E000C505A87828B3E97819B3E17E267E677EAD
:1089F00091B195F905100844B4F9101006FB001167
:108A0000B4F90C00814207DD00202082B4F9121075
:108A1000927A02FB07126282E28A0192A28A009293
:108A2000CDE90267B4F91220B4F910102046FFF71F
:108A300017FE2979227E238A01FB0233B8E7012938
:108A400038BF012101764176704738B504460846A3
:108A500021730121154602F00DFC207B012102F05B
:108A60001AFC28466573012102F004FC607B00219A
:108A700002F011FC204638BD0139C9B208299ABF5D
:108A8000024B53F821000248704700BFB0CC0B00E6
:108A9000B8CB0B0013B50B4C2178BFF35B8F11F0F3
:108AA00001010BD120460191FBF7DCFF019928B1B0
:108AB000054801F037FD2046FBF7D9FF024802B018
:108AC00010BD00BF30C7032034C7032007B5019095
:108AD000FFF7E0FF019903B05DF804EB01F0C8BDBA
:108AE0002DE9F74F07469DF830801E461546002AAF
:108AF00042D001F07E01007B41F08009002102F0AC
:108B0000CAFB4846FFF7E2FF013DEDB24FF0000B14
:108B10004FF0010A5FFA8BF4A54222D9DCB9B8F113
:108B2000000F18D04246D3B2072B61B205D80AFA1B
:108B300002F40C43E4B20132F5E748460191FFF735
:108B4000C5FF33780199044023EA01031C433470C4
:108B50000BF1010BDEE74846FFF7B8FF06F80B0004
:108B6000F6E70020FFF7B2FF7055387B012103B014
:108B7000BDE8F04F02F08FBB03B0BDE8F08F38B511
:108B80000C4605460021007B04F07E0402F083FBC6
:108B900044F08000FFF79AFF0020FFF797FF0121C4
:108BA0000446287B02F077FB204638BDF8B50F4617
:108BB00006460021007B15461C4602F06CFB07F0C0
:108BC0007E00FFF783FF2544AC4204D014F8010B6C
:108BD000FFF77CFFF8E7307B0121BDE8F84002F0A9
:108BE0005ABB70B504460E46007B0021154602F0C4
:108BF00052FB06F07E00FFF769FF2846FFF766FF8D
:108C0000207B0121BDE8704002F045BB70B51646DF
:108C100004460D46FFF7B3FF3043C2B22946204653
:108C2000BDE87040FFF7DDBF70B5164604460D463F
:108C3000FFF7A5FF20EA0600C2B229462046BDE89C
:108C40007040FFF7CEBF08221021FFF7EDBFF8B547
:108C5000044615460F46002202211E46FFF7C1FFBB
:108C600004220A212046FFF7BCFF8022142120465F
:108C7000FFF7CCFF2A463B4612212046FFF796FF1E
:108C8000032202212046FFF7ACFF41F288350A217A
:108C90002046FFF774FF430705D4013DADB2002D18
:108CA000F5D104200FE0002202212046FFF799FFB2
:108CB00044212046FFF763FF422130702046FFF732
:108CC0005EFF70700120F8BD10B50F22022104462E
:108CD000FFF787FF322001F002FF02212046FFF755
:108CE0004EFFC306F9D410BD10B528210446FFF786
:108CF00046FF00F00303032B08D040F00302D2B27A
:108D000020462821BDE81040FFF76BBF10BD10B50D
:108D10000446407B02F0D8FA48BB607B012102F098
:108D2000BAFA322001F0DBFE204680225421FFF700
:108D300058FF2046A9225621FFF753FF2046032261
:108D40005821FFF74EFF2046E8225A21FFF749FF3E
:108D5000204640222A21FFF744FF20463D222221BF
:108D6000FFF73FFF2046BDE81040FFF7BDBF20469C
:108D7000FFF7AAFFD8E72DE9F04F89B0DDE91356D8
:108D8000DDF8549003929DF85C209DF858B0049251
:108D900004468A460027B9F1000F3ED099F80080BA
:108DA0000593002202212046FFF71BFF7F220821A6
:108DB0002046FFF716FF08EB0B18802214212046EF
:108DC000FFF724FF5FFA88F8059B9DF848201221E1
:108DD0002046FFF7EBFE42461A212046FFF701FF2F
:108DE000524602212046FFF7FCFEBAF10C0F04D1D7
:108DF00080221A212046FFF709FF4FF4FA68082164
:108E00002046FFF7BCFE039B184208D1C30702D4DB
:108E1000B8F10108F3D104204DE0C846C0E70C21A9
:108E20002046FFF7ACFE10F0130F804646D1DDB1AF
:108E3000D6B114212046FFF7A2FE337883420246C2
:108E40003ED330702B4612212046CDF800B0FFF7FC
:108E500047FE18212046FFF792FE00F00707B9F100
:108E6000000F01D089F8007018F0080F2AD15DB307
:108E700056B3049B43B33278012A03D1042F25D182
:108E8000092018E022D90FBB023A07ABD2B229461B
:108E90002046FFF7DCFE01280DD133781D449DF8F4
:108EA0001C3015F8022C9A4210D115F8012C9DF8AF
:108EB0001D309A420AD109B0BDE8F08F0220FAE7CE
:108EC0000520F8E70320F6E70120F4E70820F2E7A1
:108ED00010B586B09DF82C4005949DF82840049468
:108EE000099C0394089C0092CDE9013430220B4682
:108EF0000C21FFF740FF06B010BD70B588B00646E4
:108F00001C468DF8171015461AB31B78012B20D973
:108F100080221C21FFF788FE07238DF81F300023D5
:108F2000CDE902330DF11F03CDE9004301222B46A9
:108F30000DF117013046FFF7CBFF012807D1237849
:108F4000022B08D19DF81F30002B18BF022008B05B
:108F500070BD0520FBE70220F9E713460A462621EB
:108F6000FFF7CBBF07B502230DF1030201A98DF86E
:108F70000330FFF7F2FF00F0FD00431E5842584156
:108F800003B05DF804FB70B586B050238DF8143043
:108F900000240DF11603022205A906468DF815409E
:108FA000FFF755FE012805460FD1CDE90244CDE972
:108FB00000442346042205A93046FFF789FF042810
:108FC00003D0012814BF05460225284606B070BD0F
:108FD0007FB506461D461446CAB11B78112B16D91B
:108FE000302313705170931C21460222FFF72FFE8D
:108FF00001280AD10023CDE90133039000952346CF
:10900000042221463046FFF763FF04B070BD0520FF
:10901000FBE710B58AB00C9C8DF81D201A689B8860
:10902000ADF8223063788DF82430A3788DF82530A0
:10903000E3788DF8263023798DF827300023CDE9A9
:109040000433CDE9023301930C238DF81C10CDF8C5
:109050001E200093102207AB0E21FFF78CFE0AB0F2
:1090600010BD2DE9F04F502A8BB082460F46904636
:1090700000F2408180221C21FFF7D6FD93238DF85A
:109080001C30B8F1000F00F0BC803C78042C94BF79
:1090900000230123012500260BE095238DF81C30C9
:1090A000B8F1000F00F0AF803C78072C94BF00238C
:1090B0000123A8EBC60464B224EAE474002B00F098
:1090C000A48088228DF81E20032114F0070218BF07
:1090D000012202EBE40212F0FF02E0B21DD0002BED
:1090E00014BF4FF003094FF0040906F1010C91453C
:1090F00094BF01EB090E01EB020E57FA8CFC5FFAEC
:109100008EFE0A460DF1280B0131C9B25A441CF8F3
:10911000019B02F80C9C7145F3D10BB1083044B2AD
:109120001F2C74DD4FF070039DF81F208DF81D304B
:109130009DF81E3053409DF8202053409DF821207B
:1091400053408DF8223007220DF1230307A9504622
:10915000FFF77DFD0128814640F0C88000238DF88F
:109160001A3003238DF81B3004940DF1220B4FF0BD
:1091700009099DF81A30059303EB0312D2B21A21A4
:109180005046FFF72EFD059B02930DF11A030022B6
:1091900001930DF11B03039200934A465B4607A916
:1091A0005046FFF795FE032881464CD11C215046BE
:1091B000FFF7E5FC810600F1998010F01F0008BF61
:1091C0002020A04240F38780431E03F0070244B2F0
:1091D00013F007034FEAD00018BF012301301844F1
:1091E0000AAB1844012303FA02F210F80C3C1343B3
:1091F00000F80C3C94E797238DF81C300626234694
:1092000057E7434646E7434653E702215DE7E3104D
:109210000233DBB204F0070214F007098DF81A20BC
:1092200002EB03128DF81D2018BF4FF0010907AAA9
:10923000994402EB030BC3F109035FFA89F98DF836
:109240001B30049495E7012850D1049B1F2B4FF04D
:1092500020047FF767AF9DF81E30882B3ED1032393
:109260001A4601361A4457FA86F6D2B219460AA8A7
:1092700001330144DBB211F80C1C06F8011B9342C8
:10928000F4D19DF81B60032E37D19DF81A40A4BB82
:109290000DF11E03012259465046FFF7D8FC012864
:1092A000814623D19DF81E209BF801309A4227D198
:1092B0009DF81F209BF802309A4221D19BF8003084
:1092C0005A070ED50135EDB2032D94D0042D02D0EE
:1092D000022D3FF4E2AE4FF0060907E0022304221C
:1092E000BFE705EB45050135FB723D7048460BB005
:1092F000BDE8F08F4FF00709F8E74FF00209F5E7F6
:109300004FF00809F2E708B501460022FFF7A9FE71
:10931000431E5842584108BD0160704710B50446CD
:109320000121008801F0A6FF2088002101F0B3FF91
:10933000022000F07FFE2088012101F0ACFF052013
:1093400000F078FE2088002101F0A5FF2088002190
:1093500001F090FF2088012101F0FCFF3A2390FBEF
:10936000F3F010BD10B5037201238171C271037453
:1093700010BD10B504460021807901F07BFFA07973
:10938000012101F088FF0023E36010BD2DE9F843BF
:10939000044600F057FEE368834284BF0023E36085
:1093A000237C23B9E368C01AB0F5FA6F67D30025B0
:1093B000257400F047FE0121E0602560A079257149
:1093C00001F069FFFA2001F08AFBA079012101F088
:1093D00051FF2946A07901F05EFF142001F07FFBC8
:1093E00001F038FD0121A07901F055FF282000F09F
:1093F00021FEA079294601F03DFF2E4601274FF0BE
:109400000008A07901F060FFB8425FFA88F908D13E
:10941000012008F1010800F00DFEB8F1FF0FF0D1B6
:10942000C146A07901F050FFB9F1FF0FC7B214D0C7
:10943000032D0ED9EA070CD4F2080136A35C5B00B9
:10944000DBB2A354217A49453CBF43F00103A35446
:10945000F6B20135EDB2552DD1D101F0FDFC272E2C
:109460000FD9637820781844A3781844E378184417
:109470002379C0B2C31A58425841BDE8F88301208D
:10948000FBE70020F9E7000010B50446FFF77EFF78
:1094900020B3E3790B2B1BD0153B012B1ED8A378EF
:1094A000DFED106A03F07F0207EE102AE27807EE84
:1094B000902AB8EEC77AF8EEE77A1B06E7EE267A2E
:1094C000B2EE047A87EE870A07D5B1EE400A04E0CF
:1094D000A37800EE103AB8EE400A10BD9FED020AE4
:1094E000FBE700BF000080430000C07FFFF7CCBF58
:1094F00010B5044B03600446C06A08B100F096FF43
:10950000204610BDD0D20B0010B50446FFF7F0FF87
:1095100020465021FBF797FA204610BD002910B5D0
:109520004BDBB0F90C408C4247DD002A45DBB0F93B
:109530000E40944241DD847E022C1FD0032C26D0A5
:10954000012C04D10489D24314440A4621B2012BD0
:1095500023D0022B32D083BB002A13460489C06A71
:10956000B8BFD31DDB1013FB041102F00702012367
:109570009340425C22EA030242541EE00489013C0B
:10958000611A4489D243224409B212B2DFE7448906
:10959000013C641A114622B2D9E7002A0489134615
:1095A000B8BFD31DDB1013FB0411C36A02F0070020
:1095B00001228240585C02435A5410BD002A1346CF
:1095C0000489C06AB8BFD31DDB1013FB041102F07D
:1095D0000702012303FA02F2435C5A40CCE7000081
:1095E00070B5402204460E468021FEF71DFE002580
:1095F0000D4B2360656201F021FFFF2384F83330B7
:1096000084F83630094BA3634FF6FF720123C4E997
:109610000A05A28684F8376084F83C302564A4F8F3
:109620004450204670BD00BFD0D20B00DCCC0B00F4
:10963000F8B50446806A0D4690B194F9301001F0F7
:10964000E1FCA06A036800219B689847A06A036850
:1096500029469B689847A06ABDE8F84001F0D9BC4C
:1096600094F93530014698B201F015FE606A20B1D8
:109670002946BDE8F84000F0FBBF0826802794F992
:10968000330005EA070180B201F005FE94F93400C9
:10969000012180B201F0FFFD94F93400002180B275
:1096A00001F0F9FD013E4FEA5707E8D1F8BD38B5A2
:1096B0000446806A0D4680B1A16C01F095FC002D36
:1096C000204614BFA721A621FFF7B2FFA06A88B1E8
:1096D000E16CBDE8384001F087BC606A18B104F164
:1096E000380100F057FF94F93600002180B201F0F4
:1096F000D2FDE4E794F93600012180B201F0CBFD00
:10970000606A18B1BDE8384000F02ABF38BD2DE9C5
:10971000F8430446806A0D468F1840B394F9301020
:1097200001F070FCA06A036800219B68984701263D
:10973000AF42A06A17D01F2E0CD901F06AFC94F931
:109740003010A06A01F05EFCA06A036800219B68EB
:1097500098470126A06A15F8011B036801369B682B
:109760009847F6B2E4E7BDE8F84301F052BC94F93B
:109770003530014698B201F08EFDBD4222D0606ABC
:1097800015F8019B18B1494600F072FFF5E708266D
:109790004FF0800894F9330009EA080180B201F023
:1097A0007AFD94F93400012180B201F074FD94F93E
:1097B0003400002180B201F06EFD013E4FEA5808EE
:1097C000E8D1DAE7BDE8F883B0F90A30DA1D48BF1E
:1097D00003F10E02B0F90830C06AD2105A430021DA
:1097E00001F06EBE2DE9FF411E46C36A9DF8288038
:1097F00004460F461546D3B12046FFF7E5FFB4F9FE
:109800000A20202A25DCB4F908102023203A7339D5
:109810000120CDE9013002EBD272732301EBD1714B
:10982000009342F34F02854B41F34F011BE0B0F927
:109830000A30D81D48BF03F10E00B4F90830C0103B
:10984000584300F0EBFDE0620028D5D104B0BDE83C
:10985000F08140234FF0010CCDE9013C80230093BF
:109860000022774B11462046FEF7A6FEA06A84F838
:109870003170002878D0002D74D1B4F90A30202B33
:109880000CBF3C253D2584F83050B8F1000F01D0C5
:1098900001F0AEFBFEB194F9370000281BDB01217B
:1098A00080B201F0E7FC94F93700012180B201F0A9
:1098B000F2FC012001F013F994F93700002180B285
:1098C00001F0E9FC0A2001F00AF994F937000121BE
:1098D00080B201F0E0FCA06A002874D0A16C01F015
:1098E00083FB042257492046FFF711FF61890139A4
:1098F000C9B22046FFF79CFE534904222046FFF7D9
:1099000006FF94F93130012B0CBF102114212046A1
:10991000FFF78EFE04224D492046FFF7F8FEA368AC
:109920004B4A93425CD14B4904222046FFF7EFFE9D
:10993000D9212046FFF77CFE94F93130012B0CBF72
:109940002221F1212046FFF773FE204642490622DC
:10995000FFF7DDFEA06A002863D0E16C01F044FB54
:10996000012073E76DB28EE794F93500012180B2D2
:1099700001F080FC94F93600012180B201F07AFCFC
:1099800094F93600012180B201F085FC656A3DB191
:10999000B8F1000F3FF47EAF284600F0CDFD79E727
:1099A00094F93300012180B201F064FC94F9340091
:1099B000012180B201F05EFC94F93400294680B2A6
:1099C00001F069FC66E7606A18B104F1380100F043
:1099D000E1FD94F93600002180B201F05CFC80E7E3
:1099E0001E4A93420ED11E4903222046FFF78FFEE6
:1099F00094F93130012B0CBF9F21CF212046FFF776
:109A000017FE95E7174A934292D117490322204641
:109A1000FFF77DFE94F93130012B0CBF1021AF21EF
:109A2000ECE794F93600012180B201F034FC606A61
:109A3000002895D000F094FD92E700BFE8CC0B0021
:109A4000C8CE0B0030D30B0034D30B0038D30B003F
:109A50008000200042D30B003CD30B00800040006C
:109A600046D30B006000100049D30B0070B5002AEC
:109A7000BDF810503DDBB0F90A40944239DD0029B1
:109A8000BEBF5B181BB20021B0F90840CE18A64239
:109A9000C4BF631A1BB2002B2BDDC06AD61014FBA7
:109AA0000611014402F0070001228240012DD2B2CA
:109AB00016D0022D0BD0E5B9D243D2B20B44994255
:109AC00017D011F8010B104001F8010CF7E70B4417
:109AD00099420ED011F8010B504001F8010CF7E744
