:02000002B0004C
:1040000000400B00F2D60B00000006000C00050279
:084010000401B41400000000DB
:04401800C4B60B001F
:1040200081F0004102E000BF83F0004330B54FEA69
:1040300041044FEA430594EA050F08BF90EA020FD6
:104040001FBF54EA000C55EA020C7FEA645C7FEA69
:10405000655C00F0E2804FEA5454D4EB5555B8BF8C
:104060006D420CDD2C4480EA020281EA030382EAFD
:10407000000083EA010180EA020281EA0303362D8F
:1040800088BF30BD11F0004F4FEA01314FF4801C62
:104090004CEA113102D0404261EB410113F0004F74
:1040A0004FEA03334CEA133302D0524263EB43032B
:1040B00094EA050F00F0A780A4F10104D5F1200EC9
:1040C0000DDB02FA0EFC22FA05F2801841F1000124
:1040D00003FA0EF2801843FA05F359410EE0A5F1F8
:1040E00020050EF1200E012A03FA0EFC28BF4CF029
:1040F000020C43FA05F3C01851EBE37101F00045DF
:1041000007D54FF0000EDCF1000C7EEB00006EEBEB
:104110000101B1F5801F1BD3B1F5001F0CD3490875
:104120005FEA30004FEA3C0C04F101044FEA4452CC
:1041300012F5800F80F09A80BCF1004F08BF5FEA53
:10414000500C50F1000041EB045141EA050130BD33
:104150005FEA4C0C404141EB0101013C28BFB1F545
:10416000801FE9D291F0000F04BF01460020B1FA90
:1041700081F308BF2033A3F10B03B3F120020CDA63
:104180000C3208DD02F1140CC2F10C0201FA0CF041
:1041900021FA02F10CE002F11402D8BFC2F1200CA6
:1041A00001FA02F120FA0CFCDCBF41EA0C0190405C
:1041B000E41AA2BF01EB0451294330BD6FEA0404A5
:1041C0001F3C1CDA0C340EDC04F11404C4F1200290
:1041D00020FA04F001FA02F340EA030021FA04F3A2
:1041E00045EA030130BDC4F10C04C4F1200220FAF9
:1041F00002F001FA04F340EA0300294630BD21FA37
:1042000004F0294630BD94F0000F83F4801306BFFC
:1042100081F480110134013D4EE77FEA645C18BFF0
:104220007FEA655C29D094EA050F08BF90EA020F87
:1042300005D054EA000C04BF1946104630BD91EA7F
:10424000030F1EBF0021002030BD5FEA545C05D182
:104250004000494128BF41F0004130BD14F58004C1
:104260003CBF01F5801130BD01F0004545F0FE4135
:1042700041F470014FF0000030BD7FEA645C1ABF6A
:10428000194610467FEA655C1CBF0B46024650EAA1
:10429000013406BF52EA033591EA030F41F40021CD
:1042A00030BD00BF90F0000F04BF0021704730B553
:1042B0004FF4806404F132044FF000054FF0000128
:1042C00050E700BF90F0000F04BF0021704730B5E9
:1042D0004FF4806404F1320410F0004548BF4042BE
:1042E0004FF000013EE700BF42004FEAE2014FEA13
:1042F00031014FEA02701FBF12F07F4393F07F4FEE
:1043000081F06051704732F07F4208BF704793F0F0
:104310007F4F04BF41F40021704730B54FF4607403
:1043200001F0004521F000411CE700BF50EA010206
:1043300008BF704730B54FF000050AE050EA0102AF
:1043400008BF704730B511F0004502D5404261EB1F
:1043500041014FF4806404F132045FEA915C3FF460
:10436000D8AE4FF003025FEADC0C18BF03325FEAFD
:10437000DC0C18BF033202EBDC02C2F1200300FAAE
:1043800003FC20FA02F001FA03FE40EA0E0021FAD3
:1043900002F11444BDE600BF70B54FF0FF0C4CF4C1
:1043A000E06C1CEA11541DBF1CEA135594EA0C0F73
:1043B00095EA0C0F00F0DEF82C4481EA030621EAAE
:1043C0004C5123EA4C5350EA013518BF52EA0335E9
:1043D00041F4801143F4801338D0A0FB02CE4FF09B
:1043E0000005E1FB02E506F00042E0FB03E54FF0CB
:1043F0000006E1FB03569CF0000F18BF4EF0010EC3
:10440000A4F1FF04B6F5007F64F5407404D25FEABE
:104410004E0E6D4146EB060642EAC62141EA555171
:104420004FEAC52040EA5E504FEACE2EB4F1FD0CB3
:1044300088BFBCF5E06F1ED8BEF1004F08BF5FEA31
:10444000500E50F1000041EB045170BD06F00046E3
:1044500046EA010140EA020081EA0301B4EB5C0490
:10446000C2BFD4EB0C0541EA045170BD41F4801188
:104470004FF0000E013C00F3AB8014F1360FDEBFAD
:10448000002001F0004170BDC4F10004203C35DA89
:104490000C341BDC04F11404C4F1200500FA05F30C
:1044A00020FA04F001FA05F240EA020001F00042AD
:1044B00021F0004110EBD37021FA04F642EB060123
:1044C0005EEA430E08BF20EAD37070BDC4F10C044D
:1044D000C4F1200500FA04F320FA05F001FA04F211
:1044E00040EA020001F0004110EBD37041F10001FD
:1044F0005EEA430E08BF20EAD37070BDC4F1200508
:1045000000FA05F24EEA020E20FA04F301FA05F26F
:1045100043EA020321FA04F001F0004121FA04F217
:1045200020EA020000EBD3705EEA430E08BF20EAE7
:10453000D37070BD94F0000F0FD101F00046400021
:1045400041EB010111F4801F08BF013CF7D041EAA3
:10455000060195F0000F18BF704703F000465200A7
:1045600043EB030313F4801F08BF013DF7D043EA78
:104570000603704794EA0C0F0CEA135518BF95EA2E
:104580000C0F0CD050EA410618BF52EA4306D1D1B5
:1045900081EA030101F000414FF0000070BD50EAD4
:1045A000410606BF1046194652EA430619D094EA5E
:1045B0000C0F02D150EA013613D195EA0C0F05D148
:1045C00052EA03361CBF104619460AD181EA03019C
:1045D00001F0004141F0FE4141F470014FF0000054
:1045E00070BD41F0FE4141F4780170BD70B54FF0EF
:1045F000FF0C4CF4E06C1CEA11541DBF1CEA13556F
:1046000094EA0C0F95EA0C0F00F0A7F8A4EB050450
:1046100081EA030E52EA03354FEA013100F0888047
:104620004FEA03334FF0805545EA131343EA126310
:104630004FEA022245EA111545EA10654FEA0026C5
:104640000EF000419D4208BF964244F1FD0404F57E
:10465000407402D25B084FEA3202B61A65EB0305DA
:104660005B084FEA32024FF480104FF4002CB6EB97
:10467000020E75EB030E22BFB61A754640EA0C0017
:104680005B084FEA3202B6EB020E75EB030E22BF57
:10469000B61A754640EA5C005B084FEA3202B6EB98
:1046A000020E75EB030E22BFB61A754640EA9C0057
:1046B0005B084FEA3202B6EB020E75EB030E22BF27
:1046C000B61A754640EADC0055EA060E18D04FEAE5
:1046D000051545EA16754FEA06164FEAC30343EA85
:1046E00052734FEAC2025FEA1C1CC0D111F4801F52
:1046F0000BD141EA00014FF000004FF0004CB6E74B
:1047000011F4801F04BF01430020B4F1FD0C88BFE9
:10471000BCF5E06F3FF6AFAEB5EB030C04BFB6EBF4
:10472000020C5FEA500C50F1000041EB045170BDE7
:104730000EF0004E4EEA113114EB5C04C2BFD4EB14
:104740000C0541EA045170BD41F480114FF0000E98
:10475000013C90E645EA060E8DE60CEA135594EA14
:104760000C0F08BF95EA0C0F3FF43BAF94EA0C0F17
:104770000AD150EA01347FF434AF95EA0C0F7FF48C
:1047800025AF104619462CE795EA0C0F06D152EAE0
:1047900003353FF4FDAE1046194622E750EA4106C4
:1047A00018BF52EA43067FF4C5AE50EA41047FF4D5
:1047B0000DAF52EA43057FF4EBAE12E74FF0FF3C3A
:1047C00006E000BF4FF0010C02E000BF4FF0010C0B
:1047D0004DF804CD4FEA410C7FEA6C5C4FEA430C84
:1047E00018BF7FEA6C5C1BD001B050EA410C0CBFD3
:1047F00052EA430C91EA030F02BF90EA020F002035
:10480000704710F1000F91EA030F58BF994208BF9B
:1048100090422CBFD8176FEAE37040F00100704758
:104820004FEA410C7FEA6C5C02D150EA013C07D1AF
:104830004FEA430C7FEA6C5CD6D152EA033CD3D0FA
:104840005DF8040B704700BF8446104662468C46F4
:104850001946634600E000BF01B5FFF7B7FF002827
:1048600048BF10F1000F01BD4DF808EDFFF7F4FF50
:104870000CBF012000205DF808FB00BF4DF808EDDB
:10488000FFF7EAFF34BF012000205DF808FB00BFFE
:104890004DF808EDFFF7E0FF94BF012000205DF820
:1048A00008FB00BF4DF808EDFFF7CEFF94BF0120D5
:1048B00000205DF808FB00BF4DF808EDFFF7C4FFCE
:1048C00034BF012000205DF808FB00BF4FEA410221
:1048D00012F5001215D211D56FF47873B3EB625252
:1048E00012D94FEAC12343F0004343EA505311F079
:1048F000004F23FA02F018BF404270474FF000000B
:10490000704750EA013005D111F0004008BF6FF048
:10491000004070474FF00000704700BF4FEA41026F
:10492000B2F1E04324BFB3F5001CDCF1FE5C0DD90D
:1049300001F0004C4FEAC0024CEA5070B2F1004F57
:1049400040EB830008BF20F00100704711F0804F5A
:1049500021D113F13872BCBF01F00040704741F41F
:1049600080114FEA5252C2F11802C2F1200C10FA23
:104970000CF320FA02F018BF40F001004FEAC12307
:104980004FEAD32303FA0CFC40EA0C0023FA02F3AB
:104990004FEA4303CCE77FEA625307D150EA013381
:1049A0001EBF4FF0FE4040F44000704701F0004051
:1049B00040F0FE4040F40000704700BF034613F88B
:1049C000012B002AFBD1181A0138704709480A49FF
:1049D000884208B505D0094A824202D0121A06F070
:1049E00053FD0748074A0021121A06F05BFD0148F3
:1049F00008BD00BF74C6032008D60B0030C70320D3
:104A000030C70320F0E7032070B5074E074C06F0CF
:104A1000CBF8A41BA4080025AC4200D170BD56F809
:104A2000043B98470135F7E7C0D50B00E4D50B00F0
:104A300001F08ABA08B502F05DF9BDE8084006F059
:104A40006BB805F0DDBC05F0E3BC000008B5034A17
:104A500003490C2005F038FCFEE700BF19A00B004D
:104A6000D8B60B000078B0FA80F0400970470123F7
:104A700003707047064A00231360C2F84431054AA8
:104A80001360C2F84431044A1360044A136070474B
:104A900028CD032050C703202CDA032024DA03207A
:104AA00070B505460C46164642B90368C9B29B6804
:104AB00098472846BDE8704005F03DBF00290ADA56
:104AC0000A2A08D12D2105F033FF6142F2B22846AF
:104AD00005F047FFEDE72146F8E70EB403B503AB59
:104AE000002153F8042B019305F059FF02B05DF843
:104AF00004EB03B070470EB403B503AB012153F8C8
:104B0000042B019305F04BFF02B05DF804EB03B0FA
:104B1000704707B5014601A804F0F0FB01A804F0B6
:104B2000EFFB09288CBF0020012003B05DF804FBD7
:104B300007B5014601A804F0E1FB01A804F0E0FB81
:104B40000A28D4BF0020012003B05DF804FB02282E
:104B500008B50BD004280BD060B9132006F0B9FBC0
:104B6000B0F57A7FB4BF0020012008BD1120F5E721
:104B70000F20F3E70020F8E7022808B50BD004283F
:104B80000BD060B9132006F0A4FBB0F57A7FCCBF40
:104B90000020012008BD1120F5E70F20F3E70020D9
:104BA000F8E70000022810B519D0042819D0D0B9B0
:104BB000132006F08EFB044606F018F90A2221465F
:104BC000FFF76EFFB4F5C86F084AA4BF0C2313604B
:104BD0001368002B07DD013B1360012010BD11207D
:104BE000E7E70F20E5E70020F8E700BF4CDA0320F5
:104BF00008B580B206F06DFBB0F52F7FCCBF00206A
:104C0000012008BD07B580B20021019006F024FB09
:104C1000019806F04BFB431E5842584103B05DF823
:104C200004FB07B580B20021019006F015FB019846
:104C300006F03CFBB0FA80F0400903B05DF804FBDD
:104C4000022807B530D0042830D018B9132006F058
:104C500040FB0190DDED017AF8EEE77A17EE900A5D
:104C6000FFF742FB14A3D3E90023FFF795FB14A33E
:104C7000D3E90023FFF7BAFCFFF750FEDFED0C7A13
:104C800007EE100A67EE277AF1EE046A87EEA67A3D
:104C9000DFED087AB4EEE77AF1EE10FA94BF012066
:104CA000002003B05DF804FB1120D0E70F20CEE711
:104CB000000096430000B4436666666666660A4076
:104CC0000000000000F88F40022807B530D004280B
:104CD00030D018B9132006F0FCFA0190DDED017A0E
:104CE000F8EEE77A17EE900AFFF7FEFA14A3D3E97D
:104CF0000023FFF751FB14A3D3E90023FFF776FC51
:104D0000FFF70CFEDFED0C7A07EE100A67EE277A4C
:104D1000F1EE046A87EEA67ADFED087AB4EEE77A60
:104D2000F1EE10FAACBF0120002003B05DF804FBE7
:104D30001120D0E70F20CEE7000096430000B443D7
:104D40006666666666660A400000000000F88F40EE
:104D500038B584B2651C00212046ADB206F07CFA5D
:104D60002846002106F078FA204606F09FFA30B96E
:104D7000284606F09BFA431E5842584138BD002091
:104D8000FCE738B584B2651CADB20021284606F0B8
:104D900063FA2046002106F05FFA284606F086FAFC
:104DA00030B9204606F082FA431E5842584138BDB9
:104DB0000020FCE738B584B2651C00212046ADB266
:104DC00006F04AFA2846002106F046FA204606F088
:104DD0006DFA30B9284606F069FAB0FA80F0400959
:104DE00038BD0020FCE738B584B2651C00212046A0
:104DF000ADB206F031FA0021284606F02DFA204621
:104E000006F054FA012806D1284606F04FFA431E50
:104E10005842584138BD0020FCE7022810B512D096
:104E2000042812D018B9132006F053FA044605F0EE
:104E3000DDFF0A222146FFF733FEB4F5FA6FACBF5F
:104E40000020012010BD1120EEE70F20ECE7022822
:104E500008B50DD004280DD018B9132006F039FA82
:104E6000034640F6C4108342D4BF0020012008BD91
:104E70001120F3E70F20F1E730B52DED028B87B05D
:104E8000C1B206230B2201A804F05EFA01A804F0C7
:104E900062FA01A804F01CFBB5EE400AF1EE10FA2C
:104EA000B4EE400A0CBF01240024F1EE10FA68BFF2
:104EB00044F00104B0EE408A002CEAD105F096FFE0
:104EC000054618EE100AFFF70FFA02460B46284671
:104ED0000A49FFF710FEB5EEC08AF1EE10FA08DDC0
:104EE000F2EE007AB4EEE78AF1EE10FA4CBF01243C
:104EF0000024204607B0BDEC028B30BDEDB60B00A0
:104F000010B52DED028B86B0C1B206230B2201A88D
:104F100004F01AFA01A804F01EFA01A804F0D8FA65
:104F2000B4EE400AF1EE10FAB0EE408AF5D6B5EED6
:104F3000400AF1EE10FAF0D005F058FF044618EEE2
:104F4000100AFFF7D1F902460B4620460C49FFF73D
:104F5000D2FDF1EE0C7AB4EEE78AF1EE10FA04DC41
:104F6000002006B0BDEC028B10BDF3EE0A7AB4EE61
:104F7000E78AF1EE10FA4CBF01200020F1E700BFF4
:104F8000EDB60B0030B52DED028B87B0C1B2062314
:104F90000B2201A804F0D8F901A804F0DCF901A85B
:104FA00004F096FAB5EE400AF1EE10FAB4EE400ABB
:104FB0000CBF01240024F1EE10FA68BF44F0010494
:104FC000B0EE408A002CEAD105F010FF054618EE3D
:104FD000100AFFF789F902460B4628460B49FFF7EE
:104FE0008AFDF3EE097AB4EEE78AF1EE10FA08DDF5
:104FF000DFED077AB4EEE78AF1EE10FA4CBF012438
:105000000024204607B0BDEC028B30BDEDB60B008E
:105010000000484207B5014601A804F06FF901A855
:1050200004F06EF903B05DF804FB000010B52DED3F
:10503000048B9FED1B9A3224B1EE048A132006F0F4
:1050400048F907EE900AF8EEE77A013C67EE887AB5
:1050500087EE897A78EE878AF0D19FED127A9FEDFC
:10506000126AC8EE877A9FED117A67EE877A87EE2B
:10507000887ABDEC048BDFED0E7A27EE277AC7EE37
:10508000066A77EEE67AF5EEC07AF1EE10FA48BFDE
:10509000DFED087AFDEEE77A17EE900A10BD00BF4B
:1050A00000C07F4400004842000096440000964340
:1050B000000087430000000037B53224002513208C
:1050C00006F007F9013C0544F9D16423009340F64A
:1050D000FF7223462146322095FBF0F005F0A2FC3A
:1050E00003B030BD000000002DE9F04104F09CFF4A
:1050F0004FF480650746002604F096FFC01B312858
:1051000018D8132006F0E5F8044605F06FFE0A22D1
:105110008046214605F025FC404605F00CFCB4F520
:10512000806FE9D2A64203D3A54228BF2546E3E714
:105130002646E1E7701BFFF7B5F89FED094B9FEDA1
:105140000A3B9FED0B2B9FED0C1B41EC100B05F068
:1051500075FC51EC100BFFF7B9FBBDE8F08100BF07
:1051600000000000008056400000000000C04840E1
:105170000000000000208C400000000000003440CF
:105180007FB5C1B206230B2201A804F0DDF801A807
:1051900004F0E1F801A804F09BF9B5EE400AF1EE45
:1051A00010FAF7D0B4EE400AF1EE10FAF2D6FDEEA6
:1051B000C07A17EE900A07B05DF804FB022805D00C
:1051C000042805D030B9132006F083B81120FBE77E
:1051D0000F20F9E70020704708B50346013B104651
:1051E0000B2B5FD8DFE803F0060B141D222B0640C3
:1051F0004653575BA1BBBDE80840FFF78ABC19B90D
:10520000BDE80840FFF7B8BCBDE80840FFF79FBC09
:1052100019B9BDE80840FFF7EBBCBDE80840FFF74F
:10522000C1BC19BBBDE80840FFF7FBBC19B9BDE81C
:105230000840FFF749BDBDE80840FFF701BD01295F
:1052400006D0022908D059B9BDE80840FFF714BEBE
:10525000BDE80840FFF754BEBDE80840FFF792BE26
:10526000BDE80840FFF764BC0029DBD1BDE8084079
:10527000FFF7C8BC012906D003290CD039B9BDE815
:105280000840FFF7B0BDBDE80840FFF761BDBDE8CD
:105290000840FFF776BDBDE80840FFF78BBD41B180
:1052A00001290AD005F0A2FD064905F050FB0020B7
:1052B00008BDBDE80840FFF7B0BDBDE80840FFF7F6
:1052C000C6BD00BFF6B60B0008B50346023B084654
:1052D0000A2B1FD8DFE803F0060A1E0E12161E1E48
:1052E0001E1E1A00BDE80840FFF7E6BEBDE80840F4
:1052F000FFF7FABEBDE80840FFF798BEBDE80840DA
:10530000FFF73EBFBDE80840FFF784BEBDE8084098
:10531000FFF754BF05F06AFD024905F018FB4FF096
:10532000FF3008BDF6B60B0007B500230448009314
:105330001A46194604F0A6FD03B05DF804FB00BF51
:10534000ECD6032007B5002304480093FF2219463A
:1053500004F098FD03B05DF804FB00BFECD6032019
:1053600007B50A23002200930348FF23114604F0E7
:1053700089FD03B05DF804FBECD6032007B5FF23DD
:105380000093002303481A46194604F07BFD03B03E
:105390005DF804FBECD6032007B50021044800911A
:1053A000E923FF2204F06EFD03B05DF804FB00BFAB
:1053B000ECD6032007B575230093044846236C22DE
:1053C000002104F05FFD03B05DF804FBECD6032080
:1053D00007B50021044800918023FF2204F052FD0C
:1053E00003B05DF804FB00BFECD6032007B5FF2334
:1053F000044800931A46002104F044FD03B05DF810
:1054000004FB00BFECD6032010B5114C2368052B1C
:1054100009D8DFE803F0030D10131619FFF792FF08
:10542000236801332360BDE81040962005F049BB96
:10543000FFF7CEFFF4E7FFF7AFFFF1E7FFF790FFCD
:10544000EEE7FFF7B7FFEBE7FFF798FF0023E9E789
:1054500044D3032008B50121062005F00EFF0121E9
:10546000062005F00AFF0121072005F006FFBDE830
:1054700008400121072005F000BF08B500210620E3
:1054800005F0FBFE0021062005F0F7FE00210720B5
:1054900005F0F3FEBDE808400021072005F0EDBE51
:1054A00008B5FFF7D7FF642005F00BFBFFF7E5FF1A
:1054B000BDE80840642005F004BB08B1FFF75EBFFB
:1054C000FFF786BF08B1FFF767BFFFF773BF08B1EB
:1054D000FFF746BFFFF736BF08B560B1FFF786FF9D
:1054E0004FF4C87005F0EDFAFFF71EFFBDE8084065
:1054F000C82005F0E6BABDE80840FFF715BF08B1BF
:10550000FFF774BFFFF710BF08B1FFF77DBFFFF7CC
:105510000BBF08B1FFF7C4BFFFF7AFBF08B1FFF77C
:1055200099BFFFF7AABF0000012838B50D46144601
:1055300027D00D283BD048BB052927D8DFE801F04C
:1055400003080D12171CBDE838401046FFF7BFBF17
:10555000BDE838401046FFF7B5BFBDE838401046FB
:10556000FFF7ABBFBDE838401046FFF7B5BFBDE859
:1055700038401046FFF7C8BFBDE838401046FFF777
:10558000BEBFFFF7D1FE45B1012D0BD005F02EFCBB
:10559000BDE838400F4905F0DAB92046BDE838408B
:1055A000FFF7BCBF2046BDE83840FFF7B2BFFFF7AA
:1055B00064FFFFF7B9FE0121112005F04DFE34B163
:1055C00028223221BDE83840112005F099BE22463C
:1055D0002146F7E709B70B0008B5FFF707FF4FF4BF
:1055E000C87005F06EFAFFF79FFEBDE80840C820BE
:1055F00005F067BA13B584B22046012105F03DFEDF
:105600002046012105F039FE601C80B20121019085
:1056100005F033FE0198012102B0BDE8104005F00D
:105620002CBE13B584B22046002105F026FE20468C
:10563000002105F022FE601C80B20021019005F0DF
:105640001CFE0198002102B0BDE8104005F015BE17
:1056500010B50446FFF7CEFF642005F032FA20466D
:10566000FFF7DFFFBDE81040642005F02ABA000014
:1056700008B5072825D8DFE800F004080C10141836
:105680001C20BDE80840FFF76BBEBDE80840FFF7EF
:1056900059BEBDE80840FFF77FBEBDE80840FFF7F0
:1056A00089BEBDE80840FFF769BEBDE80840FFF7C6
:1056B0008FBEBDE80840FFF78FBFBDE80840FFF789
:1056C000A3BE05F093FBBDE80840014905F03FB9D2
:1056D00019B70B0038B50C4605460121A0B205F0FC
:1056E000BBFD45B1012D0BD005F080FBBDE8384076
:1056F000064905F02CB92046BDE83840FFF77ABFCF
:105700002046BDE83840FFF7A3BF00BF09B70B0034
:1057100037B50C460546FFF7B0FEFFF705FE042C33
:105720009ABF0D4B1B574FF0FF3398B201210190E8
:1057300005F092FD012D07D832220198114603B0E1
:10574000BDE8304005F0DCBD05F050FB034903B077
:10575000BDE8304005F0FBB8EFC10B0009B70B0006
:10576000042807B59ABF084B18564FF0FF3080B297
:105770000121019005F070FD00220198114603B04F
:105780005DF804EB05F0BCBDEFC10B0038B50C466D
:10579000054618B9BDE83840FFF7C6BD0021A0B2E4
:1057A00005F06BFD0D2D04D12046BDE83840FFF714
:1057B000D7BF38BD0346012B0846114604DC0BB9A0
:1057C000FFF756BFFFF786BF0D2B01D1FFF7A0BF34
:1057D00070470000012804D0022813D088B9FFF7D1
:1057E00049B90C4A002313700B4A13700B4A13700B
:1057F0000B4A4FF0FF3111600A4A032111600A4A37
:1058000013607047094A00231360094A1370094A5C
:10581000F6E700BF3DC703204CC703203CC7032069
:105820009CC60320A0C603203CDA032034DA032000
:1058300000D3032038DC03200E4A1368013B1360B9
:105840000D4A52F823108A1C0C4A07D1012111700D
:105850000B4A52F823200B4B1A607047013102D1DA
:1058600000231370704713781BB1064A1368013B7D
:105870001360704734DA032004D7032000D30320D9
:10588000BCD3032038DC032008B5072816D8DFE88E
:1058900000F00407090B0D0F11130C4B186808BD1D
:1058A0000B4BFBE70B4BF9E70B4BF7E70B4BF5E724
:1058B0000B4BF3E70B4BF1E70B4BEFE705F096FAD9
:1058C0000A4905F044F84FF0FF30E8E774C60320BA
:1058D00088C6032084C603207CC6032090C603200C
:1058E00080C603208CC6032078C6032028B70B008F
:1058F000022808B503D8064B33F9100008BD05F09F
:1059000075FA044905F023F84FF0FF30F6E700BFC1
:10591000F4C10B0037B70B0010B50446072919D89E
:10592000DFE801F0040A0C0E101214160A49204692
:1059300004F03FFF204610BD0849F8E70849F6E7A4
:105940000849F4E70849F2E70849F0E70849EEE7B3
:105950000849ECE70849EAE79BBB0B0046B70B0098
:1059600049B70B004CB70B004FB70B0053B70B00F8
:1059700056B70B0059BD0B0028B70B00012910B515
:10598000044607D0022907D041B9054904F011FFA8
:10599000204610BD0349F9E70349F7E70349F5E756
:1059A00059B70B005CB70B005FB70B0037B70B00A4
:1059B00013B50C46FFF768FF01902046FFF798FFEC
:1059C000019900220446062005F03AFA204605F027
:1059D00078F8062005F04BFA1E2002B0BDE8104012
:1059E00005F06FB810B50D4B1A680D4B4FF43B71B5
:1059F0004A4399581344002291420DDD5C68844269
:105A000003F1100306D105F0F1F9064904F09FFFF8
:105A1000002010BD0132EFE70120FAE79CC6032009
:105A200028CD032062B70B00F0B5114B114A1E6858
:105A3000944600239E4217DB1768154600218F42CB
:105A40000EDD6C68844205F1100507D14FF43B72FE
:105A5000534303EB011363441869F0BD0131EEE7D2
:105A6000013302F53B72E5E74FF0FF30F5E700BF89
:105A70009CC6032028CD0320F0B51D4B1D4A1E688F
:105A8000944600239E4215DBD2F84471154600214E
:105A90008F4224DDD5F84841844205F114051CD11C
:105AA0004FF43B725343142202FB01336344D3F897
:105AB0005401F0BD104BD3F84441002219469442E2
:105AC00013DDD3F84851A84203F114030BD114237A
:105AD00003FB0212D2F85401EBE70131D8E701339E
:105AE00002F53B72CEE70132E9E74FF0FF30E0E725
:105AF0009CC6032028CD032050C7032030B50C4B93
:105B00004FF43B7202FB01310022D1F844411346AD
:105B1000944208DDD1F84851854201D12BB90123C7
:105B200001321431F4E7002030BD1846FCE700BF15
:105B300028CD032084B0F8B506AC84E80F00DDE979
:105B400007010A9AFFF748FB06AD0446BCAF0126E1
:105B5000069BB34212DDD5E905012A6AFFF73CFB3B
:105B600017F8013B33B1002C08BF00200136103577
:105B70000446EDE7002C18BF2046F7E72046BDE8B5
:105B8000F84004B0704730B503782D2B0CBF0122CC
:105B90000022134603440A24002013F8011B303965
:105BA000CDB2092D02D804FB0010F6E702B1404245
:105BB00030BD38B514460D4605F0C2FC043C40B17A
:105BC000FFF7E1FF294644F8040F002005F0B8FC78
:105BD000F5E738BD37B58DF807200DF107030A4604
:105BE00001460D480D4D03F0E5F90128287010D04D
:105BF00005F0FCF80A4904F097FE05F0F7F829785B
:105C00000446054802F02AFF0146204604F09FFEA4
:105C1000002003B030BD00BFF4D6032034DC0320E5
:105C200092B70B00F0B58DB01E4D1F4A00951F4B6B
:105C300012781F4F06466021284603F0DCF9012840
:105C400038700FD005F0D2F81A4904F06DFE05F057
:105C5000CDF839780446284602F000FF0146204678
:105C600004F075FE144B1222187807A9FFF7B2FF53
:105C7000B0B107AC0FCC03AD0FC523682B8005F086
:105C8000B5F80E4903AAFEF736FF0D49324603A8C0
:105C9000FFF78FFF034803F068F9024802F0C5FFE1
:105CA0000DB0F0BDF4D60320C0C60320E5D6032016
:105CB00034DC0320A9B70B0094C60320C5B70B0042
:105CC00095C603202DE9F047044605F08FF81C49DE
:105CD000DFF874A004F03BFE1A4B4FF43B7000FB5E
:105CE00004340025A146D9F84431AB421CDDD4F878
:105CF0004861D4F85471D4F84C113A463046FFF755
:105D000059FD4FF01E08504603F01EF970B1394698
:105D10003046FFF73BFD0C4803F0E7FA0B48FFF76E
:105D200081FF0B4B00221A70BDE8F087B8F1010823
:105D3000E9D139463046FFF729FD01351434D2E761
:105D4000D1B70B0050C70320F4D60320A4C603200C
:105D500030DA03202DE9F74F224CDFF88CB04FF4F6
:105D60003B7303FB014481460E464FF00008A246F8
:105D7000DAF84431434521DD94F85831D4F84851DC
:105D8000D4F854714B4523D1D4F84C113A462846E7
:105D9000FFF710FD1E235846019303F0D5F8019B31
:105DA00078B139462846FFF7F1FC0F4803F09DFA19
:105DB0000E48FFF737FF0E4B00221A7003B0BDE804
:105DC000F08F013BE7D139462846FFF7DFFC05E0BD
:105DD00031462846FFF792FE0028F4D008F101086A
:105DE0001434C5E728CD0320F4D60320A4C603202D
:105DF00030DA032010B540B9324B1C68052C58D856
:105E0000DFE804F0051322323D482F4BF5E704F09C
:105E1000EDFF2E4904F088FD2A4A13680133136010
:105E20002B4A1368013313601CE004F0DFFF29499B
:105E300004F07AFD234A136801331360244A13687F
:105E40000133136002240DE004F0D0FF224904F076
:105E50006BFD1C4B4FF0FF321A601D4A1368013373
:105E600013600424204610BD04F0C0FF1B4904F059
:105E70005BFD154A136801331360194ADFE704F02C
:105E8000B5FF184904F050FD0F4A13680133136041
:105E9000134AC6E704F0AAFF134904F045FD0A4B74
:105EA0004FF0FF321A600E4A136801331360062464
:105EB000D8E704F09BFF0D4904F036FD4FF0FF34A6
:105EC000D0E700BF3CDA0320A0C60320D5B70B0003
:105ED00040DA0320ECB70B0003B80B001AB80B0034
:105EE00044DA032031B80B0048B80B005FB80B0050
:105EF00010B5094A0949136823B9086001231360E2
:105F0000086810BD0C68844203D1052B01DC013305
:105F1000F5E7013BF3E700BFACE60320BCC6032076
:105F2000064B1B784BB9064A1368013B1360054AC0
:105F3000D2F84431013BC2F8443170473DC70320D9
:105F400024DA032050C7032070B58AB0002407A8C4
:105F5000CDE90744ADF8244004F058FE43482346F9
:105F6000224621464068424C04F002FA04F03EFF0B
:105F70004FF4165104F02EFF2178BFF35B8F11F020
:105F800001010BD120460591FEF76CFD059928B162
:105F9000384804F0B9FA2046FEF769FD3548364C1A
:105FA000012504F0BBFA2B463C2202213348009520
:105FB00003F00AFC314803F0F9FB304803F05EFEC1
:105FC0002F4802F096FE2F4AFF21117051709170F8
:105FD000D1701171517105F0F1F9002004F034F81D
:105FE000FF2820700DD104F001FF0026264904F09F
:105FF000AEFC267005F0E2F92A462146304604F050
:106000002BF8247854BB0121062005F025F91F4800
:1060100003F080FF1E4B01221A701E4A13680133E1
:1060200013604FF43B711C4A4B43D118D450C1F854
:10603000444140230122CDE9013200228023114650
:1060400000930E48154B02F0A9FA0C4803F016FE17
:1060500003F0EAFF124B18600AB070BD012CE8D0C3
:106060000121062005F0F8F8E3E700BF10E7032060
:1060700030C7032034C703203EC703204CD303207E
:10608000F4D60320E5D6032087B80B00ECD6032016
:10609000E4D603209CC6032028CD0320FAC10B00C0
:1060A00030DC0320052370B51A460421AA48AB4D05
:1060B000AB4E03F07DFEAB4BAB4800241C60C3F835
:1060C0004441C3F8EC42C3F83044A84B4FF0FF31D1
:1060D0001C60C3F84441C3F8EC42C3F8304403F0F9
:1060E00071FAA349A34804F064FBA149A24804F053
:1060F00060FBA249A24804F05CFBA249A24804F05C
:1061000058FBA249A24804F054FBA249A24804F05B
:1061100050FBA249A24804F04CFBA249A24804F05B
:1061200048FBA249A24804F044FBA249A24804F05B
:1061300040FBA249A24804F03CFBA249A24804F05B
:1061400038FBA249A24804F034FBA249A24804F05B
:1061500030FBA249A24804F02CFBA249A24804F05B
:1061600028FB7F49A14804F024FB7D49A04804F0A6
:1061700020FBA049A04804F01CFBA049A04804F063
:1061800018FBA049A04804F014FBA049A04804F063
:1061900010FBA049A04804F00CFBA049A04804F063
:1061A00008FBA049A04804F004FBA049A04804F063
:1061B00000FBA049A04804F0FCFAA049A04804F064
:1061C000F8FAA049A04804F0F4FAA049A04804F065
:1061D000F0FAA049A04804F0ECFAA049A04804F065
:1061E000E8FAA049A04804F0E4FAA049A04804F065
:1061F000E0FAA049A04804F0DCFAA049A04804F065
:10620000D8FAA049A04804F0D4FAA049A04804F064
:10621000D0FAA049A04804F0CCFAA049A04804F064
:10622000C8FAA049A04804F0C4FAA049A04804F064
:10623000C0FAA049A04804F0BCFAA049A04804F064
:10624000B8FAA049A04804F0B4FAA049A04804F064
:10625000B0FAA049A04804F0ACFAA049A04804F064
:10626000A8FAA049A04804F0A4FAA049A04804F064
:10627000A0FAA049A04804F09CFAA049A04804F064
:1062800098FAA049A04804F094FAA049A04804F064
:1062900090FAA049A04804F08CFAA049A04804F064
:1062A00088FAA049A04804F084FAA049A04804F064
:1062B00080FAA049A04804F07CFAA049A04804F064
:1062C00078FAA049A04804F074FAA049A04804F064
:1062D00070FAA049A04804F06CFAA049A04804F064
:1062E00068FAA049A04804F064FAA049A04804F064
:1062F00060FAA049A04804F05CFAA049A04804F064
:1063000058FAA049A04804F054FAA049A04804F063
:1063100050FAA049A04804F04CFAA049A04804F063
:1063200048FAA049A04804F044FAA049A04804F063
:1063300040FAA049A04804F03CFAA049A04804F063
:1063400038FAA049A04804F034FAA049A04804F063
:1063500030FAA04940E100BFECD603208CDC0320DA
:1063600086B80B0028CD03204CD3032050C7032050
:1063700094B80B009CD30320ACD3032002B90B00CC
:106380007CE3032016B90B008CE3032046BA0B0014
:106390009CE3032096B80B00ACE303209CB80B00F1
:1063A000BCE30320A3B80B00CCE30320AAB80B0086
:1063B000DCE30320B2B80B00ECE30320BAB80B0017
:1063C000FCE30320C2B80B000CE40320CAB80B00A6
:1063D0001CE40320D2B80B002CE40320DAB80B0035
:1063E0003CE40320E2B80B004CE403205CE403200F
:1063F0006CE40320EAB80B00BCE10320F4B80B0006
:10640000CCE10320FEB80B00DCE1032008B90B004F
:10641000ECE1032012B90B00FCE103201CB90B00D6
:106420000CE2032026B90B001CE2032030B90B005C
:106430002CE203203AB90B003CE2032044B90B00E4
:106440004CE203204EB90B005CE2032058B90B006C
:106450006CE2032062B90B007CE203206CB90B00F4
:106460008CE2032076B90B009CE2032080B90B007C
:10647000ACE203208AB90B00BCE2032094B90B0004
:10648000CCE203209EB90B00DCE20320A8B90B008C
:10649000ECE20320B2B90B00FCE20320BCB90B0014
:1064A0000CE30320C6B90B001CE30320CEB80B009D
:1064B0002CE30320D0B90B003CE30320D6B90B003A
:1064C0004CE30320DEB80B005CE30320E6B80B00CE
:1064D0006CE30320DCB90B007CE40320E4B90B007F
:1064E0008CE40320ECB90B009CE40320F4B90B000E
:1064F000ACE40320FCB90B00BCE4032004BA0B009D
:10650000CCE403200CBA0B00DCE4032014BA0B002B
:10651000ECE403201CBA0B00FCE4032024BA0B00BB
:106520000CE503202CBA0B001CE5032034BA0B0049
:106530002CE503203CBA0B003CE5032044BA0B00D9
:106540004CE503204CBA0B005CE5032054BA0B0069
:106550006CE503205CBA0B007CE5032064BA0B00F9
:106560008CE503206CBA0B009CE5032074BA0B0089
:10657000ACE503207CBA0B00BCE5032084BA0B0019
:10658000CCE503208CBA0B00DCE5032094BA0B00A9
:10659000ECE503209CBA0B00FCE50320A2BA0B003B
:1065A0000CE60320A8BA0B001CE60320AEBA0B00D1
:1065B0002CE60320B4BA0B003CE60320BABA0B0069
:1065C0004CE60320C0BA0B005CE60320C6BA0B0001
:1065D0006CE60320CCBA0B00314804F0EAF83149EC
:1065E000314804F0E6F83149314804F0E2F8314925
:1065F000314804F0DEF83149314804F0DAF8314925
:10660000314804F0D6F83149314804F0D2F8314924
:10661000314804F0CEF83149314804F0CAF8314924
:10662000314804F0C6F82149304804F0C2F8304936
:10663000304804F0BEF83049304804F0BAF8304928
:10664000304804F0B6F83049304804F0B2F8304928
:10665000304804F0AEF828193146103404F0A9F897
:10666000B4F5966FF7D12C482C4D104E082210210E
:1066700002F0DDF9002428193146103404F099F8AD
:10668000B4F5F07FF7D1264B0022C3E90022A2F532
:1066900080329A60BDE87040022003F01DBE00BF4A
:1066A0007CE60320D2BA0B008CE6032086B80B00F0
:1066B0009CE60320D8BA0B003CE10320DEBA0B00B5
:1066C0004CE10320E4BA0B005CE10320EABA0B00C2
:1066D0006CE10320F0BA0B007CE10320F6BA0B005A
:1066E0008CE10320FCBA0B009CE10320ACE1032009
:1066F00002BB0B003CDC03200DBB0B004CDC032079
:1067000017BB0B005CDC032021BB0B006CDC0320FF
:106710002CBB0B007CDC0320F4D6032050DA0320D2
:1067200040C703202DE9F041994F88B0064638460E
:106730000D46144603F03AF800233B61954B0122C5
:106740001A7003F071FC944B1860032E16D8DFE822
:1067500016F004002D00F0001601032D0ED8DFE81E
:1067600005F00207090B8D498D4804F0E1FE0EE0AB
:106770008C49F9E78C49F7E78C49F5E78C4988485B
:1067800004F0D6FE04F032FB894904F0E0F804F08E
:106790002DFB834904F0DBF881497D4804F0C4F8FF
:1067A0007B4808B0BDE8F04103F068BA062DE5D893
:1067B000DFE805F00437516C90B0BD00214604A815
:1067C00004F01AF87B4904A804F069F84021026833
:1067D000734803F02DFE04A803F0A0FF1424012544
:1067E000322628224FF03C081146694833462827B4
:1067F000CDE90285CDE9004601F0E6FD23462246BB
:10680000314663480195009701F03DFC4621CDE9F2
:106810000285CDE90071502322465D4801F0D4FD88
:10682000B5E7214604A803F0E7FF624904A804F095
:1068300036F8402102685A4803F0FAFD04A803F034
:106840006DFF28230120CDE900301422194650485D
:1068500001F019FC9BE7214604A803F0CDFF554940
:1068600004A804F01CF8402102684D4803F0E0FD44
:1068700004A803F053FF64235A220121CDE900321A
:10688000CDE9023114221E233C21C6E7214604A88B
:1068900003F0B2FF474904A804F001F84021026860
:1068A0003F4803F0C5FD28240126432504A803F032
:1068B00035FF34231422CDE90246CDE900453448A2
:1068C0003C2101F081FDCDE90246CDE900453423AC
:1068D0003C22D9E7214604A803F08EFF354904A8DD
:1068E00003F0DDFF402102682D4803F0A1FD04A85C
:1068F00003F014FF0123009332220F233C2124488C
:1069000001F037FD28230022CDE900320A215A2365
:1069100032229CE72749224804F00AFE0123009313
:106920001B480F2328223C2101F023FD2FE7224999
:106930001AE7062D3FF622AFDFE805F00406080A45
:106940000C1D1F001D490FE71D490DE71D490BE7F1
:106950001D4909E71D4904A803F02BFF214604A89F
:1069600003F091FF402102680D4803F061FD04A887
:1069700003F0D4FE0BE71649F6E61649F4E6002DBF
:106980007FF4FCAE22680648402103F051FDFEE68C
:106990004CD303204DC7032030DC032037BB0B0052
:1069A00001D3032043BB0B0051BB0B005DBB0B00AD
:1069B0006ABB0B0080BB0B0091BB0B009EBB0B00A6
:1069C000BEBB0B00DEBB0B00F9BB0B000EBC0B000B
:1069D00021BC0B003FBC0B001FB5244B9B684BBB7D
:1069E000022911D0042916D0E1B92149684603F0E3
:1069F000E0FE6A4603210120FFF794FE684603F09B
:106A00008DFE05B05DF804FB1949684603F0D1FE20
:106A10006A460421EFE71649684603F0CAFE6A4653
:106A20000521E8E71249684603F0C3FE6A460321E0
:106A30000220E1E704290AD006290FD0022968467E
:106A40000B49F1D103F0B5FE6A460021D3E70849AE
:106A5000684603F0AEFE6A460121CCE70449684669
:106A600003F0A7FE6A460221C5E700BFA4C60320C3
:106A700086B80B0001287FB503D002283CD004B0B3
:106A800070BD374B1C6874B9FEF7A4FE35496846E3
:106A900003F08FFE6A4600210320FFF743FE68469D
:106AA00003F03CFEEBE7012C1ED100221A602E49B8
:106AB0002E4B0A701C702E4A2E4B2F481C601368F8
:106AC0000068013304BF032313602C4B19680131A4
:106AD00004BF062119601168091A116028491A6853
:106AE0000968521A1A60D1E704F080F9254904B008
:106AF000BDE8704003F02BBF234E244A347813685E
:106B0000234D9CB1296801315B1A68462149136005
:106B100003F04FFE6A4600210320FFF703FE68469C
:106B200003F0FCFD002333702B60A8E71A48591EC0
:106B300050F8210002300CD1184850F821100231D1
:106B40005B1A14491360684603F033FE6A46214617
:106B5000E2E704F04BF9124903F0F9FE1049F2E7BD
:106B60009CC603205FBC0B003DC703204CC703201D
:106B70003CDA032024DA032040DA0320A0C60320F5
:106B800044DA03207BBC0B0000D3032034DA03205B
:106B900038DC03208BBC0B0004D70320BCD30320BC
:106BA000A5BC0B002DE9FF471E4B1C7834BBDFF85A
:106BB0008CA01D4E1D4FDAF80030A3422FDD04F0EB
:106BC00015F957F8242056F824301949FDF793FF9A
:106BD00057F82400421C05D156F82480A146002510
:106BE0000134E8E7831C04D10135A845C8BF4C46F1
:106BF000F6E756F82410FEF7DBFEF1E704F0F6F8AE
:106C00000C4903F0A4FE0C49684603F0D2FD0220B3
:106C10006A460421FFF786FD684603F07FFD04B055
:106C2000BDE8F08700D30320BCD3032004D70320A2
:106C3000B6BC0B00BEBC0B0086B80B0034DA0320D8
:106C40001FB50446E0B904F0D1F8214903F07FFEF6
:106C5000204B21491C70684603F0ABFD6A460021B9
:106C60000320FFF75FFD684603F058FD04F0A6FB24
:106C700018490122002004B0BDE8104003F0ECB92F
:106C8000012808D104F0B2F8144903F060FE114B5A
:106C900013491C70DFE7022808D104F0A7F8114956
:106CA00003F055FE0B4B10491C70D4E70328DDD1CF
:106CB00004F09CF80D4903F04AFE064B0C491C7089
:106CC000684603F076FD6A4600212046C9E700BF0A
:106CD000E4BC0B003EC70320FABC0B0013BD0B0045
:106CE0002BBD0B0046BD0B005CBD0B0075BD0B0042
:106CF0008CBD0B002DE9F04FDFF8DC8298F80030F6
:106D0000ADF5457D002B34D003F08EF99B4FDFF8B5
:106D10009492DFF894A23860D9F800203B689B1A5F
:106D2000DAF80020934203D203F07EF93860F3E7EB
:106D3000934E304602F03AFD0121304601F071FEDB
:106D400000254FF00113C6E904538E4B8E491C7881
:106D5000C0A8002C5DD103F02CFDC0AA214620461E
:106D6000FFF7E0FCC0A803F0D9FC002388F800304E
:106D700033618648864D02F0E7F890B104F036F8AA
:106D8000844903F0D1FD814802F0AFFA8248FEF752
:106D900049FF00232B707B4B1B78002B63D1FEF740
:106DA0006CFB2B7823B97D4B1B780BB1FEF7BCFA3B
:106DB0007B4E3378002B67D003F036F96F4B1860A9
:106DC000784B1B68C01A784B1B6898425CD36C48A0
:106DD000764FDFF8088200240461347002F0E6FC8C
:106DE0006748734E02F04AFF3B68A3424CDD162C05
:106DF00043DC704B22014021D258304603F018FB8F
:106E000031465F4803F090FD5D4802F037FF0134E2
:106E1000EAE7012C05D103F0CCFCC0AA21462846A4
:106E20009EE7032CF7D003F0C4FCC0AA0221284639
:106E3000FFF778FCC0A803F071FC594B1D70D9F81E
:106E400000203B689B1ADAF80020934203D203F03B
:106E5000EBF83860F3E75849C0A803F0AAFCC0AAD1
:106E6000022101207CE70220FEF7DBFB0420FEF775
:106E7000D8FB0620FEF7D5FB93E7172CC0D141467F
:106E8000304604F055FBBBE73E4B434C1F78266869
:106E9000002F40F03981DFF84881002E00F0A280F9
:106EA000062E40F01081FEF7FBFA6668012E3FD0F7
:106EB000022E3FD02EB9A068FFF7C2FE3F4B1B68E1
:106EC0009847236801331CBF4FF0FF332360D8F885
:106ED0000040002C40F304812B78002B00F010813F
:106EE000374C384D226960680121FEF775F9364B41
:106EF000287019680246D4F84801FEF715FB2B7874
:106F0000002B00F0EB8031491D4C294804F010FBA8
:106F1000204602F04BFC002325492361204603F064
:106F200003FD20460DF5457DBDE8F04F02F0A6BEFD
:106F30002E70C6E7A368012B0ED12549C0A8FDF726
:106F400099FD03F036FCC0AA39460320FFF7EAFB9F
:106F5000C0A803F0E3FBB4E70B49C0A803F029FC89
:106F6000C0AA01213046FFF7DDFBC0A803F0D6FB25
:106F700003F03CFF174903F0EAFCA2E748D30320E3
:106F80004CD303203EC7032086B80B00F4D6032061
:106F900030DA0320B0BD0B00A4C60320E4D60320E2
:106FA0004DC7032030DC032098C6032034DA0320C9
:106FB00001D3032050DA0320A6BD0B0048DA0320DA
:106FC00028CD0320B8E60320DCD6032089C00B00BF
:106FD000C3BD0B00DEBD0B0097C6032071BD0B00C7
:106FE00024DA03209A4FE3689A4ED4F804A03B6059
:106FF000A368DFF8A8923360BAF1000F23D103F041
:10700000F5FE954903F0A3FC944A33683968516052
:107010001168002B01F1010118BF022311601361F7
:10702000D9F800208E490132C9F80020C0A8002BF1
:107030003BD103F0BEFBC0AA03210120FFF772FB86
:10704000C0A803F06BFBD9F80030002B38DDD4F872
:107050000490B9F1010F7FF434AF03F0C7FE81490A
:1070600003F075FC804B22691A6033683A68002B84
:107070007A4BC3F84821D3F844210CBF02210421E4
:107080000132C3F85411C3F84421D8F80030022962
:1070900003F101037249C8F80030C0A80AD103F017
:1070A00088FBC0AA0421484650E703F082FBC0AA2F
:1070B0005146C2E703F07DFBC0AA4946484645E772
:1070C000FEF732F9FDE601363FF4FBAE6449C0A895
:1070D00003F06FFBC0AA3946022037E7634913E784
:1070E0000ED12B7863B15E49C0A803F062FBC0AA41
:1070F00004210220FFF716FBC0A803F00FFB2C7041
:107100000DF5457DBDE8F08F012F40F00F84012E75
:1071100000F08180062E40F064836668012E46D020
:10712000022E46D02EB9A068FFF78AFD504B1B688F
:1071300098474FF0FF3323602B78002BE0D04D4F62
:107140003B789BB94C4B4D4E1978C0AC4A1C05237B
:10715000D2B2204602F02CFE94E8030086E8030039
:10716000204602F032FE304602F0D4FE0020FEF748
:10717000A9FD3B78002B00F08783414E3368002B3C
:1071800040F03E83354BD3F84431002B00F33B8372
:107190003C49C0A803F00DFBC0AA04210220FFF760
:1071A000C1FAC0A803F0BAFA00232B7049E32E708D
:1071B000BFE7D4F80880B8F1010F11D14046FDF7C0
:1071C00059FCFEF707FB3049C0A803F0F2FAC0AA49
:1071D00000210320FFF7A6FAC0A803F09FFAA8E752
:1071E000B8F1020F03D13846FFF744FCA1E7B8F12C
:1071F000000F03D1FEF794FE2449E5E703F0F6FD06
:10720000234903F0A4FB1649C0A803F0D2FAC0AA90
:1072100039460220DEE7DFF83880E368C8F800303E
:1072200003F0E4FD1B490D4EDFF870901A4FDFF8B4
:1072300070A0DFF84CB003F077FB6368052B71D8C2
:10724000DFE813F03000D3002D0267029E02B9027E
:10725000E0D60320B0E6032002BE0B0028CD0320B9
:1072600086B80B0013BE0B00DCD6032098C00B00C1
:1072700048DA03203DC7032038DA0320ECD6032088
:107280009CC603209EC00B00C3BD0B0026BE0B0096
:10729000DEBD0B0044BE0B0024DA03202CDA0320F1
:1072A00028DA0320B54F03F0A1FDB54903F04FFBE9
:1072B0003B78002B5DD0D9F80020DAF800309A42F4
:1072C00074D1D8F80000FEF78DFB00284FD0D8F815
:1072D0000000AC4FFEF7A8FB386001304DD1A0682C
:1072E000FEF788FD01463860A068FFF775FB396836
:1072F000481C4FD0DBF80000D9F800C0D8F8007067
:107300004FF43B72424302EB0C1333445F60276936
:107310001961C3E90270B35801330CF10107B3508E
:10732000C9F8007003F062FD974903F010FB03F009
:107330005DFD964903F00BFB03F058FD944B954916
:107340001A684FF43B7303FB0266D6F8443102938C
:10735000914B1B680193914B1B680093904B1B68EA
:10736000FDF7C9FB03F042FD03F0E5FAE1E63B78E7
:10737000B3B903F03BFD8B491BE08B49C0A803F078
:1073800018FAC0AA06210120FFF7CCF9C0A803F023
:10739000C5F9ACE703F02AFD844903F0D8FAC1E748
:1073A000D9F80020DAF800309A420CD003F01EFD24
:1073B0007F4903F0CCFA7C49C0A803F0FAF9022116
:1073C000C0AA08460BE003F011FD7A4903F0BFFAAA
:1073D0007549C0A803F0EDF9C0AA05210220FFF706
:1073E000A1F9C0A803F09AF99CE703F0FFFCDFF8CD
:1073F000D4A1714903F0ABFA2369CAF800305F4B9E
:107400001B78D3BBD8F80000DFF87891FEF734FB87
:10741000C9F80000013040F09280A068FEF7EAFC55
:107420000146C9F80000A068FFF7D6FAD9F80000B5
:10743000421C22D0D7F800C0DFF89491DBF800108E
:10744000D8F80020DAF800E0142303FB0C93C3E91A
:107450005410012183F85811C3E9522ED9F8443150
:107460000B440CEB0102C9F844313A6003F0BEFC56
:10747000D9F844110A22FDF713FB504B1B78002B5F
:1074800000F004814E4BD8F8000093F800B0DFF80C
:10749000F490DFF8FCA0FEF7EFFAC9F80000BBF1AA
:1074A000000F40F09980013056D1A068FEF7A2FC91
:1074B0000146C9F80000A068FFF78EFAD9F800105D
:1074C0004B1C56D03F4BDAF800E03868D8F800C0C3
:1074D000D3F800804FF43B7303FB0EF2142303FB3D
:1074E00000233344C3E952C84FF00108C3E954E113
:1074F00083F85881B3184044D3F84421386042449B
:10750000C3F84421BCF1000F7FF40CAFC9B201EB0A
:107510000802C0AF0523D2B2384602F049FC97E812
:107520000300DFF8B09089E80300384602F04DFC14
:10753000484602F0EFFC244B83F80080F2E61A493B
:10754000C0A803F036F9C0AA06210120FFF7EAF827
:10755000C0A803F0E3F869E71349C0A803F029F9CC
:10756000C0AA06210120FFF7DDF8C0A803F0D6F875
:10757000A4E703F03BFC15490FE700BF3DC703201C
:1075800002BE0B0038DA0320FEBF0B0006C00B0062
:107590009CC603203BC00B0024DA032028DA03201A
:1075A0002CDA032070BE0B0086B80B0058BE0B000F
:1075B00083BE0B00B8BE0B0013BE0B004CC70320EC
:1075C0003CC70320DCD60320E4D60320F9BB0B0024
:1075D00050C70320ECD6032001304AD1A068FEF743
:1075E00009FC0146C9F80000A068FFF7F5F9D9F8D1
:1075F0000010481CBDD0AC4BDAF800E0D7F800C052
:10760000D8F80000D3F800804FF43B7303FB0EF270
:10761000142303FB0C23334403F5A479C3E9520874
:10762000C3E954E1002389F81030B318D3F844219A
:107630000132C3F844210CF101033B6000287FF4C0
:1076400071AEC9B24A1CC0AF0523D2B2384602F0AF
:10765000AFFB97E80300DFF8D08288E803003846E4
:1076600002F0B3FB404602F055FC904B01221A7029
:1076700058E68F49C0A803F09CF8C0AA0621012053
:10768000FFF750F8C0A803F049F8B0E7894B1B7822
:10769000002B3FF447AE03F0A9FB874989E603F0CE
:1076A000A5FB864903F053F9DBF800305A1C03D0E0
:1076B0005BBB3A68002A28DD7E4A01211170804AAE
:1076C00080494FF0000882F800807F4ACAF80080A5
:1076D00082F800807D4AC9F80080C2F800807C4AA8
:1076E000C7F800800133C2F800804FF43B72CBF83A
:1076F00000305343F21846F80380C2F84481C0A812
:1077000003F057F8C0AA002132E003F06FFB714983
:107710004FE603F06BFB704903F019F9654B1B78DA
:10772000002B3FF426AEDAF80030D9F8002093425F
:1077300020DA3F6807BBDBF80020D4F808804FF45C
:107740003B7101FB02621A44B8F1000F14BF012122
:10775000002103F1010382F8D812CAF8003001D1E8
:107760005E49CCE75E49C0A803F023F8C0AA3946B9
:10777000032034E63FF7D6AD03F038FB594918E64D
:1077800003F034FB584903F0E2F84A4B1B78002B16
:107790003FF4EFADD9F80030002B08DDDAF8002017
:1077A000934204DD464B514901221A70A7E703F0CA
:1077B0001DFB4F49FDE503F019FB4E4903F0C7F8E7
:1077C0003C4B1B78002B3FF4D4AD3B68002B04DD11
:1077D0003D4B494901221A7091E703F007FB4749E5
:1077E000E7E501363FF4A5AC03F000FB444903F0A4
:1077F000AEF82F49C0A802F0DCFFC0AA002108E5BE
:10780000012B7FF4C5AC3F4C4FF4377204F11001EB
:10781000684603F039FE94E80F00FEF78BF93A4C06
:107820002B78207013B10021FEF794FA2378002BF7
:1078300034D03649364803F07BFE3549354803F0ED
:1078400086F83568012D1FD12E4CD4F83034002B2A
:1078500028DD04F53F714FF43772684603F014FEDB
:1078600004F53B730FCBFEF765F9274C29462070D2
:10787000FEF770FA23789BB12749254803F058FE9C
:107880002349244803F050F8224C204602F0F6F930
:10789000204601F08BFF0023236131E41F49C9E733
:1078A0001F49EAE71F49E8E7DCD60320E4D60320B6
:1078B00086B80B003DC70320C8BE0B00DDBE0B0021
:1078C0004CC70320EABE0B003CC7032040DA03206C
:1078D00044DA0320EDBE0B003FBF0B00B5BE0B002A
:1078E00050BF0B0054BF0B0086BF0B0095BF0B00B1
:1078F0009ABF0B00B9BF0B00C8BF0B00CDBF0B0078
:107900005EC00B0028CD0320B8E603207FC00B002B
:1079100001D303204CD30320AFC00B008EC00B005B
:10792000BEC00B00CEC00B00ECD60320022F40F0EF
:107930009981022E38D0062E40F0588160680128C7
:1079400015D0022821D028B9A068FFF779F9AF4BEC
:107950001B6898474FF0FF3323602B78002B3FF4D0
:10796000CFABFFF71FF900232B70FFF7C9BBA84966
:107970002870C0A802F01DFFC0AA00210320FEF756
:10798000D1FEC0A802F0CAFEE4E7A6681EB9FDF762
:1079900053FFA049EDE7012E03D1FDF71BFF9E49E0
:1079A000E7E7FFF767F8D5E76368012B78D0022B8C
:1079B00000F0BC80002BCDD1A168984E984FB8A89C
:1079C000FDF7AAFFB8A9C0A802F016FFE168BCA89D
:1079D000FDF7D4FFBCA9C0A802F055FF914902F001
:1079E0005EFF0146306807EB001002F0F6FEBCA80F
:1079F00002F094FEC0A802F091FEB8A802F08EFE3C
:107A00003368162B45DC1B018748FA58402102F0E9
:107A10000FFD8549854802F087FF844802F02EF962
:107A200003F0E4F9A1680746B8A8FDF775FFB8A907
:107A3000C0A802F0E1FEE168BCA8FDF79FFFBCA969
:107A4000C0A802F020FF01683846FDF754F8BCA832
:107A500002F064FEC0A802F061FEB8A802F05EFE6B
:107A6000D4E90201FDF7A4FF3368714AA16842F826
:107A70002310704AE16842F82310013333606E4BE3
:107A80001B78002B3FF466AF6C4A13680133136018
:107A900060E7172BC4D16A49634803F049FDB8E792
:107AA000654F3B78002B34D15C4EDFF8748103F0D6
:107AB0009DF9644902F04BFF3068634908EB001000
:107AC00002F0A5FE3368162B1CDC1B01564858F843
:107AD0000320402102F0ACFC5349544802F024FF3B
:107AE000524802F0CBF83368514A4FF0FF3142F868
:107AF0002310504A002142F8231001333360012340
:107B00003B7027E7172BEED14D49474803F010FD96
:107B1000E2E703F06BF94D4902F019FF4C49C0A8A8
:107B200002F047FE0221C0AA084628E7424F3B78F0
:107B3000002B57D0DFF80481D8F80030002B51DD3E
:107B400003F054F94349354EDFF8D49002F0FFFEBC
:107B5000A1680A220231BCA802F06BFEBCA9C0A831
:107B600002F04AFE3C49C0A802F099FE0146306886
:107B700009EB001002F031FEC0A802F0CFFDBCA856
:107B800002F0CCFD3368162B25DC1B01264859F882
:107B90000320402102F04CFC2349244802F0C4FE9B
:107BA000224802F06BF83368214A22486FF0010145
:107BB00042F82310D8F8002040F82320A1680132B1
:107BC0009A1A013302313360002340F822103B70CF
:107BD000C8F80030BEE6172BE5D11949124803F06A
:107BE000A7FCD9E703F002F91C4995E701363FF4F9
:107BF000B1AE03F0FBF81A4902F0A9FE1449C0A87F
:107C000002F0D7FDC0AA00213846B8E648DA0320C2
:107C1000E8C00B00F6C00B00C3BD0B0034DA032034
:107C200050DA032056C10B0001D303204CD30320AC
:107C300004D70320BCD3032000D3032038DC032067
:107C400071BD0B004EC10B000DC10B0015C10B0027
:107C500086B80B004AC10B0053C10B005AC10B0080
:107C60005EC00B00032E774F57D0062E40F0888061
:107C7000FDF716FC6668012E29D0022E29D02EB9F8
:107C8000A068FEF7DDFF704B1B68984723683E68CD
:107C900001331CBF4FF0FF332360002E40F3BD8043
:107CA0002B78002B3FF42CAA684B694D1969586852
:107CB000FDF70AFBE3682860023B0A2B7BD8DFE86C
:107CC00003F0696E7A70729E7A7A7A7AA0002E70CA
:107CD000DCE7A368012B0ED15E49C0A8FCF7CAFE01
:107CE00002F067FDC0AA00210320FEF71BFDC0A81B
:107CF00002F014FDCAE75849C0A802F05AFDC0AA14
:107D000001213046FEF70EFDC0A802F007FD03F08A
:107D10006DF8524902F01BFEB8E7DFF87CA1E3687A
:107D2000DFF87891D4F80480CAF80030A368C9F865
:107D30000030B8F1000FA9D103F058F8484902F01B
:107D400006FE424AD9F80030DAF800105160116896
:107D5000002B01F1010118BF0223116013613A6881
:107D60003D4901323A60C0A82BB902F022FDC0AAF9
:107D700031460120B9E702F01CFDC0AA4146F8E7F0
:107D8000013683D03449C0A802F013FDC0AA0021F7
:107D90000220AAE73349344803F0CAFB0BE0334919
:107DA000F9E73349F7E733492F4803F0C1FB286867
:107DB000FEF79EF82860304C204601F0F7FC0023C7
:107DC00029492361204602F0AFFD2B682B4A264843
:107DD000402102F02DFB2B68092B14DC284B23617A
:107DE0002548042100F01DFE1F49234802F09CFD98
:107DF0002148012100F015FE1F48FFF793B82149E3
:107E0000C9E72149C7E7632B01DC204BE7E7B3F55E
:107E10007A7FB4BF1E4B1F4BE1E77FF471A92B782B
:107E2000002B3FF46DA90C49C0A802F0C2FCC0AA07
:107E300004210220FEF776FCC0A802F06FFC2E7031
:107E4000FFF75EB92CDA032048DA032028CD03209F
:107E5000B4E60320C3BD0B0086B80B00DEBD0B00EB
:107E600002BE0B007CC10B0001D303208AC10B00B2
:107E7000A0C10B00B4C10B004CD303205BC00B00AE
:107E800035001900CCC10B00DFC10B002800190020
:107E90001B0019000A001900E0D60320B0E60320F9
:107EA000704710B510210446FCF7CDFD204610BDEB
:107EB00073B5044608462279A36832B1A3B90B49C9
:107EC00002B0BDE8704002F02FBD094A267B094D83
:107ED0000949647B012E18BF2946CDE900140749E2
:107EE000FCF7FBFD02B070BD054AEFE70BC60B00C7
:107EF00086B80B0007C60B0003C60B0021C60B009B
:107F0000FAC50B002DE9F04F85B01F46BDF938804A
:107F1000BDF83C30A8EB0209A7EB010AB9F1000F4C
:107F2000B8BFC9F10009BAF1000FB8BFCAF1000A21
:107F3000D14583460C46154604DD3A462C46474655
:107F40000D469046BC4205DD2A46454690462246EF
:107F50003C4617463E1BB2B20092A8EB050282EAED
:107F6000E271A1EBE271C6F3C03202FA86F6454532
:107F7000B4BF01224FF0FF32019176100292BC4251
:107F80001CDCDBF800200393D145D2F81880C7BF72
:107F9000294622462A4621465846C047019A039B55
:107FA000B61AB1B236B2002E05DA029A1544009A1A
:107FB00056182DB236B2013424B2E0E705B0BDE860
:107FC000F08F704710B404682469A4465DF8044B30
:107FD000604730B40468BDF808500295A46BA4460D
:107FE00030BC604730B40468BDF808500295E46BBB
:107FF000A44630BC604770B4BDF90C50BDF81060A9
:108000000468CDE90356246CA44670BC60472DE992
:10801000F3411C460368BDF820805B69054616469F
:10802000013C34440F4624B298472B68CDF80480B5
:1080300000949C6A28463B4632463946A0472B6846
:10804000DB6A284602B0BDE8F04118472DE9F3414C
:108050001D460368BDF820805B69044617460E463E
:108060009847CDE9007822686B1E3344956A204614
:108070001BB23A463146A8472368DB6A204602B065
:10808000BDE8F04118472DE9F3471E460368BDF9E6
:1080900028905B69BDF82C800C460546174698472A
:1080A0002644B4422B680BDACDF80080D3F820A028
:1080B00021464B463A4628460134D04724B2F0E7E1
:1080C000DB6A284602B0BDE8F047184713B50268DE
:1080D0000191B0F90E100091146CB0F90C3000222F
:1080E0001146A04702B010BD2DE9F743994216464C
:1080F000BDF92870BDF82C90026880460D461C46DC
:1081000013D1BE42C8BF3346CDF82890C4BF3E4607
:108110001F467B1C946B9B1B1BB232462946404674
:10812000A44603B0BDE8F0436047BE420AD199427D
:10813000C2BF0B4625461C46631CCDF82890D46B65
:108140005B1BE9E753699847CDE90079D8F800301F
:1081500040469F6A324623462946B847D8F8003041
:10816000DB6A404603B0BDE8F04318472DE9F3470A
:108170001D460368BDF82C805B69BDF92890044654
:108180000F46164698472368CDF80080D3F824A000
:1081900032462B4639462046D0472368CDF800802A
:1081A00009F1FF323244D3F824A039462B46204649
:1081B00012B2D0472368CDF80080D3F820A0324611
:1081C0004B4639462046D0476B1ED9192368CDF857
:1081D00000801D6A20464B46324609B2A8472368F4
:1081E000DB6A204602B0BDE8F0471847704701F04F
:1081F0000303B0F90A208376C907B0F9083059BFE4
:108200008381C2818281C3817047000030B5428181
:10821000C281074A074D0181002481814FF0FF315F
:10822000C0E905124460056004610477046230BD52
:108230000101000148CB0B002DE9F04F8BB01C462B
:10824000BDF858300493A3B2C3F10105C3EBC333A7
:108250005B001BB20793BDF9543001339BB2059309
:1082600093B206938846059B9DF850100393002314
:10827000029301F001030893DDF818A001F0020356
:1082800083462DB20993029BA3426FDA002D6BDB6C
:10829000079B0233661E1AB215FA83F536B20792AF
:1082A0002DB2029F01371FFA87F93BB205EB490552
:1082B00001359E4202932DB229DB089B93B10498AD
:1082C0000090DBF800000699059B006AB2B203EB50
:1082D00042038A1A09EB080107461BB212B209B21F
:1082E0005846B847099B93B106990498059B00909E
:1082F000B2B2DBF8000003EB42038A1AA8EB0901D3
:108300001BB2D0F8209012B209B25846C847B44206
:1083100020D0089B73B1DBF80030049A009208EB80
:108320000401D3F82090BDF90C300FFA8AF209B29B
:108330005846C847099B6BB1DBF80030049A00929D
:10834000A8EB04010FFA8AF21C6ABDF90C3009B2DD
:108350005846A0470AF1FF331FFA83FA039B023302
:108360009BB2039334468EE726469AE70BB0BDE8EE
:10837000F08F2DE9F0411E4686B003680591044652
:108380005B69BDF8307015469847B2B22068009717
:1083900053000133AA1AD0F82080059920461BB259
:1083A00012B2C04703230022CDE9003220463346F3
:1083B000059902972A46FFF73FFF2368DB6A2046AC
:1083C00006B0BDE8F04118472DE9F04F8DB01D46CD
:1083D000BDF95860BDF86430BDF95C80BDF96070CE
:1083E0000493B24283468946144640F3CE80BA4293
:1083F00017DDB7420FDA33463E4627461C462B466A
:108400004546C84699460CE0234634461E464B4630
:10841000A9461D46EDE723463C461F464B46C1464E
:108420009846DBF8003058465B699847BE4222D137
:108430004D45C2BF2B464D469946454505DCC145D5
:10844000B8BFC1460FFA89F9A846DBF800200499A5
:10845000009109F10103A3EB0803546A1BB23246F1
:1084600041465846A047DBF80030DB6A58460DB05D
:10847000BDE8F04F18471FFA89F30393ABB202939C
:10848000DDE902239B1A1BB21FFA86FC0893A3B2F4
:10849000A3EB0C0212B20992029A1FFA88F1A1EB27
:1084A0000208BAB2A2EB0C0C0FFA8CF006900398FB
:1084B000BC42A2EB0302A1EB000118BF03F1FF33A2
:1084C00012B209B218BF1BB24FF000090A920FFA9C
:1084D00088F8079114BF059305943246CA46059B58
:1084E0009A4224DC099B02989AFBF3F1029B0B92BF
:1084F0001944069B99FBF3F30344089809B21BB295
:108500009942824404980090C8BF8C46DBF8000072
:10851000C4BF19466346406A01335B1A05461BB265
:108520005846A8470B9A0132C14412B2D7E7079BBD
:10853000141B961B5C4308FB06F6BA4293DC0A9BAD
:10854000029894FBF3F1039B05921944069B96FB5A
:10855000F3F3034409B21BB299420798C8BF8C4693
:108560000444C8BF194604980090C8BF6346DBF8AE
:10857000000001335B1AD0F824901BB25846C8475C
:10858000059A0132464412B2D7E7BE423FF73CAFEC
:1085900033461C4616462B460D4633E72DE9F04F71
:1085A00089B0CDE902120268BDF948800493BDF993
:1085B0004C3052690593BDF850A00446904718F11D
:1085C00007024FF0000648BF08F10E024FEAE20B27
:1085D00001963546039B019ABDF904109A18059B34
:1085E0008B4212B227DD049B33444FF000090693FF
:1085F0000FFA89F080451FFA89F117DD4F0705BF93
:10860000069BC0106D001D5C18BFEDB22B060AD58D
:10861000029B206807921944836909B21F462046CD
:108620005346B847079A09F10109E1E7019B013375
:1086300001935E44CEE72368DB6A204609B0BDE8BB
:10864000F04F18472DE9F04F2DED028B91B01646F3
:10865000026ABDF874809DF878509DF87C400391C3
:108660001F46BDF8703004938346002A40F0C58051
:10867000B0F90C308B4240F34C81B0F90E30B3426C
:1086800040F34781062313FB0513002B40F3418180
:1086900006EBC403002B40F33C81037F1BB9AF2FD3
:1086A00084BF0137FFB2DBF8003058465B6998475A
:1086B0000522099200220592984A07EB8703D318F6
:1086C0000C93B3B20693059A0C9B9B5C0793ABB2D9
:1086D0000B93BDF80C300893039B02FB05F919FAC4
:1086E00083F90FFA89F308EE103A08230A93039BE3
:1086F00002EB030A4FF000090FFA8AFA079ADBF837
:108700000030D20752D5012D1FFA89F23ED1012C3B
:108710003CD19B6906991F46049B0A4412B25146FC
:108720005846B84709F101034FFA83F9079B5B08E4
:1087300007930A9B013B13F0FF030A93DED1059FC9
:1087400001377BB20593099B013B13F0FF030993AB
:10875000B9D1049B43450FD0012DDBF800303BD14C
:10876000012C39D10899CDF8008005311C6A3246B8
:10877000082309B25846A047DBF80030DB6A5846A8
:1087800011B0BDEC028BBDE8F04F1847069914FB01
:1087900002F20A44049901910094DB6918EE101A60
:1087A0001F4612B22B465846B847BBE7049A4245CB
:1087B000B8D0012D1FFA89F207D1012C05D19B6990
:1087C00006991F460A444346A8E70699CDF8048057
:1087D00014FB02F20A44DFE70B9ACDF8048002EBA7
:1087E0008201089AE4000A4411460094DC6932468A
:1087F0002B4609B25846A047BEE7137A5168126863
:108800000B92FF1AFFB201EBC70331F83720069233
:108810009A780992DA780C92012D93F9052093F950
:1088200006A00A9201D8012C57D9BDF92830089327
:108830000FFA8AF30793DBF8003058465B699847D4
:10884000B3B24FF000080E931AFA86F3C1464746BA
:108850000F930C9B9F428FD2079B0E9A3B4403FBC6
:108860000423002205920F9A1BB202EB070A08EEBE
:10887000103A0FFA8AFA4346099A0599914241D271
:108880005A1CD2B25B070D9207D1069B06990B9A30
:1088900001339BB212F80190069319F0800F12D0A9
:1088A000012DDBF80030BDF80C101AD1012C18D1C5
:1088B0000A9A9B691144059A11441E465246049B2C
:1088C00009B25846B047059E0136F3B24FEA49094E
:1088D00005935FFA89F90D9BCEE70023CDE90733B5
:1088E000A9E70598089A024402FB0511049ACDE90C
:1088F0000042DB6918EE102A1E4609B22B46584684
:10890000B047E0E7099B013798445FFA88F8FFB267
:108910009FE711B0BDEC028BBDE8F08F3EC60B00A7
:10892000F0B5026A85B004460B46002A34D10A2904
:1089300008D1438A0282427E03EBC2036382012094
:1089400005B0F0BD0D29FAD0E17E007E657E71B1E3
:10895000B4F91060062111FB0061B4F90C60B1425A
:10896000C1BFB4F91210228201EBC5026282E28A11
:108970000192A28A0092CDE90205B4F91220B4F95D
:1089800010102046FFF75EFE237E228A03EB43038E
:1089900002EB43032382D2E70A2907D10023038293
:1089A000417E927A438A01FB0233C7E70D29C6D084
:1089B000157AA942C3D3517A9942C0D351685D1B3D
:1089C000EDB201EBC505A87828B3E97819B3E17ECB
:1089D000267E677E91B195F905100844B4F9101010
:1089E00006FB0011B4F90C00814207DD0020208253
:1089F000B4F91210927A02FB07126282E28A0192A3
:108A0000A28A0092CDE90267B4F91220B4F91010DD
:108A10002046FFF717FE2979227E238A01FB0233C5
:108A2000B8E7012938BF012101764176704738B592
:108A30000446084621730121154602F00DFC207BF7
:108A4000012102F01AFC28466573012102F004FCA2
:108A5000607B002102F011FC204638BD0139C9B20B
:108A600008299ABF024B53F821000248704700BF03
:108A700090CC0B0098CB0B0013B50B4C2178BFF3B7
:108A80005B8F11F001010BD120460191FBF7EAFF4A
:108A9000019928B1054801F037FD2046FBF7E7FFB3
:108AA000024802B010BD00BF30C7032034C7032006
:108AB00007B50190FFF7E0FF019903B05DF804EB03
:108AC00001F0C8BD2DE9F74F07469DF830801E46DE
:108AD0001546002A42D001F07E01007B41F080095A
:108AE000002102F0CAFB4846FFF7E2FF013DEDB26C
:108AF0004FF0000B4FF0010A5FFA8BF4A54222D928
:108B0000DCB9B8F1000F18D04246D3B2072B61B2DE
:108B100005D80AFA02F40C43E4B20132F5E74846FC
:108B20000191FFF7C5FF33780199044023EA01035F
:108B30001C4334700BF1010BDEE74846FFF7B8FF2A
:108B400006F80B00F6E70020FFF7B2FF7055387B00
:108B5000012103B0BDE8F04F02F08FBB03B0BDE8C8
:108B6000F08F38B50C4605460021007B04F07E04EA
:108B700002F083FB44F08000FFF79AFF0020FFF72C
:108B800097FF01210446287B02F077FB204638BD81
:108B9000F8B50F4606460021007B15461C4602F03C
:108BA0006CFB07F07E00FFF783FF2544AC4204D046
:108BB00014F8010BFFF77CFFF8E7307B0121BDE8DB
:108BC000F84002F05ABB70B504460E46007B002107
:108BD000154602F052FB06F07E00FFF769FF2846BB
:108BE000FFF766FF207B0121BDE8704002F045BB26
:108BF00070B5164604460D46FFF7B3FF3043C2B2C8
:108C000029462046BDE87040FFF7DDBF70B5164627
:108C100004460D46FFF7A5FF20EA0600C2B229462A
:108C20002046BDE87040FFF7CEBF08221021FFF7B5
:108C3000EDBFF8B5044615460F46002202211E4638
:108C4000FFF7C1FF04220A212046FFF7BCFF802264
:108C500014212046FFF7CCFF2A463B46122120462E
:108C6000FFF796FF032202212046FFF7ACFF41F2F7
:108C700088350A212046FFF774FF430705D4013DDC
:108C8000ADB2002DF5D104200FE0002202212046D4
:108C9000FFF799FF44212046FFF763FF4221307020
:108CA0002046FFF75EFF70700120F8BD10B50F225F
:108CB00002210446FFF787FF322001F002FF022164
:108CC0002046FFF74EFFC306F9D410BD10B528218A
:108CD0000446FFF746FF00F00303032B08D040F0E3
:108CE0000302D2B220462821BDE81040FFF76BBF37
:108CF00010BD10B50446407B02F0D8FA48BB607B3B
:108D0000012102F0BAFA322001F0DBFE2046802277
:108D10005421FFF758FF2046A9225621FFF753FFA1
:108D2000204603225821FFF74EFF2046E8225A2111
:108D3000FFF749FF204640222A21FFF744FF204643
:108D40003D222221FFF73FFF2046BDE81040FFF7FC
:108D5000BDBF2046FFF7AAFFD8E72DE9F04F89B045
:108D6000DDE91356DDF8549003929DF85C209DF8E0
:108D700058B0049204468A460027B9F1000F3ED04D
:108D800099F800800593002202212046FFF71BFF7F
:108D90007F2208212046FFF716FF08EB0B188022E0
:108DA00014212046FFF724FF5FFA88F8059B9DF801
:108DB000482012212046FFF7EBFE42461A212046AA
:108DC000FFF701FF524602212046FFF7FCFEBAF1F1
:108DD0000C0F04D180221A212046FFF709FF4FF41F
:108DE000FA6808212046FFF7BCFE039B184208D111
:108DF000C30702D4B8F10108F3D104204DE0C846FE
:108E0000C0E70C212046FFF7ACFE10F0130F8046A0
:108E100046D1DDB1D6B114212046FFF7A2FE33784A
:108E2000834202463ED330702B4612212046CDF8B5
:108E300000B0FFF747FE18212046FFF792FE00F032
:108E40000707B9F1000F01D089F8007018F0080F7A
:108E50002AD15DB356B3049B43B33278012A03D1C0
:108E6000042F25D1092018E022D90FBB023A07AB05
:108E7000D2B229462046FFF7DCFE01280DD1337817
:108E80001D449DF81C3015F8022C9A4210D115F89B
:108E9000012C9DF81D309A420AD109B0BDE8F08F2F
:108EA0000220FAE70520F8E70320F6E70120F4E7BF
:108EB0000820F2E710B586B09DF82C4005949DF887
:108EC00028400494099C0394089C0092CDE9013445
:108ED00030220B460C21FFF740FF06B010BD70B5E5
:108EE00088B006461C468DF8171015461AB31B7835
:108EF000012B20D980221C21FFF788FE07238DF843
:108F00001F300023CDE902330DF11F03CDE90043EB
:108F100001222B460DF117013046FFF7CBFF012848
:108F200007D12378022B08D19DF81F30002B18BFE2
:108F3000022008B070BD0520FBE70220F9E71346C8
:108F40000A462621FFF7CBBF07B502230DF1030226
:108F500001A98DF80330FFF7F2FF00F0FD00431E7A
:108F60005842584103B05DF804FB70B586B05023F9
:108F70008DF8143000240DF11603022205A90646CF
:108F80008DF81540FFF755FE012805460FD1CDE9B4
:108F90000244CDE900442346042205A93046FFF7E8
:108FA00089FF042803D0012814BF0546022528465E
:108FB00006B070BD7FB506461D461446CAB11B7883
:108FC000112B16D9302313705170931C21460222A5
:108FD000FFF72FFE01280AD10023CDE901330390CA
:108FE00000952346042221463046FFF763FF04B074
:108FF00070BD0520FBE710B58AB00C9C8DF81D20D4
:109000001A689B88ADF8223063788DF82430A378F5
:109010008DF82530E3788DF8263023798DF82730C8
:109020000023CDE90433CDE9023301930C238DF8FD
:109030001C10CDF81E200093102207AB0E21FFF765
:109040008CFE0AB010BD2DE9F04F502A8BB082463D
:109050000F46904600F2408180221C21FFF7D6FD8A
:1090600093238DF81C30B8F1000F00F0BC803C78E1
:10907000042C94BF00230123012500260BE0952337
:109080008DF81C30B8F1000F00F0AF803C78072C51
:1090900094BF00230123A8EBC60464B224EAE4745D
:1090A000002B00F0A48088228DF81E20032114F0EC
:1090B000070218BF012202EBE40212F0FF02E0B245
:1090C0001DD0002B14BF4FF003094FF0040906F127
:1090D000010C914594BF01EB090E01EB020E57FA0A
:1090E0008CFC5FFA8EFE0A460DF1280B0131C9B2E5
:1090F0005A441CF8019B02F80C9C7145F3D10BB14A
:10910000083044B21F2C74DD4FF070039DF81F200F
:109110008DF81D309DF81E3053409DF8202053409F
:109120009DF8212053408DF8223007220DF12303B2
:1091300007A95046FFF77DFD0128814640F0C88011
:1091400000238DF81A3003238DF81B3004940DF1A1
:10915000220B4FF009099DF81A30059303EB031217
:10916000D2B21A215046FFF72EFD059B02930DF156
:109170001A03002201930DF11B03039200934A4648
:109180005B4607A95046FFF795FE032881464CD160
:109190001C215046FFF7E5FC810600F1998010F094
:1091A0001F0008BF2020A04240F38780431E03F029
:1091B000070244B213F007034FEAD00018BF01239F
:1091C000013018440AAB1844012303FA02F210F8E4
:1091D0000C3C134300F80C3C94E797238DF81C30AB
:1091E0000626234657E7434646E7434653E7022110
:1091F0005DE7E3100233DBB204F0070214F0070965
:109200008DF81A2002EB03128DF81D2018BF4FF0C5
:10921000010907AA994402EB030BC3F109035FFAA2
:1092200089F98DF81B30049495E7012850D1049BEF
:109230001F2B4FF020047FF767AF9DF81E30882B5F
:109240003ED103231A4601361A4457FA86F6D2B2A3
:1092500019460AA801330144DBB211F80C1C06F8C8
:10926000011B9342F4D19DF81B60032E37D19DF86A
:109270001A40A4BB0DF11E03012259465046FFF7C8
:10928000D8FC0128814623D19DF81E209BF801308F
:109290009A4227D19DF81F209BF802309A4221D193
:1092A0009BF800305A070ED50135EDB2032D94D04E
:1092B000042D02D0022D3FF4E2AE4FF0060907E084
:1092C00002230422BFE705EB45050135FB723D7023
:1092D00048460BB0BDE8F08F4FF00709F8E74FF0B4
:1092E0000209F5E74FF00809F2E708B50146002248
:1092F000FFF7A9FE431E5842584108BD0160704760
:1093000010B504460121008801F0A6FF2088002145
:1093100001F0B3FF022000F07FFE2088012101F060
:10932000ACFF052000F078FE2088002101F0A5FFA9
:109330002088002101F090FF2088012101F0FCFF2E
:109340003A2390FBF3F010BD10B503720123817135
:10935000C271037410BD10B504460021807901F07C
:109360007BFFA079012101F088FF0023E36010BD9D
:109370002DE9F843044600F057FEE368834284BFBA
:109380000023E360237C23B9E368C01AB0F5FA6FC9
:1093900067D30025257400F047FE0121E0602560B9
:1093A000A079257101F069FFFA2001F08AFBA0790C
:1093B000012101F051FF2946A07901F05EFF142040
:1093C00001F07FFB01F038FD0121A07901F055FF8C
:1093D000282000F021FEA079294601F03DFF2E460D
:1093E00001274FF00008A07901F060FFB8425FFA52
:1093F00088F908D1012008F1010800F00DFEB8F14C
:10940000FF0FF0D1C146A07901F050FFB9F1FF0F75
:10941000C7B214D0032D0ED9EA070CD4F2080136D6
:10942000A35C5B00DBB2A354217A49453CBF43F007
:109430000103A354F6B20135EDB2552DD1D101F09F
:10944000FDFC272E0FD9637820781844A3781844A0
:10945000E37818442379C0B2C31A58425841BDE892
:10946000F8830120FBE70020F9E7000010B504466F
:10947000FFF77EFF20B3E3790B2B1BD0153B012BAD
:109480001ED8A378DFED106A03F07F0207EE102AE2
:10949000E27807EE902AB8EEC77AF8EEE77A1B0674
:1094A000E7EE267AB2EE047A87EE870A07D5B1EEA8
:1094B000400A04E0A37800EE103AB8EE400A10BD6E
:1094C0009FED020AFBE700BF000080430000C07F61
:1094D000FFF7CCBF10B5044B03600446C06A08B167
:1094E00000F096FF204610BDB0D20B0010B5044628
:1094F000FFF7F0FF20465021FBF7A5FA204610BDEC
:10950000002910B54BDBB0F90C408C4247DD002A36
:1095100045DBB0F90E40944241DD847E022C1FD021
:10952000032C26D0012C04D10489D24314440A46CA
:1095300021B2012B23D0022B32D083BB002A134649
:109540000489C06AB8BFD31DDB1013FB041102F0FD
:10955000070201239340425C22EA030242541EE0C8
:109560000489013C611A4489D243224409B212B2EF
:10957000DFE74489013C641A114622B2D9E7002A88
:1095800004891346B8BFD31DDB1013FB0411C36A53
:1095900002F0070001228240585C02435A5410BD79
:1095A000002A13460489C06AB8BFD31DDB1013FB21
:1095B000041102F00702012303FA02F2435C5A404D
:1095C000CCE7000070B5402204460E468021FEF72D
:1095D0001DFE00250D4B2360656201F021FFFF2376
:1095E00084F8333084F83630094BA3634FF6FF72AA
:1095F0000123C4E90A05A28684F8376084F83C3068
:109600002564A4F84450204670BD00BFB0D20B00C2
:10961000BCCC0B00F8B50446806A0D4690B194F9B5
:10962000301001F0E1FCA06A036800219B689847B4
:10963000A06A036829469B689847A06ABDE8F8407D
:1096400001F0D9BC94F93530014698B201F015FE0D
:10965000606A20B12946BDE8F84000F0FBBF08264B
:10966000802794F9330005EA070180B201F005FE76
:1096700094F93400012180B201F0FFFD94F9340027
:10968000002180B201F0F9FD013E4FEA5707E8D111
:10969000F8BD38B50446806A0D4680B1A16C01F072
:1096A00095FC002D204614BFA721A621FFF7B2FF8D
:1096B000A06A88B1E16CBDE8384001F087BC606AFF
:1096C00018B104F1380100F057FF94F93600002179
:1096D00080B201F0D2FDE4E794F93600012180B2B6
:1096E00001F0CBFD606A18B1BDE8384000F02ABF38
:1096F00038BD2DE9F8430446806A0D468F1840B303
:1097000094F9301001F070FCA06A036800219B6896
:1097100098470126AF42A06A17D01F2E0CD901F03E
:109720006AFC94F93010A06A01F05EFCA06A03683C
:1097300000219B6898470126A06A15F8011B036861
:1097400001369B689847F6B2E4E7BDE8F84301F0BC
:1097500052BC94F93530014698B201F08EFDBD42FD
:1097600022D0606A15F8019B18B1494600F072FFDB
:10977000F5E708264FF0800894F9330009EA08015C
:1097800080B201F07AFD94F93400012180B201F039
:1097900074FD94F93400002180B201F06EFD013EA9
:1097A0004FEA5808E8D1DAE7BDE8F883B0F90A30A3
:1097B000DA1D48BF03F10E02B0F90830C06AD210BA
:1097C0005A43002101F06EBE2DE9FF411E46C36AD7
:1097D0009DF8288004460F461546D3B12046FFF772
:1097E000E5FFB4F90A20202A25DCB4F9081020236B
:1097F000203A73390120CDE9013002EBD272732394
:1098000001EBD171009342F34F02854B41F34F01BD
:109810001BE0B0F90A30D81D48BF03F10E00B4F9BF
:109820000830C010584300F0EBFDE0620028D5D1AD
:1098300004B0BDE8F08140234FF0010CCDE9013CBC
:10984000802300930022774B11462046FEF7A6FEA8
:10985000A06A84F83170002878D0002D74D1B4F952
:109860000A30202B0CBF3C253D2584F83050B8F140
:10987000000F01D001F0AEFBFEB194F937000028D3
:109880001BDB012180B201F0E7FC94F937000121D4
:1098900080B201F0F2FC012001F013F994F93700D5
:1098A000002180B201F0E9FC0A2001F00AF994F9E4
:1098B0003700012180B201F0E0FCA06A002874D0DA
:1098C000A16C01F083FB042257492046FFF711FFEA
:1098D00061890139C9B22046FFF79CFE5349042231
:1098E0002046FFF706FF94F93130012B0CBF102101
:1098F00014212046FFF78EFE04224D492046FFF733
:10990000F8FEA3684B4A93425CD14B49042220469F
:10991000FFF7EFFED9212046FFF77CFE94F93130A6
:10992000012B0CBF2221F1212046FFF773FE2046B8
:1099300042490622FFF7DDFEA06A002863D0E16CF1
:1099400001F044FB012073E76DB28EE794F9350016
:10995000012180B201F080FC94F93600012180B22F
:1099600001F07AFC94F93600012180B201F085FC07
:10997000656A3DB1B8F1000F3FF47EAF284600F0B4
:10998000CDFD79E794F93300012180B201F064FC48
:1099900094F93400012180B201F05EFC94F93400A6
:1099A000294680B201F069FC66E7606A18B104F1EB
:1099B000380100F0E1FD94F93600002180B201F099
:1099C0005CFC80E71E4A93420ED11E4903222046CA
:1099D000FFF78FFE94F93130012B0CBF9F21CF216F
:1099E0002046FFF717FE95E7174A934292D1174991
:1099F00003222046FFF77DFE94F93130012B0CBF86
:109A00001021AF21ECE794F93600012180B201F07A
:109A100034FC606A002895D000F094FD92E700BF06
:109A2000C8CC0B00A8CE0B0010D30B0014D30B0036
:109A300018D30B008000200022D30B001CD30B0096
:109A40008000400026D30B006000100029D30B00DB
:109A500070B5002ABDF810503DDBB0F90A409442C1
:109A600039DD0029BEBF5B181BB20021B0F90840E8
:109A7000CE18A642C4BF631A1BB2002B2BDDC06AEE
:109A8000D61014FB0611014402F0070001228240A7
:109A9000012DD2B216D0022D0BD0E5B9D243D2B2ED
:109AA0000B44994217D011F8010B104001F8010C3A
:109AB000F7E70B4499420ED011F8010B504001F822
:109AC000010CF7E70B44994205D011F8010B104344
:109AD00001F8010CF7E770BDF0B50029BDF814508E
