:02000002B0004C
:1040000000400B0024B40B00000006000C00050269
:084010000401E50C00000000B2
:04401800189C0B00E5
:1040200009480A49884208B505D0094A824202D0A7
:10403000121A05F0CBFC0748074A0021121A05F0B6
:10404000D3FC014808BD00BFC0D8032048B30B0013
:1040500074D9032074D90320EDE7032070B5074E0F
:10406000074C04F0A9FBA41BA4080025AC4200D116
:1040700070BD56F8043B98470135F7E7F8B20B00DE
:104080001CB30B0001F0D4B808B501F063F9BDE82A
:10409000084004F049BB04F009B804F00FB8000070
:1040A00008B5034A03490C2003F064FFFEE700BF94
:1040B000C57C0B002C9C0B000078B0FA80F0400906
:1040C0007047012303707047084A00231370084AA1
:1040D0001370084A1370084A4FF0FF311160074A05
:1040E00003211160064A1360704700BF81D9032085
:1040F00090D9032080D90320E4D80320E8D80320F6
:104100009CE603200EB403B503AB002153F8042B47
:10411000019304F09AFA02B05DF804EB03B0704723
:104120000EB403B503AB012153F8042B019304F043
:104130008CFA02B05DF804EB03B0704707B5014696
:1041400001A802F0F5FD01A802F0F4FD09288CBFDA
:104150000020012003B05DF804FB07B5014601A86B
:1041600002F0E6FD01A802F0E5FD0A28D4BF002018
:10417000012003B05DF804FB022808B50BD0042829
:104180000BD060B9132004F0A0FEB0F57A7FB4BF65
:104190000020012008BD1120F5E70F20F3E70020E3
:1041A000F8E7022808B50BD004280BD060B913201B
:1041B00004F08BFEB0F57A7FCCBF0020012008BD53
:1041C0001120F5E70F20F3E70020F8E708B580B2EB
:1041D00004F07BFEB0F52F7FB4BF0020012008BDA6
:1041E00008B580B204F071FEB0F52F7FCCBF00207F
:1041F000012008BD07B580B20021019004F028FE1F
:10420000019804F04FFE431E5842584103B05DF838
:1042100004FB07B580B20021019004F019FE01985B
:1042200004F040FEB0FA80F0400903B05DF804FBF2
:10423000022807B524D0042824D018B9132004F08C
:1042400044FE0190DDED017A9FED0F6AF8EEE77A0A
:10425000F1EE046A67EEA67A87EE867ADFED0B7AD6
:1042600067EE277A87EEA67ADFED097AB4EEE77A71
:10427000F1EE10FAACBF0120002003B05DF804FBA2
:104280001120DCE70F20DAE700C07F4400009643EE
:1042900000002A44022807B524D0042824D018B9E5
:1042A000132004F012FE0190DDED017A9FED0F6AFC
:1042B000F8EEE77AF1EE046A67EEA67A87EE867A80
:1042C000DFED0B7A67EE277A87EEA67ADFED097AC3
:1042D000B4EEE77AF1EE10FA94BF0120002003B0AB
:1042E0005DF804FB1120DCE70F20DAE700C07F4413
:1042F0000000964300002A4430B52DED028B87B0B4
:10430000C1B206230B2201A802F038FD01A802F079
:104310003CFD01A802F0F6FDB5EE400AF1EE10FA00
:10432000B4EE400A0CBF01240024F1EE10FA68BF7D
:1043300044F00104B0EE408A002CEAD104F05EFBA8
:10434000054618EE100A04F0D1FF02460B46284637
:104350000A49FFF7E5FEB5EEC08AF1EE10FA08DD76
:10436000F2EE007AB4EEE78AF1EE10FA4CBF0124C7
:104370000024204607B0BDEC028B30BD4E9C0B00E4
:1043800010B52DED028B86B0C1B206230B2201A819
:1043900002F0F4FC01A802F0F8FC01A802F0B2FD62
:1043A000B4EE400AF1EE10FAB0EE408AF5D6B5EE62
:1043B000400AF1EE10FAF0D004F020FB044618EEAB
:1043C000100A04F093FF02460B4620460C49FFF703
:1043D000A7FEF1EE0C7AB4EEE78AF1EE10FA04DCF7
:1043E000002006B0BDEC028B10BDF3EE0A7AB4EEED
:1043F000E78AF1EE10FA4CBF01200020F1E700BF80
:104400004E9C0B0030B52DED028B87B0C1B2062358
:104410000B2201A802F0B2FC01A802F0B6FC01A830
:1044200002F070FDB5EE400AF1EE10FAB4EE400A6B
:104430000CBF01240024F1EE10FA68BF44F001041F
:10444000B0EE408A002CEAD104F0D8FA054618EE06
:10445000100A04F04BFF02460B4628460B49FFF7B3
:104460005FFEF3EE097AB4EEE78AF1EE10FA08DDAA
:10447000DFED077AB4EEE78AF1EE10FA4CBF0124C3
:104480000024204607B0BDEC028B30BD4E9C0B00D3
:104490000000484208B50346013B1046062B43D8AE
:1044A000DFE803F00409121B242D0400C1BBBDE8A2
:1044B0000840FFF743BE19B9BDE80840FFF771BED9
:1044C000BDE80840FFF758BE19B9BDE80840FFF73E
:1044D00087BEBDE80840FFF779BE19B9BDE80840BE
:1044E000FFF797BEBDE80840FFF784BE19B9BDE8E5
:1044F0000840FFF7CFBEBDE80840FFF799BE01298D
:1045000006D0022908D059B9BDE80840FFF7F4BE2B
:10451000BDE80840FFF734BFBDE80840FFF772BFB1
:10452000BDE80840FFF719BE04F068FA024904F03C
:1045300064F8002008BD00BF579C0B0007B500239E
:10454000044800931A46194603F0B6F903B05DF823
:1045500004FB00BF50E3032007B500230448009389
:10456000FF22194603F0A8F903B05DF804FB00BF71
:1045700050E3032007B50A23002200930348FF23DA
:10458000114603F099F903B05DF804FB50E30320F2
:1045900007B5FF230093002303481A46194603F08A
:1045A0008BF903B05DF804FB50E3032007B500214D
:1045B00004480091E923FF2203F07EF903B05DF87F
:1045C00004FB00BF50E3032007B5752300930448A4
:1045D00046236C22002103F06FF903B05DF804FB61
:1045E00050E3032007B50021044800918023FF22F7
:1045F00003F062F903B05DF804FB00BF50E3032051
:1046000007B5FF23044800931A46002103F054F92C
:1046100003B05DF804FB00BF50E30320000000007E
:104620002DE9F8430FF24409D9E900890E4F6426B9
:10463000002400252946204605F06AF9B6EE081A3E
:1046400000EE100AF0EE410A0021384603F018FA95
:104650002046294642464B4604F0EAFC013E044609
:104660000D46E7D1BDE8F88350E303207B14AE4745
:10467000E17A843F08B50121062004F0FAFB01210C
:10468000062004F0F6FB0121072004F0F2FBBDE850
:1046900008400121072004F0ECBB08B500210620EA
:1046A00004F0E7FB0021062004F0E3FB00210720D3
:1046B00004F0DFFBBDE808400021072004F0D9BB6F
:1046C00008B5FFF7D7FF642004F002F8FFF7E5FF15
:1046D000BDE80840642003F0FBBF08B1FFF758BFF6
:1046E000FFF780BF08B1FFF761BFFFF76DBF08B1EB
:1046F000FFF740BFFFF730BF08B560B1FFF780FF9D
:104700004FF4C87003F0E4FFFFF718FFBDE808405E
:10471000C82003F0DDBFBDE80840FFF70FBF08B1B8
:10472000FFF76EBFFFF70ABF08B1FFF779BFFFF7CA
:1047300005BF08B1FFF7C4BFFFF7AFBF08B1FFF770
:1047400099BFFFF7AABF0000034613B50C461046F9
:104750004BB1012B2CD004F051F91E4902B0BDE839
:10476000104003F04ABF0529F5D8DFE801F003083F
:104770000D12171C02B0BDE81040FFF7B8BF02B021
:10478000BDE81040FFF7AEBF02B0BDE81040FFF734
:10479000A4BF02B0BDE81040FFF7AEBF02B0BDE855
:1047A0001040FFF7C1BF02B0BDE81040FFF7B7BF30
:1047B0000192FFF7C3FE019834B1012CCBD102B0B6
:1047C000BDE81040FFF7B5BF02B0BDE81040FFF7ED
:1047D000B5BF00BF6A9C0B0008B5FFF711FF4FF48F
:1047E000C87003F075FFFFF7A9FEBDE80840C820B8
:1047F00003F06EBF13B584B22046012104F039FBEB
:104800002046012104F035FB601C80B2012101909B
:1048100004F02FFB0198012102B0BDE8104004F024
:1048200028BB13B584B22046002104F022FB2046A9
:10483000002104F01EFB601C80B20021019004F0F6
:1048400018FB0198002102B0BDE8104004F011BB34
:1048500010B50446FFF7CEFF642003F039FF204671
:10486000FFF7DFFFBDE81040642003F031BF000018
:1048700008B5072825D8DFE800F004080C10141844
:104880001C20BDE80840FFF775BEBDE80840FFF7F3
:1048900063BEBDE80840FFF789BEBDE80840FFF7EA
:1048A00093BEBDE80840FFF773BEBDE80840FFF7C0
:1048B00099BEBDE80840FFF78FBFBDE80840FFF78D
:1048C000AFBE04F09BF8BDE80840014903F095BE77
:1048D0007A9C0B0038B50C4605460121A0B204F0C5
:1048E000B7FA45B1012D0BD004F088F8BDE8384087
:1048F000064903F082BE2046BDE83840FFF77ABF84
:104900002046BDE83840FFF7A3BF00BF6A9C0B00FC
:104910000B4608B9FFF712BE002198B204F0A9BAFD
:104920000346012B0846114604DC0BB9FFF7A0BF74
:10493000FFF7D0BF7047000010B1012809D07047C1
:10494000054B1860C3F84401044B1860044B186011
:104950007047FFF7B9BB00BF94D9032090E603204E
:1049600088E60320012808B526D1174A13681BB929
:10497000BDE80840FFF7A8BB012B1ED10021116044
:10498000124A13481370134A01701360124A1348F5
:1049900013680068013304BF03231360104B1968C8
:1049A000013104BF062119601168091A11600D490F
:1049B0001A680968521A1A6008BD04F01FF8BDE8A9
:1049C0000840094903F019BEE4D8032090D9032018
:1049D00081D9032088E603209CE60320A0E603207B
:1049E000E8D80320A4E60320899C0B0008B507281B
:1049F00016D8DFE800F00407090B0D0F11130C4B5C
:104A0000186808BD0B4BFBE70B4BF9E70B4BF7E7BF
:104A10000B4BF5E70B4BF3E70B4BF1E70B4BEFE7DA
:104A200003F0ECFF0A4903F0E8FD4FF0FF30E8E740
:104A3000C0D80320D4D80320D0D80320C8D803205E
:104A4000DCD80320CCD80320D8D80320C4D8032036
:104A5000999C0B00022808B503D8064B33F91000C7
:104A600008BD03F0CBFF044903F0C7FD4FF0FF3052
:104A7000F6E700BF2EA30B00A89C0B0013B50C4655
:104A8000FFF7B4FF01902046FFF7E4FF01990446C9
:104A90000022062003F0DCFF204603F019FE06206A
:104AA00002B0BDE8104003F0EABF000010B50D4BA6
:104AB0001A680D4B4FF43B714A4399581344002236
:104AC00091420DDD5C68844203F1100306D103F0CE
:104AD00095FF064903F091FD002010BD0132EFE77C
:104AE0000120FAE7E4D8032094D90320B79C0B00F7
:104AF000F0B5114B114A1E68944600239E4217DB05
:104B00001768154600218F420EDD6C68844205F15E
:104B1000100507D14FF43B72534303EB0113634479
:104B20001869F0BD0131EEE7013302F53B72E5E7AC
:104B30004FF0FF30F5E700BFE4D8032094D90320FD
:104B40002DE9F041194D1A4BD5F844E11F68844610
:104B50002B460024A74223DB10D1D3F844811A4608
:104B60000026B0450ADDD2F84C01604503D1D2F8E9
:104B70004801884217D001361432F2E7012F0BD1D9
:104B80002E460022964507DDD6F84801884206F1F8
:104B9000140608D00132F5E7013403F53B73D9E779
:104BA0000120BDE8F0810020FBE700BF94D903207D
:104BB000E4D80320F0B5134B134A1E689446002333
:104BC0009E421BDBD2F84471154600218F4211DD55
:104BD000D5F84841844205F1140509D14FF43B72E0
:104BE0005343142202FB01336344D3F85401F0BD54
:104BF0000131EBE7013302F53B72E1E74FF0FF30A3
:104C0000F5E700BFE4D8032094D9032030B50C4B5E
:104C10004FF43B7202FB01310022D1F844411346AC
:104C2000944208DDD1F84851854201D12BB90123C6
:104C300001321431F4E7002030BD1846FCE700BF14
:104C400094D9032084B0F8B506AC84E80F00DDE900
:104C500007010A9AFFF71EFC06AD0446BCAF012609
:104C6000069BB34212DDD5E905012A6AFFF712FC63
:104C700017F8013B33B1002C08BF00200136103576
:104C80000446EDE7002C18BF2046F7E72046BDE8B4
:104C9000F84004B0704700002DE9F743164C4FF47C
:104CA0003B7303FB014407460D460026A146D9F895
:104CB0004431B3421CDD94F85831D4F84881D4F81B
:104CC0005421BB4207D1D4F84C114046FFF728FECF
:104CD00001361434EBE7294640460192FFF796FF70
:104CE000019A0028F4D111464046FFF711FEEFE784
:104CF00003B0BDE8F08300BF94D9032010B504468B
:104D000078B903F07BFE0D4903F077FC0C4B1C7067
:104D100004F034F9BDE8104009490122002002F0F6
:104D2000F1BF012803D103F069FE0649ECE7022830
:104D3000EED103F063FE0449E6E700BFE79C0B00F9
:104D400082D90320FD9C0B00159D0B0038B504464D
:104D50001A4802F045FA052C2AD8DFE804F0031EB1
:104D6000202325271649174803F0A7FB154D134CA0
:104D70002A691548402103F0B1F91349204603F090
:104D80003CFC2A681048402103F0A8F90E4920464F
:104D900003F033FC0023236138BD0C49E3E70C49E1
:104DA0000C48E1E70C49FBE70C49F9E70C49F7E748
:104DB00003F024FE0B4903F020FCD7E7B0DF03200B
:104DC0002B9D0B0000E003206DDF0320389D0B00BE
:104DD0004A9D0B0010E00320589D0B00689D0B00BE
:104DE000759D0B00419C0B002DE9F04188B0804679
:104DF00050480E9F0E4615461C4602F0F1F9B8F1D8
:104E0000000F6DD0013D062D62D8DFE805F00436B5
:104E100041464B505C0074BB4749484803F04DFB8A
:104E20004649684603F03EFB454B46496846002E1E
:104E300008BF194603F089FB0A220446394604A834
:104E400003F04DFB04A9204603F073FB40210268E8
:104E50003D4803F043F904A803F0B6FA684603F0AE
:104E6000B3FA3949334803F0C8FB324B00221A61C8
:104E700008B0BDE8F0813549CFE703F0BFFD344904
:104E80002246FFF74DF90CB93249C6E73249C4E76B
:104E90000CB93249C1E73249BFE70CB93149BCE727
:104EA0003149BAE70CB93149B7E73149B5E7012CC7
:104EB00005D0022C05D0002CB2D12E49ADE72E49E9
:104EC000ABE72E49A9E74CB92D491C4803F0F5FA88
:104ED00003F094FD2B4903F090FBA1E72A49F4E786
:104EE0003DB1012D21D003F089FD284903F085FB58
:104EF0000BE0072C09D8DFE804F0040A0C0E1012AE
:104F000014162349234803F0D8FA224989E7224995
:104F1000F8E72249F6E72249F4E72249F2E7224975
:104F2000F0E72249EEE72249ECE70CB92149E9E72D
:104F30002149E7E7B0DF03208B9D0B0010E0032041
:104F4000889D0B00859D0B006DDF0320A19D0B004C
:104F5000B89D0B00CF9D0B00DD9D0B00EB9D0B0062
:104F6000FB9D0B000B9E0B001B9E0B002B9E0B0052
:104F70003E9E0B00519E0B00629E0B00779E0B0025
:104F8000899E0B00B79E0B00A09E0B00409F0B005C
:104F9000CB9E0B0000E00320D59E0B00DE9E0B0095
:104FA000EB9E0B00F69E0B00FF9E0B000B9F0B0071
:104FB000159F0B00219F0B00319F0B0030B503782C
:104FC0002D2B0CBF01220022134603440A2400208B
:104FD00013F8011B3039CDB2092D02D804FB0010A3
:104FE000F6E702B1404230BD38B514460D4604F034
:104FF00051FD043C40B1FFF7E1FF294644F8040F9E
:10500000002004F047FDF5E738BD000037B58DF806
:1050100007200DF107030A4601460D480D4D01F02A
:10502000E3FC0128287010D003F0E8FC0A4903F0E3
:10503000D1FA03F0E3FC29780446054801F028FA88
:105040000146204603F0D9FA002003B030BD00BF6E
:1050500058E30320ACE60320569F0B00F0B58DB05B
:105060001E4D1F4A00951F4B12781F4F06466021A8
:10507000284601F0DAFC012838700FD003F0BEFC9E
:105080001A4903F0A7FA03F0B9FC39780446284618
:1050900001F0FEF90146204603F0AFFA144B12224C
:1050A000187807A9FFF7B2FFB0B107AC0FCC03AD7A
:1050B0000FC523682B8003F0A1FC0E4903AAFFF75C
:1050C0002FF80D49324603A8FFF78EFF034801F081
:1050D00066FC024801F0C3FA0DB0F0BD58E30320AE
:1050E00004D9032049E30320ACE603206D9F0B00A5
:1050F000E0D80320899F0B00E1D8032070B540B9A8
:105100003F4B1C68052C73D8DFE804F0051B3147C2
:1051100055633C4BF5E73A4D3B4E03F06FFC3B4982
:1051200003F058FA2B6801332B6033680133336086
:1051300003F064FC33682A683549FEF7F1FF204626
:1051400070BD2F4C304D03F059FC324903F042FA48
:105150002368013323602B6801332B6003F04EFC7E
:105160002B6822682A49FEF7DBFF0224E7E703F0F9
:1051700045FC254C2849224D03F02CFA4FF0FF3313
:105180002B6023680133236003F038FC23682A680E
:105190001F49FEF7C5FF0424D1E703F02FFC1F4988
:1051A00003F018FA174A1368013313601C4A136896
:1051B00001331360D9E703F021FC1A4903F00AFA1E
:1051C000104A136801331360154A136801331360E2
:1051D000B5E703F013FC144903F0FCF9094B4FF059
:1051E000FF321A600E4A1368013313600624A6E7E3
:1051F00003F004FC0D4903F0EDF94FF0FF349EE796
:105200009CE60320E8D80320A0E60320959F0B002E
:10521000AC9F0B00B29F0B00C99F0B00E09F0B00DF
:10522000A4E60320F79F0B000EA00B0025A00B00A7
:1052300070B588B0002405A8CDE90544ADF81C4040
:1052400003F0ECFA37482346224621464068364CA4
:1052500002F0E4FE03F0D2FB4FF4165103F0C2FB60
:105260002178BFF35B8F11F001010BD12046039130
:10527000FEF722FF039928B12C4802F09BFF20463D
:10528000FEF71FFF29482A4C012502F09DFF2B46FF
:105290003C2202212748009501F0B0FF264801F08A
:1052A00042FA264AFF21117051709170D17011712C
:1052B000517103F063FE002002F01CFDFF282070F6
:1052C0000DD103F09BFB00261D4903F096F92670D3
:1052D00003F054FE2A462146304602F013FD24789E
:1052E000BCB90121062003F0B3FD164802F02CFBE7
:1052F000154B01221A70154A1368013313604FF4DD
:105300003B71134A4B43D118D450C1F8444108B003
:1053100070BD012CFBD00121062008B0BDE8704013
:1053200003F096BD10E7032074D9032078D9032039
:1053300082D90320B0DF032058E3032049E3032090
:105340004DA00B0050E3032048E30320E4D80320E2
:1053500094D903202DE9F04F9A48DFF8BC829A4D8A
:10536000ADF53B7D01F00AFBF0B103F047FB974C34
:10537000974903F02FF9934801F0D1FC204601F042
:105380002FFF0121204601F066F800264FF001139F
:10539000C4E904638F48FFF761FE2B7888F800604A
:1053A000002B45D1FFF779F998F8003023B98A4BE3
:1053B0001B780BB1FFF7C2F8864C2D782368002DBF
:1053C00040F0A680854E002B4CD0062B40F09980F3
:1053D000FFF776F96368012B34D0022B35D02BB957
:1053E000A068FFF78BFC7E4B1B689847236801334E
:1053F0001CBF4FF0FF3323603368002B11DD98F89A
:10540000003073B1774C012122696068FFF742F8E0
:10541000754B1870754B02461968D4F84801FFF7B0
:1054200093F96A480DF53B7DBDE8F04F02F040B9B5
:105430000220FFF7F6F90420FFF7F3F90620FFF743
:10544000F0F9B1E788F80030D0E7A368012B03D169
:105450002846FFF771FAC9E703F0D0FA644903F070
:10546000CCF8C3E7634F6368A268634D3A605F4A54
:10547000E168DFF89C912B60012B116019DD03F0CE
:10548000BDFA5E4903F0B9F83A68564B296859608D
:10549000002A18BF02221A611A6801321A60D9F86C
:1054A00000300133C9F80030FFF70AF92868FFF728
:1054B0004DFCD9F80030002B20DD6368012B95D816
:1054C00003F09CFA4E4903F098F83B682968002BDA
:1054D000444B0CBF02220422C3F85421D3F84421C8
:1054E000C3F848110132C3F84421336801333360F3
:1054F000FFF7E6F82868FFF729FC77E7FFF71EF8C3
:1055000074E701333FF472AF03F078FA3D49A6E740
:10551000012D40F0B582012B3AD0062B40F07A8263
:105520006368012B1FD0022B20D02BB9A068FFF796
:10553000E5FB2B4B1B6898474FF0FF332360234854
:1055400002F0B6F898F800304BB12F4D2B68002BC5
:1055500040F067822D4B1B78002B40F065820DF5E3
:105560003B7DBDE8F08F88F80030E5E7A368012BAC
:1055700002D1FEF7A9FDDFE7022B03D12846FFF792
:10558000F1F9D9E703F03AFA194903F036F8D3E70D
:10559000E568144E1E4FDFF84490DFF880B0DFF866
:1055A00068A003F02BFA1B4903F014F86368052B7D
:1055B00077D8DFE813F03500B1007E01DB0104028B
:1055C0001B0200BF58E3032082D90320B0DF032071
:1055D0005AA00B00ECD8032048E3032088E6032000
:1055E000A8E6032094D90320B8E6032040E3032073
:1055F0006DA00B00B4E6032044E3032091A00B0050
:10560000A2A00B00B5A00B00E4D8032090D9032082
:1056100090E60320D6A00B0094E603208CE603203E
:10562000DFF82C9303F0EAF9B94902F0E6FF99F8A4
:105630000030002B5DD03A68DBF800309A4267D129
:105640002846FFF733FA002850D02846FFF750FAD3
:10565000411C04D1A068FFF751FD421C4DD0DAF87F
:1056600000E0D7F800C023694FF43B7101FB0EF155
:1056700001EB0C123244C2E903E0C2E90153725853
:10568000013272500CF101023A60D4E901710090CC
:10569000B1FA81F1B7FA87F02A4649094009FFF7C4
:1056A000A3FB03F0ABF99B4902F0A7FF03F0A6F9B7
:1056B000994902F0A2FF03F0A1F9984B98491A68A2
:1056C0004FF43B7303FB0266D6F844310293954BCB
:1056D0001B680193944B1B680093944B1B68FEF767
:1056E0001FFD03F08BF902F07CFF25E799F80030ED
:1056F0004BB903F083F98E4902E003F07FF98D493D
:1057000002F07BFFCDE73A68DBF800309A42C8D060
:1057100003F074F98849F3E703F070F9874902F060
:105720006CFF874B1F78002F62D0864BD4F810B0E7
:105730001B7829465846002B57D1FFF701FA00285D
:1057400056D0D9F80030002B52D12846FFF732FA54
:10575000431C074605D1A068FFF7D0FC0746781C1C
:105760009FD0DAF80000D9F800104FF43B734343A0
:10577000142202FB013232444FF0010A33445144F7
:10578000C2E9540782F858A1C9F80010D4E9010110
:10579000C2E9525BD3F84421B1FA81F15244B0FA24
:1057A00080F0C3F84421490900975B462A46400926
:1057B000FFF71AFB002D7FF474AFF9B201EB0A0278
:1057C000B8AD0523D2B2284602F00CF895E80300E4
:1057D0005D4F87E80300284602F011F8384602F0D2
:1057E000B3F85A4B83F800A05BE7FFF7A9F950B96B
:1057F000574B1B78002B3FF47CAF002F55D103F0A3
:10580000FDF854497CE72846FFF7D4F9411C0746C8
:1058100006D1A068FFF772FC421C07463FF441AF77
:10582000DAF800C0D9F8000023694FF43B7202FB9C
:105830000CF1142202FB0012324402F5A47EC2E9EC
:105840005253C2E954C700228EF81020721801305A
:10585000D2F84411C9F800000131C2F84411D4E96A
:105860000101B1FA81F1B0FA80F000972A464909A6
:105870004009FFF7B9FA002D7FF413AFF9B24A1CC3
:10588000B8AD0523D2B2284601F0ACFF95E803007D
:105890002D4F87E80300284601F0B1FF384602F09B
:1058A00053F82A4B01221A70FBE603F0A7F82A49A5
:1058B00026E703F0A3F8294902F09FFEDAF800205A
:1058C000531C04D0FAB9D9F80030002B1BDD204B53
:1058D000012119701A4900230B701A49CBF80030C6
:1058E0000B701F493B600B601E49C9F80030013244
:1058F0000B604FF43B71CAF800204A43B118B35013
:10590000C1F84431CDE603F079F81749F8E600BF55
:1059100091A00B0075A20B007DA20B00E4D8032020
:10592000B2A20B0088E603208CE6032090E6032059
:10593000F7A00B00EAA00B000AA10B00A2A00B002D
:1059400090D9032080D9032050E3032048E30320AB
:1059500081D903203FA10B0054A10B0065A10B00CE
:10596000A0E60320A4E6032072A10B0003F046F892
:105970007F4902F042FE7F4B1B78002B3FF4B9AE0B
:10598000DBF800303A68934213DAD9F8002092B974
:10599000DAF800204FF43B7101FB0262A1681A445F
:1059A000003918BF0121013382F8D812CBF800303A
:1059B00077E63FF776AE03F021F86F49A0E603F0F3
:1059C0001DF86E4902F019FE6A4B1B78002B3FF45C
:1059D00090AE3B68002B05DDDBF80020934201DD33
:1059E000674B5FE703F00AF8664989E603F006F8BB
:1059F000654902F002FE5F4B1B78002B3FF479AE45
:105A0000D9F80030002B01DD604B4BE702F0F6FFC8
:105A10005F4975E601333FF48FAD02F0EFFF5D495A
:105A2000B3E5012B7FF49BAD5B4C4FF4377204F16F
:105A30001001684603F0CAFF94E80F00FFF702F96F
:105A40000021FFF729F92D68012D7FF488AD4C4B1B
:105A50001B78002B3FF483AD04F53F714FF4377290
:105A6000684604F53B7403F0B1FF94E80F00FFF7BC
:105A7000E9F829460DF53B7DBDE8F04FFFF70CB97D
:105A8000022B1BD0062B6CD163686BB1012B12D09B
:105A90004FF0FF33236098F80030002B3FF45FADE8
:105AA000002388F800305AE5A068FFF727F93B4B40
:105AB0001B689847ECE788F80030E9E76268012A3C
:105AC0001CD0022A31D0002AE2D1D4E90201FEF72B
:105AD000D5FF334A33491368A06841F8230032499F
:105AE000E06841F8230001331360304B1B78002B32
:105AF000CED02F4A136801331360C9E72B490B78C6
:105B00006BB92748274E03680A704FF0FF3546F8F7
:105B10002350254E46F8235001330360B8E702F0C6
:105B20006DFF244902F069FDB2E7204A1378A3B162
:105B30001F490B68002B10DD19481A4D03686FF0E0
:105B4000010645F82360184DA66845F82360013327
:105B5000036000230B6013709AE702F04FFF1649B1
:105B6000E0E7013394D002F049FF0A49DAE700BFC9
:105B7000C4A10B0081D90320D5A10B0007A20B0003
:105B800090D9032016A20B0035A20B0080D9032068
:105B900044A20B00B5A00B0094D90320A8E6032073
:105BA00098E6032068E3032020E003206CDF032055
:105BB000B0E60320D5A20B000AA30B0038B50523DD
:105BC0001A4604211448154D01F00CFE144B1548DB
:105BD00000241C60C3F84441C3F8EC42C3F83044CD
:105BE0004FF0FF3101F008FA0F49284602F037FC68
:105BF0000D4905F1100002F032FC08220B4810217B
:105C000000F02FFC0A4B0B4A9A60C3E900440220C3
:105C1000BDE8384002F0B6B950E3032000E00320AD
:105C200094D90320B0DF03202CA30B0058E30320FA
:105C300084D903200000FFFF704710B510210446EF
:105C4000FEF72BFA204610BD73B5044608462279AC
:105C5000A36832B1A3B90B4902B0BDE8704002F0AD
:105C6000B9BC094A267B094D0949647B012E18BF3E
:105C70002946CDE900140749FEF744FA02B070BD89
:105C8000054AEFE745A30B004CA00B0041A30B0016
:105C90003DA30B005BA30B0034A30B002DE9F04FD9
:105CA00085B01F46BDF93880BDF83C30A8EB02092D
:105CB000A7EB010AB9F1000FB8BFC9F10009BAF1A9
:105CC000000FB8BFCAF1000AD14583460C461546FD
:105CD00004DD3A462C4647460D469046BC4205DD5B
:105CE0002A464546904622463C4617463E1BB2B2DF
:105CF0000092A8EB050282EAE271A1EBE271C6F321
:105D0000C03202FA86F64545B4BF01224FF0FF3299
:105D1000019176100292BC421CDCDBF80020039358
:105D2000D145D2F81880C7BF294622462A462146C7
:105D30005846C047019A039BB61AB1B236B2002E3C
:105D400005DA029A1544009A56182DB236B201347B
:105D500024B2E0E705B0BDE8F08F704710B40468E6
:105D60002469A4465DF8044B604730B40468BDF86C
:105D700008500295A46BA44630BC604730B4046858
:105D8000BDF808500295E46BA44630BC604770B47F
:105D9000BDF90C50BDF810600468CDE90356246CC1
:105DA000A44670BC60472DE9F3411C460368BDF86A
:105DB00020805B6905461646013C34440F4624B2F8
:105DC00098472B68CDF8048000949C6A28463B468F
:105DD00032463946A0472B68DB6A284602B0BDE848
:105DE000F04118472DE9F3411D460368BDF82080B6
:105DF0005B69044617460E469847CDE9007822684D
:105E00006B1E3344956A20461BB23A463146A8477A
:105E10002368DB6A204602B0BDE8F04118472DE94F
:105E2000F3471E460368BDF928905B69BDF82C80D6
:105E30000C460546174698472644B4422B680BDAB1
:105E4000CDF80080D3F820A021464B463A4628469C
:105E50000134D04724B2F0E7DB6A284602B0BDE83F
:105E6000F047184713B502680191B0F90E10009180
:105E7000146CB0F90C3000221146A04702B010BDDE
:105E80002DE9F74399421646BDF92870BDF82C90CC
:105E9000026880460D461C4613D1BE42C8BF334639
:105EA000CDF82890C4BF3E461F467B1C946B9B1BBD
:105EB0001BB2324629464046A44603B0BDE8F04333
:105EC0006047BE420AD19942C2BF0B4625461C46D6
:105ED000631CCDF82890D46B5B1BE9E753699847A6
:105EE000CDE90079D8F8003040469F6A3246234613
:105EF0002946B847D8F80030DB6A404603B0BDE811
:105F0000F04318472DE9F3471D460368BDF82C8080
:105F10005B69BDF9289004460F46164698472368EA
:105F2000CDF80080D3F824A032462B4639462046CF
:105F3000D0472368CDF8008009F1FF323244D3F80E
:105F400024A039462B46204612B2D0472368CDF80C
:105F50000080D3F820A032464B4639462046D04731
:105F60006B1ED9192368CDF800801D6A20464B4668
:105F7000324609B2A8472368DB6A204602B0BDE872
:105F8000F0471847704701F00303B0F90A20837601
:105F9000C907B0F9083059BF8381C2818281C381AA
:105FA0007047000030B54281C281074A074D018128
:105FB000002481814FF0FF31C0E905124460056083
:105FC00004610477046230BD0101000180A80B0068
:105FD0002DE9F04F89B0CDE902120268BDF9488081
:105FE0000493BDF94C3052690593BDF850A00446A6
:105FF000904718F107024FF0000648BF08F10E0263
:106000004FEAE20B01963546039B019ABDF9041055
:106010009A18059B8B4212B227DD049B33444FF044
:10602000000906930FFA89F080451FFA89F117DD00
:106030004F0705BF069BC0106D001D5C18BFEDB279
:106040002B060AD5029B206807921944836909B27E
:106050001F4620465346B847079A09F10109E1E770
:10606000019B013301935E44CEE72368DB6A20463F
:1060700009B0BDE8F04F18472DE9F04F2DED028B28
:1060800091B01646026ABDF874809DF878509DF86C
:106090007C4003911F46BDF8703004938346002A6C
:1060A00040F0C580B0F90C308B4240F34C81B0F920
:1060B0000E30B34240F34781062313FB0513002B38
:1060C00040F3418106EBC403002B40F33C81037F86
:1060D0001BB9AF2F84BF0137FFB2DBF80030584641
:1060E0005B6998470522099200220592984A07EBBE
:1060F0008703D3180C93B3B20693059A0C9B9B5C51
:106100000793ABB20B93BDF80C300893039B02FBD3
:1061100005F919FA83F90FFA89F308EE103A082302
:106120000A93039B02EB030A4FF000090FFA8AFA65
:10613000079ADBF80030D20752D5012D1FFA89F2F9
:106140003ED1012C3CD19B6906991F46049B0A4411
:1061500012B251465846B84709F101034FFA83F984
:10616000079B5B0807930A9B013B13F0FF030A930D
:10617000DED1059F01377BB20593099B013B13F0EC
:10618000FF030993B9D1049B43450FD0012DDBF8E0
:1061900000303BD1012C39D10899CDF80080053170
:1061A0001C6A3246082309B25846A047DBF8003083
:1061B000DB6A584611B0BDEC028BBDE8F04F1847C2
:1061C000069914FB02F20A44049901910094DB69D8
:1061D00018EE101A1F4612B22B465846B847BBE7B6
:1061E000049A4245B8D0012D1FFA89F207D1012C3B
:1061F00005D19B6906991F460A444346A8E70699BC
:10620000CDF8048014FB02F20A44DFE70B9ACDF8C4
:10621000048002EB8201089AE4000A4411460094CB
:10622000DC6932462B4609B25846A047BEE7137ACE
:10623000516812680B92FF1AFFB201EBC70331F8E5
:10624000372006929A780992DA780C92012D93F908
:10625000052093F906A00A9201D8012C57D9BDF95F
:10626000283008930FFA8AF30793DBF8003058467A
:106270005B699847B3B24FF000080E931AFA86F3A1
:10628000C14647460F930C9B9F428FD2079B0E9AA5
:106290003B4403FB0423002205920F9A1BB202EB3E
:1062A000070A08EE103A0FFA8AFA4346099A059946
:1062B000914241D25A1CD2B25B070D9207D1069B84
:1062C00006990B9A01339BB212F80190069319F0CC
:1062D000800F12D0012DDBF80030BDF80C101AD160
:1062E000012C18D10A9A9B691144059A11441E4643
:1062F0005246049B09B25846B047059E0136F3B298
:106300004FEA490905935FFA89F90D9BCEE700230F
:10631000CDE90733A9E70598089A024402FB051165
:10632000049ACDE90042DB6918EE102A1E4609B234
:106330002B465846B047E0E7099B013798445FFA7F
:1063400088F8FFB29FE711B0BDEC028BBDE8F08F7B
:1063500078A30B00F0B5026A85B004460B46002A0C
:1063600034D10A2908D1438A0282427E03EBC20358
:106370006382012005B0F0BD0D29FAD0E17E007ED8
:10638000657E71B1B4F91060062111FB0061B4F9AA
:106390000C60B142C1BFB4F91210228201EBC502F8
:1063A0006282E28A0192A28A0092CDE90205B4F9E2
:1063B0001220B4F910102046FFF75EFE237E228AD9
:1063C00003EB430302EB43032382D2E70A2907D1FD
:1063D00000230382417E927A438A01FB0233C7E79E
:1063E0000D29C6D0157AA942C3D3517A9942C0D398
:1063F00051685D1BEDB201EBC505A87828B3E978BB
:1064000019B3E17E267E677E91B195F905100844A7
:10641000B4F9101006FB0011B4F90C00814207DD3D
:1064200000202082B4F91210927A02FB07126282D5
:10643000E28A0192A28A0092CDE90267B4F91220A1
:10644000B4F910102046FFF717FE2979227E238A1F
:1064500001FB0233B8E7012938BF012101764176FB
:10646000704738B50446084621730121154602F0ED
:10647000EFFC207B012102F0FCFC28466573012122
:1064800002F0E6FC607B002102F0F3FC204638BD00
:106490000139C9B208299ABF024B53F821000248BA
:1064A000704700BFC8A90B00D0A80B0013B50B4C58
:1064B0002178BFF35B8F11F001010BD120460191D0
:1064C000FDF7FAFD019928B1054801F073FE204659
:1064D000FDF7F7FD024802B010BD00BF74D90320DC
:1064E00078D9032007B50190FFF7E0FF019903B0C9
:1064F0005DF804EB01F004BF2DE9F74F07469DF866
:1065000030801E461546002A42D001F07E01007BF5
:1065100041F08009002102F0ACFC4846FFF7E2FFA1
:10652000013DEDB24FF0000B4FF0010A5FFA8BF422
:10653000A54222D9DCB9B8F1000F18D04246D3B237
:10654000072B61B205D80AFA02F40C43E4B2013217
:10655000F5E748460191FFF7C5FF337801990440FC
:1065600023EA01031C4334700BF1010BDEE74846BC
:10657000FFF7B8FF06F80B00F6E70020FFF7B2FFC1
:106580007055387B012103B0BDE8F04F02F071BCBB
:1065900003B0BDE8F08F38B50C4605460021007BFE
:1065A00004F07E0402F065FC44F08000FFF79AFFDF
:1065B0000020FFF797FF01210446287B02F059FCD9
:1065C000204638BDF8B50F4606460021007B15462B
:1065D0001C4602F04EFC07F07E00FFF783FF2544C7
:1065E000AC4204D014F8010BFFF77CFFF8E7307BD6
:1065F0000121BDE8F84002F03CBC70B504460E46EF
:10660000007B0021154602F034FC06F07E00FFF707
:1066100069FF2846FFF766FF207B0121BDE8704037
:1066200002F027BC70B5164604460D46FFF7B3FFCF
:106630003043C2B229462046BDE87040FFF7DDBFB7
:1066400070B5164604460D46FFF7A5FF20EA060082
:10665000C2B229462046BDE87040FFF7CEBF0822EF
:106660001021FFF7EDBFF8B5044615460F4600228E
:1066700002211E46FFF7C1FF04220A212046FFF730
:10668000BCFF802214212046FFF7CCFF2A463B4660
:1066900012212046FFF796FF032202212046FFF732
:1066A000ACFF41F288350A212046FFF774FF43070B
:1066B00005D4013DADB2002DF5D104200FE000223C
:1066C00002212046FFF799FF44212046FFF763FF90
:1066D000422130702046FFF75EFF70700120F8BD48
:1066E00010B50F2202210446FFF787FF322001F088
:1066F000EFFF02212046FFF74EFFC306F9D410BD7D
:1067000010B528210446FFF746FF00F00303032BD2
:1067100008D040F00302D2B220462821BDE8104044
:10672000FFF76BBF10BD10B50446407B02F0BAFB0B
:1067300048BB607B012102F09CFB322001F0C8FFC6
:10674000204680225421FFF758FF2046A9225621D7
:10675000FFF753FF204603225821FFF74EFF204644
:10676000E8225A21FFF749FF204640222A21FFF75D
:1067700044FF20463D222221FFF73FFF2046BDE88F
:106780001040FFF7BDBF2046FFF7AAFFD8E72DE96D
:10679000F04F89B0DDE91356DDF8549003929DF86F
:1067A0005C209DF858B0049204468A460027B9F14F
:1067B000000F3ED099F80080059300220221204668
:1067C000FFF71BFF7F2208212046FFF716FF08EB8B
:1067D0000B18802214212046FFF724FF5FFA88F867
:1067E000059B9DF8482012212046FFF7EBFE42460C
:1067F0001A212046FFF701FF524602212046FFF7EB
:10680000FCFEBAF10C0F04D180221A212046FFF7BA
:1068100009FF4FF4FA6808212046FFF7BCFE039BEE
:10682000184208D1C30702D4B8F10108F3D10420FB
:106830004DE0C846C0E70C212046FFF7ACFE10F043
:10684000130F804646D1DDB1D6B114212046FFF7A3
:10685000A2FE3378834202463ED330702B4612218B
:106860002046CDF800B0FFF747FE18212046FFF77D
:1068700092FE00F00707B9F1000F01D089F800700F
:1068800018F0080F2AD15DB356B3049B43B3327896
:10689000012A03D1042F25D1092018E022D90FBBEA
:1068A000023A07ABD2B229462046FFF7DCFE0128A8
:1068B0000DD133781D449DF81C3015F8022C9A42F6
:1068C00010D115F8012C9DF81D309A420AD109B05B
:1068D000BDE8F08F0220FAE70520F8E70320F6E78D
:1068E0000120F4E70820F2E710B586B09DF82C40AF
:1068F00005949DF828400494099C0394089C0092F8
:10690000CDE9013430220B460C21FFF740FF06B0E1
:1069100010BD70B588B006461C468DF81710154698
:106920001AB31B78012B20D980221C21FFF788FE87
:1069300007238DF81F300023CDE902330DF11F032B
:10694000CDE9004301222B460DF117013046FFF738
:10695000CBFF012807D12378022B08D19DF81F30E7
:10696000002B18BF022008B070BD0520FBE70220F5
:10697000F9E713460A462621FFF7CBBF07B50223E6
:106980000DF1030201A98DF80330FFF7F2FF00F0CB
:10699000FD00431E5842584103B05DF804FB70B53A
:1069A00086B050238DF8143000240DF11603022216
:1069B00005A906468DF81540FFF755FE0128054646
:1069C0000FD1CDE90244CDE900442346042205A9B4
:1069D0003046FFF789FF042803D0012814BF05467D
:1069E0000225284606B070BD7FB506461D461446F2
:1069F000CAB11B78112B16D9302313705170931C18
:106A000021460222FFF72FFE01280AD10023CDE9FB
:106A10000133039000952346042221463046FFF7B8
:106A200063FF04B070BD0520FBE710B58AB00C9C75
:106A30008DF81D201A689B88ADF8223063788DF898
:106A40002430A3788DF82530E3788DF8263023792B
:106A50008DF827300023CDE90433CDE902330193CB
:106A60000C238DF81C10CDF81E200093102207ABCC
:106A70000E21FFF78CFE0AB010BD2DE9F04F502A11
:106A80008BB082460F46904600F2408180221C2146
:106A9000FFF7D6FD93238DF81C30B8F1000F00F0FE
:106AA000BC803C78042C94BF0023012301250026E0
:106AB0000BE095238DF81C30B8F1000F00F0AF808B
:106AC0003C78072C94BF00230123A8EBC60464B2D2
:106AD00024EAE474002B00F0A48088228DF81E20A4
:106AE000032114F0070218BF012202EBE40212F0A6
:106AF000FF02E0B21DD0002B14BF4FF003094FF08E
:106B0000040906F1010C914594BF01EB090E01EB5C
:106B1000020E57FA8CFC5FFA8EFE0A460DF1280B26
:106B20000131C9B25A441CF8019B02F80C9C714512
:106B3000F3D10BB1083044B21F2C74DD4FF0700359
:106B40009DF81F208DF81D309DF81E3053409DF894
:106B5000202053409DF8212053408DF822300722F9
:106B60000DF1230307A95046FFF77DFD012881465B
:106B700040F0C88000238DF81A3003238DF81B30B5
:106B800004940DF1220B4FF009099DF81A3005937A
:106B900003EB0312D2B21A215046FFF72EFD059BDC
:106BA00002930DF11A03002201930DF11B030392CE
:106BB00000934A465B4607A95046FFF795FE032817
:106BC00081464CD11C215046FFF7E5FC810600F1BF
:106BD000998010F01F0008BF2020A04240F387805A
:106BE000431E03F0070244B213F007034FEAD0003C
:106BF00018BF0123013018440AAB1844012303FADB
:106C000002F210F80C3C134300F80C3C94E7972375
:106C10008DF81C300626234657E7434646E7434691
:106C200053E702215DE7E3100233DBB204F0070211
:106C300014F007098DF81A2002EB03128DF81D20BD
:106C400018BF4FF0010907AA994402EB030BC3F1E7
:106C500009035FFA89F98DF81B30049495E7012840
:106C600050D1049B1F2B4FF020047FF767AF9DF896
:106C70001E30882B3ED103231A4601361A4457FA98
:106C800086F6D2B219460AA801330144DBB211F8E4
:106C90000C1C06F8011B9342F4D19DF81B60032ED7
:106CA00037D19DF81A40A4BB0DF11E0301225946AD
:106CB0005046FFF7D8FC0128814623D19DF81E20BD
:106CC0009BF801309A4227D19DF81F209BF8023093
:106CD0009A4221D19BF800305A070ED50135EDB20A
:106CE000032D94D0042D02D0022D3FF4E2AE4FF0DC
:106CF000060907E002230422BFE705EB450501353D
:106D0000FB723D7048460BB0BDE8F08F4FF00709AD
:106D1000F8E74FF00209F5E74FF00809F2E708B588
:106D200001460022FFF7A9FE431E5842584108BD04
:106D30000160704710B504460121008802F088F810
:106D40002088002102F095F8022000F0BBFF208887
:106D5000012102F08EF8052000F0B4FF2088002108
:106D600002F087F82088002102F072F820880121C3
:106D700002F0C2F83A2390FBF3F010BD10B5037295
:106D800001238171C271037410BD10B50446002146
:106D9000807902F05DF8A079012102F06AF8002301
:106DA000E36010BD2DE9F843044600F093FFE3686B
:106DB000834284BF0023E360237C23B9E368C01AC5
:106DC000B0F5FA6F67D30025257400F083FF012129
:106DD000E0602560A079257102F04BF8FA2001F0FF
:106DE00077FCA079012102F033F82946A07902F05E
:106DF00040F8142001F06CFC01F026FE0121A0797E
:106E000002F037F8282000F05DFFA079294602F053
:106E10001FF82E4601274FF00008A07902F042F833
:106E2000B8425FFA88F908D1012008F1010800F0A2
:106E300049FFB8F1FF0FF0D1C146A07902F032F856
:106E4000B9F1FF0FC7B214D0032D0ED9EA070CD445
:106E5000F2080136A35C5B00DBB2A354217A4945FA
:106E60003CBF43F00103A354F6B20135EDB2552DFA
:106E7000D1D101F0EBFD272E0FD96378207818448B
:106E8000A3781844E37818442379C0B2C31A58424F
:106E90005841BDE8F8830120FBE70020F9E7000036
:106EA00010B50446FFF77EFF20B3E3790B2B1BD010
:106EB000153B012B1ED8A378DFED106A03F07F028B
:106EC00007EE102AE27807EE902AB8EEC77AF8EEBD
:106ED000E77A1B06E7EE267AB2EE047A87EE870A97
:106EE00007D5B1EE400A04E0A37800EE103AB8EE00
:106EF000400A10BD9FED020AFBE700BF000080437F
:106F00000000C07FFFF7CCBF10B5044B0360044600
:106F1000C06A08B101F0D2F8204610BDE8AF0B00FE
:106F200010B50446FFF7F0FF20465021FDF7B5F8F5
:106F3000204610BD002910B54BDBB0F90C408C4247
:106F400047DD002A45DBB0F90E40944241DD847EE6
:106F5000022C1FD0032C26D0012C04D10489D2434B
:106F600014440A4621B2012B23D0022B32D083BB1A
:106F7000002A13460489C06AB8BFD31DDB1013FB77
:106F8000041102F0070201239340425C22EA03024B
:106F900042541EE00489013C611A4489D2432244D0
:106FA00009B212B2DFE74489013C641A114622B2E9
:106FB000D9E7002A04891346B8BFD31DDB1013FBA1
:106FC0000411C36A02F0070001228240585C0243A8
:106FD0005A5410BD002A13460489C06AB8BFD31D95
:106FE000DB1013FB041102F00702012303FA02F283
:106FF000435C5A40CCE7000070B5402204460E4680
:107000008021FEF7CFFF00250D4B2360656201F064
:10701000E3FFFF2384F8333084F83630094BA36351
:107020004FF6FF720123C4E90A05A28684F837608F
:1070300084F83C302564A4F84450204670BD00BF5D
:10704000E8AF0B00F4A90B00F8B50446806A0D46C2
:1070500090B194F9301001F0C3FDA06A03680021DB
:107060009B689847A06A036829469B689847A06A6E
:10707000BDE8F84001F0BBBD94F93530014698B247
:1070800001F0F7FE606A20B12946BDE8F84001F042
:1070900037B90826802794F9330005EA070180B242
:1070A00001F0E7FE94F93400012180B201F0E1FE25
:1070B00094F93400002180B201F0DBFE013E4FEA7A
:1070C0005707E8D1F8BD38B50446806A0D4680B14F
:1070D000A16C01F077FD002D204614BFA721A62149
:1070E000FFF7B2FFA06A88B1E16CBDE8384001F05B
:1070F00069BD606A18B104F1380101F093F894F9A0
:107100003600002180B201F0B4FEE4E794F93600C5
:10711000012180B201F0ADFE606A18B1BDE83840CF
:1071200001F066B838BD2DE9F8430446806A0D4683
:107130008F1840B394F9301001F052FDA06A036833
:1071400000219B6898470126AF42A06A17D01F2EE6
:107150000CD901F04CFD94F93010A06A01F040FD0B
:10716000A06A036800219B6898470126A06A15F869
:10717000011B036801369B689847F6B2E4E7BDE857
:10718000F84301F034BD94F93530014698B201F06E
:1071900070FEBD4222D0606A15F8019B18B14946C5
:1071A00001F0AEF8F5E708264FF0800894F93300B7
:1071B00009EA080180B201F05CFE94F93400012173
:1071C00080B201F056FE94F93400002180B201F043
:1071D00050FE013E4FEA5808E8D1DAE7BDE8F883EF
:1071E000B0F90A30DA1D48BF03F10E02B0F90830D9
:1071F000C06AD2105A43002102F0F6BB2DE9FF41CC
:107200001E46C36A9DF8288004460F461546D3B132
:107210002046FFF7E5FFB4F90A20202A25DCB4F95F
:1072200008102023203A73390120CDE9013002EB08
:10723000D272732301EBD171009342F34F02854B5D
:1072400041F34F011BE0B0F90A30D81D48BF03F1EC
:107250000E00B4F90830C010584300F027FFE06278
:107260000028D5D104B0BDE8F08140234FF0010CD7
:10727000CDE9013C802300930022774B1146204644
:10728000FEF7A6FEA06A84F83170002878D0002DA1
:1072900074D1B4F90A30202B0CBF3C253D2584F86D
:1072A0003050B8F1000F01D001F090FCFEB194F91C
:1072B000370000281BDB012180B201F0C9FD94F9E1
:1072C0003700012180B201F0D4FD012001F000FA65
:1072D00094F93700002180B201F0CBFD0A2001F0C3
:1072E000F7F994F93700012180B201F0C2FDA06ADC
:1072F000002874D0A16C01F065FC04225749204697
:10730000FFF711FF61890139C9B22046FFF79CFEE2
:10731000534904222046FFF706FF94F93130012B30
:107320000CBF102114212046FFF78EFE04224D4988
:107330002046FFF7F8FEA3684B4A93425CD14B49C5
:1073400004222046FFF7EFFED9212046FFF77CFEFE
:1073500094F93130012B0CBF2221F1212046FFF797
:1073600073FE204642490622FFF7DDFEA06A002890
:1073700063D0E16C01F026FC012073E76DB28EE76B
:1073800094F93500012180B201F062FD94F93600D4
:10739000012180B201F05CFD94F93600012180B238
:1073A00001F067FD656A3DB1B8F1000F3FF47EAFB3
:1073B000284600F009FF79E794F93300012180B2F3
:1073C00001F046FD94F93400012180B201F040FD46
:1073D00094F93400294680B201F04BFD66E7606AFB
:1073E00018B104F1380100F01DFF94F936000021B6
:1073F00080B201F03EFD80E71E4A93420ED11E4945
:1074000003222046FFF78FFE94F93130012B0CBF89
:107410009F21CF212046FFF717FE95E7174A934299
:1074200092D1174903222046FFF77DFE94F93130AF
:10743000012B0CBF1021AF21ECE794F9360001219C
:1074400080B201F016FD606A002895D000F0D0FEF1
:1074500092E700BF00AA0B00E0AB0B0048B00B00A6
:107460004CB00B0050B00B00800020005AB00B0055
:1074700054B00B00800040005EB00B0060001000B4
:1074800061B00B0070B5002ABDF810503DDBB0F9BB
:107490000A40944239DD0029BEBF5B181BB20021AF
:1074A000B0F90840CE18A642C4BF631A1BB2002B25
:1074B0002BDDC06AD61014FB0611014402F0070050
:1074C00001228240012DD2B216D0022D0BD0E5B997
:1074D000D243D2B20B44994217D011F8010B10409D
:1074E00001F8010CF7E70B4499420ED011F8010B9B
:1074F000504001F8010CF7E70B44994205D011F810
:10750000010B104301F8010CF7E770BDF0B500293D
:10751000BDF8145076DBB0F90860B14272DA002A87
:10752000BEBF9B181BB20022B0F90A40D718A74271
:10753000C4BFA31A1BB2002B64DDC2F3C404C76A24
:1075400016FB041612F00702DBB207EB060423D089
:10755000C2F10802D2B22D4993423CBF4FF0FF0C5A
:10756000A2EB030E895C3CBF4CFA0EFC0CEA010155
:10757000012D07D0022D2ED04DB917F806C02CEAE8
:10758000010103E017F806C041EA0C01B955934226
:1075900038D3B0F908100C449A1AD2B2072A0ED97F
:1075A000022D1DD113462178C9432170083BB0F943
:1075B0000810DBB2072B0C44F5D802F007020AB31F
:1075C000134B012D9B5C1AD0022D1CD0D5B922780B
:1075D00022EA030315E017F806C081EA0C01D5E79B
:1075E000291E18BF01214942C9B213462170083B28
:1075F000B0F90860DBB2072B3444F7D8DDE7227816
:1076000013432370F0BD22785340FAE738B00B00E3
:1076100040B00B0070B41446827EBDF80C60022AA4
:107620000DD0032A18D0012A11D10289E443144451
:1076300024B203960A46214670BCFFF767BF428911
:107640000589E44319441444691A24B209B2039623
:10765000224670BCFFF716BF45891944691A09B262
:10766000E7E730B41446827EBDF80850022A0DD0F8
:10767000032A18D0012A11D1E2180489A41A24B2CD
:1076800002950A46214630BCFFF7FCBE0289C94379
:107690001144E2184489A41A09B224B20295224680
:1076A00030BCFFF733BF4289C943114409B2E7E751
:1076B0002DE9F8430446806A002842D0A16C01F00D
:1076C00081FA474905222046FFF72DFD218901391E
:1076D0002046C9B2FFF7B8FCB4F90A30DE1D48BF36
:1076E00003F10E06D4E90A052389F61013FB06F60A
:1076F00015FA86F600283AD094F9301001F070FAA5
:10770000A06A036840219B6898470127B542A06A98
:1077100024D01F2F0CD901F06AFA94F93010A06A16
:1077200001F05EFAA06A036840219B689847012730
:10773000A06A15F8011B036801379B689847FFB2E0
:10774000E4E7606A18B104F1380100F06BFD94F9C8
:107750003600002180B201F08CFBB2E701F047FA5D
:10776000A06A78B3E16CBDE8F84301F02BBA94F954
:107770003500012180B201F07CFBAE42F0D0606A9E
:1077800015F8019B18B1494600F0BAFDF5E7082746
:107790004FF0800894F9330009EA080180B201F043
:1077A00068FB94F93400012180B201F062FB94F986
:1077B0003400002180B201F05CFB013F4FEA580821
:1077C000E8D1DAE794F93600012180B201F051FBEB
:1077D000606A18B1BDE8F84300F00ABDBDE8F8835F
:1077E00064B00B0010B50446017042708370012133
:1077F00003EB430002F0E2F86060204610BD10B5D4
:107800000446406800F05AFC204610BD10B5002127
:107810000446007801F02DFB142000F053FA207884
:10782000012101F026FBBDE81040142000F04ABA07
:1078300070B506460C46082523064CBF01210021E1
:10784000707801F016FB013D3046FFF7DFFF640062
:1078500015F0FF05E4B2EFD170BD73B513F0800FE2
:107860001E460C46154614BFC021E021730658BFC2
:1078700041F010012A0658BF41F008016B0658BFBD
:1078800041F00401220658BF41F00201630658BFCF
:1078900041F001010190FFF7CBFF01983146FFF75E
:1078A000C7FF01982946FFF7C3FF0198214602B0A0
:1078B000BDE87040FFF7BCBF2DE9F04704460F4616
:1078C0000021904699469DF820A0FFF7B1FF0021C6
:1078D0002046FFF7ADFF00212046FFF7A9FF00215A
:1078E0002046FFF7A5FF0026A378F5B2AB4219D9D1
:1078F00005EB4500AF4200F1010200F1020308D19F
:10790000616801F80080616801F80290616801F81F
:1079100003A06168CB5C8A5C095C2046FFF79DFF91
:107920000136E1E720460021FFF782FF20460021D3
:10793000FFF77EFF20460021FFF77AFF2046002157
:10794000BDE8F047FFF774BF73B504460121007826
:1079500001F07EFA6078012101F07AFA00252E46C6
:10796000A378E9B28B4207D9002300961A46204635
:10797000FFF7A2FF0135F3E702B070BD0000000081
:10798000F8B5B5EEC01AF7EE007AF1EE10FA2DED6B
:10799000048BF0EE418A48BF71EE278AB0EE409A20
:1079A000F4EEE78AF1EE10FAC8BF78EEE78AB0EE9F
:1079B000608A18EE900A01F099FC2EA3D3E9002307
:1079C00004460D4601F05CFF10B378EE497A17EEDD
:1079D000900A01F08BFC264B002201F0DFFC2246CE
:1079E0002B4601F0DBFC044619EE100A0D4601F0AF
:1079F0007DFC02460B462046294601F019FB01F0AA
:107A000087FF08EE100AB0EE480ABDEC048BF8BD03
:107A1000F6EE007AF4EEE78AF1EE10FAF3D412A350
:107A2000D3E900232046294601F02AFFB8B178EEB9
:107A3000497A17EE900A01F059FC224606460F4695
:107A40002B4609A1D1E9000101F0F0FA02460B46EC
:107A50003046394601F0A2FC054B0022C1E7B0EEEA
:107A6000498AD0E7AFF30080555555555555E53F48
:107A700000001840555555555555C53F00000000AC
:107A80002DE9F0432DED048BF5EE400AF1EE10FAEE
:107A900083B080468946F0EE409AB0EE609AB0EE30
:107AA000418A00F09D8011EE100A01F01FFCF6EEF5
:107AB000007AB4EEE78AF1EE10FA06460F4640F17E
:107AC0008A8019EE100A01F011FC4D4B002201F0E2
:107AD000AFFA32463B4601F061FC01F019FF08EEB7
:107AE000900A19EE900A01F001FC324604463B462A
:107AF0000D463046394601F09BFA064618EE900ACC
:107B00000F4601F0F3FB02460B463046394601F0C2
:107B10008DFA01F0FDFE36A3D3E9002309EE100A29
:107B20002946204601F084FA01F0F2FEF0EE680AE0
:107B300001EE100AB0EE490AFFF722FFB0EE691A13
:107B4000F0EE680AB0EE408AB0EE490AFFF718FF7F
:107B500027A3D3E900232046294610EE106A01F03E
:107B600065FA01F0D5FEF0EE680A01EE100AB0EEFB
:107B7000490AFFF705FF10EE104A304601F0B6FB48
:107B80001DA3D3E9002301F009FC01F0A1FEC6B258
:107B900018EE100A01F0AAFB17A3D3E9002301F0A5
:107BA000FDFB01F095FEC5B2204601F09FFB12A33C
:107BB000D3E9002301F0F2FB01F08AFEC0B200908D
:107BC00033462A4649464046FFF776FE03B0BDECF1
:107BD000048BBDE8F08379EE088AE9EE488A80E7F5
:107BE00011EE104A11EE106AC7E700BFAFF3008034
:107BF000555555555555D53F0000000000E06F40E4
:107C00000000F03F08B5024B1B689B68019308BD5C
:107C10006802030008B5024B1B68DB68019308BDCE
:107C20006802030008B5024B1B685B68019308BD3E
:107C30002C02030008B5024B1B689B68019308BD2A
:107C40002C02030008B5024B1B68DB68019308BDDA
:107C50002C02030008B5024B1B681B69019308BD89
:107C60002C02030008B5024B1B685B69019308BD39
:107C70002C02030008B5024B1B681B6A019308BD68
:107C80002C02030008B5024B1B685B6A019308BD18
:107C90002C02030008B5024B1B681B6B019308BD47
:107CA0002C02030008B5024B1B68DB6C019308BD76
:107CB0002C02030008B5024B1B685B68019308BDEA
:107CC0001802030008B5024B1B68DB68019308BD6E
:107CD0001802030008B5024B1B685B69019308BDDD
:107CE0001802030008B5024B1B689B6A019308BD8C
:107CF0001802030008B5024B1B68DB6A019308BD3C
:107D00001802030008B5024B1B689B6C019308BD69
:107D10001802030008B5024B1B685B6C019308BD99
:107D20004802030008B5024B1B685B69019308BD5C
:107D30006402030008B5024B1B68DB68019308BDB1
:107D40003C02030008B5024B1B681B69019308BD88
:107D50003C02030008B5024B1B685B69019308BD38
:107D60003C02030008B5024B1B689B69019308BDE8
:107D70003C02030008B5024B1B68DB69019308BD98
:107D80003C02030008B5024B1B681B6A019308BD47
:107D90003C02030008B5024B1B689B6A019308BDB7
:107DA0003C02030008B5024B1B681B6C019308BD25
:107DB0003C02030008B5024B1B681B68019308BD19
:107DC0002802030008B5024B1B68DB68019308BD5D
:107DD0002802030008B5024B1B689B69019308BD8C
:107DE0002802030008B5024B1B68DB69019308BD3C
:107DF0002802030008B5024B1B681B6A019308BDEB
:107E00002802030008B5024B1B685B6A019308BD9A
:107E10002802030008B5024B1B689B6A019308BD4A
:107E20002802030008B5024B1B68DB6A019308BDFA
:107E30002802030008B5024B1B681B6B019308BDA9
:107E40002802030008B5024B1B685B6B019308BD59
:107E50002802030008B5024B1B681B6C019308BD88
:107E60002802030008B5024B1B681B68019308BD7C
:107E70003002030008B5024B1B685B69019308BD23
:107E80003002030008B5024B1B68DB69019308BD93
:107E90003002030008B5024B1B681B6A019308BD42
:107EA0003002030008B5024B1B685B6A019308BDF2
:107EB0003002030008B5024B1B68DB6B019308BD61
:107EC0003002030008B5024B1B681B6C019308BD10
:107ED0003002030008B5024B1B685B6C019308BDC0
:107EE0003002030008B5024B1B681B68019308BDF4
:107EF0002402030008B5024B1B685B68019308BDB0
:107F00002402030008B5024B1B681B68019308BDDF
:107F10004C02030008B5024B1B685B68019308BD67
:107F20004C02030008B5024B1B681B69019308BD96
:107F30004C02030008B5024B1B685B69019308BD46
:107F40004C02030008B5024B1B689B69019308BDF6
:107F50004C02030008B5024B1B68DB69019308BDA6
:107F60004C02030008B5024B1B681B6A019308BD55
:107F70004C02030008B5024B1B685B6B019308BD04
:107F80006002030008B5024B1B685B68019308BDE3
:107F90002002030008B5024B1B685B69019308BD12
:107FA0002002030008B5034B1B68D3F88830019307
:107FB00008BD00002002030008B5034B1B68D3F87E
:107FC0009430019308BD00002002030008B5024B65
:107FD0001B685B68019308BD4002030008B5024BB3
:107FE0001B689B68019308BD4002030008B5024B63
:107FF0001B68DB68019308BD4002030008B5024B13
:108000001B681B69019308BD4002030008B5024BC1
:108010001B685B69019308BD4002030008B5024B71
:108020001B689B69019308BD4002030008B5024B21
:108030001B68DB69019308BD4002030008B5024BD1
:108040001B681B6A019308BD4002030008B5024B80
:108050001B681B6B019308BD4002030008B5024B6F
:108060001B685B6B019308BD4002030008B5024B1F
:108070001B681B6C019308BD4002030008B5024B4E
:108080001B685B6C019308BD4002030008B5024BFE
:108090001B68DB6B019308BD4402030008B5024B6B
:1080A0001B685B6C019308BD4402030008B5024BDA
:1080B0001B681B68019308BD1C02030008B5024B36
:1080C0001B685B68019308BD1C02030008B5024BE6
:1080D0001B689B68019308BD1C02030008B5024B96
:1080E0001B68DB69019308BD1C02030008B5024B45
:1080F0001B685B6A019308BD1C02030008B5024BB4
:108100001B681B6B019308BD1C02030008B5024BE2
:108110001B681B6C019308BD1C02030008B5024BD1
:108120001B685B6C019308BD1C02030000224068C1
:108130001146FFF783BF002240681146FFF78EBF4C
:1081400040680022FFF782BF4068002281F00101F1
:10815000FFF76CBF002340681A461946FFF75EBF61
:10816000002340681A461946FFF750BF00224068B6
:108170001146FFF743BF002240681146FFF72EBFAC
:10818000406800220221FFF731BF002340681A46F1
:10819000FFF71CBF024B03225A60024A1A60704765
:1081A000BCE6032074B00B000021FFF793BE002152
:1081B000FFF788BE10B5044608462170FFF762FE3F
:1081C00000236360204610BD13B504460078FFF716
:1081D000EEFF58B9207801904FF6FF71FFF742FE8D
:1081E000019802B0BDE81040FFF7DEBF02B010BD3D
:1081F0000078FFF7D9BF0000400830B518600024B0
:1082000018688842E5B206D90134082C02D040082B
:108210001860F5E70725024B5B5D137030BD00BFAA
:10822000A8B00B002DE9F04306468FB000780C464D
:10823000FFF7BDFF00281BDB35781422002109A8B9
:1082400001F0D2FB0B23002209A92846ADF8243007
:10825000FFF728FE9DF82D3013B19DF82C5055B135
:108260000027B946B846012523795DB1C3B1002086
:108270000FB0BDE8F083DDF830809DF834909DF8B4
:108280003570F1E7002B35D1A368434508D18DF84F
:1082900020908DF82170BDF82020A3899A42E6D065
:1082A0000023A1688DF80F300A9804AB0DF10F027E
:1082B000FFF7A2FF217985B989B9A36843450ED399
:1082C0008DF820908DF82170BDF82020A3899A4266
:1082D00005D1049B434502D1C9E70029F9D1002308
:1082E0000193637B00939DF80F20237B3078FFF789
:1082F000E1FDBCE7CDE900552B462A460121F5E713
:1083000008B50078FFF7B6FDC0B208BD054B0222E4
:108310001A60054B054A9A600020C3E90000FFF788
:1083200031BE00BFD0E60320C4E603200000FFFFFB
:1083300010B5044601F0A6FB0138231820468342FD
:1083400006D90278197800F8011B03F80129F6E72D
:1083500010BD70B50C46911E22291DD8254630B996
:10836000234430229D4210D205F8012BFAE7B0FBDE
:10837000F2F602FB1600C1B2092894BF3031573122
:10838000C9B205F8011B3046E9E7002320462B70EF
:10839000FFF7CEFF204670BD0020FCE738B5031E76
:1083A0000C4615460EDAB3F1004F4FF02D0214BF04
:1083B0005842184601230A702A461944FFF7C9FF9C
:1083C000204638BD0123F9E710B504460068FFF7E1
:1083D00075FE204610BD10B50446006808B1FFF7D1
:1083E0006DFE0023C4E90133236010BD38B5044697
:1083F0000D4600680131FFF769FE10B1C4E90005C0
:10840000012038BD10B50368044623B143688B4290
:1084100001D3012010BD2046FFF7E8FF0028F9D066
:10842000A368002BF5D122681370F2E737B50D462B
:10843000114601920446FFF7E5FF019A28B920464C
:10844000FFF7C9FF204603B030BDA260294620686F
:1084500001F0BCFA2268A3680021D154F2E700239E
:1084600013B5C0E9003304468360037341B1084685
:10847000019101F007FB019902462046FFF7D6FF64
:10848000204602B010BD884210B5044605D00B68E6
:108490002BB18A681946FFF7C9FF204610BDFFF7C8
:1084A0009AFFFAE710B500230446C0E90033836061
:1084B0000373FFF7E8FF204610BD13B5044659B11A
:1084C0000846019101F0DEFA019902462046FFF7C5
:1084D000ADFF204602B010BDFFF77DFFF9E710B5F4
:1084E00004468AB00023C4E90033A360237308461E
:1084F00001A9FFF753FF01A92046FFF7DEFF204641
:108500000AB010BD70B505460E4609B9002070BD11
:108510006AB1846814442146FFF774FF0028F5D03F
:108520002868AB683146184401F0A4FAAC60012019
:10853000EDE710B58A6809680446FFF7E3FF10B954
:108540002046FFF748FF204610BD13B5044629B961
:108550002046FFF740FF204602B010BD08460191BB
:1085600001F090FA019902462046FFF7CBFF002860
:10857000EED0F0E7024800230360FFF7CBBB00BF5B
:10858000D4E60320F8B506460D468F180024BD42F8
:108590000CD0336815F8011B9B6830469847031EC2
:1085A00001DB1C44F3E7002C08BF1C462046F8BD45
:1085B00013B50446084659B1019101F063FA2368E6
:1085C0000199DB680246204602B0BDE8104018471A
:1085D00002B010BD08B5FFF7EBFF08BD03689B684C
:1085E000184738B50D210546FFF7F8FF0A21044664
:1085F0002846FFF7F3FF204438BD38B50546FFF79E
:10860000D7FF04462846FFF7ECFF204438BD30B5BD
:108610008BB00023012A8DF8243098BF0A2209ACC0
:108620000D46B1FBF2F101FB125303F0FF03092BDE
:1086300094BF30333733DBB2AA4204F8013DEFD99F
:108640002146FFF7B5FF0BB030BD2DE9F04186B0F4
:1086500000AF05460E46381D142114463B60FFF757
:1086600045FD13280ED8391D2846FFF7A1FF044603
:108670001EB12846FFF7B5FF044420461837BD4613
:10868000BDE8F08100F1080323F00703E846ADEBF5
:10869000030D2246411C3B686846FFF727FD6946EB
:1086A0002846FFF785FF0446C546E1E7014B024A2D
:1086B0001A607047D8E60320B0B00B00024B1A686E
:1086C000024B1A60704700BF08D90320DCE6032084
:1086D0000021FFF75FBC0000014B00229A60704749
:1086E000E0E60320014B1860704700BF0CD903205F
:1086F00008B50B4B43B100F081F903681B6998473B
:10870000002801DDAFF30080064B43B100F012FCFE
:1087100003681B699847002801DDAFF3008008BD9E
:10872000000000000000000008B5FFF7E1FFFFF7C0
:10873000D1FA014B186008BD38E703200548064A06
:10874000064908B5121A01F041F9054B054A1A60AD
:1087500008BD00BF00F4032004F4032044B30B0061
:1087600000F403201E1C279A07B5002300931A4625
:108770006FF07701FFF720FC03B05DF804FB000009
:1087800007B543880A2B08D0502B0BD1094B1B6827
:108790004BB103B05DF804EB1847FFF7E5FF03B0FA
:1087A0005DF804FB002300931A466FF07701FFF792
:1087B00003FCF4E7F4E6032010B512480021FFF7AC
:1087C000ADFC114B1A68114B9A42114B0CBF0122A0
:1087D00000221A7001D0FFF7B1FFFFF76BFA0446D1
:1087E00001F01AF90B4B13B12046AFF300800021C2
:1087F0000848FFF74BFCBDE8104007480021FFF791
:10880000D1BB00BFE5860B0000F403201E1C279A95
:10881000F0E603200000000081870B001FB50C2349
:10882000ADF8043003688DF80630037A8DF8073010
:10883000436802930021437AADF80D1001A88DF82A
:108840000F108DF80C30FFF729FC05B05DF804FB24
:10885000704710B518210446FBF71FFC204610BDD9
:10886000F0B5037D062B8DB00E4600F104074FF0E6
:10887000000412D000F1080515F8011D0A22304647
:10888000FFF7C5FEAF42044419D0002CF4D02E21CE
:108890003046FFF7A3FE0444EEE72F236A4639462D
:1088A0000A208DF80040FFF73DFA684601F0EAF82B
:1088B00033680246DB6869463046984704462046DE
:1088C0000DB0F0BD10B5054B0446112240F8043B35
:1088D000002101F089F8204610BD00BFD8B00B0080
:1088E0000346074A10B543F8042B01F1100251F872
:1088F000044B43F8044B9142F9D10A781A7010BD29
:10890000D8B00B0010B59DF8084044EA032343EAB1
:10891000024242EA016104234160037510BD000078
:1089200007B5064B0360CB7800938B784A780978BB
:10893000FFF7E8FF03B05DF804FB00BFD8B00B0001
:10894000417470477047704708B50021007CFFF7FD
:10895000F9FA40EAE07008BD08B50121007CFFF794
:10896000F1FA40EAE07008BD08B5007CFFF7E2FAD2
:1089700020EAE07008BD08B5007CFFF7D3FA20EAD2
:10898000E07008BD13B50446007C0191FFF7D2FAF0
:108990000028019901DC607C20B1207CFFF7DAFA25
:1089A00020EAE07002B010BD007CFFF7DBBA10B522
:1089B00014210446FBF771FB204610BD10B54FF49F
:1089C0007A73044608460021C4E90113044B23606E
:1089D0000123207463741146FFF794FA204610BDFA
:1089E000ECB00B00007C0022FFF794BA10B5142203
:1089F0000446002100F0F8FF204610BD10B50F4CD2
:108A000088B003A8FFF7F2FF2178BFF35B8F11F066
:108A100001010FD120460191FBF74EFB019948B1AE
:108A200003AA0748FFF7CAFF2046FBF74AFB0548A1
:108A300000F0BEFF024808B010BD00BFF8E60320FA
:108A4000FCE6032045890B00FFF71CB9FFF712B9BC
:108A5000F8B587B2044638460D46164600F0BAF916
:108A600060B102213846FFF7DDF8022806D1324610
:108A700029462046BDE8F840FFF734BAF8BD38B5BE
:108A800085B20446284600F0A5F950B102212846D7
:108A9000FFF7C8F8022804D12046BDE83840FFF7A8
:108AA00029BA38BD70474174704708B5007CFFF79C
:108AB00071F920EAE07008BD08B5007CFFF742F9C3
:108AC00020EAE07008BD08B5007CFFF74BF940EAEA
:108AD000E07008BD08B5007CFFF73CF940EAE070A3
:108AE00008BD007CFFF746B937B5457C04462DB17B
:108AF000207C03B0BDE83040FFF71CB9007C019139
:108B0000FFF748F900280199F2DC284603B030BD90
:108B100010B514210446FBF7C0FA204610BD000032
:108B200010B54FF47A730446084611460022C4E992
:108B30000123044B2360012320746374FFF732F98F
:108B4000204610BD1CB10B007047F8B5064615460F
:108B50000C468F18BC4206D0336814F8011B9B6882
:108B600030469847F6E72846F8BD007C0022FFF71C
:108B700041B9007C0021FFF745B9007C0021FFF7D7
:108B800049B9007C0021FFF74DB9007C0021FFF7B7
:108B900051B910B514210446FBF77FFA204610BDE9
:108BA00010B54FF47A73044608460021C4E9011356
:108BB000034B236020741146FFF74CF9204610BD8B
:108BC0004CB10B00007C0022FFF7F4B80023007CBE
:108BD0001A461946FFF7F6B8007C0022FFF7FAB8EC
:108BE000C9B2FFF7F9BF007C0022FFF7FBB80121F3
:108BF000FFF7F9BF002240681146FFF7FFB90022D6
:108C000040681146FFF71ABA002240681146FFF784
:108C100025BA40680022FFF719BA4068002281F0A7
:108C20000101FFF703BA002340681A461946FFF70F
:108C3000F5B9002340681A461946FFF7E7B9002244
:108C400040681146FFF7CAB9406800220221FFF7C9
:108C5000CDB9002340681A46FFF7B8B9024B042289
:108C60005A60024A1A60704710E7032074B10B0083
:108C7000002340681A46FFF7A9B940680022022184
:108C8000FFF7B4B9002240681146FFF7A7B90022E8
:108C900040681146FFF7B2B9002340681A461946EA
:108CA000FFF7B4B9002340681A461946FFF7B6B972
:108CB00040680021FFF7DAB940680021FFF7DEB90C
:108CC0004068002281F00101FFF7B0B9406800223E
:108CD000FFF7BCB9002240681146FFF7BFB9002278
:108CE00040681146FFF7AAB92DE9F04395B0144644
:108CF0000D460746FFF7E6FD00211C220DA8009156
:108D000000F072FE40230C9320466B460CAA002113
:108D1000FEF780FF044600284BD102460121686817
:108D2000FFF76CF90221804622466868FFF766F972
:108D3000009E81462146002E3BD0002939D1736820
:108D4000022B03D00A2B11D0F669F4E7B8F1000F1B
:108D5000FAD0716906A8043107ADFFF7E1FD0FCD28
:108D60003C1D0FC42B6823704146EDE7B9F1000F9D
:108D7000EAD07469102201A800F036FE06238DF8AF
:108D8000143001AD04F108031834186859682A46F4
:108D900003C20833A3421546F7D101A906A807ADBF
:108DA000FFF79EFD0FCD3C1D0FC42B682370494675
:108DB000CAE70098FEF726FF384615B0BDE8F083F5
:108DC000024B034A1A6000225A60704718E70320DA
:108DD000B0B10B00232813B502D9002002B010BD9A
:108DE000A0F10B03022B1AD8174C2178BFF35B8F2D
:108DF00011F001010BD120460191FBF75DF90199BA
:108E000028B11248FFF7D6F92046FBF75AF90F4B65
:108E10001878FFF73FF80028DFD10120DEE70128AE
:108E200009D800F0D9F80021007CFFF70BF880F09A
:108E30000100C0B2D2E709380128EED800F07AF874
:108E4000007CFEF79FFFF2E774D9032078D9032056
:108E5000232838B504460D460AD8FF2908D0FFF765
:108E6000B9FF28B129462046BDE83840FEF7E2BEEA
:108E700038BD38B504460D46FEF7E4FEFF2810D095
:108E8000062804D84D2323FA00F0C30709D420464E
:108E9000FFF7A0FF28B129462046BDE83840FEF77D
:108EA000D9BE38BD10B50446FEF7CCFE031FDBB2B9
:108EB000012B08D92046FFF78DFF20B12046BDE8E1
:108EC0001040FEF7CFBE002010BD0D2810B504469F
:108ED0009CBF0E34A4B22046FFF77CFF50B10321A3
:108EE0002046FEF79FFE032804D12046BDE810402F
:108EF000FEF7D0BE002010BDFEF7D4BE70470000C4
:108F000038B5044614252A46002100F06DFD258061
:108F10004025074925812846258200F081F804492B
:108F20006060284600F07CF8E060204638BD00BF55
:108F3000E4B10B0030B50E4D2978BFF35B8F11F013
:108F4000010487B011D12846FBF7B6F868B101A833
:108F5000FFF7D6FF01AA21460648FFF7E1FD2846A4
:108F6000FBF7AFF8044800F023FD024807B030BD1E
:108F700020E7032024E70320FD8E0B0010B5084CEA
:108F80002378BFF35B8FDB0708D42046FBF794F808
:108F900020B1FEF7A7FE2046FBF793F8014810BD6D
:108FA0003CE7032040E703207047000038B5202548
:108FB000142304460360856005610649284600F0D5
:108FC0002FF804496060284600F02AF8E060204647
:108FD00038BD00BFE4B10B0030B50E4D2978BFF3AA
:108FE0005B8F11F0010487B011D12846FBF764F8BC
:108FF00068B101A8FFF7DAFF01AA21460648FFF78A
:10900000CFFD2846FBF75DF8044800F0D1FC02488C
:1090100007B030BD44E7032048E70320A98F0B00C9
:10902000FBF739B881F0004102E000BF83F0004354
:1090300030B54FEA41044FEA430594EA050F08BFF3
:1090400090EA020F1FBF54EA000C55EA020C7FEAB7
:10905000645C7FEA655C00F0E2804FEA5454D4EB34
:109060005555B8BF6D420CDD2C4480EA020281EAFE
:10907000030382EA000083EA010180EA020281EA36
:109080000303362D88BF30BD11F0004F4FEA013188
:109090004FF4801C4CEA113102D0404261EB410197
:1090A00013F0004F4FEA03334CEA133302D052421D
:1090B00063EB430394EA050F00F0A780A4F10104D9
:1090C000D5F1200E0DDB02FA0EFC22FA05F2801813
:1090D00041F1000103FA0EF2801843FA05F35941F9
:1090E0000EE0A5F120050EF1200E012A03FA0EFC78
:1090F00028BF4CF0020C43FA05F3C01851EBE371A2
:1091000001F0004507D54FF0000EDCF1000C7EEBBE
:1091100000006EEB0101B1F5801F1BD3B1F5001FFC
:109120000CD349085FEA30004FEA3C0C04F101041B
:109130004FEA445212F5800F80F09A80BCF1004F44
:1091400008BF5FEA500C50F1000041EB045141EAC6
:10915000050130BD5FEA4C0C404141EB0101013C8F
:1091600028BFB1F5801FE9D291F0000F04BF01467E
:109170000020B1FA81F308BF2033A3F10B03B3F150
:1091800020020CDA0C3208DD02F1140CC2F10C02E0
:1091900001FA0CF021FA02F10CE002F11402D8BF3E
:1091A000C2F1200C01FA02F120FA0CFCDCBF41EA0A
:1091B0000C019040E41AA2BF01EB0451294330BDD9
:1091C0006FEA04041F3C1CDA0C340EDC04F11404B6
:1091D000C4F1200220FA04F001FA02F340EA03008D
:1091E00021FA04F345EA030130BDC4F10C04C4F1D3
:1091F000200220FA02F001FA04F340EA03002946B3
:1092000030BD21FA04F0294630BD94F0000F83F4FC
:10921000801306BF81F480110134013D4EE77FEADF
:10922000645C18BF7FEA655C29D094EA050F08BF2B
:1092300090EA020F05D054EA000C04BF194610460C
:1092400030BD91EA030F1EBF0021002030BD5FEA50
:10925000545C05D14000494128BF41F0004130BD78
:1092600014F580043CBF01F5801130BD01F00045CC
:1092700045F0FE4141F470014FF0000030BD7FEA3F
:10928000645C1ABF194610467FEA655C1CBF0B463A
:10929000024650EA013406BF52EA033591EA030F51
:1092A00041F4002130BD00BF90F0000F04BF002149
:1092B000704730B54FF4806404F132044FF000057C
:1092C0004FF0000150E700BF90F0000F04BF0021F5
:1092D000704730B54FF4806404F1320410F000455B
:1092E00048BF40424FF000013EE700BF42004FEA56
:1092F000E2014FEA31014FEA02701FBF12F07F43D3
:1093000093F07F4F81F06051704732F07F4208BF89
:10931000704793F07F4F04BF41F40021704730B590
:109320004FF4607401F0004521F000411CE700BFDC
:1093300050EA010208BF704730B54FF000050AE05F
:1093400050EA010208BF704730B511F0004502D560
:10935000404261EB41014FF4806404F132045FEA62
:10936000915C3FF4D8AE4FF003025FEADC0C18BF0B
:1093700003325FEADC0C18BF033202EBDC02C2F1FD
:10938000200300FA03FC20FA02F001FA03FE40EA8F
:109390000E0021FA02F11444BDE600BF70B54FF093
:1093A000FF0C4CF4E06C1CEA11541DBF1CEA135571
:1093B00094EA0C0F95EA0C0F00F0DEF82C4481EAD9
:1093C000030621EA4C5123EA4C5350EA013518BFF9
:1093D00052EA033541F4801143F4801338D0A0FBE6
:1093E00002CE4FF00005E1FB02E506F00042E0FB93
:1093F00003E54FF00006E1FB03569CF0000F18BF99
:109400004EF0010EA4F1FF04B6F5007F64F5407440
:1094100004D25FEA4E0E6D4146EB060642EAC621D3
:1094200041EA55514FEAC52040EA5E504FEACE2E40
:10943000B4F1FD0C88BFBCF5E06F1ED8BEF1004F43
:1094400008BF5FEA500E50F1000041EB045170BDBF
:1094500006F0004646EA010140EA020081EA030103
:10946000B4EB5C04C2BFD4EB0C0541EA045170BDFF
:1094700041F480114FF0000E013C00F3AB8014F179
:10948000360FDEBF002001F0004170BDC4F10004C2
:10949000203C35DA0C341BDC04F11404C4F1200543
:1094A00000FA05F320FA04F001FA05F240EA02009E
:1094B00001F0004221F0004110EBD37021FA04F6D4
:1094C00042EB06015EEA430E08BF20EAD37070BD8E
:1094D000C4F10C04C4F1200500FA04F320FA05F0ED
:1094E00001FA04F240EA020001F0004110EBD370EF
:1094F00041F100015EEA430E08BF20EAD37070BD5F
:10950000C4F1200500FA05F24EEA020E20FA04F337
:1095100001FA05F243EA020321FA04F001F00041E6
:1095200021FA04F220EA020000EBD3705EEA430E57
:1095300008BF20EAD37070BD94F0000F0FD101F086
:109540000046400041EB010111F4801F08BF013CBF
:10955000F7D041EA060195F0000F18BF704703F0FD
:109560000046520043EB030313F4801F08BF013D84
:10957000F7D043EA0603704794EA0C0F0CEA135540
:1095800018BF95EA0C0F0CD050EA410618BF52EAFA
:109590004306D1D181EA030101F000414FF0000000
:1095A00070BD50EA410606BF1046194652EA43060E
:1095B00019D094EA0C0F02D150EA013613D195EA82
:1095C0000C0F05D152EA03361CBF104619460AD1CA
:1095D00081EA030101F0004141F0FE4141F47001D4
:1095E0004FF0000070BD41F0FE4141F4780170BDC4
:1095F00070B54FF0FF0C4CF4E06C1CEA11541DBF29
:109600001CEA135594EA0C0F95EA0C0F00F0A7F82A
:10961000A4EB050481EA030E52EA03354FEA013157
:1096200000F088804FEA03334FF0805545EA13136A
:1096300043EA12634FEA022245EA111545EA106532
:109640004FEA00260EF000419D4208BF964244F1C9
:10965000FD0404F5407402D25B084FEA3202B61AE8
:1096600065EB03055B084FEA32024FF480104FF4BC
:10967000002CB6EB020E75EB030E22BFB61A754630
:1096800040EA0C005B084FEA3202B6EB020E75EBC3
:10969000030E22BFB61A754640EA5C005B084FEA2B
:1096A0003202B6EB020E75EB030E22BFB61A7546F8
:1096B00040EA9C005B084FEA3202B6EB020E75EB03
:1096C000030E22BFB61A754640EADC0055EA060EC4
:1096D00018D04FEA051545EA16754FEA06164FEA07
:1096E000C30343EA52734FEAC2025FEA1C1CC0D1B3
:1096F00011F4801F0BD141EA00014FF000004FF040
:10970000004CB6E711F4801F04BF01430020B4F100
:10971000FD0C88BFBCF5E06F3FF6AFAEB5EB030CB8
:1097200004BFB6EB020C5FEA500C50F1000041EBB5
:10973000045170BD0EF0004E4EEA113114EB5C0482
:10974000C2BFD4EB0C0541EA045170BD41F4801155
:109750004FF0000E013C90E645EA060E8DE60CEA5D
:10976000135594EA0C0F08BF95EA0C0F3FF43BAF7A
:1097700094EA0C0F0AD150EA01347FF434AF95EA31
:109780000C0F7FF425AF104619462CE795EA0C0F15
:1097900006D152EA03353FF4FDAE1046194622E7E2
:1097A00050EA410618BF52EA43067FF4C5AE50EABC
:1097B00041047FF40DAF52EA43057FF4EBAE12E7AC
:1097C0004FF0FF3C06E000BF4FF0010C02E000BF8D
:1097D0004FF0010C4DF804CD4FEA410C7FEA6C5C70
:1097E0004FEA430C18BF7FEA6C5C1BD001B050EA13
:1097F000410C0CBF52EA430C91EA030F02BF90EAFE
:10980000020F0020704710F1000F91EA030F58BFBC
:10981000994208BF90422CBFD8176FEAE37040F01E
:10982000010070474FEA410C7FEA6C5C02D150EABC
:10983000013C07D14FEA430C7FEA6C5CD6D152EA77
:10984000033CD3D05DF8040B704700BF844610463C
:1098500062468C461946634600E000BF01B5FFF73B
:10986000B7FF002848BF10F1000F01BD4DF808ED0B
:10987000FFF7F4FF0CBF012000205DF808FB00BFDC
:109880004DF808EDFFF7EAFF34BF012000205DF836
:1098900008FB00BF4DF808EDFFF7E0FF94BF012083
:1098A00000205DF808FB00BF4DF808EDFFF7CEFF84
:1098B00094BF012000205DF808FB00BF4DF808EDC3
:1098C000FFF7C4FF34BF012000205DF808FB00BF94
:1098D0004A0011D212F5001211D20DD56FF478732F
:1098E000B3EB62520ED44FEAC12343F0004343EA84
:1098F000505323FA02F070474FF00000704750EACF
:10990000013002D14FF0FF3070474FF00000704738
:109910004FEA4102B2F1E04324BFB3F5001CDCF191
:10992000FE5C0DD901F0004C4FEAC0024CEA5070C9
:10993000B2F1004F40EB830008BF20F001007047F8
:1099400011F0804F21D113F13872BCBF01F00040FB
:10995000704741F480114FEA5252C2F11802C2F12D
:10996000200C10FA0CF320FA02F018BF40F00100AE
:109970004FEAC1234FEAD32303FA0CFC40EA0C0060
:1099800023FA02F34FEA4303CCE77FEA625307D19D
:1099900050EA01331EBF4FF0FE4040F440007047D4
:1099A00001F0004040F0FE4040F40000704700BF6E
:1099B000002301461A46184600F0C8B8024B0A4672
:1099C0000146186800F018B80CD903200A449142E7
:1099D00000F1FF3300D1704710B511F8014B03F8C7
:1099E000014F9142F9D110BD02440346934200D188
:1099F000704703F8011BF9E713B54A43114601927A
:109A0000FEF77CFB044618B1019A0021FFF7ECFF3A
:109A1000204602B010BD000038B5104B1D68AB6B7E
:109A20000446B3B91820FEF741FB0246A86320B9EB
:109A30000B4B0C484221FEF769FB0B490B4BC0E96D
:109A400000130B4B83600B23838100210120C2E9AB
:109A50000401AB6B00221C615A6138BD0CD9032094
:109A6000E5B10B00FCB10B000E33CDAB34126DE64B
:109A7000ECDE0500034611F8012B03F8012B002A48
:109A8000F9D17047034613F8012B002AFBD1181AAD
:109A900001387047164B73B51E68B46D0546FCB9A6
:109AA00050200191FEF702FB0199B065024620B9F2
:109AB000104B11485721FEF729FBC0E90044C0E9CB
:109AC0000244C0E90444C0E90A44C0E90C44C0E9C6
:109AD0000E44C0E91044C0E9124484610477446232
