:02000002B0004C
:1040000000400B006CAF0B00000006000C00050226
:084010000401E50C00000000B2
:0440180080980B0081
:1040200009480A49884208B505D0094A824202D0A7
:10403000121A05F0FFFA0748074A0021121A05F084
:1040400007FB014808BD00BF40DF0320A8AE0B00FE
:10405000DCDF0320DCDF0320EDE7032070B5074E33
:10406000074C04F01DFAA41BA4080025AC4200D1A3
:1040700070BD56F8043B98470135F7E750AE0B008A
:1040800074AE0B0000F0DEBF08B501F067F9BDE8C3
:10409000084004F0BDB903F07DBE03F083BE00000C
:1040A00008B5034A03490C2003F0D8FDFEE700BF22
:1040B000FD790B0094980B000078B0FA80F040096D
:1040C00070470123037070470EB403B503AB0021A2
:1040D00053F8042B019304F02CF902B05DF804EBC3
:1040E00003B070470EB403B503AB012153F8042BA2
:1040F000019304F01EF902B05DF804EB03B07047C1
:1041000008B5112004F02BFD40F6C3139842D4BF2C
:104110000020012008BD08B50021022004F0E2FCC7
:10412000022004F009FD431E5842584108BD00001A
:1041300008B5132004F013FD07EE900AF8EEE77AB5
:10414000F1EE046A67EEA67A9FED096A87EE867A39
:10415000DFED087A67EE277A87EEA67ADFED067A3A
:10416000B4EEE77AF1EE10FAACBF0120002008BDF2
:1041700000C07F440000964300002A4408B50F2089
:1041800004F0EDFCB0F52F7FB4BF0020012008BD86
:10419000023808B5032813D8DFE800F002060A0E3B
:1041A000BDE80840FFF7ACBFBDE80840FFF7E6BF39
:1041B000BDE80840FFF7AFBFBDE80840FFF7B8BF54
:1041C00004F090FA024904F08CF8002008BD00BF0A
:1041D000A9980B0007B5014601A802F045FC01A80B
:1041E00002F044FC09288CBF0020012003B05DF8D8
:1041F00004FB07B5014601A802F036FC01A802F055
:1042000035FC0A28D4BF0020012003B05DF804FB70
:10421000022808B50BD004280BD060B9132004F095
:104220009EFCB0F57A7FB4BF0020012008BD1120AC
:10423000F5E70F20F3E70020F8E7022808B50BD0D8
:1042400004280BD060B9132004F089FCB0F57A7F04
:10425000CCBF0020012008BD1120F5E70F20F3E7B7
:104260000020F8E708B580B204F079FCB0F52F7FA4
:10427000B4BF0020012008BD08B580B204F06FFC77
:10428000B0F52F7FCCBF0020012008BD07B580B25C
:104290000021019004F026FC019804F04DFC431E1F
:1042A0005842584103B05DF804FB07B580B20021C5
:1042B000019004F017FC019804F03EFCB0FA80F085
:1042C000400903B05DF804FB022807B524D0042898
:1042D00024D018B9132004F042FC0190DDED017ADE
:1042E0009FED0F6AF8EEE77AF1EE046A67EEA67AC0
:1042F00087EE867ADFED0B7A67EE277A87EEA67A6D
:10430000DFED097AB4EEE77AF1EE10FAACBF0120E6
:10431000002003B05DF804FB1120DCE70F20DAE792
:1043200000C07F440000964300002A44022807B5DD
:1043300024D0042824D018B9132004F010FC0190D4
:10434000DDED017A9FED0F6AF8EEE77AF1EE046A8F
:1043500067EEA67A87EE867ADFED0B7A67EE277A2C
:1043600087EEA67ADFED097AB4EEE77AF1EE10FA7D
:1043700094BF0120002003B05DF804FB1120DCE7AE
:104380000F20DAE700C07F440000964300002A4473
:1043900030B52DED028B87B0C1B206230B2201A8E8
:1043A00002F088FB01A802F08CFB01A802F046FC99
:1043B000B5EE400AF1EE10FAB4EE400A0CBF01244B
:1043C0000024F1EE10FA68BF44F00104B0EE408A18
:1043D000002CEAD104F086F9054618EE100A04F024
:1043E000B9FD02460B4628460A49FFF77BFEB5EEAB
:1043F000C08AF1EE10FA08DDF2EE007AB4EEE78A38
:10440000F1EE10FA4CBF01240024204607B0BDECA9
:10441000028B30BDB6980B0010B52DED028B86B027
:10442000C1B206230B2201A802F044FB01A802F04E
:1044300048FB01A802F002FCB4EE400AF1EE10FACB
:10444000B0EE408AF5D6B5EE400AF1EE10FAF0D0A3
:1044500004F048F9044618EE100A04F07BFD024609
:104460000B4620460C49FFF73DFEF1EE0C7AB4EE08
:10447000E78AF1EE10FA04DC002006B0BDEC028BF6
:1044800010BDF3EE0A7AB4EEE78AF1EE10FA4CBFF3
:1044900001200020F1E700BFB6980B0030B52DEDEC
:1044A000028B87B0C1B206230B2201A802F002FBE7
:1044B00001A802F006FB01A802F0C0FBB5EE400A1D
:1044C000F1EE10FAB4EE400A0CBF01240024F1EE24
:1044D00010FA68BF44F00104B0EE408A002CEAD123
:1044E00004F000F9054618EE100A04F033FD024608
:1044F0000B4628460B49FFF7F5FDF3EE097AB4EEBB
:10450000E78AF1EE10FA08DDDFED077AB4EEE78A0C
:10451000F1EE10FA4CBF01240024204607B0BDEC98
:10452000028B30BDB6980B000000484208B5034628
:10453000013B1046062B43D8DFE803F00409121BA9
:10454000242D0400C1BBBDE80840FFF743BE19B9E4
:10455000BDE80840FFF771BEBDE80840FFF758BE50
:1045600019B9BDE80840FFF787BEBDE80840FFF76E
:1045700079BE19B9BDE80840FFF797BEBDE808400D
:10458000FFF784BE19B9BDE80840FFF7CFBEBDE80C
:104590000840FFF799BE012906D0022908D059B971
:1045A000BDE80840FFF7F4BEBDE80840FFF734BFA0
:1045B000BDE80840FFF772BFBDE80840FFF719BE2D
:1045C00004F090F8024903F08CFE002008BD00BF03
:1045D000BF980B0084B0F8B506AC84E80F00DDE9A5
:1045E00007010A9AFFF7A2FF06AD0446BCAF0126F9
:1045F000069BB34212DDD5E905012A6AFFF796FF53
:1046000017F8013B33B1002C08BF002001361035EC
:104610000446EDE7002C18BF2046F7E72046BDE82A
:10462000F84004B07047000038B504461A4802F05C
:1046300073FC052C2AD8DFE804F0031E202325276D
:104640001649174803F0ADFD154D134C2A6915485E
:10465000402103F0B7FB1349204603F042FE2A68CD
:104660001048402103F0AEFB0E49204603F039FE0E
:104670000023236138BD0C49E3E70C490C48E1E70E
:104680000C49FBE70C49F9E70C49F7E704F02AF875
:104690000B4903F026FED7E718E60320D2980B005B
:1046A00068E60320D8E50320DF980B00F1980B00A3
:1046B00078E60320FF980B000F990B001C990B0064
:1046C000A9980B002DE9F04188B0804650480E9F14
:1046D0000E4615461C4602F01FFCB8F1000F6DD0C7
:1046E000013D062D62D8DFE805F0043641464B5007
:1046F0005C0074BB4749484803F053FD464968468F
:1047000003F044FD454B46496846002E08BF194654
:1047100003F08FFD0A220446394604A803F053FD36
:1047200004A9204603F079FD402102683D4803F0CA
:1047300049FB04A803F0BCFC684603F0B9FC394906
:10474000334803F0CEFD324B00221A6108B0BDE8B9
:10475000F0813549CFE703F0C5FF34492246FFF722
:10476000C1FC0CB93249C6E73249C4E70CB9324939
:10477000C1E73249BFE70CB93149BCE73149BAE773
:104780000CB93149B7E73149B5E7012C05D0022C06
:1047900005D0002CB2D12E49ADE72E49ABE72E490A
:1047A000A9E74CB92D491C4803F0FBFC03F09AFF24
:1047B0002B4903F096FDA1E72A49F4E73DB1012D0D
:1047C00021D003F08FFF284903F08BFD0BE0072C6D
:1047D00009D8DFE804F0040A0C0E1012141623495D
:1047E000234803F0DEFC224989E72249F8E7224901
:1047F000F6E72249F4E72249F2E72249F0E72249A5
:10480000EEE72249ECE70CB92149E9E72149E7E75E
:1048100018E6032032990B0078E603202F990B004D
:104820002C990B00D8E5032048990B005F990B00E9
:1048300076990B0084990B0092990B00A2990B00BA
:10484000B2990B00C2990B00D2990B00E5990B00AD
:10485000F8990B00099A0B001E9A0B00309A0B0076
:104860005E9A0B00479A0B00E79A0B00729A0B00B6
:1048700068E603207C9A0B00859A0B00929A0B0045
:104880009D9A0B00A69A0B00B29A0B00BC9A0B00E3
:10489000C89A0B00D89A0B0030B503782D2B0CBFAB
:1048A00001220022134603440A24002013F8011BAE
:1048B0003039CDB2092D02D804FB0010F6E702B161
:1048C000404230BD70B514460D4604F017FF261F58
:1048D00040B1FFF7E1FF294646F8040F002004F03D
:1048E0000DFFF5E7236813B9014B01221A7070BD63
:1048F00088E6032037B58DF807200DF107030A4637
:1049000001460D480D4D01F00BFF0128287010D015
:1049100003F0E8FE0A4903F0D1FC03F0E3FE297836
:104920000446054801F050FC0146204603F0D9FC3E
:10493000002003B030BD00BFA0E60320C0E6032086
:10494000FD9A0B00F0B58DB01E4D1F4A00951F4B10
:1049500012781F4F06466021284601F002FF012809
:1049600038700FD003F0BEFE1A4903F0A7FC03F025
:10497000B9FE39780446284601F026FC0146204657
:1049800003F0AFFC144B1222187807A9FFF7B2FF0F
:10499000B0B107AC0FCC03AD0FC523682B8003F07B
:1049A000A1FE0E4903AAFFF79DFB0D49324603A85D
:1049B000FFF788FF034801F08EFE024801F0EBFC90
:1049C0000DB0F0BDA0E603206CDF032089E60320D4
:1049D000C0E60320149B0B0044DF0320309B0B0038
:1049E00045DF032010B569B903F07CFE274903F0C9
:1049F00078FC274B1C68052C40D8DFE804F0050F35
:104A00001A262D34234BF5E703F06CFE224903F000
:104A100055FC1F4A13680133136014E003F062FE73
:104A20001E4903F04BFC1A4A136801331360022439
:104A300009E003F057FE1A4903F040FC144B4FF015
:104A4000FF321A600424204610BD03F04BFE1549C6
:104A500003F034FC0F4AE7E703F044FE124903F089
:104A60002DFC0C4AD6E703F03DFE104903F026FC6E
:104A7000084B4FF0FF321A600624E4E703F032FEE1
:104A80000B4903F01BFC4FF0FF34DCE73C9B0B00B1
:104A9000BCE603204CDF0320499B0B00609B0B000E
:104AA000779B0B008E9B0B00A59B0B00BC9B0B0008
:104AB000D39B0B0007B50023044800931A46194600
:104AC00002F096FD03B05DF804FB00BF98E60320FA
:104AD00007B5002304480093FF22194602F088FD21
:104AE00003B05DF804FB00BF98E6032007B50A2376
:104AF000002200930348FF23114602F079FD03B022
:104B00005DF804FB98E6032007B5FF23009300231C
:104B100003481A46194602F06BFD03B05DF804FB2A
:104B200098E6032007B5002104480091E923FF22FD
:104B300002F05EFD03B05DF804FB00BF98E60320C1
:104B400007B575230093044846236C22002102F028
:104B50004FFD03B05DF804FB98E6032007B5002184
:104B6000044800918023FF2202F042FD03B05DF86B
:104B700004FB00BF98E6032007B5FF230448009319
:104B80001A46002102F034FD03B05DF804FB00BFBB
:104B900098E6032008B50121062003F0A3FF0121B8
:104BA000062003F0B0FF0121062003F0ACFF012135
:104BB000072003F0A8FFBDE808400121072003F00B
:104BC000A2BF08B50121062003F08CFF00210620BA
:104BD00003F099FF0021062003F095FF0021072034
:104BE00003F091FFBDE808400021072003F08BBFD0
:104BF00008B5FFF7CFFF642003F0DEFBFFF7E1FF0E
:104C0000BDE80840642003F0D7BB08B1FFF77CBFC4
:104C1000FFF7A4BF08B1FFF785BFFFF791BF08B149
:104C2000FFF764BFFFF754BF08B560B1FFF7A4FFFB
:104C30004FF4C87003F0C0FBFFF73CFFBDE808402D
:104C4000C82003F0B9BBBDE80840FFF733BF08B187
:104C5000FFF792BFFFF72EBF2DE9F84308B30FF21D
:104C60005409D9E90089124F6426002400252946F9
:104C7000204604F081FCB6EE081A00EE100AF0EEB1
:104C8000410A0021384602F097FD20462946424657
:104C90004B4604F001F8013E04460D46E7D1BDE85D
:104CA000F883BDE8F843FFF705BF00BFAFF300800E
:104CB00098E603207B14AE47E17A843F08B1FFF702
:104CC00097BFFFF77EBF08B1FFF764BFFFF779BF5B
:104CD000034613B50C4610464BB1012B2CD003F004
:104CE00001FD1E4902B0BDE8104003F0FABA0529E3
:104CF000F5D8DFE801F003080D12171C02B0BDE87B
:104D00001040FFF78CBF02B0BDE81040FFF782BF34
:104D100002B0BDE81040FFF778BF02B0BDE8104018
:104D2000FFF782BF02B0BDE81040FFF795BF02B0A9
:104D3000BDE81040FFF78BBF0192FFF7BBFE019863
:104D400034B1012CCBD102B0BDE81040FFF7B6BFA3
:104D500002B0BDE81040FFF7B6BF00BFFB9B0B00E1
:104D600007B50023044800931A46194602F040FC98
:104D700003B05DF804FB00BF90E6032007B50023F5
:104D800004480093FF22194602F032FC03B05DF89C
:104D900004FB00BF90E6032007B50A23002200931E
:104DA0000348FF23114602F023FC03B05DF804FB27
:104DB00090E6032007B5FF230093002303481A461B
:104DC000194602F015FC03B05DF804FB90E60320E1
:104DD00007B5002104480091E923FF2202F008FCF6
:104DE00003B05DF804FB00BF90E6032007B5752310
:104DF0000093044846236C22002102F0F9FB03B023
:104E00005DF804FB90E6032007B5002104480091FB
:104E10008023FF2202F0ECFB03B05DF804FB00BF2F
:104E200090E6032007B5FF23044800931A460021AB
:104E300002F0DEFB03B05DF804FB00BF90E6032048
:104E400008B5FFF7EFFF4FF4C87003F0B5FAFFF7AE
:104E500087FFBDE80840C82003F0AEBA000000009C
:104E60002DE9F8430FF24409D9E900890E4F642671
:104E7000002400252946204604F07EFBB6EE081AE1
:104E800000EE100AF0EE410A0021384602F094FCD0
:104E90002046294642464B4603F0FEFE013E0446AC
:104EA0000D46E7D1BDE8F88390E603207B14AE47BA
:104EB000E17A843F13B584B22046012103F023FE3A
:104EC0002046012103F01FFE601C80B201210190E9
:104ED00003F019FE0198012102B0BDE8104003F073
:104EE00012BE13B584B22046002103F00CFE20460A
:104EF000002103F008FE601C80B20021019003F045
:104F000002FE0198002102B0BDE8104003F0FBBD95
:104F100010B50446FFF7CEFF642003F04DFA20469B
:104F2000FFF7DFFFBDE81040642003F045BA000042
:104F3000F7B5284F3B780446A3B1C9B24A1C6D4669
:104F40000523D2B2284602F0E9FA95E80300224E82
:104F500086E80300284602F0EEFA304602F090FBA5
:104F600000233B70072C2DD8DFE804F004090E1352
:104F7000181D222703B0BDE8F040FFF70DBF03B0B6
:104F8000BDE8F040FFF7FABE03B0BDE8F040FFF720
:104F90001FBF03B0BDE8F040FFF728BF03B0BDE876
:104FA000F040FFF707BF03B0BDE8F040FFF72CBFAC
:104FB00003B0BDE8F040FFF743BF03B0BDE8F040E9
:104FC000FFF74EBF03F08EFB044903B0BDE8F0408D
:104FD00003F087B947DF032090E603200B9C0B000A
:104FE00038B50C4605460121A0B203F07BFD45B162
:104FF000012D0BD003F076FBBDE83840064903F0E5
:1050000070B92046BDE83840FFF754BF2046BDE8E0
:105010003840FFF77DBF00BFFB9B0B000B4608B974
:10502000FFF79EBE002198B203F06DBD0346012B31
:105030000846114604DC0BB9FFF77ABFFFF7D0BF73
:105040007047000010B588B0002405A8CDE90544DC
:10505000ADF81C4003F056FA1F482346224621466D
:1050600040681E4C02F04EFE03F03CFB4FF416511C
:1050700003F02CFB2178BFF35B8F11F001010BD102
:1050800020460391FFF718F8039928B1144802F05D
:1050900005FF2046FFF715F8114802F009FF01232C
:1050A00000933C2202210F4801F044FF0E4801F01A
:1050B000D6F90E4BFF221A705A709A70DA701A7174
:1050C0005A710B4B1B682BB90A4808B0BDE8104059
:1050D00002F0D6BA08B010BD18E70320DCDF0320C9
:1050E000E0DF032018E60320A0E6032089E6032082
:1050F000ECDF032098E6032070B5124B124E1C68BB
:105100004FF43B725443ADF53C7D3119054601A87F
:1051100004F090FA315901AB00228A420FDA586844
:10512000A84203F1100308D103F0DCFA074903F0A9
:10513000D8F800200DF53C7D70BD0132EDE701206F
:10514000F8E700BF48DF032000E003201A9C0B00B3
:10515000F0B5114B114A1E68944600239E4217DB9E
:105160001768154600218F420EDD6C68844205F1F8
:10517000100507D14FF43B72534303EB0113634413
:105180001869F0BD0131EEE7013302F53B72E5E746
:105190004FF0FF30F5E700BF48DF032000E00320B9
:1051A0002DE9F043184D194BD5F844E11F688446AA
:1051B0002B460024A74221DB0ED1D3F844811A46A6
:1051C0000026B04508DDD2E95290604501D18945FD
:1051D00017D001361432F4E7012F0BD12E460022EE
:1051E000964507DDD6F84801814206F1140608D03D
:1051F0000132F5E7013403F53B73DBE70120BDE83D
:10520000F0830020FBE700BF00E0032048DF03201D
:10521000F0B50F4B1E680F4B00218E4213DBD3F805
:1052200044711A460024A74209DDD2F848C18445DA
:1052300002F11402D2F8405107D00134F3E70131F2
:1052400003F53B73E9E74FF0FF352846F0BD00BF9B
:1052500048DF032000E0032030B50C4B4FF43B72D5
:1052600002FB01310022D1F844411346944208DD8B
:10527000D1F84851854201D12BB9012301321431B3
:10528000F4E7002030BD1846FCE700BF00E0032033
:105290000E4A002313700E4A13700E4A13700E4A02
:1052A0004FF0FF3111600D4A13600D4A13600D4A33
:1052B00013600D4A1360C2F844310C4A13700C4A53
:1052C000032111600B4A1360704700BFE9DF032020
:1052D000FCDF0320E8DF032048DF0320B4E60320DF
:1052E000B8E60320B0E6032000E0032088E60320B0
:1052F0004CDF0320BCE603202DE9F743164C4FF4A6
:105300003B7303FB014407460D460026A146D9F82E
:105310004431B3421CDD94F85831D4F84881D4F8B4
:105320005421BB4207D1D4F84C114046FFF77EFE12
:1053300001361434EBE7294640460192FFF78CFF13
:10534000019A0028F4D111464046FFF767FEEFE7C7
:1053500003B0BDE8F08300BF00E003202DE9F04F6B
:105360007048ADF2D45D01F0A5F9B8B103F0BAF917
:105370006D4C6E4902F0A2FF6A4801F06CFB2046BA
:1053800001F0CAFD2046012100F001FF00264FF088
:105390000113C4E904636648FFF7D4FADFF8CCB11F
:1053A000634CDBF800202368002A4BD1062B14D174
:1053B000646864B903F096F95E4902F092FFCBF895
:1053C00000400DF2D45DBDE8F04FFFF761BF012C46
:1053D000F7D103F087F95849EFE7012B574D08DD66
:1053E0002B60FFF705FC2868FFF71EF94FF0FF332D
:1053F00023602868451C524D21D0FEF7C9FE514B51
:1054000018702368012B08D82B60FFF7F1FB286880
:10541000FFF70AF94FF0FF3323602868411C04D0DE
:10542000484B61681A78FFF753FC3F4801F0DCFFF6
:105430004FF0FF3323600DF2D45DBDE8F08FFFF72E
:1054400039FBEAE70133404F00F00C81A568DFF833
:105450002081DFF814913D4EDFF808A103F042F9F6
:105460003B4902F02BFF2368062B00F23182DFE874
:1054700013F00700830071019A01C101DB01EC0107
:10548000DFF8F0A003F02EF9324902F02AFF9AF873
:10549000003093B3D8F80020D9F800309A423CD1BC
:1054A0002846FFF729FE28B32846FFF751FE421C85
:1054B00005D161682846FFF795FA431C21D0D7F83B
:1054C00000E0D8F800C0E3684FF43B7101FB0EF137
:1054D00001EB0C123244C2E90153C2E903E07258F5
:1054E000013272500CF10102C8F80020D4E90061C9
:1054F000009087E09AF800304BB903F0F3F81649B2
:1055000002E003F0EFF8154902F0EBFE83E0D8F873
:105510000020D9F800309A427DD003F0E3F810491A
:10552000F2E700BFA0E6032018E603204A9C0B0028
:1055300054DF03205D9C0B00719C0B0050DF0320A7
:1055400040DF0320C1E6032048DF032000E0032002
:10555000869C0B009A9C0B00B89C0B00AB9C0B002C
:10556000CB9C0B00B0E60320B4E60320ECDF032065
:10557000B8E60320E9DF032003F0B4F8BC4902F0E9
:10558000B0FEBC4B93F800B0BBF1000F00F0A78059
:10559000B94BD4F80C901B7829464846002B40F0B4
:1055A0009B80FFF7FDFD002800F099802846FFF75B
:1055B0002FFE411C05D161682846FFF713FA421CF3
:1055C00029D0D7F800C0DAF800104FF43B7202FB84
:1055D0000CF2142303FB01233344C3E954C01644E3
:1055E0004FF0010C83F858C1C3E95259D6F8443141
:1055F00061446344C6F84431CAF800104B46D4E90C
:1056000000610090B1FA81F1B6FA86F02A464909A4
:105610004009FFF757F803F065F8984902F061FE7A
:1056200003F060F8964902F05CFE03F05BF83A681C
:10563000944B4FF43B7101FB02339349D3F844314F
:105640000293924B1B680193914B1B680093D8F80F
:105650000030FEF747FD4FF0FF33236003F042F8C0
:1056600002F033FE8B4801F0BFFE3B68002B40F098
:105670003381804B1B78002B3FF4DDAEB9AC814900
:105680004FF43B72204603F0D5FF4FF43772BDA9AB
:10569000684603F0CFFF94E80F00FEF79BFF002160
:1056A000FFF72AFE3C68012C7FF4C5AE714B1B78D6
:1056B000002B3FF4C0AE78494FF43772684603F0D0
:1056C000B9FF764B0FCBFEF785FF21460DF2D45D77
:1056D000BDE8F04FFFF710BEFFF762FD58B9704B01
:1056E0001B78002B3FF409AFBBF1000F2ED102F065
:1056F000F9FF6C4908E72846FFF78AFD431C05D1EE
:1057000061682846FFF76EF9411C84D0D7F800E0A5
:10571000DAF80010E3684FF43B7C0CFB0EFC14221B
:1057200002FB01C2324402F5A479C2E95253C2E934
:1057300054E06644002289F81020D6F84421013153
:105740000132C6F84421CAF80010CFE602F0CAFFC1
:105750005549D9E602F0C6FF544902F0C2FD3B6844
:105760005A1C04D0DBB9DAF80020002A17DD4C4AB5
:10577000012111703F4900220A703F49C9F80020F9
:1057800001330A704FF43B713B604B43F118F25008
:10579000C8F80020CAF80020C1F844213BE702F015
:1057A000A1FF4349B0E602F09DFF424902F099FD96
:1057B000D9F80030D8F80020934212DADAF8002045
:1057C0007AB93A684FF43B7101FB026662681E4485
:1057D000003A18BF0122013386F8D822C9F80030F8
:1057E00019E72F4B1B78002B3FF487AE02F07AFFAE
:1057F000314989E602F076FF304902F072FDD8F8AF
:105800000030002B07DDD9F80020934203DD194B4F
:1058100001221A70FFE6224B1B78002B3FF46DAE7D
:1058200002F060FF26496FE602F05CFF254902F0B6
:1058300058FDDAF80030002B01DD0F4BE8E7184B7C
:105840001B78002B7FF4E7AE57E665684DB902F090
:1058500049FF1D4902F045FDCBF80050FFF718FD48
:10586000D9E6012DFAD102F03DFF1849F2E700BF59
:10587000009D0B00FCDF0320E8DF03202A9E0B00C5
:10588000329E0B0000E00320679E0B00B0E6032071
:10589000B4E6032018E60320FCE20320ECE2032038
:1058A000E9DF0320139D0B00289D0B00399D0B00A1
:1058B000469D0B00989D0B00A99D0B00DB9D0B00E6
:1058C000EA9D0B00099E0B005D9C0B00719C0B0078
:1058D00002F008FF024917E6012B3FF4CFAEAAE51C
:1058E000189E0B0010B5194C19484FF0FF3101F00C
:1058F0001FFA1849204602F026FC164904F1100050
:1059000002F021FC08221021134800F046FC052378
:105910001A460421114801F001FE0523012200214D
:105920000F4801F0FBFD0F4B0F4A9A600024C3E9BA
:105930000044022002F09AF90C4B1C60C3F8444169
:10594000C3F8EC42C3F8304410BD00BF68E6032042
:1059500018E603208A9E0B00A0E6032098E60320A9
:1059600090E60320F0DF03200000FFFF00E00320AB
:10597000704710B510210446FEF78FFB204610BD7E
:1059800073B5044608462279A36832B1A3B90B491E
:1059900002B0BDE8704002F091BC094A267B094D77
:1059A0000949647B012E18BF2946CDE90014074937
:1059B000FEF78AFB02B070BD054AEFE79D9E0B0023
:1059C000FA9B0B00999E0B00959E0B00B39E0B005B
:1059D0008C9E0B002DE9F04F85B01F46BDF9388035
:1059E000BDF83C30A8EB0209A7EB010AB9F1000FA2
:1059F000B8BFC9F10009BAF1000FB8BFCAF1000A77
:105A0000D14583460C46154604DD3A462C464746AA
:105A10000D469046BC4205DD2A4645469046224644
:105A20003C4617463E1BB2B20092A8EB050282EA42
:105A3000E271A1EBE271C6F3C03202FA86F6454587
:105A4000B4BF01224FF0FF32019176100292BC42A6
:105A50001CDCDBF800200393D145D2F81880C7BFC7
:105A6000294622462A4621465846C047019A039BAA
:105A7000B61AB1B236B2002E05DA029A1544009A6F
:105A800056182DB236B2013424B2E0E705B0BDE8B5
:105A9000F08F704710B404682469A4465DF8044B85
:105AA000604730B40468BDF808500295A46BA44662
:105AB00030BC604730B40468BDF808500295E46B10
:105AC000A44630BC604770B4BDF90C50BDF81060FE
:105AD0000468CDE90356246CA44670BC60472DE9E8
:105AE000F3411C460368BDF820805B6905461646F5
:105AF000013C34440F4624B298472B68CDF804800B
:105B000000949C6A28463B4632463946A0472B689B
:105B1000DB6A284602B0BDE8F04118472DE9F341A1
:105B20001D460368BDF820805B69044617460E4693
:105B30009847CDE9007822686B1E3344956A204669
:105B40001BB23A463146A8472368DB6A204602B0BA
:105B5000BDE8F04118472DE9F3471E460368BDF93B
:105B600028905B69BDF82C800C460546174698477F
:105B70002644B4422B680BDACDF80080D3F820A07D
:105B800021464B463A4628460134D04724B2F0E736
:105B9000DB6A284602B0BDE8F047184713B5026833
:105BA0000191B0F90E100091146CB0F90C30002284
:105BB0001146A04702B010BD2DE9F74399421646A1
:105BC000BDF92870BDF82C90026880460D461C4631
:105BD00013D1BE42C8BF3346CDF82890C4BF3E465D
:105BE0001F467B1C946B9B1B1BB2324629464046CA
:105BF000A44603B0BDE8F0436047BE420AD19942D3
:105C0000C2BF0B4625461C46631CCDF82890D46BBA
:105C10005B1BE9E753699847CDE90079D8F8003074
:105C200040469F6A324623462946B847D8F8003096
:105C3000DB6A404603B0BDE8F04318472DE9F3475F
:105C40001D460368BDF82C805B69BDF928900446A9
:105C50000F46164698472368CDF80080D3F824A055
:105C600032462B4639462046D0472368CDF800807F
:105C700009F1FF323244D3F824A039462B4620469E
:105C800012B2D0472368CDF80080D3F820A0324666
:105C90004B4639462046D0476B1ED9192368CDF8AC
:105CA00000801D6A20464B46324609B2A847236849
:105CB000DB6A204602B0BDE8F0471847704701F0A4
:105CC0000303B0F90A208376C907B0F9083059BF39
:105CD0008381C2818281C3817047000030B54281D7
:105CE000C281074A074D0181002481814FF0FF31B5
:105CF000C0E905124460056004610477046230BDA8
:105D000001010001D8A30B002DE9F04F89B0CDE9C6
:105D100002120268BDF948800493BDF94C30526903
:105D20000593BDF850A00446904718F107024FF0C4
:105D3000000648BF08F10E024FEAE20B0196354615
:105D4000039B019ABDF904109A18059B8B4212B26D
:105D500027DD049B33444FF0000906930FFA89F0C6
:105D600080451FFA89F117DD4F0705BF069BC0105C
:105D70006D001D5C18BFEDB22B060AD5029B206892
:105D800007921944836909B21F4620465346B84713
:105D9000079A09F10109E1E7019B013301935E4490
:105DA000CEE72368DB6A204609B0BDE8F04F18470C
:105DB0002DE9F04F2DED028B91B01646026ABDF829
:105DC00074809DF878509DF87C4003911F46BDF883
:105DD000703004938346002A40F0C580B0F90C303F
:105DE0008B4240F34C81B0F90E30B34240F347810F
:105DF000062313FB0513002B40F3418106EBC4037C
:105E0000002B40F33C81037F1BB9AF2F84BF0137C8
:105E1000FFB2DBF8003058465B69984705220992CB
:105E200000220592984A07EB8703D3180C93B3B26C
:105E30000693059A0C9B9B5C0793ABB20B93BDF842
:105E40000C300893039B02FB05F919FA83F90FFA4A
:105E500089F308EE103A08230A93039B02EB030A26
:105E60004FF000090FFA8AFA079ADBF80030D207E0
:105E700052D5012D1FFA89F23ED1012C3CD19B69EC
:105E800006991F46049B0A4412B251465846B84729
:105E900009F101034FFA83F9079B5B0807930A9BFB
:105EA000013B13F0FF030A93DED1059F01377BB25C
:105EB0000593099B013B13F0FF030993B9D1049BA0
:105EC00043450FD0012DDBF800303BD1012C39D1F7
:105ED0000899CDF8008005311C6A3246082309B2C2
:105EE0005846A047DBF80030DB6A584611B0BDECDD
:105EF000028BBDE8F04F1847069914FB02F20A44E2
:105F0000049901910094DB6918EE101A1F4612B231
:105F10002B465846B847BBE7049A4245B8D0012DF6
:105F20001FFA89F207D1012C05D19B6906991F46FA
:105F30000A444346A8E70699CDF8048014FB02F210
:105F40000A44DFE70B9ACDF8048002EB8201089A3D
:105F5000E4000A4411460094DC6932462B4609B23B
:105F60005846A047BEE7137A516812680B92FF1A91
:105F7000FFB201EBC70331F8372006929A780992F5
:105F8000DA780C92012D93F9052093F906A00A9274
:105F900001D8012C57D9BDF9283008930FFA8AF39C
:105FA0000793DBF8003058465B699847B3B24FF06F
:105FB00000080E931AFA86F3C14647460F930C9BCE
:105FC0009F428FD2079B0E9A3B4403FB042300227F
:105FD00005920F9A1BB202EB070A08EE103A0FFA6D
:105FE0008AFA4346099A0599914241D25A1CD2B283
:105FF0005B070D9207D1069B06990B9A01339BB262
:1060000012F80190069319F0800F12D0012DDBF8E1
:106010000030BDF80C101AD1012C18D10A9A9B69D6
:106020001144059A11441E465246049B09B2584633
:10603000B047059E0136F3B24FEA490905935FFA6E
:1060400089F90D9BCEE70023CDE90733A9E7059831
:10605000089A024402FB0511049ACDE90042DB696B
:1060600018EE102A1E4609B22B465846B047E0E704
:10607000099B013798445FFA88F8FFB29FE711B097
:10608000BDEC028BBDE8F08FD09E0B00F0B5026A2C
:1060900085B004460B46002A34D10A2908D1438A28
:1060A0000282427E03EBC2036382012005B0F0BD91
:1060B0000D29FAD0E17E007E657E71B1B4F91060E1
:1060C000062111FB0061B4F90C60B142C1BFB4F903
:1060D0001210228201EBC5026282E28A0192A28A38
:1060E0000092CDE90205B4F91220B4F9101020464F
:1060F000FFF75EFE237E228A03EB430302EB43039A
:106100002382D2E70A2907D100230382417E927AB3
:10611000438A01FB0233C7E70D29C6D0157AA9428D
:10612000C3D3517A9942C0D351685D1BEDB201EBE4
:10613000C505A87828B3E97819B3E17E267E677E85
:1061400091B195F905100844B4F9101006FB00113F
:10615000B4F90C00814207DD00202082B4F912104E
:10616000927A02FB07126282E28A0192A28A00926C
:10617000CDE90267B4F91220B4F910102046FFF7F8
:1061800017FE2979227E238A01FB0233B8E7012911
:1061900038BF012101764176704738B5044608467C
:1061A00021730121154602F09DFC207B012102F0A4
:1061B000AAFC28466573012102F094FC607B002153
:1061C00002F0A1FC204638BD0139C9B208299ABFA6
:1061D000024B53F821000248704700BF20A50B0076
:1061E00028A40B0013B50B4C2178BFF35B8F11F083
:1061F00001010BD120460191FDF75EFF019928B105
:10620000054801F04BFE2046FDF75BFF024802B057
:1062100010BD00BFDCDF0320E0DF032007B50190E5
:10622000FFF7E0FF019903B05DF804EB01F0DCBE7D
:106230002DE9F74F07469DF830801E461546002A87
:1062400042D001F07E01007B41F08009002102F084
:106250005AFC4846FFF7E2FF013DEDB24FF0000B5C
:106260004FF0010A5FFA8BF4A54222D9DCB9B8F1EC
:10627000000F18D04246D3B2072B61B205D80AFAF4
:1062800002F40C43E4B20132F5E748460191FFF70E
:10629000C5FF33780199044023EA01031C4334709D
:1062A0000BF1010BDEE74846FFF7B8FF06F80B00DD
:1062B000F6E70020FFF7B2FF7055387B012103B0ED
:1062C000BDE8F04F02F01FBC03B0BDE8F08F38B559
:1062D0000C4605460021007B04F07E0402F013FC0E
:1062E00044F08000FFF79AFF0020FFF797FF01219D
:1062F0000446287B02F007FC204638BDF8B50F465F
:1063000006460021007B15461C4602F0FCFB07F008
:106310007E00FFF783FF2544AC4204D014F8010B44
:10632000FFF77CFFF8E7307B0121BDE8F84002F081
:10633000EABB70B504460E46007B0021154602F00C
:10634000E2FB06F07E00FFF769FF2846FFF766FFD5
:10635000207B0121BDE8704002F0D5BB70B5164628
:1063600004460D46FFF7B3FF3043C2B2294620462C
:10637000BDE87040FFF7DDBF70B5164604460D4618
:10638000FFF7A5FF20EA0600C2B229462046BDE875
:106390007040FFF7CEBF08221021FFF7EDBFF8B520
:1063A000044615460F46002202211E46FFF7C1FF94
:1063B00004220A212046FFF7BCFF80221421204638
:1063C000FFF7CCFF2A463B4612212046FFF796FFF7
:1063D000032202212046FFF7ACFF41F288350A2153
:1063E0002046FFF774FF430705D4013DADB2002DF1
:1063F000F5D104200FE0002202212046FFF799FF8B
:1064000044212046FFF763FF422130702046FFF70A
:106410005EFF70700120F8BD10B50F220221044606
:10642000FFF787FF322001F0C7FF02212046FFF768
:106430004EFFC306F9D410BD10B528210446FFF75E
:1064400046FF00F00303032B08D040F00302D2B252
:1064500020462821BDE81040FFF76BBF10BD10B5E6
:106460000446407B02F068FB48BB607B012102F0E0
:106470004AFB322001F0A0FF204680225421FFF782
:1064800058FF2046A9225621FFF753FF204603223A
:106490005821FFF74EFF2046E8225A21FFF749FF17
:1064A000204640222A21FFF744FF20463D22222198
:1064B000FFF73FFF2046BDE81040FFF7BDBF204675
:1064C000FFF7AAFFD8E72DE9F04F89B0DDE91356B1
:1064D000DDF8549003929DF85C209DF858B004922A
:1064E00004468A460027B9F1000F3ED099F8008093
:1064F0000593002202212046FFF71BFF7F2208217F
:106500002046FFF716FF08EB0B18802214212046C7
:10651000FFF724FF5FFA88F8059B9DF848201221B9
:106520002046FFF7EBFE42461A212046FFF701FF07
:10653000524602212046FFF7FCFEBAF10C0F04D1AF
:1065400080221A212046FFF709FF4FF4FA6808213C
:106550002046FFF7BCFE039B184208D1C30702D4B4
:10656000B8F10108F3D104204DE0C846C0E70C2182
:106570002046FFF7ACFE10F0130F804646D1DDB188
:10658000D6B114212046FFF7A2FE3378834202469B
:106590003ED330702B4612212046CDF800B0FFF7D5
:1065A00047FE18212046FFF792FE00F00707B9F1D9
:1065B000000F01D089F8007018F0080F2AD15DB3E0
:1065C00056B3049B43B33278012A03D1042F25D15B
:1065D000092018E022D90FBB023A07ABD2B22946F4
:1065E0002046FFF7DCFE01280DD133781D449DF8CD
:1065F0001C3015F8022C9A4210D115F8012C9DF888
:106600001D309A420AD109B0BDE8F08F0220FAE7A6
:106610000520F8E70320F6E70120F4E70820F2E779
:1066200010B586B09DF82C4005949DF82840049440
:10663000099C0394089C0092CDE9013430220B465A
:106640000C21FFF740FF06B010BD70B588B00646BC
:106650001C468DF8171015461AB31B78012B20D94C
:1066600080221C21FFF788FE07238DF81F300023AE
:10667000CDE902330DF11F03CDE9004301222B4682
:106680000DF117013046FFF7CBFF012807D1237822
:10669000022B08D19DF81F30002B18BF022008B034
:1066A00070BD0520FBE70220F9E713460A462621C4
:1066B000FFF7CBBF07B502230DF1030201A98DF847
:1066C0000330FFF7F2FF00F0FD00431E584258412F
:1066D00003B05DF804FB70B586B050238DF814301C
:1066E00000240DF11603022205A906468DF8154077
:1066F000FFF755FE012805460FD1CDE90244CDE94B
:1067000000442346042205A93046FFF789FF0428E8
:1067100003D0012814BF05460225284606B070BDE7
:106720007FB506461D461446CAB11B78112B16D9F3
:10673000302313705170931C21460222FFF72FFE65
:1067400001280AD10023CDE90133039000952346A7
:10675000042221463046FFF763FF04B070BD0520D8
:10676000FBE710B58AB00C9C8DF81D201A689B8839
:10677000ADF8223063788DF82430A3788DF8253079
:10678000E3788DF8263023798DF827300023CDE982
:106790000433CDE9023301930C238DF81C10CDF89E
:1067A0001E200093102207AB0E21FFF78CFE0AB0CB
:1067B00010BD2DE9F04F502A8BB082460F4690460F
:1067C00000F2408180221C21FFF7D6FD93238DF833
:1067D0001C30B8F1000F00F0BC803C78042C94BF52
:1067E00000230123012500260BE095238DF81C30A2
:1067F000B8F1000F00F0AF803C78072C94BF002365
:106800000123A8EBC60464B224EAE474002B00F070
:10681000A48088228DF81E20032114F0070218BFDF
:10682000012202EBE40212F0FF02E0B21DD0002BC5
:1068300014BF4FF003094FF0040906F1010C914514
:1068400094BF01EB090E01EB020E57FA8CFC5FFAC4
:106850008EFE0A460DF1280B0131C9B25A441CF8CC
:10686000019B02F80C9C7145F3D10BB1083044B286
:106870001F2C74DD4FF070039DF81F208DF81D3024
:106880009DF81E3053409DF8202053409DF8212054
:1068900053408DF8223007220DF1230307A95046FB
:1068A000FFF77DFD0128814640F0C88000238DF868
:1068B0001A3003238DF81B3004940DF1220B4FF096
:1068C00009099DF81A30059303EB0312D2B21A217D
:1068D0005046FFF72EFD059B02930DF11A0300228F
:1068E00001930DF11B03039200934A465B4607A9EF
:1068F0005046FFF795FE032881464CD11C21504697
:10690000FFF7E5FC810600F1998010F01F0008BF39
:106910002020A04240F38780431E03F0070244B2C8
:1069200013F007034FEAD00018BF012301301844C9
:106930000AAB1844012303FA02F210F80C3C13438B
:1069400000F80C3C94E797238DF81C30062623466C
:1069500057E7434646E7434653E702215DE7E31026
:106960000233DBB204F0070214F007098DF81A2095
:1069700002EB03128DF81D2018BF4FF0010907AA82
:10698000994402EB030BC3F109035FFA89F98DF80F
:106990001B30049495E7012850D1049B1F2B4FF026
:1069A00020047FF767AF9DF81E30882B3ED103236C
:1069B0001A4601361A4457FA86F6D2B219460AA880
:1069C00001330144DBB211F80C1C06F8011B9342A1
:1069D000F4D19DF81B60032E37D19DF81A40A4BB5B
:1069E0000DF11E03012259465046FFF7D8FC01283D
:1069F000814623D19DF81E209BF801309A4227D171
:106A00009DF81F209BF802309A4221D19BF800305C
:106A10005A070ED50135EDB2032D94D0042D02D0C6
:106A2000022D3FF4E2AE4FF0060907E002230422F4
:106A3000BFE705EB45050135FB723D7048460BB0DD
:106A4000BDE8F08F4FF00709F8E74FF00209F5E7CE
:106A50004FF00809F2E708B501460022FFF7A9FE4A
:106A6000431E5842584108BD0160704710B50446A6
:106A70000121008802F036F82088002102F043F856
:106A8000022000F0BBFF2088012102F03CF8052025
:106A900000F0B4FF2088002102F035F820880021A2
:106AA00002F020F82088012102F070F83A2390FBD0
:106AB000F3F010BD10B5037201238171C27103742C
:106AC00010BD10B504460021807902F00BF8A079C2
:106AD000012102F018F80023E36010BD2DE9F8430E
:106AE000044600F093FFE368834284BF0023E36021
:106AF000237C23B9E368C01AB0F5FA6F67D3002589
:106B0000257400F083FF0121E0602560A0792571E4
:106B100001F0F9FFFA2001F04FFCA079012101F00A
:106B2000E1FF2946A07901F0EEFF142001F044FCBA
:106B300001F0FEFD0121A07901F0E5FF282000F021
:106B40005DFFA079294601F0CDFF2E4601274FF0C9
:106B50000008A07901F0F0FFB8425FFA88F908D187
:106B6000012008F1010800F049FFB8F1FF0FF0D152
:106B7000C146A07901F0E0FFB9F1FF0FC7B214D010
:106B8000032D0ED9EA070CD4F2080136A35C5B0092
:106B9000DBB2A354217A49453CBF43F00103A3541F
:106BA000F6B20135EDB2552DD1D101F0C3FD272E3E
:106BB0000FD9637820781844A3781844E3781844F0
:106BC0002379C0B2C31A58425841BDE8F883012066
:106BD000FBE70020F9E7000010B50446FFF77EFF51
:106BE00020B3E3790B2B1BD0153B012B1ED8A378C8
:106BF000DFED106A03F07F0207EE102AE27807EE5D
:106C0000902AB8EEC77AF8EEE77A1B06E7EE267A06
:106C1000B2EE047A87EE870A07D5B1EE400A04E0A7
:106C2000A37800EE103AB8EE400A10BD9FED020ABC
:106C3000FBE700BF000080430000C07FFFF7CCBF30
:106C400010B5044B03600446C06A08B101F0AAF80D
:106C5000204610BD40AB0B0010B50446FFF7F0FF17
:106C600020465021FDF719FA204610BD002910B525
:106C70004BDBB0F90C408C4247DD002A45DBB0F914
:106C80000E40944241DD847E022C1FD0032C26D07E
:106C9000012C04D10489D24314440A4621B2012BA9
:106CA00023D0022B32D083BB002A13460489C06A4A
:106CB000B8BFD31DDB1013FB041102F00702012340
:106CC0009340425C22EA030242541EE00489013CE4
:106CD000611A4489D243224409B212B2DFE74489DF
:106CE000013C641A114622B2D9E7002A04891346EE
:106CF000B8BFD31DDB1013FB0411C36A02F00700F9
:106D000001228240585C02435A5410BD002A1346A7
:106D10000489C06AB8BFD31DDB1013FB041102F055
:106D20000702012303FA02F2435C5A40CCE7000059
:106D300070B5402204460E468021FEF7CFFF0025A5
:106D40000D4B2360656201F07BFFFF2384F8333035
:106D500084F83630094BA3634FF6FF720123C4E970
:106D60000A05A28684F8376084F83C302564A4F8CC
:106D70004450204670BD00BF40AB0B004CA50B003B
:106D8000F8B50446806A0D4690B194F9301001F0D0
:106D900071FDA06A036800219B689847A06A036898
:106DA00029469B689847A06ABDE8F84001F069BD94
:106DB00094F93530014698B201F0A5FE606A20B121
:106DC0002946BDE8F84001F00FB90826802794F95C
:106DD000330005EA070180B201F095FE94F9340012
:106DE000012180B201F08FFE94F93400002180B2BD
:106DF00001F089FE013E4FEA5707E8D1F8BD38B5EA
:106E00000446806A0D4680B1A16C01F025FD002D7D
:106E1000204614BFA721A621FFF7B2FFA06A88B1C0
:106E2000E16CBDE8384001F017BD606A18B104F1AB
:106E3000380101F06BF894F93600002180B201F0BE
:106E400062FEE4E794F93600012180B201F05BFEB6
:106E5000606A18B1BDE8384001F03EB838BD2DE990
:106E6000F8430446806A0D468F1840B394F93010F9
:106E700001F000FDA06A036800219B689847012685
:106E8000AF42A06A17D01F2E0CD901F0FAFC94F97A
:106E90003010A06A01F0EEFCA06A036800219B6834
:106EA00098470126A06A15F8011B036801369B6804
:106EB0009847F6B2E4E7BDE8F84301F0E2BC94F984
:106EC0003530014698B201F01EFEBD4222D0606A04
:106ED00015F8019B18B1494601F086F8F5E7082638
:106EE0004FF0800894F9330009EA080180B201F0FC
:106EF0000AFE94F93400012180B201F004FE94F9F5
:106F00003400002180B201F0FEFD013E4FEA580836
:106F1000E8D1DAE7BDE8F883B0F90A30DA1D48BFF6
:106F200003F10E02B0F90830C06AD2105A430021B2
:106F300002F08EBB2DE9FF411E46C36A9DF82880F2
:106F400004460F461546D3B12046FFF7E5FFB4F9D6
:106F50000A20202A25DCB4F908102023203A7339AE
:106F60000120CDE9013002EBD272732301EBD17124
:106F7000009342F34F02854B41F34F011BE0B0F900
:106F80000A30D81D48BF03F10E00B4F90830C01014
:106F9000584300F0FFFEE0620028D5D104B0BDE800
:106FA000F08140234FF0010CCDE9013C8023009398
:106FB0000022774B11462046FEF7A6FEA06A84F811
:106FC0003170002878D0002D74D1B4F90A30202B0C
:106FD0000CBF3C253D2584F83050B8F1000F01D09E
:106FE00001F03EFCFEB194F9370000281BDB0121C3
:106FF00080B201F077FD94F93700012180B201F0F1
:1070000082FD012001F0D8F994F93700002180B207
:1070100001F079FD0A2001F0CFF994F93700012140
:1070200080B201F070FDA06A002874D0A16C01F05C
:1070300013FC042257492046FFF711FF61890139EB
:10704000C9B22046FFF79CFE534904222046FFF7B1
:1070500006FF94F93130012B0CBF1021142120467A
:10706000FFF78EFE04224D492046FFF7F8FEA36885
:107070004B4A93425CD14B4904222046FFF7EFFE76
:10708000D9212046FFF77CFE94F93130012B0CBF4B
:107090002221F1212046FFF773FE204642490622B5
:1070A000FFF7DDFEA06A002863D0E16C01F0D4FB9D
:1070B000012073E76DB28EE794F93500012180B2AB
:1070C00001F010FD94F93600012180B201F00AFDB3
:1070D00094F93600012180B201F015FD656A3DB1D9
:1070E000B8F1000F3FF47EAF284600F0E1FE79E7EB
:1070F00094F93300012180B201F0F4FC94F93400DA
:10710000012180B201F0EEFC94F93400294680B2EE
:1071100001F0F9FC66E7606A18B104F1380100F08B
:10712000F5FE94F93600002180B201F0ECFC80E716
:107130001E4A93420ED11E4903222046FFF78FFEBE
:1071400094F93130012B0CBF9F21CF212046FFF74E
:1071500017FE95E7174A934292D11749032220461A
:10716000FFF77DFE94F93130012B0CBF1021AF21C8
:10717000ECE794F93600012180B201F0C4FC606AAA
:10718000002895D000F0A8FE92E700BF58A50B009C
:1071900038A70B00A0AB0B00A4AB0B00A8AB0B00F7
:1071A00080002000B2AB0B00ACAB0B0080004000B5
:1071B000B6AB0B0060001000B9AB0B0070B5002A35
:1071C000BDF810503DDBB0F90A40944239DD00298A
:1071D000BEBF5B181BB20021B0F90840CE18A64212
:1071E000C4BF631A1BB2002B2BDDC06AD61014FB80
:1071F0000611014402F0070001228240012DD2B2A3
:1072000016D0022D0BD0E5B9D243D2B20B4499422D
:1072100017D011F8010B104001F8010CF7E70B44EF
:1072200099420ED011F8010B504001F8010CF7E71C
:107230000B44994205D011F8010B104301F8010CE1
:10724000F7E770BDF0B50029BDF8145076DBB0F952
:107250000860B14272DA002ABEBF9B181BB200223E
:10726000B0F90A40D718A742C4BFA31A1BB2002B1B
:1072700064DDC2F3C404C76A16FB041612F00702E9
:10728000DBB207EB060423D0C2F10802D2B22D49CB
:1072900093423CBF4FF0FF0CA2EB030E895C3CBF56
:1072A0004CFA0EFC0CEA0101012D07D0022D2ED064
:1072B0004DB917F806C02CEA010103E017F806C023
:1072C00041EA0C01B955934238D3B0F908100C4487
:1072D0009A1AD2B2072A0ED9022D1DD1134621784F
:1072E000C9432170083BB0F90810DBB2072B0C44EE
:1072F000F5D802F007020AB3134B012D9B5C1AD09C
:10730000022D1CD0D5B9227822EA030315E017F824
:1073100006C081EA0C01D5E7291E18BF01214942A8
:10732000C9B213462170083BB0F90860DBB2072BE5
:107330003444F7D8DDE7227813432370F0BD227878
:107340005340FAE790AB0B0098AB0B0070B41446B7
:10735000827EBDF80C60022A0DD0032A18D0012AC3
:1073600011D10289E443144424B203960A4621460B
:1073700070BCFFF767BF42890589E4431944144490
:10738000691A24B209B20396224670BCFFF716BFF1
:1073900045891944691A09B2E7E730B41446827E78
:1073A000BDF80850022A0DD0032A18D0012A11D1A5
:1073B000E2180489A41A24B202950A46214630BC78
:1073C000FFF7FCBE0289C9431144E2184489A41A9C
:1073D00009B224B20295224630BCFFF733BF42897E
:1073E000C943114409B2E7E72DE9F8430446806A2E
:1073F000002842D0A16C01F02FFA4749052220460F
:10740000FFF72DFD218901392046C9B2FFF7B8FCED
:10741000B4F90A30DE1D48BF03F10E06D4E90A05AF
:107420002389F61013FB06F615FA86F600283AD0E3
:1074300094F9301001F01EFAA06A036840219B689D
:1074400098470127B542A06A24D01F2F0CD901F01C
:1074500018FA94F93010A06A01F00CFAA06A0368D7
:1074600040219B6898470127A06A15F8011B036813
:1074700001379B689847FFB2E4E7606A18B104F1EE
:10748000380100F043FD94F93600002180B201F08C
:107490003AFBB2E701F0F5F9A06A78B3E16CBDE818
:1074A000F84301F0D9B994F93500012180B201F017
:1074B0002AFBAE42F0D0606A15F8019B18B149462C
:1074C00000F092FDF5E708274FF0800894F93300AB
:1074D00009EA080180B201F016FB94F93400012199
:1074E00080B201F010FB94F93400002180B201F069
:1074F0000AFB013F4FEA5808E8D1DAE794F9360071
:10750000012180B201F0FFFA606A18B1BDE8F843CA
:1075100000F0E2BCBDE8F883BCAB0B0010B504463C
:10752000017042708370012103EB430002F07AF88E
:107530006060204610BD10B50446406800F032FC83
:10754000204610BD10B500210446007801F0DBFA9A
:10755000142000F053FA2078012101F0D4FABDE89C
:107560001040142000F04ABA70B506460C460825B3
:1075700023064CBF01210021707801F0C4FA013DBF
:107580003046FFF7DFFF640015F0FF05E4B2EFD1EE
:1075900070BD73B513F0800F1E460C46154614BF20
:1075A000C021E021730658BF41F010012A0658BFE0
:1075B00041F008016B0658BF41F00401220658BF94
:1075C00041F00201630658BF41F001010190FFF74D
:1075D000CBFF01983146FFF7C7FF01982946FFF717
:1075E000C3FF0198214602B0BDE87040FFF7BCBF61
:1075F0002DE9F04704460F460021904699469DF834
:1076000020A0FFF7B1FF00212046FFF7ADFF0021CA
:107610002046FFF7A9FF00212046FFF7A5FF00261F
:10762000A378F5B2AB4219D905EB4500AF4200F1A2
:10763000010200F1020308D1616801F8008061686D
:1076400001F80290616801F803A06168CB5C8A5C74
:10765000095C2046FFF79DFF0136E1E72046002147
:10766000FFF782FF20460021FFF77EFF2046002122
:10767000FFF77AFF20460021BDE8F047FFF774BF0F
:1076800073B504460121007801F02CFA60780121DD
:1076900001F028FA00252E46A378E9B28B4207D9DB
:1076A000002300961A462046FFF7A2FF0135F3E7B4
:1076B00002B070BD00000000F8B5B5EEC01AF7EEDC
:1076C000007AF1EE10FA2DED048BF0EE418A48BFFE
:1076D00071EE278AB0EE409AF4EEE78AF1EE10FAE6
:1076E000C8BF78EEE78AB0EE608A18EE900A01F023
:1076F00031FC2EA3D3E9002304460D4601F0F4FE2D
:1077000010B378EE497A17EE900A01F023FC264B6D
:10771000002201F077FC22462B4601F073FC044660
:1077200019EE100A0D4601F015FC02460B462046E4
:10773000294601F0B1FA01F01FFF08EE100AB0EE81
:10774000480ABDEC048BF8BDF6EE007AF4EEE78A49
:10775000F1EE10FAF3D412A3D3E900232046294610
:1077600001F0C2FEB8B178EE497A17EE900A01F046
:10777000F1FB224606460F462B4609A1D1E900013E
:1077800001F088FA02460B463046394601F03AFCD1
:10779000054B0022C1E7B0EE498AD0E7AFF3008085
:1077A000555555555555E53F00001840555555550B
:1077B0005555C53F000000002DE9F0432DED048B29
:1077C000F5EE400AF1EE10FA83B080468946F0EEFD
:1077D000409AB0EE609AB0EE418A00F09D8011EEC2
:1077E000100A01F0B7FBF6EE007AB4EEE78AF1EE8C
:1077F00010FA06460F4640F18A8019EE100A01F091
:10780000A9FB4D4B002201F047FA32463B4601F0FE
:10781000F9FB01F0B1FE08EE900A19EE900A01F0B2
:1078200099FB324604463B460D463046394601F048
:1078300033FA064618EE900A0F4601F08BFB02461B
:107840000B463046394601F025FA01F095FE36A385
:10785000D3E9002309EE100A2946204601F01CFA5C
:1078600001F08AFEF0EE680A01EE100AB0EE490A55
:10787000FFF722FFB0EE691AF0EE680AB0EE408A18
:10788000B0EE490AFFF718FF27A3D3E900232046EB
:10789000294610EE106A01F0FDF901F06DFEF0EEE0
:1078A000680A01EE100AB0EE490AFFF705FF10EE74
:1078B000104A304601F04EFB1DA3D3E9002301F02E
:1078C000A1FB01F039FEC6B218EE100A01F042FB2E
:1078D00017A3D3E9002301F095FB01F02DFEC5B2FB
:1078E000204601F037FB12A3D3E9002301F08AFB05
:1078F00001F022FEC0B2009033462A464946404677
:10790000FFF776FE03B0BDEC048BBDE8F08379EEA3
:10791000088AE9EE488A80E711EE104A11EE106AF3
:10792000C7E700BFAFF30080555555555555D53FB6
:107930000000000000E06F400000F03F08B5024B7F
:107940001B689B68019308BD6802030008B5024BE1
:107950001B68DB68019308BD6802030008B5024B91
:107960001B685B68019308BD2C02030008B5024B3D
:107970001B689B68019308BD2C02030008B5024BED
:107980001B68DB68019308BD2C02030008B5024B9D
:107990001B681B69019308BD2C02030008B5024B4C
:1079A0001B685B69019308BD2C02030008B5024BFC
:1079B0001B681B6A019308BD2C02030008B5024B2B
:1079C0001B685B6A019308BD2C02030008B5024BDB
:1079D0001B681B6B019308BD2C02030008B5024B0A
:1079E0001B68DB6C019308BD2C02030008B5024B39
:1079F0001B685B68019308BD1802030008B5024BC1
:107A00001B68DB68019308BD1802030008B5024B30
:107A10001B685B69019308BD1802030008B5024B9F
:107A20001B685B6C019308BD4802030008B5024B5C
:107A30001B685B69019308BD6402030008B5024B33
:107A40001B68DB68019308BD3C02030008B5024BCC
:107A50001B681B69019308BD3C02030008B5024B7B
:107A60001B685B69019308BD3C02030008B5024B2B
:107A70001B689B69019308BD3C02030008B5024BDB
:107A80001B68DB69019308BD3C02030008B5024B8B
:107A90001B681B6A019308BD3C02030008B5024B3A
:107AA0001B689B6A019308BD3C02030008B5024BAA
:107AB0001B681B6C019308BD3C02030008B5024B18
:107AC0001B681B68019308BD2802030008B5024B20
:107AD0001B68DB68019308BD2802030008B5024B50
:107AE0001B689B69019308BD2802030008B5024B7F
:107AF0001B68DB69019308BD2802030008B5024B2F
:107B00001B681B6A019308BD2802030008B5024BDD
:107B10001B685B6A019308BD2802030008B5024B8D
:107B20001B689B6A019308BD2802030008B5024B3D
:107B30001B68DB6A019308BD2802030008B5024BED
:107B40001B681B6B019308BD2802030008B5024B9C
:107B50001B685B6B019308BD2802030008B5024B4C
:107B60001B681B6C019308BD2802030008B5024B7B
:107B70001B681B68019308BD3002030008B5024B67
:107B80001B685B69019308BD3002030008B5024B16
:107B90001B68DB69019308BD3002030008B5024B86
:107BA0001B681B6A019308BD3002030008B5024B35
:107BB0001B685B6A019308BD3002030008B5024BE5
:107BC0001B68DB6B019308BD3002030008B5024B54
:107BD0001B681B6C019308BD3002030008B5024B03
:107BE0001B685B6C019308BD3002030008B5024BB3
:107BF0001B681B68019308BD4C02030008B5024BCB
:107C00001B685B68019308BD4C02030008B5024B7A
:107C10001B681B69019308BD4C02030008B5024BA9
:107C20001B685B69019308BD4C02030008B5024B59
:107C30001B689B69019308BD4C02030008B5024B09
:107C40001B68DB69019308BD4C02030008B5024BB9
:107C50001B681B6A019308BD4C02030008B5024B68
:107C60001B685B6B019308BD6002030008B5024B03
:107C70001B685B68019308BD2002030008B5024B36
:107C80001B685B69019308BD2002030008B5034B24
:107C90001B68D3F88830019308BD00002002030060
:107CA00008B5034B1B68D3F89430019308BD00005E
:107CB0002002030008B5024B1B685B68019308BDF6
:107CC0004002030008B5024B1B689B68019308BD86
:107CD0004002030008B5024B1B68DB68019308BD36
:107CE0004002030008B5024B1B681B69019308BDE5
:107CF0004002030008B5024B1B685B69019308BD95
:107D00004002030008B5024B1B689B69019308BD44
:107D10004002030008B5024B1B68DB69019308BDF4
:107D20004002030008B5024B1B681B6A019308BDA3
:107D30004002030008B5024B1B681B6B019308BD92
:107D40004002030008B5024B1B685B6B019308BD42
:107D50004002030008B5024B1B681B6C019308BD71
:107D60004002030008B5024B1B685B6C019308BD21
:107D70004002030008B5024B1B68DB6B019308BD92
:107D80004402030008B5024B1B685B6C019308BDFD
:107D90004402030008B5024B1B681B68019308BD31
:107DA0001C02030008B5024B1B685B68019308BD09
:107DB0001C02030008B5024B1B689B68019308BDB9
:107DC0001C02030008B5024B1B68DB69019308BD68
:107DD0001C02030008B5024B1B685B6A019308BDD7
:107DE0001C02030008B5024B1B681B6B019308BD06
:107DF0001C02030008B5024B1B681B6C019308BDF5
:107E00001C02030008B5024B1B685B6C019308BDA4
:107E10001C020300002240681146FFF783BF0022C6
:107E200040681146FFF78EBF40680022FFF782BF0F
:107E30004068002281F00101FFF76CBF0023406819
:107E40001A461946FFF75EBF002340681A461946D6
:107E5000FFF750BF002240681146FFF743BF0022E2
:107E600040681146FFF72EBF406800220221FFF74D
:107E700031BF002340681A46FFF71CBF024B0322A4
:107E80005A60024A1A607047C4E60320CCAB0B006C
:107E90000021FFF7A3BE0021FFF798BE10B50446EE
:107EA00008462170FFF772FE00236360204610BD74
:107EB00013B504460078FFF7EEFF58B9207801901B
:107EC0004FF6FF71FFF752FE019802B0BDE8104077
:107ED000FFF7DEBF02B010BD0078FFF7D9BF00008A
:107EE000400830B51860002418688842E5B206D909
:107EF0000134082C02D040081860F5E70725024B32
:107F00005B5D137030BD00BF00AC0B002DE9F0438A
:107F100006468FB000780C46FFF7BDFF00281BDB3C
:107F200035781422002109A801F092FB0B230022CE
:107F300009A92846ADF82430FFF738FE9DF82D300A
:107F400013B19DF82C5055B10027B946B84601250C
:107F500023795DB1C3B100200FB0BDE8F083DDF837
:107F600030809DF834909DF83570F1E7002B35D1C5
:107F7000A368434508D18DF820908DF82170BDF895
:107F80002020A3899A42E6D00023A1688DF80F3003
:107F90000A9804AB0DF10F02FFF7A2FF217985B912
:107FA00089B9A36843450ED38DF820908DF82170D0
:107FB000BDF82020A3899A4205D1049B434502D1F4
:107FC000C9E70029F9D100230193637B00939DF851
:107FD0000F20237B3078FFF7F1FDBCE7CDE900559A
:107FE0002B462A460121F5E708B50078FFF7C6FDC4
:107FF000C0B208BD054B02221A60054B054A9A60C3
:108000000020C3E90000FFF731BE00BFD8E603201F
:10801000CCE603200000FFFF10B5044601F066FB2C
:10802000013823182046834206D90278197800F8CF
:10803000011B03F80129F6E710BD70B50C46911E2F
:1080400022291DD8254630B9234430229D4210D222
:1080500005F8012BFAE7B0FBF2F602FB1600C1B2FD
:10806000092894BF30315731C9B205F8011B304699
:10807000E9E7002320462B70FFF7CEFF204670BDB6
:108080000020FCE738B5031E0C4615460EDAB3F1A6
:10809000004F4FF02D0214BF5842184601230A70BA
:1080A0002A461944FFF7C9FF204638BD0123F9E7E6
:1080B00010B504460068FFF775FE204610BD10B5E8
:1080C0000446006808B1FFF76DFE0023C4E90133E0
:1080D000236010BD38B504460D4600680131FFF736
:1080E00069FE10B1C4E90005012038BD10B5036870
:1080F000044623B143688B4201D3012010BD2046C2
:10810000FFF7E8FF0028F9D0A368002BF5D122681B
:108110001370F2E737B50D46114601920446FFF79A
:10812000E5FF019A28B92046FFF7C9FF204603B0B2
:1081300030BDA2602946206801F07CFA2268A3685D
:108140000021D154F2E7002313B5C0E900330446FF
:108150008360037341B10846019101F0C7FA0199A8
:1081600002462046FFF7D6FF204602B010BD8842E7
:1081700010B5044605D00B682BB18A681946FFF785
:10818000C9FF204610BDFFF79AFFFAE710B500239C
:108190000446C0E9003383600373FFF7E8FF20461D
:1081A00010BD13B5044659B10846019101F09EFA7D
:1081B000019902462046FFF7ADFF204602B010BDF0
:1081C000FFF77DFFF9E710B504468AB00023C4E944
:1081D0000033A3602373084601A9FFF753FF01A9E9
:1081E0002046FFF7DEFF20460AB010BD70B50546F9
:1081F0000E4609B9002070BD6AB184681444214656
:10820000FFF774FF0028F5D02868AB6831461844A2
:1082100001F064FAAC600120EDE710B58A680968E6
:108220000446FFF7E3FF10B92046FFF748FF20465A
:1082300010BD13B5044629B92046FFF740FF20467C
:1082400002B010BD0846019101F050FA01990246B2
:108250002046FFF7CBFF0028EED0F0E702480023CE
:108260000360FFF7DBBB00BFDCE60320F8B5064682
:108270000D468F180024BD420CD0336815F8011B41
:108280009B6830469847031E01DB1C44F3E7002C33
:1082900008BF1C462046F8BD13B50446084659B130
:1082A000019101F023FA23680199DB680246204618
:1082B00002B0BDE81040184702B010BD08B5FFF786
:1082C000EBFF08BD03689B68184738B50D210546CC
:1082D000FFF7F8FF0A2104462846FFF7F3FF204482
:1082E00038BD38B50546FFF7D7FF04462846FFF7E7
:1082F000ECFF204438BD30B58BB00023012A8DF847
:10830000243098BF0A2209AC0D46B1FBF2F101FB03
:10831000125303F0FF03092B94BF30333733DBB222
:10832000AA4204F8013DEFD92146FFF7B5FF0BB093
:1083300030BD2DE9F04186B000AF05460E46381D30
:10834000142114463B60FFF745FD13280ED8391D54
:108350002846FFF7A1FF04461EB12846FFF7B5FFE8
:10836000044420461837BD46BDE8F08100F10803FB
:1083700023F00703E846ADEB030D2246411C3B68A2
:108380006846FFF727FD69462846FFF785FF044644
:10839000C546E1E7014B024A1A607047E0E6032058
:1083A00008AC0B00024B1A68024B1A60704700BF02
:1083B00070DF0320E4E603200021FFF75FBC00002C
:1083C000014B00229A607047E8E60320014B1860D9
:1083D000704700BF74DF032008B50B4B43B100F0BA
:1083E00081F903681B699847002801DDAFF300801D
:1083F000064B43B100F0E8FB03681B69984700286F
:1084000001DDAFF3008008BD0000000000000000A7
:1084100008B5FFF7E1FFFFF7F9FA014B186008BD57
:1084200040E703200548064A064908B5121A01F03C
:1084300001F9054B054A1A6008BD00BF00F403208E
:1084400004F40320A4AE0B0000F403201E1C279AA2
:1084500007B5002300931A466FF07701FFF720FC61
:1084600003B05DF804FB000007B543880A2B08D071
:10847000502B0BD1094B1B684BB103B05DF804EBDB
:108480001847FFF7E5FF03B05DF804FB00230093F6
:108490001A466FF07701FFF703FCF4E7FCE60320D0
:1084A00010B512480021FFF7ADFC114B1A68114BB3
:1084B0009A42114B0CBF012200221A7001D0FFF723
:1084C000B1FFFFF793FA044601F0DAF80B4B13B152
:1084D0002046AFF3008000210848FFF74BFCBDE8C1
:1084E000104007480021FFF7D1BB00BFCD830B0030
:1084F00000F403201E1C279AF8E603200000000069
:1085000069840B001FB50C23ADF8043003688DF8A7
:108510000630037A8DF80730436802930021437ACE
:10852000ADF80D1001A88DF80F108DF80C30FFF785
:1085300029FC05B05DF804FB704710B5182104460E
:10854000FBF7ABFD204610BDF0B5037D062B8DB0CB
:108550000E4600F104074FF0000412D000F10805A8
:1085600015F8011D0A223046FFF7C5FEAF4204444C
:1085700019D0002CF4D02E213046FFF7A3FE04447E
:10858000EEE72F236A4639460A208DF80040FFF7B0
:108590004DFA684601F0AAF833680246DB6869467E
:1085A00030469847044620460DB0F0BD10B5054B47
:1085B0000446112240F8043B002101F049F820460E
:1085C00010BD00BF30AC0B000346074A10B543F89E
:1085D000042B01F1100251F8044B43F8044B914273
:1085E000F9D10A781A7010BD30AC0B0010B59DF8A7
:1085F000084044EA032343EA024242EA01610423B9
:108600004160037510BD000007B5064B0360CB78D1
:1086100000938B784A780978FFF7E8FF03B05DF89C
:1086200004FB00BF30AC0B004174704770477047CB
:1086300008B50021007CFFF7F9FA40EAE07008BDB8
:1086400008B50121007CFFF7F1FA40EAE07008BDAF
:1086500008B5007CFFF7E2FA20EAE07008BD08B533
:10866000007CFFF7D3FA20EAE07008BD13B504469A
:10867000007C0191FFF7D2FA0028019901DC607CAF
:1086800020B1207CFFF7DAFA20EAE07002B010BDDA
:10869000007CFFF7DBBA10B514210446FBF7FDFCA4
:1086A000204610BD10B54FF47A73044608460021E9
:1086B000C4E90113044B2360012320746374114641
:1086C000FFF794FA204610BD44AC0B00007C00225A
:1086D000FFF794BA10B514220446002100F0B8FF49
:1086E000204610BD10B50F4C88B003A8FFF7F2FF6D
:1086F0002178BFF35B8F11F001010FD1204601916A
:10870000FBF7DAFC019948B103AA0748FFF7CAFF53
:108710002046FBF7D6FC054800F07EFF024808B073
:1087200010BD00BF00E7032004E703202D860B00E7
:10873000FFF744B9FFF73AB970474174704708B57D
:10874000007CFFF7ABF920EAE07008BD08B5007CBB
:10875000FFF77CF920EAE07008BD08B5007CFFF760
:1087600085F940EAE07008BD08B5007CFFF776F9AE
:1087700040EAE07008BD007CFFF780B937B5457C62
:1087800004462DB1207C03B0BDE83040FFF756B958
:10879000007C0191FFF782F900280199F2DC28465C
:1087A00003B030BD10B514210446FBF776FC20461B
:1087B00010BD000010B54FF47A7304460846114608
:1087C0000022C4E90123044B236001232074637455
:1087D000FFF76CF9204610BD74AC0B007047F8B57C
:1087E000064615460C468F18BC4206D0336814F86E
:1087F000011B9B6830469847F6E72846F8BD007C89
:108800000022FFF77BB9007C0021FFF77FB9007CD5
:108810000021FFF783B9007C0021FFF787B9007CB6
:108820000021FFF78BB910B514210446FBF735FC86
:10883000204610BD10B54FF47A7304460846002157
:10884000C4E90113034B236020741146FFF786F936
:10885000204610BDA4AC0B00007C0022FFF72EB90F
:108860000023007C1A461946FFF730B9007C00222D
:10887000FFF734B9C9B2FFF7F9BF007C0022FFF758
:1088800035B90121FFF7F9BF002240681146FFF713
:1088900029BA002240681146FFF744BA0022406816
:1088A0001146FFF74FBA40680022FFF743BA40680D
:1088B000002281F00101FFF72DBA002340681A461B
:1088C0001946FFF71FBA002340681A461946FFF7FA
:1088D00011BA002240681146FFF7F4B9406800223F
:1088E0000221FFF7F7B9002340681A46FFF7E2B903
:1088F000024B04225A60024A1A60704718E70320AC
:10890000CCAC0B00002340681A46FFF7D3B940688F
:1089100000220221FFF7DEB9002240681146FFF76E
:10892000D1B9002240681146FFF7DCB90023406846
:108930001A461946FFF7DEB9002340681A46194661
:10894000FFF7E0B940680021FFF704BA4068002152
:10895000FFF708BA4068002281F00101FFF7DAB999
:1089600040680022FFF7E6B9002240681146FFF791
:10897000E9B9002240681146FFF7D4B92DE9F04368
:1089800095B014460D460746FFF710FE00211C2245
:108990000DA8009100F05CFE40230C9320466B462E
:1089A0000CAA0021FEF7D2FF044600284BD1024654
:1089B00001216868FFF796F902218046224668681F
:1089C000FFF790F9009E81462146002E3BD00029FA
:1089D00039D17368022B03D00A2B11D0F669F4E762
:1089E000B8F1000FFAD0716906A8043107ADFFF79E
:1089F0000BFE0FCD3C1D0FC42B6823704146EDE7E5
:108A0000B9F1000FEAD07469102201A800F020FE2D
:108A100006238DF8143001AD04F1080318341868EA
:108A200059682A4603C20833A3421546F7D101A963
:108A300006A807ADFFF7C8FD0FCD3C1D0FC42B687E
:108A400023704946CAE70098FEF778FF384615B00C
:108A5000BDE8F083024B034A1A6000225A60704757
:108A600020E7032008AD0B00232813B502D900200E
:108A700002B010BDA0F10B03022B1AD8174C2178BD
:108A8000BFF35B8F11F001010BD120460191FBF781
:108A900013FB019928B11248FFF700FA2046FBF7B3
:108AA00010FB0F4B1878FFF779F80028DFD1012071
:108AB000DEE7012809D800F0C3F80021007CFFF7A9
:108AC00045F880F00100C0B2D2E709380128EED89D
:108AD00000F07AF8007CFEF7D9FFF2E7DCDF032034
:108AE000E0DF0320232838B504460D460AD8FF29C5
:108AF00008D0FFF7B9FF28B129462046BDE8384025
:108B0000FEF734BF38BD38B504460D46FEF736FFD4
:108B1000FF2810D0062804D84D2323FA00F0C307FD
:108B200009D42046FFF7A0FF28B129462046BDE81A
:108B30003840FEF72BBF38BD10B50446FEF71EFFC8
:108B4000031FDBB2012B08D92046FFF78DFF20B1B0
:108B50002046BDE81040FEF721BF002010BD0D28C3
:108B600010B504469CBF0E34A4B22046FFF77CFF2C
:108B700050B103212046FEF7F1FE032804D1204620
:108B8000BDE81040FEF722BF002010BDFEF726BF53
:108B90007047000038B5044614252A46002100F02D
:108BA00057FD25804025074925812846258200F06C
:108BB0006BF804496060284600F066F8E0602046E3
:108BC00038BD00BF3CAD0B0030B50E4D2978BFF36A
:108BD0005B8F11F0010487B011D12846FBF76CFAC6
:108BE00068B101A8FFF7D6FF01AA21460648FFF7A2
:108BF000E1FD2846FBF765FA044800F00DFD024848
:108C000007B030BD28E703202CE70320918B0B0031
:108C10007047000038B520251423044603608560A2
:108C200005610649284600F02FF80449606028468F
:108C300000F02AF8E060204638BD00BF3CAD0B00D4
:108C400030B50E4D2978BFF35B8F11F0010487B06A
:108C500011D12846FBF730FA68B101A8FFF7DAFF17
:108C600001AA21460648FFF7E5FD2846FBF729FA49
:108C7000044800F0D1FC024807B030BD44E70320AF
:108C800048E70320118C0B00FBF705BA81F0004187
:108C900002E000BF83F0004330B54FEA41044FEAE1
:108CA000430594EA050F08BF90EA020F1FBF54EA7C
:108CB000000C55EA020C7FEA645C7FEA655C00F018
:108CC000E2804FEA5454D4EB5555B8BF6D420CDDE9
:108CD0002C4480EA020281EA030382EA000083EA6C
:108CE000010180EA020281EA0303362D88BF30BD0C
:108CF00011F0004F4FEA01314FF4801C4CEA113162
:108D000002D0404261EB410113F0004F4FEA0333C0
:108D10004CEA133302D0524263EB430394EA050F4B
:108D200000F0A780A4F10104D5F1200E0DDB02FABA
:108D30000EFC22FA05F2801841F1000103FA0EF24E
:108D4000801843FA05F359410EE0A5F120050EF114
:108D5000200E012A03FA0EFC28BF4CF0020C43FA45
:108D600005F3C01851EBE37101F0004507D54FF052
:108D7000000EDCF1000C7EEB00006EEB0101B1F5A2
:108D8000801F1BD3B1F5001F0CD349085FEA3000E8
:108D90004FEA3C0C04F101044FEA445212F5800FF3
:108DA00080F09A80BCF1004F08BF5FEA500C50F190
:108DB000000041EB045141EA050130BD5FEA4C0C73
:108DC000404141EB0101013C28BFB1F5801FE9D2D0
:108DD00091F0000F04BF01460020B1FA81F308BFF3
:108DE0002033A3F10B03B3F120020CDA0C3208DDBF
:108DF00002F1140CC2F10C0201FA0CF021FA02F19A
:108E00000CE002F11402D8BFC2F1200C01FA02F109
:108E100020FA0CFCDCBF41EA0C019040E41AA2BF2E
:108E200001EB0451294330BD6FEA04041F3C1CDAF6
:108E30000C340EDC04F11404C4F1200220FA04F016
:108E400001FA02F340EA030021FA04F345EA0301C0
:108E500030BDC4F10C04C4F1200220FA02F001FA82
:108E600004F340EA0300294630BD21FA04F0294604
:108E700030BD94F0000F83F4801306BF81F480119D
:108E80000134013D4EE77FEA645C18BF7FEA655C10
:108E900029D094EA050F08BF90EA020F05D054EAE2
:108EA000000C04BF1946104630BD91EA030F1EBFE7
:108EB0000021002030BD5FEA545C05D140004941EB
:108EC00028BF41F0004130BD14F580043CBF01F5DE
:108ED000801130BD01F0004545F0FE4141F47001C4
:108EE0004FF0000030BD7FEA645C1ABF194610469F
:108EF0007FEA655C1CBF0B46024650EA013406BFA0
:108F000052EA033591EA030F41F4002130BD00BF5E
:108F100090F0000F04BF0021704730B54FF480641B
:108F200004F132044FF000054FF0000150E700BF9C
:108F300090F0000F04BF0021704730B54FF48064FB
:108F400004F1320410F0004548BF40424FF00001E8
:108F50003EE700BF42004FEAE2014FEA31014FEA2B
:108F600002701FBF12F07F4393F07F4F81F060517A
:108F7000704732F07F4208BF704793F07F4F04BFC5
:108F800041F40021704730B54FF4607401F00045A2
:108F900021F000411CE700BF50EA010208BF704702
:108FA00030B54FF000050AE050EA010208BF7047F3
:108FB00030B511F0004502D5404261EB41014FF45C
:108FC000806404F132045FEA915C3FF4D8AE4FF064
:108FD00003025FEADC0C18BF03325FEADC0C18BF47
:108FE000033202EBDC02C2F1200300FA03FC20FA98
:108FF00002F001FA03FE40EA0E0021FA02F11444E5
:10900000BDE600BF70B54FF0FF0C4CF4E06C1CEAFD
:1090100011541DBF1CEA135594EA0C0F95EA0C0F6E
:1090200000F0DEF82C4481EA030621EA4C5123EAE1
:109030004C5350EA013518BF52EA033541F4801110
:1090400043F4801338D0A0FB02CE4FF00005E1FBC3
:1090500002E506F00042E0FB03E54FF00006E1FB0D
:1090600003569CF0000F18BF4EF0010EA4F1FF0450
:10907000B6F5007F64F5407404D25FEA4E0E6D4190
:1090800046EB060642EAC62141EA55514FEAC520A1
:1090900040EA5E504FEACE2EB4F1FD0C88BFBCF51D
:1090A000E06F1ED8BEF1004F08BF5FEA500E50F1CE
:1090B000000041EB045170BD06F0004646EA010194
:1090C00040EA020081EA0301B4EB5C04C2BFD4EBC6
:1090D0000C0541EA045170BD41F480114FF0000EBF
:1090E000013C00F3AB8014F1360FDEBF002001F02D
:1090F000004170BDC4F10004203C35DA0C341BDCA7
:1091000004F11404C4F1200500FA05F320FA04F078
:1091100001FA05F240EA020001F0004221F00041AC
:1091200010EBD37021FA04F642EB06015EEA430E1F
:1091300008BF20EAD37070BDC4F10C04C4F120054F
:1091400000FA04F320FA05F001FA04F240EA020002
:1091500001F0004110EBD37041F100015EEA430ED3
:1091600008BF20EAD37070BDC4F1200500FA05F2F3
:109170004EEA020E20FA04F301FA05F243EA020372
:1091800021FA04F001F0004121FA04F220EA020081
:1091900000EBD3705EEA430E08BF20EAD37070BDC7
:1091A00094F0000F0FD101F00046400041EB0101A7
:1091B00011F4801F08BF013CF7D041EA060195F089
:1091C000000F18BF704703F00046520043EB030343
:1091D00013F4801F08BF013DF7D043EA0603704730
:1091E00094EA0C0F0CEA135518BF95EA0C0F0CD03B
:1091F00050EA410618BF52EA4306D1D181EA030181
:1092000001F000414FF0000070BD50EA410606BF7A
:109210001046194652EA430619D094EA0C0F02D1BF
:1092200050EA013613D195EA0C0F05D152EA033604
:109230001CBF104619460AD181EA030101F0004122
:1092400041F0FE4141F470014FF0000070BD41F06B
:10925000FE4141F4780170BD70B54FF0FF0C4CF445
:10926000E06C1CEA11541DBF1CEA135594EA0C0F64
:1092700095EA0C0F00F0A7F8A4EB050481EA030EB1
:1092800052EA03354FEA013100F088804FEA033398
:109290004FF0805545EA131343EA12634FEA022266
:1092A00045EA111545EA10654FEA00260EF0004127
:1092B0009D4208BF964244F1FD0404F5407402D279
:1092C0005B084FEA3202B61A65EB03055B084FEA0A
:1092D00032024FF480104FF4002CB6EB020E75EB07
:1092E000030E22BFB61A754640EA0C005B084FEA2F
:1092F0003202B6EB020E75EB030E22BFB61A7546AC
:1093000040EA5C005B084FEA3202B6EB020E75EBF6
:10931000030E22BFB61A754640EA9C005B084FEA6E
:109320003202B6EB020E75EB030E22BFB61A75467B
:1093300040EADC0055EA060E18D04FEA051545EA6A
:1093400016754FEA06164FEAC30343EA52734FEA13
:10935000C2025FEA1C1CC0D111F4801F0BD141EA8C
:1093600000014FF000004FF0004CB6E711F4801FF1
:1093700004BF01430020B4F1FD0C88BFBCF5E06FD1
:109380003FF6AFAEB5EB030C04BFB6EB020C5FEAE1
:10939000500C50F1000041EB045170BD0EF0004E36
:1093A0004EEA113114EB5C04C2BFD4EB0C0541EA68
:1093B000045170BD41F480114FF0000E013C90E665
:1093C00045EA060E8DE60CEA135594EA0C0F08BF29
:1093D00095EA0C0F3FF43BAF94EA0C0F0AD150EA28
:1093E00001347FF434AF95EA0C0F7FF425AF1046BB
:1093F00019462CE795EA0C0F06D152EA03353FF4E3
:10940000FDAE1046194622E750EA410618BF52EA5F
:1094100043067FF4C5AE50EA41047FF40DAF52EA33
:1094200043057FF4EBAE12E74FF0FF3C06E000BFD0
:109430004FF0010C02E000BF4FF0010C4DF804CDDD
:109440004FEA410C7FEA6C5C4FEA430C18BF7FEA9D
:109450006C5C1BD001B050EA410C0CBF52EA430CCB
:1094600091EA030F02BF90EA020F0020704710F14B
:10947000000F91EA030F58BF994208BF90422CBFDA
:10948000D8176FEAE37040F0010070474FEA410CD3
:109490007FEA6C5C02D150EA013C07D14FEA430CF1
:1094A0007FEA6C5CD6D152EA033CD3D05DF8040B62
:1094B000704700BF8446104662468C461946634694
:1094C00000E000BF01B5FFF7B7FF002848BF10F16B
:1094D000000F01BD4DF808EDFFF7F4FF0CBF0120B0
:1094E00000205DF808FB00BF4DF808EDFFF7EAFF2C
:1094F00034BF012000205DF808FB00BF4DF808EDE7
:10950000FFF7E0FF94BF012000205DF808FB00BFDB
:109510004DF808EDFFF7CEFF94BF012000205DF865
:1095200008FB00BF4DF808EDFFF7C4FF34BF012072
:1095300000205DF808FB00BF4A0011D212F50012AE
:1095400011D20DD56FF47873B3EB62520ED44FEA9B
:10955000C12343F0004343EA505323FA02F070471B
:109560004FF00000704750EA013002D14FF0FF3059
:1095700070474FF0000070474FEA4102B2F1E043FC
:1095800024BFB3F5001CDCF1FE5C0DD901F0004CEA
:109590004FEAC0024CEA5070B2F1004F40EB83003A
:1095A00008BF20F00100704711F0804F21D113F166
:1095B0003872BCBF01F00040704741F480114FEA9F
:1095C0005252C2F11802C2F1200C10FA0CF320FA28
:1095D00002F018BF40F001004FEAC1234FEAD32345
:1095E00003FA0CFC40EA0C0023FA02F34FEA4303AF
:1095F000CCE77FEA625307D150EA01331EBF4FF038
:10960000FE4040F44000704701F0004040F0FE4052
:1096100040F40000704700BF002301461A46184678
:1096200000F0C8B8024B0A460146186800F018B8A6
:1096300074DF03200A44914200F1FF3300D17047E8
:1096400010B511F8014B03F8014F9142F9D110BD4B
:1096500002440346934200D1704703F8011BF9E727
:1096600013B54A4311460192FEF7BCFB044618B1FC
:10967000019A0021FFF7ECFF204602B010BD000068
:1096800038B5104B1D68AB6B0446B3B91820FEF714
:1096900081FB0246A86320B90B4B0C484221FEF720
:1096A000A9FB0B490B4BC0E900130B4B83600B2349
:1096B000838100210120C2E90401AB6B00221C61FF
:1096C0005A6138BD74DF03203DAD0B0054AD0B0073
:1096D0000E33CDAB34126DE6ECDE0500034611F817
:1096E000012B03F8012B002AF9D17047034613F828
:1096F000012B002AFBD1181A01387047164B73B59D
:109700001E68B46D0546FCB950200191FEF742FB7E
:109710000199B065024620B9104B11485721FEF758
:1097200069FBC0E90044C0E90244C0E90444C0E95F
:109730000A44C0E90C44C0E90E44C0E91044C0E941
:109740001244846104774462B26D0123284602B05A
:10975000BDE8704000F006B874DF03203DAD0B009B
:10976000D1AD0B00F0B508B9106888B104462046A9
:1097700014F8015B0F4617F8016B1EB965B9156047
:10978000284605E0B542F6D1002BF0D114600370F5
:10979000F0BD1C460CE015B914F8013B0E4616F856
:1097A000015BAB42F7D1002BF3D0002304F8013C5E
:1097B0001460EDE72DE9F843DFF8B8800646D8F8E5
:1097C00000001F460D46914600F056F8254B1C68D8
:1097D00034B9254C1C60254B13B11B68C4F8883084
:1097E00063681F2B07DDD8F8000000F047F84FF042
:1097F000FF30BDE8F8834EB3D4F8880088B91C4B1D
:1098000023B9D8F8000000F038F8F0E74FF484707E
:10981000FEF7C0FA0028F4D00023C0E94033C4F8B2
:109820008800636840F8239001229A4000EB83018E
:10983000D0F800311343C0F80031022EC1F8807017
:1098400002BFD0F804311343C0F804316368D8F87C
:1098500000005A1C0233626044F8235000F00EF8F6
:109860000020C6E7E8E703205CE7032000000000D3
:10987000957D0B00D8DF03207047704770470000CC
:1098800021400B005D400B0085400B0089400B0020
:109890000000000043616C6C206F6E207075726573
:1098A000207669727475616C004E6F206573207646
:1098B000616C69646F0054656D703A2025660049DB
:1098C0006E76616C696453656E736F724572726F08
:1098D00072004163747561646F72205247420041A7
:1098E00063747561646F72205A756D6261646F7222
:1098F0000053656E736F72206465204C757A005357
:10990000656E736F7220646520527569646F0053D1
:10991000656E736F7220426F746F6E0053656E7365
:109920006F7220526F74617469766F00204100205D
:10993000440053656E736F7220506F6361204469F9
:109940007374616E6369610053656E736F72204D4D
:10995000756368612044697374616E636961004F67
:109960004C45443A2053656E736F72204C757A20D3
:109970002D3E2025640053656E736F72204E6F205C
:109980004C757A0053656E736F72205369204C7565
:109990007A0053656E736F72204E6F205275696442
:1099A0006F0053656E736F7220536920527569643E
:1099B0006F0053656E736F72204E6F20426F746F2D
:1099C0006E0053656E736F7220536920426F746F1F
:1099D0006E0053656E736F72204E6F20526F74610C
:1099E0007469766F0053656E736F722053692052ED
:1099F0006F74617469766F0053656E736F72205473
:109A0000656D702E4672696F0053656E736F7220BC
:109A100054656D702E54656D706C61646F00536594
:109A20006E736F722054656D702E43616C6F72009F
:109A300053656E736F722044697374616E636961FC
:109A40002043657263610053656E736F72204469D1
:109A50007374616E636961204C656A6F730053654E
:109A60006E736F724E6F56616C69646F4572726F80
:109A70007200524742205665726465005247422088
:109A8000526F6A6F0052474220416D6172696C6C7F
:109A90006F00524742204D6F7261646F005247421F
:109AA00020417A756C00524742204E6172616E6AA5
:109AB000610052474220426C696E6B00524742205F
:109AC0005261696E626F77005A756D6261646F7280
:109AD000204F6E2D4F6666005A756D6261646F721D
