:02000002B0004C
:1040000000400B0034AF0B00000006000C0005025E
:084010000401E50C00000000B2
:0440180014980B00ED
:1040200009480A49884208B505D0094A824202D0A7
:10403000121A05F0C9FA0748074A0021121A05F0BA
:10404000D1FA014808BD00BF30DF032078AE0B0075
:10405000C4DF0320C4DF0320EDE7032070B5074E63
:10406000074C04F0D1F9A41BA4080025AC4200D1F0
:1040700070BD56F8043B98470135F7E728AE0B00B2
:104080004CAE0B0000F0E0BE08B501F06DF8BDE8E5
:10409000084004F071B903F031BE03F037BE0000F0
:1040A00008B5034A03490C2003F08CFDFEE700BF6E
:1040B00035790B0028980B000078B0FA80F04009A1
:1040C00070470123037070470EB403B503AB0021A2
:1040D00053F8042B019304F0E0F802B05DF804EB10
:1040E00003B070470EB403B503AB012153F8042BA2
:1040F000019304F0D2F802B05DF804EB03B070470E
:1041000007B5014601A802F04BFC01A802F04AFCE9
:1041100009288CBF0020012003B05DF804FB07B51F
:10412000014601A802F03CFC01A802F03BFC0A2871
:10413000D4BF0020012003B05DF804FB022808B5BD
:104140000BD004280BD060B9132004F0BCFCB0F5F0
:104150007A7FB4BF0020012008BD1120F5E70F20B1
:10416000F3E70020F8E7022808B50BD004280BD0AD
:1041700060B9132004F0A7FCB0F57A7FCCBF002013
:10418000012008BD1120F5E70F20F3E70020F8E734
:1041900008B580B204F097FCB0F52F7FB4BF0020C3
:1041A000012008BD08B580B204F08DFCB0F52F7F6A
:1041B000CCBF0020012008BD07B580B200210190CE
:1041C00004F044FC019804F06BFC431E5842584133
:1041D00003B05DF804FB07B580B20021019004F044
:1041E00035FC019804F05CFCB0FA80F0400903B0A3
:1041F0005DF804FB022807B524D0042824D018B9A0
:10420000132004F060FC0190DDED017A9FED0F6A50
:10421000F8EEE77AF1EE046A67EEA67A87EE867A20
:10422000DFED0B7A67EE277A87EEA67ADFED097A63
:10423000B4EEE77AF1EE10FAACBF0120002003B033
:104240005DF804FB1120DCE70F20DAE700C07F44B3
:104250000000964300002A44022807B524D0042811
:1042600024D018B9132004F02EFC0190DDED017A62
:104270009FED0F6AF8EEE77AF1EE046A67EEA67A30
:1042800087EE867ADFED0B7A67EE277A87EEA67ADD
:10429000DFED097AB4EEE77AF1EE10FA94BF01206F
:1042A000002003B05DF804FB1120DCE70F20DAE703
:1042B00000C07F440000964300002A4430B52DED35
:1042C000028B87B0C1B206230B2201A802F08EFB3D
:1042D00001A802F092FB01A802F04CFCB5EE400AE6
:1042E000F1EE10FAB4EE400A0CBF01240024F1EE06
:1042F00010FA68BF44F00104B0EE408A002CEAD105
:1043000004F0A4F9054618EE100A04F0EDFD02468B
:104310000B4628460A49FFF7E5FEB5EEC08AF1EEE6
:1043200010FA08DDF2EE007AB4EEE78AF1EE10FA48
:104330004CBF01240024204607B0BDEC028B30BDE9
:104340004A980B0010B52DED028B86B0C1B2062342
:104350000B2201A802F04AFB01A802F04EFB01A8C3
:1043600002F008FCB4EE400AF1EE10FAB0EE408A1A
:10437000F5D6B5EE400AF1EE10FAF0D004F066F989
:10438000044618EE100A04F0AFFD02460B46204624
:104390000C49FFF7A7FEF1EE0C7AB4EEE78AF1EED6
:1043A00010FA04DC002006B0BDEC028B10BDF3EE69
:1043B0000A7AB4EEE78AF1EE10FA4CBF0120002031
:1043C000F1E700BF4A980B0030B52DED028B87B0A6
:1043D000C1B206230B2201A802F008FB01A802F0DB
:1043E0000CFB01A802F0C6FBB5EE400AF1EE10FA94
:1043F000B4EE400A0CBF01240024F1EE10FA68BFAD
:1044000044F00104B0EE408A002CEAD104F01EF919
:10441000054618EE100A04F067FD02460B462846D2
:104420000B49FFF75FFEF3EE097AB4EEE78AF1EE8F
:1044300010FA08DDDFED077AB4EEE78AF1EE10FA44
:104440004CBF01240024204607B0BDEC028B30BDD8
:104450004A980B000000484208B50346013B10464D
:10446000062B43D8DFE803F00409121B242D0400B7
:10447000C1BBBDE80840FFF743BE19B9BDE808401D
:10448000FFF771BEBDE80840FFF758BE19B9BDE897
:104490000840FFF787BEBDE80840FFF779BE19B9AD
:1044A000BDE80840FFF797BEBDE80840FFF784BEAF
:1044B00019B9BDE80840FFF7CFBEBDE80840FFF7D7
:1044C00099BE012906D0022908D059B9BDE8084093
:1044D000FFF7F4BEBDE80840FFF734BFBDE8084071
:1044E000FFF772BFBDE80840FFF719BE04F0AEF851
:1044F000024903F0AAFE002008BD00BF53980B003C
:1045000084B0F8B506AC84E80F00DDE907010A9A2B
:10451000FFF7A2FF06AD0446BCAF0126069BB342DF
:1045200012DDD5E905012A6AFFF796FF17F8013B6E
:1045300033B1002C08BF0020013610350446EDE7EA
:10454000002C18BF2046F7E72046BDE8F84004B02D
:104550007047000038B504461A4802F079FC052C73
:104560002AD8DFE804F0031E202325271649174820
:1045700003F0CBFD154D134C2A691548402103F07B
:10458000D5FB1349204603F060FE2A6810484021FD
:1045900003F0CCFB0E49204603F057FE00232361B5
:1045A00038BD0C49E3E70C490C48E1E70C49FBE74F
:1045B0000C49F9E70C49F7E704F048F80B4903F018
:1045C00044FED7E7FCE5032066980B004CE6032089
:1045D000BCE5032073980B0085980B005CE6032074
:1045E00093980B00A3980B00B0980B003D980B001C
:1045F0002DE9F04188B0804650480E9F0E46154682
:104600001C4602F025FCB8F1000F6DD0013D062DCF
:1046100062D8DFE805F0043641464B505C0074BBBD
:104620004749484803F071FD4649684603F062FD7A
:10463000454B46496846002E08BF194603F0ADFDBC
:104640000A220446394604A803F071FD04A9204655
:1046500003F097FD402102683D4803F067FB04A882
:1046600003F0DAFC684603F0D7FC3949334803F01D
:10467000ECFD324B00221A6108B0BDE8F0813549EB
:10468000CFE703F0E3FF34492246FFF72BFD0CB9D7
:104690003249C6E73249C4E70CB93249C1E7324969
:1046A000BFE70CB93149BCE73149BAE70CB9314928
:1046B000B7E73149B5E7012C05D0022C05D0002C15
:1046C000B2D12E49ADE72E49ABE72E49A9E74CB947
:1046D0002D491C4803F019FD03F0B8FF2B4903F0E6
:1046E000B4FDA1E72A49F4E73DB1012D21D003F043
:1046F000ADFF284903F0A9FD0BE0072C09D8DFE83E
:1047000004F0040A0C0E101214162349234803F077
:10471000FCFC224989E72249F8E72249F6E72249C9
:10472000F4E72249F2E72249F0E72249EEE722497D
:10473000ECE70CB92149E9E72149E7E7FCE503206B
:10474000C6980B005CE60320C3980B00C0980B00D2
:10475000BCE50320DC980B00F3980B000A990B00D2
:1047600018990B0026990B0036990B0046990B00FF
:1047700056990B0066990B0079990B008C990B00E8
:104780009D990B00B2990B00C4990B00F2990B0094
:10479000DB990B007B9A0B00069A0B004CE603207A
:1047A000109A0B00199A0B00269A0B00319A0B00F5
:1047B0003A9A0B00469A0B00509A0B005C9A0B0039
:1047C0006C9A0B0030B503782D2B0CBF0122002210
:1047D000134603440A24002013F8011B3039CDB2DC
:1047E000092D02D804FB0010F6E702B1404230BDAB
:1047F00070B514460D4604F04BFF261F40B1FFF77D
:10480000E1FF294646F8040F002004F041FFF5E7D8
:10481000236813B9014B01221A7070BD70E60320A2
:1048200037B58DF807200DF107030A4601460D48FC
:104830000D4D01F011FF0128287010D003F006FF84
:104840000A4903F0EFFC03F001FF2978044605480C
:1048500001F056FC0146204603F0F7FC002003B0AF
:1048600030BD00BF88E60320B0E60320919A0B001C
:10487000F0B58DB01E4D1F4A00951F4B12781F4F8B
:1048800006466021284601F008FF012838700FD045
:1048900003F0DCFE1A4903F0C5FC03F0D7FE3978BB
:1048A0000446284601F02CFC0146204603F0CDFCCE
:1048B000144B1222187807A9FFF7B2FFB0B107AC6A
:1048C0000FCC03AD0FC523682B8003F0BFFE0E494C
:1048D00003AAFFF707FC0D49324603A8FFF788FF3C
:1048E000034801F094FE024801F0F1FC0DB0F0BD68
:1048F00088E6032054DF032078E60320B0E6032097
:10490000A89A0B0030DF0320C49A0B0031DF03208C
:1049100010B540B9264B1C68052C40D8DFE804F0E0
:10492000050F1A262D34234BF5E703F08FFE22499D
:1049300003F078FC1E4A13680133136014E003F09F
:1049400085FE1E4903F06EFC194A1368013313609B
:10495000022409E003F07AFE194903F063FC144BCA
:104960004FF0FF321A600424204610BD03F06EFEA3
:10497000144903F057FC0F4AE7E703F067FE1249BA
:1049800003F050FC0B4AD6E703F060FE0F4903F03A
:1049900049FC084B4FF0FF321A600624E4E703F0AD
:1049A00055FE0B4903F03EFC4FF0FF34DCE700BF3F
:1049B000A8E6032038DF0320D09A0B00E79A0B000B
:1049C000FE9A0B00159B0B002C9B0B00439B0B00CE
:1049D0005A9B0B0007B50023044800931A4619465A
:1049E00002F0A2FD03B05DF804FB00BF80E60320E7
:1049F00007B5002304480093FF22194602F094FDF6
:104A000003B05DF804FB00BF80E6032007B50A236E
:104A1000002200930348FF23114602F085FD03B0F6
:104A20005DF804FB80E6032007B5FF230093002315
:104A300003481A46194602F077FD03B05DF804FBFF
:104A400080E6032007B5002104480091E923FF22F6
:104A500002F06AFD03B05DF804FB00BF80E60320AE
:104A600007B575230093044846236C22002102F009
:104A70005BFD03B05DF804FB80E6032007B5002171
:104A8000044800918023FF2202F04EFD03B05DF840
:104A900004FB00BF80E6032007B5FF230448009312
:104AA0001A46002102F040FD03B05DF804FB00BF90
:104AB00080E60320000000002DE9F8430FF24409CE
:104AC000D9E900890E4F6426002400252946204696
:104AD00004F01CFDB6EE081A00EE100AF0EE410AD2
:104AE0000021384602F004FE2046294642464B4645
:104AF00004F09CF8013E04460D46E7D1BDE8F8837A
:104B000080E603207B14AE47E17A843F08B501219B
:104B1000062003F0ACFF0121062003F0A8FF0121CD
:104B2000072003F0A4FFBDE808400121072003F09F
:104B30009EBF08B50021062003F099FF0021062042
:104B400003F095FF0021072003F091FFBDE8084026
:104B50000021072003F08BBF08B5FFF7D7FF6420C3
:104B600003F0DEFBFFF7E5FFBDE80840642003F03B
:104B7000D7BB08B1FFF758BFFFF780BF08B1FFF7F9
:104B800061BFFFF76DBF08B1FFF740BFFFF730BF50
:104B900008B560B1FFF780FF4FF4C87003F0C0FBA9
:104BA000FFF718FFBDE80840C82003F0B9BBBDE817
:104BB0000840FFF70FBF08B1FFF76EBFFFF70ABF4E
:104BC00008B1FFF779BFFFF705BF08B1FFF7C4BF12
:104BD000FFF7AFBF08B1FFF799BFFFF7AABF00000B
:104BE00084B0F8B506AC84E80F000B9E9DF8304009
:104BF000054648B1012839D003F028FDBDE8F8404A
:104C0000234904B003F021BB224F3B781BB122485B
:104C100002F0D2FC3D70052EEED8DFE806F0030965
:104C20000F151B212046BDE8F84004B0FFF7ABBFCD
:104C30002046BDE8F84004B0FFF7A0BF2046BDE81D
:104C4000F84004B0FFF795BF2046BDE8F84004B037
:104C5000FFF79EBF2046BDE8F84004B0FFF7B0BFA5
:104C60002046BDE8F84004B0FFF7A5BFFFF7B2FE4D
:104C70003EB1012EC0D12046BDE8F84004B0FFF798
:104C8000A4BF2046BDE8F84004B0FFF7A3BF00BFB3
:104C9000829B0B0033DF032080E6032008B5FFF77B
:104CA000FBFE4FF4C87003F03BFBFFF793FEBDE83B
:104CB0000840C82003F034BB13B584B2204601215C
:104CC00003F0D5FE2046012103F0D1FE601C80B226
:104CD0000121019003F0CBFE0198012102B0BDE853
:104CE000104003F0C4BE13B584B22046002103F087
:104CF000BEFE2046002103F0BAFE601C80B20021F7
:104D0000019003F0B4FE0198002102B0BDE810400C
:104D100003F0ADBE10B50446FFF7CEFF642003F0EC
:104D2000FFFA2046FFF7DFFFBDE81040642003F0E4
:104D3000F7BA0000F7B5284F3B780446A3B1C9B2D3
:104D40004A1C6D460523D2B2284602F083FB95E843
:104D50000300224E86E80300284602F088FB304616
:104D600002F02AFC00233B70072C2DD8DFE804F06A
:104D700004090E13181D222703B0BDE8F040FFF709
:104D800045BE03B0BDE8F040FFF732BE03B0BDE85A
:104D9000F040FFF757BE03B0BDE8F040FFF760BE3C
:104DA00003B0BDE8F040FFF73FBE03B0BDE8F04000
:104DB000FFF764BE03B0BDE8F040FFF76FBF03B07C
:104DC000BDE8F040FFF778BE03F040FC044903B0B3
:104DD000BDE8F04003F039BA33DF032080E603205A
:104DE000929B0B0038B50C4605460121A0B203F09A
:104DF0002DFE45B1012D0BD003F028FCBDE8384055
:104E0000064903F022BA2046BDE83840FFF754BFF8
:104E10002046BDE83840FFF77DBF00BF829B0B00F6
:104E20000B4608B9FFF7D6BD002198B203F01FBEAC
:104E30000346012B0846114604DC0BB9FFF77ABF85
:104E4000FFF7D0BF7047000070B588B0002405A8F8
:104E5000CDE90544ADF81C4003F008FB3748234674
:104E6000224621464068364C02F000FF03F0EEFB7C
:104E70004FF4165103F0DEFB2178BFF35B8F11F086
:104E800001010BD120460391FFF716F9039928B1D0
:104E90002C4802F0B7FF2046FFF713F929482A4CA7
:104EA000012502F0B9FF2B463C220221274800953C
:104EB00001F0DCFF264801F06EFA264AFF2111704E
:104EC00051709170D1701171517103F055FE002035
:104ED00002F048FDFF2820700DD103F0B7FB00263B
:104EE0001D4903F0B2F9267003F046FE2A4621461A
:104EF000304602F03FFD2478B4B903F0A7FB174910
:104F000003F0A3F90121062003F0A0FD144A136861
:104F1000013313604FF43B71124A4B43D118D45004
:104F2000C1F8444108B070BD012CFBD103F08EFBE9
:104F30000D4908B0BDE8704003F087B910E70320C1
:104F4000C4DF0320C8DF0320D2DF0320FCE50320F9
:104F500088E6032078E60320A19B0B00AE9B0B00A4
:104F600034DF0320E4DF0320C49B0B0070B5124B39
:104F7000124E1C684FF43B725443ADF53C7D311921
:104F8000054601A804F020FB315901AB00228A42FA
:104F90000FDA5868A84203F1100308D103F056FB5A
:104FA000074903F052F900200DF53C7D70BD013238
:104FB000EDE70120F8E700BF34DF0320E4DF032042
:104FC000DB9B0B00F0B5114B114A1E689446002381
:104FD0009E4217DB1768154600218F420EDD6C6874
:104FE000844205F1100507D14FF43B72534303EBA4
:104FF000011363441869F0BD0131EEE7013302F596
:105000003B72E5E74FF0FF30F5E700BF34DF0320E8
:10501000E4DF03202DE9F043184D194BD5F844E1A6
:105020001F6884462B460024A74221DB0ED1D3F80B
:1050300044811A460026B04508DDD2E95290604509
:1050400001D1894517D001361432F4E7012F0BD175
:105050002E460022964507DDD6F84801814206F12A
:10506000140608D00132F5E7013403F53B73DBE7A2
:105070000120BDE8F0830020FBE700BFE4DF032050
:1050800034DF0320F0B50F4B1E680F4B00218E421A
:1050900013DBD3F844711A460024A74209DDD2F885
:1050A00048C1844502F11402D2F8405107D00134BE
:1050B000F3E7013103F53B73E9E74FF0FF3528468D
:1050C000F0BD00BF34DF0320E4DF032030B50C4B1C
:1050D0004FF43B7202FB01310022D1F844411346E8
:1050E000944208DDD1F84851854201D12BB9012302
:1050F00001321431F4E7002030BD1846FCE700BF50
:10510000E4DF03202DE9F743164C4FF43B7303FB18
:10511000014407460D460026A146D9F84431B34262
:105120001CDD94F85831D4F84881D4F85421BB429E
:1051300007D1D4F84C114046FFF77AFE01361434FB
:10514000EBE7294640460192FFF7C0FF019A00288D
:10515000F4D111464046FFF763FEEFE703B0BDE828
:10516000F08300BFE4DF03202DE9F04FA448A54DF4
:10517000ADF2D45D01F03AFA00B303F067FAA24C45
:10518000A24903F04FF89E4801F001FC204601F0CF
:105190005FFE0121204600F096FF00264FF001132C
:1051A000C4E904639A48FFF763FB9A4B1E70FFF74C
:1051B00011FC2B78002B3CD1FFF7BBFC944C2A78D8
:1051C0002368002A40F0B880934E002B5BD0062B5A
:1051D00040F0A980FFF7C0FC6368002B33D0012B9F
:1051E0004ED0236801331CBF4FF0FF332360336878
:1051F000002B17DD874B1B78A3B1884C0121226956
:105200006068FFF729F9864B1870864B02901B687F
:105210000193D4F85831009304F5A47494E80F0076
:10522000FFF7DEFC78480DF2D45DBDE8F04F02F0E8
:1052300077B80220FFF757FD0420FFF754FD062042
:10524000FFF751FDBAE7A768A7B903F0FFF9764960
:1052500002F0FBFF2F7003F08FFC6A49012200204F
:1052600002F088FBFFF7B6FBFFF763FC6F4B1B6890
:105270009847B6E7012FEED103F0E8F96C49E7E76C
:10528000644A1370ADE76B4F6368A2686A4D3A6079
:10529000644AE168DFF8BC812B60012B116019DDE5
:1052A00003F0D4F9654902F0D0FF3A685B4B2968F6
:1052B0005960002A18BF02221A611A6801321A6066
:1052C000D8F800300133C8F80030FFF745FC2868F3
:1052D000FFF740F9D8F80030002B21DD6368012B7F
:1052E0003FF67FAF03F0B2F9554902F0AEFF3B68DD
:1052F0002968002B494B0CBF02220422C3F8542119
:10530000D3F84421C3F848110132C3F8442133686B
:1053100001333360FFF720FC2868FFF71BF960E7D3
:10532000FFF758FB5DE701333FF45BAF03F08EF905
:10533000444902F08AFF54E7012BDFF8D8A044D09B
:10534000062B40F02D826368C3B1012B3AD04FF099
:10535000FF3323602C4801F0E3FF9AF800304BB193
:10536000394D2B68002B40F02482384B1B78002BE2
:1053700040F022820DF2D45DBDE8F08FA668DEB960
:1053800003F064F9284902F060FF2E7003F0F4FB8B
:105390001C490122002002F0EDFAFFF71BFB02205E
:1053A000FFF7A1FC0420FFF79EFC0620FFF79BFC03
:1053B0001E4B1B689847CAE7012EE7D103F046F958
:1053C0001B49E0E78AF80030C1E7E668134DDFF8D3
:1053D0008480114FDFF88090DFF86CB003F036F96D
:1053E0001B4902F01FFF6368052B00F2CC80DFE849
:1053F00013F0350081002C0155017C01960100BF9E
:1054000088E60320D2DF0320FCE503200B9C0B0081
:105410003CDF0320A4E6032098E60320E4DF03201A
:10542000B8E603206CE603201E9C0B00ACE60320CC
:10543000349C0B00B4E6032074E603204C9C0B0064
:105440005D9C0B00709C0B0034DF0320E0DF032029
:10545000919C0B00A0E603209CE60320B54F03F0CF
:10546000F5F8B54902F0F1FE3B787BB3D8F800209F
:10547000D9F800309A4239D13046FFF777FD18B39A
:105480003046FFF79FFD431C04D1A068FFF740FAA8
:10549000471C1FD0DBF800C0D8F8007023694FF418
:1054A0003B7101FB0CF101EB07122A44C2E90163D5
:1054B000C2E903C06A58013201376A50C8F8007067
:1054C000D4E90171009055E03B784BB903F0BEF888
:1054D0009A4902E003F0BAF8994902F0B6FE52E0A8
:1054E000D8F80020D9F800309A424CD003F0AEF83A
:1054F0009449F2E703F0AAF8934902F0A6FE934B11
:1055000093F80090B9F1000F65D0914BD4F810805A
:105510001B7831464046002B5AD1FFF77BFD00280F
:1055200059D03046FFF7AEFD411C04D1A068FFF70B
:10553000EFF9421C27D0DBF800C039684FF43B7309
:1055400003FB0CF2142303FB01232B44C3E954C0D7
:105550004FF0010CC3E9526883F858C1AB1861449D
:10556000D3F8442139606244C3F84421D4E901717D
:1055700043460090B1FA81F1B7FA87F03246490903
:105580004009FFF735F803F061F8724902F05DFE5B
:1055900003F05CF8704902F058FE03F057F86F4BC7
:1055A0006F491A684FF43B7303FB0255D5F8443139
:1055B00002936C4B1B6801936B4B1B6800936B4B06
:1055C0001B68FEF78FFD03F041F802F032FEBEE6E5
:1055D000FFF720FD58B9574B1B78002B3FF476AFEF
:1055E000B9F1000F2DD103F031F8614975E730466C
:1055F000FFF748FD431C04D1A068FFF789F9411C5F
:10560000C1D0DBF800E0D7F800C023694FF43B714C
:1056100001FB0EF1142202FB0C122A4402F5A478BD
:10562000C2E95263C2E954E02944002288F81020FC
:10563000D1F844210132C1F844210CF101023A6051
:105640003EE703F003F84B4947E702F0FFFF4A4902
:1056500002F0FBFDDBF800305A1C03D0D3B93A68E6
:10566000002A17DD334A01211170384900220A70DF
:105670003749C9F8002001330A704FF43B71CBF869
:1056800000304B43E918EA50C8F800203A60C1F8EE
:10569000442178E702F0DAFF38491EE702F0D6FF2E
:1056A000374902F0D2FDD9F80030D8F800209342F3
:1056B00012DA3A6882B9DBF800204FF43B7101FB43
:1056C0000252A1681A44003918BF0121013382F83F
:1056D000D812C9F8003056E7164B1B78002B3FF460
:1056E000F5AE02F0B3FF2749F7E602F0AFFF264917
:1056F00002F0ABFDD8F80030002B07DDD9F8002010
:10570000934203DD114B01221A703CE7094B1B78D1
:10571000002B3FF4DBAE02F099FF1C49DDE602F0FE
:1057200095FF1B4902F091FD3B68002B32DD084BD1
:10573000E9E700BFD1DF03204C9C0B00B29C0B00BB
:10574000A59C0B00C59C0B005D9C0B00E0DF0320BB
:10575000D0DF0320FF9D0B00079E0B0034DF0320EA
:105760003C9E0B0098E603209CE60320A0E6032065
:10577000FA9C0B000F9D0B00209D0B002D9D0B0034
:105780007F9D0B00909D0B00C29D0B00D19D0B00D7
:10579000F09D0B001F4B1B78002B7FF4F4AE95E6B9
:1057A00001333FF4D4AD02F051FF1B4902F04DFD2F
:1057B000CDE5012B7FF4DEADB9AC18494FF43B7257
:1057C000204603F001FF4FF43772BDA9684603F08D
:1057D000FBFE94E80F00FEF793FE0021FFF792FC1A
:1057E0002C68012C7FF4C6AD0D4B1B78002B3FF4C9
:1057F000C1AD0C494FF43772684603F0E5FE0A4B21
:105800000FCBFEF77DFE21460DF2D45DBDE8F04FD3
:10581000FFF778BCD1DF0320709C0B00E4DF03208E
:10582000E0DF0320E0E20320D0E2032010B5164CB5
:1058300016484FF0FF3101F017FA1549204602F0E3
:1058400036FC134904F1100002F031FC082210214B
:10585000104800F03EFC05231A4604210E4801F0D2
:10586000F9FD0E4B0E4A9A600024C3E90044022061
:1058700002F0B0F90B4B1C60C3F84441C3F8EC4292
:10588000C3F8304410BD00BF4CE60320FCE5032004
:105890005F9E0B0088E6032080E60320D4DF032010
:1058A0000000FFFFE4DF0320704710B5102104461D
:1058B000FEF7F3FB204610BD73B504460846227977
:1058C000A36832B1A3B90B4902B0BDE8704002F041
:1058D000A9BC094A267B094D0949647B012E18BFE2
:1058E0002946CDE900140749FEF7EEFB02B070BD72
:1058F000054AEFE7729E0B00819B0B006E9E0B002A
:105900006A9E0B00889E0B00619E0B002DE9F04FF4
:1059100085B01F46BDF93880BDF83C30A8EB0209C0
:10592000A7EB010AB9F1000FB8BFC9F10009BAF13C
:10593000000FB8BFCAF1000AD14583460C46154690
:1059400004DD3A462C4647460D469046BC4205DDEE
:105950002A464546904622463C4617463E1BB2B272
:105960000092A8EB050282EAE271A1EBE271C6F3B4
:10597000C03202FA86F64545B4BF01224FF0FF322D
:10598000019176100292BC421CDCDBF800200393EC
:10599000D145D2F81880C7BF294622462A4621465B
:1059A0005846C047019A039BB61AB1B236B2002ED0
:1059B00005DA029A1544009A56182DB236B201340F
:1059C00024B2E0E705B0BDE8F08F704710B404687A
:1059D0002469A4465DF8044B604730B40468BDF800
:1059E00008500295A46BA44630BC604730B40468EC
:1059F000BDF808500295E46BA44630BC604770B413
:105A0000BDF90C50BDF810600468CDE90356246C54
:105A1000A44670BC60472DE9F3411C460368BDF8FD
:105A200020805B6905461646013C34440F4624B28B
:105A300098472B68CDF8048000949C6A28463B4622
:105A400032463946A0472B68DB6A284602B0BDE8DB
:105A5000F04118472DE9F3411D460368BDF8208049
:105A60005B69044617460E469847CDE900782268E0
:105A70006B1E3344956A20461BB23A463146A8470E
:105A80002368DB6A204602B0BDE8F04118472DE9E3
:105A9000F3471E460368BDF928905B69BDF82C806A
:105AA0000C460546174698472644B4422B680BDA45
:105AB000CDF80080D3F820A021464B463A46284630
:105AC0000134D04724B2F0E7DB6A284602B0BDE8D3
:105AD000F047184713B502680191B0F90E10009114
:105AE000146CB0F90C3000221146A04702B010BD72
:105AF0002DE9F74399421646BDF92870BDF82C9060
:105B0000026880460D461C4613D1BE42C8BF3346CC
:105B1000CDF82890C4BF3E461F467B1C946B9B1B50
:105B20001BB2324629464046A44603B0BDE8F043C6
:105B30006047BE420AD19942C2BF0B4625461C4669
:105B4000631CCDF82890D46B5B1BE9E75369984739
:105B5000CDE90079D8F8003040469F6A32462346A6
:105B60002946B847D8F80030DB6A404603B0BDE8A4
:105B7000F04318472DE9F3471D460368BDF82C8014
:105B80005B69BDF9289004460F461646984723687E
:105B9000CDF80080D3F824A032462B463946204663
:105BA000D0472368CDF8008009F1FF323244D3F8A2
:105BB00024A039462B46204612B2D0472368CDF8A0
:105BC0000080D3F820A032464B4639462046D047C5
:105BD0006B1ED9192368CDF800801D6A20464B46FC
:105BE000324609B2A8472368DB6A204602B0BDE806
:105BF000F0471847704701F00303B0F90A20837695
:105C0000C907B0F9083059BF8381C2818281C3813D
:105C10007047000030B54281C281074A074D0181BB
:105C2000002481814FF0FF31C0E905124460056016
:105C300004610477046230BD01010001B0A30B00D0
:105C40002DE9F04F89B0CDE902120268BDF9488014
:105C50000493BDF94C3052690593BDF850A0044639
:105C6000904718F107024FF0000648BF08F10E02F6
:105C70004FEAE20B01963546039B019ABDF90410E9
:105C80009A18059B8B4212B227DD049B33444FF0D8
:105C9000000906930FFA89F080451FFA89F117DD94
:105CA0004F0705BF069BC0106D001D5C18BFEDB20D
:105CB0002B060AD5029B206807921944836909B212
:105CC0001F4620465346B847079A09F10109E1E704
:105CD000019B013301935E44CEE72368DB6A2046D3
:105CE00009B0BDE8F04F18472DE9F04F2DED028BBC
:105CF00091B01646026ABDF874809DF878509DF800
:105D00007C4003911F46BDF8703004938346002AFF
:105D100040F0C580B0F90C308B4240F34C81B0F9B3
:105D20000E30B34240F34781062313FB0513002BCB
:105D300040F3418106EBC403002B40F33C81037F19
:105D40001BB9AF2F84BF0137FFB2DBF800305846D4
:105D50005B6998470522099200220592984A07EB51
:105D60008703D3180C93B3B20693059A0C9B9B5CE4
:105D70000793ABB20B93BDF80C300893039B02FB67
:105D800005F919FA83F90FFA89F308EE103A082396
:105D90000A93039B02EB030A4FF000090FFA8AFAF9
:105DA000079ADBF80030D20752D5012D1FFA89F28D
:105DB0003ED1012C3CD19B6906991F46049B0A44A5
:105DC00012B251465846B84709F101034FFA83F918
:105DD000079B5B0807930A9B013B13F0FF030A93A1
:105DE000DED1059F01377BB20593099B013B13F080
:105DF000FF030993B9D1049B43450FD0012DDBF874
:105E000000303BD1012C39D10899CDF80080053103
:105E10001C6A3246082309B25846A047DBF8003016
:105E2000DB6A584611B0BDEC028BBDE8F04F184755
:105E3000069914FB02F20A44049901910094DB696B
:105E400018EE101A1F4612B22B465846B847BBE749
:105E5000049A4245B8D0012D1FFA89F207D1012CCE
:105E600005D19B6906991F460A444346A8E706994F
:105E7000CDF8048014FB02F20A44DFE70B9ACDF858
:105E8000048002EB8201089AE4000A44114600945F
:105E9000DC6932462B4609B25846A047BEE7137A62
:105EA000516812680B92FF1AFFB201EBC70331F879
:105EB000372006929A780992DA780C92012D93F99C
:105EC000052093F906A00A9201D8012C57D9BDF9F3
:105ED000283008930FFA8AF30793DBF8003058460E
:105EE0005B699847B3B24FF000080E931AFA86F335
:105EF000C14647460F930C9B9F428FD2079B0E9A39
:105F00003B4403FB0423002205920F9A1BB202EBD1
:105F1000070A08EE103A0FFA8AFA4346099A0599D9
:105F2000914241D25A1CD2B25B070D9207D1069B17
:105F300006990B9A01339BB212F80190069319F05F
:105F4000800F12D0012DDBF80030BDF80C101AD1F3
:105F5000012C18D10A9A9B691144059A11441E46D6
:105F60005246049B09B25846B047059E0136F3B22B
:105F70004FEA490905935FFA89F90D9BCEE70023A3
:105F8000CDE90733A9E70598089A024402FB0511F9
:105F9000049ACDE90042DB6918EE102A1E4609B2C8
:105FA0002B465846B047E0E7099B013798445FFA13
:105FB00088F8FFB29FE711B0BDEC028BBDE8F08F0F
:105FC000A59E0B00F0B5026A85B004460B46002A78
:105FD00034D10A2908D1438A0282427E03EBC203EC
:105FE0006382012005B0F0BD0D29FAD0E17E007E6C
:105FF000657E71B1B4F91060062111FB0061B4F93E
:106000000C60B142C1BFB4F91210228201EBC5028B
:106010006282E28A0192A28A0092CDE90205B4F975
:106020001220B4F910102046FFF75EFE237E228A6C
:1060300003EB430302EB43032382D2E70A2907D190
:1060400000230382417E927A438A01FB0233C7E731
:106050000D29C6D0157AA942C3D3517A9942C0D32B
:1060600051685D1BEDB201EBC505A87828B3E9784E
:1060700019B3E17E267E677E91B195F9051008443B
:10608000B4F9101006FB0011B4F90C00814207DDD1
:1060900000202082B4F91210927A02FB0712628269
:1060A000E28A0192A28A0092CDE90267B4F9122035
:1060B000B4F910102046FFF717FE2979227E238AB3
:1060C00001FB0233B8E7012938BF0121017641768F
:1060D000704738B50446084621730121154602F081
:1060E000B5FC207B012102F0C2FC2846657301212A
:1060F00002F0ACFC607B002102F0B9FC204638BD08
:106100000139C9B208299ABF024B53F8210002484D
:10611000704700BFF8A40B0000A40B0013B50B4C94
:106120002178BFF35B8F11F001010BD12046019163
:10613000FDF7C2FF019928B1054801F063FE204632
:10614000FDF7BFFF024802B010BD00BFC4DF03204F
:10615000C8DF032007B50190FFF7E0FF019903B006
:106160005DF804EB01F0F4BE2DE9F74F07469DF80A
:1061700030801E461546002A42D001F07E01007B89
:1061800041F08009002102F072FC4846FFF7E2FF6F
:10619000013DEDB24FF0000B4FF0010A5FFA8BF4B6
:1061A000A54222D9DCB9B8F1000F18D04246D3B2CB
:1061B000072B61B205D80AFA02F40C43E4B20132AB
:1061C000F5E748460191FFF7C5FF33780199044090
:1061D00023EA01031C4334700BF1010BDEE7484650
:1061E000FFF7B8FF06F80B00F6E70020FFF7B2FF55
:1061F0007055387B012103B0BDE8F04F02F037BC89
:1062000003B0BDE8F08F38B50C4605460021007B91
:1062100004F07E0402F02BFC44F08000FFF79AFFAC
:106220000020FFF797FF01210446287B02F01FFCA6
:10623000204638BDF8B50F4606460021007B1546BE
:106240001C4602F014FC07F07E00FFF783FF254494
:10625000AC4204D014F8010BFFF77CFFF8E7307B69
:106260000121BDE8F84002F002BC70B504460E46BC
:10627000007B0021154602F0FAFB06F07E00FFF7D6
:1062800069FF2846FFF766FF207B0121BDE87040CB
:1062900002F0EDBB70B5164604460D46FFF7B3FF9E
:1062A0003043C2B229462046BDE87040FFF7DDBF4B
:1062B00070B5164604460D46FFF7A5FF20EA060016
:1062C000C2B229462046BDE87040FFF7CEBF082283
:1062D0001021FFF7EDBFF8B5044615460F46002222
:1062E00002211E46FFF7C1FF04220A212046FFF7C4
:1062F000BCFF802214212046FFF7CCFF2A463B46F4
:1063000012212046FFF796FF032202212046FFF7C5
:10631000ACFF41F288350A212046FFF774FF43079E
:1063200005D4013DADB2002DF5D104200FE00022CF
:1063300002212046FFF799FF44212046FFF763FF23
:10634000422130702046FFF75EFF70700120F8BDDB
:1063500010B50F2202210446FFF787FF322001F01B
:10636000DFFF02212046FFF74EFFC306F9D410BD20
:1063700010B528210446FFF746FF00F00303032B66
:1063800008D040F00302D2B220462821BDE81040D8
:10639000FFF76BBF10BD10B50446407B02F080FBD9
:1063A00048BB607B012102F062FB322001F0B8FFA4
:1063B000204680225421FFF758FF2046A92256216B
:1063C000FFF753FF204603225821FFF74EFF2046D8
:1063D000E8225A21FFF749FF204640222A21FFF7F1
:1063E00044FF20463D222221FFF73FFF2046BDE823
:1063F0001040FFF7BDBF2046FFF7AAFFD8E72DE901
:10640000F04F89B0DDE91356DDF8549003929DF802
:106410005C209DF858B0049204468A460027B9F1E2
:10642000000F3ED099F800800593002202212046FB
:10643000FFF71BFF7F2208212046FFF716FF08EB1E
:106440000B18802214212046FFF724FF5FFA88F8FA
:10645000059B9DF8482012212046FFF7EBFE42469F
:106460001A212046FFF701FF524602212046FFF77E
:10647000FCFEBAF10C0F04D180221A212046FFF74E
:1064800009FF4FF4FA6808212046FFF7BCFE039B82
:10649000184208D1C30702D4B8F10108F3D104208F
:1064A0004DE0C846C0E70C212046FFF7ACFE10F0D7
:1064B000130F804646D1DDB1D6B114212046FFF737
:1064C000A2FE3378834202463ED330702B4612211F
:1064D0002046CDF800B0FFF747FE18212046FFF711
:1064E00092FE00F00707B9F1000F01D089F80070A3
:1064F00018F0080F2AD15DB356B3049B43B332782A
:10650000012A03D1042F25D1092018E022D90FBB7D
:10651000023A07ABD2B229462046FFF7DCFE01283B
:106520000DD133781D449DF81C3015F8022C9A4289
:1065300010D115F8012C9DF81D309A420AD109B0EE
:10654000BDE8F08F0220FAE70520F8E70320F6E720
:106550000120F4E70820F2E710B586B09DF82C4042
:1065600005949DF828400494099C0394089C00928B
:10657000CDE9013430220B460C21FFF740FF06B075
:1065800010BD70B588B006461C468DF8171015462C
:106590001AB31B78012B20D980221C21FFF788FE1B
:1065A00007238DF81F300023CDE902330DF11F03BF
:1065B000CDE9004301222B460DF117013046FFF7CC
:1065C000CBFF012807D12378022B08D19DF81F307B
:1065D000002B18BF022008B070BD0520FBE7022089
:1065E000F9E713460A462621FFF7CBBF07B502237A
:1065F0000DF1030201A98DF80330FFF7F2FF00F05F
:10660000FD00431E5842584103B05DF804FB70B5CD
:1066100086B050238DF8143000240DF116030222A9
:1066200005A906468DF81540FFF755FE01280546D9
:106630000FD1CDE90244CDE900442346042205A947
:106640003046FFF789FF042803D0012814BF054610
:106650000225284606B070BD7FB506461D46144685
:10666000CAB11B78112B16D9302313705170931CAB
:1066700021460222FFF72FFE01280AD10023CDE98F
:106680000133039000952346042221463046FFF74C
:1066900063FF04B070BD0520FBE710B58AB00C9C09
:1066A0008DF81D201A689B88ADF8223063788DF82C
:1066B0002430A3788DF82530E3788DF826302379BF
:1066C0008DF827300023CDE90433CDE9023301935F
:1066D0000C238DF81C10CDF81E200093102207AB60
:1066E0000E21FFF78CFE0AB010BD2DE9F04F502AA5
:1066F0008BB082460F46904600F2408180221C21DA
:10670000FFF7D6FD93238DF81C30B8F1000F00F091
:10671000BC803C78042C94BF002301230125002673
:106720000BE095238DF81C30B8F1000F00F0AF801E
:106730003C78072C94BF00230123A8EBC60464B265
:1067400024EAE474002B00F0A48088228DF81E2037
:10675000032114F0070218BF012202EBE40212F039
:10676000FF02E0B21DD0002B14BF4FF003094FF021
:10677000040906F1010C914594BF01EB090E01EBF0
:10678000020E57FA8CFC5FFA8EFE0A460DF1280BBA
:106790000131C9B25A441CF8019B02F80C9C7145A6
:1067A000F3D10BB1083044B21F2C74DD4FF07003ED
:1067B0009DF81F208DF81D309DF81E3053409DF828
:1067C000202053409DF8212053408DF8223007228D
:1067D0000DF1230307A95046FFF77DFD01288146EF
:1067E00040F0C88000238DF81A3003238DF81B3049
:1067F00004940DF1220B4FF009099DF81A3005930E
:1068000003EB0312D2B21A215046FFF72EFD059B6F
:1068100002930DF11A03002201930DF11B03039261
:1068200000934A465B4607A95046FFF795FE0328AA
:1068300081464CD11C215046FFF7E5FC810600F152
:10684000998010F01F0008BF2020A04240F38780ED
:10685000431E03F0070244B213F007034FEAD000CF
:1068600018BF0123013018440AAB1844012303FA6E
:1068700002F210F80C3C134300F80C3C94E7972309
:106880008DF81C300626234657E7434646E7434625
:1068900053E702215DE7E3100233DBB204F00702A5
:1068A00014F007098DF81A2002EB03128DF81D2051
:1068B00018BF4FF0010907AA994402EB030BC3F17B
:1068C00009035FFA89F98DF81B30049495E70128D4
:1068D00050D1049B1F2B4FF020047FF767AF9DF82A
:1068E0001E30882B3ED103231A4601361A4457FA2C
:1068F00086F6D2B219460AA801330144DBB211F878
:106900000C1C06F8011B9342F4D19DF81B60032E6A
:1069100037D19DF81A40A4BB0DF11E030122594640
:106920005046FFF7D8FC0128814623D19DF81E2050
:106930009BF801309A4227D19DF81F209BF8023026
:106940009A4221D19BF800305A070ED50135EDB29D
:10695000032D94D0042D02D0022D3FF4E2AE4FF06F
:10696000060907E002230422BFE705EB45050135D0
:10697000FB723D7048460BB0BDE8F08F4FF0070941
:10698000F8E74FF00209F5E74FF00809F2E708B51C
:1069900001460022FFF7A9FE431E5842584108BD98
:1069A0000160704710B504460121008802F04EF8DE
:1069B0002088002102F05BF8022000F0BBFF208855
:1069C000012102F054F8052000F0B4FF20880021D6
:1069D00002F04DF82088002102F038F820880121CB
:1069E00002F088F83A2390FBF3F010BD10B5037263
:1069F00001238171C271037410BD10B504460021DA
:106A0000807902F023F8A079012102F030F8002308
:106A1000E36010BD2DE9F843044600F093FFE368FE
:106A2000834284BF0023E360237C23B9E368C01A58
:106A3000B0F5FA6F67D30025257400F083FF0121BC
:106A4000E0602560A079257102F011F8FA2001F0CC
:106A500067FCA079012101F0F9FF2946A07902F035
:106A600006F8142001F05CFC01F016FE0121A0796B
:106A700001F0FDFF282000F05DFFA079294601F01C
:106A8000E5FF2E4601274FF00008A07902F008F834
:106A9000B8425FFA88F908D1012008F1010800F036
:106AA00049FFB8F1FF0FF0D1C146A07901F0F8FF1E
:106AB000B9F1FF0FC7B214D0032D0ED9EA070CD4D9
:106AC000F2080136A35C5B00DBB2A354217A49458E
:106AD0003CBF43F00103A354F6B20135EDB2552D8E
:106AE000D1D101F0DBFD272E0FD96378207818442F
:106AF000A3781844E37818442379C0B2C31A5842E3
:106B00005841BDE8F8830120FBE70020F9E70000C9
:106B100010B50446FFF77EFF20B3E3790B2B1BD0A3
:106B2000153B012B1ED8A378DFED106A03F07F021E
:106B300007EE102AE27807EE902AB8EEC77AF8EE50
:106B4000E77A1B06E7EE267AB2EE047A87EE870A2A
:106B500007D5B1EE400A04E0A37800EE103AB8EE93
:106B6000400A10BD9FED020AFBE700BF0000804312
:106B70000000C07FFFF7CCBF10B5044B0360044694
:106B8000C06A08B101F0C2F8204610BD18AB0B0076
:106B900010B50446FFF7F0FF20465021FDF77DFABF
:106BA000204610BD002910B54BDBB0F90C408C42DB
:106BB00047DD002A45DBB0F90E40944241DD847E7A
:106BC000022C1FD0032C26D0012C04D10489D243DF
:106BD00014440A4621B2012B23D0022B32D083BBAE
:106BE000002A13460489C06AB8BFD31DDB1013FB0B
:106BF000041102F0070201239340425C22EA0302DF
:106C000042541EE00489013C611A4489D243224463
:106C100009B212B2DFE74489013C641A114622B27C
:106C2000D9E7002A04891346B8BFD31DDB1013FB34
:106C30000411C36A02F0070001228240585C02433B
:106C40005A5410BD002A13460489C06AB8BFD31D28
:106C5000DB1013FB041102F00702012303FA02F216
:106C6000435C5A40CCE7000070B5402204460E4613
:106C70008021FEF7CFFF00250D4B2360656201F0F8
:106C8000A9FFFF2384F8333084F83630094BA3631F
:106C90004FF6FF720123C4E90A05A28684F8376023
:106CA00084F83C302564A4F84450204670BD00BFF1
:106CB00018AB0B0024A50B00F8B50446806A0D46FE
:106CC00090B194F9301001F089FDA06A03680021A9
:106CD0009B689847A06A036829469B689847A06A02
:106CE000BDE8F84001F081BD94F93530014698B215
:106CF00001F0BDFE606A20B12946BDE8F84001F010
:106D000027B90826802794F9330005EA070180B2E5
:106D100001F0ADFE94F93400012180B201F0A7FE2C
:106D200094F93400002180B201F0A1FE013E4FEA47
:106D30005707E8D1F8BD38B50446806A0D4680B1E2
:106D4000A16C01F03DFD002D204614BFA721A62116
:106D5000FFF7B2FFA06A88B1E16CBDE8384001F0EE
:106D60002FBD606A18B104F1380101F083F894F97D
:106D70003600002180B201F07AFEE4E794F9360093
:106D8000012180B201F073FE606A18B1BDE838409D
:106D900001F056B838BD2DE9F8430446806A0D4627
:106DA0008F1840B394F9301001F018FDA06A036801
:106DB00000219B6898470126AF42A06A17D01F2E7A
:106DC0000CD901F012FD94F93010A06A01F006FD13
:106DD000A06A036800219B6898470126A06A15F8FD
:106DE000011B036801369B689847F6B2E4E7BDE8EB
:106DF000F84301F0FABC94F93530014698B201F03D
:106E000036FEBD4222D0606A15F8019B18B1494692
:106E100001F09EF8F5E708264FF0800894F933005A
:106E200009EA080180B201F022FE94F93400012140
:106E300080B201F01CFE94F93400002180B201F010
:106E400016FE013E4FEA5808E8D1DAE7BDE8F883BC
:106E5000B0F90A30DA1D48BF03F10E02B0F908306C
:106E6000C06AD2105A43002102F0BCBB2DE9FF4199
:106E70001E46C36A9DF8288004460F461546D3B1C6
:106E80002046FFF7E5FFB4F90A20202A25DCB4F9F3
:106E900008102023203A73390120CDE9013002EB9C
:106EA000D272732301EBD171009342F34F02854BF1
:106EB00041F34F011BE0B0F90A30D81D48BF03F180
:106EC0000E00B4F90830C010584300F017FFE0621C
:106ED0000028D5D104B0BDE8F08140234FF0010C6B
:106EE000CDE9013C802300930022774B11462046D8
:106EF000FEF7A6FEA06A84F83170002878D0002D35
:106F000074D1B4F90A30202B0CBF3C253D2584F800
:106F10003050B8F1000F01D001F056FCFEB194F9E9
:106F2000370000281BDB012180B201F08FFD94F9AE
:106F30003700012180B201F09AFD012001F0F0F943
:106F400094F93700002180B201F091FD0A2001F090
:106F5000E7F994F93700012180B201F088FDA06AB9
:106F6000002874D0A16C01F02BFC04225749204664
:106F7000FFF711FF61890139C9B22046FFF79CFE76
:106F8000534904222046FFF706FF94F93130012BC4
:106F90000CBF102114212046FFF78EFE04224D491C
:106FA0002046FFF7F8FEA3684B4A93425CD14B4959
:106FB00004222046FFF7EFFED9212046FFF77CFE92
:106FC00094F93130012B0CBF2221F1212046FFF72B
:106FD00073FE204642490622FFF7DDFEA06A002824
:106FE00063D0E16C01F0ECFB012073E76DB28EE73A
:106FF00094F93500012180B201F028FD94F93600A2
:10700000012180B201F022FD94F93600012180B205
:1070100001F02DFD656A3DB1B8F1000F3FF47EAF80
:10702000284600F0F9FE79E794F93300012180B297
:1070300001F00CFD94F93400012180B201F006FD4D
:1070400094F93400294680B201F011FD66E7606AC8
:1070500018B104F1380100F00DFF94F93600002159
:1070600080B201F004FD80E71E4A93420ED11E4912
:1070700003222046FFF78FFE94F93130012B0CBF1D
:107080009F21CF212046FFF717FE95E7174A93422D
:1070900092D1174903222046FFF77DFE94F9313043
:1070A000012B0CBF1021AF21ECE794F93600012130
:1070B00080B201F0DCFC606A002895D000F0C0FED0
:1070C00092E700BF30A50B0010A70B0078AB0B00B8
:1070D0007CAB0B0080AB0B00800020008AAB0B0068
:1070E00084AB0B00800040008EAB0B0060001000F2
:1070F00091AB0B0070B5002ABDF810503DDBB0F924
:107100000A40944239DD0029BEBF5B181BB2002142
:10711000B0F90840CE18A642C4BF631A1BB2002BB8
:107120002BDDC06AD61014FB0611014402F00700E3
:1071300001228240012DD2B216D0022D0BD0E5B92A
:10714000D243D2B20B44994217D011F8010B104030
:1071500001F8010CF7E70B4499420ED011F8010B2E
:10716000504001F8010CF7E70B44994205D011F8A3
:10717000010B104301F8010CF7E770BDF0B50029D1
:10718000BDF8145076DBB0F90860B14272DA002A1B
:10719000BEBF9B181BB20022B0F90A40D718A74205
:1071A000C4BFA31A1BB2002B64DDC2F3C404C76AB8
:1071B00016FB041612F00702DBB207EB060423D01D
:1071C000C2F10802D2B22D4993423CBF4FF0FF0CEE
:1071D000A2EB030E895C3CBF4CFA0EFC0CEA0101E9
:1071E000012D07D0022D2ED04DB917F806C02CEA7C
:1071F000010103E017F806C041EA0C01B9559342BA
:1072000038D3B0F908100C449A1AD2B2072A0ED912
:10721000022D1DD113462178C9432170083BB0F9D6
:107220000810DBB2072B0C44F5D802F007020AB3B2
:10723000134B012D9B5C1AD0022D1CD0D5B922789E
:1072400022EA030315E017F806C081EA0C01D5E72E
:10725000291E18BF01214942C9B213462170083BBB
:10726000B0F90860DBB2072B3444F7D8DDE72278A9
:1072700013432370F0BD22785340FAE768AB0B004C
:1072800070AB0B0070B41446827EBDF80C60022A0D
:107290000DD0032A18D0012A11D10289E4431444E5
:1072A00024B203960A46214670BCFFF767BF4289A5
:1072B0000589E44319441444691A24B209B20396B7
:1072C000224670BCFFF716BF45891944691A09B2F6
:1072D000E7E730B41446827EBDF80850022A0DD08C
:1072E000032A18D0012A11D1E2180489A41A24B261
:1072F00002950A46214630BCFFF7FCBE0289C9430D
:107300001144E2184489A41A09B224B20295224613
:1073100030BCFFF733BF4289C943114409B2E7E7E4
:107320002DE9F8430446806A002842D0A16C01F0A0
:1073300047FA474905222046FFF72DFD21890139EB
:107340002046C9B2FFF7B8FCB4F90A30DE1D48BFC9
:1073500003F10E06D4E90A052389F61013FB06F69D
:1073600015FA86F600283AD094F9301001F036FA72
:10737000A06A036840219B6898470127B542A06A2C
:1073800024D01F2F0CD901F030FA94F93010A06AE4
:1073900001F024FAA06A036840219B6898470127FE
:1073A000A06A15F8011B036801379B689847FFB274
:1073B000E4E7606A18B104F1380100F05BFD94F96C
:1073C0003600002180B201F052FBB2E701F00DFA65
:1073D000A06A78B3E16CBDE8F84301F0F1B994F923
:1073E0003500012180B201F042FBAE42F0D0606A6C
:1073F00015F8019B18B1494600F0AAFDF5E70827EA
:107400004FF0800894F9330009EA080180B201F0D6
:107410002EFB94F93400012180B201F028FB94F98D
:107420003400002180B201F022FB013F4FEA5808EE
:10743000E8D1DAE794F93600012180B201F017FBB8
:10744000606A18B1BDE8F84300F0FABCBDE8F88303
:1074500094AB0B0010B5044601704270837001219B
:1074600003EB430002F0A8F86060204610BD10B5A1
:107470000446406800F04AFC204610BD10B50021CB
:107480000446007801F0F3FA142000F053FA207853
:10749000012101F0ECFABDE81040142000F04ABAD6
:1074A00070B506460C46082523064CBF0121002175
:1074B000707801F0DCFA013D3046FFF7DFFF640031
:1074C00015F0FF05E4B2EFD170BD73B513F0800F76
:1074D0001E460C46154614BFC021E021730658BF56
:1074E00041F010012A0658BF41F008016B0658BF51
:1074F00041F00401220658BF41F00201630658BF63
:1075000041F001010190FFF7CBFF01983146FFF7F1
:10751000C7FF01982946FFF7C3FF0198214602B033
:10752000BDE87040FFF7BCBF2DE9F04704460F46A9
:107530000021904699469DF820A0FFF7B1FF002159
:107540002046FFF7ADFF00212046FFF7A9FF0021ED
:107550002046FFF7A5FF0026A378F5B2AB4219D964
:1075600005EB4500AF4200F1010200F1020308D132
:10757000616801F80080616801F80290616801F8B3
:1075800003A06168CB5C8A5C095C2046FFF79DFF25
:107590000136E1E720460021FFF782FF2046002167
:1075A000FFF77EFF20460021FFF77AFF20460021EB
:1075B000BDE8F047FFF774BF73B5044601210078BA
:1075C00001F044FA6078012101F040FA00252E46CE
:1075D000A378E9B28B4207D9002300961A462046C9
:1075E000FFF7A2FF0135F3E702B070BD0000000015
:1075F000F8B5B5EEC01AF7EE007AF1EE10FA2DEDFF
:10760000048BF0EE418A48BF71EE278AB0EE409AB3
:10761000F4EEE78AF1EE10FAC8BF78EEE78AB0EE32
:10762000608A18EE900A01F05FFC2EA3D3E90023D4
:1076300004460D4601F022FF10B378EE497A17EEAA
:10764000900A01F051FC264B002201F0A5FC2246D5
:107650002B4601F0A1FC044619EE100A0D4601F07C
:1076600043FC02460B462046294601F0DFFA01F0B2
:107670004DFF08EE100AB0EE480ABDEC048BF8BDD1
:10768000F6EE007AF4EEE78AF1EE10FAF3D412A3E4
:10769000D3E900232046294601F0F0FEB8B178EE88
:1076A000497A17EE900A01F01FFC224606460F4663
:1076B0002B4609A1D1E9000101F0B6FA02460B46BA
:1076C0003046394601F068FC054B0022C1E7B0EEB8
:1076D000498AD0E7AFF30080555555555555E53FDC
:1076E00000001840555555555555C53F0000000040
:1076F0002DE9F0432DED048BF5EE400AF1EE10FA82
:1077000083B080468946F0EE409AB0EE609AB0EEC3
:10771000418A00F09D8011EE100A01F0E5FBF6EEC3
:10772000007AB4EEE78AF1EE10FA06460F4640F111
:107730008A8019EE100A01F0D7FB4D4B002201F0B0
:1077400075FA32463B4601F027FC01F0DFFE08EEF9
:10775000900A19EE900A01F0C7FB324604463B46F8
:107760000D463046394601F061FA064618EE900A99
:107770000F4601F0B9FB02460B463046394601F090
:1077800053FA01F0C3FE36A3D3E9002309EE100A31
:107790002946204601F04AFA01F0B8FEF0EE680AE8
:1077A00001EE100AB0EE490AFFF722FFB0EE691AA7
:1077B000F0EE680AB0EE408AB0EE490AFFF718FF13
:1077C00027A3D3E900232046294610EE106A01F0D2
:1077D0002BFA01F09BFEF0EE680A01EE100AB0EE03
:1077E000490AFFF705FF10EE104A304601F07CFB16
:1077F0001DA3D3E9002301F0CFFB01F067FEC6B261
:1078000018EE100A01F070FB17A3D3E9002301F072
:10781000C3FB01F05BFEC5B2204601F065FB12A37D
:10782000D3E9002301F0B8FB01F050FEC0B2009094
:1078300033462A4649464046FFF776FE03B0BDEC84
:10784000048BBDE8F08379EE088AE9EE488A80E788
:1078500011EE104A11EE106AC7E700BFAFF30080C7
:10786000555555555555D53F0000000000E06F4077
:107870000000F03F08B5024B1B689B68019308BDF0
:107880006802030008B5024B1B68DB68019308BD62
:107890006802030008B5024B1B685B68019308BDD2
:1078A0002C02030008B5024B1B689B68019308BDBE
:1078B0002C02030008B5024B1B68DB68019308BD6E
:1078C0002C02030008B5024B1B681B69019308BD1D
:1078D0002C02030008B5024B1B685B69019308BDCD
:1078E0002C02030008B5024B1B681B6A019308BDFC
:1078F0002C02030008B5024B1B685B6A019308BDAC
:107900002C02030008B5024B1B681B6B019308BDDA
:107910002C02030008B5024B1B68DB6C019308BD09
:107920002C02030008B5024B1B685B68019308BD7D
:107930001802030008B5024B1B68DB68019308BD01
:107940001802030008B5024B1B685B69019308BD70
:107950001802030008B5024B1B689B6A019308BD1F
:107960001802030008B5024B1B68DB6A019308BDCF
:107970001802030008B5024B1B689B6C019308BDFD
:107980001802030008B5024B1B685B6C019308BD2D
:107990004802030008B5024B1B685B69019308BDF0
:1079A0006402030008B5024B1B68DB68019308BD45
:1079B0003C02030008B5024B1B681B69019308BD1C
:1079C0003C02030008B5024B1B685B69019308BDCC
:1079D0003C02030008B5024B1B689B69019308BD7C
:1079E0003C02030008B5024B1B68DB69019308BD2C
:1079F0003C02030008B5024B1B681B6A019308BDDB
:107A00003C02030008B5024B1B689B6A019308BD4A
:107A10003C02030008B5024B1B681B6C019308BDB8
:107A20003C02030008B5024B1B681B68019308BDAC
:107A30002802030008B5024B1B68DB68019308BDF0
:107A40002802030008B5024B1B689B69019308BD1F
:107A50002802030008B5024B1B68DB69019308BDCF
:107A60002802030008B5024B1B681B6A019308BD7E
:107A70002802030008B5024B1B685B6A019308BD2E
:107A80002802030008B5024B1B689B6A019308BDDE
:107A90002802030008B5024B1B68DB6A019308BD8E
:107AA0002802030008B5024B1B681B6B019308BD3D
:107AB0002802030008B5024B1B685B6B019308BDED
:107AC0002802030008B5024B1B681B6C019308BD1C
:107AD0002802030008B5024B1B681B68019308BD10
:107AE0003002030008B5024B1B685B69019308BDB7
:107AF0003002030008B5024B1B68DB69019308BD27
:107B00003002030008B5024B1B681B6A019308BDD5
:107B10003002030008B5024B1B685B6A019308BD85
:107B20003002030008B5024B1B68DB6B019308BDF4
:107B30003002030008B5024B1B681B6C019308BDA3
:107B40003002030008B5024B1B685B6C019308BD53
:107B50003002030008B5024B1B681B68019308BD87
:107B60004C02030008B5024B1B685B68019308BD1B
:107B70004C02030008B5024B1B681B69019308BD4A
:107B80004C02030008B5024B1B685B69019308BDFA
:107B90004C02030008B5024B1B689B69019308BDAA
:107BA0004C02030008B5024B1B68DB69019308BD5A
:107BB0004C02030008B5024B1B681B6A019308BD09
:107BC0004C02030008B5024B1B685B6B019308BDB8
:107BD0006002030008B5024B1B685B68019308BD97
:107BE0002002030008B5024B1B685B69019308BDC6
:107BF0002002030008B5034B1B68D3F888300193BB
:107C000008BD00002002030008B5034B1B68D3F831
:107C10009430019308BD00002002030008B5024B18
:107C20001B685B68019308BD4002030008B5024B66
:107C30001B689B68019308BD4002030008B5024B16
:107C40001B68DB68019308BD4002030008B5024BC6
:107C50001B681B69019308BD4002030008B5024B75
:107C60001B685B69019308BD4002030008B5024B25
:107C70001B689B69019308BD4002030008B5024BD5
:107C80001B68DB69019308BD4002030008B5024B85
:107C90001B681B6A019308BD4002030008B5024B34
:107CA0001B681B6B019308BD4002030008B5024B23
:107CB0001B685B6B019308BD4002030008B5024BD3
:107CC0001B681B6C019308BD4002030008B5024B02
:107CD0001B685B6C019308BD4002030008B5024BB2
:107CE0001B68DB6B019308BD4402030008B5024B1F
:107CF0001B685B6C019308BD4402030008B5024B8E
:107D00001B681B68019308BD1C02030008B5024BE9
:107D10001B685B68019308BD1C02030008B5024B99
:107D20001B689B68019308BD1C02030008B5024B49
:107D30001B68DB69019308BD1C02030008B5024BF8
:107D40001B685B6A019308BD1C02030008B5024B67
:107D50001B681B6B019308BD1C02030008B5024B96
:107D60001B681B6C019308BD1C02030008B5024B85
:107D70001B685B6C019308BD1C0203000022406875
:107D80001146FFF783BF002240681146FFF78EBF00
:107D900040680022FFF782BF4068002281F00101A5
:107DA000FFF76CBF002340681A461946FFF75EBF15
:107DB000002340681A461946FFF750BF002240686A
:107DC0001146FFF743BF002240681146FFF72EBF60
:107DD000406800220221FFF731BF002340681A46A5
:107DE000FFF71CBF024B03225A60024A1A60704719
:107DF000BCE60320A4AB0B000021FFF7A3BE0021CB
:107E0000FFF798BE10B5044608462170FFF772FED2
:107E100000236360204610BD13B504460078FFF7C9
:107E2000EEFF58B9207801904FF6FF71FFF752FE30
:107E3000019802B0BDE81040FFF7DEBF02B010BDF0
:107E40000078FFF7D9BF0000400830B51860002463
:107E500018688842E5B206D90134082C02D04008DF
:107E60001860F5E70725024B5B5D137030BD00BF5E
:107E7000D8AB0B002DE9F04306468FB000780C46D6
:107E8000FFF7BDFF00281BDB35781422002109A86D
:107E900001F0A8FB0B23002209A92846ADF82430E5
:107EA000FFF738FE9DF82D3013B19DF82C5055B1D9
:107EB0000027B946B846012523795DB1C3B100203A
:107EC0000FB0BDE8F083DDF830809DF834909DF868
:107ED0003570F1E7002B35D1A368434508D18DF803
:107EE00020908DF82170BDF82020A3899A42E6D019
:107EF0000023A1688DF80F300A9804AB0DF10F0232
:107F0000FFF7A2FF217985B989B9A36843450ED34C
:107F10008DF820908DF82170BDF82020A3899A4219
:107F200005D1049B434502D1C9E70029F9D10023BB
:107F30000193637B00939DF80F20237B3078FFF73C
:107F4000F1FDBCE7CDE900552B462A460121F5E7B6
:107F500008B50078FFF7C6FDC0B208BD054B022288
:107F60001A60054B054A9A600020C3E90000FFF73C
:107F700031BE00BFD0E60320C4E603200000FFFFAF
:107F800010B5044601F07CFB0138231820468342DB
:107F900006D90278197800F8011B03F80129F6E7E1
:107FA00010BD70B50C46911E22291DD8254630B94A
:107FB000234430229D4210D205F8012BFAE7B0FB92
:107FC000F2F602FB1600C1B2092894BF30315731D6
:107FD000C9B205F8011B3046E9E7002320462B70A3
:107FE000FFF7CEFF204670BD0020FCE738B5031E2A
:107FF0000C4615460EDAB3F1004F4FF02D0214BFB8
:108000005842184601230A702A461944FFF7C9FF4F
:10801000204638BD0123F9E710B504460068FFF794
:1080200075FE204610BD10B50446006808B1FFF784
:108030006DFE0023C4E90133236010BD38B504464A
:108040000D4600680131FFF769FE10B1C4E9000573
:10805000012038BD10B50368044623B143688B4244
:1080600001D3012010BD2046FFF7E8FF0028F9D01A
:10807000A368002BF5D122681370F2E737B50D46DF
:10808000114601920446FFF7E5FF019A28B9204600
:10809000FFF7C9FF204603B030BDA2602946206823
:1080A00001F092FA2268A3680021D154F2E700237C
:1080B00013B5C0E9003304468360037341B1084639
:1080C000019101F0DDFA019902462046FFF7D6FF43
:1080D000204602B010BD884210B5044605D00B689A
:1080E0002BB18A681946FFF7C9FF204610BDFFF77C
:1080F0009AFFFAE710B500230446C0E90033836015
:108100000373FFF7E8FF204610BD13B5044659B1CD
:108110000846019101F0B4FA019902462046FFF7A2
:10812000ADFF204602B010BDFFF77DFFF9E710B5A7
:1081300004468AB00023C4E90033A36023730846D1
:1081400001A9FFF753FF01A92046FFF7DEFF2046F4
:108150000AB010BD70B505460E4609B9002070BDC5
:108160006AB1846814442146FFF774FF0028F5D0F3
:108170002868AB683146184401F07AFAAC600120F7
:10818000EDE710B58A6809680446FFF7E3FF10B908
:108190002046FFF748FF204610BD13B5044629B915
:1081A0002046FFF740FF204602B010BD084601916F
:1081B00001F066FA019902462046FFF7CBFF00283E
:1081C000EED0F0E7024800230360FFF7DBBB00BFFF
:1081D000D4E60320F8B506460D468F180024BD42AC
:1081E0000CD0336815F8011B9B6830469847031E76
:1081F00001DB1C44F3E7002C08BF1C462046F8BDF9
:1082000013B50446084659B1019101F039FA2368C3
:108210000199DB680246204602B0BDE810401847CD
:1082200002B010BD08B5FFF7EBFF08BD03689B68FF
:10823000184738B50D210546FFF7F8FF0A21044617
:108240002846FFF7F3FF204438BD38B50546FFF751
:10825000D7FF04462846FFF7ECFF204438BD30B571
:108260008BB00023012A8DF8243098BF0A2209AC74
:108270000D46B1FBF2F101FB125303F0FF03092B92
:1082800094BF30333733DBB2AA4204F8013DEFD953
:108290002146FFF7B5FF0BB030BD2DE9F04186B0A8
:1082A00000AF05460E46381D142114463B60FFF70B
:1082B00045FD13280ED8391D2846FFF7A1FF0446B7
:1082C0001EB12846FFF7B5FF044420461837BD46C7
:1082D000BDE8F08100F1080323F00703E846ADEBA9
:1082E000030D2246411C3B686846FFF727FD69469F
:1082F0002846FFF785FF0446C546E1E7014B024AE1
:108300001A607047D8E60320E0AB0B00024B1A68F6
:10831000024B1A60704700BF58DF0320DCE60320E1
:108320000021FFF75FBC0000014B00229A607047FC
:10833000E0E60320014B1860704700BF5CDF0320BC
:1083400008B50B4B43B100F081F903681B699847EE
:10835000002801DDAFF30080064B43B100F0E8FBDD
:1083600003681B699847002801DDAFF3008008BD52
:10837000000000000000000008B5FFF7E1FFFFF774
:10838000E1FA014B186008BD38E703200548064AAA
:10839000064908B5121A01F017F9054B054A1A608B
:1083A00008BD00BF00F4032004F4032074AE0B00EA
:1083B00000F403201E1C279A07B5002300931A46D9
:1083C0006FF07701FFF720FC03B05DF804FB0000BD
:1083D00007B543880A2B08D0502B0BD1094B1B68DB
:1083E0004BB103B05DF804EB1847FFF7E5FF03B0AE
:1083F0005DF804FB002300931A466FF07701FFF746
:1084000003FCF4E7F4E6032010B512480021FFF75F
:10841000ADFC114B1A68114B9A42114B0CBF012253
:1084200000221A7001D0FFF7B1FFFFF77BFA044674
:1084300001F0F0F80B4B13B12046AFF300800021A0
:108440000848FFF74BFCBDE8104007480021FFF744
:10845000D1BB00BF35830B0000F403201E1C279AFC
:10846000F0E6032000000000D1830B001FB50C23B1
:10847000ADF8043003688DF80630037A8DF80730C4
:10848000436802930021437AADF80D1001A88DF8DE
:108490000F108DF80C30FFF729FC05B05DF804FBD8
:1084A000704710B518210446FBF7F7FD204610BDB4
:1084B000F0B5037D062B8DB00E4600F104074FF09A
:1084C000000412D000F1080515F8011D0A223046FB
:1084D000FFF7C5FEAF42044419D0002CF4D02E2182
:1084E0003046FFF7A3FE0444EEE72F236A463946E1
:1084F0000A208DF80040FFF74DFA684601F0C0F8F9
:1085000033680246DB686946304698470446204691
:108510000DB0F0BD10B5054B0446112240F8043BE8
:10852000002101F05FF8204610BD00BF08AC0B0031
:108530000346074A10B543F8042B01F1100251F825
:10854000044B43F8044B9142F9D10A781A7010BDDC
:1085500008AC0B0010B59DF8084044EA032343EA39
:10856000024242EA016104234160037510BD00002C
:1085700007B5064B0360CB7800938B784A7809786F
:10858000FFF7E8FF03B05DF804FB00BF08AC0B0089
:10859000417470477047704708B50021007CFFF7B1
:1085A000F9FA40EAE07008BD08B50121007CFFF748
:1085B000F1FA40EAE07008BD08B5007CFFF7E2FA86
:1085C00020EAE07008BD08B5007CFFF7D3FA20EA86
:1085D000E07008BD13B50446007C0191FFF7D2FAA4
:1085E0000028019901DC607C20B1207CFFF7DAFAD9
:1085F00020EAE07002B010BD007CFFF7DBBA10B5D6
:1086000014210446FBF749FD204610BD10B54FF478
:108610007A73044608460021C4E90113044B236021
:108620000123207463741146FFF794FA204610BDAD
:108630001CAC0B00007C0022FFF794BA10B514228A
:108640000446002100F0CEFF204610BD10B50F4CAF
:1086500088B003A8FFF7F2FF2178BFF35B8F11F01A
:1086600001010FD120460191FBF726FD019948B188
:1086700003AA0748FFF7CAFF2046FBF722FD05487B
:1086800000F094FF024808B010BD00BFF8E60320D8
:10869000FCE6032095850B00FFF72CB9FFF722B904
:1086A00070474174704708B5007CFFF7ABF920EACA
:1086B000E07008BD08B5007CFFF77CF920EAE070A7
:1086C00008BD08B5007CFFF785F940EAE07008BDF9
:1086D00008B5007CFFF776F940EAE07008BD007C41
:1086E000FFF780B937B5457C04462DB1207C03B037
:1086F000BDE83040FFF756B9007C0191FFF782F9E1
:1087000000280199F2DC284603B030BD10B51421D1
:108710000446FBF7C2FC204610BD000010B54FF424
:108720007A730446084611460022C4E90123044B2B
:108730002360012320746374FFF76CF9204610BD99
:108740004CAC0B007047F8B5064615460C468F1822
:10875000BC4206D0336814F8011B9B68304698472A
:10876000F6E72846F8BD007C0022FFF77BB9007CC5
:108770000021FFF77FB9007C0021FFF783B9007C5F
:108780000021FFF787B9007C0021FFF78BB910B5F6
:1087900014210446FBF781FC204610BD10B54FF4B0
:1087A0007A73044608460021C4E90113034B236091
:1087B00020741146FFF786F9204610BD7CAC0B00F3
:1087C000007C0022FFF72EB90023007C1A461946D0
:1087D000FFF730B9007C0022FFF734B9C9B2FFF7C8
:1087E000F9BF007C0022FFF735B90121FFF7F9BF7F
:1087F000002240681146FFF729BA0022406811465E
:10880000FFF744BA002240681146FFF74FBA4068AC
:108810000022FFF743BA4068002281F00101FFF710
:108820002DBA002340681A461946FFF71FBA0023E5
:1088300040681A461946FFF711BA002240681146EF
:10884000FFF7F4B9406800220221FFF7F7B90023CF
:1088500040681A46FFF7E2B9024B04225A60024A06
:108860001A60704710E70320A4AC0B000023406897
:108870001A46FFF7D3B9406800220221FFF7DEB99C
:10888000002240681146FFF7D1B900224068114626
:10889000FFF7DCB9002340681A461946FFF7DEB936
:1088A000002340681A461946FFF7E0B940680021E6
:1088B000FFF704BA40680021FFF708BA40680022B9
:1088C00081F00101FFF7DAB940680022FFF7E6B94D
:1088D000002240681146FFF7E9B9002240681146BE
:1088E000FFF7D4B92DE9F04395B014460D4607467D
:1088F000FFF710FE00211C220DA8009100F072FE6F
:1089000040230C9320466B460CAA0021FEF7BAFFC9
:10891000044600284BD1024601216868FFF796F90A
:108920000221804622466868FFF790F9009E814642
:108930002146002E3BD0002939D17368022B03D089
:108940000A2B11D0F669F4E7B8F1000FFAD071697B
:1089500006A8043107ADFFF70BFE0FCD3C1D0FC479
:108960002B6823704146EDE7B9F1000FEAD0746936
:10897000102201A800F036FE06238DF8143001AD58
:1089800004F108031834186859682A4603C20833EA
:10899000A3421546F7D101A906A807ADFFF7C8FD08
:1089A0000FCD3C1D0FC42B6823704946CAE70098C1
:1089B000FEF760FF384615B0BDE8F083024B034A6E
:1089C0001A6000225A60704718E70320E0AC0B00E1
:1089D000232813B502D9002002B010BDA0F10B036B
:1089E000022B1AD8174C2178BFF35B8F11F00101CD
:1089F0000BD120460191FBF75FFB019928B112488A
:108A0000FFF700FA2046FBF75CFB0F4B1878FFF7E7
:108A100079F80028DFD10120DEE7012809D800F02D
:108A2000D9F80021007CFFF745F880F00100C0B2C2
:108A3000D2E709380128EED800F07AF8007CFEF77A
:108A4000D9FFF2E7C4DF0320C8DF0320232838B5AD
:108A500004460D460AD8FF2908D0FFF7B9FF28B110
:108A600029462046BDE83840FEF71CBF38BD38B562
:108A700004460D46FEF71EFFFF2810D0062804D836
:108A80004D2323FA00F0C30709D42046FFF7A0FFC7
:108A900028B129462046BDE83840FEF713BF38BD4F
:108AA00010B50446FEF706FF031FDBB2012B08D901
:108AB0002046FFF78DFF20B12046BDE81040FEF7AD
:108AC00009BF002010BD0D2810B504469CBF0E3410
:108AD000A4B22046FFF77CFF50B103212046FEF7E9
:108AE000D9FE032804D12046BDE81040FEF70ABF96
:108AF000002010BDFEF70EBF7047000038B50446D9
:108B000014252A46002100F06DFD258040250749E7
:108B100025812846258200F081F8044960602846B6
:108B200000F07CF8E060204638BD00BF14AD0B00BB
:108B300030B50E4D2978BFF35B8F11F0010487B07B
:108B400011D12846FBF7B8FA68B101A8FFF7D6FFA4
:108B500001AA21460648FFF7E1FD2846FBF7B1FAD6
:108B6000044800F023FD024807B030BD20E7032091
:108B700024E70320F98A0B0010B5084C2378BFF3D3
:108B80005B8FDB0708D42046FBF796FA20B1FEF78F
:108B9000E1FE2046FBF795FA014810BD3CE70320B3
:108BA00040E703207047000038B520251423044611
:108BB0000360856005610649284600F02FF80449E6
:108BC0006060284600F02AF8E060204638BD00BF0B
:108BD00014AD0B0030B50E4D2978BFF35B8F11F04B
:108BE000010487B011D12846FBF766FA68B101A8E5
:108BF000FFF7DAFF01AA21460648FFF7CFFD284616
:108C0000FBF75FFA044800F0D1FC024807B030BD22
:108C100044E7032048E70320A58B0B00FBF73BBA92
:108C200081F0004102E000BF83F0004330B54FEA1D
:108C300041044FEA430594EA050F08BF90EA020F8A
:108C40001FBF54EA000C55EA020C7FEA645C7FEA1D
:108C5000655C00F0E2804FEA5454D4EB5555B8BF40
:108C60006D420CDD2C4480EA020281EA030382EAB1
:108C7000000083EA010180EA020281EA0303362D43
:108C800088BF30BD11F0004F4FEA01314FF4801C16
:108C90004CEA113102D0404261EB410113F0004F28
:108CA0004FEA03334CEA133302D0524263EB4303DF
:108CB00094EA050F00F0A780A4F10104D5F1200E7D
:108CC0000DDB02FA0EFC22FA05F2801841F10001D8
:108CD00003FA0EF2801843FA05F359410EE0A5F1AC
:108CE00020050EF1200E012A03FA0EFC28BF4CF0DD
:108CF000020C43FA05F3C01851EBE37101F0004593
:108D000007D54FF0000EDCF1000C7EEB00006EEB9F
:108D10000101B1F5801F1BD3B1F5001F0CD3490829
:108D20005FEA30004FEA3C0C04F101044FEA445280
:108D300012F5800F80F09A80BCF1004F08BF5FEA07
:108D4000500C50F1000041EB045141EA050130BDE7
:108D50005FEA4C0C404141EB0101013C28BFB1F5F9
:108D6000801FE9D291F0000F04BF01460020B1FA44
:108D700081F308BF2033A3F10B03B3F120020CDA17
:108D80000C3208DD02F1140CC2F10C0201FA0CF0F5
:108D900021FA02F10CE002F11402D8BFC2F1200C5A
:108DA00001FA02F120FA0CFCDCBF41EA0C01904010
:108DB000E41AA2BF01EB0451294330BD6FEA040459
:108DC0001F3C1CDA0C340EDC04F11404C4F1200244
:108DD00020FA04F001FA02F340EA030021FA04F356
:108DE00045EA030130BDC4F10C04C4F1200220FAAD
:108DF00002F001FA04F340EA0300294630BD21FAEB
:108E000004F0294630BD94F0000F83F4801306BFB0
:108E100081F480110134013D4EE77FEA645C18BFA4
:108E20007FEA655C29D094EA050F08BF90EA020F3B
:108E300005D054EA000C04BF1946104630BD91EA33
:108E4000030F1EBF0021002030BD5FEA545C05D136
:108E50004000494128BF41F0004130BD14F5800475
:108E60003CBF01F5801130BD01F0004545F0FE41E9
:108E700041F470014FF0000030BD7FEA645C1ABF1E
:108E8000194610467FEA655C1CBF0B46024650EA55
:108E9000013406BF52EA033591EA030F41F4002181
:108EA00030BD00BF90F0000F04BF0021704730B507
:108EB0004FF4806404F132044FF000054FF00001DC
:108EC00050E700BF90F0000F04BF0021704730B59D
:108ED0004FF4806404F1320410F0004548BF404272
:108EE0004FF000013EE700BF42004FEAE2014FEAC7
:108EF00031014FEA02701FBF12F07F4393F07F4FA2
:108F000081F06051704732F07F4208BF704793F0A4
:108F10007F4F04BF41F40021704730B54FF46074B7
:108F200001F0004521F000411CE700BF50EA0102BA
:108F300008BF704730B54FF000050AE050EA010263
:108F400008BF704730B511F0004502D5404261EBD3
:108F500041014FF4806404F132045FEA915C3FF414
:108F6000D8AE4FF003025FEADC0C18BF03325FEAB1
:108F7000DC0C18BF033202EBDC02C2F1200300FA62
:108F800003FC20FA02F001FA03FE40EA0E0021FA87
:108F900002F11444BDE600BF70B54FF0FF0C4CF475
:108FA000E06C1CEA11541DBF1CEA135594EA0C0F27
:108FB00095EA0C0F00F0DEF82C4481EA030621EA62
:108FC0004C5123EA4C5350EA013518BF52EA03359D
:108FD00041F4801143F4801338D0A0FB02CE4FF04F
:108FE0000005E1FB02E506F00042E0FB03E54FF07F
:108FF0000006E1FB03569CF0000F18BF4EF0010E77
:10900000A4F1FF04B6F5007F64F5407404D25FEA72
:109010004E0E6D4146EB060642EAC62141EA555125
:109020004FEAC52040EA5E504FEACE2EB4F1FD0C67
:1090300088BFBCF5E06F1ED8BEF1004F08BF5FEAE5
:10904000500E50F1000041EB045170BD06F0004697
:1090500046EA010140EA020081EA0301B4EB5C0444
:10906000C2BFD4EB0C0541EA045170BD41F480113C
:109070004FF0000E013C00F3AB8014F1360FDEBF61
:10908000002001F0004170BDC4F10004203C35DA3D
:109090000C341BDC04F11404C4F1200500FA05F3C0
:1090A00020FA04F001FA05F240EA020001F0004261
:1090B00021F0004110EBD37021FA04F642EB0601D7
:1090C0005EEA430E08BF20EAD37070BDC4F10C0401
:1090D000C4F1200500FA04F320FA05F001FA04F2C5
:1090E00040EA020001F0004110EBD37041F10001B1
:1090F0005EEA430E08BF20EAD37070BDC4F12005BC
:1091000000FA05F24EEA020E20FA04F301FA05F223
:1091100043EA020321FA04F001F0004121FA04F2CB
:1091200020EA020000EBD3705EEA430E08BF20EA9B
:10913000D37070BD94F0000F0FD101F000464000D5
:1091400041EB010111F4801F08BF013CF7D041EA57
:10915000060195F0000F18BF704703F0004652005B
:1091600043EB030313F4801F08BF013DF7D043EA2C
:109170000603704794EA0C0F0CEA135518BF95EAE2
:109180000C0F0CD050EA410618BF52EA4306D1D169
:1091900081EA030101F000414FF0000070BD50EA88
:1091A000410606BF1046194652EA430619D094EA12
:1091B0000C0F02D150EA013613D195EA0C0F05D1FC
:1091C00052EA03361CBF104619460AD181EA030150
:1091D00001F0004141F0FE4141F470014FF0000008
:1091E00070BD41F0FE4141F4780170BD70B54FF0A3
:1091F000FF0C4CF4E06C1CEA11541DBF1CEA135523
:1092000094EA0C0F95EA0C0F00F0A7F8A4EB050404
:1092100081EA030E52EA03354FEA013100F08880FB
:109220004FEA03334FF0805545EA131343EA1263C4
:109230004FEA022245EA111545EA10654FEA002679
:109240000EF000419D4208BF964244F1FD0404F532
:10925000407402D25B084FEA3202B61A65EB03058E
:109260005B084FEA32024FF480104FF4002CB6EB4B
:10927000020E75EB030E22BFB61A754640EA0C00CB
:109280005B084FEA3202B6EB020E75EB030E22BF0B
:10929000B61A754640EA5C005B084FEA3202B6EB4C
:1092A000020E75EB030E22BFB61A754640EA9C000B
:1092B0005B084FEA3202B6EB020E75EB030E22BFDB
:1092C000B61A754640EADC0055EA060E18D04FEA99
:1092D000051545EA16754FEA06164FEAC30343EA39
:1092E00052734FEAC2025FEA1C1CC0D111F4801F06
:1092F0000BD141EA00014FF000004FF0004CB6E7FF
:1093000011F4801F04BF01430020B4F1FD0C88BF9D
:10931000BCF5E06F3FF6AFAEB5EB030C04BFB6EBA8
:10932000020C5FEA500C50F1000041EB045170BD9B
:109330000EF0004E4EEA113114EB5C04C2BFD4EBC8
:109340000C0541EA045170BD41F480114FF0000E4C
:10935000013C90E645EA060E8DE60CEA135594EAC8
:109360000C0F08BF95EA0C0F3FF43BAF94EA0C0FCB
:109370000AD150EA01347FF434AF95EA0C0F7FF440
:1093800025AF104619462CE795EA0C0F06D152EA94
:1093900003353FF4FDAE1046194622E750EA410678
:1093A00018BF52EA43067FF4C5AE50EA41047FF489
:1093B0000DAF52EA43057FF4EBAE12E74FF0FF3CEE
:1093C00006E000BF4FF0010C02E000BF4FF0010CBF
:1093D0004DF804CD4FEA410C7FEA6C5C4FEA430C38
:1093E00018BF7FEA6C5C1BD001B050EA410C0CBF87
:1093F00052EA430C91EA030F02BF90EA020F0020E9
:10940000704710F1000F91EA030F58BF994208BF4F
:1094100090422CBFD8176FEAE37040F0010070470C
:109420004FEA410C7FEA6C5C02D150EA013C07D163
:109430004FEA430C7FEA6C5CD6D152EA033CD3D0AE
:109440005DF8040B704700BF8446104662468C46A8
:109450001946634600E000BF01B5FFF7B7FF0028DB
:1094600048BF10F1000F01BD4DF808EDFFF7F4FF04
:109470000CBF012000205DF808FB00BF4DF808ED8F
:10948000FFF7EAFF34BF012000205DF808FB00BFB2
:109490004DF808EDFFF7E0FF94BF012000205DF8D4
:1094A00008FB00BF4DF808EDFFF7CEFF94BF012089
:1094B00000205DF808FB00BF4DF808EDFFF7C4FF82
:1094C00034BF012000205DF808FB00BF4A0011D224
:1094D00012F5001211D20DD56FF47873B3EB62520E
:1094E0000ED44FEAC12343F0004343EA505323FA1A
:1094F00002F070474FF00000704750EA013002D18F
:109500004FF0FF3070474FF0000070474FEA4102C4
:10951000B2F1E04324BFB3F5001CDCF1FE5C0DD9D1
:1095200001F0004C4FEAC0024CEA5070B2F1004F1B
:1095300040EB830008BF20F00100704711F0804F1E
:1095400021D113F13872BCBF01F00040704741F4E3
:1095500080114FEA5252C2F11802C2F1200C10FAE7
:109560000CF320FA02F018BF40F001004FEAC123CB
:109570004FEAD32303FA0CFC40EA0C0023FA02F36F
:109580004FEA4303CCE77FEA625307D150EA013345
:109590001EBF4FF0FE4040F44000704701F0004015
:1095A00040F0FE4040F40000704700BF0023014639
:1095B0001A46184600F0C8B8024B0A460146186819
:1095C00000F018B85CDF03200A44914200F1FF3339
:1095D00000D1704710B511F8014B03F8014F9142CB
:1095E000F9D110BD02440346934200D1704703F8FD
:1095F000011BF9E713B54A4311460192FEF7A6FB9A
:10960000044618B1019A0021FFF7ECFF204602B092
:1096100010BD000038B5104B1D68AB6B0446B3B9E4
:109620001820FEF76BFB0246A86320B90B4B0C48D1
:109630004221FEF793FB0B490B4BC0E900130B4B88
:1096400083600B23838100210120C2E90401AB6BFD
:1096500000221C615A6138BD5CDF032015AD0B0090
:109660002CAD0B000E33CDAB34126DE6ECDE0500F5
:10967000034611F8012B03F8012B002AF9D170479A
:10968000034613F8012B002AFBD1181A0138704742
:10969000164B73B51E68B46D0546FCB95020019198
:1096A000FEF72CFB0199B065024620B9104B11481A
:1096B0005721FEF753FBC0E90044C0E90244C0E96A
:1096C0000444C0E90A44C0E90C44C0E90E44C0E9BE
:1096D0001044C0E91244846104774462B26D0123EE
:1096E000284602B0BDE8704000F006B85CDF0320F9
:1096F00015AD0B00A9AD0B00F0B508B9106888B125
:109700000446204614F8015B0F4617F8016B1EB99A
:1097100065B91560284605E0B542F6D1002BF0D1B9
:1097200014600370F0BD1C460CE015B914F8013B41
:109730000E4616F8015BAB42F7D1002BF3D00023A5
:1097400004F8013C1460EDE72DE9F843DFF8B88038
:109750000646D8F800001F460D46914600F056F820
:10976000254B1C6834B9254C1C60254B13B11B6874
:10977000C4F8883063681F2B07DDD8F8000000F0BC
:1097800047F84FF0FF30BDE8F8834EB3D4F88800B7
:1097900088B91C4B23B9D8F8000000F038F8F0E77E
:1097A0004FF48470FEF7AAFA0028F4D00023C0E931
:1097B0004033C4F88800636840F8239001229A403F
:1097C00000EB8301D0F800311343C0F80031022EC2
:1097D000C1F8807002BFD0F804311343C0F80431DF
:1097E0006368D8F800005A1C0233626044F82350C2
:1097F00000F00EF80020C6E7E8E703205CE703204E
:1098000000000000FD7C0B00C0DF032070477047A4
:109810007047000021400B005D400B0085400B00AD
:1098200089400B000000000043616C6C206F6E20CB
:1098300070757265207669727475616C004E6F2068
:1098400065732076616C69646F0054656D703A20B1
:10985000256600496E76616C696453656E736F723C
:109860004572726F72004163747561646F72205249
:109870004742004163747561646F72205A756D626E
:1098800061646F720053656E736F72206465204C63
:10989000757A0053656E736F722064652052756926
:1098A000646F0053656E736F7220426F746F6E0049
:1098B00053656E736F7220526F74617469766F00B6
:1098C00020410020440053656E736F7220506F6317
:1098D000612044697374616E6369610053656E73DE
:1098E0006F72204D756368612044697374616E63A3
:1098F0006961004F4C45443A2053656E736F722086
:109900004C757A202D3E2025640053656E736F726E
:10991000204E6F204C757A0053656E736F72205322
:1099200069204C757A0053656E736F72204E6F20FC
:10993000527569646F0053656E736F7220536920AE
:10994000527569646F0053656E736F72204E6F209D
:10995000426F746F6E0053656E736F72205369208F
:10996000426F746F6E0053656E736F72204E6F207E
:10997000526F74617469766F0053656E736F7220F5
:10998000536920526F74617469766F0053656E730A
:109990006F722054656D702E4672696F0053656E4C
:1099A000736F722054656D702E54656D706C6164B8
:1099B0006F0053656E736F722054656D702E436136
:1099C0006C6F720053656E736F72204469737461BB
:1099D0006E6369612043657263610053656E736FE6
:1099E000722044697374616E636961204C656A6FAB
:1099F000730053656E736F724E6F56616C69646F5E
:109A00004572726F7200524742205665726465005B
:109A100052474220526F6A6F0052474220416D61A7
:109A200072696C6C6F00524742204D6F7261646FB7
:109A30000052474220417A756C00524742204E61E5
:109A400072616E6A610052474220426C696E6B001F
:109A5000524742205261696E626F77005A756D629B
:109A600061646F72204F6E2D4F6666005A756D628D
:109A700061646F7220426C696E6B00416374756142
:109A8000646F724E6F56616C69646F4572726F726B
:109A9000004D49464152455F526561642829206660
:109AA00061696C65643A20005043445F4175746895
:109AB000656E7469636174652829206661696C65E7
:109AC000643A2000546167496E666F3A202573003E
:109AD000436F6E656374617220616C20707565728E
