:02000002B0004C
:1040000000400B00E8C80B00000006000C00050291
:084010000401E50C00000000B2
:044018005CA90B0094
:1040200009480A49884208B505D0094A824202D0A7
:10403000121A06F06DFB0748074A0021121A06F013
:1040400075FB014808BD00BF7CCC032008C80B00ED
:1040500034CD032034CD0320EDE7032070B5074EA7
:10406000074C05F00DFAA41BA4080025AC4200D1B2
:1040700070BD56F8043B98470135F7E7B4C70B000D
:10408000D8C70B0001F0A0B908B501F04BFABDE8A4
:10409000084005F0ADB904F089BD04F08FBD000003
:1040A00008B5034A03490C2004F0E4FCFEE700BF16
:1040B000C5870B0070A90B000078B0FA80F04009AA
:1040C0007047012303707047084A00231370084AA1
:1040D0001370084A1370084A4FF0FF311160074A05
:1040E00003211160064A1360704700BF41CD0320D1
:1040F00050CD032040CD0320A4CC0320A8CC032026
:1041000068DA03200EB403B503AB002153F8042B87
:10411000019305F0FDF802B05DF804EB03B07047C1
:104120000EB403B503AB012153F8042B019305F042
:10413000EFF802B05DF804EB03B0704707B5014635
:1041400001A803F0B9FC01A803F0B8FC09288CBF52
:104150000020012003B05DF804FB07B5014601A86B
:1041600003F0AAFC01A803F0A9FC0A28D4BF002090
:10417000012003B05DF804FB022808B50BD0042829
:104180000BD060B9132005F004FDB0F57A7FB4BF01
:104190000020012008BD1120F5E70F20F3E70020E3
:1041A000F8E7022808B50BD004280BD060B913201B
:1041B00005F0EFFCB0F57A7FCCBF0020012008BDF0
:1041C0001120F5E70F20F3E70020F8E770B5202570
:1041D000002486B2304605F0DCFC013D0444F9D1F0
:1041E00005F070FA6411002C054610DA2D2104F058
:1041F00075FF61420A22284604F089FF284604F030
:1042000070FFB4F5FA7FD4BF0020012070BD2146B5
:10421000F0E708B580B205F0BCFCB0F52F7FCCBF4D
:104220000020012008BD07B580B20021019005F0F3
:1042300073FC019805F09AFC431E5842584103B0A4
:104240005DF804FB07B580B20021019005F064FC25
:10425000019805F08BFCB0FA80F0400903B05DF8DE
:1042600004FB000000000000022807B530D004283D
:1042700030D018B9132005F08CFC0190DDED017AE7
:10428000F8EEE77A17EE900A05F094FE14A3D3E94E
:10429000002305F0E7FE14A3D3E9002306F00CF891
:1042A00006F0D8F9DFED0C7A07EE100A67EE277AF0
:1042B000F1EE046A87EEA67ADFED087AB4EEE77ACB
:1042C000F1EE10FA94BF0120002003B05DF804FB6A
:1042D0001120D0E70F20CEE7000096430000B44342
:1042E0006666666666660A400000000000F88F4059
:1042F000022807B530D0042830D018B9132005F0B3
:1043000048FC0190DDED017AF8EEE77A17EE900AAD
:1043100005F050FE14A3D3E9002305F0A3FE14A377
:10432000D3E9002305F0C8FF06F094F9DFED0C7A1D
:1043300007EE100A67EE277AF1EE046A87EEA67A96
:10434000DFED087AB4EEE77AF1EE10FAACBF0120A7
:10435000002003B05DF804FB1120D0E70F20CEE76A
:10436000000096430000B4436666666666660A40CF
:104370000000000000F88F4000B52DED028B87B0E3
:10438000C1B206230B2201A803F0BCFB01A803F075
:10439000C0FB01A803F07AFCB5EE400AF1EE10FA7A
:1043A000B0EE408AF5D0B4EE400AF1EE10FAF0D645
:1043B00005F088F90121B0EE480A04F09AFFF3EE07
:1043C000007AB4EEE78AF1EE10FA94BF01200020E3
:1043D00007B0BDEC028B5DF804FB00B52DED028B40
:1043E00087B0C1B206230B2201A803F08BFB01A802
:1043F00003F08FFB01A803F049FCB5EE400AF1EE93
:1044000010FAB0EE408AF5D0B4EE400AF1EE10FAA0
:10441000F0D605F057F90121B0EE480A04F069FF23
:10442000F3EE007AB4EEE78AF1EE10FACCBF012089
:10443000002007B0BDEC028B5DF804FB08B5034615
:10444000013B1046062B3BD8DFE803F0040D161F96
:104450002831040019B9BDE80840FFF76FBEBDE878
:104460000840FFF77ABE19B9BDE80840FFF799BECA
:10447000BDE80840FFF780BE19B9BDE80840FFF766
:10448000C8BEBDE80840FFF7A1BE19B9BDE80840A5
:10449000FFF7D8BEBDE80840FFF7C5BE19B9BDE8B3
:1044A0000840FFF725BFBDE80840FFF7DDBE19B99A
:1044B000BDE80840FFF760BFBDE80840FFF78DBFCB
:1044C00005F000F9024904F018FE002008BD00BF05
:1044D00085A90B0007B50023044800931A46194626
:1044E00004F0AEF803B05DF804FB00BF18D703205A
:1044F00007B5002304480093FF22194604F0A0F8F2
:1045000003B05DF804FB00BF18D7032007B50A23EA
:10451000002200930348FF23114604F091F803B0F2
:104520005DF804FB18D7032007B5FF230093002391
:1045300003481A46194604F083F803B05DF804FBFB
:1045400018D7032007B5002104480091E923FF2272
:1045500004F076F803B05DF804FB00BF18D7032021
:1045600007B575230093044846236C22002104F00C
:1045700067F803B05DF804FB18D7032007B50021E6
:10458000044800918023FF2204F05AF803B05DF83C
:1045900004FB00BF18D7032007B5FF23044800938E
:1045A0001A46002104F04CF803B05DF804FB00BF8C
:1045B00018D7032010B5114C2368052B09D8DFE864
:1045C00003F0030D10131619FFF792FF2368013350
:1045D0002360BDE81040962004F0DEBEFFF7CEFF5A
:1045E000F4E7FFF7AFFFF1E7FFF790FFEEE7FFF724
:1045F000B7FFEBE7FFF798FF0023E9E770D303204D
:1046000008B50121062005F098FA0121062005F0E1
:1046100094FA0121072005F090FABDE80840012135
:10462000072005F08ABA08B50021062005F085FAB2
:104630000021062005F081FA0021072005F07DFA0F
:10464000BDE808400021072005F077BA08B5FFF75C
:10465000D7FF642004F0A0FEFFF7E5FFBDE80840A7
:10466000642004F099BE08B1FFF75EBFFFF786BF74
:1046700008B1FFF767BFFFF773BF08B1FFF746BF89
:10468000FFF736BF08B560B1FFF786FF4FF4C8707B
:1046900004F082FEFFF71EFFBDE80840C82004F0CA
:1046A0007BBEBDE80840FFF715BF08B1FFF774BF38
:1046B000FFF710BF08B1FFF77DBFFFF70BBF08B1D1
:1046C000FFF7C4BFFFF7AFBF08B1FFF799BFFFF710
:1046D000AABF0000034613B50C4610464BB1012B90
:1046E0002CD004F0EFFF1E4902B0BDE8104004F0EA
:1046F00004BD0529F5D8DFE801F003080D12171CE9
:1047000002B0BDE81040FFF7B8BF02B0BDE81040EE
:10471000FFF7AEBF02B0BDE81040FFF7A4BF02B084
:10472000BDE81040FFF7AEBF02B0BDE81040FFF794
:10473000C1BF02B0BDE81040FFF7B7BF0192FFF75D
:10474000C9FE019834B1012CCBD102B0BDE81040B4
:10475000FFF7B5BF02B0BDE81040FFF7B5BF00BF1F
:1047600098A90B0008B5FFF717FF4FF4C87004F0C5
:1047700013FEFFF7AFFEBDE80840C82004F00CBEF2
:1047800013B584B22046012105F0D7F92046012156
:1047900005F0D3F9601C80B20121019005F0CDF93C
:1047A0000198012102B0BDE8104005F0C6B913B56B
:1047B00084B22046002105F0C0F92046002105F012
:1047C000BCF9601C80B20021019005F0B6F9019897
:1047D000002102B0BDE8104005F0AFB910B50446A5
:1047E000FFF7CEFF642004F0D7FD2046FFF7DFFF80
:1047F000BDE81040642004F0CFBD000008B50828D3
:104800002AD8DFE800F005090D1115191D21250032
:10481000BDE80840FFF77ABEBDE80840FFF768BE74
:10482000BDE80840FFF78EBEBDE80840FFF798BE20
:10483000BDE80840FFF778BEBDE80840FFF79EBE20
:10484000BDE80840FFF78EBFBDE80840FFF7B2BEE5
:10485000BDE80840FFF73EBE04F034FFBDE8084065
:10486000014904F04ABC00BFA8A90B0038B50C46AA
:1048700005460121A0B205F04FF945B1012D0BD03D
:1048800004F020FFBDE83840064904F036BC20465D
:10489000BDE83840FFF774BF2046BDE83840FFF759
:1048A0009DBF00BF98A90B000B4608B9FFF712BEC9
:1048B000002198B205F041B90346012B0846114684
:1048C00004DC0BB9FFF79ABFFFF7D0BF70470000B9
:1048D000F0B54B4F85B0064638460C46154603F0FA
:1048E00043FB00233B61474B01221A7003F072FF28
:1048F000454B1860032E11D8DFE806F002285D7AD8
:10490000012C07D0022C07D044B94049404805F09B
:1049100053FF0CE03F49F9E73F49F7E73F493C487F
:1049200005F04AFF04F0CEFE3C4904F0E6FB04F03B
:10493000C9FE374904F0E1FB3549314804F0CAFBB0
:104940002F4805B0BDE8F04003F076BD062CE5D851
:10495000DFE804F004151B21272D2F0029466846A7
:1049600004F020FB2E49684604F06FFB02682848DB
:10497000402104F033F9684604F0A6FAD7E7294647
:10498000684604F00FFB2749EDE72946684604F026
:1049900009FB2549E7E72946684604F003FB23495C
:1049A000E1E72946684604F0FDFA2149DBE72149A1
:1049B000ACE72149AAE7062CB0D8DFE804F00406EA
:1049C000080A0C1517001D49A0E71D499EE71D495F
:1049D0009CE71D499AE71D49684604F0C0FA29463C
:1049E000684604F026FBC1E719498FE719498DE7AE
:1049F000002C93D12A680648402104F0EFF896E78E
:104A000078D3032051CD032058DC0320B7A90B0035
:104A10002DD30320C3A90B00D1A90B00DDA90B00E6
:104A2000F3A90B0008AA0B001DAA0B0033AA0B0068
:104A300045AA0B005DAA0B0070AA0B007DAA0B0013
:104A40009DAA0B00BDAA0B00D8AA0B00EDAA0B0073
:104A500000AB0B001EAB0B001FB5244B9B684BBB80
:104A6000022911D0042916D0E1B92149684604F081
:104A700076FA6A4603210120FFF72AFF684604F010
:104A800023FA05B05DF804FB1949684604F067FA9B
:104A90006A460421EFE71649684604F060FA6A4660
:104AA0000521E8E71249684604F059FA6A460321ED
:104AB0000220E1E704290AD006290FD0022968461E
:104AC0000B49F1D104F04BFA6A460021D3E70849BB
:104AD000684604F044FA6A460121CCE70449684676
:104AE00004F03DFA6A460221C5E700BFACCC0320C2
:104AF000AEAD0B0001280BD002280BD088B9094BB2
:104B00001860C3F84401084B1860084B18607047E0
:104B1000FFF7DABA064A00231360064A1370064A02
:104B20001360704754CD032058DA032050DA032075
:104B300060DA03202CD3032060DC032001287FB53A
:104B400003D002283CD004B070BD374B1C6874B948
:104B5000FFF7BAFA3549684604F001FA6A460021BF
:104B60000320FFF7B5FE684604F0AEF9EBE7012C31
:104B70001ED100221A602E492E4B0A701C702E4A3C
:104B80002E4B2F481C6013680068013304BF0323B9
:104B900013602C4B1968013104BF0621196011689C
:104BA000091A116028491A680968521A1A60D1E76F
:104BB00004F088FD254904B0BDE8704004F09DBABA
:104BC000234E244A34781368234D9CB1296801315F
:104BD0005B1A68462149136004F0C1F96A46002156
:104BE0000320FFF775FE684604F06EF9002333706A
:104BF0002B60A8E71A48591E50F8210002300CD14A
:104C0000184850F8211002315B1A144913606846A5
:104C100004F0A5F96A462146E2E704F053FD124983
:104C200004F06BFA1049F2E7A4CC03203EAB0B0072
:104C300041CD032050CD032068DA032050DA032051
:104C40006CDA0320A8CC032070DA03205AAB0B00E7
:104C50002CD3032060DA032060DC03206AAB0B0056
:104C600030D70320E8D3032084AB0B000E4A13682F
:104C7000013B13600D4A52F823108A1C0C4A07D1DD
:104C8000012111700B4A52F823200B4B1A60704718
:104C9000013102D100231370704713781BB1064A0B
:104CA0001368013B1360704760DA032030D703209C
:104CB0002CD30320E8D3032060DC032008B50728A9
:104CC00016D8DFE800F00407090B0D0F11130C4B89
:104CD000186808BD0B4BFBE70B4BF9E70B4BF7E7ED
:104CE0000B4BF5E70B4BF3E70B4BF1E70B4BEFE708
:104CF00004F0E8FC0A4904F000FA4FF0FF30E8E75E
:104D00007CCC032090CC03208CCC032084CC0320CB
:104D100098CC032088CC032094CC032080CC0320A3
:104D200095AB0B00022808B503D8064B33F91000E9
:104D300008BD04F0C7FC044904F0DFF94FF0FF3070
:104D4000F6E700BFDCB30B00A4AB0B0010B50446C4
:104D5000072919D8DFE801F0040A0C0E1012141606
:104D60000A49204604F0FBF8204610BD0849F8E740
:104D70000849F6E70849F4E70849F2E70849F0E787
:104D80000849EEE70849ECE70849EAE71AAA0B00E8
:104D9000B3AB0B00B6AB0B00B9AB0B00BCAB0B005D
:104DA000C0AB0B00C3AB0B00A2AC0B0095AB0B0070
:104DB000012910B5044607D0022907D041B9054999
:104DC00004F0CDF8204610BD0349F9E70349F7E7A1
:104DD0000349F5E7C6AB0B00C9AB0B00CCAB0B002E
:104DE000A4AB0B0013B50C46FFF768FF01902046FB
:104DF000FFF798FF019900220446062004F08CFC7E
:104E0000204604F0C9FA062004F09DFC1E2002B0E2
:104E1000BDE8104004F0C0BA2DE9FF471E4B1C78D6
:104E200034BBDFF88CA01D4E1D4FDAF80030A342D2
:104E30002FDD04F047FC57F8242056F82430194998
:104E4000FFF76EF957F82400421C05D156F824806C
:104E5000A14600250134E8E7831C04D10135A845AB
:104E6000C8BF4C46F6E756F82410FFF7BBFFF1E742
:104E700004F028FC0C4904F040F90C49684604F0A1
:104E80006EF802206A460421FFF722FD684604F00E
:104E90001BF804B0BDE8F0872CD30320E8D303202F
:104EA00030D70320CFAB0B00D7AB0B00AEAD0B0060
:104EB00060DA032010B50D4B1A680D4B4FF43B71AF
:104EC0004A4399581344002291420DDD5C688442A4
:104ED00003F1100306D104F0F5FB064904F00DF9C7
:104EE000002010BD0132EFE70120FAE7A4CC032037
:104EF00054CD0320FDAB0B00F0B5114B114A1E68D9
:104F0000944600239E4217DB1768154600218F4206
:104F10000EDD6C68844205F1100507D14FF43B7239
:104F2000534303EB011363441869F0BD0131EEE70D
:104F3000013302F53B72E5E74FF0FF30F5E700BFC4
:104F4000A4CC032054CD03202DE9F041194D1A4B78
:104F5000D5F844E11F6884462B460024A74223DB92
:104F600010D1D3F844811A460026B0450ADDD2F8A4
:104F70004C01604503D1D2F84801884217D0013670
:104F80001432F2E7012F0BD12E460022964507DDA1
:104F9000D6F84801884206F1140608D00132F5E738
:104FA000013403F53B73D9E70120BDE8F08100200F
:104FB000FBE700BF54CD0320A4CC0320F0B5134B76
:104FC000134A1E68944600239E421BDBD2F84471AC
:104FD000154600218F4211DDD5F84841844205F184
:104FE000140509D14FF43B725343142202FB0133E1
:104FF0006344D3F85401F0BD0131EBE7013302F50E
:105000003B72E1E74FF0FF30F5E700BFA4CC03208F
:1050100054CD032030B50C4B4FF43B7202FB0131F1
:105020000022D1F844411346944208DDD1F848519A
:10503000854201D12BB9012301321431F4E700205C
:1050400030BD1846FCE700BF54CD032084B0F8B54E
:1050500006AC84E80F00DDE907010A9AFFF7EEF9D4
:1050600006AD0446BCAF0126069BB34212DDD5E96E
:1050700005012A6AFFF7E2F917F8013B33B1002C6A
:1050800008BF0020013610350446EDE7002C18BF9C
:105090002046F7E72046BDE8F84004B0704700001E
:1050A0002DE9F743164C4FF43B7303FB01440746CD
:1050B0000D460026A146D9F84431B3421CDD94F8D0
:1050C0005831D4F84881D4F85421BB4207D1D4F8E0
:1050D0004C114046FFF7F0FB01361434EBE729464C
:1050E00040460192FFF796FF019A0028F4D111463D
:1050F0004046FFF7D9FBEFE703B0BDE8F08300BF00
:1051000054CD03201FB50446E0B904F0DBFA18497A
:1051100003F0F3FF174B18491C70684603F01FFF9C
:1051200003206A460021FFF7D3FB684603F0CCFE5C
:1051300004F088FD0F490122002004B0BDE81040B2
:1051400003F060BB012808D104F0BCFA0B4903F05E
:10515000D4FF084B0A491C70DFE70228E8D104F0AD
:10516000B1FA084903F0C9FF024B07491C70D4E7A4
:105170002DAC0B0042CD032043AC0B005CAC0B000C
:1051800074AC0B008FAC0B00A5AC0B0030B50378F2
:105190002D2B0CBF01220022134603440A240020B9
:1051A00013F8011B3039CDB2092D02D804FB0010D1
:1051B000F6E702B1404230BD38B514460D4605F061
:1051C0000BFB043C40B1FFF7E1FF294644F8040F14
:1051D000002005F001FBF5E738BD000037B58DF87C
:1051E00007200DF107030A4601460D480D4D02F058
:1051F000BFFA0128287010D004F064FA0A4903F0BD
:1052000069FF04F05FFA29780446054802F004F8C3
:105210000146204603F071FF002003B030BD00BFFF
:1052200020D703205CDC0320BEAC0B00F0B58DB0B2
:105230001E4D1F4A00951F4B12781F4F06466021D6
:10524000284602F0B6FA012838700FD004F03AFA76
:105250001A4903F03FFF04F035FA3978044628462E
:1052600001F0DAFF0146204603F047FF144B1222FB
:10527000187807A9FFF7B2FFB0B107AC0FCC03ADA8
:105280000FC523682B8004F01DFA0E4903AAFEF710
:1052900047FF0D49324603A8FFF78EFF034802F08F
:1052A00042FA024802F09FF80DB0F0BD20D703206B
:1052B000C4CC032011D703205CDC0320D5AC0B0049
:1052C0009CCC0320F1AC0B009DCC032010B540B961
:1052D000324B1C68052C58D8DFE804F00513223245
:1052E0003D482F4BF5E704F0EDF92E4903F0F2FEAF
:1052F0002A4A1368013313602B4A13680133136081
:105300001CE004F0DFF9294903F0E4FE234A1368A6
:1053100001331360244A13680133136002240DE043
:1053200004F0D0F9224903F0D5FE1C4B4FF0FF32B8
:105330001A601D4A1368013313600424204610BD0F
:1053400004F0C0F91B4903F0C5FE154A1368013388
:105350001360194ADFE704F0B5F9184903F0BAFE03
:105360000F4A136801331360134AC6E704F0AAF921
:10537000134903F0AFFE0A4B4FF0FF321A600E4A9A
:105380001368013313600624D8E704F09BF90D4934
:1053900003F0A0FE4FF0FF34D0E700BF68DA03202F
:1053A000A8CC0320FDAC0B006CDA032014AD0B007D
:1053B0002BAD0B0042AD0B0070DA032059AD0B0092
:1053C00070AD0B0087AD0B0070B58AB0002407A844
:1053D000CDE90744ADF8244004F084F8434823465F
:1053E000224621464068424C03F098FB04F06AF9DB
:1053F0004FF4165104F05AF92178BFF35B8F11F086
:1054000001010BD120460591FEF756FE059928B102
:10541000384803F04FFC2046FEF753FE3548364C23
:10542000012503F051FC2B463C2202213348009514
:1054300002F0A8FD314802F097FD304802F0FCFF71
:105440002F4802F034F82F4AFF21117051709170EB
:10545000D1701171517104F0F5FB002003F0CAF90D
:10546000FF2820700DD104F02DF90026264903F005
:1054700044FE267004F0E6FB2A462146304603F03F
:10548000C1F9247854BB0121062004F045FB1F48D4
:1054900003F01EF91E4B01221A701E4A13680133D5
:1054A00013604FF43B711C4A4B43D118D450C1F8E0
:1054B000444140230122CDE90132002280231146DC
:1054C00000930E48154B01F047FC0C4802F0B4FF66
:1054D00003F080F9124B18600AB070BD012CE8D0BF
:1054E0000121062004F018FBE3E700BF10E70320CA
:1054F00034CD032038CD032042CD032078D30320C0
:1055000020D7032011D70320AFAD0B0018D70320FD
:1055100010D70320A4CC032054CD0320E2B30B000A
:1055200058DC03202DE9F04FDFF8DC8298F80030DA
:10553000ADF5477D002B34D003F04CF99B4FDFF8DD
:105540009492DFF894A23860D9F800203B689B1A47
:10555000DAF80020934203D203F03CF93860F3E715
:10556000934E304602F000FD0121304601F037FE37
:1055700000244FF00113C6E904438E4B8E491D7879
:10558000C2A8002D5DD103F0EAFCC2AA2946284634
:10559000FFF79EF9C2A803F097FC002388F80030BB
:1055A00033618648864E02F0ADF890B104F08AF877
:1055B000844903F08FFD814802F075FA8248FFF7B5
:1055C00035FE002333707B4B1B78002B61D1FFF736
:1055D0002AF8337823B97D4B1B780BB1FEF77AFF9D
:1055E0007B4D2B78002B65D003F0F4F86F4B1860DF
:1055F000784B1B68C01A784B1B6898425AD36C488A
:10560000764FDFF80882002404612C7002F0ACFCB5
:105610006748734D02F010FF3B68A3424ADD162C29
:1056200041DC704B22014021D258284603F0D6FAC3
:1056300029465F4803F04EFD5D4802F0FDFE01344F
:10564000EAE7012D05D103F08AFCC2AA29462046CB
:105650009EE703F084FCC2AA02212046FFF738F936
:10566000C2A803F031FC5A4B1C70D9F800203B68EB
:105670009B1ADAF80020934203D203F0ABF83860AB
:10568000F3E75949C2A803F06AFCC2AA022101202B
:105690007EE70220FFF78BF80420FFF788F806204A
:1056A000FFF785F895E7172CC2D14146284605F04B
:1056B00083F8BDE73F4B444C1F782568002F40F02E
:1056C0003181DFF84C81002D00F0A480062D40F0E0
:1056D0000881FEF7BBFF6568012D3FD0022D3FD04A
:1056E0002DB9A068FFF70EFD404B1B689847236853
:1056F00001331CBF4FF0FF332360D8F80040002C6B
:1057000040F3FC803378002B00F00881384C394D91
:10571000226960680121FEF791FE374B28701968F5
:105720000246D4F84801FEF7D5FF2B78002B00F095
:10573000E38032491E4C2A4805F03EF8204602F02C
:1057400013FC002326492361204603F0C3FC2046B6
:105750000DF5477DBDE8F04F02F06EBE3570C6E72F
:10576000A368012B0FD13846FFF7C4F92449C2A81A
:1057700003F0F5FBC2AA39460320FFF7A9F8C2A837
:1057800003F0A2FBB3E70C49C2A803F0E8FBC2AAEE
:1057900001212846FFF79CF8C2A803F095FB03F00F
:1057A00091FF184903F0A9FCA1E700BF74D30320BF
:1057B00078D3032042CD0320AEAD0B0020D70320C9
:1057C0005CDA0320C6AD0B00ACCC032010D703205D
:1057D00051CD032058DC0320A0CC032060DA032045
:1057E0002DD3032078DA0320BCAD0B0074DA03203C
:1057F00054CD0320B8E6032008D703208FB00B0058
:10580000D9AD0B00F4AD0B009FCC0320BAAC0B005C
:1058100050DA03206368DFF82C927E4FA268DFF82D
:1058200034A2C9F80030012B3A6024DD03F04AFFAE
:10583000794903F062FC794A3B68D9F8001051605D
:105840001168002B01F1010118BF022311601361DF
:10585000DAF8002072490132CAF80020C2A8002BF1
:1058600037D103F07CFBC2AA03210120FFF730F8F7
:10587000C2A803F029FBDAF80030002B2EDD6368A4
:10588000012B3FF634AF03F01DFF664903F035FCF2
:10589000654BE2681A603B68D9F80010002B5F4B3B
:1058A0000CBF02220422C3F85421D3F84421C3F8C8
:1058B00048110132C3F84421D8F800305849013367
:1058C000C2A8C8F8003003F04AFB0121C2AA08466A
:1058D00053E703F044FBC2AA2946C6E7FEF7FAFDE8
:1058E00005E701353FF403AF4D49C2A803F037FB8C
:1058F000C2AA3946022040E74C491BE70ED1337853
:1059000063B14749C2A803F02AFBC2AA04210220BE
:10591000FEF7DEFFC2A803F0D7FA34700DF5477D1D
:10592000BDE8F08F012F40F06A83012D55D0062D80
:1059300040F004836568012D28D0022D28D02DB9B0
:10594000A068FFF7DFFB3A4B1B6898474FF0FF3327
:1059500023603378002BE1D0364D2B68002B40F0CC
:10596000FC822E4BD3F84431002B00F3F9823249EC
:10597000C2A803F0F4FAC2AA04210220FEF7A8FF8D
:10598000C2A803F0A1FA0023337005E33570DDE708
:10599000A368012B0ED1FEF797FBC2A8274903F09D
:1059A000DEFAC2AA00210320FEF792FFC2A803F08C
:1059B0008BFACBE7022B03D13846FFF7BFF8C5E7D8
:1059C00003F080FE1E4903F098FB1549C2A803F0BE
:1059D000C6FAC2AA39460220E6E71A4FE3683B60DE
:1059E00003F070FE18490D4DDFF86890DFF85C8019
:1059F000DFF85CA0DFF83CB003F06CFB6368052BBC
:105A00006ED8DFE813F02900CB00020238026902E9
:105A1000840200BFB4E6032018AE0B0054CD03206F
:105A2000AEAD0B0029AE0B0008D703209EB00B00D3
:105A300074DA0320A4CC0320A4B00B00D9AD0B0072
:105A4000F4AD0B000CD703203CAE0B0050DA032062
:105A500054DA032058DA0320DFF8408303F032FEE3
:105A6000BE4903F04AFB98F80030002B60D0D9F80B
:105A70000020DAF800309A4271D13868FFF71AFA3C
:105A8000002852D03868DFF81C83FFF735FAC8F8D1
:105A90000000013050D1A068FFF718FC0146C8F89B
:105AA0000000A068FEF7D8FFD8F80000421C00F004
:105AB0008C81DBF80080D9F800103F684FF43B720E
:105AC00002FB08F202EB01132B445F6027691861A7
:105AD000C3E90278AB580133AB504B1CC9F8003016
:105AE00003F0F0FD9E4903F008FB03F0EBFD9D4938
:105AF00003F003FB03F0E6FD9B4B9C491A684FF44F
:105B00003B7303FB0255D5F844310293984B1B6855
:105B10000193984B1B680093974B1B68FEF700FBA3
:105B200003F0D0FD03F0DDFA10E798F8003083B9F8
:105B300003F0C8FD914915E09149C2A803F00FFA9E
:105B4000C2AA06210120FEF7C3FEC2A803F0BCF9D9
:105B5000AAE7D9F80020DAF800309A420CD003F016
:105B6000B1FD884903F0C9FA8549C2A803F0F7F9E5
:105B70000221C2AA08460BE003F0A4FD824903F00B
:105B8000BCFA7F49C2A803F0EAF9C2AA05210220A3
:105B9000FEF79EFEC2A803F097F9A1E703F092FD7D
:105BA0007A49DFF8049203F0A8FA794AD4F810A0F1
:105BB0001378C9F800A0B993002B6FD0754A3968E3
:105BC00012785046002A66D1FFF7BEF9002865D04A
:105BD000D8F80020002A61D10846FFF7EFF9DFF876
:105BE000C4A1CAF80000013048D1A068FFF76EFBDD
:105BF0000146CAF80000A068FEF72EFFDAF8001090
:105C00004B1C00F0E2803868DBF80070D8F800C068
:105C1000D9F800E04FF43B7303FB07F2142303FBB6
:105C20000C232B44C3E954710127C3E9520E83F8B6
:105C300058710CEB0703C8F80030AB18D3F84421B7
:105C40003A44C3F8442100287FF44AAFC9B2CA19C4
:105C50000DF542780523D2B2404602F087FC98E861
:105C60000300DFF8489189E80300404602F08BFC0E
:105C7000484602F02DFD484B1F7031E74049C2A84D
:105C800003F06DF9C2AA06210120FEF721FEC2A889
:105C900003F01AF9B2E7FFF757F960B93F4A1278F3
:105CA000002A3FF445AFB99B002B40F0948003F0ED
:105CB00009FD3B4956E70846FFF780F9DFF8E4A005
:105CC000CAF80000013073D1A068FFF7FFFA01465F
:105CD000CAF80000A068FEF7BFFEDAF80010481C02
:105CE00073D0DBF800C03868D8F80070D9F800E04D
:105CF0004FF43B7303FB0CF2142303FB07232B44E9
:105D000003F5A479C3E9520EC3E954C1002389F80D
:105D10001030AB180137D3F84421C8F800700132B5
:105D2000C3F8442100287FF4DBAEC9B24A1CC2AFDD
:105D30000523D2B2384602F019FC97E80300DFF8D9
:105D40006C8088E80300384602F01DFC404602F0F3
:105D5000BFFC114B01221A70C2E600BF18AE0B0047
:105D600004B00B000CB00B00A4CC032041B00B001E
:105D700050DA032054DA032058DA032050AE0B0027
:105D8000AEAD0B0063AE0B0098AE0B0029AE0B005E
:105D900050CD032040CD032010D7032041CD032058
:105DA000A8AE0B0064DA032008D7032018D703201D
:105DB000AC49C2A803F0D3F8C2AA06210120FEF71D
:105DC00087FDC2A803F080F887E703F07BFCA649B3
:105DD00003F093F984E639685046FFF7B5F858B9EF
:105DE00003F070FCA14903F088F99E49C2A803F0B2
:105DF000B6F8C2AA0621CAE69D4B1B78002B7FF499
:105E00006FAE03F05FFC9B49ACE603F05BFC9A4984
:105E100003F073F9DBF800305A1C04D03BBBD8F810
:105E20000020002A23DD954A01211170944A9549EA
:105E3000002717708E4ACAF800701770924AC9F886
:105E400000701760914AC8F80070013317604FF472
:105E50003B72CBF800305343EA18EF50C2F844715C
:105E6000C2A803F07CF8C2AA0021032090E603F048
:105E700029FC874976E603F025FC864903F03DF9C5
:105E80007E4B1B78002B3FF453AEDAF80030D9F884
:105E9000002093421ADAD8F80070CFB9DBF800205E
:105EA000D4F808804FF43B7101FB0252B8F1000FA7
:105EB0001A4414BF0121002103F1010382F8D81212
:105EC000CAF800300CBF74497449C9E73FF708AEFF
:105ED00003F0F8FB724945E603F0F4FB714903F067
:105EE0000CF9664B1B78002B3FF422AED9F800303A
:105EF000002B08DDDAF80020934204DD604B6A498C
:105F000001221A70ACE703F0DDFB68492AE603F0D2
:105F1000D9FB674903F0F1F8584B1B78002B3FF48D
:105F200007AED8F80030002B04DD514B6149012247
:105F30001A7095E703F0C6FB5F4913E601353FF49D
:105F400005AD03F0BFFB5D4903F0D7F84549C2A892
:105F500003F005F8C2AA00213DE5012B7FF407AD4F
:105F6000574C4FF4377204F11001684604F0D0FB2F
:105F700094E80F00FFF76AF8524C00212070FFF7F9
:105F80008FF82378002B34D04F49504804F014FC8C
:105F90004E494F4803F0B1F82D68012D1FD1484CF0
:105FA000D4F83034002B28DD04F53F714FF43772FC
:105FB000684604F0ADFB04F53B730FCBFFF746F8E2
:105FC000404C29462070FFF76BF823789BB141497C
:105FD0003E4804F0F1FB3D493D4803F07BF83C4C62
:105FE000204602F029FA204601F0BEFF002323617B
:105FF00094E43949C9E73949EAE73949E8E7022D24
:106000007FD0062D40F09F816068012814D00228BF
:1060100020D028B9A068FFF775F8324B1B68984765
:106020004FF0FF3323603378002B3FF477ACFEF75B
:10603000F3FE0023337071E42B493070C2A802F0E4
:106040008EFFC2AA00210320FEF742FCC2A802F084
:106050003BFFE5E7A568002D4AD1FEF707FE23497F
:10606000ECE700BFAEAD0B00D8AA0B00BDAE0B0035
:1060700040CD0320CEAE0B00E3AE0B0041CD03209C
:1060800050CD0320F0AE0B006CDA032070DA032051
:10609000F3AE0B0045AF0B0095AE0B0056AF0B00F7
:1060A0005AAF0B008CAF0B009BAF0B00A0AF0B00E7
:1060B000BFAF0B00CEAF0B00D3AF0B0064B00B0033
:1060C00054CD0320B8E6032085B00B002DD3032068
:1060D00078D30320B5B00B0094B00B00C4B00B0014
:1060E000D4B00B0074DA0320EEB00B00FCB00B0050
:1060F000012D03D1FEF7FEFC9A499FE7FEF71EFD36
:106100008EE76368012B78D0022B00F0BC80002B57
:1061100086D1A168944D954FBAA8FEF717FEBAA98B
:10612000C2A802F03FFFE168BEA8FEF741FEBEA98B
:10613000C2A802F07EFF8E4902F087FF0146286860
:1061400007EB001002F01FFFBEA802F0BDFEC2A8C0
:1061500002F0BAFEBAA802F0B7FE2B68162B45DC97
:106160001B018448FA58402102F038FD81498248D9
:1061700002F0B0FF804802F05FF903F0A3FAA168D3
:106180000746BAA8FEF7E2FDBAA9C2A802F00AFFC4
:10619000E168BEA8FEF70CFEBEA9C2A802F049FF46
:1061A00001683846FDF7BCFFBEA802F08DFEC2A80C
:1061B00002F08AFEBAA802F087FED4E90201FEF7D7
:1061C00011FE2B686D4AA16842F823106C4AE16801
:1061D00042F8231001332B606A4B1B78002B3FF4ED
:1061E0001FAF694A13680133136019E7172BC4D135
:1061F0006649604804F0E0FAB8E7624F3B78002B4C
:1062000034D1594DDFF8648103F05CFA604902F043
:1062100074FF28685F4908EB001002F0CEFE2B687F
:10622000162B1CDC1B01534858F80320402102F0B8
:10623000D5FC5049504802F04DFF4F4802F0FCF8A1
:106240002B684E4A4FF0FF3142F823104C4A002190
:1062500042F8231001332B6001233B70E0E6172B3B
:10626000EED14A49434804F0A7FAE2E703F02AFADC
:10627000494902F042FF4949C2A802F070FEC2AA91
:1062800002210220E0E63F4F3B78002B57D0DFF899
:10629000F880D8F80030002B51DD03F013FA4049A4
:1062A000314DDFF8C89002F028FFA1680A220231C0
:1062B000BEA802F094FEBEA9C2A802F073FE39493E
:1062C000C2A802F0C2FE0146286809EB001002F0E5
:1062D0005AFEC2A802F0F8FDBEA802F0F5FD2B6838
:1062E000162B25DC1B01234859F80320402102F01E
:1062F00075FC2049204802F0EDFE1F4802F09CF892
:106300002B681E4A1E486FF0010142F82310D8F88E
:10631000002040F82320A16801329A1A013302318B
:106320002B60002340F822103B70C8F8003077E65D
:10633000172BE5D115490F4804F03EFAD9E703F0D1
:10634000C1F9194995E701353FF46AAE03F0BAF98E
:10635000164902F0D2FE1149C2A802F000FEC2AAFC
:1063600000218EE7D9AD0B0060DA032078DA032034
:106370005CB10B002DD3032078D3032030D703204A
:10638000E8D303202CD3032060DC0320BAAC0B003D
:1063900054B10B0013B10B001BB10B00AEAD0B00E1
:1063A00050B10B0059B10B0060B10B0064B00B0091
:1063B000052370B51A460421A948AA4DAA4E02F039
:1063C000D5F8AA4BAA4800241C60C3F84441C3F87E
:1063D000EC42C3F830444FF0FF3101F0D1FCA54945
:1063E000A54802F0BCFDA349A44802F0B8FDA449A9
:1063F000A44802F0B4FDA449A44802F0B0FDA449A9
:10640000A44802F0ACFDA449A44802F0A8FDA449A8
:10641000A44802F0A4FDA449A44802F0A0FDA449A8
:10642000A44802F09CFDA449A44802F098FDA449A8
:10643000A44802F094FDA449A44802F090FDA449A8
:10644000A44802F08CFDA449A44802F088FDA449A8
:10645000A44802F084FDA449A44802F080FDA449A8
:10646000A44802F07CFDA449A44802F078FDA449A8
:10647000A44802F074FDA449A44802F070FDA449A8
:10648000A44802F06CFDA449A44802F068FDA449A8
:10649000A44802F064FDA449A44802F060FDA449A8
:1064A000A44802F05CFDA449A44802F058FDA449A8
:1064B000A44802F054FDA449A44802F050FDA449A8
:1064C000A44802F04CFDA449A44802F048FDA449A8
:1064D000A44802F044FDA449A44802F040FDA449A8
:1064E000A44802F03CFDA449A44802F038FDA449A8
:1064F000A44802F034FDA449A44802F030FDA449A8
:10650000A44802F02CFDA449A44802F028FDA449A7
:10651000A44802F024FDA449A44802F020FDA449A7
:10652000A44802F01CFDA449A44802F018FDA449A7
:10653000A44802F014FDA449A44802F010FDA449A7
:10654000A44802F00CFDA449A44802F008FDA449A7
:10655000A44802F004FDA449A44802F000FDA449A7
:10656000A44802F0FCFCA449A44802F0F8FCA449A9
:10657000A44802F0F4FCA449A44802F0F0FCA449A9
:10658000A44802F0ECFCA449A44802F0E8FCA449A9
:10659000A44802F0E4FCA449A44802F0E0FCA449A9
:1065A000A44802F0DCFCA449A44802F0D8FCA449A9
:1065B000A44802F0D4FCA449A44802F0D0FCA449A9
:1065C000A44802F0CCFCA449A44802F0C8FCA449A9
:1065D000A44802F0C4FCA449A44802F0C0FCA449A9
:1065E000A44802F0BCFCA449A44802F0B8FCA449A9
:1065F000A44802F0B4FCA449A44802F0B0FCA449A9
:10660000A44802F0ACFCA449A44802F0A8FCA449A8
:10661000A44802F0A4FCA449A44802F0A0FCA449A8
:10662000A44802F09CFCA449A44802F098FCA449A8
:10663000A44802F094FCA449A44802F090FCA449A8
:10664000A44802F08CFCA449A44802F088FC064946
:10665000A34802F084FCA349A34802F080FC45E172
:1066600018D7032074DC0320AEAD0B0054CD0320FB
:1066700078D3032082B10B00C8D30320D8D30320E2
:10668000DCB10B00A4E30320F0B10B00B4E3032062
:1066900020B30B00C4E3032030B30B00D4E303208A
:1066A00050B30B00E4E3032068B30B00F4E30320D2
:1066B00084B10B0004E403208CB10B0014E403202C
:1066C00094B10B0024E403209CB10B0034E40320BC
:1066D000A4B10B0044E40320ACB10B0054E403204C
:1066E000B4B10B0064E40320BCB10B0074E40320DC
:1066F000C4B10B00E4E10320CEB10B00F4E10320B0
:10670000D8B10B0004E20320E2B10B0014E2032035
:10671000ECB10B0024E20320F6B10B0034E20320BD
:1067200000B20B0044E203200AB20B0054E2032043
:1067300014B20B0064E203201EB20B0074E20320CB
:1067400028B20B0084E2032032B20B0094E2032053
:106750003CB20B00A4E2032046B20B00B4E20320DB
:1067600050B20B00C4E203205AB20B00D4E2032063
:1067700064B20B00E4E203206EB20B00F4E20320EB
:1067800078B20B0004E3032082B20B0014E3032071
:106790008CB20B0024E3032096B20B0034E30320F9
:1067A000A0B20B0044E30320A8B10B0054E3032084
:1067B000AAB20B0064E30320B0B20B0074E3032021
:1067C000B8B10B0084E30320C0B10B0094E30320B5
:1067D000B6B20B0084E40320BEB20B0094E40320A5
:1067E000C6B20B00A4E40320CEB20B00B4E4032035
:1067F000D6B20B00C4E40320DEB20B00D4E40320C5
:10680000E6B20B00E4E40320EEB20B00F4E4032054
:10681000F6B20B0004E50320FEB20B0014E50320E2
:1068200006B30B0024E503200EB30B0034E5032070
:1068300016B30B0044E503201EB30B0054E5032000
:1068400026B30B0064E503202EB30B0074E5032090
:1068500036B30B0084E503203EB30B0094E5032020
:1068600046B30B00A4E503204EB30B00B4E50320B0
:1068700056B30B00C4E503205EB30B00D4E5032040
:1068800066B30B00E4E503206EB30B00F4E50320D0
:1068900076B30B0004E603207CB30B0014E6032060
:1068A00082B30B0024E6032088B30B0034E60320F8
:1068B0008EB30B0044E6032094B30B0054E6032090
:1068C0009AB30B0064E60320A0B30B0074E6032028
:1068D000A6B30B0084E60320ACB30B0094E60320C0
:1068E000A4E60320B2B30B0064E10320214922484F
:1068F00002F035FB2149224802F031FB21492248B0
:1069000002F02DFB2149224802F029FB21492248AF
:1069100002F025FB2149224802F021FB21492248AF
:1069200002F01DFB2149224802F019FB28193146CB
:10693000103402F014FBB4F59E6FF7D11D481E4DC4
:10694000184E0822102100F050FC0024281931466E
:10695000103402F004FBB4F5F07FF7D1174B00229E
:10696000C3E90022A2F580329A60BDE8704002209F
:1069700002F088B8B8B30B0074E10320BEB30B007B
:1069800084E10320C4B30B0094E10320CAB30B00DD
:10699000A4E10320D0B30B00B4E10320D6B30B0075
:1069A000C4E10320AEAD0B00D4E10320F0B10B0035
:1069B00064DC032020D7032078DA032044CD0320B1
:1069C000704710B510210446FDF767FB204610BD47
:1069D00073B5044608462279A36832B1A3B90B49BE
:1069E00002B0BDE8704002F075BB094A267B094D34
:1069F0000949647B012E18BF2946CDE900140749D7
:106A0000FDF780FB02B070BD054AEFE7F3B70B005E
:106A1000AEAD0B00EFB70B00EBB70B0009B80B00E6
:106A2000E2B70B002DE9F04F85B01F46BDF9388065
:106A3000BDF83C30A8EB0209A7EB010AB9F1000F41
:106A4000B8BFC9F10009BAF1000FB8BFCAF1000A16
:106A5000D14583460C46154604DD3A462C4647464A
:106A60000D469046BC4205DD2A46454690462246E4
:106A70003C4617463E1BB2B20092A8EB050282EAE2
:106A8000E271A1EBE271C6F3C03202FA86F6454527
:106A9000B4BF01224FF0FF32019176100292BC4246
:106AA0001CDCDBF800200393D145D2F81880C7BF67
:106AB000294622462A4621465846C047019A039B4A
:106AC000B61AB1B236B2002E05DA029A1544009A0F
:106AD00056182DB236B2013424B2E0E705B0BDE855
:106AE000F08F704710B404682469A4465DF8044B25
:106AF000604730B40468BDF808500295A46BA44602
:106B000030BC604730B40468BDF808500295E46BAF
:106B1000A44630BC604770B4BDF90C50BDF810609D
:106B20000468CDE90356246CA44670BC60472DE987
:106B3000F3411C460368BDF820805B690546164694
:106B4000013C34440F4624B298472B68CDF80480AA
:106B500000949C6A28463B4632463946A0472B683B
:106B6000DB6A284602B0BDE8F04118472DE9F34141
:106B70001D460368BDF820805B69044617460E4633
:106B80009847CDE9007822686B1E3344956A204609
:106B90001BB23A463146A8472368DB6A204602B05A
:106BA000BDE8F04118472DE9F3471E460368BDF9DB
:106BB00028905B69BDF82C800C460546174698471F
:106BC0002644B4422B680BDACDF80080D3F820A01D
:106BD00021464B463A4628460134D04724B2F0E7D6
:106BE000DB6A284602B0BDE8F047184713B50268D3
:106BF0000191B0F90E100091146CB0F90C30002224
:106C00001146A04702B010BD2DE9F7439942164640
:106C1000BDF92870BDF82C90026880460D461C46D0
:106C200013D1BE42C8BF3346CDF82890C4BF3E46FC
:106C30001F467B1C946B9B1B1BB232462946404669
:106C4000A44603B0BDE8F0436047BE420AD1994272
:106C5000C2BF0B4625461C46631CCDF82890D46B5A
:106C60005B1BE9E753699847CDE90079D8F8003014
:106C700040469F6A324623462946B847D8F8003036
:106C8000DB6A404603B0BDE8F04318472DE9F347FF
:106C90001D460368BDF82C805B69BDF92890044649
:106CA0000F46164698472368CDF80080D3F824A0F5
:106CB00032462B4639462046D0472368CDF800801F
:106CC00009F1FF323244D3F824A039462B4620463E
:106CD00012B2D0472368CDF80080D3F820A0324606
:106CE0004B4639462046D0476B1ED9192368CDF84C
:106CF00000801D6A20464B46324609B2A8472368E9
:106D0000DB6A204602B0BDE8F0471847704701F043
:106D10000303B0F90A208376C907B0F9083059BFD8
:106D20008381C2818281C3817047000030B5428176
:106D3000C281074A074D0181002481814FF0FF3154
:106D4000C0E905124460056004610477046230BD47
:106D50000101000130BD0B002DE9F04F89B0CDE9F4
:106D600002120268BDF948800493BDF94C305269A3
:106D70000593BDF850A00446904718F107024FF064
:106D8000000648BF08F10E024FEAE20B01963546B5
:106D9000039B019ABDF904109A18059B8B4212B20D
:106DA00027DD049B33444FF0000906930FFA89F066
:106DB00080451FFA89F117DD4F0705BF069BC010FC
:106DC0006D001D5C18BFEDB22B060AD5029B206832
:106DD00007921944836909B21F4620465346B847B3
:106DE000079A09F10109E1E7019B013301935E4430
:106DF000CEE72368DB6A204609B0BDE8F04F1847AC
:106E00002DE9F04F2DED028B91B01646026ABDF8C8
:106E100074809DF878509DF87C4003911F46BDF822
:106E2000703004938346002A40F0C580B0F90C30DE
:106E30008B4240F34C81B0F90E30B34240F34781AE
:106E4000062313FB0513002B40F3418106EBC4031B
:106E5000002B40F33C81037F1BB9AF2F84BF013768
:106E6000FFB2DBF8003058465B699847052209926B
:106E700000220592984A07EB8703D3180C93B3B20C
:106E80000693059A0C9B9B5C0793ABB20B93BDF8E2
:106E90000C300893039B02FB05F919FA83F90FFAEA
:106EA00089F308EE103A08230A93039B02EB030AC6
:106EB0004FF000090FFA8AFA079ADBF80030D20780
:106EC00052D5012D1FFA89F23ED1012C3CD19B698C
:106ED00006991F46049B0A4412B251465846B847C9
:106EE00009F101034FFA83F9079B5B0807930A9B9B
:106EF000013B13F0FF030A93DED1059F01377BB2FC
:106F00000593099B013B13F0FF030993B9D1049B3F
:106F100043450FD0012DDBF800303BD1012C39D196
:106F20000899CDF8008005311C6A3246082309B261
:106F30005846A047DBF80030DB6A584611B0BDEC7C
:106F4000028BBDE8F04F1847069914FB02F20A4481
:106F5000049901910094DB6918EE101A1F4612B2D1
:106F60002B465846B847BBE7049A4245B8D0012D96
:106F70001FFA89F207D1012C05D19B6906991F469A
:106F80000A444346A8E70699CDF8048014FB02F2B0
:106F90000A44DFE70B9ACDF8048002EB8201089ADD
:106FA000E4000A4411460094DC6932462B4609B2DB
:106FB0005846A047BEE7137A516812680B92FF1A31
:106FC000FFB201EBC70331F8372006929A78099295
:106FD000DA780C92012D93F9052093F906A00A9214
:106FE00001D8012C57D9BDF9283008930FFA8AF33C
:106FF0000793DBF8003058465B699847B3B24FF00F
:1070000000080E931AFA86F3C14647460F930C9B6D
:107010009F428FD2079B0E9A3B4403FB042300221E
:1070200005920F9A1BB202EB070A08EE103A0FFA0C
:107030008AFA4346099A0599914241D25A1CD2B222
:107040005B070D9207D1069B06990B9A01339BB201
:1070500012F80190069319F0800F12D0012DDBF881
:107060000030BDF80C101AD1012C18D10A9A9B6976
:107070001144059A11441E465246049B09B25846D3
:10708000B047059E0136F3B24FEA490905935FFA0E
:1070900089F90D9BCEE70023CDE90733A9E70598D1
:1070A000089A024402FB0511049ACDE90042DB690B
:1070B00018EE102A1E4609B22B465846B047E0E7A4
:1070C000099B013798445FFA88F8FFB29FE711B037
:1070D000BDEC028BBDE8F08F26B80B00F0B5026A5C
:1070E00085B004460B46002A34D10A2908D1438AC8
:1070F0000282427E03EBC2036382012005B0F0BD31
:107100000D29FAD0E17E007E657E71B1B4F9106080
:10711000062111FB0061B4F90C60B142C1BFB4F9A2
:107120001210228201EBC5026282E28A0192A28AD7
:107130000092CDE90205B4F91220B4F910102046EE
:10714000FFF75EFE237E228A03EB430302EB430339
:107150002382D2E70A2907D100230382417E927A53
:10716000438A01FB0233C7E70D29C6D0157AA9422D
:10717000C3D3517A9942C0D351685D1BEDB201EB84
:10718000C505A87828B3E97819B3E17E267E677E25
:1071900091B195F905100844B4F9101006FB0011DF
:1071A000B4F90C00814207DD00202082B4F91210EE
:1071B000927A02FB07126282E28A0192A28A00920C
:1071C000CDE90267B4F91220B4F910102046FFF798
:1071D00017FE2979227E238A01FB0233B8E70129B1
:1071E00038BF012101764176704738B5044608461C
:1071F00021730121154602F08FFC207B012102F052
:107200009CFC28466573012102F086FC607B00210E
:1072100002F093FC204638BD0139C9B208299ABF53
:10722000024B53F821000248704700BF78BE0B00A4
:1072300080BD0B0013B50B4C2178BFF35B8F11F0B1
:1072400001010BD120460191FCF736FF019928B1CD
:10725000054801F02FFD2046FCF733FF024802B03D
:1072600010BD00BF34CD032038CD032007B50190F9
:10727000FFF7E0FF019903B05DF804EB01F0C0BD3A
:107280002DE9F74F07469DF830801E461546002A27
:1072900042D001F07E01007B41F08009002102F024
:1072A0004CFC4846FFF7E2FF013DEDB24FF0000B0A
:1072B0004FF0010A5FFA8BF4A54222D9DCB9B8F18C
:1072C000000F18D04246D3B2072B61B205D80AFA94
:1072D00002F40C43E4B20132F5E748460191FFF7AE
:1072E000C5FF33780199044023EA01031C4334703D
:1072F0000BF1010BDEE74846FFF7B8FF06F80B007D
:10730000F6E70020FFF7B2FF7055387B012103B08C
:10731000BDE8F04F02F011BC03B0BDE8F08F38B506
:107320000C4605460021007B04F07E0402F005FCBB
:1073300044F08000FFF79AFF0020FFF797FF01213C
:107340000446287B02F0F9FB204638BDF8B50F460D
:1073500006460021007B15461C4602F0EEFB07F0B6
:107360007E00FFF783FF2544AC4204D014F8010BE4
:10737000FFF77CFFF8E7307B0121BDE8F84002F021
:10738000DCBB70B504460E46007B0021154602F0BA
:10739000D4FB06F07E00FFF769FF2846FFF766FF83
:1073A000207B0121BDE8704002F0C7BB70B51646D6
:1073B00004460D46FFF7B3FF3043C2B229462046CC
:1073C000BDE87040FFF7DDBF70B5164604460D46B8
:1073D000FFF7A5FF20EA0600C2B229462046BDE815
:1073E0007040FFF7CEBF08221021FFF7EDBFF8B5C0
:1073F000044615460F46002202211E46FFF7C1FF34
:1074000004220A212046FFF7BCFF802214212046D7
:10741000FFF7CCFF2A463B4612212046FFF796FF96
:10742000032202212046FFF7ACFF41F288350A21F2
:107430002046FFF774FF430705D4013DADB2002D90
:10744000F5D104200FE0002202212046FFF799FF2A
:1074500044212046FFF763FF422130702046FFF7AA
:107460005EFF70700120F8BD10B50F2202210446A6
:10747000FFF787FF322001F08FFF02212046FFF740
:107480004EFFC306F9D410BD10B528210446FFF7FE
:1074900046FF00F00303032B08D040F00302D2B2F2
:1074A00020462821BDE81040FFF76BBF10BD10B586
:1074B0000446407B02F05AFB48BB607B012102F08E
:1074C0003CFB322001F068FF204680225421FFF768
:1074D00058FF2046A9225621FFF753FF20460322DA
:1074E0005821FFF74EFF2046E8225A21FFF749FFB7
:1074F000204640222A21FFF744FF20463D22222138
:10750000FFF73FFF2046BDE81040FFF7BDBF204614
:10751000FFF7AAFFD8E72DE9F04F89B0DDE9135650
:10752000DDF8549003929DF85C209DF858B00492C9
:1075300004468A460027B9F1000F3ED099F8008032
:107540000593002202212046FFF71BFF7F2208211E
:107550002046FFF716FF08EB0B1880221421204667
:10756000FFF724FF5FFA88F8059B9DF84820122159
:107570002046FFF7EBFE42461A212046FFF701FFA7
:10758000524602212046FFF7FCFEBAF10C0F04D14F
:1075900080221A212046FFF709FF4FF4FA680821DC
:1075A0002046FFF7BCFE039B184208D1C30702D454
:1075B000B8F10108F3D104204DE0C846C0E70C2122
:1075C0002046FFF7ACFE10F0130F804646D1DDB128
:1075D000D6B114212046FFF7A2FE3378834202463B
:1075E0003ED330702B4612212046CDF800B0FFF775
:1075F00047FE18212046FFF792FE00F00707B9F179
:10760000000F01D089F8007018F0080F2AD15DB37F
:1076100056B3049B43B33278012A03D1042F25D1FA
:10762000092018E022D90FBB023A07ABD2B2294693
:107630002046FFF7DCFE01280DD133781D449DF86C
:107640001C3015F8022C9A4210D115F8012C9DF827
:107650001D309A420AD109B0BDE8F08F0220FAE746
:107660000520F8E70320F6E70120F4E70820F2E719
:1076700010B586B09DF82C4005949DF828400494E0
:10768000099C0394089C0092CDE9013430220B46FA
:107690000C21FFF740FF06B010BD70B588B006465C
:1076A0001C468DF8171015461AB31B78012B20D9EC
:1076B00080221C21FFF788FE07238DF81F3000234E
:1076C000CDE902330DF11F03CDE9004301222B4622
:1076D0000DF117013046FFF7CBFF012807D12378C2
:1076E000022B08D19DF81F30002B18BF022008B0D4
:1076F00070BD0520FBE70220F9E713460A46262164
:10770000FFF7CBBF07B502230DF1030201A98DF8E6
:107710000330FFF7F2FF00F0FD00431E58425841CE
:1077200003B05DF804FB70B586B050238DF81430BB
:1077300000240DF11603022205A906468DF8154016
:10774000FFF755FE012805460FD1CDE90244CDE9EA
:1077500000442346042205A93046FFF789FF042888
:1077600003D0012814BF05460225284606B070BD87
:107770007FB506461D461446CAB11B78112B16D993
:10778000302313705170931C21460222FFF72FFE05
:1077900001280AD10023CDE9013303900095234647
:1077A000042221463046FFF763FF04B070BD052078
:1077B000FBE710B58AB00C9C8DF81D201A689B88D9
:1077C000ADF8223063788DF82430A3788DF8253019
:1077D000E3788DF8263023798DF827300023CDE922
:1077E0000433CDE9023301930C238DF81C10CDF83E
:1077F0001E200093102207AB0E21FFF78CFE0AB06B
:1078000010BD2DE9F04F502A8BB082460F469046AE
:1078100000F2408180221C21FFF7D6FD93238DF8D2
:107820001C30B8F1000F00F0BC803C78042C94BFF1
:1078300000230123012500260BE095238DF81C3041
:10784000B8F1000F00F0AF803C78072C94BF002304
:107850000123A8EBC60464B224EAE474002B00F010
:10786000A48088228DF81E20032114F0070218BF7F
:10787000012202EBE40212F0FF02E0B21DD0002B65
:1078800014BF4FF003094FF0040906F1010C9145B4
:1078900094BF01EB090E01EB020E57FA8CFC5FFA64
:1078A0008EFE0A460DF1280B0131C9B25A441CF86C
:1078B000019B02F80C9C7145F3D10BB1083044B226
:1078C0001F2C74DD4FF070039DF81F208DF81D30C4
:1078D0009DF81E3053409DF8202053409DF82120F4
:1078E00053408DF8223007220DF1230307A950469B
:1078F000FFF77DFD0128814640F0C88000238DF808
:107900001A3003238DF81B3004940DF1220B4FF035
:1079100009099DF81A30059303EB0312D2B21A211C
:107920005046FFF72EFD059B02930DF11A0300222E
:1079300001930DF11B03039200934A465B4607A98E
:107940005046FFF795FE032881464CD11C21504636
:10795000FFF7E5FC810600F1998010F01F0008BFD9
:107960002020A04240F38780431E03F0070244B268
:1079700013F007034FEAD00018BF01230130184469
:107980000AAB1844012303FA02F210F80C3C13432B
:1079900000F80C3C94E797238DF81C30062623460C
:1079A00057E7434646E7434653E702215DE7E310C6
:1079B0000233DBB204F0070214F007098DF81A2035
:1079C00002EB03128DF81D2018BF4FF0010907AA22
:1079D000994402EB030BC3F109035FFA89F98DF8AF
:1079E0001B30049495E7012850D1049B1F2B4FF0C6
:1079F00020047FF767AF9DF81E30882B3ED103230C
:107A00001A4601361A4457FA86F6D2B219460AA81F
:107A100001330144DBB211F80C1C06F8011B934240
:107A2000F4D19DF81B60032E37D19DF81A40A4BBFA
:107A30000DF11E03012259465046FFF7D8FC0128DC
:107A4000814623D19DF81E209BF801309A4227D110
:107A50009DF81F209BF802309A4221D19BF80030FC
:107A60005A070ED50135EDB2032D94D0042D02D066
:107A7000022D3FF4E2AE4FF0060907E00223042294
:107A8000BFE705EB45050135FB723D7048460BB07D
:107A9000BDE8F08F4FF00709F8E74FF00209F5E76E
:107AA0004FF00809F2E708B501460022FFF7A9FEEA
:107AB000431E5842584108BD0160704710B5044646
:107AC0000121008802F028F82088002102F035F812
:107AD000022000F077FE2088012102F02EF8052018
:107AE00000F070FE2088002102F027F82088002195
:107AF00002F012F82088012102F062F83A2390FB8C
:107B0000F3F010BD10B5037201238171C2710374CB
:107B100010BD10B504460021807901F0FDFFA07969
:107B2000012102F00AF80023E36010BD2DE9F843BB
:107B3000044600F04FFEE368834284BF0023E36005
:107B4000237C23B9E368C01AB0F5FA6F67D3002528
:107B5000257400F03FFE0121E0602560A0792571C9
:107B600001F0EBFFFA2001F017FCA079012101F0F0
:107B7000D3FF2946A07901F0E0FF142001F00CFCAE
:107B800001F0C6FD0121A07901F0D7FF282000F007
:107B900019FEA079294601F0BFFF2E4601274FF0BC
:107BA0000008A07901F0E2FFB8425FFA88F908D135
:107BB000012008F1010800F005FEB8F1FF0FF0D137
:107BC000C146A07901F0D2FFB9F1FF0FC7B214D0BE
:107BD000032D0ED9EA070CD4F2080136A35C5B0032
:107BE000DBB2A354217A49453CBF43F00103A354BF
:107BF000F6B20135EDB2552DD1D101F08BFD272E16
:107C00000FD9637820781844A3781844E37818448F
:107C10002379C0B2C31A58425841BDE8F883012005
:107C2000FBE70020F9E7000010B50446FFF77EFFF0
:107C300020B3E3790B2B1BD0153B012B1ED8A37867
:107C4000DFED106A03F07F0207EE102AE27807EEFC
:107C5000902AB8EEC77AF8EEE77A1B06E7EE267AA6
:107C6000B2EE047A87EE870A07D5B1EE400A04E047
:107C7000A37800EE103AB8EE400A10BD9FED020A5C
:107C8000FBE700BF000080430000C07FFFF7CCBFD0
:107C900010B5044B03600446C06A08B100F08EFFC3
:107CA000204610BD98C40B0010B50446FFF7F0FF46
:107CB00020465021FCF7F1F9204610BD002910B5EF
:107CC0004BDBB0F90C408C4247DD002A45DBB0F9B4
:107CD0000E40944241DD847E022C1FD0032C26D01E
:107CE000012C04D10489D24314440A4621B2012B49
:107CF00023D0022B32D083BB002A13460489C06AEA
:107D0000B8BFD31DDB1013FB041102F007020123DF
:107D10009340425C22EA030242541EE00489013C83
:107D2000611A4489D243224409B212B2DFE744897E
:107D3000013C641A114622B2D9E7002A048913468D
:107D4000B8BFD31DDB1013FB0411C36A02F0070098
:107D500001228240585C02435A5410BD002A134647
:107D60000489C06AB8BFD31DDB1013FB041102F0F5
:107D70000702012303FA02F2435C5A40CCE70000F9
:107D800070B5402204460E468021FEF7CFFF002545
:107D90000D4B2360656201F083FFFF2384F83330CD
:107DA00084F83630094BA3634FF6FF720123C4E910
:107DB0000A05A28684F8376084F83C302564A4F86C
:107DC0004450204670BD00BF98C40B00A4BE0B00F9
:107DD000F8B50446806A0D4690B194F9301001F070
:107DE00063FDA06A036800219B689847A06A036846
:107DF00029469B689847A06ABDE8F84001F05BBD42
:107E000094F93530014698B201F097FE606A20B1CE
:107E10002946BDE8F84000F0F3BF0826802794F912
:107E2000330005EA070180B201F087FE94F93400BF
:107E3000012180B201F081FE94F93400002180B26A
:107E400001F07BFE013E4FEA5707E8D1F8BD38B597
:107E50000446806A0D4680B1A16C01F017FD002D2B
:107E6000204614BFA721A621FFF7B2FFA06A88B160
:107E7000E16CBDE8384001F009BD606A18B104F159
:107E8000380100F04FFF94F93600002180B201F074
:107E900054FEE4E794F93600012180B201F04DFE72
:107EA000606A18B1BDE8384000F022BF38BD2DE946
:107EB000F8430446806A0D468F1840B394F9301099
:107EC00001F0F2FCA06A036800219B689847012634
:107ED000AF42A06A17D01F2E0CD901F0ECFC94F928
:107EE0003010A06A01F0E0FCA06A036800219B68E2
:107EF00098470126A06A15F8011B036801369B68A4
:107F00009847F6B2E4E7BDE8F84301F0D4BC94F931
:107F10003530014698B201F010FEBD4222D0606AB1
:107F200015F8019B18B1494600F06AFFF5E70826ED
:107F30004FF0800894F9330009EA080180B201F09B
:107F4000FCFD94F93400012180B201F0F6FD94F9B2
:107F50003400002180B201F0F0FD013E4FEA5808E4
:107F6000E8D1DAE7BDE8F883B0F90A30DA1D48BF96
:107F700003F10E02B0F90830C06AD2105A43002152
:107F800002F0D4BB2DE9FF411E46C36A9DF828804C
:107F900004460F461546D3B12046FFF7E5FFB4F976
:107FA0000A20202A25DCB4F908102023203A73394E
:107FB0000120CDE9013002EBD272732301EBD171C4
:107FC000009342F34F02854B41F34F011BE0B0F9A0
:107FD0000A30D81D48BF03F10E00B4F90830C010B4
:107FE000584300F0E3FDE0620028D5D104B0BDE8BD
:107FF000F08140234FF0010CCDE9013C8023009338
:108000000022774B11462046FEF7A6FEA06A84F8B0
:108010003170002878D0002D74D1B4F90A30202BAB
:108020000CBF3C253D2584F83050B8F1000F01D03D
:1080300001F030FCFEB194F9370000281BDB012170
:1080400080B201F069FD94F93700012180B201F09E
:1080500074FD012001F0A0F994F93700002180B2ED
:1080600001F06BFD0A2001F097F994F93700012126
:1080700080B201F062FDA06A002874D0A16C01F00A
:1080800005FC042257492046FFF711FF6189013999
:10809000C9B22046FFF79CFE534904222046FFF751
:1080A00006FF94F93130012B0CBF1021142120461A
:1080B000FFF78EFE04224D492046FFF7F8FEA36825
:1080C0004B4A93425CD14B4904222046FFF7EFFE16
:1080D000D9212046FFF77CFE94F93130012B0CBFEB
:1080E0002221F1212046FFF773FE20464249062255
:1080F000FFF7DDFEA06A002863D0E16C01F0C6FB4B
:10810000012073E76DB28EE794F93500012180B24A
:1081100001F002FD94F93600012180B201F0FCFC6F
:1081200094F93600012180B201F007FD656A3DB186
:10813000B8F1000F3FF47EAF284600F0C5FD79E7A7
:1081400094F93300012180B201F0E6FC94F9340087
:10815000012180B201F0E0FC94F93400294680B29C
:1081600001F0EBFC66E7606A18B104F1380100F039
:10817000D9FD94F93600002180B201F0DEFC80E7E1
:108180001E4A93420ED11E4903222046FFF78FFE5E
:1081900094F93130012B0CBF9F21CF212046FFF7EE
:1081A00017FE95E7174A934292D1174903222046BA
:1081B000FFF77DFE94F93130012B0CBF1021AF2168
:1081C000ECE794F93600012180B201F0B6FC606A58
:1081D000002895D000F08CFD92E700BFB0BE0B00E8
:1081E00090C00B00F8C40B00FCC40B0000C50B00D2
:1081F000800020000AC50B0004C50B008000400071
:108200000EC50B006000100011C50B0070B5002AF0
:10821000BDF810503DDBB0F90A40944239DD002929
:10822000BEBF5B181BB20021B0F90840CE18A642B1
:10823000C4BF631A1BB2002B2BDDC06AD61014FB1F
:108240000611014402F0070001228240012DD2B242
:1082500016D0022D0BD0E5B9D243D2B20B449942CD
:1082600017D011F8010B104001F8010CF7E70B448F
:1082700099420ED011F8010B504001F8010CF7E7BC
:108280000B44994205D011F8010B104301F8010C81
:10829000F7E770BDF0B50029BDF8145076DBB0F9F2
:1082A0000860B14272DA002ABEBF9B181BB20022DE
:1082B000B0F90A40D718A742C4BFA31A1BB2002BBB
:1082C00064DDC2F3C404C76A16FB041612F0070289
:1082D000DBB207EB060423D0C2F10802D2B22D496B
:1082E00093423CBF4FF0FF0CA2EB030E895C3CBFF6
:1082F0004CFA0EFC0CEA0101012D07D0022D2ED004
:108300004DB917F806C02CEA010103E017F806C0C2
:1083100041EA0C01B955934238D3B0F908100C4426
:108320009A1AD2B2072A0ED9022D1DD113462178EE
:10833000C9432170083BB0F90810DBB2072B0C448D
:10834000F5D802F007020AB3134B012D9B5C1AD03B
:10835000022D1CD0D5B9227822EA030315E017F8C4
:1083600006C081EA0C01D5E7291E18BF0121494248
:10837000C9B213462170083BB0F90860DBB2072B85
:108380003444F7D8DDE7227813432370F0BD227818
:108390005340FAE7E8C40B00F0C40B0070B4144675
:1083A000827EBDF80C60022A0DD0032A18D0012A63
:1083B00011D10289E443144424B203960A462146AB
:1083C00070BCFFF767BF42890589E4431944144430
:1083D000691A24B209B20396224670BCFFF716BF91
:1083E00045891944691A09B2E7E730B41446827E18
:1083F000BDF80850022A0DD0032A18D0012A11D145
:10840000E2180489A41A24B202950A46214630BC17
:10841000FFF7FCBE0289C9431144E2184489A41A3B
:1084200009B224B20295224630BCFFF733BF42891D
:10843000C943114409B2E7E72DE9F8430446806ACD
:10844000002842D0A16C01F021FA474905222046BC
:10845000FFF72DFD218901392046C9B2FFF7B8FC8D
:10846000B4F90A30DE1D48BF03F10E06D4E90A054F
:108470002389F61013FB06F615FA86F600283AD083
:1084800094F9301001F010FAA06A036840219B684B
:1084900098470127B542A06A24D01F2F0CD901F0BC
:1084A0000AFA94F93010A06A01F0FEF9A06A036894
:1084B00040219B6898470127A06A15F8011B0368B3
:1084C00001379B689847FFB2E4E7606A18B104F18E
:1084D000380100F027FC94F93600002180B201F049
:1084E0002CFBB2E701F0E7F9A06A78B3E16CBDE8D4
:1084F000F84301F0CBB994F93500012180B201F0C5
:108500001CFBAE42F0D0606A15F8019B18B14946D9
:1085100000F076FCF5E708274FF0800894F9330067
:1085200009EA080180B201F008FB94F93400012146
:1085300080B201F002FB94F93400002180B201F016
:10854000FCFA013F4FEA5808E8D1DAE794F936001F
:10855000012180B201F0F1FA606A18B1BDE8F84378
:1085600000F0C6BBBDE8F88314C50B0010B5044687
:10857000017042708370012103EB430002F0C0F8E8
:108580006060204610BD10B50446406800F016FB40
:10859000204610BD10B500210446007801F0CDFA48
:1085A000142000F00FF92078012101F0C6FABDE88F
:1085B0001040142000F006B970B506460C46082598
:1085C00023064CBF01210021707801F0B6FA013D6D
:1085D0003046FFF7DFFF640015F0FF05E4B2EFD18E
:1085E00070BD73B513F0800F1E460C46154614BFC0
:1085F000C021E021730658BF41F010012A0658BF80
:1086000041F008016B0658BF41F00401220658BF33
:1086100041F00201630658BF41F001010190FFF7EC
:10862000CBFF01983146FFF7C7FF01982946FFF7B6
:10863000C3FF0198214602B0BDE87040FFF7BCBF00
:108640002DE9F04704460F460021904699469DF8D3
:1086500020A0FFF7B1FF00212046FFF7ADFF00216A
:108660002046FFF7A9FF00212046FFF7A5FF0026BF
:10867000A378F5B2AB4219D905EB4500AF4200F142
:10868000010200F1020308D1616801F8008061680D
:1086900001F80290616801F803A06168CB5C8A5C14
:1086A000095C2046FFF79DFF0136E1E720460021E7
:1086B000FFF782FF20460021FFF77EFF20460021C2
:1086C000FFF77AFF20460021BDE8F047FFF774BFAF
:1086D00073B504460121007801F01EFA607801218B
:1086E00001F01AFA00252E46A378E9B28B4207D989
:1086F000002300961A462046FFF7A2FF0135F3E754
:1087000002B070BD08B5024B1B689B68019308BDA1
:108710006802030008B5024B1B68DB68019308BDC3
:108720006802030008B5024B1B685B68019308BD33
:108730002C02030008B5024B1B689B68019308BD1F
:108740002C02030008B5024B1B68DB68019308BDCF
:108750002C02030008B5024B1B681B69019308BD7E
:108760002C02030008B5024B1B685B69019308BD2E
:108770002C02030008B5024B1B681B6A019308BD5D
:108780002C02030008B5024B1B685B6A019308BD0D
:108790002C02030008B5024B1B681B6B019308BD3C
:1087A0002C02030008B5024B1B68DB6C019308BD6B
:1087B0002C02030008B5024B1B685B68019308BDDF
:1087C0001802030008B5024B1B68DB68019308BD63
:1087D0001802030008B5024B1B685B69019308BDD2
:1087E0001802030008B5024B1B689B6A019308BD81
:1087F0001802030008B5024B1B68DB6A019308BD31
:108800001802030008B5024B1B689B6C019308BD5E
:108810001802030008B5024B1B685B6C019308BD8E
:108820004802030008B5024B1B685B69019308BD51
:108830006402030008B5024B1B68DB68019308BDA6
:108840003C02030008B5024B1B681B69019308BD7D
:108850003C02030008B5024B1B685B69019308BD2D
:108860003C02030008B5024B1B689B69019308BDDD
:108870003C02030008B5024B1B68DB69019308BD8D
:108880003C02030008B5024B1B681B6A019308BD3C
:108890003C02030008B5024B1B689B6A019308BDAC
:1088A0003C02030008B5024B1B681B6C019308BD1A
:1088B0003C02030008B5024B1B681B68019308BD0E
:1088C0002802030008B5024B1B68DB68019308BD52
:1088D0002802030008B5024B1B689B69019308BD81
:1088E0002802030008B5024B1B68DB69019308BD31
:1088F0002802030008B5024B1B681B6A019308BDE0
:108900002802030008B5024B1B685B6A019308BD8F
:108910002802030008B5024B1B689B6A019308BD3F
:108920002802030008B5024B1B68DB6A019308BDEF
:108930002802030008B5024B1B681B6B019308BD9E
:108940002802030008B5024B1B685B6B019308BD4E
:108950002802030008B5024B1B681B6C019308BD7D
:108960002802030008B5024B1B681B68019308BD71
:108970003002030008B5024B1B685B69019308BD18
:108980003002030008B5024B1B68DB69019308BD88
:108990003002030008B5024B1B681B6A019308BD37
:1089A0003002030008B5024B1B685B6A019308BDE7
:1089B0003002030008B5024B1B68DB6B019308BD56
:1089C0003002030008B5024B1B681B6C019308BD05
:1089D0003002030008B5024B1B685B6C019308BDB5
:1089E0003002030008B5024B1B681B68019308BDE9
:1089F0002402030008B5024B1B685B68019308BDA5
:108A00002402030008B5024B1B681B68019308BDD4
:108A10004C02030008B5024B1B685B68019308BD5C
:108A20004C02030008B5024B1B681B69019308BD8B
:108A30004C02030008B5024B1B685B69019308BD3B
:108A40004C02030008B5024B1B689B69019308BDEB
:108A50004C02030008B5024B1B68DB69019308BD9B
:108A60004C02030008B5024B1B681B6A019308BD4A
:108A70004C02030008B5024B1B685B6B019308BDF9
:108A80006002030008B5024B1B685B68019308BDD8
:108A90002002030008B5024B1B685B69019308BD07
:108AA0002002030008B5034B1B68D3F888300193FC
:108AB00008BD00002002030008B5034B1B68D3F873
:108AC0009430019308BD00002002030008B5024B5A
:108AD0001B685B68019308BD4002030008B5024BA8
:108AE0001B689B68019308BD4002030008B5024B58
:108AF0001B68DB68019308BD4002030008B5024B08
:108B00001B681B69019308BD4002030008B5024BB6
:108B10001B685B69019308BD4002030008B5024B66
:108B20001B689B69019308BD4002030008B5024B16
:108B30001B68DB69019308BD4002030008B5024BC6
:108B40001B681B6A019308BD4002030008B5024B75
:108B50001B681B6B019308BD4002030008B5024B64
:108B60001B685B6B019308BD4002030008B5024B14
:108B70001B681B6C019308BD4002030008B5024B43
:108B80001B685B6C019308BD4002030008B5024BF3
:108B90001B68DB6B019308BD4402030008B5024B60
:108BA0001B685B6C019308BD4402030008B5024BCF
:108BB0001B681B68019308BD1C02030008B5024B2B
:108BC0001B685B68019308BD1C02030008B5024BDB
:108BD0001B689B68019308BD1C02030008B5024B8B
:108BE0001B68DB69019308BD1C02030008B5024B3A
:108BF0001B685B6A019308BD1C02030008B5024BA9
:108C00001B681B6B019308BD1C02030008B5024BD7
:108C10001B681B6C019308BD1C02030008B5024BC6
:108C20001B685B6C019308BD1C02030000224068B6
:108C30001146FFF783BF002240681146FFF78EBF41
:108C400040680022FFF782BF4068002281F00101E6
:108C5000FFF76CBF002340681A461946FFF75EBF56
:108C6000002340681A461946FFF750BF00224068AB
:108C70001146FFF743BF002240681146FFF72EBFA1
:108C8000406800220221FFF731BF002340681A46E6
:108C9000FFF71CBF024B03225A60024A1A6070475A
:108CA000BCE6032024C50B000021FFF793BE002182
:108CB000FFF788BE10B5044608462170FFF762FE34
:108CC00000236360204610BD13B504460078FFF70B
:108CD000EEFF58B9207801904FF6FF71FFF742FE82
:108CE000019802B0BDE81040FFF7DEBF02B010BD32
:108CF0000078FFF7D9BF0000400830B518600024A5
:108D000018688842E5B206D90134082C02D0400820
:108D10001860F5E70725024B5B5D137030BD00BF9F
:108D200058C50B002DE9F04306468FB000780C467D
:108D3000FFF7BDFF00281BDB35781422002109A8AE
:108D400001F0F4FC0B23002209A92846ADF82430D9
:108D5000FFF728FE9DF82D3013B19DF82C5055B12A
:108D60000027B946B846012523795DB1C3B100207B
:108D70000FB0BDE8F083DDF830809DF834909DF8A9
:108D80003570F1E7002B35D1A368434508D18DF844
:108D900020908DF82170BDF82020A3899A42E6D05A
:108DA0000023A1688DF80F300A9804AB0DF10F0273
:108DB000FFF7A2FF217985B989B9A36843450ED38E
:108DC0008DF820908DF82170BDF82020A3899A425B
:108DD00005D1049B434502D1C9E70029F9D10023FD
:108DE0000193637B00939DF80F20237B3078FFF77E
:108DF000E1FDBCE7CDE900552B462A460121F5E708
:108E000008B50078FFF7B6FDC0B208BD054B0222D9
:108E10001A60054B054A9A600020C3E90000FFF77D
:108E200031BE00BFD0E60320C4E603200000FFFFF0
:108E300010B5044601F0C8FC0138231820468342CF
:108E400006D90278197800F8011B03F80129F6E722
:108E500010BD70B50C46911E22291DD8254630B98B
:108E6000234430229D4210D205F8012BFAE7B0FBD3
:108E7000F2F602FB1600C1B2092894BF3031573117
:108E8000C9B205F8011B3046E9E7002320462B70E4
:108E9000FFF7CEFF204670BD0020FCE738B5031E6B
:108EA0000C4615460EDAB3F1004F4FF02D0214BFF9
:108EB0005842184601230A702A461944FFF7C9FF91
:108EC000204638BD0123F9E710B504460068FFF7D6
:108ED00075FE204610BD10B50446006808B1FFF7C6
:108EE0006DFE0023C4E90133236010BD38B504468C
:108EF0000D4600680131FFF769FE10B1C4E90005B5
:108F0000012038BD10B50368044623B143688B4285
:108F100001D3012010BD2046FFF7E8FF0028F9D05B
:108F2000A368002BF5D122681370F2E737B50D4620
:108F3000114601920446FFF7E5FF019A28B9204641
:108F4000FFF7C9FF204603B030BDA2602946206864
:108F500001F0DEFB2268A3680021D154F2E7002370
:108F600013B5C0E9003304468360037341B108467A
:108F7000019101F029FC019902462046FFF7D6FF36
:108F8000204602B010BD884210B5044605D00B68DB
:108F90002BB18A681946FFF7C9FF204610BDFFF7BD
:108FA0009AFFFAE710B500230446C0E90033836056
:108FB0000373FFF7E8FF204610BD13B5044659B10F
:108FC0000846019101F000FC019902462046FFF796
:108FD000ADFF204602B010BDFFF77DFFF9E710B5E9
:108FE00004468AB00023C4E90033A3602373084613
:108FF00001A9FFF753FF01A92046FFF7DEFF204636
:109000000AB010BD70B505460E4609B9002070BD06
:109010006AB1846814442146FFF774FF0028F5D034
:109020002868AB683146184401F0C6FBAC600120EB
:10903000EDE710B58A6809680446FFF7E3FF10B949
:109040002046FFF748FF204610BD13B5044629B956
:109050002046FFF740FF204602B010BD08460191B0
:1090600001F0B2FB019902462046FFF7CBFF002832
:10907000EED0F0E7024800230360FFF7CBBB00BF50
:10908000D4E60320F8B506460D468F180024BD42ED
:109090000CD0336815F8011B9B6830469847031EB7
:1090A00001DB1C44F3E7002C08BF1C462046F8BD3A
:1090B00013B50446084659B1019101F085FB2368B8
:1090C0000199DB680246204602B0BDE8104018470F
:1090D00002B010BD08B5FFF7EBFF08BD03689B6841
:1090E000184738B50D210546FFF7F8FF0A21044659
:1090F0002846FFF7F3FF204438BD38B50546FFF793
:10910000D7FF04462846FFF7ECFF204438BD30B5B2
:109110008BB00023012A8DF8243098BF0A2209ACB5
:109120000D46B1FBF2F101FB125303F0FF03092BD3
:1091300094BF30333733DBB2AA4204F8013DEFD994
:109140002146FFF7B5FF0BB030BD00002DE9F74F0A
:1091500055EC104B06460F4610EE102A10EE100A82
:109160002B46294601F018FA40B153493046FFF723
:109170009FFF8246504603B0BDE8F08F25F00049BE
:109180004E4B4FF0FF322046494601F005FA48B9F0
:109190004A4B4FF0FF322046494601F0DFF908B94B
:1091A0004749E3E7474B4FF060422046294601F02C
:1091B000E9F908B14449D9E7444B4FF060422046F1
:1091C000294601F0C1F90028F4D1002200232046ED
:1091D000294601F0B9F9D0B12D213046FFF77EFFC5
:1091E00005F1004382461D463949DFF8EC904FF007
:1091F000000B00204FF000085FFA8BF39F4208D964
:1092000042464B4601F058F80BF1010BF4E7824659
:10921000EAE722462B4600F06FFD0D46044601F0BA
:10922000F9F9804600F0A4FE02460B462046294686
:1092300000F060FD0A2204460D4630464146FFF725
:1092400066FF8244002F95D02249DFF88C9030468B
:10925000FFF72EFF4FF000088244002F8AD04246CD
:109260004B462046294600F0FDFE04460D4601F01F
:10927000A9F9B0F1000B1CDA2D213046FFF72EFFC3
:10928000CBF1000103460A2230460193FFF73FFF6E
:10929000019B18448244584600F07AFE02460B4671
:1092A0002046294600F026FD013F04460D46FFB248
:1092B000D3E759460023E6E760C50B00FFFFEF7FC9
:1092C00064C50B00FFFFEF4168C50B00FFFFEFC156
:1092D0000000E03FBCAC0B000000244038B5C9B230
:1092E0000546FFF733FF04462846FFF7FAFE204401
:1092F00038BD38B5044610EE100A0D4600F05AFE8F
:1093000041EC100B29462046BDE83840FFF7E6BF88
:109310002DE9F04186B000AF05460E46381D1421F8
:1093200014463B60FFF762FC13280ED8391D28460F
:10933000FFF7BEFE04461EB12846FFF7D2FE0444E6
:1093400020461837BD46BDE8F08100F1080323F040
:109350000703E846ADEB030D2246411C3B68684617
:10936000FFF744FC69462846FFF7A2FE0446C546BF
:10937000E1E70000014B024A1A607047D8E603207B
:109380006CC50B00024B1A68024B1A60704700BF95
:10939000C8CC0320DCE603200021FFF77BBB0000E4
:1093A000014B00229A607047E0E60320014B1860F1
:1093B000704700BFCCCC032008B50B4B43B100F085
:1093C00081F903681B699847002801DDAFF300802D
:1093D000064B43B100F012FC03681B699847002854
:1093E00001DDAFF3008008BD0000000000000000B8
:1093F00008B5FFF7E1FFFFF7EDF9014B186008BD75
:1094000038E703200548064A064908B5121A01F054
:109410007FF9054B054A1A6008BD00BF00F4032020
:1094200004F4032004C80B0000F403201E1C279A38
:1094300007B5002300931A466FF07701FFF73CFB56
:1094400003B05DF804FB000007B543880A2B08D081
:10945000502B0BD1094B1B684BB103B05DF804EBEB
:109460001847FFF7E5FF03B05DF804FB0023009306
:109470001A466FF07701FFF71FFBF4E7F4E60320CD
:1094800010B512480021FFF7C9FB114B1A68114BA8
:109490009A42114B0CBF012200221A7001D0FFF733
:1094A000B1FFFFF787F9044601F058F90B4B13B1F0
:1094B0002046AFF3008000210848FFF767FBBDE8B6
:1094C000104007480021FFF7EDBA00BFAD930B0035
:1094D00000F403201E1C279AF0E603200000000081
:1094E00049940B001FB50C23ADF8043003688DF8C8
:1094F0000630037A8DF80730436802930021437ADF
:10950000ADF80D1001A88DF80F108DF80C30FFF795
:1095100045FB05B05DF804FB704710B51821044603
:10952000FAF7BBFD204610BDF0B5037D062B8DB0CC
:109530000E4600F104074FF0000412D000F10805B8
:1095400015F8011D0A223046FFF7E1FDAF42044441
:1095500019D0002CF4D02E213046FFF7BFFD044473
:10956000EEE72F236A4639460A208DF80040FFF7C0
:1095700059F9684601F028F933680246DB68694604
:1095800030469847044620460DB0F0BD10B5054B57
:109590000446112240F8043B002101F0C7F82046A0
:1095A00010BD00BF94C50B000346074A10B543F831
:1095B000042B01F1100251F8044B43F8044B914283
:1095C000F9D10A781A7010BD94C50B0010B59DF83A
:1095D000084044EA032343EA024242EA01610423C9
:1095E0004160037510BD000007B5064B0360CB78E2
:1095F00000938B784A780978FFF7E8FF03B05DF8AD
:1096000004FB00BF94C50B0041747047704770475E
:1096100008B50021007CFFF715FA40EAE07008BDAC
:1096200008B50121007CFFF70DFA40EAE07008BDA3
:1096300008B5007CFFF7FEF920EAE07008BD08B528
:10964000007CFFF7EFF920EAE07008BD13B504468F
:10965000007C0191FFF7EEF90028019901DC607CA4
:1096600020B1207CFFF7F6F920EAE07002B010BDCF
:10967000007CFFF7F7B910B514210446FAF70DFD89
:10968000204610BD10B54FF47A73044608460021F9
:10969000C4E90113044B2360012320746374114651
:1096A000FFF7B0F9204610BDA8C50B00007C0022D2
:1096B000FFF7B0B910B514220446002101F036F8C6
:1096C000204610BD10B50F4C88B003A8FFF7F2FF7D
:1096D0002178BFF35B8F11F001010FD1204601917A
:1096E000FAF7EAFC019948B103AA0748FFF7CAFF55
:1096F0002046FAF7E6FC054800F0FCFF024808B0F7
:1097000010BD00BFF8E60320FCE603200D960B0019
:10971000FFF738B8FFF72EB8F8B587B204463846D9
:109720000D46164600F0BAF960B102213846FEF740
:10973000F9FF022806D1324629462046BDE8F84006
:10974000FFF750B9F8BD38B585B20446284600F099
:10975000A5F950B102212846FEF7E4FF022804D102
:109760002046BDE83840FFF745B938BD7047417421
:10977000704708B5007CFFF78DF820EAE07008BD5F
:1097800008B5007CFFF75EF820EAE07008BD08B578
:10979000007CFFF767F840EAE07008BD08B5007C80
:1097A000FFF758F840EAE07008BD007CFFF762B8A8
:1097B00037B5457C04462DB1207C03B0BDE8304070
:1097C000FFF738B8007C0191FFF764F80028019991
:1097D000F2DC284603B030BD10B514210446FAF778
:1097E0005CFC204610BD000010B54FF47A730446AF
:1097F000084611460022C4E90123044B23600123DB
:1098000020746374FFF74EF8204610BDD8C50B00D6
:109810007047F8B5064615460C468F18BC4206D070
:10982000336814F8011B9B6830469847F6E72846D2
:10983000F8BD007C0022FFF75DB8007C0021FFF737
:1098400061B8007C0021FFF765B8007C0021FFF7BC
:1098500069B8007C0021FFF76DB810B514210446EB
:10986000FAF71BFC204610BD10B54FF47A7304467E
:1098700008460021C4E90113034B236020741146FC
:10988000FFF768F8204610BD08C60B00007C0022D8
:10989000FFF710B80023007C1A461946FFF712B8EC
:1098A000007C0022FFF716B8C9B2FFF7F9BF007CB1
:1098B0000022FFF717B80121FFF7F9BF0022406827
:1098C0001146FFF71BB9002240681146FFF736B971
:1098D000002240681146FFF741B940680022FFF7B7
:1098E00035B94068002281F00101FFF71FB900235C
:1098F00040681A461946FFF711B9002340681A4616
:109900001946FFF703B9002240681146FFF7E6B891
:10991000406800220221FFF7E9B8002340681A4698
:10992000FFF7D4B8024B04225A60024A1A6070470B
:1099300010E7032030C60B00002340681A46FFF7EB
:10994000C5B8406800220221FFF7D0B80022406865
:109950001146FFF7C3B8002240681146FFF7CEB8A2
:10996000002340681A461946FFF7D0B80023406824
:109970001A461946FFF7D2B840680021FFF7F6B83B
:1099800040680021FFF7FAB84068002281F0010129
:10999000FFF7CCB840680022FFF7D8B80022406833
:1099A0001146FFF7DBB8002240681146FFF7C6B842
:1099B0002DE9F04395B014460D460746FFF7E6FD46
:1099C00000211C220DA8009100F0B0FE40230C9352
:1099D00020466B460CAA0021FEF79CFE0446002898
:1099E0004BD1024601216868FFF788F802218046C2
:1099F00022466868FFF782F8009E81462146002EC5
:109A00003BD0002939D17368022B03D00A2B11D027
:109A1000F669F4E7B8F1000FFAD0716906A80431CD
:109A200007ADFFF7E1FD0FCD3C1D0FC42B68237080
:109A30004146EDE7B9F1000FEAD07469102201A8A0
:109A400000F074FE06238DF8143001AD04F1080314
:109A50001834186859682A4603C20833A3421546C9
:109A6000F7D101A906A807ADFFF79EFD0FCD3C1D5C
:109A70000FC42B6823704946CAE70098FEF742FEE0
:109A8000384615B0BDE8F083024B034A1A60002245
:109A90005A60704718E703206CC60B00232813B5E3
:109AA00002D9002002B010BDA0F10B03022B1AD87E
:109AB000174C2178BFF35B8F11F001010BD12046C9
:109AC0000191FAF7F9FA019928B11248FFF7F2F873
:109AD0002046FAF7F6FA0F4B1878FEF75BFF0028DE
